{
  "contractName": "Marketplace",
  "abi": [
    {
      "constant": true,
      "inputs": [
        {
          "internalType": "uint256",
          "name": "",
          "type": "uint256"
        }
      ],
      "name": "customers",
      "outputs": [
        {
          "internalType": "uint256",
          "name": "id",
          "type": "uint256"
        },
        {
          "internalType": "address",
          "name": "owner",
          "type": "address"
        },
        {
          "internalType": "string",
          "name": "name",
          "type": "string"
        },
        {
          "internalType": "string",
          "name": "addressLocation",
          "type": "string"
        },
        {
          "internalType": "string",
          "name": "phone",
          "type": "string"
        },
        {
          "internalType": "uint256",
          "name": "itemCount",
          "type": "uint256"
        }
      ],
      "payable": false,
      "stateMutability": "view",
      "type": "function"
    },
    {
      "constant": true,
      "inputs": [],
      "name": "customersCount",
      "outputs": [
        {
          "internalType": "uint256",
          "name": "",
          "type": "uint256"
        }
      ],
      "payable": false,
      "stateMutability": "view",
      "type": "function"
    },
    {
      "constant": true,
      "inputs": [
        {
          "internalType": "uint256",
          "name": "",
          "type": "uint256"
        }
      ],
      "name": "foodDeliveries",
      "outputs": [
        {
          "internalType": "uint256",
          "name": "id",
          "type": "uint256"
        },
        {
          "internalType": "address",
          "name": "owner",
          "type": "address"
        },
        {
          "internalType": "string",
          "name": "name",
          "type": "string"
        },
        {
          "internalType": "string",
          "name": "email",
          "type": "string"
        },
        {
          "internalType": "string",
          "name": "phone",
          "type": "string"
        },
        {
          "internalType": "int256",
          "name": "rating",
          "type": "int256"
        },
        {
          "internalType": "bool",
          "name": "available",
          "type": "bool"
        },
        {
          "internalType": "uint256",
          "name": "ordersAcceptedCount",
          "type": "uint256"
        },
        {
          "internalType": "uint256",
          "name": "feedbackCount",
          "type": "uint256"
        }
      ],
      "payable": false,
      "stateMutability": "view",
      "type": "function"
    },
    {
      "constant": true,
      "inputs": [],
      "name": "foodDeliveriesCount",
      "outputs": [
        {
          "internalType": "uint256",
          "name": "",
          "type": "uint256"
        }
      ],
      "payable": false,
      "stateMutability": "view",
      "type": "function"
    },
    {
      "constant": true,
      "inputs": [
        {
          "internalType": "uint256",
          "name": "",
          "type": "uint256"
        }
      ],
      "name": "hawkers",
      "outputs": [
        {
          "internalType": "uint256",
          "name": "id",
          "type": "uint256"
        },
        {
          "internalType": "address",
          "name": "owner",
          "type": "address"
        },
        {
          "internalType": "string",
          "name": "name",
          "type": "string"
        },
        {
          "internalType": "string",
          "name": "addressLocation",
          "type": "string"
        },
        {
          "internalType": "string",
          "name": "emailAddress",
          "type": "string"
        },
        {
          "internalType": "string",
          "name": "phone",
          "type": "string"
        },
        {
          "internalType": "string",
          "name": "openingHours",
          "type": "string"
        },
        {
          "internalType": "uint256",
          "name": "avgRating",
          "type": "uint256"
        },
        {
          "internalType": "string",
          "name": "licenseHash",
          "type": "string"
        },
        {
          "internalType": "bool",
          "name": "open",
          "type": "bool"
        },
        {
          "internalType": "uint256",
          "name": "feedbackCount",
          "type": "uint256"
        },
        {
          "internalType": "uint256",
          "name": "itemCount",
          "type": "uint256"
        }
      ],
      "payable": false,
      "stateMutability": "view",
      "type": "function"
    },
    {
      "constant": true,
      "inputs": [],
      "name": "hawkersCount",
      "outputs": [
        {
          "internalType": "uint256",
          "name": "",
          "type": "uint256"
        }
      ],
      "payable": false,
      "stateMutability": "view",
      "type": "function"
    },
    {
      "constant": true,
      "inputs": [
        {
          "internalType": "uint256",
          "name": "",
          "type": "uint256"
        }
      ],
      "name": "orders",
      "outputs": [
        {
          "internalType": "uint256",
          "name": "id",
          "type": "uint256"
        },
        {
          "internalType": "address",
          "name": "owner",
          "type": "address"
        },
        {
          "internalType": "address",
          "name": "seller",
          "type": "address"
        },
        {
          "internalType": "address",
          "name": "rider",
          "type": "address"
        },
        {
          "internalType": "uint256",
          "name": "hawkerPayment",
          "type": "uint256"
        },
        {
          "internalType": "uint256",
          "name": "riderPayment",
          "type": "uint256"
        },
        {
          "internalType": "uint256",
          "name": "totalPrice",
          "type": "uint256"
        },
        {
          "internalType": "uint256",
          "name": "purchasedItemCount",
          "type": "uint256"
        },
        {
          "internalType": "string",
          "name": "date",
          "type": "string"
        },
        {
          "internalType": "string",
          "name": "time",
          "type": "string"
        },
        {
          "internalType": "enum Marketplace.Status",
          "name": "state",
          "type": "uint8"
        },
        {
          "internalType": "bool",
          "name": "rated",
          "type": "bool"
        }
      ],
      "payable": false,
      "stateMutability": "view",
      "type": "function"
    },
    {
      "constant": true,
      "inputs": [],
      "name": "ordersCount",
      "outputs": [
        {
          "internalType": "uint256",
          "name": "",
          "type": "uint256"
        }
      ],
      "payable": false,
      "stateMutability": "view",
      "type": "function"
    },
    {
      "constant": true,
      "inputs": [],
      "name": "restProdCount",
      "outputs": [
        {
          "internalType": "uint256",
          "name": "",
          "type": "uint256"
        }
      ],
      "payable": false,
      "stateMutability": "view",
      "type": "function"
    },
    {
      "constant": true,
      "inputs": [
        {
          "internalType": "uint256",
          "name": "",
          "type": "uint256"
        }
      ],
      "name": "restProducts",
      "outputs": [
        {
          "internalType": "uint256",
          "name": "id",
          "type": "uint256"
        },
        {
          "internalType": "string",
          "name": "name",
          "type": "string"
        },
        {
          "internalType": "uint256",
          "name": "price",
          "type": "uint256"
        },
        {
          "internalType": "address payable",
          "name": "owner",
          "type": "address"
        },
        {
          "internalType": "bool",
          "name": "published",
          "type": "bool"
        },
        {
          "internalType": "string",
          "name": "imageHash",
          "type": "string"
        },
        {
          "internalType": "uint256",
          "name": "soldCount",
          "type": "uint256"
        }
      ],
      "payable": false,
      "stateMutability": "view",
      "type": "function"
    },
    {
      "constant": true,
      "inputs": [],
      "name": "state",
      "outputs": [
        {
          "internalType": "enum Marketplace.Status",
          "name": "",
          "type": "uint8"
        }
      ],
      "payable": false,
      "stateMutability": "view",
      "type": "function"
    },
    {
      "constant": true,
      "inputs": [],
      "name": "suppProdCount",
      "outputs": [
        {
          "internalType": "uint256",
          "name": "",
          "type": "uint256"
        }
      ],
      "payable": false,
      "stateMutability": "view",
      "type": "function"
    },
    {
      "constant": true,
      "inputs": [
        {
          "internalType": "uint256",
          "name": "",
          "type": "uint256"
        }
      ],
      "name": "suppProducts",
      "outputs": [
        {
          "internalType": "uint256",
          "name": "id",
          "type": "uint256"
        },
        {
          "internalType": "string",
          "name": "name",
          "type": "string"
        },
        {
          "internalType": "uint256",
          "name": "price",
          "type": "uint256"
        },
        {
          "internalType": "uint256",
          "name": "size",
          "type": "uint256"
        },
        {
          "internalType": "uint256",
          "name": "minOrder",
          "type": "uint256"
        },
        {
          "internalType": "address payable",
          "name": "owner",
          "type": "address"
        },
        {
          "internalType": "bool",
          "name": "published",
          "type": "bool"
        },
        {
          "internalType": "string",
          "name": "imageHash",
          "type": "string"
        }
      ],
      "payable": false,
      "stateMutability": "view",
      "type": "function"
    },
    {
      "constant": true,
      "inputs": [
        {
          "internalType": "uint256",
          "name": "",
          "type": "uint256"
        }
      ],
      "name": "suppliers",
      "outputs": [
        {
          "internalType": "uint256",
          "name": "id",
          "type": "uint256"
        },
        {
          "internalType": "address",
          "name": "owner",
          "type": "address"
        },
        {
          "internalType": "string",
          "name": "name",
          "type": "string"
        },
        {
          "internalType": "string",
          "name": "email",
          "type": "string"
        },
        {
          "internalType": "string",
          "name": "addressLocation",
          "type": "string"
        },
        {
          "internalType": "string",
          "name": "phone",
          "type": "string"
        },
        {
          "internalType": "uint256",
          "name": "MOQ",
          "type": "uint256"
        },
        {
          "internalType": "uint256",
          "name": "leadTime",
          "type": "uint256"
        },
        {
          "internalType": "string",
          "name": "deliveryDays",
          "type": "string"
        },
        {
          "internalType": "string",
          "name": "remarks",
          "type": "string"
        },
        {
          "internalType": "uint256",
          "name": "avgRating",
          "type": "uint256"
        },
        {
          "internalType": "uint256",
          "name": "feedbackCount",
          "type": "uint256"
        }
      ],
      "payable": false,
      "stateMutability": "view",
      "type": "function"
    },
    {
      "constant": true,
      "inputs": [],
      "name": "suppliersCount",
      "outputs": [
        {
          "internalType": "uint256",
          "name": "",
          "type": "uint256"
        }
      ],
      "payable": false,
      "stateMutability": "view",
      "type": "function"
    },
    {
      "constant": false,
      "inputs": [
        {
          "internalType": "address",
          "name": "_owner",
          "type": "address"
        },
        {
          "internalType": "string",
          "name": "_name",
          "type": "string"
        },
        {
          "internalType": "string",
          "name": "_email",
          "type": "string"
        },
        {
          "internalType": "string",
          "name": "_phone",
          "type": "string"
        }
      ],
      "name": "addFoodDelivery",
      "outputs": [],
      "payable": false,
      "stateMutability": "nonpayable",
      "type": "function"
    },
    {
      "constant": false,
      "inputs": [
        {
          "internalType": "address",
          "name": "_owner",
          "type": "address"
        },
        {
          "internalType": "string",
          "name": "_name",
          "type": "string"
        },
        {
          "internalType": "string",
          "name": "_email",
          "type": "string"
        },
        {
          "internalType": "string",
          "name": "_addressLocation",
          "type": "string"
        },
        {
          "internalType": "string",
          "name": "_phone",
          "type": "string"
        },
        {
          "internalType": "uint256",
          "name": "_moq",
          "type": "uint256"
        },
        {
          "internalType": "uint256",
          "name": "_leadTime",
          "type": "uint256"
        },
        {
          "internalType": "string",
          "name": "_deliveryDays",
          "type": "string"
        },
        {
          "internalType": "string",
          "name": "_remarks",
          "type": "string"
        }
      ],
      "name": "addSupplier",
      "outputs": [],
      "payable": false,
      "stateMutability": "nonpayable",
      "type": "function"
    },
    {
      "constant": false,
      "inputs": [
        {
          "internalType": "address",
          "name": "_owner",
          "type": "address"
        },
        {
          "internalType": "string",
          "name": "_name",
          "type": "string"
        },
        {
          "internalType": "string",
          "name": "_addressLocation",
          "type": "string"
        },
        {
          "internalType": "string",
          "name": "_emailAddress",
          "type": "string"
        },
        {
          "internalType": "string",
          "name": "_phone",
          "type": "string"
        },
        {
          "internalType": "string",
          "name": "_openingHours",
          "type": "string"
        },
        {
          "internalType": "string",
          "name": "_licenseHash",
          "type": "string"
        }
      ],
      "name": "addHawker",
      "outputs": [],
      "payable": false,
      "stateMutability": "nonpayable",
      "type": "function"
    },
    {
      "constant": false,
      "inputs": [
        {
          "internalType": "uint256",
          "name": "_id",
          "type": "uint256"
        },
        {
          "internalType": "string",
          "name": "_phone",
          "type": "string"
        },
        {
          "internalType": "string",
          "name": "_OH",
          "type": "string"
        }
      ],
      "name": "editHawkerProfile",
      "outputs": [],
      "payable": false,
      "stateMutability": "nonpayable",
      "type": "function"
    },
    {
      "constant": false,
      "inputs": [
        {
          "internalType": "uint256",
          "name": "_id",
          "type": "uint256"
        }
      ],
      "name": "boolOpen",
      "outputs": [],
      "payable": false,
      "stateMutability": "nonpayable",
      "type": "function"
    },
    {
      "constant": false,
      "inputs": [
        {
          "internalType": "uint256",
          "name": "_id",
          "type": "uint256"
        }
      ],
      "name": "boolWork",
      "outputs": [],
      "payable": false,
      "stateMutability": "nonpayable",
      "type": "function"
    },
    {
      "constant": false,
      "inputs": [
        {
          "internalType": "string",
          "name": "_name",
          "type": "string"
        },
        {
          "internalType": "uint256",
          "name": "_price",
          "type": "uint256"
        },
        {
          "internalType": "uint256",
          "name": "_size",
          "type": "uint256"
        },
        {
          "internalType": "uint256",
          "name": "_minOrder",
          "type": "uint256"
        },
        {
          "internalType": "bool",
          "name": "_published",
          "type": "bool"
        },
        {
          "internalType": "string",
          "name": "_imageHash",
          "type": "string"
        }
      ],
      "name": "createSuppProduct",
      "outputs": [],
      "payable": false,
      "stateMutability": "nonpayable",
      "type": "function"
    },
    {
      "constant": false,
      "inputs": [
        {
          "internalType": "string",
          "name": "_name",
          "type": "string"
        },
        {
          "internalType": "uint256",
          "name": "_price",
          "type": "uint256"
        },
        {
          "internalType": "bool",
          "name": "_published",
          "type": "bool"
        },
        {
          "internalType": "string",
          "name": "_imageHash",
          "type": "string"
        }
      ],
      "name": "createRestProduct",
      "outputs": [],
      "payable": false,
      "stateMutability": "nonpayable",
      "type": "function"
    },
    {
      "constant": false,
      "inputs": [
        {
          "internalType": "address",
          "name": "_owner",
          "type": "address"
        },
        {
          "internalType": "string",
          "name": "_name",
          "type": "string"
        },
        {
          "internalType": "string",
          "name": "_addressLocation",
          "type": "string"
        },
        {
          "internalType": "string",
          "name": "_phone",
          "type": "string"
        }
      ],
      "name": "addCustomer",
      "outputs": [],
      "payable": false,
      "stateMutability": "nonpayable",
      "type": "function"
    },
    {
      "constant": false,
      "inputs": [
        {
          "internalType": "uint256",
          "name": "_id",
          "type": "uint256"
        },
        {
          "internalType": "string",
          "name": "_phone",
          "type": "string"
        },
        {
          "internalType": "string",
          "name": "_address",
          "type": "string"
        }
      ],
      "name": "editCustProfile",
      "outputs": [],
      "payable": false,
      "stateMutability": "nonpayable",
      "type": "function"
    },
    {
      "constant": false,
      "inputs": [
        {
          "internalType": "uint256",
          "name": "_id",
          "type": "uint256"
        },
        {
          "internalType": "string",
          "name": "_phone",
          "type": "string"
        },
        {
          "internalType": "uint256",
          "name": "_moq",
          "type": "uint256"
        },
        {
          "internalType": "uint256",
          "name": "_leadTime",
          "type": "uint256"
        },
        {
          "internalType": "string",
          "name": "_deliveryDays",
          "type": "string"
        },
        {
          "internalType": "string",
          "name": "_remarks",
          "type": "string"
        }
      ],
      "name": "editSupplierProfile",
      "outputs": [],
      "payable": false,
      "stateMutability": "nonpayable",
      "type": "function"
    },
    {
      "constant": false,
      "inputs": [
        {
          "internalType": "uint256",
          "name": "_productId",
          "type": "uint256"
        },
        {
          "internalType": "string",
          "name": "_name",
          "type": "string"
        },
        {
          "internalType": "uint256",
          "name": "_price",
          "type": "uint256"
        },
        {
          "internalType": "string",
          "name": "_imageHash",
          "type": "string"
        },
        {
          "internalType": "bool",
          "name": "_published",
          "type": "bool"
        }
      ],
      "name": "editProduct",
      "outputs": [],
      "payable": false,
      "stateMutability": "nonpayable",
      "type": "function"
    },
    {
      "constant": false,
      "inputs": [
        {
          "internalType": "uint256",
          "name": "_productId",
          "type": "uint256"
        },
        {
          "internalType": "string",
          "name": "_name",
          "type": "string"
        },
        {
          "internalType": "uint256",
          "name": "_price",
          "type": "uint256"
        },
        {
          "internalType": "uint256",
          "name": "_size",
          "type": "uint256"
        },
        {
          "internalType": "uint256",
          "name": "_minOrder",
          "type": "uint256"
        },
        {
          "internalType": "string",
          "name": "_imageHash",
          "type": "string"
        },
        {
          "internalType": "bool",
          "name": "_published",
          "type": "bool"
        }
      ],
      "name": "editSuppProduct",
      "outputs": [],
      "payable": false,
      "stateMutability": "nonpayable",
      "type": "function"
    },
    {
      "constant": false,
      "inputs": [
        {
          "internalType": "uint256",
          "name": "_custId",
          "type": "uint256"
        },
        {
          "internalType": "uint256",
          "name": "_prodId",
          "type": "uint256"
        },
        {
          "internalType": "uint256",
          "name": "_prodQty",
          "type": "uint256"
        }
      ],
      "name": "addToCart",
      "outputs": [],
      "payable": false,
      "stateMutability": "nonpayable",
      "type": "function"
    },
    {
      "constant": false,
      "inputs": [
        {
          "internalType": "uint256",
          "name": "_hawkerId",
          "type": "uint256"
        },
        {
          "internalType": "uint256",
          "name": "_prodId",
          "type": "uint256"
        },
        {
          "internalType": "uint256",
          "name": "_prodQty",
          "type": "uint256"
        }
      ],
      "name": "addToCartHawker",
      "outputs": [],
      "payable": false,
      "stateMutability": "nonpayable",
      "type": "function"
    },
    {
      "constant": false,
      "inputs": [
        {
          "internalType": "uint256",
          "name": "custId",
          "type": "uint256"
        },
        {
          "internalType": "uint256",
          "name": "cartId",
          "type": "uint256"
        }
      ],
      "name": "removeProdCart",
      "outputs": [],
      "payable": false,
      "stateMutability": "nonpayable",
      "type": "function"
    },
    {
      "constant": false,
      "inputs": [
        {
          "internalType": "uint256",
          "name": "_id",
          "type": "uint256"
        },
        {
          "internalType": "uint256",
          "name": "_indicator",
          "type": "uint256"
        }
      ],
      "name": "removeAllProdCart",
      "outputs": [],
      "payable": false,
      "stateMutability": "nonpayable",
      "type": "function"
    },
    {
      "constant": false,
      "inputs": [
        {
          "internalType": "uint256",
          "name": "id",
          "type": "uint256"
        },
        {
          "internalType": "uint256",
          "name": "cartId",
          "type": "uint256"
        },
        {
          "internalType": "uint256",
          "name": "indicator",
          "type": "uint256"
        }
      ],
      "name": "getCartProduct",
      "outputs": [
        {
          "internalType": "uint256",
          "name": "",
          "type": "uint256"
        },
        {
          "internalType": "uint256",
          "name": "",
          "type": "uint256"
        }
      ],
      "payable": false,
      "stateMutability": "nonpayable",
      "type": "function"
    },
    {
      "constant": false,
      "inputs": [
        {
          "internalType": "uint256",
          "name": "orderId",
          "type": "uint256"
        },
        {
          "internalType": "uint256",
          "name": "cartId",
          "type": "uint256"
        }
      ],
      "name": "getOrderProduct",
      "outputs": [
        {
          "components": [
            {
              "internalType": "uint256",
              "name": "id",
              "type": "uint256"
            },
            {
              "internalType": "string",
              "name": "name",
              "type": "string"
            },
            {
              "internalType": "uint256",
              "name": "price",
              "type": "uint256"
            },
            {
              "internalType": "address payable",
              "name": "owner",
              "type": "address"
            },
            {
              "internalType": "bool",
              "name": "published",
              "type": "bool"
            },
            {
              "internalType": "string",
              "name": "imageHash",
              "type": "string"
            },
            {
              "internalType": "uint256",
              "name": "soldCount",
              "type": "uint256"
            }
          ],
          "internalType": "struct Marketplace.RestProduct",
          "name": "",
          "type": "tuple"
        },
        {
          "components": [
            {
              "internalType": "uint256",
              "name": "id",
              "type": "uint256"
            },
            {
              "internalType": "uint256",
              "name": "productId",
              "type": "uint256"
            },
            {
              "internalType": "uint256",
              "name": "productQty",
              "type": "uint256"
            }
          ],
          "internalType": "struct Marketplace.CartItem",
          "name": "",
          "type": "tuple"
        }
      ],
      "payable": false,
      "stateMutability": "nonpayable",
      "type": "function"
    },
    {
      "constant": false,
      "inputs": [
        {
          "internalType": "uint256",
          "name": "orderId",
          "type": "uint256"
        },
        {
          "internalType": "uint256",
          "name": "cartId",
          "type": "uint256"
        }
      ],
      "name": "getOrderProductHawker",
      "outputs": [
        {
          "components": [
            {
              "internalType": "uint256",
              "name": "id",
              "type": "uint256"
            },
            {
              "internalType": "string",
              "name": "name",
              "type": "string"
            },
            {
              "internalType": "uint256",
              "name": "price",
              "type": "uint256"
            },
            {
              "internalType": "uint256",
              "name": "size",
              "type": "uint256"
            },
            {
              "internalType": "uint256",
              "name": "minOrder",
              "type": "uint256"
            },
            {
              "internalType": "address payable",
              "name": "owner",
              "type": "address"
            },
            {
              "internalType": "bool",
              "name": "published",
              "type": "bool"
            },
            {
              "internalType": "string",
              "name": "imageHash",
              "type": "string"
            }
          ],
          "internalType": "struct Marketplace.SuppProduct",
          "name": "",
          "type": "tuple"
        },
        {
          "components": [
            {
              "internalType": "uint256",
              "name": "id",
              "type": "uint256"
            },
            {
              "internalType": "uint256",
              "name": "productId",
              "type": "uint256"
            },
            {
              "internalType": "uint256",
              "name": "productQty",
              "type": "uint256"
            }
          ],
          "internalType": "struct Marketplace.CartItem",
          "name": "",
          "type": "tuple"
        }
      ],
      "payable": false,
      "stateMutability": "nonpayable",
      "type": "function"
    },
    {
      "constant": false,
      "inputs": [
        {
          "internalType": "uint256",
          "name": "hawkerId",
          "type": "uint256"
        },
        {
          "internalType": "uint256",
          "name": "feedbackCount",
          "type": "uint256"
        }
      ],
      "name": "getHawkerFeedback",
      "outputs": [
        {
          "components": [
            {
              "internalType": "uint256",
              "name": "id",
              "type": "uint256"
            },
            {
              "internalType": "address",
              "name": "seller",
              "type": "address"
            },
            {
              "internalType": "address",
              "name": "customer",
              "type": "address"
            },
            {
              "internalType": "uint256",
              "name": "rate",
              "type": "uint256"
            },
            {
              "internalType": "string",
              "name": "comment",
              "type": "string"
            }
          ],
          "internalType": "struct Marketplace.Feedback",
          "name": "",
          "type": "tuple"
        }
      ],
      "payable": false,
      "stateMutability": "nonpayable",
      "type": "function"
    },
    {
      "constant": false,
      "inputs": [
        {
          "internalType": "uint256",
          "name": "fdId",
          "type": "uint256"
        },
        {
          "internalType": "uint256",
          "name": "feedbackCount",
          "type": "uint256"
        }
      ],
      "name": "getFdFeedback",
      "outputs": [
        {
          "components": [
            {
              "internalType": "uint256",
              "name": "id",
              "type": "uint256"
            },
            {
              "internalType": "address",
              "name": "seller",
              "type": "address"
            },
            {
              "internalType": "address",
              "name": "customer",
              "type": "address"
            },
            {
              "internalType": "uint256",
              "name": "rate",
              "type": "uint256"
            },
            {
              "internalType": "string",
              "name": "comment",
              "type": "string"
            }
          ],
          "internalType": "struct Marketplace.Feedback",
          "name": "",
          "type": "tuple"
        }
      ],
      "payable": false,
      "stateMutability": "nonpayable",
      "type": "function"
    },
    {
      "constant": false,
      "inputs": [
        {
          "internalType": "uint256",
          "name": "_orderId",
          "type": "uint256"
        },
        {
          "internalType": "uint256",
          "name": "_hawkerId",
          "type": "uint256"
        },
        {
          "internalType": "uint256",
          "name": "_hawkerRate",
          "type": "uint256"
        },
        {
          "internalType": "string",
          "name": "_hawkerComment",
          "type": "string"
        },
        {
          "internalType": "uint256",
          "name": "_foodDeliveryId",
          "type": "uint256"
        },
        {
          "internalType": "uint256",
          "name": "_fdRate",
          "type": "uint256"
        },
        {
          "internalType": "string",
          "name": "_fdComment",
          "type": "string"
        }
      ],
      "name": "setRating",
      "outputs": [],
      "payable": false,
      "stateMutability": "nonpayable",
      "type": "function"
    },
    {
      "constant": false,
      "inputs": [
        {
          "internalType": "uint256",
          "name": "_orderId",
          "type": "uint256"
        },
        {
          "internalType": "address payable",
          "name": "_customer",
          "type": "address"
        }
      ],
      "name": "cancelOrder",
      "outputs": [],
      "payable": true,
      "stateMutability": "payable",
      "type": "function"
    },
    {
      "constant": false,
      "inputs": [
        {
          "internalType": "uint256",
          "name": "_indicator",
          "type": "uint256"
        },
        {
          "internalType": "uint256",
          "name": "_id",
          "type": "uint256"
        },
        {
          "internalType": "address payable",
          "name": "_seller",
          "type": "address"
        },
        {
          "internalType": "uint256",
          "name": "_hawkerPayment",
          "type": "uint256"
        },
        {
          "internalType": "uint256",
          "name": "_riderPayment",
          "type": "uint256"
        },
        {
          "internalType": "uint256",
          "name": "_totalCost",
          "type": "uint256"
        },
        {
          "internalType": "string",
          "name": "_date",
          "type": "string"
        },
        {
          "internalType": "string",
          "name": "_time",
          "type": "string"
        }
      ],
      "name": "purchaseProduct",
      "outputs": [],
      "payable": true,
      "stateMutability": "payable",
      "type": "function"
    },
    {
      "constant": false,
      "inputs": [
        {
          "internalType": "uint256",
          "name": "_orderId",
          "type": "uint256"
        }
      ],
      "name": "hawkerConfirmOrder",
      "outputs": [],
      "payable": false,
      "stateMutability": "nonpayable",
      "type": "function"
    },
    {
      "constant": false,
      "inputs": [
        {
          "internalType": "uint256",
          "name": "_orderId",
          "type": "uint256"
        }
      ],
      "name": "fdAcceptOrder",
      "outputs": [],
      "payable": false,
      "stateMutability": "nonpayable",
      "type": "function"
    },
    {
      "constant": false,
      "inputs": [
        {
          "internalType": "uint256",
          "name": "_orderId",
          "type": "uint256"
        }
      ],
      "name": "fdCollectedOrder",
      "outputs": [],
      "payable": false,
      "stateMutability": "nonpayable",
      "type": "function"
    },
    {
      "constant": false,
      "inputs": [
        {
          "internalType": "uint256",
          "name": "_orderId",
          "type": "uint256"
        },
        {
          "internalType": "uint256",
          "name": "_fdId",
          "type": "uint256"
        }
      ],
      "name": "fdCompleteOrder",
      "outputs": [],
      "payable": true,
      "stateMutability": "payable",
      "type": "function"
    }
  ],
  "bytecode": "0x60806040526000600655600060085534801561001a57600080fd5b50616393806200002b6000396000f3fe6080604052600436106102675760003560e01c80638968bffd11610144578063c19d93fb116100b6578063e34960761161007a578063e3496076146109a4578063e6f65b4c146109cd578063f0bbfb07146109f8578063f2e7e19514610a21578063f486fca214610a4a578063f75c2d8814610a6657610267565b8063c19d93fb1461089b578063cc3cb432146108c6578063cea23121146108ef578063e16f14e214610937578063e24b05621461097b57610267565b8063a9937b2211610108578063a9937b2214610759578063aa38fdee14610784578063abed579f146107ad578063b0fd5c46146107f0578063bb474eab1461081b578063c0abda2a1461085957610267565b80638968bffd1461066d578063995d7d93146106965780639a81fecc146106bf5780639d0d6f8b146106e8578063a85c38ef1461071157610267565b80633be94d47116101dd57806364a6b494116101a157806364a6b494146105805780637188bf5c146105ab5780637323a7d3146105d4578063757a2703146105f05780637d9bbc731461061b5780637e577ef61461064457610267565b80633be94d47146104805780634244c3d4146104c85780634368d179146104f157806360b22e3c1461052e57806362fb14221461055757610267565b80631460953c1161022f5780631460953c1461036c57806315cfae3914610395578063278e381c146103d25780633034143714610410578063352e740c1461042c57806335daa7311461045557610267565b8063049af3f91461026c578063093c05fa1461029557806309cd3f07146102da5780630c21a8d2146103035780630eac453e1461032e575b600080fd5b34801561027857600080fd5b50610293600480360361028e91908101906153d9565b610a8f565b005b3480156102a157600080fd5b506102bc60048036036102b79190810190615374565b610aea565b6040516102d199989796959493929190615d73565b60405180910390f35b3480156102e657600080fd5b5061030160048036036102fc91908101906152bb565b610d2d565b005b34801561030f57600080fd5b50610318610e97565b6040516103259190615c90565b60405180910390f35b34801561033a57600080fd5b506103556004803603610350919081019061569e565b610e9d565b604051610363929190615c60565b60405180910390f35b34801561037857600080fd5b50610393600480360361038e9190810190614ef9565b61114c565b005b3480156103a157600080fd5b506103bc60048036036103b7919081019061569e565b6112ac565b6040516103c99190615c0e565b60405180910390f35b3480156103de57600080fd5b506103f960048036036103f4919081019061569e565b611461565b604051610407929190615c30565b60405180910390f35b61042a600480360361042591908101906156da565b611705565b005b34801561043857600080fd5b50610453600480360361044e91908101906150d2565b6124e2565b005b34801561046157600080fd5b5061046a6126e6565b6040516104779190615c90565b60405180910390f35b34801561048c57600080fd5b506104a760048036036104a29190810190615374565b6126ec565b6040516104bf9c9b9a99989796959493929190615e15565b60405180910390f35b3480156104d457600080fd5b506104ef60048036036104ea919081019061569e565b612b09565b005b3480156104fd57600080fd5b506105186004803603610513919081019061569e565b612b6a565b6040516105259190615c0e565b60405180910390f35b34801561053a57600080fd5b5061055560048036036105509190810190614ef9565b612d20565b005b34801561056357600080fd5b5061057e600480360361057991908101906155d0565b612ecc565b005b34801561058c57600080fd5b50610595612faa565b6040516105a29190615c90565b60405180910390f35b3480156105b757600080fd5b506105d260048036036105cd9190810190615374565b612fb0565b005b6105ee60048036036105e9919081019061539d565b613003565b005b3480156105fc57600080fd5b5061060561309c565b6040516106129190615c90565b60405180910390f35b34801561062757600080fd5b50610642600480360361063d91908101906153d9565b6130a2565b005b34801561065057600080fd5b5061066b6004803603610666919081019061569e565b6130fd565b005b34801561067957600080fd5b50610694600480360361068f9190810190615458565b613200565b005b3480156106a257600080fd5b506106bd60048036036106b89190810190615374565b6132a6565b005b3480156106cb57600080fd5b506106e660048036036106e191908101906157bc565b613336565b005b3480156106f457600080fd5b5061070f600480360361070a9190810190615374565b6133f0565b005b34801561071d57600080fd5b5061073860048036036107339190810190615374565b613488565b6040516107509c9b9a99989796959493929190615cab565b60405180910390f35b34801561076557600080fd5b5061076e613692565b60405161077b9190615c90565b60405180910390f35b34801561079057600080fd5b506107ab60048036036107a69190810190614fa4565b613698565b005b3480156107b957600080fd5b506107d460048036036107cf9190810190615374565b6138b4565b6040516107e79796959493929190616053565b60405180910390f35b3480156107fc57600080fd5b50610805613a53565b6040516108129190615c90565b60405180910390f35b34801561082757600080fd5b50610842600480360361083d91908101906157bc565b613a59565b60405161085092919061615c565b60405180910390f35b34801561086557600080fd5b50610880600480360361087b9190810190615374565b613b0f565b60405161089296959493929190615fdd565b60405180910390f35b3480156108a757600080fd5b506108b0613d33565b6040516108bd9190615bf3565b60405180910390f35b3480156108d257600080fd5b506108ed60048036036108e89190810190615228565b613d46565b005b3480156108fb57600080fd5b5061091660048036036109119190810190615374565b613e9e565b60405161092e9c9b9a99989796959493929190615ef9565b60405180910390f35b34801561094357600080fd5b5061095e60048036036109599190810190615374565b6142ae565b6040516109729897969594939291906160d0565b60405180910390f35b34801561098757600080fd5b506109a2600480360361099d919081019061580b565b614453565b005b3480156109b057600080fd5b506109cb60048036036109c69190810190615374565b61486c565b005b3480156109d957600080fd5b506109e26148c1565b6040516109ef9190615c90565b60405180910390f35b348015610a0457600080fd5b50610a1f6004803603610a1a9190810190615374565b6148c7565b005b348015610a2d57600080fd5b50610a486004803603610a4391908101906154ff565b614902565b005b610a646004803603610a5f919081019061569e565b6149c1565b005b348015610a7257600080fd5b50610a8d6004803603610a8891908101906157bc565b614a7f565b005b81600460008581526020019081526020016000206005019080519060200190610ab9929190614b39565b5080600460008581526020019081526020016000206006019080519060200190610ae4929190614b39565b50505050565b60006020528060005260406000206000915090508060000154908060010160009054906101000a900473ffffffffffffffffffffffffffffffffffffffff1690806002018054600181600116156101000203166002900480601f016020809104026020016040519081016040528092919081815260200182805460018160011615610100020316600290048015610bc25780601f10610b9757610100808354040283529160200191610bc2565b820191906000526020600020905b815481529060010190602001808311610ba557829003601f168201915b505050505090806003018054600181600116156101000203166002900480601f016020809104026020016040519081016040528092919081815260200182805460018160011615610100020316600290048015610c605780601f10610c3557610100808354040283529160200191610c60565b820191906000526020600020905b815481529060010190602001808311610c4357829003601f168201915b505050505090806004018054600181600116156101000203166002900480601f016020809104026020016040519081016040528092919081815260200182805460018160011615610100020316600290048015610cfe5780601f10610cd357610100808354040283529160200191610cfe565b820191906000526020600020905b815481529060010190602001808311610ce157829003601f168201915b5050505050908060050154908060060160009054906101000a900460ff16908060070154908060090154905089565b6000865111610d3b57600080fd5b60008511610d4857600080fd5b60066000815480929190600101919050555060405180610100016040528060065481526020018781526020018681526020018581526020018481526020013373ffffffffffffffffffffffffffffffffffffffff168152602001831515815260200182815250600760006006548152602001908152602001600020600082015181600001556020820151816001019080519060200190610de9929190614bb9565b5060408201518160020155606082015181600301556080820151816004015560a08201518160050160006101000a81548173ffffffffffffffffffffffffffffffffffffffff021916908373ffffffffffffffffffffffffffffffffffffffff16021790555060c08201518160050160146101000a81548160ff02191690831515021790555060e0820151816006019080519060200190610e8b929190614bb9565b50905050505050505050565b600e5481565b610ea5614c39565b610ead614c96565b6000600b60008681526020019081526020016000206007016000858152602001908152602001600020600101549050610ee4614c39565b600760008381526020019081526020016000206040518061010001604052908160008201548152602001600182018054600181600116156101000203166002900480601f016020809104026020016040519081016040528092919081815260200182805460018160011615610100020316600290048015610fa65780601f10610f7b57610100808354040283529160200191610fa6565b820191906000526020600020905b815481529060010190602001808311610f8957829003601f168201915b505050505081526020016002820154815260200160038201548152602001600482015481526020016005820160009054906101000a900473ffffffffffffffffffffffffffffffffffffffff1673ffffffffffffffffffffffffffffffffffffffff1673ffffffffffffffffffffffffffffffffffffffff1681526020016005820160149054906101000a900460ff16151515158152602001600682018054600181600116156101000203166002900480601f0160208091040260200160405190810160405280929190818152602001828054600181600116156101000203166002900480156110d75780601f106110ac576101008083540402835291602001916110d7565b820191906000526020600020905b8154815290600101906020018083116110ba57829003601f168201915b50505050508152505090506110ea614c96565b600b60008881526020019081526020016000206007016000878152602001908152602001600020604051806060016040529081600082015481526020016001820154815260200160028201548152505090508181945094505050509250929050565b8373ffffffffffffffffffffffffffffffffffffffff163373ffffffffffffffffffffffffffffffffffffffff161461118457600080fd5b600e600081548092919060010191905055506040518060c00160405280600e5481526020013373ffffffffffffffffffffffffffffffffffffffff1681526020018481526020018381526020018281526020016000815250600d6000600e5481526020019081526020016000206000820151816000015560208201518160010160006101000a81548173ffffffffffffffffffffffffffffffffffffffff021916908373ffffffffffffffffffffffffffffffffffffffff160217905550604082015181600201908051906020019061125e929190614bb9565b50606082015181600301908051906020019061127b929190614bb9565b506080820151816004019080519060200190611298929190614bb9565b5060a0820151816006015590505050505050565b6112b4614cb7565b600080600085815260200190815260200160002090506112d2614cb7565b8160080160008581526020019081526020016000206040518060a0016040529081600082015481526020016001820160009054906101000a900473ffffffffffffffffffffffffffffffffffffffff1673ffffffffffffffffffffffffffffffffffffffff1673ffffffffffffffffffffffffffffffffffffffff1681526020016002820160009054906101000a900473ffffffffffffffffffffffffffffffffffffffff1673ffffffffffffffffffffffffffffffffffffffff1673ffffffffffffffffffffffffffffffffffffffff16815260200160038201548152602001600482018054600181600116156101000203166002900480601f01602080910402602001604051908101604052809291908181526020018280546001816001161561010002031660029004801561144b5780601f106114205761010080835404028352916020019161144b565b820191906000526020600020905b81548152906001019060200180831161142e57829003601f168201915b5050505050815250509050809250505092915050565b611469614d12565b611471614c96565b6000600b600086815260200190815260200160002060070160008581526020019081526020016000206001015490506114a8614d12565b600960008381526020019081526020016000206040518060e001604052908160008201548152602001600182018054600181600116156101000203166002900480601f0160208091040260200160405190810160405280929190818152602001828054600181600116156101000203166002900480156115695780601f1061153e57610100808354040283529160200191611569565b820191906000526020600020905b81548152906001019060200180831161154c57829003601f168201915b50505050508152602001600282015481526020016003820160009054906101000a900473ffffffffffffffffffffffffffffffffffffffff1673ffffffffffffffffffffffffffffffffffffffff1673ffffffffffffffffffffffffffffffffffffffff1681526020016003820160149054906101000a900460ff16151515158152602001600482018054600181600116156101000203166002900480601f0160208091040260200160405190810160405280929190818152602001828054600181600116156101000203166002900480156116865780601f1061165b57610100808354040283529160200191611686565b820191906000526020600020905b81548152906001019060200180831161166957829003601f168201915b5050505050815260200160058201548152505090506116a3614c96565b600b60008881526020019081526020016000206007016000878152602001908152602001600020604051806060016040529081600082015481526020016001820154815260200160028201548152505090508181945094505050509250929050565b6001881415611cfc57611716614d67565b600d60008981526020019081526020016000206040518060c0016040529081600082015481526020016001820160009054906101000a900473ffffffffffffffffffffffffffffffffffffffff1673ffffffffffffffffffffffffffffffffffffffff1673ffffffffffffffffffffffffffffffffffffffff168152602001600282018054600181600116156101000203166002900480601f01602080910402602001604051908101604052809291908181526020018280546001816001161561010002031660029004801561182d5780601f106118025761010080835404028352916020019161182d565b820191906000526020600020905b81548152906001019060200180831161181057829003601f168201915b50505050508152602001600382018054600181600116156101000203166002900480601f0160208091040260200160405190810160405280929190818152602001828054600181600116156101000203166002900480156118cf5780601f106118a4576101008083540402835291602001916118cf565b820191906000526020600020905b8154815290600101906020018083116118b257829003601f168201915b50505050508152602001600482018054600181600116156101000203166002900480601f0160208091040260200160405190810160405280929190818152602001828054600181600116156101000203166002900480156119715780601f1061194657610100808354040283529160200191611971565b820191906000526020600020905b81548152906001019060200180831161195457829003601f168201915b505050505081526020016006820154815250509050600c600081548092919060010191905055506000600a60006101000a81548160ff021916908360058111156119b757fe5b0217905550604051806101800160405280600c548152602001826020015173ffffffffffffffffffffffffffffffffffffffff1681526020018873ffffffffffffffffffffffffffffffffffffffff168152602001600073ffffffffffffffffffffffffffffffffffffffff1681526020018781526020018681526020018581526020018260a001518152602001848152602001838152602001600a60009054906101000a900460ff166005811115611a6c57fe5b815260200160001515815250600b6000600c5481526020019081526020016000206000820151816000015560208201518160010160006101000a81548173ffffffffffffffffffffffffffffffffffffffff021916908373ffffffffffffffffffffffffffffffffffffffff16021790555060408201518160020160006101000a81548173ffffffffffffffffffffffffffffffffffffffff021916908373ffffffffffffffffffffffffffffffffffffffff16021790555060608201518160030160006101000a81548173ffffffffffffffffffffffffffffffffffffffff021916908373ffffffffffffffffffffffffffffffffffffffff1602179055506080820151816004015560a0820151816005015560c0820151816006015560e08201518160080155610100820151816009019080519060200190611bb1929190614bb9565b5061012082015181600a019080519060200190611bcf929190614bb9565b5061014082015181600b0160006101000a81548160ff02191690836005811115611bf557fe5b021790555061016082015181600b0160016101000a81548160ff0219169083151502179055509050506000600190505b8160a001518111611cdd57600080611c3f8b846001613a59565b91509150604051806060016040528084815260200183815260200182815250600b6000600c5481526020019081526020016000206007016000858152602001908152602001600020600082015181600001556020820151816001015560408201518160020155905050600960008381526020019081526020016000206005016000815480929190600101919050555050508080600101915050611c25565b5083341015611ceb57600080fd5b611cf68860016130fd565b506124d8565b611d04614db3565b6004600089815260200190815260200160002060405180610180016040529081600082015481526020016001820160009054906101000a900473ffffffffffffffffffffffffffffffffffffffff1673ffffffffffffffffffffffffffffffffffffffff1673ffffffffffffffffffffffffffffffffffffffff168152602001600282018054600181600116156101000203166002900480601f016020809104026020016040519081016040528092919081815260200182805460018160011615610100020316600290048015611e1c5780601f10611df157610100808354040283529160200191611e1c565b820191906000526020600020905b815481529060010190602001808311611dff57829003601f168201915b50505050508152602001600382018054600181600116156101000203166002900480601f016020809104026020016040519081016040528092919081815260200182805460018160011615610100020316600290048015611ebe5780601f10611e9357610100808354040283529160200191611ebe565b820191906000526020600020905b815481529060010190602001808311611ea157829003601f168201915b50505050508152602001600482018054600181600116156101000203166002900480601f016020809104026020016040519081016040528092919081815260200182805460018160011615610100020316600290048015611f605780601f10611f3557610100808354040283529160200191611f60565b820191906000526020600020905b815481529060010190602001808311611f4357829003601f168201915b50505050508152602001600582018054600181600116156101000203166002900480601f0160208091040260200160405190810160405280929190818152602001828054600181600116156101000203166002900480156120025780601f10611fd757610100808354040283529160200191612002565b820191906000526020600020905b815481529060010190602001808311611fe557829003601f168201915b50505050508152602001600682018054600181600116156101000203166002900480601f0160208091040260200160405190810160405280929190818152602001828054600181600116156101000203166002900480156120a45780601f10612079576101008083540402835291602001916120a4565b820191906000526020600020905b81548152906001019060200180831161208757829003601f168201915b5050505050815260200160078201548152602001600882018054600181600116156101000203166002900480601f0160208091040260200160405190810160405280929190818152602001828054600181600116156101000203166002900480156121505780601f1061212557610100808354040283529160200191612150565b820191906000526020600020905b81548152906001019060200180831161213357829003601f168201915b505050505081526020016009820160009054906101000a900460ff16151515158152602001600b8201548152602001600d820154815250509050600c600081548092919060010191905055506000600a60006101000a81548160ff021916908360058111156121bb57fe5b0217905550604051806101800160405280600c548152602001826020015173ffffffffffffffffffffffffffffffffffffffff1681526020018873ffffffffffffffffffffffffffffffffffffffff168152602001600073ffffffffffffffffffffffffffffffffffffffff1681526020018781526020018681526020018581526020018261016001518152602001848152602001838152602001600a60009054906101000a900460ff16600581111561227157fe5b815260200160001515815250600b6000600c5481526020019081526020016000206000820151816000015560208201518160010160006101000a81548173ffffffffffffffffffffffffffffffffffffffff021916908373ffffffffffffffffffffffffffffffffffffffff16021790555060408201518160020160006101000a81548173ffffffffffffffffffffffffffffffffffffffff021916908373ffffffffffffffffffffffffffffffffffffffff16021790555060608201518160030160006101000a81548173ffffffffffffffffffffffffffffffffffffffff021916908373ffffffffffffffffffffffffffffffffffffffff1602179055506080820151816004015560a0820151816005015560c0820151816006015560e082015181600801556101008201518160090190805190602001906123b6929190614bb9565b5061012082015181600a0190805190602001906123d4929190614bb9565b5061014082015181600b0160006101000a81548160ff021916908360058111156123fa57fe5b021790555061016082015181600b0160016101000a81548160ff0219169083151502179055509050506000600190505b81610160015181116124bd576000806124458b846001613a59565b91509150604051806060016040528084815260200183815260200182815250600b6000600c54815260200190815260200160002060070160008581526020019081526020016000206000820151816000015560208201518160010155604082015181600201559050505050808060010191505061242a565b50833410156124cb57600080fd5b6124d68860026130fd565b505b5050505050505050565b8873ffffffffffffffffffffffffffffffffffffffff163373ffffffffffffffffffffffffffffffffffffffff161461251a57600080fd5b60036000815480929190600101919050555060405180610180016040528060035481526020013373ffffffffffffffffffffffffffffffffffffffff1681526020018981526020018881526020018781526020018681526020018581526020018481526020018381526020018281526020016000815260200160008152506002600060035481526020019081526020016000206000820151816000015560208201518160010160006101000a81548173ffffffffffffffffffffffffffffffffffffffff021916908373ffffffffffffffffffffffffffffffffffffffff160217905550604082015181600201908051906020019061261a929190614bb9565b506060820151816003019080519060200190612637929190614bb9565b506080820151816004019080519060200190612654929190614bb9565b5060a0820151816005019080519060200190612671929190614bb9565b5060c0820151816006015560e082015181600701556101008201518160080190805190602001906126a3929190614bb9565b506101208201518160090190805190602001906126c1929190614bb9565b5061014082015181600a015561016082015181600c0155905050505050505050505050565b600c5481565b60046020528060005260406000206000915090508060000154908060010160009054906101000a900473ffffffffffffffffffffffffffffffffffffffff1690806002018054600181600116156101000203166002900480601f0160208091040260200160405190810160405280929190818152602001828054600181600116156101000203166002900480156127c45780601f10612799576101008083540402835291602001916127c4565b820191906000526020600020905b8154815290600101906020018083116127a757829003601f168201915b505050505090806003018054600181600116156101000203166002900480601f0160208091040260200160405190810160405280929190818152602001828054600181600116156101000203166002900480156128625780601f1061283757610100808354040283529160200191612862565b820191906000526020600020905b81548152906001019060200180831161284557829003601f168201915b505050505090806004018054600181600116156101000203166002900480601f0160208091040260200160405190810160405280929190818152602001828054600181600116156101000203166002900480156129005780601f106128d557610100808354040283529160200191612900565b820191906000526020600020905b8154815290600101906020018083116128e357829003601f168201915b505050505090806005018054600181600116156101000203166002900480601f01602080910402602001604051908101604052809291908181526020018280546001816001161561010002031660029004801561299e5780601f106129735761010080835404028352916020019161299e565b820191906000526020600020905b81548152906001019060200180831161298157829003601f168201915b505050505090806006018054600181600116156101000203166002900480601f016020809104026020016040519081016040528092919081815260200182805460018160011615610100020316600290048015612a3c5780601f10612a1157610100808354040283529160200191612a3c565b820191906000526020600020905b815481529060010190602001808311612a1f57829003601f168201915b505050505090806007015490806008018054600181600116156101000203166002900480601f016020809104026020016040519081016040528092919081815260200182805460018160011615610100020316600290048015612ae05780601f10612ab557610100808354040283529160200191612ae0565b820191906000526020600020905b815481529060010190602001808311612ac357829003601f168201915b5050505050908060090160009054906101000a900460ff169080600b01549080600d015490508c565b6000600d60008481526020019081526020016000209050806006016000815480929190600190039190505550806005016000838152602001908152602001600020600080820160009055600182016000905560028201600090555050505050565b612b72614cb7565b6000600460008581526020019081526020016000209050612b91614cb7565b81600a0160008581526020019081526020016000206040518060a0016040529081600082015481526020016001820160009054906101000a900473ffffffffffffffffffffffffffffffffffffffff1673ffffffffffffffffffffffffffffffffffffffff1673ffffffffffffffffffffffffffffffffffffffff1681526020016002820160009054906101000a900473ffffffffffffffffffffffffffffffffffffffff1673ffffffffffffffffffffffffffffffffffffffff1673ffffffffffffffffffffffffffffffffffffffff16815260200160038201548152602001600482018054600181600116156101000203166002900480601f016020809104026020016040519081016040528092919081815260200182805460018160011615610100020316600290048015612d0a5780601f10612cdf57610100808354040283529160200191612d0a565b820191906000526020600020905b815481529060010190602001808311612ced57829003601f168201915b5050505050815250509050809250505092915050565b8373ffffffffffffffffffffffffffffffffffffffff163373ffffffffffffffffffffffffffffffffffffffff1614612d5857600080fd5b60016000815480929190600101919050555060405180610120016040528060015481526020013373ffffffffffffffffffffffffffffffffffffffff1681526020018481526020018381526020018281526020016005815260200160001515815260200160008152602001600081525060008060015481526020019081526020016000206000820151816000015560208201518160010160006101000a81548173ffffffffffffffffffffffffffffffffffffffff021916908373ffffffffffffffffffffffffffffffffffffffff1602179055506040820151816002019080519060200190612e49929190614bb9565b506060820151816003019080519060200190612e66929190614bb9565b506080820151816004019080519060200190612e83929190614bb9565b5060a0820151816005015560c08201518160060160006101000a81548160ff02191690831515021790555060e08201518160070155610100820151816009015590505050505050565b85600760008981526020019081526020016000206001019080519060200190612ef6929190614b39565b5084600760008981526020019081526020016000206002018190555083600760008981526020019081526020016000206003018190555082600760008981526020019081526020016000206004018190555081600760008981526020019081526020016000206006019080519060200190612f72929190614b39565b50806007600089815260200190815260200160002060050160146101000a81548160ff02191690831515021790555050505050505050565b60035481565b60008082815260200190815260200160002060060160009054906101000a900460ff161560008083815260200190815260200160002060060160006101000a81548160ff02191690831515021790555050565b6005600b6000848152602001908152602001600020600b0160006101000a81548160ff0219169083600581111561303657fe5b02179055508073ffffffffffffffffffffffffffffffffffffffff166108fc600b6000858152602001908152602001600020600601549081150290604051600060405180830381858888f19350505050158015613097573d6000803e3d6000fd5b505050565b60085481565b81600d600085815260200190815260200160002060040190805190602001906130cc929190614b39565b5080600d600085815260200190815260200160002060030190805190602001906130f7929190614b39565b50505050565b6001811415613183576000600d600084815260200190815260200160002090506000816006015490506000600190505b81811161317157826005016000828152602001908152602001600020600080820160009055600182016000905560028201600090555050808060010191505061312d565b506000826006018190555050506131fc565b6000600460008481526020019081526020016000209050600081600d015490506000600190505b8181116131ee5782600c01600082815260200190815260200160002060008082016000905560018201600090556002820160009055505080806001019150506131aa565b50600082600d018190555050505b5050565b8360096000878152602001908152602001600020600101908051906020019061322a929190614b39565b5082600960008781526020019081526020016000206002018190555081600960008781526020019081526020016000206004019080519060200190613270929190614b39565b50806009600087815260200190815260200160002060030160146101000a81548160ff0219169083151502179055505050505050565b6002600b6000838152602001908152602001600020600b0160006101000a81548160ff021916908360058111156132d957fe5b021790555033600b600083815260200190815260200160002060030160006101000a81548173ffffffffffffffffffffffffffffffffffffffff021916908373ffffffffffffffffffffffffffffffffffffffff16021790555050565b600d6000848152602001908152602001600020600601600081548092919060010191905055506040518060600160405280600d600086815260200190815260200160002060060154815260200183815260200182815250600d60008581526020019081526020016000206005016000600d6000878152602001908152602001600020600601548152602001908152602001600020600082015181600001556020820151816001015560408201518160020155905050505050565b6001600b6000838152602001908152602001600020600b0160006101000a81548160ff0219169083600581111561342357fe5b02179055503373ffffffffffffffffffffffffffffffffffffffff166108fc600b6000848152602001908152602001600020600401549081150290604051600060405180830381858888f19350505050158015613484573d6000803e3d6000fd5b5050565b600b6020528060005260406000206000915090508060000154908060010160009054906101000a900473ffffffffffffffffffffffffffffffffffffffff16908060020160009054906101000a900473ffffffffffffffffffffffffffffffffffffffff16908060030160009054906101000a900473ffffffffffffffffffffffffffffffffffffffff1690806004015490806005015490806006015490806008015490806009018054600181600116156101000203166002900480601f0160208091040260200160405190810160405280929190818152602001828054600181600116156101000203166002900480156135c45780601f10613599576101008083540402835291602001916135c4565b820191906000526020600020905b8154815290600101906020018083116135a757829003601f168201915b50505050509080600a018054600181600116156101000203166002900480601f0160208091040260200160405190810160405280929190818152602001828054600181600116156101000203166002900480156136625780601f1061363757610100808354040283529160200191613662565b820191906000526020600020905b81548152906001019060200180831161364557829003601f168201915b50505050509080600b0160009054906101000a900460ff169080600b0160019054906101000a900460ff1690508c565b60065481565b8673ffffffffffffffffffffffffffffffffffffffff163373ffffffffffffffffffffffffffffffffffffffff16146136d057600080fd5b60056000815480929190600101919050555060405180610180016040528060055481526020013373ffffffffffffffffffffffffffffffffffffffff168152602001878152602001868152602001858152602001848152602001838152602001600081526020018281526020016000151581526020016000815260200160008152506004600060055481526020019081526020016000206000820151816000015560208201518160010160006101000a81548173ffffffffffffffffffffffffffffffffffffffff021916908373ffffffffffffffffffffffffffffffffffffffff16021790555060408201518160020190805190602001906137d4929190614bb9565b5060608201518160030190805190602001906137f1929190614bb9565b50608082015181600401908051906020019061380e929190614bb9565b5060a082015181600501908051906020019061382b929190614bb9565b5060c0820151816006019080519060200190613848929190614bb9565b5060e08201518160070155610100820151816008019080519060200190613870929190614bb9565b506101208201518160090160006101000a81548160ff02191690831515021790555061014082015181600b015561016082015181600d015590505050505050505050565b6009602052806000526040600020600091509050806000015490806001018054600181600116156101000203166002900480601f0160208091040260200160405190810160405280929190818152602001828054600181600116156101000203166002900480156139665780601f1061393b57610100808354040283529160200191613966565b820191906000526020600020905b81548152906001019060200180831161394957829003601f168201915b5050505050908060020154908060030160009054906101000a900473ffffffffffffffffffffffffffffffffffffffff16908060030160149054906101000a900460ff1690806004018054600181600116156101000203166002900480601f016020809104026020016040519081016040528092919081815260200182805460018160011615610100020316600290048015613a435780601f10613a1857610100808354040283529160200191613a43565b820191906000526020600020905b815481529060010190602001808311613a2657829003601f168201915b5050505050908060050154905087565b60015481565b6000806001831415613ab8576000600d6000878152602001908152602001600020905080600501600086815260200190815260200160002060010154816005016000878152602001908152602001600020600201549250925050613b07565b600060046000878152602001908152602001600020905080600c0160008681526020019081526020016000206001015481600c0160008781526020019081526020016000206002015492509250505b935093915050565b600d6020528060005260406000206000915090508060000154908060010160009054906101000a900473ffffffffffffffffffffffffffffffffffffffff1690806002018054600181600116156101000203166002900480601f016020809104026020016040519081016040528092919081815260200182805460018160011615610100020316600290048015613be75780601f10613bbc57610100808354040283529160200191613be7565b820191906000526020600020905b815481529060010190602001808311613bca57829003601f168201915b505050505090806003018054600181600116156101000203166002900480601f016020809104026020016040519081016040528092919081815260200182805460018160011615610100020316600290048015613c855780601f10613c5a57610100808354040283529160200191613c85565b820191906000526020600020905b815481529060010190602001808311613c6857829003601f168201915b505050505090806004018054600181600116156101000203166002900480601f016020809104026020016040519081016040528092919081815260200182805460018160011615610100020316600290048015613d235780601f10613cf857610100808354040283529160200191613d23565b820191906000526020600020905b815481529060010190602001808311613d0657829003601f168201915b5050505050908060060154905086565b600a60009054906101000a900460ff1681565b6000845111613d5457600080fd5b60008311613d6157600080fd5b6008600081548092919060010191905055506040518060e0016040528060085481526020018581526020018481526020013373ffffffffffffffffffffffffffffffffffffffff16815260200183151581526020018281526020016000815250600960006008548152602001908152602001600020600082015181600001556020820151816001019080519060200190613dfc929190614bb9565b506040820151816002015560608201518160030160006101000a81548173ffffffffffffffffffffffffffffffffffffffff021916908373ffffffffffffffffffffffffffffffffffffffff16021790555060808201518160030160146101000a81548160ff02191690831515021790555060a0820151816004019080519060200190613e8a929190614bb9565b5060c0820151816005015590505050505050565b60026020528060005260406000206000915090508060000154908060010160009054906101000a900473ffffffffffffffffffffffffffffffffffffffff1690806002018054600181600116156101000203166002900480601f016020809104026020016040519081016040528092919081815260200182805460018160011615610100020316600290048015613f765780601f10613f4b57610100808354040283529160200191613f76565b820191906000526020600020905b815481529060010190602001808311613f5957829003601f168201915b505050505090806003018054600181600116156101000203166002900480601f0160208091040260200160405190810160405280929190818152602001828054600181600116156101000203166002900480156140145780601f10613fe957610100808354040283529160200191614014565b820191906000526020600020905b815481529060010190602001808311613ff757829003601f168201915b505050505090806004018054600181600116156101000203166002900480601f0160208091040260200160405190810160405280929190818152602001828054600181600116156101000203166002900480156140b25780601f10614087576101008083540402835291602001916140b2565b820191906000526020600020905b81548152906001019060200180831161409557829003601f168201915b505050505090806005018054600181600116156101000203166002900480601f0160208091040260200160405190810160405280929190818152602001828054600181600116156101000203166002900480156141505780601f1061412557610100808354040283529160200191614150565b820191906000526020600020905b81548152906001019060200180831161413357829003601f168201915b505050505090806006015490806007015490806008018054600181600116156101000203166002900480601f0160208091040260200160405190810160405280929190818152602001828054600181600116156101000203166002900480156141fa5780601f106141cf576101008083540402835291602001916141fa565b820191906000526020600020905b8154815290600101906020018083116141dd57829003601f168201915b505050505090806009018054600181600116156101000203166002900480601f0160208091040260200160405190810160405280929190818152602001828054600181600116156101000203166002900480156142985780601f1061426d57610100808354040283529160200191614298565b820191906000526020600020905b81548152906001019060200180831161427b57829003601f168201915b50505050509080600a01549080600c015490508c565b6007602052806000526040600020600091509050806000015490806001018054600181600116156101000203166002900480601f0160208091040260200160405190810160405280929190818152602001828054600181600116156101000203166002900480156143605780601f1061433557610100808354040283529160200191614360565b820191906000526020600020905b81548152906001019060200180831161434357829003601f168201915b5050505050908060020154908060030154908060040154908060050160009054906101000a900473ffffffffffffffffffffffffffffffffffffffff16908060050160149054906101000a900460ff1690806006018054600181600116156101000203166002900480601f0160208091040260200160405190810160405280929190818152602001828054600181600116156101000203166002900480156144495780601f1061441e57610100808354040283529160200191614449565b820191906000526020600020905b81548152906001019060200180831161442c57829003601f168201915b5050505050905088565b6001600b6000898152602001908152602001600020600b0160016101000a81548160ff02191690831515021790555060046000878152602001908152602001600020600b01600081548092919060010191905055506040518060a0016040528060046000898152602001908152602001600020600b015481526020016004600089815260200190815260200160002060010160009054906101000a900473ffffffffffffffffffffffffffffffffffffffff1673ffffffffffffffffffffffffffffffffffffffff1681526020013373ffffffffffffffffffffffffffffffffffffffff1681526020018681526020018581525060046000888152602001908152602001600020600a016000600460008a8152602001908152602001600020600b015481526020019081526020016000206000820151816000015560208201518160010160006101000a81548173ffffffffffffffffffffffffffffffffffffffff021916908373ffffffffffffffffffffffffffffffffffffffff16021790555060408201518160020160006101000a81548173ffffffffffffffffffffffffffffffffffffffff021916908373ffffffffffffffffffffffffffffffffffffffff160217905550606082015181600301556080820151816004019080519060200190614642929190614bb9565b509050506000600460008881526020019081526020016000206007015486019050600060046000898152602001908152602001600020600b0154828161468457fe5b04905080600460008a815260200190815260200160002060070181905550600080868152602001908152602001600020600901600081548092919060010191905055506040518060a0016040528060008088815260200190815260200160002060090154815260200160008088815260200190815260200160002060010160009054906101000a900473ffffffffffffffffffffffffffffffffffffffff1673ffffffffffffffffffffffffffffffffffffffff1681526020013373ffffffffffffffffffffffffffffffffffffffff1681526020018581526020018481525060008087815260200190815260200160002060080160008060008981526020019081526020016000206009015481526020019081526020016000206000820151816000015560208201518160010160006101000a81548173ffffffffffffffffffffffffffffffffffffffff021916908373ffffffffffffffffffffffffffffffffffffffff16021790555060408201518160020160006101000a81548173ffffffffffffffffffffffffffffffffffffffff021916908373ffffffffffffffffffffffffffffffffffffffff16021790555060608201518160030155608082015181600401908051906020019061485d929190614bb9565b50905050505050505050505050565b6004600082815260200190815260200160002060090160009054906101000a900460ff16156004600083815260200190815260200160002060090160006101000a81548160ff02191690831515021790555050565b60055481565b6003600b6000838152602001908152602001600020600b0160006101000a81548160ff021916908360058111156148fa57fe5b021790555050565b8460026000888152602001908152602001600020600501908051906020019061492c929190614b39565b508360026000888152602001908152602001600020600601819055508260026000888152602001908152602001600020600701819055508160026000888152602001908152602001600020600801908051906020019061498d929190614b39565b50806002600088815260200190815260200160002060090190805190602001906149b8929190614b39565b50505050505050565b6004600b6000848152602001908152602001600020600b0160006101000a81548160ff021916908360058111156149f457fe5b02179055503373ffffffffffffffffffffffffffffffffffffffff166108fc600b6000858152602001908152602001600020600501549081150290604051600060405180830381858888f19350505050158015614a55573d6000803e3d6000fd5b50600080828152602001908152602001600020600701600081548092919060010191905055505050565b60046000848152602001908152602001600020600d0160008154809291906001019190505550604051806060016040528060046000868152602001908152602001600020600d015481526020018381526020018281525060046000858152602001908152602001600020600c01600060046000878152602001908152602001600020600d01548152602001908152602001600020600082015181600001556020820151816001015560408201518160020155905050505050565b828054600181600116156101000203166002900490600052602060002090601f016020900481019282601f10614b7a57805160ff1916838001178555614ba8565b82800160010185558215614ba8579182015b82811115614ba7578251825591602001919060010190614b8c565b5b509050614bb59190614e2c565b5090565b828054600181600116156101000203166002900490600052602060002090601f016020900481019282601f10614bfa57805160ff1916838001178555614c28565b82800160010185558215614c28579182015b82811115614c27578251825591602001919060010190614c0c565b5b509050614c359190614e2c565b5090565b6040518061010001604052806000815260200160608152602001600081526020016000815260200160008152602001600073ffffffffffffffffffffffffffffffffffffffff168152602001600015158152602001606081525090565b60405180606001604052806000815260200160008152602001600081525090565b6040518060a0016040528060008152602001600073ffffffffffffffffffffffffffffffffffffffff168152602001600073ffffffffffffffffffffffffffffffffffffffff16815260200160008152602001606081525090565b6040518060e00160405280600081526020016060815260200160008152602001600073ffffffffffffffffffffffffffffffffffffffff16815260200160001515815260200160608152602001600081525090565b6040518060c0016040528060008152602001600073ffffffffffffffffffffffffffffffffffffffff168152602001606081526020016060815260200160608152602001600081525090565b60405180610180016040528060008152602001600073ffffffffffffffffffffffffffffffffffffffff1681526020016060815260200160608152602001606081526020016060815260200160608152602001600081526020016060815260200160001515815260200160008152602001600081525090565b614e4e91905b80821115614e4a576000816000905550600101614e32565b5090565b90565b600081359050614e60816162f4565b92915050565b600081359050614e758161630b565b92915050565b600081359050614e8a81616322565b92915050565b600082601f830112614ea157600080fd5b8135614eb4614eaf826161b2565b616185565b91508082526020830160208301858383011115614ed057600080fd5b614edb838284616294565b50505092915050565b600081359050614ef381616339565b92915050565b60008060008060808587031215614f0f57600080fd5b6000614f1d87828801614e51565b945050602085013567ffffffffffffffff811115614f3a57600080fd5b614f4687828801614e90565b935050604085013567ffffffffffffffff811115614f6357600080fd5b614f6f87828801614e90565b925050606085013567ffffffffffffffff811115614f8c57600080fd5b614f9887828801614e90565b91505092959194509250565b600080600080600080600060e0888a031215614fbf57600080fd5b6000614fcd8a828b01614e51565b975050602088013567ffffffffffffffff811115614fea57600080fd5b614ff68a828b01614e90565b965050604088013567ffffffffffffffff81111561501357600080fd5b61501f8a828b01614e90565b955050606088013567ffffffffffffffff81111561503c57600080fd5b6150488a828b01614e90565b945050608088013567ffffffffffffffff81111561506557600080fd5b6150718a828b01614e90565b93505060a088013567ffffffffffffffff81111561508e57600080fd5b61509a8a828b01614e90565b92505060c088013567ffffffffffffffff8111156150b757600080fd5b6150c38a828b01614e90565b91505092959891949750929550565b60008060008060008060008060006101208a8c0312156150f157600080fd5b60006150ff8c828d01614e51565b99505060208a013567ffffffffffffffff81111561511c57600080fd5b6151288c828d01614e90565b98505060408a013567ffffffffffffffff81111561514557600080fd5b6151518c828d01614e90565b97505060608a013567ffffffffffffffff81111561516e57600080fd5b61517a8c828d01614e90565b96505060808a013567ffffffffffffffff81111561519757600080fd5b6151a38c828d01614e90565b95505060a06151b48c828d01614ee4565b94505060c06151c58c828d01614ee4565b93505060e08a013567ffffffffffffffff8111156151e257600080fd5b6151ee8c828d01614e90565b9250506101008a013567ffffffffffffffff81111561520c57600080fd5b6152188c828d01614e90565b9150509295985092959850929598565b6000806000806080858703121561523e57600080fd5b600085013567ffffffffffffffff81111561525857600080fd5b61526487828801614e90565b945050602061527587828801614ee4565b935050604061528687828801614e7b565b925050606085013567ffffffffffffffff8111156152a357600080fd5b6152af87828801614e90565b91505092959194509250565b60008060008060008060c087890312156152d457600080fd5b600087013567ffffffffffffffff8111156152ee57600080fd5b6152fa89828a01614e90565b965050602061530b89828a01614ee4565b955050604061531c89828a01614ee4565b945050606061532d89828a01614ee4565b935050608061533e89828a01614e7b565b92505060a087013567ffffffffffffffff81111561535b57600080fd5b61536789828a01614e90565b9150509295509295509295565b60006020828403121561538657600080fd5b600061539484828501614ee4565b91505092915050565b600080604083850312156153b057600080fd5b60006153be85828601614ee4565b92505060206153cf85828601614e66565b9150509250929050565b6000806000606084860312156153ee57600080fd5b60006153fc86828701614ee4565b935050602084013567ffffffffffffffff81111561541957600080fd5b61542586828701614e90565b925050604084013567ffffffffffffffff81111561544257600080fd5b61544e86828701614e90565b9150509250925092565b600080600080600060a0868803121561547057600080fd5b600061547e88828901614ee4565b955050602086013567ffffffffffffffff81111561549b57600080fd5b6154a788828901614e90565b94505060406154b888828901614ee4565b935050606086013567ffffffffffffffff8111156154d557600080fd5b6154e188828901614e90565b92505060806154f288828901614e7b565b9150509295509295909350565b60008060008060008060c0878903121561551857600080fd5b600061552689828a01614ee4565b965050602087013567ffffffffffffffff81111561554357600080fd5b61554f89828a01614e90565b955050604061556089828a01614ee4565b945050606061557189828a01614ee4565b935050608087013567ffffffffffffffff81111561558e57600080fd5b61559a89828a01614e90565b92505060a087013567ffffffffffffffff8111156155b757600080fd5b6155c389828a01614e90565b9150509295509295509295565b600080600080600080600060e0888a0312156155eb57600080fd5b60006155f98a828b01614ee4565b975050602088013567ffffffffffffffff81111561561657600080fd5b6156228a828b01614e90565b96505060406156338a828b01614ee4565b95505060606156448a828b01614ee4565b94505060806156558a828b01614ee4565b93505060a088013567ffffffffffffffff81111561567257600080fd5b61567e8a828b01614e90565b92505060c061568f8a828b01614e7b565b91505092959891949750929550565b600080604083850312156156b157600080fd5b60006156bf85828601614ee4565b92505060206156d085828601614ee4565b9150509250929050565b600080600080600080600080610100898b0312156156f757600080fd5b60006157058b828c01614ee4565b98505060206157168b828c01614ee4565b97505060406157278b828c01614e66565b96505060606157388b828c01614ee4565b95505060806157498b828c01614ee4565b94505060a061575a8b828c01614ee4565b93505060c089013567ffffffffffffffff81111561577757600080fd5b6157838b828c01614e90565b92505060e089013567ffffffffffffffff8111156157a057600080fd5b6157ac8b828c01614e90565b9150509295985092959890939650565b6000806000606084860312156157d157600080fd5b60006157df86828701614ee4565b93505060206157f086828701614ee4565b925050604061580186828701614ee4565b9150509250925092565b600080600080600080600060e0888a03121561582657600080fd5b60006158348a828b01614ee4565b97505060206158458a828b01614ee4565b96505060406158568a828b01614ee4565b955050606088013567ffffffffffffffff81111561587357600080fd5b61587f8a828b01614e90565b94505060806158908a828b01614ee4565b93505060a06158a18a828b01614ee4565b92505060c088013567ffffffffffffffff8111156158be57600080fd5b6158ca8a828b01614e90565b91505092959891949750929550565b6158e28161621d565b82525050565b6158f18161621d565b82525050565b6159008161620b565b82525050565b61590f8161620b565b82525050565b61591e8161622f565b82525050565b61592d8161622f565b82525050565b61593c81616282565b82525050565b61594b8161624e565b82525050565b600061595c826161de565b61596681856161e9565b93506159768185602086016162a3565b61597f816162d6565b840191505092915050565b6000615995826161de565b61599f81856161fa565b93506159af8185602086016162a3565b6159b8816162d6565b840191505092915050565b6060820160008201516159d96000850182615bd5565b5060208201516159ec6020850182615bd5565b5060408201516159ff6040850182615bd5565b50505050565b600060a083016000830151615a1d6000860182615bd5565b506020830151615a3060208601826158f7565b506040830151615a4360408601826158f7565b506060830151615a566060860182615bd5565b5060808301518482036080860152615a6e8282615951565b9150508091505092915050565b600060e083016000830151615a936000860182615bd5565b5060208301518482036020860152615aab8282615951565b9150506040830151615ac06040860182615bd5565b506060830151615ad360608601826158d9565b506080830151615ae66080860182615915565b5060a083015184820360a0860152615afe8282615951565b91505060c0830151615b1360c0860182615bd5565b508091505092915050565b600061010083016000830151615b376000860182615bd5565b5060208301518482036020860152615b4f8282615951565b9150506040830151615b646040860182615bd5565b506060830151615b776060860182615bd5565b506080830151615b8a6080860182615bd5565b5060a0830151615b9d60a08601826158d9565b5060c0830151615bb060c0860182615915565b5060e083015184820360e0860152615bc88282615951565b9150508091505092915050565b615bde81616278565b82525050565b615bed81616278565b82525050565b6000602082019050615c086000830184615933565b92915050565b60006020820190508181036000830152615c288184615a05565b905092915050565b60006080820190508181036000830152615c4a8185615a7b565b9050615c5960208301846159c3565b9392505050565b60006080820190508181036000830152615c7a8185615b1e565b9050615c8960208301846159c3565b9392505050565b6000602082019050615ca56000830184615be4565b92915050565b600061018082019050615cc1600083018f615be4565b615cce602083018e615906565b615cdb604083018d615906565b615ce8606083018c615906565b615cf5608083018b615be4565b615d0260a083018a615be4565b615d0f60c0830189615be4565b615d1c60e0830188615be4565b818103610100830152615d2f818761598a565b9050818103610120830152615d44818661598a565b9050615d54610140830185615933565b615d62610160830184615924565b9d9c50505050505050505050505050565b600061012082019050615d89600083018c615be4565b615d96602083018b615906565b8181036040830152615da8818a61598a565b90508181036060830152615dbc818961598a565b90508181036080830152615dd0818861598a565b9050615ddf60a0830187615942565b615dec60c0830186615924565b615df960e0830185615be4565b615e07610100830184615be4565b9a9950505050505050505050565b600061018082019050615e2b600083018f615be4565b615e38602083018e615906565b8181036040830152615e4a818d61598a565b90508181036060830152615e5e818c61598a565b90508181036080830152615e72818b61598a565b905081810360a0830152615e86818a61598a565b905081810360c0830152615e9a818961598a565b9050615ea960e0830188615be4565b818103610100830152615ebc818761598a565b9050615ecc610120830186615924565b615eda610140830185615be4565b615ee8610160830184615be4565b9d9c50505050505050505050505050565b600061018082019050615f0f600083018f615be4565b615f1c602083018e615906565b8181036040830152615f2e818d61598a565b90508181036060830152615f42818c61598a565b90508181036080830152615f56818b61598a565b905081810360a0830152615f6a818a61598a565b9050615f7960c0830189615be4565b615f8660e0830188615be4565b818103610100830152615f99818761598a565b9050818103610120830152615fae818661598a565b9050615fbe610140830185615be4565b615fcc610160830184615be4565b9d9c50505050505050505050505050565b600060c082019050615ff26000830189615be4565b615fff6020830188615906565b8181036040830152616011818761598a565b90508181036060830152616025818661598a565b90508181036080830152616039818561598a565b905061604860a0830184615be4565b979650505050505050565b600060e082019050616068600083018a615be4565b818103602083015261607a818961598a565b90506160896040830188615be4565b61609660608301876158e8565b6160a36080830186615924565b81810360a08301526160b5818561598a565b90506160c460c0830184615be4565b98975050505050505050565b6000610100820190506160e6600083018b615be4565b81810360208301526160f8818a61598a565b90506161076040830189615be4565b6161146060830188615be4565b6161216080830187615be4565b61612e60a08301866158e8565b61613b60c0830185615924565b81810360e083015261614d818461598a565b90509998505050505050505050565b60006040820190506161716000830185615be4565b61617e6020830184615be4565b9392505050565b6000604051905081810181811067ffffffffffffffff821117156161a857600080fd5b8060405250919050565b600067ffffffffffffffff8211156161c957600080fd5b601f19601f8301169050602081019050919050565b600081519050919050565b600082825260208201905092915050565b600082825260208201905092915050565b600061621682616258565b9050919050565b600061622882616258565b9050919050565b60008115159050919050565b6000819050616249826162e7565b919050565b6000819050919050565b600073ffffffffffffffffffffffffffffffffffffffff82169050919050565b6000819050919050565b600061628d8261623b565b9050919050565b82818337600083830152505050565b60005b838110156162c15780820151818401526020810190506162a6565b838111156162d0576000848401525b50505050565b6000601f19601f8301169050919050565b600681106162f157fe5b50565b6162fd8161620b565b811461630857600080fd5b50565b6163148161621d565b811461631f57600080fd5b50565b61632b8161622f565b811461633657600080fd5b50565b61634281616278565b811461634d57600080fd5b5056fea365627a7a72315820247c81f21e0a88cf17e93a860e6f61024258fe34adadacce660a4c6d974bbf286c6578706572696d656e74616cf564736f6c63430005100040",
  "source": "// SPDX-License-Identifier: Blockchain\r\n\r\npragma solidity ^0.5.4;\r\n\r\npragma experimental ABIEncoderV2;\r\n\r\ncontract Marketplace {\r\n    //constructor\r\n    // constructor() public {}\r\n\r\n    // event LogRefund(\r\n    //     address indexed receiver,\r\n    //     uint256 amount,\r\n    //     address indexed owner\r\n    // );\r\n\r\n    //FOOD DELIVERY\r\n    struct FoodDelivery {\r\n        uint256 id;\r\n        address owner;\r\n        string name;\r\n        string email;\r\n        string phone;\r\n        int256 rating;\r\n        bool available;\r\n        // mapping(uint256 => Order) ordersAccepted;\r\n        uint256 ordersAcceptedCount;\r\n        mapping(uint256 => Feedback) feedbacks;\r\n        uint256 feedbackCount;\r\n    }\r\n\r\n    // Read/write Food Delivery\r\n    mapping(uint256 => FoodDelivery) public foodDeliveries;\r\n    //Store Food Delivery Count\r\n    uint256 public foodDeliveriesCount;\r\n\r\n    //add new food delivery\r\n    function addFoodDelivery(\r\n        address _owner,\r\n        string memory _name,\r\n        string memory _email,\r\n        string memory _phone\r\n    ) public {\r\n        require(msg.sender == _owner);\r\n        // require(msg.sender == address(_owner));\r\n        foodDeliveriesCount++;\r\n        foodDeliveries[foodDeliveriesCount] = FoodDelivery(\r\n            foodDeliveriesCount,\r\n            msg.sender,\r\n            _name,\r\n            _email,\r\n            _phone,\r\n            5,\r\n            false,\r\n            0,\r\n            0\r\n        );\r\n    }\r\n\r\n    //SUPPLIER\r\n    struct Supplier {\r\n        uint256 id;\r\n        address owner;\r\n        string name;\r\n        string email;\r\n        string addressLocation;\r\n        string phone;\r\n        uint256 MOQ;\r\n        uint256 leadTime;\r\n        string deliveryDays;\r\n        string remarks;\r\n        uint256 avgRating;\r\n        mapping(uint256 => Feedback) feedbacks;\r\n        uint256 feedbackCount;\r\n    }\r\n\r\n    // Read/write Suppliers\r\n    mapping(uint256 => Supplier) public suppliers;\r\n    //Store Suppliers Count\r\n    uint256 public suppliersCount;\r\n\r\n    function addSupplier(\r\n        address _owner,\r\n        string memory _name,\r\n        string memory _email,\r\n        string memory _addressLocation,\r\n        string memory _phone,\r\n        uint256 _moq,\r\n        uint256 _leadTime,\r\n        string memory _deliveryDays,\r\n        string memory _remarks\r\n    ) public {\r\n        require(msg.sender == _owner);\r\n        // require(msg.sender == address(_owner));\r\n        suppliersCount++;\r\n        suppliers[suppliersCount] = Supplier(\r\n            suppliersCount,\r\n            msg.sender,\r\n            _name,\r\n            _email,\r\n            _addressLocation,\r\n            _phone,\r\n            _moq,\r\n            _leadTime,\r\n            _deliveryDays,\r\n            _remarks,\r\n            0,\r\n            0\r\n        );\r\n    }\r\n\r\n    //HAWKER\r\n    struct Hawker {\r\n        uint256 id;\r\n        address owner;\r\n        string name;\r\n        string addressLocation;\r\n        string emailAddress;\r\n        string phone;\r\n        string openingHours;\r\n        uint256 avgRating;\r\n        string licenseHash;\r\n        bool open;\r\n        mapping(uint256 => Feedback) feedbacks;\r\n        uint256 feedbackCount;\r\n        mapping(uint256 => CartItem) cartItems;\r\n        uint256 itemCount;\r\n    }\r\n\r\n    // Read/write Hawkers\r\n    mapping(uint256 => Hawker) public hawkers;\r\n    //Store Hawkers Count\r\n    uint256 public hawkersCount;\r\n\r\n    //FEEDBACK\r\n    struct Feedback {\r\n        uint256 id;\r\n        address seller;\r\n        address customer;\r\n        uint256 rate;\r\n        string comment;\r\n    }\r\n\r\n    function addHawker(\r\n        address _owner,\r\n        string memory _name,\r\n        string memory _addressLocation,\r\n        string memory _emailAddress,\r\n        string memory _phone,\r\n        string memory _openingHours,\r\n        string memory _licenseHash\r\n    ) public {\r\n        require(msg.sender == _owner);\r\n        // require(msg.sender == address(_owner));\r\n        hawkersCount++;\r\n        hawkers[hawkersCount] = Hawker(\r\n            hawkersCount,\r\n            msg.sender,\r\n            _name,\r\n            _addressLocation,\r\n            _emailAddress,\r\n            _phone,\r\n            _openingHours,\r\n            0,\r\n            _licenseHash,\r\n            false,\r\n            0,\r\n            0\r\n        );\r\n    }\r\n\r\n    function editHawkerProfile(\r\n        uint256 _id,\r\n        string memory _phone,\r\n        string memory _OH\r\n    ) public {\r\n        hawkers[_id].phone = _phone;\r\n        hawkers[_id].openingHours = _OH;\r\n    }\r\n\r\n    //change shop status\r\n    function boolOpen(uint256 _id) public {\r\n        hawkers[_id].open = !(hawkers[_id].open);\r\n    }\r\n\r\n    //change food delivery status\r\n    function boolWork(uint256 _id) public {\r\n        foodDeliveries[_id].available = !(foodDeliveries[_id].available);\r\n    }\r\n\r\n    //SUPPLIER\r\n    uint256 public suppProdCount = 0;\r\n    mapping(uint256 => SuppProduct) public suppProducts;\r\n    struct SuppProduct {\r\n        uint256 id;\r\n        string name;\r\n        uint256 price;\r\n        uint256 size;\r\n        uint256 minOrder;\r\n        address payable owner;\r\n        bool published;\r\n        string imageHash;\r\n    }\r\n    struct SuppProfile {\r\n        uint256 id;\r\n        string name;\r\n        string category;\r\n        string location;\r\n        string deliveryHours;\r\n        address payable owner;\r\n        string reviews;\r\n        uint256 rating;\r\n    }\r\n\r\n    //Restaurants products\r\n    uint256 public restProdCount = 0;\r\n    mapping(uint256 => RestProduct) public restProducts;\r\n    struct RestProduct {\r\n        uint256 id;\r\n        string name;\r\n        uint256 price;\r\n        address payable owner;\r\n        bool published;\r\n        string imageHash;\r\n        uint256 soldCount;\r\n    }\r\n\r\n    struct RestProfile {\r\n        uint256 id;\r\n        string name;\r\n        string category;\r\n        string location;\r\n        string deliveryHours;\r\n        address payable owner;\r\n        string reviews;\r\n        uint256 rating;\r\n    }\r\n\r\n    // event RestProdCreated(\r\n    //     uint256 indexed id,\r\n    //     uint256 indexed date,\r\n    //     string name,\r\n    //     uint256 price,\r\n    //     address payable indexed owner,\r\n    //     bool purchased,\r\n    //     string imageHash\r\n    // );\r\n\r\n    // event SupplierProdCreated(\r\n    //     uint256 indexed id,\r\n    //     uint256 indexed date,\r\n    //     string name,\r\n    //     uint256 price,\r\n    //     address payable indexed owner,\r\n    //     bool purchased,\r\n    //     string imageHash\r\n    // );\r\n\r\n    function createSuppProduct(\r\n        string memory _name,\r\n        uint256 _price,\r\n        uint256 _size,\r\n        uint256 _minOrder,\r\n        bool _published,\r\n        string memory _imageHash\r\n    ) public {\r\n        // Require a valid name\r\n        require(bytes(_name).length > 0);\r\n        // Require a valid price\r\n        require(_price > 0);\r\n        // Increment product count\r\n        suppProdCount++;\r\n        // Create the product --- msg.sender is the one who accessed the function\r\n        suppProducts[suppProdCount] = SuppProduct(\r\n            suppProdCount,\r\n            _name,\r\n            _price,\r\n            _size,\r\n            _minOrder,\r\n            msg.sender,\r\n            _published,\r\n            _imageHash\r\n        );\r\n        //trigger an event\r\n        // emit SupplierProdCreated(\r\n        //     suppProdCount,\r\n        //     now,\r\n        //     _name,\r\n        //     _price,\r\n        //     msg.sender,\r\n        //     _published,\r\n        //     _imageHash\r\n        // );\r\n    }\r\n\r\n    function createRestProduct(\r\n        string memory _name,\r\n        uint256 _price,\r\n        bool _published,\r\n        string memory _imageHash\r\n    ) public {\r\n        // Require a valid name\r\n        require(bytes(_name).length > 0);\r\n        // Require a valid price\r\n        require(_price > 0);\r\n        // Increment product count\r\n        restProdCount++;\r\n        // Create the product --- msg.sender is the one who accessed the function\r\n        restProducts[restProdCount] = RestProduct(\r\n            restProdCount,\r\n            _name,\r\n            _price,\r\n            msg.sender,\r\n            _published,\r\n            _imageHash,\r\n            0\r\n        );\r\n        // Trigger an event\r\n        // emit RestProdCreated(\r\n        //     restProdCount,\r\n        //     now,\r\n        //     _name,\r\n        //     _price,\r\n        //     msg.sender,\r\n        //     _published,\r\n        //     _imageHash\r\n        // );\r\n    }\r\n\r\n    //ORDERS\r\n    enum Status {\r\n        OrderPlaced,\r\n        OrderConfirm,\r\n        RiderConfirm,\r\n        OrderCollected,\r\n        OrderCompleted,\r\n        OrderCancelled\r\n    }\r\n    Status public state;\r\n\r\n    struct Order {\r\n        uint256 id;\r\n        address owner;\r\n        address seller;\r\n        address rider;\r\n        uint256 hawkerPayment;\r\n        uint256 riderPayment;\r\n        uint256 totalPrice;\r\n        mapping(uint256 => CartItem) purchasedItemId;\r\n        uint256 purchasedItemCount;\r\n        string date;\r\n        string time;\r\n        Status state;\r\n        bool rated;\r\n    }\r\n\r\n    mapping(uint256 => Order) public orders;\r\n    uint256 public ordersCount;\r\n\r\n    struct CartItem {\r\n        uint256 id;\r\n        uint256 productId;\r\n        uint256 productQty;\r\n    }\r\n\r\n    //CUSTOMER\r\n    struct Customer {\r\n        uint256 id;\r\n        address owner;\r\n        string name;\r\n        string addressLocation;\r\n        string phone;\r\n        mapping(uint256 => CartItem) cartItems;\r\n        uint256 itemCount;\r\n    }\r\n\r\n    mapping(uint256 => Customer) public customers;\r\n    uint256 public customersCount;\r\n\r\n    function addCustomer(\r\n        address _owner,\r\n        string memory _name,\r\n        string memory _addressLocation,\r\n        string memory _phone\r\n    ) public {\r\n        require(msg.sender == _owner);\r\n        // require(msg.sender == address(_owner));\r\n        customersCount++;\r\n        customers[customersCount] = Customer(\r\n            customersCount,\r\n            msg.sender,\r\n            _name,\r\n            _addressLocation,\r\n            _phone,\r\n            0\r\n        );\r\n    }\r\n\r\n    function editCustProfile(\r\n        uint256 _id,\r\n        string memory _phone,\r\n        string memory _address\r\n    ) public {\r\n        customers[_id].phone = _phone;\r\n        customers[_id].addressLocation = _address;\r\n    }\r\n\r\n    function editSupplierProfile(\r\n        uint256 _id,\r\n        string memory _phone,\r\n        uint256 _moq,\r\n        uint256 _leadTime,\r\n        string memory _deliveryDays,\r\n        string memory _remarks\r\n    ) public {\r\n        suppliers[_id].phone = _phone;\r\n        suppliers[_id].MOQ = _moq;\r\n        suppliers[_id].leadTime = _leadTime;\r\n        suppliers[_id].deliveryDays = _deliveryDays;\r\n        suppliers[_id].remarks = _remarks;\r\n    }\r\n\r\n    function editProduct(\r\n        uint256 _productId,\r\n        string memory _name,\r\n        uint256 _price,\r\n        string memory _imageHash,\r\n        bool _published\r\n    ) public {\r\n        restProducts[_productId].name = _name;\r\n        restProducts[_productId].price = _price;\r\n        restProducts[_productId].imageHash = _imageHash;\r\n        restProducts[_productId].published = _published;\r\n    }\r\n\r\n    function editSuppProduct(\r\n        uint256 _productId,\r\n        string memory _name,\r\n        uint256 _price,\r\n        uint256 _size,\r\n        uint256 _minOrder,\r\n        string memory _imageHash,\r\n        bool _published\r\n    ) public {\r\n        suppProducts[_productId].name = _name;\r\n        suppProducts[_productId].price = _price;\r\n        suppProducts[_productId].size = _size;\r\n        suppProducts[_productId].minOrder = _minOrder;\r\n        suppProducts[_productId].imageHash = _imageHash;\r\n        suppProducts[_productId].published = _published;\r\n    }\r\n\r\n    function addToCart(\r\n        uint256 _custId,\r\n        uint256 _prodId,\r\n        uint256 _prodQty\r\n    ) public {\r\n        (customers[_custId].itemCount)++;\r\n        customers[_custId].cartItems[customers[_custId].itemCount] = CartItem(\r\n            customers[_custId].itemCount,\r\n            _prodId,\r\n            _prodQty\r\n        );\r\n    }\r\n\r\n    function addToCartHawker(\r\n        uint256 _hawkerId,\r\n        uint256 _prodId,\r\n        uint256 _prodQty\r\n    ) public {\r\n        (hawkers[_hawkerId].itemCount)++;\r\n        hawkers[_hawkerId].cartItems[hawkers[_hawkerId].itemCount] = CartItem(\r\n            hawkers[_hawkerId].itemCount,\r\n            _prodId,\r\n            _prodQty\r\n        );\r\n    }\r\n\r\n    function removeProdCart(uint256 custId, uint256 cartId) public {\r\n        Customer storage cust = customers[custId];\r\n        (cust.itemCount)--;\r\n        delete cust.cartItems[cartId];\r\n    }\r\n\r\n    // function deleteProduct(uint256 productId) public {\r\n    //     restProdCount--;\r\n    //     delete restProducts[productId];\r\n    // }\r\n\r\n    //indicator - 1 for customer, 2 for hawker\r\n    function removeAllProdCart(uint256 _id, uint256 _indicator) public {\r\n        if (_indicator == 1) {\r\n            Customer storage cust = customers[_id];\r\n            uint256 _itemCount = cust.itemCount;\r\n            for (uint256 i = 1; i <= _itemCount; i++) {\r\n                delete cust.cartItems[i];\r\n            }\r\n            (cust.itemCount) = 0;\r\n        } else {\r\n            Hawker storage hawker = hawkers[_id];\r\n            uint256 _itemCount = hawker.itemCount;\r\n            for (uint256 i = 1; i <= _itemCount; i++) {\r\n                delete hawker.cartItems[i];\r\n            }\r\n            (hawker.itemCount) = 0;\r\n        }\r\n    }\r\n\r\n    //if indicator is 1 then cust, 2 then hawker\r\n    function getCartProduct(\r\n        uint256 id,\r\n        uint256 cartId,\r\n        uint256 indicator\r\n    ) public returns (uint256, uint256) {\r\n        if (indicator == 1) {\r\n            Customer storage cust = customers[id];\r\n            return (\r\n                cust.cartItems[cartId].productId,\r\n                cust.cartItems[cartId].productQty\r\n            );\r\n        } else {\r\n            Hawker storage hawker = hawkers[id];\r\n            return (\r\n                hawker.cartItems[cartId].productId,\r\n                hawker.cartItems[cartId].productQty\r\n            );\r\n        }\r\n    }\r\n\r\n    function getOrderProduct(uint256 orderId, uint256 cartId)\r\n        public\r\n        returns (RestProduct memory, CartItem memory)\r\n    {\r\n        // Order storage ord = orders[orderId];\r\n        uint256 prodId = orders[orderId].purchasedItemId[cartId].productId;\r\n        RestProduct memory _product = restProducts[prodId];\r\n        CartItem memory _cart = orders[orderId].purchasedItemId[cartId];\r\n        return (_product, _cart);\r\n    }\r\n\r\n    function getOrderProductHawker(uint256 orderId, uint256 cartId)\r\n        public\r\n        returns (SuppProduct memory, CartItem memory)\r\n    {\r\n        // Order storage ord = orders[orderId];\r\n\r\n        uint256 prodId = orders[orderId].purchasedItemId[cartId].productId;\r\n        SuppProduct memory _product = suppProducts[prodId];\r\n        CartItem memory _cart = orders[orderId].purchasedItemId[cartId];\r\n        return (_product, _cart);\r\n    }\r\n\r\n    function getHawkerFeedback(uint256 hawkerId, uint256 feedbackCount)\r\n        public\r\n        returns (Feedback memory)\r\n    {\r\n        Hawker storage hawker = hawkers[hawkerId];\r\n        Feedback memory _feedback = hawker.feedbacks[feedbackCount];\r\n        return (_feedback);\r\n    }\r\n\r\n    function getFdFeedback(uint256 fdId, uint256 feedbackCount)\r\n        public\r\n        returns (Feedback memory)\r\n    {\r\n        FoodDelivery storage fd = foodDeliveries[fdId];\r\n        Feedback memory _feedback = fd.feedbacks[feedbackCount];\r\n        return (_feedback);\r\n    }\r\n\r\n    function setRating(\r\n        uint256 _orderId,\r\n        uint256 _hawkerId,\r\n        uint256 _hawkerRate,\r\n        string memory _hawkerComment,\r\n        uint256 _foodDeliveryId,\r\n        uint256 _fdRate,\r\n        string memory _fdComment\r\n    ) public {\r\n        orders[_orderId].rated = true;\r\n\r\n        //set hawker feedback\r\n        (hawkers[_hawkerId].feedbackCount)++;\r\n        hawkers[_hawkerId].feedbacks[\r\n            hawkers[_hawkerId].feedbackCount\r\n        ] = Feedback(\r\n            hawkers[_hawkerId].feedbackCount,\r\n            hawkers[_hawkerId].owner,\r\n            msg.sender,\r\n            _hawkerRate,\r\n            _hawkerComment\r\n        );\r\n        uint256 total = _hawkerRate + hawkers[_hawkerId].avgRating;\r\n        uint256 avg = total / (hawkers[_hawkerId].feedbackCount);\r\n        hawkers[_hawkerId].avgRating = avg;\r\n\r\n        //set fd feedback\r\n        (foodDeliveries[_foodDeliveryId].feedbackCount)++;\r\n        foodDeliveries[_foodDeliveryId].feedbacks[\r\n            foodDeliveries[_foodDeliveryId].feedbackCount\r\n        ] = Feedback(\r\n            foodDeliveries[_foodDeliveryId].feedbackCount,\r\n            foodDeliveries[_foodDeliveryId].owner,\r\n            msg.sender,\r\n            _fdRate,\r\n            _fdComment\r\n        );\r\n    }\r\n\r\n    function cancelOrder(uint256 _orderId, address payable _customer)\r\n        public\r\n        payable\r\n    {\r\n        orders[_orderId].state = Status.OrderCancelled;\r\n        address(_customer).transfer(orders[_orderId].totalPrice);\r\n    }\r\n\r\n    // event HawkerProdPurchased(\r\n    //     uint256 orderId,\r\n    //     address indexed buyer,\r\n    //     address indexed seller,\r\n    //     uint256 totalCost,\r\n    //     uint256 indexed date\r\n    // );\r\n\r\n    // function purchaseProduct(\r\n    //     uint256 _custId,\r\n    //     address payable _seller,\r\n    //     uint256 _hawkerPayment,\r\n    //     uint256 _riderPayment,\r\n    //     uint256 _totalCost,\r\n    //     string memory _date,\r\n    //     string memory _time\r\n    // ) public payable {\r\n    //     Customer memory cust = customers[_custId];\r\n    //     // Increment order count\r\n    //     ordersCount++;\r\n    //     // Create the enum\r\n    //     state = Status.OrderPlaced;\r\n\r\n    //     // Create the order\r\n    //     orders[ordersCount] = Order(\r\n    //         ordersCount,\r\n    //         cust.owner,\r\n    //         _seller,\r\n    //         address(0),\r\n    //         _hawkerPayment,\r\n    //         _riderPayment,\r\n    //         _totalCost,\r\n    //         cust.itemCount,\r\n    //         _date,\r\n    //         _time,\r\n    //         state,\r\n    //         false\r\n    //     );\r\n\r\n    //     //add the items in cartItems(Customer structure) to purchasedItemId (Order structure)\r\n    //     for (uint256 i = 1; i <= cust.itemCount; i++) {\r\n    //         (uint256 item, uint256 qty) = getCartProduct(_custId, i, 1);\r\n    //         orders[ordersCount].purchasedItemId[i] = CartItem(i, item, qty);\r\n\r\n    //         restProducts[item].soldCount++;\r\n    //     }\r\n\r\n    //     //Require that there is enough Ether in the transaction\r\n    //     require(msg.value >= _totalCost);\r\n\r\n    //     //remove the CartItem in the Customer id\r\n    //     removeAllProdCart(_custId);\r\n\r\n    //     // //Trigger an event\r\n    //     // emit HawkerProdPurchased(\r\n    //     //     ordersCount,\r\n    //     //     cust.owner,\r\n    //     //     _seller,\r\n    //     //     _totalCost,\r\n    //     //     now\r\n    //     // );\r\n    // }\r\n\r\n    //indicator  1 - customer, 2 - hawker\r\n    function purchaseProduct(\r\n        uint256 _indicator,\r\n        uint256 _id,\r\n        address payable _seller,\r\n        uint256 _hawkerPayment,\r\n        uint256 _riderPayment,\r\n        uint256 _totalCost,\r\n        string memory _date,\r\n        string memory _time\r\n    ) public payable {\r\n        if (_indicator == 1) {\r\n            Customer memory cust = customers[_id];\r\n            // Increment order count\r\n            ordersCount++;\r\n            // Create the enum\r\n            state = Status.OrderPlaced;\r\n\r\n            // Create the order\r\n            orders[ordersCount] = Order(\r\n                ordersCount,\r\n                cust.owner,\r\n                _seller,\r\n                address(0),\r\n                _hawkerPayment,\r\n                _riderPayment,\r\n                _totalCost,\r\n                cust.itemCount,\r\n                _date,\r\n                _time,\r\n                state,\r\n                false\r\n            );\r\n\r\n            //add the items in cartItems(Customer structure) to purchasedItemId (Order structure)\r\n            for (uint256 i = 1; i <= cust.itemCount; i++) {\r\n                (uint256 item, uint256 qty) = getCartProduct(_id, i, 1);\r\n                orders[ordersCount].purchasedItemId[i] = CartItem(i, item, qty);\r\n\r\n                restProducts[item].soldCount++;\r\n            }\r\n\r\n            //Require that there is enough Ether in the transaction\r\n            require(msg.value >= _totalCost);\r\n\r\n            //remove the CartItem in the Customer id\r\n            removeAllProdCart(_id, 1);\r\n        } else {\r\n            Hawker memory hawker = hawkers[_id];\r\n            // Increment order count\r\n            ordersCount++;\r\n            // Create the enum\r\n            state = Status.OrderPlaced;\r\n\r\n            // Create the order\r\n            orders[ordersCount] = Order(\r\n                ordersCount,\r\n                hawker.owner,\r\n                _seller,\r\n                address(0),\r\n                _hawkerPayment,\r\n                _riderPayment,\r\n                _totalCost,\r\n                hawker.itemCount,\r\n                _date,\r\n                _time,\r\n                state,\r\n                false\r\n            );\r\n\r\n            //add the items in cartItems(Customer structure) to purchasedItemId (Order structure)\r\n            for (uint256 i = 1; i <= hawker.itemCount; i++) {\r\n                (uint256 item, uint256 qty) = getCartProduct(_id, i, 1);\r\n                orders[ordersCount].purchasedItemId[i] = CartItem(i, item, qty);\r\n\r\n                //restProducts[item].soldCount++;\r\n            }\r\n\r\n            //Require that there is enough Ether in the transaction\r\n            require(msg.value >= _totalCost);\r\n            removeAllProdCart(_id, 2);\r\n        }\r\n    }\r\n\r\n    //hawker confirms order transaction made by customer\r\n    function hawkerConfirmOrder(uint256 _orderId) public {\r\n        orders[_orderId].state = Status.OrderConfirm;\r\n        //Pay the hawker\r\n        address(msg.sender).transfer(orders[_orderId].hawkerPayment);\r\n    }\r\n\r\n    //food delivery accepts order delivery\r\n    function fdAcceptOrder(uint256 _orderId) public {\r\n        //set orderId state to DriverConfirm\r\n        orders[_orderId].state = Status.RiderConfirm;\r\n        orders[_orderId].rider = msg.sender;\r\n    }\r\n\r\n    //food delivery collected order\r\n    function fdCollectedOrder(uint256 _orderId) public {\r\n        //set orderId state to OrderCompleted\r\n        orders[_orderId].state = Status.OrderCollected;\r\n    }\r\n\r\n    //food delivery completes order delivery\r\n    function fdCompleteOrder(uint256 _orderId, uint256 _fdId) public payable {\r\n        //set orderId state to OrderCompleted\r\n        orders[_orderId].state = Status.OrderCompleted;\r\n        //Pay the rider after completion\r\n        address(msg.sender).transfer(orders[_orderId].riderPayment);\r\n        (foodDeliveries[_fdId].ordersAcceptedCount)++;\r\n    }\r\n}\r\n",
  "sourcePath": "C:/Users/Casuarina/Desktop/FYP_FoodIndustry/blockchain/src/contracts/Marketplace.sol",
  "compiler": {
    "name": "solc",
    "version": "0.5.16+commit.9c3226ce.Emscripten.clang"
  },
  "schemaVersion": "3.4.1",
  "updatedAt": "2021-08-01T14:23:48.608Z",
  "devdoc": {
    "methods": {}
  },
  "userdoc": {
    "methods": {}
  }
}