{
  "contractName": "Marketplace",
  "abi": [
    {
      "inputs": [],
      "payable": false,
      "stateMutability": "nonpayable",
      "type": "constructor"
    },
    {
      "anonymous": false,
      "inputs": [
        {
          "indexed": false,
          "internalType": "uint256",
          "name": "id",
          "type": "uint256"
        },
        {
          "indexed": false,
          "internalType": "string",
          "name": "name",
          "type": "string"
        },
        {
          "indexed": false,
          "internalType": "uint256",
          "name": "price",
          "type": "uint256"
        },
        {
          "indexed": false,
          "internalType": "address payable",
          "name": "owner",
          "type": "address"
        },
        {
          "indexed": false,
          "internalType": "bool",
          "name": "purchased",
          "type": "bool"
        },
        {
          "indexed": false,
          "internalType": "string",
          "name": "imageHash",
          "type": "string"
        }
      ],
      "name": "ProductCreated",
      "type": "event"
    },
    {
      "anonymous": false,
      "inputs": [
        {
          "indexed": false,
          "internalType": "uint256",
          "name": "id",
          "type": "uint256"
        },
        {
          "indexed": false,
          "internalType": "string",
          "name": "name",
          "type": "string"
        },
        {
          "indexed": false,
          "internalType": "uint256",
          "name": "price",
          "type": "uint256"
        },
        {
          "indexed": false,
          "internalType": "address payable",
          "name": "owner",
          "type": "address"
        },
        {
          "indexed": false,
          "internalType": "bool",
          "name": "purchased",
          "type": "bool"
        }
      ],
      "name": "ProductPurchased",
      "type": "event"
    },
    {
      "constant": true,
      "inputs": [
        {
          "internalType": "uint256",
          "name": "",
          "type": "uint256"
        }
      ],
      "name": "customers",
      "outputs": [
        {
          "internalType": "uint256",
          "name": "id",
          "type": "uint256"
        },
        {
          "internalType": "address",
          "name": "owner",
          "type": "address"
        },
        {
          "internalType": "string",
          "name": "name",
          "type": "string"
        },
        {
          "internalType": "string",
          "name": "addressLocation",
          "type": "string"
        },
        {
          "internalType": "string",
          "name": "phone",
          "type": "string"
        },
        {
          "internalType": "uint256",
          "name": "itemCount",
          "type": "uint256"
        }
      ],
      "payable": false,
      "stateMutability": "view",
      "type": "function"
    },
    {
      "constant": true,
      "inputs": [],
      "name": "customersCount",
      "outputs": [
        {
          "internalType": "uint256",
          "name": "",
          "type": "uint256"
        }
      ],
      "payable": false,
      "stateMutability": "view",
      "type": "function"
    },
    {
      "constant": true,
      "inputs": [
        {
          "internalType": "uint256",
          "name": "",
          "type": "uint256"
        }
      ],
      "name": "hawkers",
      "outputs": [
        {
          "internalType": "uint256",
          "name": "id",
          "type": "uint256"
        },
        {
          "internalType": "address",
          "name": "owner",
          "type": "address"
        },
        {
          "internalType": "string",
          "name": "name",
          "type": "string"
        },
        {
          "internalType": "string",
          "name": "addressLocation",
          "type": "string"
        },
        {
          "internalType": "string",
          "name": "openingHours",
          "type": "string"
        },
        {
          "internalType": "string",
          "name": "phone",
          "type": "string"
        },
        {
          "internalType": "int256",
          "name": "rating",
          "type": "int256"
        },
        {
          "internalType": "bool",
          "name": "open",
          "type": "bool"
        }
      ],
      "payable": false,
      "stateMutability": "view",
      "type": "function"
    },
    {
      "constant": true,
      "inputs": [],
      "name": "hawkersCount",
      "outputs": [
        {
          "internalType": "uint256",
          "name": "",
          "type": "uint256"
        }
      ],
      "payable": false,
      "stateMutability": "view",
      "type": "function"
    },
    {
      "constant": true,
      "inputs": [
        {
          "internalType": "uint256",
          "name": "",
          "type": "uint256"
        }
      ],
      "name": "orders",
      "outputs": [
        {
          "internalType": "uint256",
          "name": "id",
          "type": "uint256"
        },
        {
          "internalType": "address",
          "name": "owner",
          "type": "address"
        },
        {
          "internalType": "address",
          "name": "seller",
          "type": "address"
        },
        {
          "internalType": "uint256",
          "name": "totalPrice",
          "type": "uint256"
        },
        {
          "internalType": "uint256",
          "name": "purchasedItemCount",
          "type": "uint256"
        },
        {
          "internalType": "string",
          "name": "date",
          "type": "string"
        },
        {
          "internalType": "string",
          "name": "time",
          "type": "string"
        },
        {
          "internalType": "enum Marketplace.Status",
          "name": "state",
          "type": "uint8"
        }
      ],
      "payable": false,
      "stateMutability": "view",
      "type": "function"
    },
    {
      "constant": true,
      "inputs": [],
      "name": "ordersCount",
      "outputs": [
        {
          "internalType": "uint256",
          "name": "",
          "type": "uint256"
        }
      ],
      "payable": false,
      "stateMutability": "view",
      "type": "function"
    },
    {
      "constant": true,
      "inputs": [],
      "name": "restProdCount",
      "outputs": [
        {
          "internalType": "uint256",
          "name": "",
          "type": "uint256"
        }
      ],
      "payable": false,
      "stateMutability": "view",
      "type": "function"
    },
    {
      "constant": true,
      "inputs": [
        {
          "internalType": "uint256",
          "name": "",
          "type": "uint256"
        }
      ],
      "name": "restProducts",
      "outputs": [
        {
          "internalType": "uint256",
          "name": "id",
          "type": "uint256"
        },
        {
          "internalType": "string",
          "name": "name",
          "type": "string"
        },
        {
          "internalType": "uint256",
          "name": "price",
          "type": "uint256"
        },
        {
          "internalType": "address payable",
          "name": "owner",
          "type": "address"
        },
        {
          "internalType": "bool",
          "name": "purchased",
          "type": "bool"
        },
        {
          "internalType": "string",
          "name": "imageHash",
          "type": "string"
        }
      ],
      "payable": false,
      "stateMutability": "view",
      "type": "function"
    },
    {
      "constant": true,
      "inputs": [],
      "name": "state",
      "outputs": [
        {
          "internalType": "enum Marketplace.Status",
          "name": "",
          "type": "uint8"
        }
      ],
      "payable": false,
      "stateMutability": "view",
      "type": "function"
    },
    {
      "constant": true,
      "inputs": [],
      "name": "suppProdCount",
      "outputs": [
        {
          "internalType": "uint256",
          "name": "",
          "type": "uint256"
        }
      ],
      "payable": false,
      "stateMutability": "view",
      "type": "function"
    },
    {
      "constant": true,
      "inputs": [
        {
          "internalType": "uint256",
          "name": "",
          "type": "uint256"
        }
      ],
      "name": "suppProducts",
      "outputs": [
        {
          "internalType": "uint256",
          "name": "id",
          "type": "uint256"
        },
        {
          "internalType": "string",
          "name": "name",
          "type": "string"
        },
        {
          "internalType": "uint256",
          "name": "price",
          "type": "uint256"
        },
        {
          "internalType": "address payable",
          "name": "owner",
          "type": "address"
        },
        {
          "internalType": "bool",
          "name": "purchased",
          "type": "bool"
        }
      ],
      "payable": false,
      "stateMutability": "view",
      "type": "function"
    },
    {
      "constant": false,
      "inputs": [
        {
          "internalType": "address",
          "name": "_owner",
          "type": "address"
        },
        {
          "internalType": "string",
          "name": "_name",
          "type": "string"
        },
        {
          "internalType": "string",
          "name": "_addressLocation",
          "type": "string"
        },
        {
          "internalType": "string",
          "name": "_openingHours",
          "type": "string"
        },
        {
          "internalType": "string",
          "name": "_phone",
          "type": "string"
        },
        {
          "internalType": "bool",
          "name": "_open",
          "type": "bool"
        }
      ],
      "name": "addHawker",
      "outputs": [],
      "payable": false,
      "stateMutability": "nonpayable",
      "type": "function"
    },
    {
      "constant": false,
      "inputs": [
        {
          "internalType": "string",
          "name": "_phone",
          "type": "string"
        },
        {
          "internalType": "string",
          "name": "_OH",
          "type": "string"
        }
      ],
      "name": "editHawkerProfile",
      "outputs": [],
      "payable": false,
      "stateMutability": "nonpayable",
      "type": "function"
    },
    {
      "constant": false,
      "inputs": [],
      "name": "boolOpen",
      "outputs": [],
      "payable": false,
      "stateMutability": "nonpayable",
      "type": "function"
    },
    {
      "constant": false,
      "inputs": [
        {
          "internalType": "string",
          "name": "_name",
          "type": "string"
        },
        {
          "internalType": "uint256",
          "name": "_price",
          "type": "uint256"
        }
      ],
      "name": "createSuppProduct",
      "outputs": [],
      "payable": false,
      "stateMutability": "nonpayable",
      "type": "function"
    },
    {
      "constant": false,
      "inputs": [
        {
          "internalType": "string",
          "name": "_name",
          "type": "string"
        },
        {
          "internalType": "uint256",
          "name": "_price",
          "type": "uint256"
        },
        {
          "internalType": "string",
          "name": "_imageHash",
          "type": "string"
        }
      ],
      "name": "createRestProduct",
      "outputs": [],
      "payable": false,
      "stateMutability": "nonpayable",
      "type": "function"
    },
    {
      "constant": false,
      "inputs": [
        {
          "internalType": "address",
          "name": "_owner",
          "type": "address"
        },
        {
          "internalType": "string",
          "name": "_name",
          "type": "string"
        },
        {
          "internalType": "string",
          "name": "_addressLocation",
          "type": "string"
        },
        {
          "internalType": "string",
          "name": "_phone",
          "type": "string"
        }
      ],
      "name": "addCustomer",
      "outputs": [],
      "payable": false,
      "stateMutability": "nonpayable",
      "type": "function"
    },
    {
      "constant": false,
      "inputs": [
        {
          "internalType": "string",
          "name": "_phone",
          "type": "string"
        },
        {
          "internalType": "string",
          "name": "_address",
          "type": "string"
        }
      ],
      "name": "editCustProfile",
      "outputs": [],
      "payable": false,
      "stateMutability": "nonpayable",
      "type": "function"
    },
    {
      "constant": false,
      "inputs": [
        {
          "internalType": "uint256",
          "name": "_id",
          "type": "uint256"
        }
      ],
      "name": "addToCart",
      "outputs": [],
      "payable": false,
      "stateMutability": "nonpayable",
      "type": "function"
    },
    {
      "constant": false,
      "inputs": [
        {
          "internalType": "uint256",
          "name": "custId",
          "type": "uint256"
        },
        {
          "internalType": "uint256",
          "name": "cartId",
          "type": "uint256"
        }
      ],
      "name": "removeProdCart",
      "outputs": [],
      "payable": false,
      "stateMutability": "nonpayable",
      "type": "function"
    },
    {
      "constant": false,
      "inputs": [
        {
          "internalType": "uint256",
          "name": "custId",
          "type": "uint256"
        }
      ],
      "name": "removeAllProdCart",
      "outputs": [],
      "payable": false,
      "stateMutability": "nonpayable",
      "type": "function"
    },
    {
      "constant": false,
      "inputs": [
        {
          "internalType": "uint256",
          "name": "custId",
          "type": "uint256"
        },
        {
          "internalType": "uint256",
          "name": "cartId",
          "type": "uint256"
        }
      ],
      "name": "getCartProduct",
      "outputs": [
        {
          "internalType": "uint256",
          "name": "",
          "type": "uint256"
        }
      ],
      "payable": false,
      "stateMutability": "nonpayable",
      "type": "function"
    },
    {
      "constant": false,
      "inputs": [
        {
          "internalType": "uint256",
          "name": "orderId",
          "type": "uint256"
        },
        {
          "internalType": "uint256",
          "name": "cartId",
          "type": "uint256"
        }
      ],
      "name": "getOrderProduct",
      "outputs": [
        {
          "components": [
            {
              "internalType": "uint256",
              "name": "id",
              "type": "uint256"
            },
            {
              "internalType": "string",
              "name": "name",
              "type": "string"
            },
            {
              "internalType": "uint256",
              "name": "price",
              "type": "uint256"
            },
            {
              "internalType": "address payable",
              "name": "owner",
              "type": "address"
            },
            {
              "internalType": "bool",
              "name": "purchased",
              "type": "bool"
            },
            {
              "internalType": "string",
              "name": "imageHash",
              "type": "string"
            }
          ],
          "internalType": "struct Marketplace.RestProduct",
          "name": "",
          "type": "tuple"
        }
      ],
      "payable": false,
      "stateMutability": "nonpayable",
      "type": "function"
    },
    {
      "constant": false,
      "inputs": [
        {
          "internalType": "uint256",
          "name": "_custId",
          "type": "uint256"
        },
        {
          "internalType": "address payable",
          "name": "_seller",
          "type": "address"
        },
        {
          "internalType": "uint256",
          "name": "_totalCost",
          "type": "uint256"
        },
        {
          "internalType": "string",
          "name": "_date",
          "type": "string"
        },
        {
          "internalType": "string",
          "name": "_time",
          "type": "string"
        }
      ],
      "name": "purchaseProduct",
      "outputs": [],
      "payable": true,
      "stateMutability": "payable",
      "type": "function"
    },
    {
      "constant": false,
      "inputs": [
        {
          "internalType": "uint256",
          "name": "_orderId",
          "type": "uint256"
        }
      ],
      "name": "hawkerConfirmOrder",
      "outputs": [],
      "payable": false,
      "stateMutability": "nonpayable",
      "type": "function"
    }
  ],
  "bytecode": "0x6080604052600060025560006004553480156200001b57600080fd5b50620000e37373c005d4b234c63f416f6e1038c011d55eddbf1e6040518060400160405280601681526020017f53656c6572612052617361204e617369204c656d616b000000000000000000008152506040518060600160405280602f8152602001620035bb602f913960405180606001604052806035815260200162003653603591396040518060400160405280600881526020017f393834333435303900000000000000000000000000000000000000000000000081525060006200032260201b60201c565b620001aa7387ecee1454a7b32253a9020f6ae1ff25e9ce35b56040518060400160405280602081526020017f5469616e205469616e204861696e616e65736520436869636b656e2052696365815250604051806080016040528060468152602001620035ea6046913960405180606001604052806023815260200162003630602391396040518060400160405280600881526020017f393639313438353200000000000000000000000000000000000000000000000081525060006200032260201b60201c565b6200027173c9342f12d49ca9e40d600ebf17266dccc88a06396040518060400160405280600981526020017f436173756172696e6100000000000000000000000000000000000000000000008152506040518060400160405280602081526020017f3530204e616e79616e67204176652c2053696e6761706f7265203633393739388152506040518060400160405280600881526020017f39383736353433320000000000000000000000000000000000000000000000008152506200049f60201b60201c565b6200031c737c2ea58a210f8e7c80fdeb6788c1d5fc4a3e73ba6040518060400160405280600781526020017f5061747269636b0000000000000000000000000000000000000000000000000081525060405180606001604052806025815260200162003688602591396040518060400160405280600881526020017f39313233343536370000000000000000000000000000000000000000000000008152506200049f60201b60201c565b6200067c565b60016000815480929190600101919050555060405180610100016040528060015481526020018773ffffffffffffffffffffffffffffffffffffffff1681526020018681526020018581526020018481526020018381526020016005815260200182151581525060008060015481526020019081526020016000206000820151816000015560208201518160010160006101000a81548173ffffffffffffffffffffffffffffffffffffffff021916908373ffffffffffffffffffffffffffffffffffffffff16021790555060408201518160020190805190602001906200040c929190620005cd565b5060608201518160030190805190602001906200042b929190620005cd565b5060808201518160040190805190602001906200044a929190620005cd565b5060a082015181600501908051906020019062000469929190620005cd565b5060c0820151816006015560e08201518160070160006101000a81548160ff021916908315150217905550905050505050505050565b600a600081548092919060010191905055506040518060c00160405280600a5481526020018573ffffffffffffffffffffffffffffffffffffffff168152602001848152602001838152602001828152602001600081525060096000600a5481526020019081526020016000206000820151816000015560208201518160010160006101000a81548173ffffffffffffffffffffffffffffffffffffffff021916908373ffffffffffffffffffffffffffffffffffffffff16021790555060408201518160020190805190602001906200057b929190620005cd565b5060608201518160030190805190602001906200059a929190620005cd565b506080820151816004019080519060200190620005b9929190620005cd565b5060a0820151816006015590505050505050565b828054600181600116156101000203166002900490600052602060002090601f016020900481019282601f106200061057805160ff191683800117855562000641565b8280016001018555821562000641579182015b828111156200064057825182559160200191906001019062000623565b5b50905062000650919062000654565b5090565b6200067991905b80821115620006755760008160009055506001016200065b565b5090565b90565b612f2f806200068c6000396000f3fe6080604052600436106101665760003560e01c80639d0d6f8b116100d1578063c19d93fb1161008a578063e16f14e211610064578063e16f14e214610555578063e6f65b4c14610596578063f0eab430146105c1578063f89e7697146105ea57610166565b8063c19d93fb146104c4578063c6705e9f146104ef578063db3a0abd1461052c57610166565b80639d0d6f8b1461037f578063a85c38ef146103a8578063a9937b22146103ec578063abed579f14610417578063bc3704f214610459578063c0abda2a1461048257610166565b80633be94d47116101235780633be94d471461026c5780634244c3d4146102b0578063623eb0d2146102d9578063702742b0146103025780637078b09a1461032b578063757a27031461035457610166565b80630710f1f11461016b5780630b90cd28146101875780630c21a8d2146101b05780631460953c146101db578063278e381c1461020457806335daa73114610241575b600080fd5b61018560048036036101809190810190612745565b610601565b005b34801561019357600080fd5b506101ae60048036036101a991908101906125dd565b610b3c565b005b3480156101bc57600080fd5b506101c5610c22565b6040516101d29190612a27565b60405180910390f35b3480156101e757600080fd5b5061020260048036036101fd9190810190612449565b610c28565b005b34801561021057600080fd5b5061022b600480360361022691908101906127ec565b610d50565b6040516102389190612a05565b60405180910390f35b34801561024d57600080fd5b50610256610f89565b6040516102639190612a27565b60405180910390f35b34801561027857600080fd5b50610293600480360361028e919081019061271c565b610f8f565b6040516102a7989796959493929190612ace565b60405180910390f35b3480156102bc57600080fd5b506102d760048036036102d291908101906127ec565b611264565b005b3480156102e557600080fd5b5061030060048036036102fb9190810190612649565b6112bd565b005b34801561030e57600080fd5b506103296004803603610324919081019061271c565b611424565b005b34801561033757600080fd5b50610352600480360361034d91908101906125dd565b611558565b005b34801561036057600080fd5b5061036961163b565b6040516103769190612a27565b60405180910390f35b34801561038b57600080fd5b506103a660048036036103a1919081019061271c565b611641565b005b3480156103b457600080fd5b506103cf60048036036103ca919081019061271c565b6116bc565b6040516103e3989796959493929190612a42565b60405180910390f35b3480156103f857600080fd5b50610401611881565b60405161040e9190612a27565b60405180910390f35b34801561042357600080fd5b5061043e6004803603610439919081019061271c565b611887565b60405161045096959493929190612ca7565b60405180910390f35b34801561046557600080fd5b50610480600480360361047b919081019061269d565b611a20565b005b34801561048e57600080fd5b506104a960048036036104a4919081019061271c565b611bab565b6040516104bb96959493929190612b68565b60405180910390f35b3480156104d057600080fd5b506104d9611dcf565b6040516104e691906129ea565b60405180910390f35b3480156104fb57600080fd5b50610516600480360361051191908101906127ec565b611de2565b6040516105239190612a27565b60405180910390f35b34801561053857600080fd5b50610553600480360361054e91908101906124f4565b611e1c565b005b34801561056157600080fd5b5061057c6004803603610577919081019061271c565b611f91565b60405161058d959493929190612c4d565b60405180910390f35b3480156105a257600080fd5b506105ab61208c565b6040516105b89190612a27565b60405180910390f35b3480156105cd57600080fd5b506105e860048036036105e3919081019061271c565b612092565b005b3480156105f657600080fd5b506105ff612105565b005b6106096121e2565b600960008781526020019081526020016000206040518060c0016040529081600082015481526020016001820160009054906101000a900473ffffffffffffffffffffffffffffffffffffffff1673ffffffffffffffffffffffffffffffffffffffff1673ffffffffffffffffffffffffffffffffffffffff168152602001600282018054600181600116156101000203166002900480601f0160208091040260200160405190810160405280929190818152602001828054600181600116156101000203166002900480156107205780601f106106f557610100808354040283529160200191610720565b820191906000526020600020905b81548152906001019060200180831161070357829003601f168201915b50505050508152602001600382018054600181600116156101000203166002900480601f0160208091040260200160405190810160405280929190818152602001828054600181600116156101000203166002900480156107c25780601f10610797576101008083540402835291602001916107c2565b820191906000526020600020905b8154815290600101906020018083116107a557829003601f168201915b50505050508152602001600482018054600181600116156101000203166002900480601f0160208091040260200160405190810160405280929190818152602001828054600181600116156101000203166002900480156108645780601f1061083957610100808354040283529160200191610864565b820191906000526020600020905b81548152906001019060200180831161084757829003601f168201915b5050505050815260200160068201548152505090506008600081548092919060010191905055506000600660006101000a81548160ff021916908360048111156108aa57fe5b02179055506040518061010001604052806008548152602001826020015173ffffffffffffffffffffffffffffffffffffffff1681526020018673ffffffffffffffffffffffffffffffffffffffff1681526020018581526020018260a001518152602001848152602001838152602001600660009054906101000a900460ff16600481111561093657fe5b8152506007600060085481526020019081526020016000206000820151816000015560208201518160010160006101000a81548173ffffffffffffffffffffffffffffffffffffffff021916908373ffffffffffffffffffffffffffffffffffffffff16021790555060408201518160020160006101000a81548173ffffffffffffffffffffffffffffffffffffffff021916908373ffffffffffffffffffffffffffffffffffffffff160217905550606082015181600301556080820151816005015560a0820151816006019080519060200190610a1692919061222e565b5060c0820151816007019080519060200190610a3392919061222e565b5060e08201518160080160006101000a81548160ff02191690836004811115610a5857fe5b02179055509050506000600190505b8160a001518111610ae3576000610a7e8883611de2565b905060405180604001604052808381526020018281525060076000600854815260200190815260200160002060040160008481526020019081526020016000206000820151816000015560208201518160010155905050508080600101915050610a67565b508473ffffffffffffffffffffffffffffffffffffffff166108fc349081150290604051600060405180830381858888f19350505050158015610b2a573d6000803e3d6000fd5b50610b3486612092565b505050505050565b6000809050600090505b600a548111610c1d573373ffffffffffffffffffffffffffffffffffffffff166009600083815260200190815260200160002060010160009054906101000a900473ffffffffffffffffffffffffffffffffffffffff1673ffffffffffffffffffffffffffffffffffffffff161415610c105782600960008381526020019081526020016000206004019080519060200190610be39291906122ae565b5081600960008381526020019081526020016000206003019080519060200190610c0e9291906122ae565b505b8080600101915050610b46565b505050565b600a5481565b600a600081548092919060010191905055506040518060c00160405280600a5481526020018573ffffffffffffffffffffffffffffffffffffffff168152602001848152602001838152602001828152602001600081525060096000600a5481526020019081526020016000206000820151816000015560208201518160010160006101000a81548173ffffffffffffffffffffffffffffffffffffffff021916908373ffffffffffffffffffffffffffffffffffffffff1602179055506040820151816002019080519060200190610d0292919061222e565b506060820151816003019080519060200190610d1f92919061222e565b506080820151816004019080519060200190610d3c92919061222e565b5060a0820151816006015590505050505050565b610d5861232e565b60006007600085815260200190815260200160002090506000816004016000858152602001908152602001600020600101549050610d9461232e565b600560008381526020019081526020016000206040518060c001604052908160008201548152602001600182018054600181600116156101000203166002900480601f016020809104026020016040519081016040528092919081815260200182805460018160011615610100020316600290048015610e555780601f10610e2a57610100808354040283529160200191610e55565b820191906000526020600020905b815481529060010190602001808311610e3857829003601f168201915b50505050508152602001600282015481526020016003820160009054906101000a900473ffffffffffffffffffffffffffffffffffffffff1673ffffffffffffffffffffffffffffffffffffffff1673ffffffffffffffffffffffffffffffffffffffff1681526020016003820160149054906101000a900460ff16151515158152602001600482018054600181600116156101000203166002900480601f016020809104026020016040519081016040528092919081815260200182805460018160011615610100020316600290048015610f725780601f10610f4757610100808354040283529160200191610f72565b820191906000526020600020905b815481529060010190602001808311610f5557829003601f168201915b505050505081525050905080935050505092915050565b60085481565b60006020528060005260406000206000915090508060000154908060010160009054906101000a900473ffffffffffffffffffffffffffffffffffffffff1690806002018054600181600116156101000203166002900480601f0160208091040260200160405190810160405280929190818152602001828054600181600116156101000203166002900480156110675780601f1061103c57610100808354040283529160200191611067565b820191906000526020600020905b81548152906001019060200180831161104a57829003601f168201915b505050505090806003018054600181600116156101000203166002900480601f0160208091040260200160405190810160405280929190818152602001828054600181600116156101000203166002900480156111055780601f106110da57610100808354040283529160200191611105565b820191906000526020600020905b8154815290600101906020018083116110e857829003601f168201915b505050505090806004018054600181600116156101000203166002900480601f0160208091040260200160405190810160405280929190818152602001828054600181600116156101000203166002900480156111a35780601f10611178576101008083540402835291602001916111a3565b820191906000526020600020905b81548152906001019060200180831161118657829003601f168201915b505050505090806005018054600181600116156101000203166002900480601f0160208091040260200160405190810160405280929190818152602001828054600181600116156101000203166002900480156112415780601f1061121657610100808354040283529160200191611241565b820191906000526020600020905b81548152906001019060200180831161122457829003601f168201915b5050505050908060060154908060070160009054906101000a900460ff16905088565b600060096000848152602001908152602001600020905080600601600081548092919060019003919050555080600501600083815260200190815260200160002060008082016000905560018201600090555050505050565b60008251116112cb57600080fd5b600081116112d857600080fd5b6002600081548092919060010191905055506040518060a0016040528060025481526020018381526020018281526020013373ffffffffffffffffffffffffffffffffffffffff1681526020016000151581525060036000600254815260200190815260200160002060008201518160000155602082015181600101908051906020019061136792919061222e565b506040820151816002015560608201518160030160006101000a81548173ffffffffffffffffffffffffffffffffffffffff021916908373ffffffffffffffffffffffffffffffffffffffff16021790555060808201518160030160146101000a81548160ff0219169083151502179055509050507fd87ce4bfd22bad4a8ed8acd04d5670a4166b81f64fe53488db885e1987f33d8260025483833360008760405161141896959493929190612bde565b60405180910390a15050565b6000809050600090505b600a548111611554573373ffffffffffffffffffffffffffffffffffffffff166009600083815260200190815260200160002060010160009054906101000a900473ffffffffffffffffffffffffffffffffffffffff1673ffffffffffffffffffffffffffffffffffffffff161415611547576009600082815260200190815260200160002060060160008154809291906001019190505550604051806040016040528060096000848152602001908152602001600020600601548152602001838152506009600083815260200190815260200160002060050160006009600085815260200190815260200160002060060154815260200190815260200160002060008201518160000155602082015181600101559050505b808060010191505061142e565b5050565b6000809050600090505b6001548111611636573373ffffffffffffffffffffffffffffffffffffffff1660008083815260200190815260200160002060010160009054906101000a900473ffffffffffffffffffffffffffffffffffffffff1673ffffffffffffffffffffffffffffffffffffffff161415611629578260008083815260200190815260200160002060050190805190602001906115fd9291906122ae565b508160008083815260200190815260200160002060040190805190602001906116279291906122ae565b505b8080600101915050611562565b505050565b60045481565b6000809050600090505b60085481116116b85781600760008381526020019081526020016000206000015414156116ab5760016007600083815260200190815260200160002060080160006101000a81548160ff021916908360048111156116a557fe5b02179055505b808060010191505061164b565b5050565b60076020528060005260406000206000915090508060000154908060010160009054906101000a900473ffffffffffffffffffffffffffffffffffffffff16908060020160009054906101000a900473ffffffffffffffffffffffffffffffffffffffff1690806003015490806005015490806006018054600181600116156101000203166002900480601f0160208091040260200160405190810160405280929190818152602001828054600181600116156101000203166002900480156117c65780601f1061179b576101008083540402835291602001916117c6565b820191906000526020600020905b8154815290600101906020018083116117a957829003601f168201915b505050505090806007018054600181600116156101000203166002900480601f0160208091040260200160405190810160405280929190818152602001828054600181600116156101000203166002900480156118645780601f1061183957610100808354040283529160200191611864565b820191906000526020600020905b81548152906001019060200180831161184757829003601f168201915b5050505050908060080160009054906101000a900460ff16905088565b60025481565b6005602052806000526040600020600091509050806000015490806001018054600181600116156101000203166002900480601f0160208091040260200160405190810160405280929190818152602001828054600181600116156101000203166002900480156119395780601f1061190e57610100808354040283529160200191611939565b820191906000526020600020905b81548152906001019060200180831161191c57829003601f168201915b5050505050908060020154908060030160009054906101000a900473ffffffffffffffffffffffffffffffffffffffff16908060030160149054906101000a900460ff1690806004018054600181600116156101000203166002900480601f016020809104026020016040519081016040528092919081815260200182805460018160011615610100020316600290048015611a165780601f106119eb57610100808354040283529160200191611a16565b820191906000526020600020905b8154815290600101906020018083116119f957829003601f168201915b5050505050905086565b6000835111611a2e57600080fd5b60008211611a3b57600080fd5b6004600081548092919060010191905055506040518060c0016040528060045481526020018481526020018381526020013373ffffffffffffffffffffffffffffffffffffffff16815260200160001515815260200182815250600560006004548152602001908152602001600020600082015181600001556020820151816001019080519060200190611ad092919061222e565b506040820151816002015560608201518160030160006101000a81548173ffffffffffffffffffffffffffffffffffffffff021916908373ffffffffffffffffffffffffffffffffffffffff16021790555060808201518160030160146101000a81548160ff02191690831515021790555060a0820151816004019080519060200190611b5e92919061222e565b509050507fd87ce4bfd22bad4a8ed8acd04d5670a4166b81f64fe53488db885e1987f33d82600454848433600086604051611b9e96959493929190612bde565b60405180910390a1505050565b60096020528060005260406000206000915090508060000154908060010160009054906101000a900473ffffffffffffffffffffffffffffffffffffffff1690806002018054600181600116156101000203166002900480601f016020809104026020016040519081016040528092919081815260200182805460018160011615610100020316600290048015611c835780601f10611c5857610100808354040283529160200191611c83565b820191906000526020600020905b815481529060010190602001808311611c6657829003601f168201915b505050505090806003018054600181600116156101000203166002900480601f016020809104026020016040519081016040528092919081815260200182805460018160011615610100020316600290048015611d215780601f10611cf657610100808354040283529160200191611d21565b820191906000526020600020905b815481529060010190602001808311611d0457829003601f168201915b505050505090806004018054600181600116156101000203166002900480601f016020809104026020016040519081016040528092919081815260200182805460018160011615610100020316600290048015611dbf5780601f10611d9457610100808354040283529160200191611dbf565b820191906000526020600020905b815481529060010190602001808311611da257829003601f168201915b5050505050908060060154905086565b600660009054906101000a900460ff1681565b6000806009600085815260200190815260200160002090508060050160008481526020019081526020016000206001015491505092915050565b60016000815480929190600101919050555060405180610100016040528060015481526020018773ffffffffffffffffffffffffffffffffffffffff1681526020018681526020018581526020018481526020018381526020016005815260200182151581525060008060015481526020019081526020016000206000820151816000015560208201518160010160006101000a81548173ffffffffffffffffffffffffffffffffffffffff021916908373ffffffffffffffffffffffffffffffffffffffff1602179055506040820151816002019080519060200190611f0492919061222e565b506060820151816003019080519060200190611f2192919061222e565b506080820151816004019080519060200190611f3e92919061222e565b5060a0820151816005019080519060200190611f5b92919061222e565b5060c0820151816006015560e08201518160070160006101000a81548160ff021916908315150217905550905050505050505050565b6003602052806000526040600020600091509050806000015490806001018054600181600116156101000203166002900480601f0160208091040260200160405190810160405280929190818152602001828054600181600116156101000203166002900480156120435780601f1061201857610100808354040283529160200191612043565b820191906000526020600020905b81548152906001019060200180831161202657829003601f168201915b5050505050908060020154908060030160009054906101000a900473ffffffffffffffffffffffffffffffffffffffff16908060030160149054906101000a900460ff16905085565b60015481565b60006009600083815260200190815260200160002090506000816006015490506000600190505b8181116120f5578260050160008281526020019081526020016000206000808201600090556001820160009055505080806001019150506120b9565b5060008260060181905550505050565b6000809050600090505b60015481116121df573373ffffffffffffffffffffffffffffffffffffffff1660008083815260200190815260200160002060010160009054906101000a900473ffffffffffffffffffffffffffffffffffffffff1673ffffffffffffffffffffffffffffffffffffffff1614156121d25760008082815260200190815260200160002060070160009054906101000a900460ff161560008083815260200190815260200160002060070160006101000a81548160ff0219169083151502179055505b808060010191505061210f565b50565b6040518060c0016040528060008152602001600073ffffffffffffffffffffffffffffffffffffffff168152602001606081526020016060815260200160608152602001600081525090565b828054600181600116156101000203166002900490600052602060002090601f016020900481019282601f1061226f57805160ff191683800117855561229d565b8280016001018555821561229d579182015b8281111561229c578251825591602001919060010190612281565b5b5090506122aa919061237c565b5090565b828054600181600116156101000203166002900490600052602060002090601f016020900481019282601f106122ef57805160ff191683800117855561231d565b8280016001018555821561231d579182015b8281111561231c578251825591602001919060010190612301565b5b50905061232a919061237c565b5090565b6040518060c00160405280600081526020016060815260200160008152602001600073ffffffffffffffffffffffffffffffffffffffff168152602001600015158152602001606081525090565b61239e91905b8082111561239a576000816000905550600101612382565b5090565b90565b6000813590506123b081612e90565b92915050565b6000813590506123c581612ea7565b92915050565b6000813590506123da81612ebe565b92915050565b600082601f8301126123f157600080fd5b81356124046123ff82612d43565b612d16565b9150808252602083016020830185838301111561242057600080fd5b61242b838284612e30565b50505092915050565b60008135905061244381612ed5565b92915050565b6000806000806080858703121561245f57600080fd5b600061246d878288016123a1565b945050602085013567ffffffffffffffff81111561248a57600080fd5b612496878288016123e0565b935050604085013567ffffffffffffffff8111156124b357600080fd5b6124bf878288016123e0565b925050606085013567ffffffffffffffff8111156124dc57600080fd5b6124e8878288016123e0565b91505092959194509250565b60008060008060008060c0878903121561250d57600080fd5b600061251b89828a016123a1565b965050602087013567ffffffffffffffff81111561253857600080fd5b61254489828a016123e0565b955050604087013567ffffffffffffffff81111561256157600080fd5b61256d89828a016123e0565b945050606087013567ffffffffffffffff81111561258a57600080fd5b61259689828a016123e0565b935050608087013567ffffffffffffffff8111156125b357600080fd5b6125bf89828a016123e0565b92505060a06125d089828a016123cb565b9150509295509295509295565b600080604083850312156125f057600080fd5b600083013567ffffffffffffffff81111561260a57600080fd5b612616858286016123e0565b925050602083013567ffffffffffffffff81111561263357600080fd5b61263f858286016123e0565b9150509250929050565b6000806040838503121561265c57600080fd5b600083013567ffffffffffffffff81111561267657600080fd5b612682858286016123e0565b925050602061269385828601612434565b9150509250929050565b6000806000606084860312156126b257600080fd5b600084013567ffffffffffffffff8111156126cc57600080fd5b6126d8868287016123e0565b93505060206126e986828701612434565b925050604084013567ffffffffffffffff81111561270657600080fd5b612712868287016123e0565b9150509250925092565b60006020828403121561272e57600080fd5b600061273c84828501612434565b91505092915050565b600080600080600060a0868803121561275d57600080fd5b600061276b88828901612434565b955050602061277c888289016123b6565b945050604061278d88828901612434565b935050606086013567ffffffffffffffff8111156127aa57600080fd5b6127b6888289016123e0565b925050608086013567ffffffffffffffff8111156127d357600080fd5b6127df888289016123e0565b9150509295509295909350565b600080604083850312156127ff57600080fd5b600061280d85828601612434565b925050602061281e85828601612434565b9150509250929050565b61283181612db9565b82525050565b61284081612db9565b82525050565b61284f81612da7565b82525050565b61285e81612dcb565b82525050565b61286d81612dcb565b82525050565b61287c81612e1e565b82525050565b61288b81612dea565b82525050565b600061289c82612d7a565b6128a68185612d96565b93506128b6818560208601612e3f565b6128bf81612e72565b840191505092915050565b60006128d582612d6f565b6128df8185612d85565b93506128ef818560208601612e3f565b6128f881612e72565b840191505092915050565b600061290e82612d6f565b6129188185612d96565b9350612928818560208601612e3f565b61293181612e72565b840191505092915050565b600060c08301600083015161295460008601826129cc565b506020830151848203602086015261296c82826128ca565b915050604083015161298160408601826129cc565b5060608301516129946060860182612828565b5060808301516129a76080860182612855565b5060a083015184820360a08601526129bf82826128ca565b9150508091505092915050565b6129d581612e14565b82525050565b6129e481612e14565b82525050565b60006020820190506129ff6000830184612873565b92915050565b60006020820190508181036000830152612a1f818461293c565b905092915050565b6000602082019050612a3c60008301846129db565b92915050565b600061010082019050612a58600083018b6129db565b612a65602083018a612846565b612a726040830189612846565b612a7f60608301886129db565b612a8c60808301876129db565b81810360a0830152612a9e8186612903565b905081810360c0830152612ab28185612903565b9050612ac160e0830184612873565b9998505050505050505050565b600061010082019050612ae4600083018b6129db565b612af1602083018a612846565b8181036040830152612b038189612903565b90508181036060830152612b178188612903565b90508181036080830152612b2b8187612903565b905081810360a0830152612b3f8186612903565b9050612b4e60c0830185612882565b612b5b60e0830184612864565b9998505050505050505050565b600060c082019050612b7d60008301896129db565b612b8a6020830188612846565b8181036040830152612b9c8187612903565b90508181036060830152612bb08186612903565b90508181036080830152612bc48185612903565b9050612bd360a08301846129db565b979650505050505050565b600060c082019050612bf360008301896129db565b8181036020830152612c058188612891565b9050612c1460408301876129db565b612c216060830186612837565b612c2e6080830185612864565b81810360a0830152612c408184612891565b9050979650505050505050565b600060a082019050612c6260008301886129db565b8181036020830152612c748187612903565b9050612c8360408301866129db565b612c906060830185612837565b612c9d6080830184612864565b9695505050505050565b600060c082019050612cbc60008301896129db565b8181036020830152612cce8188612903565b9050612cdd60408301876129db565b612cea6060830186612837565b612cf76080830185612864565b81810360a0830152612d098184612903565b9050979650505050505050565b6000604051905081810181811067ffffffffffffffff82111715612d3957600080fd5b8060405250919050565b600067ffffffffffffffff821115612d5a57600080fd5b601f19601f8301169050602081019050919050565b600081519050919050565b600081519050919050565b600082825260208201905092915050565b600082825260208201905092915050565b6000612db282612df4565b9050919050565b6000612dc482612df4565b9050919050565b60008115159050919050565b6000819050612de582612e83565b919050565b6000819050919050565b600073ffffffffffffffffffffffffffffffffffffffff82169050919050565b6000819050919050565b6000612e2982612dd7565b9050919050565b82818337600083830152505050565b60005b83811015612e5d578082015181840152602081019050612e42565b83811115612e6c576000848401525b50505050565b6000601f19601f8301169050919050565b60058110612e8d57fe5b50565b612e9981612da7565b8114612ea457600080fd5b50565b612eb081612db9565b8114612ebb57600080fd5b50565b612ec781612dcb565b8114612ed257600080fd5b50565b612ede81612e14565b8114612ee957600080fd5b5056fea365627a7a72315820aeaafe6d4edd3e1278ac14bf6e9a85a8d390d3bb571c194a1138ce408db88c196c6578706572696d656e74616cf564736f6c6343000510004032204164616d2052642c202330312d303220466f6f642043656e7472652c2053696e6761706f7265203238393837364d617877656c6c20466f6f642043656e747265202330312d31302f31312c2031204b61646179616e616c6c7572205374726565742c2053696e6761706f7265203036393138345475657364617920e280932053756e6461793a203130616d20e2809320373a3330706d4d6f6e646179202d2054687572736461793a2037616d2d35706d3b205361747572646179202d2053756e6461792037616d2d33706d353020416e67204d6f204b696f2041766520322c2053696e6761706f726520363339373938",
  "source": "// SPDX-License-Identifier: Blockchain\r\n\r\npragma solidity ^0.5.4;\r\npragma experimental ABIEncoderV2;\r\n\r\ncontract Marketplace {\r\n    //constructor\r\n    constructor() public {\r\n        addHawker(\r\n            0x73c005D4B234C63F416F6e1038C011D55edDBF1e,\r\n            \"Selera Rasa Nasi Lemak\",\r\n            \"2 Adam Rd, #01-02 Food Centre, Singapore 289876\",\r\n            \"Monday - Thursday: 7am-5pm; Saturday - Sunday 7am-3pm\",\r\n            \"98434509\",\r\n            false\r\n        );\r\n        addHawker(\r\n            0x87ECEE1454A7b32253A9020F6ae1FF25e9CE35B5,\r\n            \"Tian Tian Hainanese Chicken Rice\",\r\n            \"Maxwell Food Centre #01-10/11, 1 Kadayanallur Street, Singapore 069184\",\r\n            \"Tuesday  Sunday: 10am  7:30pm\",\r\n            \"96914852\",\r\n            false\r\n        );\r\n        addCustomer(\r\n            0xC9342f12d49ca9e40d600eBF17266DcCc88a0639,\r\n            \"Casuarina\",\r\n            \"50 Nanyang Ave, Singapore 639798\",\r\n            \"98765432\"\r\n        );\r\n        addCustomer(\r\n            0x7C2eA58a210F8e7c80fdeB6788C1D5Fc4a3E73ba,\r\n            \"Patrick\",\r\n            \"50 Ang Mo Kio Ave 2, Singapore 639798\",\r\n            \"91234567\"\r\n        );\r\n    }\r\n\r\n    //HAWKER\r\n    struct Hawker {\r\n        uint256 id;\r\n        address owner;\r\n        string name;\r\n        string addressLocation;\r\n        string openingHours;\r\n        string phone;\r\n        int256 rating;\r\n        bool open;\r\n    }\r\n    // Read/write Hawkers\r\n    mapping(uint256 => Hawker) public hawkers;\r\n    //Store Hawkers Count\r\n    uint256 public hawkersCount;\r\n\r\n    function addHawker(\r\n        address _owner,\r\n        string memory _name,\r\n        string memory _addressLocation,\r\n        string memory _openingHours,\r\n        string memory _phone,\r\n        bool _open\r\n    ) public {\r\n        hawkersCount++;\r\n        hawkers[hawkersCount] = Hawker(\r\n            hawkersCount,\r\n            _owner,\r\n            _name,\r\n            _addressLocation,\r\n            _openingHours,\r\n            _phone,\r\n            5,\r\n            _open\r\n        );\r\n    }\r\n\r\n    function editHawkerProfile(string memory _phone, string memory _OH) public {\r\n        uint256 i = 0;\r\n        for (i = 0; i <= hawkersCount; i++) {\r\n            if (hawkers[i].owner == msg.sender) {\r\n                hawkers[i].phone = _phone;\r\n                hawkers[i].openingHours = _OH;\r\n            }\r\n        }\r\n    }\r\n\r\n    function boolOpen() public {\r\n        uint256 i = 0;\r\n        for (i = 0; i <= hawkersCount; i++) {\r\n            if (hawkers[i].owner == msg.sender) {\r\n                hawkers[i].open = !(hawkers[i].open);\r\n            }\r\n        }\r\n    }\r\n\r\n    //SUPPLIER\r\n    uint256 public suppProdCount = 0;\r\n    mapping(uint256 => SuppProduct) public suppProducts;\r\n    struct SuppProduct {\r\n        uint256 id;\r\n        string name;\r\n        uint256 price;\r\n        address payable owner; //when listing, the owner will be the seller. when buying, the owner will change from the seller to the buyer\r\n        bool purchased;\r\n    }\r\n\r\n    //Restaurants products\r\n    uint256 public restProdCount = 0;\r\n    mapping(uint256 => RestProduct) public restProducts;\r\n    struct RestProduct {\r\n        uint256 id;\r\n        string name;\r\n        uint256 price;\r\n        address payable owner;\r\n        bool purchased;\r\n        string imageHash;\r\n    }\r\n\r\n    struct RestProfile {\r\n        uint256 id;\r\n        string name;\r\n        string category;\r\n        string location;\r\n        string deliveryHours;\r\n        address payable owner;\r\n        string reviews;\r\n        uint256 rating;\r\n    }\r\n\r\n    event ProductCreated(\r\n        uint256 id,\r\n        string name,\r\n        uint256 price,\r\n        address payable owner,\r\n        bool purchased,\r\n        string imageHash\r\n    );\r\n\r\n    event ProductPurchased(\r\n        uint256 id,\r\n        string name,\r\n        uint256 price,\r\n        address payable owner,\r\n        bool purchased\r\n    );\r\n\r\n    //parameter _price is expressed in Ethereum cryptocurrency - Ether\r\n    //whenever we store Ether in the blockchain, we store it as Wei (smallest denomination of Ether )\r\n    //can check it on etherconverter.online\r\n    function createSuppProduct(string memory _name, uint256 _price) public {\r\n        // Require a valid name\r\n        require(bytes(_name).length > 0);\r\n        // Require a valid price\r\n        require(_price > 0);\r\n        // Increment product count\r\n        suppProdCount++;\r\n        // Create the product --- msg.sender is the one who accessed the function\r\n        suppProducts[suppProdCount] = SuppProduct(\r\n            suppProdCount,\r\n            _name,\r\n            _price,\r\n            msg.sender,\r\n            false\r\n        );\r\n        // Trigger an event\r\n        emit ProductCreated(\r\n            suppProdCount,\r\n            _name,\r\n            _price,\r\n            msg.sender,\r\n            false,\r\n            _name\r\n        );\r\n    }\r\n\r\n    function createRestProduct(\r\n        string memory _name,\r\n        uint256 _price,\r\n        string memory _imageHash\r\n    ) public {\r\n        // Require a valid name\r\n        require(bytes(_name).length > 0);\r\n        // Require a valid price\r\n        require(_price > 0);\r\n        // Increment product count\r\n        restProdCount++;\r\n        // Create the product --- msg.sender is the one who accessed the function\r\n        restProducts[restProdCount] = RestProduct(\r\n            restProdCount,\r\n            _name,\r\n            _price,\r\n            msg.sender,\r\n            false,\r\n            _imageHash\r\n        );\r\n        // Trigger an event\r\n        emit ProductCreated(\r\n            restProdCount,\r\n            _name,\r\n            _price,\r\n            msg.sender,\r\n            false,\r\n            _imageHash\r\n        );\r\n    }\r\n\r\n    enum Status {\r\n        OrderPlaced,\r\n        OrderConfirm,\r\n        DriverConfirm,\r\n        InTransit,\r\n        OrderCompleted\r\n    }\r\n    Status public state;\r\n\r\n    struct Order {\r\n        uint256 id;\r\n        address owner;\r\n        address seller;\r\n        uint256 totalPrice;\r\n        mapping(uint256 => CartItem) purchasedItemId;\r\n        uint256 purchasedItemCount;\r\n        string date;\r\n        string time;\r\n        Status state;\r\n    }\r\n\r\n    mapping(uint256 => Order) public orders;\r\n    uint256 public ordersCount;\r\n\r\n    struct CartItem {\r\n        uint256 id;\r\n        uint256 productId;\r\n    }\r\n\r\n    //CUSTOMER\r\n    struct Customer {\r\n        uint256 id;\r\n        address owner;\r\n        string name;\r\n        string addressLocation;\r\n        string phone;\r\n        mapping(uint256 => CartItem) cartItems;\r\n        uint256 itemCount;\r\n    }\r\n\r\n    mapping(uint256 => Customer) public customers;\r\n    uint256 public customersCount;\r\n\r\n    function addCustomer(\r\n        address _owner,\r\n        string memory _name,\r\n        string memory _addressLocation,\r\n        string memory _phone\r\n    ) public {\r\n        customersCount++;\r\n        //CartItem[] memory cartItems;\r\n        customers[customersCount] = Customer(\r\n            customersCount,\r\n            _owner,\r\n            _name,\r\n            _addressLocation,\r\n            _phone,\r\n            0\r\n        );\r\n    }\r\n\r\n    function editCustProfile(string memory _phone, string memory _address)\r\n        public\r\n    {\r\n        uint256 i = 0;\r\n        for (i = 0; i <= customersCount; i++) {\r\n            if (customers[i].owner == msg.sender) {\r\n                customers[i].phone = _phone;\r\n                customers[i].addressLocation = _address;\r\n            }\r\n        }\r\n    }\r\n\r\n    function addToCart(uint256 _id) public {\r\n        uint256 i = 0;\r\n        for (i = 0; i <= customersCount; i++) {\r\n            if (customers[i].owner == msg.sender) {\r\n                (customers[i].itemCount)++;\r\n                customers[i].cartItems[customers[i].itemCount] = CartItem(\r\n                    customers[i].itemCount,\r\n                    _id\r\n                );\r\n            }\r\n        }\r\n    }\r\n\r\n    function removeProdCart(uint256 custId, uint256 cartId) public {\r\n        Customer storage cust = customers[custId];\r\n        (cust.itemCount)--;\r\n        delete cust.cartItems[cartId];\r\n    }\r\n\r\n    function removeAllProdCart(uint256 custId) public {\r\n        Customer storage cust = customers[custId];\r\n        uint256 _itemCount = cust.itemCount;\r\n        for (uint256 i = 1; i <= _itemCount; i++) {\r\n            delete cust.cartItems[i];\r\n        }\r\n        (cust.itemCount) = 0;\r\n    }\r\n\r\n    function getCartProduct(uint256 custId, uint256 cartId)\r\n        public\r\n        returns (uint256)\r\n    {\r\n        Customer storage cust = customers[custId];\r\n        return (cust.cartItems[cartId].productId);\r\n    }\r\n\r\n    function getOrderProduct(uint256 orderId, uint256 cartId)\r\n        public\r\n        returns (RestProduct memory)\r\n    {\r\n        Order storage ord = orders[orderId];\r\n        uint256 prodId = ord.purchasedItemId[cartId].productId;\r\n        RestProduct memory _product = restProducts[prodId];\r\n        return (_product);\r\n    }\r\n\r\n    function purchaseProduct(\r\n        uint256 _custId,\r\n        address payable _seller,\r\n        uint256 _totalCost,\r\n        string memory _date,\r\n        string memory _time\r\n    ) public payable {\r\n        Customer memory cust = customers[_custId];\r\n        // Increment order count\r\n        ordersCount++;\r\n        // Create the enum\r\n        state = Status.OrderPlaced;\r\n\r\n        // Create the order\r\n        orders[ordersCount] = Order(\r\n            ordersCount,\r\n            cust.owner,\r\n            _seller,\r\n            _totalCost,\r\n            cust.itemCount,\r\n            _date,\r\n            _time,\r\n            state\r\n        );\r\n\r\n        //add the items in cartItems(Customer structure) to purchasedItemId (Order structure)\r\n        for (uint256 i = 1; i <= cust.itemCount; i++) {\r\n            uint256 item = getCartProduct(_custId, i);\r\n            orders[ordersCount].purchasedItemId[i] = CartItem(i, item);\r\n        }\r\n\r\n        //Pay the seller by sending them Ether\r\n        address(_seller).transfer(msg.value);\r\n\r\n        //remove the CartItem in the Customer id\r\n        removeAllProdCart(_custId);\r\n    }\r\n\r\n    //hawker confirms order transaction made by customer\r\n    function hawkerConfirmOrder(uint256 _orderId) public {\r\n        // Order memory _order = orders[_orderId];\r\n        // //state = Status.OrderConfirm;\r\n        // _order.state = Status.OrderConfirm;\r\n        uint256 i = 0;\r\n        for (i = 0; i <= ordersCount; i++) {\r\n            if (orders[i].id == _orderId) {\r\n                orders[i].state = Status.OrderConfirm;\r\n            }\r\n        }\r\n    }\r\n    // function purchaseProduct(uint256 _id) public payable {\r\n    //     //Fetch the product\r\n    //     Product memory _product = products[_id];\r\n    //     //Fetch the owner\r\n    //     address payable _seller = _product.owner;\r\n    //     //Make sure the product has a valid id\r\n    //     //require(_product.id > 0 && _product.id <= productCount); ---> need to change\r\n    //     //Require that there is enough Ether in the transaction\r\n    //     require(msg.value >= _product.price);\r\n    //     //Require that the product has not been purchased already\r\n    //     require(!_product.purchased);\r\n    //     //Require that the buyer is not the seller\r\n    //     require(_seller != msg.sender);\r\n    //     //Transfer ownership to the buyer\r\n    //     _product.owner = msg.sender;\r\n    //     //Mark as purchased\r\n    //     _product.purchased = true;\r\n    //     //Update the product\r\n    //     products[_id] = _product;\r\n    //     //Pay the seller by sending them Ether\r\n    //     address(_seller).transfer(msg.value);\r\n\r\n    //     //Trigger an event\r\n    //     emit ProductPurchased(\r\n    //         productCount,\r\n    //         _product.name,\r\n    //         _product.price,\r\n    //         msg.sender,\r\n    //         true\r\n    //     );\r\n    // }\r\n}\r\n",
  "sourcePath": "C:/Users/Casuarina/Desktop/FYP_FoodIndustry/blockchain/src/contracts/Marketplace.sol",
  "compiler": {
    "name": "solc",
    "version": "0.5.16+commit.9c3226ce.Emscripten.clang"
  },
  "schemaVersion": "3.4.1",
  "updatedAt": "2021-07-10T14:22:51.150Z",
  "networkType": "ethereum",
  "devdoc": {
    "methods": {}
  },
  "userdoc": {
    "methods": {}
  }
}