{
  "contractName": "Marketplace",
  "abi": [
    {
      "constant": true,
      "inputs": [
        {
          "internalType": "uint256",
          "name": "",
          "type": "uint256"
        }
      ],
      "name": "customers",
      "outputs": [
        {
          "internalType": "uint256",
          "name": "id",
          "type": "uint256"
        },
        {
          "internalType": "address",
          "name": "owner",
          "type": "address"
        },
        {
          "internalType": "string",
          "name": "name",
          "type": "string"
        },
        {
          "internalType": "string",
          "name": "addressLocation",
          "type": "string"
        },
        {
          "internalType": "string",
          "name": "phone",
          "type": "string"
        },
        {
          "internalType": "uint256",
          "name": "itemCount",
          "type": "uint256"
        }
      ],
      "payable": false,
      "stateMutability": "view",
      "type": "function"
    },
    {
      "constant": true,
      "inputs": [],
      "name": "customersCount",
      "outputs": [
        {
          "internalType": "uint256",
          "name": "",
          "type": "uint256"
        }
      ],
      "payable": false,
      "stateMutability": "view",
      "type": "function"
    },
    {
      "constant": true,
      "inputs": [
        {
          "internalType": "uint256",
          "name": "",
          "type": "uint256"
        }
      ],
      "name": "foodDeliveries",
      "outputs": [
        {
          "internalType": "uint256",
          "name": "id",
          "type": "uint256"
        },
        {
          "internalType": "address",
          "name": "owner",
          "type": "address"
        },
        {
          "internalType": "string",
          "name": "name",
          "type": "string"
        },
        {
          "internalType": "string",
          "name": "email",
          "type": "string"
        },
        {
          "internalType": "string",
          "name": "phone",
          "type": "string"
        },
        {
          "internalType": "int256",
          "name": "rating",
          "type": "int256"
        },
        {
          "internalType": "bool",
          "name": "available",
          "type": "bool"
        },
        {
          "internalType": "uint256",
          "name": "ordersAcceptedCount",
          "type": "uint256"
        },
        {
          "internalType": "uint256",
          "name": "feedbackCount",
          "type": "uint256"
        }
      ],
      "payable": false,
      "stateMutability": "view",
      "type": "function"
    },
    {
      "constant": true,
      "inputs": [],
      "name": "foodDeliveriesCount",
      "outputs": [
        {
          "internalType": "uint256",
          "name": "",
          "type": "uint256"
        }
      ],
      "payable": false,
      "stateMutability": "view",
      "type": "function"
    },
    {
      "constant": true,
      "inputs": [
        {
          "internalType": "uint256",
          "name": "",
          "type": "uint256"
        }
      ],
      "name": "hawkers",
      "outputs": [
        {
          "internalType": "uint256",
          "name": "id",
          "type": "uint256"
        },
        {
          "internalType": "address",
          "name": "owner",
          "type": "address"
        },
        {
          "internalType": "string",
          "name": "name",
          "type": "string"
        },
        {
          "internalType": "string",
          "name": "addressLocation",
          "type": "string"
        },
        {
          "internalType": "string",
          "name": "emailAddress",
          "type": "string"
        },
        {
          "internalType": "string",
          "name": "phone",
          "type": "string"
        },
        {
          "internalType": "string",
          "name": "openingHours",
          "type": "string"
        },
        {
          "internalType": "uint256",
          "name": "avgRating",
          "type": "uint256"
        },
        {
          "internalType": "string",
          "name": "licenseHash",
          "type": "string"
        },
        {
          "internalType": "bool",
          "name": "open",
          "type": "bool"
        },
        {
          "internalType": "uint256",
          "name": "feedbackCount",
          "type": "uint256"
        }
      ],
      "payable": false,
      "stateMutability": "view",
      "type": "function"
    },
    {
      "constant": true,
      "inputs": [],
      "name": "hawkersCount",
      "outputs": [
        {
          "internalType": "uint256",
          "name": "",
          "type": "uint256"
        }
      ],
      "payable": false,
      "stateMutability": "view",
      "type": "function"
    },
    {
      "constant": true,
      "inputs": [
        {
          "internalType": "uint256",
          "name": "",
          "type": "uint256"
        }
      ],
      "name": "orders",
      "outputs": [
        {
          "internalType": "uint256",
          "name": "id",
          "type": "uint256"
        },
        {
          "internalType": "address",
          "name": "owner",
          "type": "address"
        },
        {
          "internalType": "address",
          "name": "seller",
          "type": "address"
        },
        {
          "internalType": "address",
          "name": "rider",
          "type": "address"
        },
        {
          "internalType": "uint256",
          "name": "hawkerPayment",
          "type": "uint256"
        },
        {
          "internalType": "uint256",
          "name": "riderPayment",
          "type": "uint256"
        },
        {
          "internalType": "uint256",
          "name": "totalPrice",
          "type": "uint256"
        },
        {
          "internalType": "uint256",
          "name": "purchasedItemCount",
          "type": "uint256"
        },
        {
          "internalType": "string",
          "name": "date",
          "type": "string"
        },
        {
          "internalType": "string",
          "name": "time",
          "type": "string"
        },
        {
          "internalType": "enum Marketplace.Status",
          "name": "state",
          "type": "uint8"
        },
        {
          "internalType": "bool",
          "name": "rated",
          "type": "bool"
        }
      ],
      "payable": false,
      "stateMutability": "view",
      "type": "function"
    },
    {
      "constant": true,
      "inputs": [],
      "name": "ordersCount",
      "outputs": [
        {
          "internalType": "uint256",
          "name": "",
          "type": "uint256"
        }
      ],
      "payable": false,
      "stateMutability": "view",
      "type": "function"
    },
    {
      "constant": true,
      "inputs": [],
      "name": "restProdCount",
      "outputs": [
        {
          "internalType": "uint256",
          "name": "",
          "type": "uint256"
        }
      ],
      "payable": false,
      "stateMutability": "view",
      "type": "function"
    },
    {
      "constant": true,
      "inputs": [
        {
          "internalType": "uint256",
          "name": "",
          "type": "uint256"
        }
      ],
      "name": "restProducts",
      "outputs": [
        {
          "internalType": "uint256",
          "name": "id",
          "type": "uint256"
        },
        {
          "internalType": "string",
          "name": "name",
          "type": "string"
        },
        {
          "internalType": "uint256",
          "name": "price",
          "type": "uint256"
        },
        {
          "internalType": "address payable",
          "name": "owner",
          "type": "address"
        },
        {
          "internalType": "bool",
          "name": "published",
          "type": "bool"
        },
        {
          "internalType": "string",
          "name": "imageHash",
          "type": "string"
        },
        {
          "internalType": "uint256",
          "name": "soldCount",
          "type": "uint256"
        }
      ],
      "payable": false,
      "stateMutability": "view",
      "type": "function"
    },
    {
      "constant": true,
      "inputs": [],
      "name": "state",
      "outputs": [
        {
          "internalType": "enum Marketplace.Status",
          "name": "",
          "type": "uint8"
        }
      ],
      "payable": false,
      "stateMutability": "view",
      "type": "function"
    },
    {
      "constant": true,
      "inputs": [],
      "name": "suppProdCount",
      "outputs": [
        {
          "internalType": "uint256",
          "name": "",
          "type": "uint256"
        }
      ],
      "payable": false,
      "stateMutability": "view",
      "type": "function"
    },
    {
      "constant": true,
      "inputs": [
        {
          "internalType": "uint256",
          "name": "",
          "type": "uint256"
        }
      ],
      "name": "suppProducts",
      "outputs": [
        {
          "internalType": "uint256",
          "name": "id",
          "type": "uint256"
        },
        {
          "internalType": "string",
          "name": "name",
          "type": "string"
        },
        {
          "internalType": "uint256",
          "name": "price",
          "type": "uint256"
        },
        {
          "internalType": "uint256",
          "name": "size",
          "type": "uint256"
        },
        {
          "internalType": "uint256",
          "name": "minOrder",
          "type": "uint256"
        },
        {
          "internalType": "address payable",
          "name": "owner",
          "type": "address"
        },
        {
          "internalType": "bool",
          "name": "published",
          "type": "bool"
        },
        {
          "internalType": "string",
          "name": "imageHash",
          "type": "string"
        }
      ],
      "payable": false,
      "stateMutability": "view",
      "type": "function"
    },
    {
      "constant": true,
      "inputs": [
        {
          "internalType": "uint256",
          "name": "",
          "type": "uint256"
        }
      ],
      "name": "suppliers",
      "outputs": [
        {
          "internalType": "uint256",
          "name": "id",
          "type": "uint256"
        },
        {
          "internalType": "address",
          "name": "owner",
          "type": "address"
        },
        {
          "internalType": "string",
          "name": "name",
          "type": "string"
        },
        {
          "internalType": "string",
          "name": "email",
          "type": "string"
        },
        {
          "internalType": "string",
          "name": "addressLocation",
          "type": "string"
        },
        {
          "internalType": "string",
          "name": "phone",
          "type": "string"
        },
        {
          "internalType": "uint256",
          "name": "MOQ",
          "type": "uint256"
        },
        {
          "internalType": "uint256",
          "name": "leadTime",
          "type": "uint256"
        },
        {
          "internalType": "string",
          "name": "deliveryDays",
          "type": "string"
        },
        {
          "internalType": "string",
          "name": "remarks",
          "type": "string"
        },
        {
          "internalType": "uint256",
          "name": "avgRating",
          "type": "uint256"
        },
        {
          "internalType": "uint256",
          "name": "feedbackCount",
          "type": "uint256"
        }
      ],
      "payable": false,
      "stateMutability": "view",
      "type": "function"
    },
    {
      "constant": true,
      "inputs": [],
      "name": "suppliersCount",
      "outputs": [
        {
          "internalType": "uint256",
          "name": "",
          "type": "uint256"
        }
      ],
      "payable": false,
      "stateMutability": "view",
      "type": "function"
    },
    {
      "constant": false,
      "inputs": [
        {
          "internalType": "address",
          "name": "_owner",
          "type": "address"
        },
        {
          "internalType": "string",
          "name": "_name",
          "type": "string"
        },
        {
          "internalType": "string",
          "name": "_email",
          "type": "string"
        },
        {
          "internalType": "string",
          "name": "_phone",
          "type": "string"
        }
      ],
      "name": "addFoodDelivery",
      "outputs": [],
      "payable": false,
      "stateMutability": "nonpayable",
      "type": "function"
    },
    {
      "constant": false,
      "inputs": [
        {
          "internalType": "address",
          "name": "_owner",
          "type": "address"
        },
        {
          "internalType": "string",
          "name": "_name",
          "type": "string"
        },
        {
          "internalType": "string",
          "name": "_email",
          "type": "string"
        },
        {
          "internalType": "string",
          "name": "_addressLocation",
          "type": "string"
        },
        {
          "internalType": "string",
          "name": "_phone",
          "type": "string"
        },
        {
          "internalType": "uint256",
          "name": "_moq",
          "type": "uint256"
        },
        {
          "internalType": "uint256",
          "name": "_leadTime",
          "type": "uint256"
        },
        {
          "internalType": "string",
          "name": "_deliveryDays",
          "type": "string"
        },
        {
          "internalType": "string",
          "name": "_remarks",
          "type": "string"
        }
      ],
      "name": "addSupplier",
      "outputs": [],
      "payable": false,
      "stateMutability": "nonpayable",
      "type": "function"
    },
    {
      "constant": false,
      "inputs": [
        {
          "internalType": "address",
          "name": "_owner",
          "type": "address"
        },
        {
          "internalType": "string",
          "name": "_name",
          "type": "string"
        },
        {
          "internalType": "string",
          "name": "_addressLocation",
          "type": "string"
        },
        {
          "internalType": "string",
          "name": "_emailAddress",
          "type": "string"
        },
        {
          "internalType": "string",
          "name": "_phone",
          "type": "string"
        },
        {
          "internalType": "string",
          "name": "_openingHours",
          "type": "string"
        },
        {
          "internalType": "string",
          "name": "_licenseHash",
          "type": "string"
        }
      ],
      "name": "addHawker",
      "outputs": [],
      "payable": false,
      "stateMutability": "nonpayable",
      "type": "function"
    },
    {
      "constant": false,
      "inputs": [
        {
          "internalType": "uint256",
          "name": "_id",
          "type": "uint256"
        },
        {
          "internalType": "string",
          "name": "_phone",
          "type": "string"
        },
        {
          "internalType": "string",
          "name": "_OH",
          "type": "string"
        }
      ],
      "name": "editHawkerProfile",
      "outputs": [],
      "payable": false,
      "stateMutability": "nonpayable",
      "type": "function"
    },
    {
      "constant": false,
      "inputs": [
        {
          "internalType": "uint256",
          "name": "_id",
          "type": "uint256"
        }
      ],
      "name": "boolOpen",
      "outputs": [],
      "payable": false,
      "stateMutability": "nonpayable",
      "type": "function"
    },
    {
      "constant": false,
      "inputs": [
        {
          "internalType": "uint256",
          "name": "_id",
          "type": "uint256"
        }
      ],
      "name": "boolWork",
      "outputs": [],
      "payable": false,
      "stateMutability": "nonpayable",
      "type": "function"
    },
    {
      "constant": false,
      "inputs": [
        {
          "internalType": "string",
          "name": "_name",
          "type": "string"
        },
        {
          "internalType": "uint256",
          "name": "_price",
          "type": "uint256"
        },
        {
          "internalType": "uint256",
          "name": "_size",
          "type": "uint256"
        },
        {
          "internalType": "uint256",
          "name": "_minOrder",
          "type": "uint256"
        },
        {
          "internalType": "bool",
          "name": "_published",
          "type": "bool"
        },
        {
          "internalType": "string",
          "name": "_imageHash",
          "type": "string"
        }
      ],
      "name": "createSuppProduct",
      "outputs": [],
      "payable": false,
      "stateMutability": "nonpayable",
      "type": "function"
    },
    {
      "constant": false,
      "inputs": [
        {
          "internalType": "string",
          "name": "_name",
          "type": "string"
        },
        {
          "internalType": "uint256",
          "name": "_price",
          "type": "uint256"
        },
        {
          "internalType": "bool",
          "name": "_published",
          "type": "bool"
        },
        {
          "internalType": "string",
          "name": "_imageHash",
          "type": "string"
        }
      ],
      "name": "createRestProduct",
      "outputs": [],
      "payable": false,
      "stateMutability": "nonpayable",
      "type": "function"
    },
    {
      "constant": false,
      "inputs": [
        {
          "internalType": "address",
          "name": "_owner",
          "type": "address"
        },
        {
          "internalType": "string",
          "name": "_name",
          "type": "string"
        },
        {
          "internalType": "string",
          "name": "_addressLocation",
          "type": "string"
        },
        {
          "internalType": "string",
          "name": "_phone",
          "type": "string"
        }
      ],
      "name": "addCustomer",
      "outputs": [],
      "payable": false,
      "stateMutability": "nonpayable",
      "type": "function"
    },
    {
      "constant": false,
      "inputs": [
        {
          "internalType": "uint256",
          "name": "_id",
          "type": "uint256"
        },
        {
          "internalType": "string",
          "name": "_phone",
          "type": "string"
        },
        {
          "internalType": "string",
          "name": "_address",
          "type": "string"
        }
      ],
      "name": "editCustProfile",
      "outputs": [],
      "payable": false,
      "stateMutability": "nonpayable",
      "type": "function"
    },
    {
      "constant": false,
      "inputs": [
        {
          "internalType": "uint256",
          "name": "_id",
          "type": "uint256"
        },
        {
          "internalType": "string",
          "name": "_phone",
          "type": "string"
        },
        {
          "internalType": "uint256",
          "name": "_moq",
          "type": "uint256"
        },
        {
          "internalType": "uint256",
          "name": "_leadTime",
          "type": "uint256"
        },
        {
          "internalType": "string",
          "name": "_deliveryDays",
          "type": "string"
        },
        {
          "internalType": "string",
          "name": "_remarks",
          "type": "string"
        }
      ],
      "name": "editSupplierProfile",
      "outputs": [],
      "payable": false,
      "stateMutability": "nonpayable",
      "type": "function"
    },
    {
      "constant": false,
      "inputs": [
        {
          "internalType": "uint256",
          "name": "_productId",
          "type": "uint256"
        },
        {
          "internalType": "string",
          "name": "_name",
          "type": "string"
        },
        {
          "internalType": "uint256",
          "name": "_price",
          "type": "uint256"
        },
        {
          "internalType": "string",
          "name": "_imageHash",
          "type": "string"
        },
        {
          "internalType": "bool",
          "name": "_published",
          "type": "bool"
        }
      ],
      "name": "editProduct",
      "outputs": [],
      "payable": false,
      "stateMutability": "nonpayable",
      "type": "function"
    },
    {
      "constant": false,
      "inputs": [
        {
          "internalType": "uint256",
          "name": "_productId",
          "type": "uint256"
        },
        {
          "internalType": "string",
          "name": "_name",
          "type": "string"
        },
        {
          "internalType": "uint256",
          "name": "_price",
          "type": "uint256"
        },
        {
          "internalType": "uint256",
          "name": "_size",
          "type": "uint256"
        },
        {
          "internalType": "uint256",
          "name": "_minOrder",
          "type": "uint256"
        },
        {
          "internalType": "string",
          "name": "_imageHash",
          "type": "string"
        },
        {
          "internalType": "bool",
          "name": "_published",
          "type": "bool"
        }
      ],
      "name": "editSuppProduct",
      "outputs": [],
      "payable": false,
      "stateMutability": "nonpayable",
      "type": "function"
    },
    {
      "constant": false,
      "inputs": [
        {
          "internalType": "uint256",
          "name": "_custId",
          "type": "uint256"
        },
        {
          "internalType": "uint256",
          "name": "_prodId",
          "type": "uint256"
        },
        {
          "internalType": "uint256",
          "name": "_prodQty",
          "type": "uint256"
        }
      ],
      "name": "addToCart",
      "outputs": [],
      "payable": false,
      "stateMutability": "nonpayable",
      "type": "function"
    },
    {
      "constant": false,
      "inputs": [
        {
          "internalType": "uint256",
          "name": "custId",
          "type": "uint256"
        },
        {
          "internalType": "uint256",
          "name": "cartId",
          "type": "uint256"
        }
      ],
      "name": "removeProdCart",
      "outputs": [],
      "payable": false,
      "stateMutability": "nonpayable",
      "type": "function"
    },
    {
      "constant": false,
      "inputs": [
        {
          "internalType": "uint256",
          "name": "custId",
          "type": "uint256"
        }
      ],
      "name": "removeAllProdCart",
      "outputs": [],
      "payable": false,
      "stateMutability": "nonpayable",
      "type": "function"
    },
    {
      "constant": false,
      "inputs": [
        {
          "internalType": "uint256",
          "name": "custId",
          "type": "uint256"
        },
        {
          "internalType": "uint256",
          "name": "cartId",
          "type": "uint256"
        }
      ],
      "name": "getCartProduct",
      "outputs": [
        {
          "internalType": "uint256",
          "name": "",
          "type": "uint256"
        },
        {
          "internalType": "uint256",
          "name": "",
          "type": "uint256"
        }
      ],
      "payable": false,
      "stateMutability": "nonpayable",
      "type": "function"
    },
    {
      "constant": false,
      "inputs": [
        {
          "internalType": "uint256",
          "name": "orderId",
          "type": "uint256"
        },
        {
          "internalType": "uint256",
          "name": "cartId",
          "type": "uint256"
        }
      ],
      "name": "getOrderProduct",
      "outputs": [
        {
          "components": [
            {
              "internalType": "uint256",
              "name": "id",
              "type": "uint256"
            },
            {
              "internalType": "string",
              "name": "name",
              "type": "string"
            },
            {
              "internalType": "uint256",
              "name": "price",
              "type": "uint256"
            },
            {
              "internalType": "address payable",
              "name": "owner",
              "type": "address"
            },
            {
              "internalType": "bool",
              "name": "published",
              "type": "bool"
            },
            {
              "internalType": "string",
              "name": "imageHash",
              "type": "string"
            },
            {
              "internalType": "uint256",
              "name": "soldCount",
              "type": "uint256"
            }
          ],
          "internalType": "struct Marketplace.RestProduct",
          "name": "",
          "type": "tuple"
        },
        {
          "components": [
            {
              "internalType": "uint256",
              "name": "id",
              "type": "uint256"
            },
            {
              "internalType": "uint256",
              "name": "productId",
              "type": "uint256"
            },
            {
              "internalType": "uint256",
              "name": "productQty",
              "type": "uint256"
            }
          ],
          "internalType": "struct Marketplace.CartItem",
          "name": "",
          "type": "tuple"
        }
      ],
      "payable": false,
      "stateMutability": "nonpayable",
      "type": "function"
    },
    {
      "constant": false,
      "inputs": [
        {
          "internalType": "uint256",
          "name": "hawkerId",
          "type": "uint256"
        },
        {
          "internalType": "uint256",
          "name": "feedbackCount",
          "type": "uint256"
        }
      ],
      "name": "getHawkerFeedback",
      "outputs": [
        {
          "components": [
            {
              "internalType": "uint256",
              "name": "id",
              "type": "uint256"
            },
            {
              "internalType": "address",
              "name": "seller",
              "type": "address"
            },
            {
              "internalType": "address",
              "name": "customer",
              "type": "address"
            },
            {
              "internalType": "uint256",
              "name": "rate",
              "type": "uint256"
            },
            {
              "internalType": "string",
              "name": "comment",
              "type": "string"
            }
          ],
          "internalType": "struct Marketplace.Feedback",
          "name": "",
          "type": "tuple"
        }
      ],
      "payable": false,
      "stateMutability": "nonpayable",
      "type": "function"
    },
    {
      "constant": false,
      "inputs": [
        {
          "internalType": "uint256",
          "name": "fdId",
          "type": "uint256"
        },
        {
          "internalType": "uint256",
          "name": "feedbackCount",
          "type": "uint256"
        }
      ],
      "name": "getFdFeedback",
      "outputs": [
        {
          "components": [
            {
              "internalType": "uint256",
              "name": "id",
              "type": "uint256"
            },
            {
              "internalType": "address",
              "name": "seller",
              "type": "address"
            },
            {
              "internalType": "address",
              "name": "customer",
              "type": "address"
            },
            {
              "internalType": "uint256",
              "name": "rate",
              "type": "uint256"
            },
            {
              "internalType": "string",
              "name": "comment",
              "type": "string"
            }
          ],
          "internalType": "struct Marketplace.Feedback",
          "name": "",
          "type": "tuple"
        }
      ],
      "payable": false,
      "stateMutability": "nonpayable",
      "type": "function"
    },
    {
      "constant": false,
      "inputs": [
        {
          "internalType": "uint256",
          "name": "_orderId",
          "type": "uint256"
        },
        {
          "internalType": "uint256",
          "name": "_hawkerId",
          "type": "uint256"
        },
        {
          "internalType": "uint256",
          "name": "_hawkerRate",
          "type": "uint256"
        },
        {
          "internalType": "string",
          "name": "_hawkerComment",
          "type": "string"
        },
        {
          "internalType": "uint256",
          "name": "_foodDeliveryId",
          "type": "uint256"
        },
        {
          "internalType": "uint256",
          "name": "_fdRate",
          "type": "uint256"
        },
        {
          "internalType": "string",
          "name": "_fdComment",
          "type": "string"
        }
      ],
      "name": "setRating",
      "outputs": [],
      "payable": false,
      "stateMutability": "nonpayable",
      "type": "function"
    },
    {
      "constant": false,
      "inputs": [
        {
          "internalType": "uint256",
          "name": "_orderId",
          "type": "uint256"
        },
        {
          "internalType": "address payable",
          "name": "_customer",
          "type": "address"
        }
      ],
      "name": "cancelOrder",
      "outputs": [],
      "payable": true,
      "stateMutability": "payable",
      "type": "function"
    },
    {
      "constant": false,
      "inputs": [
        {
          "internalType": "uint256",
          "name": "_custId",
          "type": "uint256"
        },
        {
          "internalType": "address payable",
          "name": "_seller",
          "type": "address"
        },
        {
          "internalType": "uint256",
          "name": "_hawkerPayment",
          "type": "uint256"
        },
        {
          "internalType": "uint256",
          "name": "_riderPayment",
          "type": "uint256"
        },
        {
          "internalType": "uint256",
          "name": "_totalCost",
          "type": "uint256"
        },
        {
          "internalType": "string",
          "name": "_date",
          "type": "string"
        },
        {
          "internalType": "string",
          "name": "_time",
          "type": "string"
        }
      ],
      "name": "purchaseProduct",
      "outputs": [],
      "payable": true,
      "stateMutability": "payable",
      "type": "function"
    },
    {
      "constant": false,
      "inputs": [
        {
          "internalType": "uint256",
          "name": "_orderId",
          "type": "uint256"
        }
      ],
      "name": "hawkerConfirmOrder",
      "outputs": [],
      "payable": false,
      "stateMutability": "nonpayable",
      "type": "function"
    },
    {
      "constant": false,
      "inputs": [
        {
          "internalType": "uint256",
          "name": "_orderId",
          "type": "uint256"
        }
      ],
      "name": "fdAcceptOrder",
      "outputs": [],
      "payable": false,
      "stateMutability": "nonpayable",
      "type": "function"
    },
    {
      "constant": false,
      "inputs": [
        {
          "internalType": "uint256",
          "name": "_orderId",
          "type": "uint256"
        }
      ],
      "name": "fdCollectedOrder",
      "outputs": [],
      "payable": false,
      "stateMutability": "nonpayable",
      "type": "function"
    },
    {
      "constant": false,
      "inputs": [
        {
          "internalType": "uint256",
          "name": "_orderId",
          "type": "uint256"
        },
        {
          "internalType": "uint256",
          "name": "_fdId",
          "type": "uint256"
        }
      ],
      "name": "fdCompleteOrder",
      "outputs": [],
      "payable": true,
      "stateMutability": "payable",
      "type": "function"
    }
  ],
  "bytecode": "0x60806040526000600655600060085534801561001a57600080fd5b506154d38061002a6000396000f3fe6080604052600436106102515760003560e01c80639a81fecc11610139578063c6705e9f116100b6578063e34960761161007a578063e349607614610926578063e6f65b4c1461094f578063f0bbfb071461097a578063f0eab430146109a3578063f2e7e195146109cc578063f486fca2146109f557610251565b8063c6705e9f1461080a578063cc3cb43214610848578063cea2312114610871578063e16f14e2146108b9578063e24b0562146108fd57610251565b8063abed579f116100fd578063abed579f14610713578063ad0c079414610756578063b0fd5c4614610772578063c0abda2a1461079d578063c19d93fb146107df57610251565b80639a81fecc146106255780639d0d6f8b1461064e578063a85c38ef14610677578063a9937b22146106bf578063aa38fdee146106ea57610251565b80634244c3d4116101d25780637188bf5c116101965780637188bf5c1461053a5780637323a7d314610563578063757a27031461057f5780637d9bbc73146105aa5780638968bffd146105d3578063995d7d93146105fc57610251565b80634244c3d4146104575780634368d1791461048057806360b22e3c146104bd57806362fb1422146104e657806364a6b4941461050f57610251565b806315cfae391161021957806315cfae3914610341578063278e381c1461037e578063352e740c146103bc57806335daa731146103e55780633be94d471461041057610251565b8063049af3f914610256578063093c05fa1461027f57806309cd3f07146102c45780630c21a8d2146102ed5780631460953c14610318575b600080fd5b34801561026257600080fd5b5061027d600480360361027891908101906146f1565b610a11565b005b34801561028b57600080fd5b506102a660048036036102a191908101906145be565b610a6c565b6040516102bb99989796959493929190614ec2565b60405180910390f35b3480156102d057600080fd5b506102eb60048036036102e69190810190614505565b610caf565b005b3480156102f957600080fd5b50610302610e19565b60405161030f9190614ddf565b60405180910390f35b34801561032457600080fd5b5061033f600480360361033a9190810190614143565b610e1f565b005b34801561034d57600080fd5b50610368600480360361036391908101906149b6565b610f7f565b6040516103759190614d8d565b60405180910390f35b34801561038a57600080fd5b506103a560048036036103a091908101906149b6565b611134565b6040516103b3929190614daf565b60405180910390f35b3480156103c857600080fd5b506103e360048036036103de919081019061431c565b6113cc565b005b3480156103f157600080fd5b506103fa6115d0565b6040516104079190614ddf565b60405180910390f35b34801561041c57600080fd5b50610437600480360361043291908101906145be565b6115d6565b60405161044e9b9a99989796959493929190614f64565b60405180910390f35b34801561046357600080fd5b5061047e600480360361047991908101906149b6565b6119ed565b005b34801561048c57600080fd5b506104a760048036036104a291908101906149b6565b611a4e565b6040516104b49190614d8d565b60405180910390f35b3480156104c957600080fd5b506104e460048036036104df9190810190614143565b611c04565b005b3480156104f257600080fd5b5061050d600480360361050891908101906148e8565b611db0565b005b34801561051b57600080fd5b50610524611e8e565b6040516105319190614ddf565b60405180910390f35b34801561054657600080fd5b50610561600480360361055c91908101906145be565b611e94565b005b61057d600480360361057891908101906145e7565b611ee7565b005b34801561058b57600080fd5b50610594611f80565b6040516105a19190614ddf565b60405180910390f35b3480156105b657600080fd5b506105d160048036036105cc91908101906146f1565b611f86565b005b3480156105df57600080fd5b506105fa60048036036105f59190810190614770565b611fe1565b005b34801561060857600080fd5b50610623600480360361061e91908101906145be565b612087565b005b34801561063157600080fd5b5061064c600480360361064791908101906149f2565b612117565b005b34801561065a57600080fd5b50610675600480360361067091908101906145be565b6121d1565b005b34801561068357600080fd5b5061069e600480360361069991908101906145be565b612269565b6040516106b69c9b9a99989796959493929190614dfa565b60405180910390f35b3480156106cb57600080fd5b506106d4612473565b6040516106e19190614ddf565b60405180910390f35b3480156106f657600080fd5b50610711600480360361070c91908101906141ee565b612479565b005b34801561071f57600080fd5b5061073a600480360361073591908101906145be565b612683565b60405161074d9796959493929190615193565b60405180910390f35b610770600480360361076b9190810190614623565b612822565b005b34801561077e57600080fd5b50610787612e10565b6040516107949190614ddf565b60405180910390f35b3480156107a957600080fd5b506107c460048036036107bf91908101906145be565b612e16565b6040516107d69695949392919061511d565b60405180910390f35b3480156107eb57600080fd5b506107f461303a565b6040516108019190614d72565b60405180910390f35b34801561081657600080fd5b50610831600480360361082c91908101906149b6565b61304d565b60405161083f92919061529c565b60405180910390f35b34801561085457600080fd5b5061086f600480360361086a9190810190614472565b6130a5565b005b34801561087d57600080fd5b50610898600480360361089391908101906145be565b6131fd565b6040516108b09c9b9a99989796959493929190615039565b60405180910390f35b3480156108c557600080fd5b506108e060048036036108db91908101906145be565b61360d565b6040516108f4989796959493929190615210565b60405180910390f35b34801561090957600080fd5b50610924600480360361091f9190810190614a41565b6137b2565b005b34801561093257600080fd5b5061094d600480360361094891908101906145be565b613bcb565b005b34801561095b57600080fd5b50610964613c20565b6040516109719190614ddf565b60405180910390f35b34801561098657600080fd5b506109a1600480360361099c91908101906145be565b613c26565b005b3480156109af57600080fd5b506109ca60048036036109c591908101906145be565b613c61565b005b3480156109d857600080fd5b506109f360048036036109ee9190810190614817565b613cdc565b005b610a0f6004803603610a0a91908101906149b6565b613d9b565b005b81600460008581526020019081526020016000206005019080519060200190610a3b929190613e59565b5080600460008581526020019081526020016000206006019080519060200190610a66929190613e59565b50505050565b60006020528060005260406000206000915090508060000154908060010160009054906101000a900473ffffffffffffffffffffffffffffffffffffffff1690806002018054600181600116156101000203166002900480601f016020809104026020016040519081016040528092919081815260200182805460018160011615610100020316600290048015610b445780601f10610b1957610100808354040283529160200191610b44565b820191906000526020600020905b815481529060010190602001808311610b2757829003601f168201915b505050505090806003018054600181600116156101000203166002900480601f016020809104026020016040519081016040528092919081815260200182805460018160011615610100020316600290048015610be25780601f10610bb757610100808354040283529160200191610be2565b820191906000526020600020905b815481529060010190602001808311610bc557829003601f168201915b505050505090806004018054600181600116156101000203166002900480601f016020809104026020016040519081016040528092919081815260200182805460018160011615610100020316600290048015610c805780601f10610c5557610100808354040283529160200191610c80565b820191906000526020600020905b815481529060010190602001808311610c6357829003601f168201915b5050505050908060050154908060060160009054906101000a900460ff169080600801549080600a0154905089565b6000865111610cbd57600080fd5b60008511610cca57600080fd5b60066000815480929190600101919050555060405180610100016040528060065481526020018781526020018681526020018581526020018481526020013373ffffffffffffffffffffffffffffffffffffffff168152602001831515815260200182815250600760006006548152602001908152602001600020600082015181600001556020820151816001019080519060200190610d6b929190613ed9565b5060408201518160020155606082015181600301556080820151816004015560a08201518160050160006101000a81548173ffffffffffffffffffffffffffffffffffffffff021916908373ffffffffffffffffffffffffffffffffffffffff16021790555060c08201518160050160146101000a81548160ff02191690831515021790555060e0820151816006019080519060200190610e0d929190613ed9565b50905050505050505050565b600e5481565b8373ffffffffffffffffffffffffffffffffffffffff163373ffffffffffffffffffffffffffffffffffffffff1614610e5757600080fd5b600e600081548092919060010191905055506040518060c00160405280600e5481526020013373ffffffffffffffffffffffffffffffffffffffff1681526020018481526020018381526020018281526020016000815250600d6000600e5481526020019081526020016000206000820151816000015560208201518160010160006101000a81548173ffffffffffffffffffffffffffffffffffffffff021916908373ffffffffffffffffffffffffffffffffffffffff1602179055506040820151816002019080519060200190610f31929190613ed9565b506060820151816003019080519060200190610f4e929190613ed9565b506080820151816004019080519060200190610f6b929190613ed9565b5060a0820151816006015590505050505050565b610f87613f59565b60008060008581526020019081526020016000209050610fa5613f59565b8160090160008581526020019081526020016000206040518060a0016040529081600082015481526020016001820160009054906101000a900473ffffffffffffffffffffffffffffffffffffffff1673ffffffffffffffffffffffffffffffffffffffff1673ffffffffffffffffffffffffffffffffffffffff1681526020016002820160009054906101000a900473ffffffffffffffffffffffffffffffffffffffff1673ffffffffffffffffffffffffffffffffffffffff1673ffffffffffffffffffffffffffffffffffffffff16815260200160038201548152602001600482018054600181600116156101000203166002900480601f01602080910402602001604051908101604052809291908181526020018280546001816001161561010002031660029004801561111e5780601f106110f35761010080835404028352916020019161111e565b820191906000526020600020905b81548152906001019060200180831161110157829003601f168201915b5050505050815250509050809250505092915050565b61113c613fb4565b611144614009565b6000600b600086815260200190815260200160002090506000816007016000868152602001908152602001600020600101549050611180613fb4565b600960008381526020019081526020016000206040518060e001604052908160008201548152602001600182018054600181600116156101000203166002900480601f0160208091040260200160405190810160405280929190818152602001828054600181600116156101000203166002900480156112415780601f1061121657610100808354040283529160200191611241565b820191906000526020600020905b81548152906001019060200180831161122457829003601f168201915b50505050508152602001600282015481526020016003820160009054906101000a900473ffffffffffffffffffffffffffffffffffffffff1673ffffffffffffffffffffffffffffffffffffffff1673ffffffffffffffffffffffffffffffffffffffff1681526020016003820160149054906101000a900460ff16151515158152602001600482018054600181600116156101000203166002900480601f01602080910402602001604051908101604052809291908181526020018280546001816001161561010002031660029004801561135e5780601f106113335761010080835404028352916020019161135e565b820191906000526020600020905b81548152906001019060200180831161134157829003601f168201915b50505050508152602001600582015481525050905061137b614009565b83600701600088815260200190815260200160002060405180606001604052908160008201548152602001600182015481526020016002820154815250509050818195509550505050509250929050565b8873ffffffffffffffffffffffffffffffffffffffff163373ffffffffffffffffffffffffffffffffffffffff161461140457600080fd5b60036000815480929190600101919050555060405180610180016040528060035481526020013373ffffffffffffffffffffffffffffffffffffffff1681526020018981526020018881526020018781526020018681526020018581526020018481526020018381526020018281526020016000815260200160008152506002600060035481526020019081526020016000206000820151816000015560208201518160010160006101000a81548173ffffffffffffffffffffffffffffffffffffffff021916908373ffffffffffffffffffffffffffffffffffffffff1602179055506040820151816002019080519060200190611504929190613ed9565b506060820151816003019080519060200190611521929190613ed9565b50608082015181600401908051906020019061153e929190613ed9565b5060a082015181600501908051906020019061155b929190613ed9565b5060c0820151816006015560e0820151816007015561010082015181600801908051906020019061158d929190613ed9565b506101208201518160090190805190602001906115ab929190613ed9565b5061014082015181600a015561016082015181600c0155905050505050505050505050565b600c5481565b60046020528060005260406000206000915090508060000154908060010160009054906101000a900473ffffffffffffffffffffffffffffffffffffffff1690806002018054600181600116156101000203166002900480601f0160208091040260200160405190810160405280929190818152602001828054600181600116156101000203166002900480156116ae5780601f10611683576101008083540402835291602001916116ae565b820191906000526020600020905b81548152906001019060200180831161169157829003601f168201915b505050505090806003018054600181600116156101000203166002900480601f01602080910402602001604051908101604052809291908181526020018280546001816001161561010002031660029004801561174c5780601f106117215761010080835404028352916020019161174c565b820191906000526020600020905b81548152906001019060200180831161172f57829003601f168201915b505050505090806004018054600181600116156101000203166002900480601f0160208091040260200160405190810160405280929190818152602001828054600181600116156101000203166002900480156117ea5780601f106117bf576101008083540402835291602001916117ea565b820191906000526020600020905b8154815290600101906020018083116117cd57829003601f168201915b505050505090806005018054600181600116156101000203166002900480601f0160208091040260200160405190810160405280929190818152602001828054600181600116156101000203166002900480156118885780601f1061185d57610100808354040283529160200191611888565b820191906000526020600020905b81548152906001019060200180831161186b57829003601f168201915b505050505090806006018054600181600116156101000203166002900480601f0160208091040260200160405190810160405280929190818152602001828054600181600116156101000203166002900480156119265780601f106118fb57610100808354040283529160200191611926565b820191906000526020600020905b81548152906001019060200180831161190957829003601f168201915b505050505090806007015490806008018054600181600116156101000203166002900480601f0160208091040260200160405190810160405280929190818152602001828054600181600116156101000203166002900480156119ca5780601f1061199f576101008083540402835291602001916119ca565b820191906000526020600020905b8154815290600101906020018083116119ad57829003601f168201915b5050505050908060090160009054906101000a900460ff169080600b015490508b565b6000600d60008481526020019081526020016000209050806006016000815480929190600190039190505550806005016000838152602001908152602001600020600080820160009055600182016000905560028201600090555050505050565b611a56613f59565b6000600460008581526020019081526020016000209050611a75613f59565b81600a0160008581526020019081526020016000206040518060a0016040529081600082015481526020016001820160009054906101000a900473ffffffffffffffffffffffffffffffffffffffff1673ffffffffffffffffffffffffffffffffffffffff1673ffffffffffffffffffffffffffffffffffffffff1681526020016002820160009054906101000a900473ffffffffffffffffffffffffffffffffffffffff1673ffffffffffffffffffffffffffffffffffffffff1673ffffffffffffffffffffffffffffffffffffffff16815260200160038201548152602001600482018054600181600116156101000203166002900480601f016020809104026020016040519081016040528092919081815260200182805460018160011615610100020316600290048015611bee5780601f10611bc357610100808354040283529160200191611bee565b820191906000526020600020905b815481529060010190602001808311611bd157829003601f168201915b5050505050815250509050809250505092915050565b8373ffffffffffffffffffffffffffffffffffffffff163373ffffffffffffffffffffffffffffffffffffffff1614611c3c57600080fd5b60016000815480929190600101919050555060405180610120016040528060015481526020013373ffffffffffffffffffffffffffffffffffffffff1681526020018481526020018381526020018281526020016005815260200160001515815260200160008152602001600081525060008060015481526020019081526020016000206000820151816000015560208201518160010160006101000a81548173ffffffffffffffffffffffffffffffffffffffff021916908373ffffffffffffffffffffffffffffffffffffffff1602179055506040820151816002019080519060200190611d2d929190613ed9565b506060820151816003019080519060200190611d4a929190613ed9565b506080820151816004019080519060200190611d67929190613ed9565b5060a0820151816005015560c08201518160060160006101000a81548160ff02191690831515021790555060e0820151816008015561010082015181600a015590505050505050565b85600760008981526020019081526020016000206001019080519060200190611dda929190613e59565b5084600760008981526020019081526020016000206002018190555083600760008981526020019081526020016000206003018190555082600760008981526020019081526020016000206004018190555081600760008981526020019081526020016000206006019080519060200190611e56929190613e59565b50806007600089815260200190815260200160002060050160146101000a81548160ff02191690831515021790555050505050505050565b60035481565b60008082815260200190815260200160002060060160009054906101000a900460ff161560008083815260200190815260200160002060060160006101000a81548160ff02191690831515021790555050565b6005600b6000848152602001908152602001600020600b0160006101000a81548160ff02191690836005811115611f1a57fe5b02179055508073ffffffffffffffffffffffffffffffffffffffff166108fc600b6000858152602001908152602001600020600601549081150290604051600060405180830381858888f19350505050158015611f7b573d6000803e3d6000fd5b505050565b60085481565b81600d60008581526020019081526020016000206004019080519060200190611fb0929190613e59565b5080600d60008581526020019081526020016000206003019080519060200190611fdb929190613e59565b50505050565b8360096000878152602001908152602001600020600101908051906020019061200b929190613e59565b5082600960008781526020019081526020016000206002018190555081600960008781526020019081526020016000206004019080519060200190612051929190613e59565b50806009600087815260200190815260200160002060030160146101000a81548160ff0219169083151502179055505050505050565b6002600b6000838152602001908152602001600020600b0160006101000a81548160ff021916908360058111156120ba57fe5b021790555033600b600083815260200190815260200160002060030160006101000a81548173ffffffffffffffffffffffffffffffffffffffff021916908373ffffffffffffffffffffffffffffffffffffffff16021790555050565b600d6000848152602001908152602001600020600601600081548092919060010191905055506040518060600160405280600d600086815260200190815260200160002060060154815260200183815260200182815250600d60008581526020019081526020016000206005016000600d6000878152602001908152602001600020600601548152602001908152602001600020600082015181600001556020820151816001015560408201518160020155905050505050565b6001600b6000838152602001908152602001600020600b0160006101000a81548160ff0219169083600581111561220457fe5b02179055503373ffffffffffffffffffffffffffffffffffffffff166108fc600b6000848152602001908152602001600020600401549081150290604051600060405180830381858888f19350505050158015612265573d6000803e3d6000fd5b5050565b600b6020528060005260406000206000915090508060000154908060010160009054906101000a900473ffffffffffffffffffffffffffffffffffffffff16908060020160009054906101000a900473ffffffffffffffffffffffffffffffffffffffff16908060030160009054906101000a900473ffffffffffffffffffffffffffffffffffffffff1690806004015490806005015490806006015490806008015490806009018054600181600116156101000203166002900480601f0160208091040260200160405190810160405280929190818152602001828054600181600116156101000203166002900480156123a55780601f1061237a576101008083540402835291602001916123a5565b820191906000526020600020905b81548152906001019060200180831161238857829003601f168201915b50505050509080600a018054600181600116156101000203166002900480601f0160208091040260200160405190810160405280929190818152602001828054600181600116156101000203166002900480156124435780601f1061241857610100808354040283529160200191612443565b820191906000526020600020905b81548152906001019060200180831161242657829003601f168201915b50505050509080600b0160009054906101000a900460ff169080600b0160019054906101000a900460ff1690508c565b60065481565b8673ffffffffffffffffffffffffffffffffffffffff163373ffffffffffffffffffffffffffffffffffffffff16146124b157600080fd5b60056000815480929190600101919050555060405180610160016040528060055481526020013373ffffffffffffffffffffffffffffffffffffffff1681526020018781526020018681526020018581526020018481526020018381526020016000815260200182815260200160001515815260200160008152506004600060055481526020019081526020016000206000820151816000015560208201518160010160006101000a81548173ffffffffffffffffffffffffffffffffffffffff021916908373ffffffffffffffffffffffffffffffffffffffff16021790555060408201518160020190805190602001906125ae929190613ed9565b5060608201518160030190805190602001906125cb929190613ed9565b5060808201518160040190805190602001906125e8929190613ed9565b5060a0820151816005019080519060200190612605929190613ed9565b5060c0820151816006019080519060200190612622929190613ed9565b5060e0820151816007015561010082015181600801908051906020019061264a929190613ed9565b506101208201518160090160006101000a81548160ff02191690831515021790555061014082015181600b015590505050505050505050565b6009602052806000526040600020600091509050806000015490806001018054600181600116156101000203166002900480601f0160208091040260200160405190810160405280929190818152602001828054600181600116156101000203166002900480156127355780601f1061270a57610100808354040283529160200191612735565b820191906000526020600020905b81548152906001019060200180831161271857829003601f168201915b5050505050908060020154908060030160009054906101000a900473ffffffffffffffffffffffffffffffffffffffff16908060030160149054906101000a900460ff1690806004018054600181600116156101000203166002900480601f0160208091040260200160405190810160405280929190818152602001828054600181600116156101000203166002900480156128125780601f106127e757610100808354040283529160200191612812565b820191906000526020600020905b8154815290600101906020018083116127f557829003601f168201915b5050505050908060050154905087565b61282a61402a565b600d60008981526020019081526020016000206040518060c0016040529081600082015481526020016001820160009054906101000a900473ffffffffffffffffffffffffffffffffffffffff1673ffffffffffffffffffffffffffffffffffffffff1673ffffffffffffffffffffffffffffffffffffffff168152602001600282018054600181600116156101000203166002900480601f0160208091040260200160405190810160405280929190818152602001828054600181600116156101000203166002900480156129415780601f1061291657610100808354040283529160200191612941565b820191906000526020600020905b81548152906001019060200180831161292457829003601f168201915b50505050508152602001600382018054600181600116156101000203166002900480601f0160208091040260200160405190810160405280929190818152602001828054600181600116156101000203166002900480156129e35780601f106129b8576101008083540402835291602001916129e3565b820191906000526020600020905b8154815290600101906020018083116129c657829003601f168201915b50505050508152602001600482018054600181600116156101000203166002900480601f016020809104026020016040519081016040528092919081815260200182805460018160011615610100020316600290048015612a855780601f10612a5a57610100808354040283529160200191612a85565b820191906000526020600020905b815481529060010190602001808311612a6857829003601f168201915b505050505081526020016006820154815250509050600c600081548092919060010191905055506000600a60006101000a81548160ff02191690836005811115612acb57fe5b0217905550604051806101800160405280600c548152602001826020015173ffffffffffffffffffffffffffffffffffffffff1681526020018873ffffffffffffffffffffffffffffffffffffffff168152602001600073ffffffffffffffffffffffffffffffffffffffff1681526020018781526020018681526020018581526020018260a001518152602001848152602001838152602001600a60009054906101000a900460ff166005811115612b8057fe5b815260200160001515815250600b6000600c5481526020019081526020016000206000820151816000015560208201518160010160006101000a81548173ffffffffffffffffffffffffffffffffffffffff021916908373ffffffffffffffffffffffffffffffffffffffff16021790555060408201518160020160006101000a81548173ffffffffffffffffffffffffffffffffffffffff021916908373ffffffffffffffffffffffffffffffffffffffff16021790555060608201518160030160006101000a81548173ffffffffffffffffffffffffffffffffffffffff021916908373ffffffffffffffffffffffffffffffffffffffff1602179055506080820151816004015560a0820151816005015560c0820151816006015560e08201518160080155610100820151816009019080519060200190612cc5929190613ed9565b5061012082015181600a019080519060200190612ce3929190613ed9565b5061014082015181600b0160006101000a81548160ff02191690836005811115612d0957fe5b021790555061016082015181600b0160016101000a81548160ff0219169083151502179055509050506000600190505b8160a001518111612def57600080612d518b8461304d565b91509150604051806060016040528084815260200183815260200182815250600b6000600c5481526020019081526020016000206007016000858152602001908152602001600020600082015181600001556020820151816001015560408201518160020155905050600960008381526020019081526020016000206005016000815480929190600101919050555050508080600101915050612d39565b5083341015612dfd57600080fd5b612e0688613c61565b5050505050505050565b60015481565b600d6020528060005260406000206000915090508060000154908060010160009054906101000a900473ffffffffffffffffffffffffffffffffffffffff1690806002018054600181600116156101000203166002900480601f016020809104026020016040519081016040528092919081815260200182805460018160011615610100020316600290048015612eee5780601f10612ec357610100808354040283529160200191612eee565b820191906000526020600020905b815481529060010190602001808311612ed157829003601f168201915b505050505090806003018054600181600116156101000203166002900480601f016020809104026020016040519081016040528092919081815260200182805460018160011615610100020316600290048015612f8c5780601f10612f6157610100808354040283529160200191612f8c565b820191906000526020600020905b815481529060010190602001808311612f6f57829003601f168201915b505050505090806004018054600181600116156101000203166002900480601f01602080910402602001604051908101604052809291908181526020018280546001816001161561010002031660029004801561302a5780601f10612fff5761010080835404028352916020019161302a565b820191906000526020600020905b81548152906001019060200180831161300d57829003601f168201915b5050505050908060060154905086565b600a60009054906101000a900460ff1681565b6000806000600d60008681526020019081526020016000209050806005016000858152602001908152602001600020600101548160050160008681526020019081526020016000206002015492509250509250929050565b60008451116130b357600080fd5b600083116130c057600080fd5b6008600081548092919060010191905055506040518060e0016040528060085481526020018581526020018481526020013373ffffffffffffffffffffffffffffffffffffffff1681526020018315158152602001828152602001600081525060096000600854815260200190815260200160002060008201518160000155602082015181600101908051906020019061315b929190613ed9565b506040820151816002015560608201518160030160006101000a81548173ffffffffffffffffffffffffffffffffffffffff021916908373ffffffffffffffffffffffffffffffffffffffff16021790555060808201518160030160146101000a81548160ff02191690831515021790555060a08201518160040190805190602001906131e9929190613ed9565b5060c0820151816005015590505050505050565b60026020528060005260406000206000915090508060000154908060010160009054906101000a900473ffffffffffffffffffffffffffffffffffffffff1690806002018054600181600116156101000203166002900480601f0160208091040260200160405190810160405280929190818152602001828054600181600116156101000203166002900480156132d55780601f106132aa576101008083540402835291602001916132d5565b820191906000526020600020905b8154815290600101906020018083116132b857829003601f168201915b505050505090806003018054600181600116156101000203166002900480601f0160208091040260200160405190810160405280929190818152602001828054600181600116156101000203166002900480156133735780601f1061334857610100808354040283529160200191613373565b820191906000526020600020905b81548152906001019060200180831161335657829003601f168201915b505050505090806004018054600181600116156101000203166002900480601f0160208091040260200160405190810160405280929190818152602001828054600181600116156101000203166002900480156134115780601f106133e657610100808354040283529160200191613411565b820191906000526020600020905b8154815290600101906020018083116133f457829003601f168201915b505050505090806005018054600181600116156101000203166002900480601f0160208091040260200160405190810160405280929190818152602001828054600181600116156101000203166002900480156134af5780601f10613484576101008083540402835291602001916134af565b820191906000526020600020905b81548152906001019060200180831161349257829003601f168201915b505050505090806006015490806007015490806008018054600181600116156101000203166002900480601f0160208091040260200160405190810160405280929190818152602001828054600181600116156101000203166002900480156135595780601f1061352e57610100808354040283529160200191613559565b820191906000526020600020905b81548152906001019060200180831161353c57829003601f168201915b505050505090806009018054600181600116156101000203166002900480601f0160208091040260200160405190810160405280929190818152602001828054600181600116156101000203166002900480156135f75780601f106135cc576101008083540402835291602001916135f7565b820191906000526020600020905b8154815290600101906020018083116135da57829003601f168201915b50505050509080600a01549080600c015490508c565b6007602052806000526040600020600091509050806000015490806001018054600181600116156101000203166002900480601f0160208091040260200160405190810160405280929190818152602001828054600181600116156101000203166002900480156136bf5780601f10613694576101008083540402835291602001916136bf565b820191906000526020600020905b8154815290600101906020018083116136a257829003601f168201915b5050505050908060020154908060030154908060040154908060050160009054906101000a900473ffffffffffffffffffffffffffffffffffffffff16908060050160149054906101000a900460ff1690806006018054600181600116156101000203166002900480601f0160208091040260200160405190810160405280929190818152602001828054600181600116156101000203166002900480156137a85780601f1061377d576101008083540402835291602001916137a8565b820191906000526020600020905b81548152906001019060200180831161378b57829003601f168201915b5050505050905088565b6001600b6000898152602001908152602001600020600b0160016101000a81548160ff02191690831515021790555060046000878152602001908152602001600020600b01600081548092919060010191905055506040518060a0016040528060046000898152602001908152602001600020600b015481526020016004600089815260200190815260200160002060010160009054906101000a900473ffffffffffffffffffffffffffffffffffffffff1673ffffffffffffffffffffffffffffffffffffffff1681526020013373ffffffffffffffffffffffffffffffffffffffff1681526020018681526020018581525060046000888152602001908152602001600020600a016000600460008a8152602001908152602001600020600b015481526020019081526020016000206000820151816000015560208201518160010160006101000a81548173ffffffffffffffffffffffffffffffffffffffff021916908373ffffffffffffffffffffffffffffffffffffffff16021790555060408201518160020160006101000a81548173ffffffffffffffffffffffffffffffffffffffff021916908373ffffffffffffffffffffffffffffffffffffffff1602179055506060820151816003015560808201518160040190805190602001906139a1929190613ed9565b509050506000600460008881526020019081526020016000206007015486019050600060046000898152602001908152602001600020600b015482816139e357fe5b04905080600460008a815260200190815260200160002060070181905550600080868152602001908152602001600020600a01600081548092919060010191905055506040518060a00160405280600080888152602001908152602001600020600a0154815260200160008088815260200190815260200160002060010160009054906101000a900473ffffffffffffffffffffffffffffffffffffffff1673ffffffffffffffffffffffffffffffffffffffff1681526020013373ffffffffffffffffffffffffffffffffffffffff168152602001858152602001848152506000808781526020019081526020016000206009016000806000898152602001908152602001600020600a015481526020019081526020016000206000820151816000015560208201518160010160006101000a81548173ffffffffffffffffffffffffffffffffffffffff021916908373ffffffffffffffffffffffffffffffffffffffff16021790555060408201518160020160006101000a81548173ffffffffffffffffffffffffffffffffffffffff021916908373ffffffffffffffffffffffffffffffffffffffff160217905550606082015181600301556080820151816004019080519060200190613bbc929190613ed9565b50905050505050505050505050565b6004600082815260200190815260200160002060090160009054906101000a900460ff16156004600083815260200190815260200160002060090160006101000a81548160ff02191690831515021790555050565b60055481565b6003600b6000838152602001908152602001600020600b0160006101000a81548160ff02191690836005811115613c5957fe5b021790555050565b6000600d600083815260200190815260200160002090506000816006015490506000600190505b818111613ccc578260050160008281526020019081526020016000206000808201600090556001820160009055600282016000905550508080600101915050613c88565b5060008260060181905550505050565b84600260008881526020019081526020016000206005019080519060200190613d06929190613e59565b5083600260008881526020019081526020016000206006018190555082600260008881526020019081526020016000206007018190555081600260008881526020019081526020016000206008019080519060200190613d67929190613e59565b5080600260008881526020019081526020016000206009019080519060200190613d92929190613e59565b50505050505050565b6004600b6000848152602001908152602001600020600b0160006101000a81548160ff02191690836005811115613dce57fe5b02179055503373ffffffffffffffffffffffffffffffffffffffff166108fc600b6000858152602001908152602001600020600501549081150290604051600060405180830381858888f19350505050158015613e2f573d6000803e3d6000fd5b50600080828152602001908152602001600020600801600081548092919060010191905055505050565b828054600181600116156101000203166002900490600052602060002090601f016020900481019282601f10613e9a57805160ff1916838001178555613ec8565b82800160010185558215613ec8579182015b82811115613ec7578251825591602001919060010190613eac565b5b509050613ed59190614076565b5090565b828054600181600116156101000203166002900490600052602060002090601f016020900481019282601f10613f1a57805160ff1916838001178555613f48565b82800160010185558215613f48579182015b82811115613f47578251825591602001919060010190613f2c565b5b509050613f559190614076565b5090565b6040518060a0016040528060008152602001600073ffffffffffffffffffffffffffffffffffffffff168152602001600073ffffffffffffffffffffffffffffffffffffffff16815260200160008152602001606081525090565b6040518060e00160405280600081526020016060815260200160008152602001600073ffffffffffffffffffffffffffffffffffffffff16815260200160001515815260200160608152602001600081525090565b60405180606001604052806000815260200160008152602001600081525090565b6040518060c0016040528060008152602001600073ffffffffffffffffffffffffffffffffffffffff168152602001606081526020016060815260200160608152602001600081525090565b61409891905b8082111561409457600081600090555060010161407c565b5090565b90565b6000813590506140aa81615434565b92915050565b6000813590506140bf8161544b565b92915050565b6000813590506140d481615462565b92915050565b600082601f8301126140eb57600080fd5b81356140fe6140f9826152f2565b6152c5565b9150808252602083016020830185838301111561411a57600080fd5b6141258382846153d4565b50505092915050565b60008135905061413d81615479565b92915050565b6000806000806080858703121561415957600080fd5b60006141678782880161409b565b945050602085013567ffffffffffffffff81111561418457600080fd5b614190878288016140da565b935050604085013567ffffffffffffffff8111156141ad57600080fd5b6141b9878288016140da565b925050606085013567ffffffffffffffff8111156141d657600080fd5b6141e2878288016140da565b91505092959194509250565b600080600080600080600060e0888a03121561420957600080fd5b60006142178a828b0161409b565b975050602088013567ffffffffffffffff81111561423457600080fd5b6142408a828b016140da565b965050604088013567ffffffffffffffff81111561425d57600080fd5b6142698a828b016140da565b955050606088013567ffffffffffffffff81111561428657600080fd5b6142928a828b016140da565b945050608088013567ffffffffffffffff8111156142af57600080fd5b6142bb8a828b016140da565b93505060a088013567ffffffffffffffff8111156142d857600080fd5b6142e48a828b016140da565b92505060c088013567ffffffffffffffff81111561430157600080fd5b61430d8a828b016140da565b91505092959891949750929550565b60008060008060008060008060006101208a8c03121561433b57600080fd5b60006143498c828d0161409b565b99505060208a013567ffffffffffffffff81111561436657600080fd5b6143728c828d016140da565b98505060408a013567ffffffffffffffff81111561438f57600080fd5b61439b8c828d016140da565b97505060608a013567ffffffffffffffff8111156143b857600080fd5b6143c48c828d016140da565b96505060808a013567ffffffffffffffff8111156143e157600080fd5b6143ed8c828d016140da565b95505060a06143fe8c828d0161412e565b94505060c061440f8c828d0161412e565b93505060e08a013567ffffffffffffffff81111561442c57600080fd5b6144388c828d016140da565b9250506101008a013567ffffffffffffffff81111561445657600080fd5b6144628c828d016140da565b9150509295985092959850929598565b6000806000806080858703121561448857600080fd5b600085013567ffffffffffffffff8111156144a257600080fd5b6144ae878288016140da565b94505060206144bf8782880161412e565b93505060406144d0878288016140c5565b925050606085013567ffffffffffffffff8111156144ed57600080fd5b6144f9878288016140da565b91505092959194509250565b60008060008060008060c0878903121561451e57600080fd5b600087013567ffffffffffffffff81111561453857600080fd5b61454489828a016140da565b965050602061455589828a0161412e565b955050604061456689828a0161412e565b945050606061457789828a0161412e565b935050608061458889828a016140c5565b92505060a087013567ffffffffffffffff8111156145a557600080fd5b6145b189828a016140da565b9150509295509295509295565b6000602082840312156145d057600080fd5b60006145de8482850161412e565b91505092915050565b600080604083850312156145fa57600080fd5b60006146088582860161412e565b9250506020614619858286016140b0565b9150509250929050565b600080600080600080600060e0888a03121561463e57600080fd5b600061464c8a828b0161412e565b975050602061465d8a828b016140b0565b965050604061466e8a828b0161412e565b955050606061467f8a828b0161412e565b94505060806146908a828b0161412e565b93505060a088013567ffffffffffffffff8111156146ad57600080fd5b6146b98a828b016140da565b92505060c088013567ffffffffffffffff8111156146d657600080fd5b6146e28a828b016140da565b91505092959891949750929550565b60008060006060848603121561470657600080fd5b60006147148682870161412e565b935050602084013567ffffffffffffffff81111561473157600080fd5b61473d868287016140da565b925050604084013567ffffffffffffffff81111561475a57600080fd5b614766868287016140da565b9150509250925092565b600080600080600060a0868803121561478857600080fd5b60006147968882890161412e565b955050602086013567ffffffffffffffff8111156147b357600080fd5b6147bf888289016140da565b94505060406147d08882890161412e565b935050606086013567ffffffffffffffff8111156147ed57600080fd5b6147f9888289016140da565b925050608061480a888289016140c5565b9150509295509295909350565b60008060008060008060c0878903121561483057600080fd5b600061483e89828a0161412e565b965050602087013567ffffffffffffffff81111561485b57600080fd5b61486789828a016140da565b955050604061487889828a0161412e565b945050606061488989828a0161412e565b935050608087013567ffffffffffffffff8111156148a657600080fd5b6148b289828a016140da565b92505060a087013567ffffffffffffffff8111156148cf57600080fd5b6148db89828a016140da565b9150509295509295509295565b600080600080600080600060e0888a03121561490357600080fd5b60006149118a828b0161412e565b975050602088013567ffffffffffffffff81111561492e57600080fd5b61493a8a828b016140da565b965050604061494b8a828b0161412e565b955050606061495c8a828b0161412e565b945050608061496d8a828b0161412e565b93505060a088013567ffffffffffffffff81111561498a57600080fd5b6149968a828b016140da565b92505060c06149a78a828b016140c5565b91505092959891949750929550565b600080604083850312156149c957600080fd5b60006149d78582860161412e565b92505060206149e88582860161412e565b9150509250929050565b600080600060608486031215614a0757600080fd5b6000614a158682870161412e565b9350506020614a268682870161412e565b9250506040614a378682870161412e565b9150509250925092565b600080600080600080600060e0888a031215614a5c57600080fd5b6000614a6a8a828b0161412e565b9750506020614a7b8a828b0161412e565b9650506040614a8c8a828b0161412e565b955050606088013567ffffffffffffffff811115614aa957600080fd5b614ab58a828b016140da565b9450506080614ac68a828b0161412e565b93505060a0614ad78a828b0161412e565b92505060c088013567ffffffffffffffff811115614af457600080fd5b614b008a828b016140da565b91505092959891949750929550565b614b188161535d565b82525050565b614b278161535d565b82525050565b614b368161534b565b82525050565b614b458161534b565b82525050565b614b548161536f565b82525050565b614b638161536f565b82525050565b614b72816153c2565b82525050565b614b818161538e565b82525050565b6000614b928261531e565b614b9c8185615329565b9350614bac8185602086016153e3565b614bb581615416565b840191505092915050565b6000614bcb8261531e565b614bd5818561533a565b9350614be58185602086016153e3565b614bee81615416565b840191505092915050565b606082016000820151614c0f6000850182614d54565b506020820151614c226020850182614d54565b506040820151614c356040850182614d54565b50505050565b600060a083016000830151614c536000860182614d54565b506020830151614c666020860182614b2d565b506040830151614c796040860182614b2d565b506060830151614c8c6060860182614d54565b5060808301518482036080860152614ca48282614b87565b9150508091505092915050565b600060e083016000830151614cc96000860182614d54565b5060208301518482036020860152614ce18282614b87565b9150506040830151614cf66040860182614d54565b506060830151614d096060860182614b0f565b506080830151614d1c6080860182614b4b565b5060a083015184820360a0860152614d348282614b87565b91505060c0830151614d4960c0860182614d54565b508091505092915050565b614d5d816153b8565b82525050565b614d6c816153b8565b82525050565b6000602082019050614d876000830184614b69565b92915050565b60006020820190508181036000830152614da78184614c3b565b905092915050565b60006080820190508181036000830152614dc98185614cb1565b9050614dd86020830184614bf9565b9392505050565b6000602082019050614df46000830184614d63565b92915050565b600061018082019050614e10600083018f614d63565b614e1d602083018e614b3c565b614e2a604083018d614b3c565b614e37606083018c614b3c565b614e44608083018b614d63565b614e5160a083018a614d63565b614e5e60c0830189614d63565b614e6b60e0830188614d63565b818103610100830152614e7e8187614bc0565b9050818103610120830152614e938186614bc0565b9050614ea3610140830185614b69565b614eb1610160830184614b5a565b9d9c50505050505050505050505050565b600061012082019050614ed8600083018c614d63565b614ee5602083018b614b3c565b8181036040830152614ef7818a614bc0565b90508181036060830152614f0b8189614bc0565b90508181036080830152614f1f8188614bc0565b9050614f2e60a0830187614b78565b614f3b60c0830186614b5a565b614f4860e0830185614d63565b614f56610100830184614d63565b9a9950505050505050505050565b600061016082019050614f7a600083018e614d63565b614f87602083018d614b3c565b8181036040830152614f99818c614bc0565b90508181036060830152614fad818b614bc0565b90508181036080830152614fc1818a614bc0565b905081810360a0830152614fd58189614bc0565b905081810360c0830152614fe98188614bc0565b9050614ff860e0830187614d63565b81810361010083015261500b8186614bc0565b905061501b610120830185614b5a565b615029610140830184614d63565b9c9b505050505050505050505050565b60006101808201905061504f600083018f614d63565b61505c602083018e614b3c565b818103604083015261506e818d614bc0565b90508181036060830152615082818c614bc0565b90508181036080830152615096818b614bc0565b905081810360a08301526150aa818a614bc0565b90506150b960c0830189614d63565b6150c660e0830188614d63565b8181036101008301526150d98187614bc0565b90508181036101208301526150ee8186614bc0565b90506150fe610140830185614d63565b61510c610160830184614d63565b9d9c50505050505050505050505050565b600060c0820190506151326000830189614d63565b61513f6020830188614b3c565b81810360408301526151518187614bc0565b905081810360608301526151658186614bc0565b905081810360808301526151798185614bc0565b905061518860a0830184614d63565b979650505050505050565b600060e0820190506151a8600083018a614d63565b81810360208301526151ba8189614bc0565b90506151c96040830188614d63565b6151d66060830187614b1e565b6151e36080830186614b5a565b81810360a08301526151f58185614bc0565b905061520460c0830184614d63565b98975050505050505050565b600061010082019050615226600083018b614d63565b8181036020830152615238818a614bc0565b90506152476040830189614d63565b6152546060830188614d63565b6152616080830187614d63565b61526e60a0830186614b1e565b61527b60c0830185614b5a565b81810360e083015261528d8184614bc0565b90509998505050505050505050565b60006040820190506152b16000830185614d63565b6152be6020830184614d63565b9392505050565b6000604051905081810181811067ffffffffffffffff821117156152e857600080fd5b8060405250919050565b600067ffffffffffffffff82111561530957600080fd5b601f19601f8301169050602081019050919050565b600081519050919050565b600082825260208201905092915050565b600082825260208201905092915050565b600061535682615398565b9050919050565b600061536882615398565b9050919050565b60008115159050919050565b600081905061538982615427565b919050565b6000819050919050565b600073ffffffffffffffffffffffffffffffffffffffff82169050919050565b6000819050919050565b60006153cd8261537b565b9050919050565b82818337600083830152505050565b60005b838110156154015780820151818401526020810190506153e6565b83811115615410576000848401525b50505050565b6000601f19601f8301169050919050565b6006811061543157fe5b50565b61543d8161534b565b811461544857600080fd5b50565b6154548161535d565b811461545f57600080fd5b50565b61546b8161536f565b811461547657600080fd5b50565b615482816153b8565b811461548d57600080fd5b5056fea365627a7a7231582000f10ab15a12d4c7b5f1d58d029659f9e20735a3126134eb9f43f357a7d0e13b6c6578706572696d656e74616cf564736f6c63430005100040",
  "source": "// SPDX-License-Identifier: Blockchain\r\n\r\npragma solidity ^0.5.4;\r\n\r\npragma experimental ABIEncoderV2;\r\n\r\ncontract Marketplace {\r\n    //constructor\r\n    // constructor() public {}\r\n\r\n    // event LogRefund(\r\n    //     address indexed receiver,\r\n    //     uint256 amount,\r\n    //     address indexed owner\r\n    // );\r\n\r\n    //FOOD DELIVERY\r\n    struct FoodDelivery {\r\n        uint256 id;\r\n        address owner;\r\n        string name;\r\n        string email;\r\n        string phone;\r\n        int256 rating;\r\n        bool available;\r\n        mapping(uint256 => Order) ordersAccepted;\r\n        uint256 ordersAcceptedCount;\r\n        mapping(uint256 => Feedback) feedbacks;\r\n        uint256 feedbackCount;\r\n    }\r\n\r\n    // Read/write Food Delivery\r\n    mapping(uint256 => FoodDelivery) public foodDeliveries;\r\n    //Store Food Delivery Count\r\n    uint256 public foodDeliveriesCount;\r\n\r\n    //add new food delivery\r\n    function addFoodDelivery(\r\n        address _owner,\r\n        string memory _name,\r\n        string memory _email,\r\n        string memory _phone\r\n    ) public {\r\n        require(msg.sender == _owner);\r\n        // require(msg.sender == address(_owner));\r\n        foodDeliveriesCount++;\r\n        foodDeliveries[foodDeliveriesCount] = FoodDelivery(\r\n            foodDeliveriesCount,\r\n            msg.sender,\r\n            _name,\r\n            _email,\r\n            _phone,\r\n            5,\r\n            false,\r\n            0,\r\n            0\r\n        );\r\n    }\r\n\r\n    //SUPPLIER\r\n    struct Supplier {\r\n        uint256 id;\r\n        address owner;\r\n        string name;\r\n        string email;\r\n        string addressLocation;\r\n        string phone;\r\n        uint256 MOQ;\r\n        uint256 leadTime;\r\n        string deliveryDays;\r\n        string remarks;\r\n        uint256 avgRating;\r\n        mapping(uint256 => Feedback) feedbacks;\r\n        uint256 feedbackCount;\r\n    }\r\n\r\n    // Read/write Suppliers\r\n    mapping(uint256 => Supplier) public suppliers;\r\n    //Store Hawkers Count\r\n    uint256 public suppliersCount;\r\n\r\n    function addSupplier(\r\n        address _owner,\r\n        string memory _name,\r\n        string memory _email,\r\n        string memory _addressLocation,\r\n        string memory _phone,\r\n        uint256 _moq,\r\n        uint256 _leadTime,\r\n        string memory _deliveryDays,\r\n        string memory _remarks\r\n    ) public {\r\n        require(msg.sender == _owner);\r\n        // require(msg.sender == address(_owner));\r\n        suppliersCount++;\r\n        suppliers[suppliersCount] = Supplier(\r\n            suppliersCount,\r\n            msg.sender,\r\n            _name,\r\n            _email,\r\n            _addressLocation,\r\n            _phone,\r\n            _moq,\r\n            _leadTime,\r\n            _deliveryDays,\r\n            _remarks,\r\n            0,\r\n            0\r\n        );\r\n    }\r\n\r\n    //HAWKER\r\n    struct Hawker {\r\n        uint256 id;\r\n        address owner;\r\n        string name;\r\n        string addressLocation;\r\n        string emailAddress;\r\n        string phone;\r\n        string openingHours;\r\n        uint256 avgRating;\r\n        string licenseHash;\r\n        bool open;\r\n        mapping(uint256 => Feedback) feedbacks;\r\n        uint256 feedbackCount;\r\n    }\r\n\r\n    // Read/write Hawkers\r\n    mapping(uint256 => Hawker) public hawkers;\r\n    //Store Hawkers Count\r\n    uint256 public hawkersCount;\r\n\r\n    //FEEDBACK\r\n    struct Feedback {\r\n        uint256 id;\r\n        address seller;\r\n        address customer;\r\n        uint256 rate;\r\n        string comment;\r\n    }\r\n\r\n    function addHawker(\r\n        address _owner,\r\n        string memory _name,\r\n        string memory _addressLocation,\r\n        string memory _emailAddress,\r\n        string memory _phone,\r\n        string memory _openingHours,\r\n        string memory _licenseHash\r\n    ) public {\r\n        require(msg.sender == _owner);\r\n        // require(msg.sender == address(_owner));\r\n        hawkersCount++;\r\n        hawkers[hawkersCount] = Hawker(\r\n            hawkersCount,\r\n            msg.sender,\r\n            _name,\r\n            _addressLocation,\r\n            _emailAddress,\r\n            _phone,\r\n            _openingHours,\r\n            0,\r\n            _licenseHash,\r\n            false,\r\n            0\r\n        );\r\n    }\r\n\r\n    function editHawkerProfile(\r\n        uint256 _id,\r\n        string memory _phone,\r\n        string memory _OH\r\n    ) public {\r\n        hawkers[_id].phone = _phone;\r\n        hawkers[_id].openingHours = _OH;\r\n    }\r\n\r\n    //change shop status\r\n    function boolOpen(uint256 _id) public {\r\n        hawkers[_id].open = !(hawkers[_id].open);\r\n    }\r\n\r\n    //change food delivery status\r\n    function boolWork(uint256 _id) public {\r\n        foodDeliveries[_id].available = !(foodDeliveries[_id].available);\r\n    }\r\n\r\n    //SUPPLIER\r\n    uint256 public suppProdCount = 0;\r\n    mapping(uint256 => SuppProduct) public suppProducts;\r\n    struct SuppProduct {\r\n        uint256 id;\r\n        string name;\r\n        uint256 price;\r\n        uint256 size;\r\n        uint256 minOrder;\r\n        address payable owner;\r\n        bool published;\r\n        string imageHash;\r\n    }\r\n    struct SuppProfile {\r\n        uint256 id;\r\n        string name;\r\n        string category;\r\n        string location;\r\n        string deliveryHours;\r\n        address payable owner;\r\n        string reviews;\r\n        uint256 rating;\r\n    }\r\n\r\n    //Restaurants products\r\n    uint256 public restProdCount = 0;\r\n    mapping(uint256 => RestProduct) public restProducts;\r\n    struct RestProduct {\r\n        uint256 id;\r\n        string name;\r\n        uint256 price;\r\n        address payable owner;\r\n        bool published;\r\n        string imageHash;\r\n        uint256 soldCount;\r\n    }\r\n\r\n    struct RestProfile {\r\n        uint256 id;\r\n        string name;\r\n        string category;\r\n        string location;\r\n        string deliveryHours;\r\n        address payable owner;\r\n        string reviews;\r\n        uint256 rating;\r\n    }\r\n\r\n    // event RestProdCreated(\r\n    //     uint256 indexed id,\r\n    //     uint256 indexed date,\r\n    //     string name,\r\n    //     uint256 price,\r\n    //     address payable indexed owner,\r\n    //     bool purchased,\r\n    //     string imageHash\r\n    // );\r\n\r\n    // event SupplierProdCreated(\r\n    //     uint256 indexed id,\r\n    //     uint256 indexed date,\r\n    //     string name,\r\n    //     uint256 price,\r\n    //     address payable indexed owner,\r\n    //     bool purchased,\r\n    //     string imageHash\r\n    // );\r\n\r\n    function createSuppProduct(\r\n        string memory _name,\r\n        uint256 _price,\r\n        uint256 _size,\r\n        uint256 _minOrder,\r\n        bool _published,\r\n        string memory _imageHash\r\n    ) public {\r\n        // Require a valid name\r\n        require(bytes(_name).length > 0);\r\n        // Require a valid price\r\n        require(_price > 0);\r\n        // Increment product count\r\n        suppProdCount++;\r\n        // Create the product --- msg.sender is the one who accessed the function\r\n        suppProducts[suppProdCount] = SuppProduct(\r\n            suppProdCount,\r\n            _name,\r\n            _price,\r\n            _size,\r\n            _minOrder,\r\n            msg.sender,\r\n            _published,\r\n            _imageHash\r\n        );\r\n        //trigger an event\r\n        // emit SupplierProdCreated(\r\n        //     suppProdCount,\r\n        //     now,\r\n        //     _name,\r\n        //     _price,\r\n        //     msg.sender,\r\n        //     _published,\r\n        //     _imageHash\r\n        // );\r\n    }\r\n\r\n    function createRestProduct(\r\n        string memory _name,\r\n        uint256 _price,\r\n        bool _published,\r\n        string memory _imageHash\r\n    ) public {\r\n        // Require a valid name\r\n        require(bytes(_name).length > 0);\r\n        // Require a valid price\r\n        require(_price > 0);\r\n        // Increment product count\r\n        restProdCount++;\r\n        // Create the product --- msg.sender is the one who accessed the function\r\n        restProducts[restProdCount] = RestProduct(\r\n            restProdCount,\r\n            _name,\r\n            _price,\r\n            msg.sender,\r\n            _published,\r\n            _imageHash,\r\n            0\r\n        );\r\n        // Trigger an event\r\n        // emit RestProdCreated(\r\n        //     restProdCount,\r\n        //     now,\r\n        //     _name,\r\n        //     _price,\r\n        //     msg.sender,\r\n        //     _published,\r\n        //     _imageHash\r\n        // );\r\n    }\r\n\r\n    //ORDERS\r\n    enum Status {\r\n        OrderPlaced,\r\n        OrderConfirm,\r\n        RiderConfirm,\r\n        OrderCollected,\r\n        OrderCompleted,\r\n        OrderCancelled\r\n    }\r\n    Status public state;\r\n\r\n    struct Order {\r\n        uint256 id;\r\n        address owner;\r\n        address seller;\r\n        address rider;\r\n        uint256 hawkerPayment;\r\n        uint256 riderPayment;\r\n        uint256 totalPrice;\r\n        mapping(uint256 => CartItem) purchasedItemId;\r\n        uint256 purchasedItemCount;\r\n        string date;\r\n        string time;\r\n        Status state;\r\n        bool rated;\r\n    }\r\n\r\n    mapping(uint256 => Order) public orders;\r\n    uint256 public ordersCount;\r\n\r\n    struct CartItem {\r\n        uint256 id;\r\n        uint256 productId;\r\n        uint256 productQty;\r\n    }\r\n\r\n    //CUSTOMER\r\n    struct Customer {\r\n        uint256 id;\r\n        address owner;\r\n        string name;\r\n        string addressLocation;\r\n        string phone;\r\n        mapping(uint256 => CartItem) cartItems;\r\n        uint256 itemCount;\r\n    }\r\n\r\n    mapping(uint256 => Customer) public customers;\r\n    uint256 public customersCount;\r\n\r\n    function addCustomer(\r\n        address _owner,\r\n        string memory _name,\r\n        string memory _addressLocation,\r\n        string memory _phone\r\n    ) public {\r\n        require(msg.sender == _owner);\r\n        // require(msg.sender == address(_owner));\r\n        customersCount++;\r\n        customers[customersCount] = Customer(\r\n            customersCount,\r\n            msg.sender,\r\n            _name,\r\n            _addressLocation,\r\n            _phone,\r\n            0\r\n        );\r\n    }\r\n\r\n    function editCustProfile(\r\n        uint256 _id,\r\n        string memory _phone,\r\n        string memory _address\r\n    ) public {\r\n        customers[_id].phone = _phone;\r\n        customers[_id].addressLocation = _address;\r\n    }\r\n\r\n    function editSupplierProfile(\r\n        uint256 _id,\r\n        string memory _phone,\r\n        uint256 _moq,\r\n        uint256 _leadTime,\r\n        string memory _deliveryDays,\r\n        string memory _remarks\r\n    ) public {\r\n        suppliers[_id].phone = _phone;\r\n        suppliers[_id].MOQ = _moq;\r\n        suppliers[_id].leadTime = _leadTime;\r\n        suppliers[_id].deliveryDays = _deliveryDays;\r\n        suppliers[_id].remarks = _remarks;\r\n    }\r\n\r\n    function editProduct(\r\n        uint256 _productId,\r\n        string memory _name,\r\n        uint256 _price,\r\n        string memory _imageHash,\r\n        bool _published\r\n    ) public {\r\n        restProducts[_productId].name = _name;\r\n        restProducts[_productId].price = _price;\r\n        restProducts[_productId].imageHash = _imageHash;\r\n        restProducts[_productId].published = _published;\r\n    }\r\n\r\n    function editSuppProduct(\r\n        uint256 _productId,\r\n        string memory _name,\r\n        uint256 _price,\r\n        uint256 _size,\r\n        uint256 _minOrder,\r\n        string memory _imageHash,\r\n        bool _published\r\n    ) public {\r\n        suppProducts[_productId].name = _name;\r\n        suppProducts[_productId].price = _price;\r\n        suppProducts[_productId].size = _size;\r\n        suppProducts[_productId].minOrder = _minOrder;\r\n        suppProducts[_productId].imageHash = _imageHash;\r\n        suppProducts[_productId].published = _published;\r\n    }\r\n\r\n    function addToCart(\r\n        uint256 _custId,\r\n        uint256 _prodId,\r\n        uint256 _prodQty\r\n    ) public {\r\n        (customers[_custId].itemCount)++;\r\n        customers[_custId].cartItems[customers[_custId].itemCount] = CartItem(\r\n            customers[_custId].itemCount,\r\n            _prodId,\r\n            _prodQty\r\n        );\r\n    }\r\n\r\n    function removeProdCart(uint256 custId, uint256 cartId) public {\r\n        Customer storage cust = customers[custId];\r\n        (cust.itemCount)--;\r\n        delete cust.cartItems[cartId];\r\n    }\r\n\r\n    // function deleteProduct(uint256 productId) public {\r\n    //     restProdCount--;\r\n    //     delete restProducts[productId];\r\n    // }\r\n\r\n    function removeAllProdCart(uint256 custId) public {\r\n        Customer storage cust = customers[custId];\r\n        uint256 _itemCount = cust.itemCount;\r\n        for (uint256 i = 1; i <= _itemCount; i++) {\r\n            delete cust.cartItems[i];\r\n        }\r\n        (cust.itemCount) = 0;\r\n    }\r\n\r\n    function getCartProduct(uint256 custId, uint256 cartId)\r\n        public\r\n        returns (uint256, uint256)\r\n    {\r\n        Customer storage cust = customers[custId];\r\n        return (\r\n            cust.cartItems[cartId].productId,\r\n            cust.cartItems[cartId].productQty\r\n        );\r\n    }\r\n\r\n    function getOrderProduct(uint256 orderId, uint256 cartId)\r\n        public\r\n        returns (RestProduct memory, CartItem memory)\r\n    {\r\n        Order storage ord = orders[orderId];\r\n        uint256 prodId = ord.purchasedItemId[cartId].productId;\r\n        RestProduct memory _product = restProducts[prodId];\r\n        CartItem memory _cart = ord.purchasedItemId[cartId];\r\n        return (_product, _cart);\r\n    }\r\n\r\n    function getHawkerFeedback(uint256 hawkerId, uint256 feedbackCount)\r\n        public\r\n        returns (Feedback memory)\r\n    {\r\n        Hawker storage hawker = hawkers[hawkerId];\r\n        Feedback memory _feedback = hawker.feedbacks[feedbackCount];\r\n        return (_feedback);\r\n    }\r\n\r\n    function getFdFeedback(uint256 fdId, uint256 feedbackCount)\r\n        public\r\n        returns (Feedback memory)\r\n    {\r\n        FoodDelivery storage fd = foodDeliveries[fdId];\r\n        Feedback memory _feedback = fd.feedbacks[feedbackCount];\r\n        return (_feedback);\r\n    }\r\n\r\n    function setRating(\r\n        uint256 _orderId,\r\n        uint256 _hawkerId,\r\n        uint256 _hawkerRate,\r\n        string memory _hawkerComment,\r\n        uint256 _foodDeliveryId,\r\n        uint256 _fdRate,\r\n        string memory _fdComment\r\n    ) public {\r\n        orders[_orderId].rated = true;\r\n\r\n        //set hawker feedback\r\n        (hawkers[_hawkerId].feedbackCount)++;\r\n        hawkers[_hawkerId].feedbacks[\r\n            hawkers[_hawkerId].feedbackCount\r\n        ] = Feedback(\r\n            hawkers[_hawkerId].feedbackCount,\r\n            hawkers[_hawkerId].owner,\r\n            msg.sender,\r\n            _hawkerRate,\r\n            _hawkerComment\r\n        );\r\n        uint256 total = _hawkerRate + hawkers[_hawkerId].avgRating;\r\n        uint256 avg = total / (hawkers[_hawkerId].feedbackCount);\r\n        hawkers[_hawkerId].avgRating = avg;\r\n\r\n        //set fd feedback\r\n        (foodDeliveries[_foodDeliveryId].feedbackCount)++;\r\n        foodDeliveries[_foodDeliveryId].feedbacks[\r\n            foodDeliveries[_foodDeliveryId].feedbackCount\r\n        ] = Feedback(\r\n            foodDeliveries[_foodDeliveryId].feedbackCount,\r\n            foodDeliveries[_foodDeliveryId].owner,\r\n            msg.sender,\r\n            _fdRate,\r\n            _fdComment\r\n        );\r\n    }\r\n\r\n    function cancelOrder(uint256 _orderId, address payable _customer)\r\n        public\r\n        payable\r\n    {\r\n        orders[_orderId].state = Status.OrderCancelled;\r\n        address(_customer).transfer(orders[_orderId].totalPrice);\r\n    }\r\n\r\n    // event HawkerProdPurchased(\r\n    //     uint256 orderId,\r\n    //     address indexed buyer,\r\n    //     address indexed seller,\r\n    //     uint256 totalCost,\r\n    //     uint256 indexed date\r\n    // );\r\n\r\n    function purchaseProduct(\r\n        uint256 _custId,\r\n        address payable _seller,\r\n        uint256 _hawkerPayment,\r\n        uint256 _riderPayment,\r\n        uint256 _totalCost,\r\n        string memory _date,\r\n        string memory _time\r\n    ) public payable {\r\n        Customer memory cust = customers[_custId];\r\n        // Increment order count\r\n        ordersCount++;\r\n        // Create the enum\r\n        state = Status.OrderPlaced;\r\n\r\n        // Create the order\r\n        orders[ordersCount] = Order(\r\n            ordersCount,\r\n            cust.owner,\r\n            _seller,\r\n            address(0),\r\n            _hawkerPayment,\r\n            _riderPayment,\r\n            _totalCost,\r\n            cust.itemCount,\r\n            _date,\r\n            _time,\r\n            state,\r\n            false\r\n        );\r\n\r\n        //add the items in cartItems(Customer structure) to purchasedItemId (Order structure)\r\n        for (uint256 i = 1; i <= cust.itemCount; i++) {\r\n            (uint256 item, uint256 qty) = getCartProduct(_custId, i);\r\n            orders[ordersCount].purchasedItemId[i] = CartItem(i, item, qty);\r\n\r\n            restProducts[item].soldCount++;\r\n        }\r\n\r\n        //Require that there is enough Ether in the transaction\r\n        require(msg.value >= _totalCost);\r\n\r\n        //remove the CartItem in the Customer id\r\n        removeAllProdCart(_custId);\r\n\r\n        // //Trigger an event\r\n        // emit HawkerProdPurchased(\r\n        //     ordersCount,\r\n        //     cust.owner,\r\n        //     _seller,\r\n        //     _totalCost,\r\n        //     now\r\n        // );\r\n    }\r\n\r\n    //hawker confirms order transaction made by customer\r\n    function hawkerConfirmOrder(uint256 _orderId) public {\r\n        orders[_orderId].state = Status.OrderConfirm;\r\n        //Pay the hawker\r\n        address(msg.sender).transfer(orders[_orderId].hawkerPayment);\r\n    }\r\n\r\n    //food delivery accepts order delivery\r\n    function fdAcceptOrder(uint256 _orderId) public {\r\n        //set orderId state to DriverConfirm\r\n        orders[_orderId].state = Status.RiderConfirm;\r\n        orders[_orderId].rider = msg.sender;\r\n    }\r\n\r\n    //food delivery collected order\r\n    function fdCollectedOrder(uint256 _orderId) public {\r\n        //set orderId state to OrderCompleted\r\n        orders[_orderId].state = Status.OrderCollected;\r\n    }\r\n\r\n    //food delivery completes order delivery\r\n    function fdCompleteOrder(uint256 _orderId, uint256 _fdId) public payable {\r\n        //set orderId state to OrderCompleted\r\n        orders[_orderId].state = Status.OrderCompleted;\r\n        //Pay the rider after completion\r\n        address(msg.sender).transfer(orders[_orderId].riderPayment);\r\n        (foodDeliveries[_fdId].ordersAcceptedCount)++;\r\n    }\r\n}\r\n",
  "sourcePath": "C:/Users/Casuarina/Desktop/FYP_FoodIndustry/blockchain/src/contracts/Marketplace.sol",
  "compiler": {
    "name": "solc",
    "version": "0.5.16+commit.9c3226ce.Emscripten.clang"
  },
  "schemaVersion": "3.4.1",
  "updatedAt": "2021-08-01T07:15:39.009Z",
  "networkType": "ethereum",
  "devdoc": {
    "methods": {}
  },
  "userdoc": {
    "methods": {}
  }
}