{
  "contractName": "Marketplace",
  "abi": [
    {
      "constant": true,
      "inputs": [
        {
          "internalType": "uint256",
          "name": "",
          "type": "uint256"
        }
      ],
      "name": "customers",
      "outputs": [
        {
          "internalType": "uint256",
          "name": "id",
          "type": "uint256"
        },
        {
          "internalType": "address",
          "name": "owner",
          "type": "address"
        },
        {
          "internalType": "string",
          "name": "name",
          "type": "string"
        },
        {
          "internalType": "string",
          "name": "addressLocation",
          "type": "string"
        },
        {
          "internalType": "string",
          "name": "phone",
          "type": "string"
        },
        {
          "internalType": "uint256",
          "name": "itemCount",
          "type": "uint256"
        }
      ],
      "payable": false,
      "stateMutability": "view",
      "type": "function"
    },
    {
      "constant": true,
      "inputs": [],
      "name": "customersCount",
      "outputs": [
        {
          "internalType": "uint256",
          "name": "",
          "type": "uint256"
        }
      ],
      "payable": false,
      "stateMutability": "view",
      "type": "function"
    },
    {
      "constant": true,
      "inputs": [
        {
          "internalType": "uint256",
          "name": "",
          "type": "uint256"
        }
      ],
      "name": "foodDeliveries",
      "outputs": [
        {
          "internalType": "uint256",
          "name": "id",
          "type": "uint256"
        },
        {
          "internalType": "address",
          "name": "owner",
          "type": "address"
        },
        {
          "internalType": "string",
          "name": "name",
          "type": "string"
        },
        {
          "internalType": "string",
          "name": "email",
          "type": "string"
        },
        {
          "internalType": "string",
          "name": "phone",
          "type": "string"
        },
        {
          "internalType": "int256",
          "name": "rating",
          "type": "int256"
        },
        {
          "internalType": "bool",
          "name": "available",
          "type": "bool"
        },
        {
          "internalType": "uint256",
          "name": "ordersAcceptedCount",
          "type": "uint256"
        },
        {
          "internalType": "uint256",
          "name": "feedbackCount",
          "type": "uint256"
        }
      ],
      "payable": false,
      "stateMutability": "view",
      "type": "function"
    },
    {
      "constant": true,
      "inputs": [],
      "name": "foodDeliveriesCount",
      "outputs": [
        {
          "internalType": "uint256",
          "name": "",
          "type": "uint256"
        }
      ],
      "payable": false,
      "stateMutability": "view",
      "type": "function"
    },
    {
      "constant": true,
      "inputs": [
        {
          "internalType": "uint256",
          "name": "",
          "type": "uint256"
        }
      ],
      "name": "hawkers",
      "outputs": [
        {
          "internalType": "uint256",
          "name": "id",
          "type": "uint256"
        },
        {
          "internalType": "address",
          "name": "owner",
          "type": "address"
        },
        {
          "internalType": "string",
          "name": "name",
          "type": "string"
        },
        {
          "internalType": "string",
          "name": "addressLocation",
          "type": "string"
        },
        {
          "internalType": "string",
          "name": "phone",
          "type": "string"
        },
        {
          "internalType": "string",
          "name": "openingHours",
          "type": "string"
        },
        {
          "internalType": "uint256",
          "name": "leadTime",
          "type": "uint256"
        },
        {
          "internalType": "uint256",
          "name": "avgRating",
          "type": "uint256"
        },
        {
          "internalType": "string",
          "name": "licenseHash",
          "type": "string"
        },
        {
          "internalType": "bool",
          "name": "open",
          "type": "bool"
        },
        {
          "internalType": "uint256",
          "name": "feedbackCount",
          "type": "uint256"
        },
        {
          "internalType": "uint256",
          "name": "itemCount",
          "type": "uint256"
        }
      ],
      "payable": false,
      "stateMutability": "view",
      "type": "function"
    },
    {
      "constant": true,
      "inputs": [],
      "name": "hawkersCount",
      "outputs": [
        {
          "internalType": "uint256",
          "name": "",
          "type": "uint256"
        }
      ],
      "payable": false,
      "stateMutability": "view",
      "type": "function"
    },
    {
      "constant": true,
      "inputs": [
        {
          "internalType": "uint256",
          "name": "",
          "type": "uint256"
        }
      ],
      "name": "orders",
      "outputs": [
        {
          "internalType": "uint256",
          "name": "id",
          "type": "uint256"
        },
        {
          "internalType": "address",
          "name": "owner",
          "type": "address"
        },
        {
          "internalType": "address",
          "name": "seller",
          "type": "address"
        },
        {
          "internalType": "address",
          "name": "rider",
          "type": "address"
        },
        {
          "internalType": "uint256",
          "name": "hawkerPayment",
          "type": "uint256"
        },
        {
          "internalType": "uint256",
          "name": "riderPayment",
          "type": "uint256"
        },
        {
          "internalType": "uint256",
          "name": "totalPrice",
          "type": "uint256"
        },
        {
          "internalType": "uint256",
          "name": "purchasedItemCount",
          "type": "uint256"
        },
        {
          "internalType": "string",
          "name": "dateTime",
          "type": "string"
        },
        {
          "internalType": "string",
          "name": "deliveryDateTime",
          "type": "string"
        },
        {
          "internalType": "enum Marketplace.Status",
          "name": "state",
          "type": "uint8"
        },
        {
          "internalType": "bool",
          "name": "rated",
          "type": "bool"
        }
      ],
      "payable": false,
      "stateMutability": "view",
      "type": "function"
    },
    {
      "constant": true,
      "inputs": [],
      "name": "ordersCount",
      "outputs": [
        {
          "internalType": "uint256",
          "name": "",
          "type": "uint256"
        }
      ],
      "payable": false,
      "stateMutability": "view",
      "type": "function"
    },
    {
      "constant": true,
      "inputs": [],
      "name": "restProdCount",
      "outputs": [
        {
          "internalType": "uint256",
          "name": "",
          "type": "uint256"
        }
      ],
      "payable": false,
      "stateMutability": "view",
      "type": "function"
    },
    {
      "constant": true,
      "inputs": [
        {
          "internalType": "uint256",
          "name": "",
          "type": "uint256"
        }
      ],
      "name": "restProducts",
      "outputs": [
        {
          "internalType": "uint256",
          "name": "id",
          "type": "uint256"
        },
        {
          "internalType": "string",
          "name": "name",
          "type": "string"
        },
        {
          "internalType": "uint256",
          "name": "price",
          "type": "uint256"
        },
        {
          "internalType": "address payable",
          "name": "owner",
          "type": "address"
        },
        {
          "internalType": "bool",
          "name": "published",
          "type": "bool"
        },
        {
          "internalType": "string",
          "name": "imageHash",
          "type": "string"
        },
        {
          "internalType": "uint256",
          "name": "soldCount",
          "type": "uint256"
        }
      ],
      "payable": false,
      "stateMutability": "view",
      "type": "function"
    },
    {
      "constant": true,
      "inputs": [],
      "name": "state",
      "outputs": [
        {
          "internalType": "enum Marketplace.Status",
          "name": "",
          "type": "uint8"
        }
      ],
      "payable": false,
      "stateMutability": "view",
      "type": "function"
    },
    {
      "constant": true,
      "inputs": [],
      "name": "suppProdCount",
      "outputs": [
        {
          "internalType": "uint256",
          "name": "",
          "type": "uint256"
        }
      ],
      "payable": false,
      "stateMutability": "view",
      "type": "function"
    },
    {
      "constant": true,
      "inputs": [
        {
          "internalType": "uint256",
          "name": "",
          "type": "uint256"
        }
      ],
      "name": "suppProducts",
      "outputs": [
        {
          "internalType": "uint256",
          "name": "id",
          "type": "uint256"
        },
        {
          "internalType": "string",
          "name": "name",
          "type": "string"
        },
        {
          "internalType": "uint256",
          "name": "price",
          "type": "uint256"
        },
        {
          "internalType": "uint256",
          "name": "size",
          "type": "uint256"
        },
        {
          "internalType": "uint256",
          "name": "minOrder",
          "type": "uint256"
        },
        {
          "internalType": "address payable",
          "name": "owner",
          "type": "address"
        },
        {
          "internalType": "bool",
          "name": "published",
          "type": "bool"
        },
        {
          "internalType": "string",
          "name": "imageHash",
          "type": "string"
        }
      ],
      "payable": false,
      "stateMutability": "view",
      "type": "function"
    },
    {
      "constant": true,
      "inputs": [
        {
          "internalType": "uint256",
          "name": "",
          "type": "uint256"
        }
      ],
      "name": "suppliers",
      "outputs": [
        {
          "internalType": "uint256",
          "name": "id",
          "type": "uint256"
        },
        {
          "internalType": "address",
          "name": "owner",
          "type": "address"
        },
        {
          "internalType": "string",
          "name": "name",
          "type": "string"
        },
        {
          "internalType": "string",
          "name": "addressLocation",
          "type": "string"
        },
        {
          "internalType": "string",
          "name": "phone",
          "type": "string"
        },
        {
          "internalType": "uint256",
          "name": "MOQ",
          "type": "uint256"
        },
        {
          "internalType": "uint256",
          "name": "leadTime",
          "type": "uint256"
        },
        {
          "internalType": "string",
          "name": "deliveryDays",
          "type": "string"
        },
        {
          "internalType": "string",
          "name": "remarks",
          "type": "string"
        },
        {
          "internalType": "uint256",
          "name": "avgRating",
          "type": "uint256"
        },
        {
          "internalType": "uint256",
          "name": "feedbackCount",
          "type": "uint256"
        }
      ],
      "payable": false,
      "stateMutability": "view",
      "type": "function"
    },
    {
      "constant": true,
      "inputs": [],
      "name": "suppliersCount",
      "outputs": [
        {
          "internalType": "uint256",
          "name": "",
          "type": "uint256"
        }
      ],
      "payable": false,
      "stateMutability": "view",
      "type": "function"
    },
    {
      "constant": false,
      "inputs": [
        {
          "internalType": "address",
          "name": "_owner",
          "type": "address"
        },
        {
          "internalType": "string",
          "name": "_name",
          "type": "string"
        },
        {
          "internalType": "string",
          "name": "_email",
          "type": "string"
        },
        {
          "internalType": "string",
          "name": "_phone",
          "type": "string"
        }
      ],
      "name": "addFoodDelivery",
      "outputs": [],
      "payable": false,
      "stateMutability": "nonpayable",
      "type": "function"
    },
    {
      "constant": false,
      "inputs": [
        {
          "internalType": "address",
          "name": "_owner",
          "type": "address"
        },
        {
          "internalType": "string",
          "name": "_name",
          "type": "string"
        },
        {
          "internalType": "string",
          "name": "_addressLocation",
          "type": "string"
        },
        {
          "internalType": "string",
          "name": "_phone",
          "type": "string"
        },
        {
          "internalType": "uint256",
          "name": "_moq",
          "type": "uint256"
        },
        {
          "internalType": "uint256",
          "name": "_leadTime",
          "type": "uint256"
        },
        {
          "internalType": "string",
          "name": "_deliveryDays",
          "type": "string"
        },
        {
          "internalType": "string",
          "name": "_remarks",
          "type": "string"
        }
      ],
      "name": "addSupplier",
      "outputs": [],
      "payable": false,
      "stateMutability": "nonpayable",
      "type": "function"
    },
    {
      "constant": false,
      "inputs": [
        {
          "internalType": "address",
          "name": "_owner",
          "type": "address"
        },
        {
          "internalType": "string",
          "name": "_name",
          "type": "string"
        },
        {
          "internalType": "string",
          "name": "_addressLocation",
          "type": "string"
        },
        {
          "internalType": "string",
          "name": "_phone",
          "type": "string"
        },
        {
          "internalType": "string",
          "name": "_openingHours",
          "type": "string"
        },
        {
          "internalType": "uint256",
          "name": "_leadTime",
          "type": "uint256"
        },
        {
          "internalType": "string",
          "name": "_licenseHash",
          "type": "string"
        }
      ],
      "name": "addHawker",
      "outputs": [],
      "payable": false,
      "stateMutability": "nonpayable",
      "type": "function"
    },
    {
      "constant": false,
      "inputs": [
        {
          "internalType": "uint256",
          "name": "_id",
          "type": "uint256"
        },
        {
          "internalType": "string",
          "name": "_phone",
          "type": "string"
        },
        {
          "internalType": "string",
          "name": "_OH",
          "type": "string"
        },
        {
          "internalType": "uint256",
          "name": "_leadTime",
          "type": "uint256"
        }
      ],
      "name": "editHawkerProfile",
      "outputs": [],
      "payable": false,
      "stateMutability": "nonpayable",
      "type": "function"
    },
    {
      "constant": false,
      "inputs": [
        {
          "internalType": "uint256",
          "name": "_id",
          "type": "uint256"
        }
      ],
      "name": "boolOpen",
      "outputs": [],
      "payable": false,
      "stateMutability": "nonpayable",
      "type": "function"
    },
    {
      "constant": false,
      "inputs": [
        {
          "internalType": "uint256",
          "name": "_id",
          "type": "uint256"
        }
      ],
      "name": "boolWork",
      "outputs": [],
      "payable": false,
      "stateMutability": "nonpayable",
      "type": "function"
    },
    {
      "constant": false,
      "inputs": [
        {
          "internalType": "string",
          "name": "_name",
          "type": "string"
        },
        {
          "internalType": "uint256",
          "name": "_price",
          "type": "uint256"
        },
        {
          "internalType": "uint256",
          "name": "_size",
          "type": "uint256"
        },
        {
          "internalType": "uint256",
          "name": "_minOrder",
          "type": "uint256"
        },
        {
          "internalType": "bool",
          "name": "_published",
          "type": "bool"
        },
        {
          "internalType": "string",
          "name": "_imageHash",
          "type": "string"
        }
      ],
      "name": "createSuppProduct",
      "outputs": [],
      "payable": false,
      "stateMutability": "nonpayable",
      "type": "function"
    },
    {
      "constant": false,
      "inputs": [
        {
          "internalType": "string",
          "name": "_name",
          "type": "string"
        },
        {
          "internalType": "uint256",
          "name": "_price",
          "type": "uint256"
        },
        {
          "internalType": "bool",
          "name": "_published",
          "type": "bool"
        },
        {
          "internalType": "string",
          "name": "_imageHash",
          "type": "string"
        }
      ],
      "name": "createRestProduct",
      "outputs": [],
      "payable": false,
      "stateMutability": "nonpayable",
      "type": "function"
    },
    {
      "constant": false,
      "inputs": [
        {
          "internalType": "address",
          "name": "_owner",
          "type": "address"
        },
        {
          "internalType": "string",
          "name": "_name",
          "type": "string"
        },
        {
          "internalType": "string",
          "name": "_addressLocation",
          "type": "string"
        },
        {
          "internalType": "string",
          "name": "_phone",
          "type": "string"
        }
      ],
      "name": "addCustomer",
      "outputs": [],
      "payable": false,
      "stateMutability": "nonpayable",
      "type": "function"
    },
    {
      "constant": false,
      "inputs": [
        {
          "internalType": "uint256",
          "name": "_id",
          "type": "uint256"
        },
        {
          "internalType": "string",
          "name": "_phone",
          "type": "string"
        },
        {
          "internalType": "string",
          "name": "_address",
          "type": "string"
        }
      ],
      "name": "editCustProfile",
      "outputs": [],
      "payable": false,
      "stateMutability": "nonpayable",
      "type": "function"
    },
    {
      "constant": false,
      "inputs": [
        {
          "internalType": "uint256",
          "name": "_id",
          "type": "uint256"
        },
        {
          "internalType": "string",
          "name": "_phone",
          "type": "string"
        },
        {
          "internalType": "uint256",
          "name": "_moq",
          "type": "uint256"
        },
        {
          "internalType": "uint256",
          "name": "_leadTime",
          "type": "uint256"
        },
        {
          "internalType": "string",
          "name": "_deliveryDays",
          "type": "string"
        },
        {
          "internalType": "string",
          "name": "_remarks",
          "type": "string"
        }
      ],
      "name": "editSupplierProfile",
      "outputs": [],
      "payable": false,
      "stateMutability": "nonpayable",
      "type": "function"
    },
    {
      "constant": false,
      "inputs": [
        {
          "internalType": "uint256",
          "name": "_productId",
          "type": "uint256"
        },
        {
          "internalType": "string",
          "name": "_name",
          "type": "string"
        },
        {
          "internalType": "uint256",
          "name": "_price",
          "type": "uint256"
        },
        {
          "internalType": "string",
          "name": "_imageHash",
          "type": "string"
        },
        {
          "internalType": "bool",
          "name": "_published",
          "type": "bool"
        }
      ],
      "name": "editProduct",
      "outputs": [],
      "payable": false,
      "stateMutability": "nonpayable",
      "type": "function"
    },
    {
      "constant": false,
      "inputs": [
        {
          "internalType": "uint256",
          "name": "_productId",
          "type": "uint256"
        },
        {
          "internalType": "string",
          "name": "_name",
          "type": "string"
        },
        {
          "internalType": "uint256",
          "name": "_price",
          "type": "uint256"
        },
        {
          "internalType": "uint256",
          "name": "_size",
          "type": "uint256"
        },
        {
          "internalType": "uint256",
          "name": "_minOrder",
          "type": "uint256"
        },
        {
          "internalType": "string",
          "name": "_imageHash",
          "type": "string"
        },
        {
          "internalType": "bool",
          "name": "_published",
          "type": "bool"
        }
      ],
      "name": "editSuppProduct",
      "outputs": [],
      "payable": false,
      "stateMutability": "nonpayable",
      "type": "function"
    },
    {
      "constant": false,
      "inputs": [
        {
          "internalType": "uint256",
          "name": "_custId",
          "type": "uint256"
        },
        {
          "internalType": "uint256",
          "name": "_prodId",
          "type": "uint256"
        },
        {
          "internalType": "uint256",
          "name": "_prodQty",
          "type": "uint256"
        }
      ],
      "name": "addToCart",
      "outputs": [],
      "payable": false,
      "stateMutability": "nonpayable",
      "type": "function"
    },
    {
      "constant": false,
      "inputs": [
        {
          "internalType": "uint256",
          "name": "_hawkerId",
          "type": "uint256"
        },
        {
          "internalType": "uint256",
          "name": "_prodId",
          "type": "uint256"
        },
        {
          "internalType": "uint256",
          "name": "_prodQty",
          "type": "uint256"
        }
      ],
      "name": "addToCartHawker",
      "outputs": [],
      "payable": false,
      "stateMutability": "nonpayable",
      "type": "function"
    },
    {
      "constant": false,
      "inputs": [
        {
          "internalType": "uint256",
          "name": "custId",
          "type": "uint256"
        },
        {
          "internalType": "uint256",
          "name": "cartId",
          "type": "uint256"
        }
      ],
      "name": "removeProdCart",
      "outputs": [],
      "payable": false,
      "stateMutability": "nonpayable",
      "type": "function"
    },
    {
      "constant": false,
      "inputs": [
        {
          "internalType": "uint256",
          "name": "_id",
          "type": "uint256"
        },
        {
          "internalType": "uint256",
          "name": "_indicator",
          "type": "uint256"
        }
      ],
      "name": "removeAllProdCart",
      "outputs": [],
      "payable": false,
      "stateMutability": "nonpayable",
      "type": "function"
    },
    {
      "constant": false,
      "inputs": [
        {
          "internalType": "uint256",
          "name": "id",
          "type": "uint256"
        },
        {
          "internalType": "uint256",
          "name": "cartId",
          "type": "uint256"
        },
        {
          "internalType": "uint256",
          "name": "indicator",
          "type": "uint256"
        }
      ],
      "name": "getCartProduct",
      "outputs": [
        {
          "internalType": "uint256",
          "name": "",
          "type": "uint256"
        },
        {
          "internalType": "uint256",
          "name": "",
          "type": "uint256"
        }
      ],
      "payable": false,
      "stateMutability": "nonpayable",
      "type": "function"
    },
    {
      "constant": false,
      "inputs": [
        {
          "internalType": "uint256",
          "name": "orderId",
          "type": "uint256"
        },
        {
          "internalType": "uint256",
          "name": "cartId",
          "type": "uint256"
        }
      ],
      "name": "getOrderProduct",
      "outputs": [
        {
          "components": [
            {
              "internalType": "uint256",
              "name": "id",
              "type": "uint256"
            },
            {
              "internalType": "uint256",
              "name": "productId",
              "type": "uint256"
            },
            {
              "internalType": "uint256",
              "name": "productQty",
              "type": "uint256"
            }
          ],
          "internalType": "struct Marketplace.CartItem",
          "name": "",
          "type": "tuple"
        }
      ],
      "payable": false,
      "stateMutability": "nonpayable",
      "type": "function"
    },
    {
      "constant": false,
      "inputs": [
        {
          "internalType": "uint256",
          "name": "hawkerId",
          "type": "uint256"
        },
        {
          "internalType": "uint256",
          "name": "feedbackCount",
          "type": "uint256"
        }
      ],
      "name": "getHawkerFeedback",
      "outputs": [
        {
          "components": [
            {
              "internalType": "uint256",
              "name": "id",
              "type": "uint256"
            },
            {
              "internalType": "address",
              "name": "seller",
              "type": "address"
            },
            {
              "internalType": "address",
              "name": "customer",
              "type": "address"
            },
            {
              "internalType": "uint256",
              "name": "rate",
              "type": "uint256"
            },
            {
              "internalType": "string",
              "name": "comment",
              "type": "string"
            }
          ],
          "internalType": "struct Marketplace.Feedback",
          "name": "",
          "type": "tuple"
        }
      ],
      "payable": false,
      "stateMutability": "nonpayable",
      "type": "function"
    },
    {
      "constant": false,
      "inputs": [
        {
          "internalType": "uint256",
          "name": "_orderId",
          "type": "uint256"
        },
        {
          "internalType": "uint256",
          "name": "_hawkerId",
          "type": "uint256"
        },
        {
          "internalType": "uint256",
          "name": "_hawkerRate",
          "type": "uint256"
        },
        {
          "internalType": "string",
          "name": "_hawkerComment",
          "type": "string"
        },
        {
          "internalType": "uint256",
          "name": "_foodDeliveryId",
          "type": "uint256"
        },
        {
          "internalType": "uint256",
          "name": "_fdRate",
          "type": "uint256"
        },
        {
          "internalType": "string",
          "name": "_fdComment",
          "type": "string"
        }
      ],
      "name": "setRating",
      "outputs": [],
      "payable": false,
      "stateMutability": "nonpayable",
      "type": "function"
    },
    {
      "constant": false,
      "inputs": [
        {
          "internalType": "uint256",
          "name": "_orderId",
          "type": "uint256"
        },
        {
          "internalType": "address payable",
          "name": "_customer",
          "type": "address"
        }
      ],
      "name": "cancelOrder",
      "outputs": [],
      "payable": true,
      "stateMutability": "payable",
      "type": "function"
    },
    {
      "constant": false,
      "inputs": [
        {
          "internalType": "uint256",
          "name": "_indicator",
          "type": "uint256"
        },
        {
          "internalType": "uint256",
          "name": "_id",
          "type": "uint256"
        },
        {
          "internalType": "address payable",
          "name": "_seller",
          "type": "address"
        },
        {
          "internalType": "uint256",
          "name": "_hawkerPayment",
          "type": "uint256"
        },
        {
          "internalType": "uint256",
          "name": "_riderPayment",
          "type": "uint256"
        },
        {
          "internalType": "uint256",
          "name": "_totalCost",
          "type": "uint256"
        },
        {
          "internalType": "string",
          "name": "_dateTime",
          "type": "string"
        },
        {
          "internalType": "string",
          "name": "_deliveryDateTime",
          "type": "string"
        }
      ],
      "name": "purchaseProduct",
      "outputs": [],
      "payable": true,
      "stateMutability": "payable",
      "type": "function"
    },
    {
      "constant": false,
      "inputs": [
        {
          "internalType": "uint256",
          "name": "_orderId",
          "type": "uint256"
        },
        {
          "internalType": "string",
          "name": "_estTime",
          "type": "string"
        }
      ],
      "name": "hawkerConfirmOrder",
      "outputs": [],
      "payable": false,
      "stateMutability": "nonpayable",
      "type": "function"
    },
    {
      "constant": false,
      "inputs": [
        {
          "internalType": "uint256",
          "name": "_orderId",
          "type": "uint256"
        }
      ],
      "name": "fdAcceptOrder",
      "outputs": [],
      "payable": false,
      "stateMutability": "nonpayable",
      "type": "function"
    },
    {
      "constant": false,
      "inputs": [
        {
          "internalType": "uint256",
          "name": "_orderId",
          "type": "uint256"
        }
      ],
      "name": "fdCollectedOrder",
      "outputs": [],
      "payable": false,
      "stateMutability": "nonpayable",
      "type": "function"
    },
    {
      "constant": false,
      "inputs": [
        {
          "internalType": "uint256",
          "name": "_orderId",
          "type": "uint256"
        },
        {
          "internalType": "uint256",
          "name": "_fdId",
          "type": "uint256"
        },
        {
          "internalType": "string",
          "name": "_dateTime",
          "type": "string"
        }
      ],
      "name": "fdCompleteOrder",
      "outputs": [],
      "payable": true,
      "stateMutability": "payable",
      "type": "function"
    }
  ],
  "bytecode": "0x60806040526000600655600060085534801561001a57600080fd5b50615974806200002b6000396000f3fe6080604052600436106102515760003560e01c8063995d7d9311610139578063cc3cb432116100b6578063e34960761161007a578063e349607614610911578063e4fed93c1461093a578063e6f65b4c14610956578063f0bbfb0714610981578063f2e7e195146109aa578063f75c2d88146109d357610251565b8063cc3cb4321461080b578063cea2312114610834578063d99b099c1461087b578063e16f14e2146108a4578063e24b0562146108e857610251565b8063abed579f116100fd578063abed579f146106f2578063b0fd5c4614610735578063bb474eab14610760578063c0abda2a1461079e578063c19d93fb146107e057610251565b8063995d7d93146106045780639a81fecc1461062d578063a6f849e714610656578063a85c38ef1461067f578063a9937b22146106c757610251565b80634368d179116101d25780637323a7d3116101965780637323a7d314610519578063757a2703146105355780637d9bbc73146105605780637e577ef6146105895780638968bffd146105b25780638add5eb9146105db57610251565b80634368d1791461043657806360b22e3c1461047357806362fb14221461049c57806364a6b494146104c55780637188bf5c146104f057610251565b80633034143711610219578063303414371461035557806335daa731146103715780633be94d471461039c5780634244c3d4146103e457806342dbaa8e1461040d57610251565b8063093c05fa1461025657806309cd3f071461029b5780630c21a8d2146102c45780631460953c146102ef578063278e381c14610318575b600080fd5b34801561026257600080fd5b5061027d600480360361027891908101906149e1565b6109fc565b60405161029299989796959493929190615371565b60405180910390f35b3480156102a757600080fd5b506102c260048036036102bd9190810190614928565b610c3f565b005b3480156102d057600080fd5b506102d9610da9565b6040516102e6919061528e565b60405180910390f35b3480156102fb57600080fd5b50610316600480360361031191908101906145aa565b610daf565b005b34801561032457600080fd5b5061033f600480360361033a9190810190614df2565b610f0f565b60405161034c9190615251565b60405180910390f35b61036f600480360361036a9190810190614e2e565b610f9f565b005b34801561037d57600080fd5b50610386611ce4565b604051610393919061528e565b60405180910390f35b3480156103a857600080fd5b506103c360048036036103be91908101906149e1565b611cea565b6040516103db9c9b9a99989796959493929190615413565b60405180910390f35b3480156103f057600080fd5b5061040b60048036036104069190810190614df2565b61206f565b005b34801561041957600080fd5b50610434600480360361042f9190810190614655565b6120d0565b005b34801561044257600080fd5b5061045d60048036036104589190810190614df2565b6122d9565b60405161046a919061526c565b60405180910390f35b34801561047f57600080fd5b5061049a600480360361049591908101906145aa565b61248f565b005b3480156104a857600080fd5b506104c360048036036104be9190810190614d24565b61263b565b005b3480156104d157600080fd5b506104da612719565b6040516104e7919061528e565b60405180910390f35b3480156104fc57600080fd5b50610517600480360361051291908101906149e1565b61271f565b005b610533600480360361052e9190810190614a0a565b612772565b005b34801561054157600080fd5b5061054a61280b565b604051610557919061528e565b60405180910390f35b34801561056c57600080fd5b5061058760048036036105829190810190614a9a565b612811565b005b34801561059557600080fd5b506105b060048036036105ab9190810190614df2565b61286c565b005b3480156105be57600080fd5b506105d960048036036105d49190810190614bac565b61296f565b005b3480156105e757600080fd5b5061060260048036036105fd919081019061476b565b612a15565b005b34801561061057600080fd5b5061062b600480360361062691908101906149e1565b612bf4565b005b34801561063957600080fd5b50610654600480360361064f9190810190614f77565b612c84565b005b34801561066257600080fd5b5061067d60048036036106789190810190614b19565b612d3e565b005b34801561068b57600080fd5b506106a660048036036106a191908101906149e1565b612db5565b6040516106be9c9b9a999897969594939291906152a9565b60405180910390f35b3480156106d357600080fd5b506106dc612fbf565b6040516106e9919061528e565b60405180910390f35b3480156106fe57600080fd5b50610719600480360361071491908101906149e1565b612fc5565b60405161072c9796959493929190615634565b60405180910390f35b34801561074157600080fd5b5061074a613164565b604051610757919061528e565b60405180910390f35b34801561076c57600080fd5b5061078760048036036107829190810190614f77565b61316a565b60405161079592919061573d565b60405180910390f35b3480156107aa57600080fd5b506107c560048036036107c091908101906149e1565b613220565b6040516107d7969594939291906154f0565b60405180910390f35b3480156107ec57600080fd5b506107f5613444565b6040516108029190615236565b60405180910390f35b34801561081757600080fd5b50610832600480360361082d9190810190614895565b613457565b005b34801561084057600080fd5b5061085b600480360361085691908101906149e1565b6135af565b6040516108729b9a99989796959493929190615566565b60405180910390f35b34801561088757600080fd5b506108a2600480360361089d9190810190614a46565b613921565b005b3480156108b057600080fd5b506108cb60048036036108c691908101906149e1565b6139e5565b6040516108df9897969594939291906156b1565b60405180910390f35b3480156108f457600080fd5b5061090f600480360361090a9190810190614fc6565b613b8a565b005b34801561091d57600080fd5b50610938600480360361093391908101906149e1565b613fa3565b005b610954600480360361094f9190810190614f10565b613ff8565b005b34801561096257600080fd5b5061096b6140e2565b604051610978919061528e565b60405180910390f35b34801561098d57600080fd5b506109a860048036036109a391908101906149e1565b6140e8565b005b3480156109b657600080fd5b506109d160048036036109cc9190810190614c53565b614123565b005b3480156109df57600080fd5b506109fa60048036036109f59190810190614f77565b6141e2565b005b60006020528060005260406000206000915090508060000154908060010160009054906101000a900473ffffffffffffffffffffffffffffffffffffffff1690806002018054600181600116156101000203166002900480601f016020809104026020016040519081016040528092919081815260200182805460018160011615610100020316600290048015610ad45780601f10610aa957610100808354040283529160200191610ad4565b820191906000526020600020905b815481529060010190602001808311610ab757829003601f168201915b505050505090806003018054600181600116156101000203166002900480601f016020809104026020016040519081016040528092919081815260200182805460018160011615610100020316600290048015610b725780601f10610b4757610100808354040283529160200191610b72565b820191906000526020600020905b815481529060010190602001808311610b5557829003601f168201915b505050505090806004018054600181600116156101000203166002900480601f016020809104026020016040519081016040528092919081815260200182805460018160011615610100020316600290048015610c105780601f10610be557610100808354040283529160200191610c10565b820191906000526020600020905b815481529060010190602001808311610bf357829003601f168201915b5050505050908060050154908060060160009054906101000a900460ff16908060070154908060090154905089565b6000865111610c4d57600080fd5b60008511610c5a57600080fd5b60066000815480929190600101919050555060405180610100016040528060065481526020018781526020018681526020018581526020018481526020013373ffffffffffffffffffffffffffffffffffffffff168152602001831515815260200182815250600760006006548152602001908152602001600020600082015181600001556020820151816001019080519060200190610cfb92919061429c565b5060408201518160020155606082015181600301556080820151816004015560a08201518160050160006101000a81548173ffffffffffffffffffffffffffffffffffffffff021916908373ffffffffffffffffffffffffffffffffffffffff16021790555060c08201518160050160146101000a81548160ff02191690831515021790555060e0820151816006019080519060200190610d9d92919061429c565b50905050505050505050565b600e5481565b8373ffffffffffffffffffffffffffffffffffffffff163373ffffffffffffffffffffffffffffffffffffffff1614610de757600080fd5b600e600081548092919060010191905055506040518060c00160405280600e5481526020013373ffffffffffffffffffffffffffffffffffffffff1681526020018481526020018381526020018281526020016000815250600d6000600e5481526020019081526020016000206000820151816000015560208201518160010160006101000a81548173ffffffffffffffffffffffffffffffffffffffff021916908373ffffffffffffffffffffffffffffffffffffffff1602179055506040820151816002019080519060200190610ec192919061429c565b506060820151816003019080519060200190610ede92919061429c565b506080820151816004019080519060200190610efb92919061429c565b5060a0820151816006015590505050505050565b610f1761431c565b6000600b600085815260200190815260200160002090506000816007016000858152602001908152602001600020600101549050610f5361431c565b8260070160008681526020019081526020016000206040518060600160405290816000820154815260200160018201548152602001600282015481525050905080935050505092915050565b600188141561159657610fb061433d565b600d60008981526020019081526020016000206040518060c0016040529081600082015481526020016001820160009054906101000a900473ffffffffffffffffffffffffffffffffffffffff1673ffffffffffffffffffffffffffffffffffffffff1673ffffffffffffffffffffffffffffffffffffffff168152602001600282018054600181600116156101000203166002900480601f0160208091040260200160405190810160405280929190818152602001828054600181600116156101000203166002900480156110c75780601f1061109c576101008083540402835291602001916110c7565b820191906000526020600020905b8154815290600101906020018083116110aa57829003601f168201915b50505050508152602001600382018054600181600116156101000203166002900480601f0160208091040260200160405190810160405280929190818152602001828054600181600116156101000203166002900480156111695780601f1061113e57610100808354040283529160200191611169565b820191906000526020600020905b81548152906001019060200180831161114c57829003601f168201915b50505050508152602001600482018054600181600116156101000203166002900480601f01602080910402602001604051908101604052809291908181526020018280546001816001161561010002031660029004801561120b5780601f106111e05761010080835404028352916020019161120b565b820191906000526020600020905b8154815290600101906020018083116111ee57829003601f168201915b505050505081526020016006820154815250509050600c600081548092919060010191905055506000600a60006101000a81548160ff0219169083600581111561125157fe5b0217905550604051806101800160405280600c548152602001826020015173ffffffffffffffffffffffffffffffffffffffff1681526020018873ffffffffffffffffffffffffffffffffffffffff168152602001600073ffffffffffffffffffffffffffffffffffffffff1681526020018781526020018681526020018581526020018260a001518152602001848152602001838152602001600a60009054906101000a900460ff16600581111561130657fe5b815260200160001515815250600b6000600c5481526020019081526020016000206000820151816000015560208201518160010160006101000a81548173ffffffffffffffffffffffffffffffffffffffff021916908373ffffffffffffffffffffffffffffffffffffffff16021790555060408201518160020160006101000a81548173ffffffffffffffffffffffffffffffffffffffff021916908373ffffffffffffffffffffffffffffffffffffffff16021790555060608201518160030160006101000a81548173ffffffffffffffffffffffffffffffffffffffff021916908373ffffffffffffffffffffffffffffffffffffffff1602179055506080820151816004015560a0820151816005015560c0820151816006015560e0820151816008015561010082015181600901908051906020019061144b92919061429c565b5061012082015181600a01908051906020019061146992919061429c565b5061014082015181600b0160006101000a81548160ff0219169083600581111561148f57fe5b021790555061016082015181600b0160016101000a81548160ff0219169083151502179055509050506000600190505b8160a001518111611577576000806114d98b84600161316a565b91509150604051806060016040528084815260200183815260200182815250600b6000600c54815260200190815260200160002060070160008581526020019081526020016000206000820151816000015560208201518160010155604082015181600201559050506009600083815260200190815260200160002060050160008154809291906001019190505550505080806001019150506114bf565b508334101561158557600080fd5b61159088600161286c565b50611cda565b61159e614389565b6004600089815260200190815260200160002060405180610180016040529081600082015481526020016001820160009054906101000a900473ffffffffffffffffffffffffffffffffffffffff1673ffffffffffffffffffffffffffffffffffffffff1673ffffffffffffffffffffffffffffffffffffffff168152602001600282018054600181600116156101000203166002900480601f0160208091040260200160405190810160405280929190818152602001828054600181600116156101000203166002900480156116b65780601f1061168b576101008083540402835291602001916116b6565b820191906000526020600020905b81548152906001019060200180831161169957829003601f168201915b50505050508152602001600382018054600181600116156101000203166002900480601f0160208091040260200160405190810160405280929190818152602001828054600181600116156101000203166002900480156117585780601f1061172d57610100808354040283529160200191611758565b820191906000526020600020905b81548152906001019060200180831161173b57829003601f168201915b50505050508152602001600482018054600181600116156101000203166002900480601f0160208091040260200160405190810160405280929190818152602001828054600181600116156101000203166002900480156117fa5780601f106117cf576101008083540402835291602001916117fa565b820191906000526020600020905b8154815290600101906020018083116117dd57829003601f168201915b50505050508152602001600582018054600181600116156101000203166002900480601f01602080910402602001604051908101604052809291908181526020018280546001816001161561010002031660029004801561189c5780601f106118715761010080835404028352916020019161189c565b820191906000526020600020905b81548152906001019060200180831161187f57829003601f168201915b505050505081526020016006820154815260200160078201548152602001600882018054600181600116156101000203166002900480601f0160208091040260200160405190810160405280929190818152602001828054600181600116156101000203166002900480156119525780601f1061192757610100808354040283529160200191611952565b820191906000526020600020905b81548152906001019060200180831161193557829003601f168201915b505050505081526020016009820160009054906101000a900460ff16151515158152602001600b8201548152602001600d820154815250509050600c600081548092919060010191905055506000600a60006101000a81548160ff021916908360058111156119bd57fe5b0217905550604051806101800160405280600c548152602001826020015173ffffffffffffffffffffffffffffffffffffffff1681526020018873ffffffffffffffffffffffffffffffffffffffff168152602001600073ffffffffffffffffffffffffffffffffffffffff1681526020018781526020018681526020018581526020018261016001518152602001848152602001838152602001600a60009054906101000a900460ff166005811115611a7357fe5b815260200160001515815250600b6000600c5481526020019081526020016000206000820151816000015560208201518160010160006101000a81548173ffffffffffffffffffffffffffffffffffffffff021916908373ffffffffffffffffffffffffffffffffffffffff16021790555060408201518160020160006101000a81548173ffffffffffffffffffffffffffffffffffffffff021916908373ffffffffffffffffffffffffffffffffffffffff16021790555060608201518160030160006101000a81548173ffffffffffffffffffffffffffffffffffffffff021916908373ffffffffffffffffffffffffffffffffffffffff1602179055506080820151816004015560a0820151816005015560c0820151816006015560e08201518160080155610100820151816009019080519060200190611bb892919061429c565b5061012082015181600a019080519060200190611bd692919061429c565b5061014082015181600b0160006101000a81548160ff02191690836005811115611bfc57fe5b021790555061016082015181600b0160016101000a81548160ff0219169083151502179055509050506000600190505b8161016001518111611cbf57600080611c478b84600261316a565b91509150604051806060016040528084815260200183815260200182815250600b6000600c548152602001908152602001600020600701600085815260200190815260200160002060008201518160000155602082015181600101556040820151816002015590505050508080600101915050611c2c565b5083341015611ccd57600080fd5b611cd888600261286c565b505b5050505050505050565b600c5481565b60046020528060005260406000206000915090508060000154908060010160009054906101000a900473ffffffffffffffffffffffffffffffffffffffff1690806002018054600181600116156101000203166002900480601f016020809104026020016040519081016040528092919081815260200182805460018160011615610100020316600290048015611dc25780601f10611d9757610100808354040283529160200191611dc2565b820191906000526020600020905b815481529060010190602001808311611da557829003601f168201915b505050505090806003018054600181600116156101000203166002900480601f016020809104026020016040519081016040528092919081815260200182805460018160011615610100020316600290048015611e605780601f10611e3557610100808354040283529160200191611e60565b820191906000526020600020905b815481529060010190602001808311611e4357829003601f168201915b505050505090806004018054600181600116156101000203166002900480601f016020809104026020016040519081016040528092919081815260200182805460018160011615610100020316600290048015611efe5780601f10611ed357610100808354040283529160200191611efe565b820191906000526020600020905b815481529060010190602001808311611ee157829003601f168201915b505050505090806005018054600181600116156101000203166002900480601f016020809104026020016040519081016040528092919081815260200182805460018160011615610100020316600290048015611f9c5780601f10611f7157610100808354040283529160200191611f9c565b820191906000526020600020905b815481529060010190602001808311611f7f57829003601f168201915b505050505090806006015490806007015490806008018054600181600116156101000203166002900480601f0160208091040260200160405190810160405280929190818152602001828054600181600116156101000203166002900480156120465780601f1061201b57610100808354040283529160200191612046565b820191906000526020600020905b81548152906001019060200180831161202957829003601f168201915b5050505050908060090160009054906101000a900460ff169080600b01549080600d015490508c565b6000600d60008481526020019081526020016000209050806006016000815480929190600190039190505550806005016000838152602001908152602001600020600080820160009055600182016000905560028201600090555050505050565b8673ffffffffffffffffffffffffffffffffffffffff163373ffffffffffffffffffffffffffffffffffffffff161461210857600080fd5b60056000815480929190600101919050555060405180610180016040528060055481526020013373ffffffffffffffffffffffffffffffffffffffff168152602001878152602001868152602001858152602001848152602001838152602001600081526020018281526020016000151581526020016000815260200160008152506004600060055481526020019081526020016000206000820151816000015560208201518160010160006101000a81548173ffffffffffffffffffffffffffffffffffffffff021916908373ffffffffffffffffffffffffffffffffffffffff160217905550604082015181600201908051906020019061220c92919061429c565b50606082015181600301908051906020019061222992919061429c565b50608082015181600401908051906020019061224692919061429c565b5060a082015181600501908051906020019061226392919061429c565b5060c0820151816006015560e0820151816007015561010082015181600801908051906020019061229592919061429c565b506101208201518160090160006101000a81548160ff02191690831515021790555061014082015181600b015561016082015181600d015590505050505050505050565b6122e1614402565b6000600460008581526020019081526020016000209050612300614402565b81600a0160008581526020019081526020016000206040518060a0016040529081600082015481526020016001820160009054906101000a900473ffffffffffffffffffffffffffffffffffffffff1673ffffffffffffffffffffffffffffffffffffffff1673ffffffffffffffffffffffffffffffffffffffff1681526020016002820160009054906101000a900473ffffffffffffffffffffffffffffffffffffffff1673ffffffffffffffffffffffffffffffffffffffff1673ffffffffffffffffffffffffffffffffffffffff16815260200160038201548152602001600482018054600181600116156101000203166002900480601f0160208091040260200160405190810160405280929190818152602001828054600181600116156101000203166002900480156124795780601f1061244e57610100808354040283529160200191612479565b820191906000526020600020905b81548152906001019060200180831161245c57829003601f168201915b5050505050815250509050809250505092915050565b8373ffffffffffffffffffffffffffffffffffffffff163373ffffffffffffffffffffffffffffffffffffffff16146124c757600080fd5b60016000815480929190600101919050555060405180610120016040528060015481526020013373ffffffffffffffffffffffffffffffffffffffff1681526020018481526020018381526020018281526020016005815260200160001515815260200160008152602001600081525060008060015481526020019081526020016000206000820151816000015560208201518160010160006101000a81548173ffffffffffffffffffffffffffffffffffffffff021916908373ffffffffffffffffffffffffffffffffffffffff16021790555060408201518160020190805190602001906125b892919061429c565b5060608201518160030190805190602001906125d592919061429c565b5060808201518160040190805190602001906125f292919061429c565b5060a0820151816005015560c08201518160060160006101000a81548160ff02191690831515021790555060e08201518160070155610100820151816009015590505050505050565b8560076000898152602001908152602001600020600101908051906020019061266592919061445d565b50846007600089815260200190815260200160002060020181905550836007600089815260200190815260200160002060030181905550826007600089815260200190815260200160002060040181905550816007600089815260200190815260200160002060060190805190602001906126e192919061445d565b50806007600089815260200190815260200160002060050160146101000a81548160ff02191690831515021790555050505050505050565b60035481565b60008082815260200190815260200160002060060160009054906101000a900460ff161560008083815260200190815260200160002060060160006101000a81548160ff02191690831515021790555050565b6005600b6000848152602001908152602001600020600b0160006101000a81548160ff021916908360058111156127a557fe5b02179055508073ffffffffffffffffffffffffffffffffffffffff166108fc600b6000858152602001908152602001600020600601549081150290604051600060405180830381858888f19350505050158015612806573d6000803e3d6000fd5b505050565b60085481565b81600d6000858152602001908152602001600020600401908051906020019061283b92919061445d565b5080600d6000858152602001908152602001600020600301908051906020019061286692919061445d565b50505050565b60018114156128f2576000600d600084815260200190815260200160002090506000816006015490506000600190505b8181116128e057826005016000828152602001908152602001600020600080820160009055600182016000905560028201600090555050808060010191505061289c565b5060008260060181905550505061296b565b6000600460008481526020019081526020016000209050600081600d015490506000600190505b81811161295d5782600c0160008281526020019081526020016000206000808201600090556001820160009055600282016000905550508080600101915050612919565b50600082600d018190555050505b5050565b8360096000878152602001908152602001600020600101908051906020019061299992919061445d565b50826009600087815260200190815260200160002060020181905550816009600087815260200190815260200160002060040190805190602001906129df92919061445d565b50806009600087815260200190815260200160002060030160146101000a81548160ff0219169083151502179055505050505050565b8773ffffffffffffffffffffffffffffffffffffffff163373ffffffffffffffffffffffffffffffffffffffff1614612a4d57600080fd5b60036000815480929190600101919050555060405180610160016040528060035481526020013373ffffffffffffffffffffffffffffffffffffffff1681526020018881526020018781526020018681526020018581526020018481526020018381526020018281526020016000815260200160008152506002600060035481526020019081526020016000206000820151816000015560208201518160010160006101000a81548173ffffffffffffffffffffffffffffffffffffffff021916908373ffffffffffffffffffffffffffffffffffffffff1602179055506040820151816002019080519060200190612b4792919061429c565b506060820151816003019080519060200190612b6492919061429c565b506080820151816004019080519060200190612b8192919061429c565b5060a0820151816005015560c0820151816006015560e0820151816007019080519060200190612bb292919061429c565b50610100820151816008019080519060200190612bd092919061429c565b50610120820151816009015561014082015181600b01559050505050505050505050565b6002600b6000838152602001908152602001600020600b0160006101000a81548160ff02191690836005811115612c2757fe5b021790555033600b600083815260200190815260200160002060030160006101000a81548173ffffffffffffffffffffffffffffffffffffffff021916908373ffffffffffffffffffffffffffffffffffffffff16021790555050565b600d6000848152602001908152602001600020600601600081548092919060010191905055506040518060600160405280600d600086815260200190815260200160002060060154815260200183815260200182815250600d60008581526020019081526020016000206005016000600d6000878152602001908152602001600020600601548152602001908152602001600020600082015181600001556020820151816001015560408201518160020155905050505050565b82600460008681526020019081526020016000206004019080519060200190612d6892919061445d565b5081600460008681526020019081526020016000206005019080519060200190612d9392919061445d565b5080600460008681526020019081526020016000206006018190555050505050565b600b6020528060005260406000206000915090508060000154908060010160009054906101000a900473ffffffffffffffffffffffffffffffffffffffff16908060020160009054906101000a900473ffffffffffffffffffffffffffffffffffffffff16908060030160009054906101000a900473ffffffffffffffffffffffffffffffffffffffff1690806004015490806005015490806006015490806008015490806009018054600181600116156101000203166002900480601f016020809104026020016040519081016040528092919081815260200182805460018160011615610100020316600290048015612ef15780601f10612ec657610100808354040283529160200191612ef1565b820191906000526020600020905b815481529060010190602001808311612ed457829003601f168201915b50505050509080600a018054600181600116156101000203166002900480601f016020809104026020016040519081016040528092919081815260200182805460018160011615610100020316600290048015612f8f5780601f10612f6457610100808354040283529160200191612f8f565b820191906000526020600020905b815481529060010190602001808311612f7257829003601f168201915b50505050509080600b0160009054906101000a900460ff169080600b0160019054906101000a900460ff1690508c565b60065481565b6009602052806000526040600020600091509050806000015490806001018054600181600116156101000203166002900480601f0160208091040260200160405190810160405280929190818152602001828054600181600116156101000203166002900480156130775780601f1061304c57610100808354040283529160200191613077565b820191906000526020600020905b81548152906001019060200180831161305a57829003601f168201915b5050505050908060020154908060030160009054906101000a900473ffffffffffffffffffffffffffffffffffffffff16908060030160149054906101000a900460ff1690806004018054600181600116156101000203166002900480601f0160208091040260200160405190810160405280929190818152602001828054600181600116156101000203166002900480156131545780601f1061312957610100808354040283529160200191613154565b820191906000526020600020905b81548152906001019060200180831161313757829003601f168201915b5050505050908060050154905087565b60015481565b60008060018314156131c9576000600d6000878152602001908152602001600020905080600501600086815260200190815260200160002060010154816005016000878152602001908152602001600020600201549250925050613218565b600060046000878152602001908152602001600020905080600c0160008681526020019081526020016000206001015481600c0160008781526020019081526020016000206002015492509250505b935093915050565b600d6020528060005260406000206000915090508060000154908060010160009054906101000a900473ffffffffffffffffffffffffffffffffffffffff1690806002018054600181600116156101000203166002900480601f0160208091040260200160405190810160405280929190818152602001828054600181600116156101000203166002900480156132f85780601f106132cd576101008083540402835291602001916132f8565b820191906000526020600020905b8154815290600101906020018083116132db57829003601f168201915b505050505090806003018054600181600116156101000203166002900480601f0160208091040260200160405190810160405280929190818152602001828054600181600116156101000203166002900480156133965780601f1061336b57610100808354040283529160200191613396565b820191906000526020600020905b81548152906001019060200180831161337957829003601f168201915b505050505090806004018054600181600116156101000203166002900480601f0160208091040260200160405190810160405280929190818152602001828054600181600116156101000203166002900480156134345780601f1061340957610100808354040283529160200191613434565b820191906000526020600020905b81548152906001019060200180831161341757829003601f168201915b5050505050908060060154905086565b600a60009054906101000a900460ff1681565b600084511161346557600080fd5b6000831161347257600080fd5b6008600081548092919060010191905055506040518060e0016040528060085481526020018581526020018481526020013373ffffffffffffffffffffffffffffffffffffffff1681526020018315158152602001828152602001600081525060096000600854815260200190815260200160002060008201518160000155602082015181600101908051906020019061350d92919061429c565b506040820151816002015560608201518160030160006101000a81548173ffffffffffffffffffffffffffffffffffffffff021916908373ffffffffffffffffffffffffffffffffffffffff16021790555060808201518160030160146101000a81548160ff02191690831515021790555060a082015181600401908051906020019061359b92919061429c565b5060c0820151816005015590505050505050565b60026020528060005260406000206000915090508060000154908060010160009054906101000a900473ffffffffffffffffffffffffffffffffffffffff1690806002018054600181600116156101000203166002900480601f0160208091040260200160405190810160405280929190818152602001828054600181600116156101000203166002900480156136875780601f1061365c57610100808354040283529160200191613687565b820191906000526020600020905b81548152906001019060200180831161366a57829003601f168201915b505050505090806003018054600181600116156101000203166002900480601f0160208091040260200160405190810160405280929190818152602001828054600181600116156101000203166002900480156137255780601f106136fa57610100808354040283529160200191613725565b820191906000526020600020905b81548152906001019060200180831161370857829003601f168201915b505050505090806004018054600181600116156101000203166002900480601f0160208091040260200160405190810160405280929190818152602001828054600181600116156101000203166002900480156137c35780601f10613798576101008083540402835291602001916137c3565b820191906000526020600020905b8154815290600101906020018083116137a657829003601f168201915b505050505090806005015490806006015490806007018054600181600116156101000203166002900480601f01602080910402602001604051908101604052809291908181526020018280546001816001161561010002031660029004801561386d5780601f106138425761010080835404028352916020019161386d565b820191906000526020600020905b81548152906001019060200180831161385057829003601f168201915b505050505090806008018054600181600116156101000203166002900480601f01602080910402602001604051908101604052809291908181526020018280546001816001161561010002031660029004801561390b5780601f106138e05761010080835404028352916020019161390b565b820191906000526020600020905b8154815290600101906020018083116138ee57829003601f168201915b50505050509080600901549080600b015490508b565b6001600b6000848152602001908152602001600020600b0160006101000a81548160ff0219169083600581111561395457fe5b021790555080600b6000848152602001908152602001600020600a01908051906020019061398392919061445d565b503373ffffffffffffffffffffffffffffffffffffffff166108fc600b6000858152602001908152602001600020600401549081150290604051600060405180830381858888f193505050501580156139e0573d6000803e3d6000fd5b505050565b6007602052806000526040600020600091509050806000015490806001018054600181600116156101000203166002900480601f016020809104026020016040519081016040528092919081815260200182805460018160011615610100020316600290048015613a975780601f10613a6c57610100808354040283529160200191613a97565b820191906000526020600020905b815481529060010190602001808311613a7a57829003601f168201915b5050505050908060020154908060030154908060040154908060050160009054906101000a900473ffffffffffffffffffffffffffffffffffffffff16908060050160149054906101000a900460ff1690806006018054600181600116156101000203166002900480601f016020809104026020016040519081016040528092919081815260200182805460018160011615610100020316600290048015613b805780601f10613b5557610100808354040283529160200191613b80565b820191906000526020600020905b815481529060010190602001808311613b6357829003601f168201915b5050505050905088565b6001600b6000898152602001908152602001600020600b0160016101000a81548160ff02191690831515021790555060046000878152602001908152602001600020600b01600081548092919060010191905055506040518060a0016040528060046000898152602001908152602001600020600b015481526020016004600089815260200190815260200160002060010160009054906101000a900473ffffffffffffffffffffffffffffffffffffffff1673ffffffffffffffffffffffffffffffffffffffff1681526020013373ffffffffffffffffffffffffffffffffffffffff1681526020018681526020018581525060046000888152602001908152602001600020600a016000600460008a8152602001908152602001600020600b015481526020019081526020016000206000820151816000015560208201518160010160006101000a81548173ffffffffffffffffffffffffffffffffffffffff021916908373ffffffffffffffffffffffffffffffffffffffff16021790555060408201518160020160006101000a81548173ffffffffffffffffffffffffffffffffffffffff021916908373ffffffffffffffffffffffffffffffffffffffff160217905550606082015181600301556080820151816004019080519060200190613d7992919061429c565b509050506000600460008881526020019081526020016000206007015486019050600060046000898152602001908152602001600020600b01548281613dbb57fe5b04905080600460008a815260200190815260200160002060070181905550600080868152602001908152602001600020600901600081548092919060010191905055506040518060a0016040528060008088815260200190815260200160002060090154815260200160008088815260200190815260200160002060010160009054906101000a900473ffffffffffffffffffffffffffffffffffffffff1673ffffffffffffffffffffffffffffffffffffffff1681526020013373ffffffffffffffffffffffffffffffffffffffff1681526020018581526020018481525060008087815260200190815260200160002060080160008060008981526020019081526020016000206009015481526020019081526020016000206000820151816000015560208201518160010160006101000a81548173ffffffffffffffffffffffffffffffffffffffff021916908373ffffffffffffffffffffffffffffffffffffffff16021790555060408201518160020160006101000a81548173ffffffffffffffffffffffffffffffffffffffff021916908373ffffffffffffffffffffffffffffffffffffffff160217905550606082015181600301556080820151816004019080519060200190613f9492919061429c565b50905050505050505050505050565b6004600082815260200190815260200160002060090160009054906101000a900460ff16156004600083815260200190815260200160002060090160006101000a81548160ff02191690831515021790555050565b6004600b6000858152602001908152602001600020600b0160006101000a81548160ff0219169083600581111561402b57fe5b021790555080600b6000858152602001908152602001600020600a01908051906020019061405a92919061445d565b503373ffffffffffffffffffffffffffffffffffffffff166108fc600b6000868152602001908152602001600020600501549081150290604051600060405180830381858888f193505050501580156140b7573d6000803e3d6000fd5b5060008083815260200190815260200160002060070160008154809291906001019190505550505050565b60055481565b6003600b6000838152602001908152602001600020600b0160006101000a81548160ff0219169083600581111561411b57fe5b021790555050565b8460026000888152602001908152602001600020600401908051906020019061414d92919061445d565b50836002600088815260200190815260200160002060050181905550826002600088815260200190815260200160002060060181905550816002600088815260200190815260200160002060070190805190602001906141ae92919061445d565b50806002600088815260200190815260200160002060080190805190602001906141d992919061445d565b50505050505050565b60046000848152602001908152602001600020600d0160008154809291906001019190505550604051806060016040528060046000868152602001908152602001600020600d015481526020018381526020018281525060046000858152602001908152602001600020600c01600060046000878152602001908152602001600020600d01548152602001908152602001600020600082015181600001556020820151816001015560408201518160020155905050505050565b828054600181600116156101000203166002900490600052602060002090601f016020900481019282601f106142dd57805160ff191683800117855561430b565b8280016001018555821561430b579182015b8281111561430a5782518255916020019190600101906142ef565b5b50905061431891906144dd565b5090565b60405180606001604052806000815260200160008152602001600081525090565b6040518060c0016040528060008152602001600073ffffffffffffffffffffffffffffffffffffffff168152602001606081526020016060815260200160608152602001600081525090565b60405180610180016040528060008152602001600073ffffffffffffffffffffffffffffffffffffffff1681526020016060815260200160608152602001606081526020016060815260200160008152602001600081526020016060815260200160001515815260200160008152602001600081525090565b6040518060a0016040528060008152602001600073ffffffffffffffffffffffffffffffffffffffff168152602001600073ffffffffffffffffffffffffffffffffffffffff16815260200160008152602001606081525090565b828054600181600116156101000203166002900490600052602060002090601f016020900481019282601f1061449e57805160ff19168380011785556144cc565b828001600101855582156144cc579182015b828111156144cb5782518255916020019190600101906144b0565b5b5090506144d991906144dd565b5090565b6144ff91905b808211156144fb5760008160009055506001016144e3565b5090565b90565b600081359050614511816158d5565b92915050565b600081359050614526816158ec565b92915050565b60008135905061453b81615903565b92915050565b600082601f83011261455257600080fd5b813561456561456082615793565b615766565b9150808252602083016020830185838301111561458157600080fd5b61458c838284615875565b50505092915050565b6000813590506145a48161591a565b92915050565b600080600080608085870312156145c057600080fd5b60006145ce87828801614502565b945050602085013567ffffffffffffffff8111156145eb57600080fd5b6145f787828801614541565b935050604085013567ffffffffffffffff81111561461457600080fd5b61462087828801614541565b925050606085013567ffffffffffffffff81111561463d57600080fd5b61464987828801614541565b91505092959194509250565b600080600080600080600060e0888a03121561467057600080fd5b600061467e8a828b01614502565b975050602088013567ffffffffffffffff81111561469b57600080fd5b6146a78a828b01614541565b965050604088013567ffffffffffffffff8111156146c457600080fd5b6146d08a828b01614541565b955050606088013567ffffffffffffffff8111156146ed57600080fd5b6146f98a828b01614541565b945050608088013567ffffffffffffffff81111561471657600080fd5b6147228a828b01614541565b93505060a06147338a828b01614595565b92505060c088013567ffffffffffffffff81111561475057600080fd5b61475c8a828b01614541565b91505092959891949750929550565b600080600080600080600080610100898b03121561478857600080fd5b60006147968b828c01614502565b985050602089013567ffffffffffffffff8111156147b357600080fd5b6147bf8b828c01614541565b975050604089013567ffffffffffffffff8111156147dc57600080fd5b6147e88b828c01614541565b965050606089013567ffffffffffffffff81111561480557600080fd5b6148118b828c01614541565b95505060806148228b828c01614595565b94505060a06148338b828c01614595565b93505060c089013567ffffffffffffffff81111561485057600080fd5b61485c8b828c01614541565b92505060e089013567ffffffffffffffff81111561487957600080fd5b6148858b828c01614541565b9150509295985092959890939650565b600080600080608085870312156148ab57600080fd5b600085013567ffffffffffffffff8111156148c557600080fd5b6148d187828801614541565b94505060206148e287828801614595565b93505060406148f38782880161452c565b925050606085013567ffffffffffffffff81111561491057600080fd5b61491c87828801614541565b91505092959194509250565b60008060008060008060c0878903121561494157600080fd5b600087013567ffffffffffffffff81111561495b57600080fd5b61496789828a01614541565b965050602061497889828a01614595565b955050604061498989828a01614595565b945050606061499a89828a01614595565b93505060806149ab89828a0161452c565b92505060a087013567ffffffffffffffff8111156149c857600080fd5b6149d489828a01614541565b9150509295509295509295565b6000602082840312156149f357600080fd5b6000614a0184828501614595565b91505092915050565b60008060408385031215614a1d57600080fd5b6000614a2b85828601614595565b9250506020614a3c85828601614517565b9150509250929050565b60008060408385031215614a5957600080fd5b6000614a6785828601614595565b925050602083013567ffffffffffffffff811115614a8457600080fd5b614a9085828601614541565b9150509250929050565b600080600060608486031215614aaf57600080fd5b6000614abd86828701614595565b935050602084013567ffffffffffffffff811115614ada57600080fd5b614ae686828701614541565b925050604084013567ffffffffffffffff811115614b0357600080fd5b614b0f86828701614541565b9150509250925092565b60008060008060808587031215614b2f57600080fd5b6000614b3d87828801614595565b945050602085013567ffffffffffffffff811115614b5a57600080fd5b614b6687828801614541565b935050604085013567ffffffffffffffff811115614b8357600080fd5b614b8f87828801614541565b9250506060614ba087828801614595565b91505092959194509250565b600080600080600060a08688031215614bc457600080fd5b6000614bd288828901614595565b955050602086013567ffffffffffffffff811115614bef57600080fd5b614bfb88828901614541565b9450506040614c0c88828901614595565b935050606086013567ffffffffffffffff811115614c2957600080fd5b614c3588828901614541565b9250506080614c468882890161452c565b9150509295509295909350565b60008060008060008060c08789031215614c6c57600080fd5b6000614c7a89828a01614595565b965050602087013567ffffffffffffffff811115614c9757600080fd5b614ca389828a01614541565b9550506040614cb489828a01614595565b9450506060614cc589828a01614595565b935050608087013567ffffffffffffffff811115614ce257600080fd5b614cee89828a01614541565b92505060a087013567ffffffffffffffff811115614d0b57600080fd5b614d1789828a01614541565b9150509295509295509295565b600080600080600080600060e0888a031215614d3f57600080fd5b6000614d4d8a828b01614595565b975050602088013567ffffffffffffffff811115614d6a57600080fd5b614d768a828b01614541565b9650506040614d878a828b01614595565b9550506060614d988a828b01614595565b9450506080614da98a828b01614595565b93505060a088013567ffffffffffffffff811115614dc657600080fd5b614dd28a828b01614541565b92505060c0614de38a828b0161452c565b91505092959891949750929550565b60008060408385031215614e0557600080fd5b6000614e1385828601614595565b9250506020614e2485828601614595565b9150509250929050565b600080600080600080600080610100898b031215614e4b57600080fd5b6000614e598b828c01614595565b9850506020614e6a8b828c01614595565b9750506040614e7b8b828c01614517565b9650506060614e8c8b828c01614595565b9550506080614e9d8b828c01614595565b94505060a0614eae8b828c01614595565b93505060c089013567ffffffffffffffff811115614ecb57600080fd5b614ed78b828c01614541565b92505060e089013567ffffffffffffffff811115614ef457600080fd5b614f008b828c01614541565b9150509295985092959890939650565b600080600060608486031215614f2557600080fd5b6000614f3386828701614595565b9350506020614f4486828701614595565b925050604084013567ffffffffffffffff811115614f6157600080fd5b614f6d86828701614541565b9150509250925092565b600080600060608486031215614f8c57600080fd5b6000614f9a86828701614595565b9350506020614fab86828701614595565b9250506040614fbc86828701614595565b9150509250925092565b600080600080600080600060e0888a031215614fe157600080fd5b6000614fef8a828b01614595565b97505060206150008a828b01614595565b96505060406150118a828b01614595565b955050606088013567ffffffffffffffff81111561502e57600080fd5b61503a8a828b01614541565b945050608061504b8a828b01614595565b93505060a061505c8a828b01614595565b92505060c088013567ffffffffffffffff81111561507957600080fd5b6150858a828b01614541565b91505092959891949750929550565b61509d816157fe565b82525050565b6150ac816157ec565b82525050565b6150bb816157ec565b82525050565b6150ca81615810565b82525050565b6150d981615863565b82525050565b6150e88161582f565b82525050565b60006150f9826157bf565b61510381856157ca565b9350615113818560208601615884565b61511c816158b7565b840191505092915050565b6000615132826157bf565b61513c81856157db565b935061514c818560208601615884565b615155816158b7565b840191505092915050565b6060820160008201516151766000850182615218565b5060208201516151896020850182615218565b50604082015161519c6040850182615218565b50505050565b600060a0830160008301516151ba6000860182615218565b5060208301516151cd60208601826150a3565b5060408301516151e060408601826150a3565b5060608301516151f36060860182615218565b506080830151848203608086015261520b82826150ee565b9150508091505092915050565b61522181615859565b82525050565b61523081615859565b82525050565b600060208201905061524b60008301846150d0565b92915050565b60006060820190506152666000830184615160565b92915050565b6000602082019050818103600083015261528681846151a2565b905092915050565b60006020820190506152a36000830184615227565b92915050565b6000610180820190506152bf600083018f615227565b6152cc602083018e6150b2565b6152d9604083018d6150b2565b6152e6606083018c6150b2565b6152f3608083018b615227565b61530060a083018a615227565b61530d60c0830189615227565b61531a60e0830188615227565b81810361010083015261532d8187615127565b90508181036101208301526153428186615127565b90506153526101408301856150d0565b6153606101608301846150c1565b9d9c50505050505050505050505050565b600061012082019050615387600083018c615227565b615394602083018b6150b2565b81810360408301526153a6818a615127565b905081810360608301526153ba8189615127565b905081810360808301526153ce8188615127565b90506153dd60a08301876150df565b6153ea60c08301866150c1565b6153f760e0830185615227565b615405610100830184615227565b9a9950505050505050505050565b600061018082019050615429600083018f615227565b615436602083018e6150b2565b8181036040830152615448818d615127565b9050818103606083015261545c818c615127565b90508181036080830152615470818b615127565b905081810360a0830152615484818a615127565b905061549360c0830189615227565b6154a060e0830188615227565b8181036101008301526154b38187615127565b90506154c36101208301866150c1565b6154d1610140830185615227565b6154df610160830184615227565b9d9c50505050505050505050505050565b600060c0820190506155056000830189615227565b61551260208301886150b2565b81810360408301526155248187615127565b905081810360608301526155388186615127565b9050818103608083015261554c8185615127565b905061555b60a0830184615227565b979650505050505050565b60006101608201905061557c600083018e615227565b615589602083018d6150b2565b818103604083015261559b818c615127565b905081810360608301526155af818b615127565b905081810360808301526155c3818a615127565b90506155d260a0830189615227565b6155df60c0830188615227565b81810360e08301526155f18187615127565b90508181036101008301526156068186615127565b9050615616610120830185615227565b615624610140830184615227565b9c9b505050505050505050505050565b600060e082019050615649600083018a615227565b818103602083015261565b8189615127565b905061566a6040830188615227565b6156776060830187615094565b61568460808301866150c1565b81810360a08301526156968185615127565b90506156a560c0830184615227565b98975050505050505050565b6000610100820190506156c7600083018b615227565b81810360208301526156d9818a615127565b90506156e86040830189615227565b6156f56060830188615227565b6157026080830187615227565b61570f60a0830186615094565b61571c60c08301856150c1565b81810360e083015261572e8184615127565b90509998505050505050505050565b60006040820190506157526000830185615227565b61575f6020830184615227565b9392505050565b6000604051905081810181811067ffffffffffffffff8211171561578957600080fd5b8060405250919050565b600067ffffffffffffffff8211156157aa57600080fd5b601f19601f8301169050602081019050919050565b600081519050919050565b600082825260208201905092915050565b600082825260208201905092915050565b60006157f782615839565b9050919050565b600061580982615839565b9050919050565b60008115159050919050565b600081905061582a826158c8565b919050565b6000819050919050565b600073ffffffffffffffffffffffffffffffffffffffff82169050919050565b6000819050919050565b600061586e8261581c565b9050919050565b82818337600083830152505050565b60005b838110156158a2578082015181840152602081019050615887565b838111156158b1576000848401525b50505050565b6000601f19601f8301169050919050565b600681106158d257fe5b50565b6158de816157ec565b81146158e957600080fd5b50565b6158f5816157fe565b811461590057600080fd5b50565b61590c81615810565b811461591757600080fd5b50565b61592381615859565b811461592e57600080fd5b5056fea365627a7a723158207c62c08ae1b9ad722bf514c23fe24ef0a01c8309535f5ce91cd2d468901000f36c6578706572696d656e74616cf564736f6c63430005100040",
  "source": "// SPDX-License-Identifier: Blockchain\r\n\r\npragma solidity ^0.5.4;\r\n\r\npragma experimental ABIEncoderV2;\r\n\r\ncontract Marketplace {\r\n    //constructor\r\n    // constructor() public {}\r\n\r\n    // event LogRefund(\r\n    //     address indexed receiver,\r\n    //     uint256 amount,\r\n    //     address indexed owner\r\n    // );\r\n\r\n    //FOOD DELIVERY\r\n    struct FoodDelivery {\r\n        uint256 id;\r\n        address owner;\r\n        string name;\r\n        string email;\r\n        string phone;\r\n        int256 rating;\r\n        bool available;\r\n        // mapping(uint256 => Order) ordersAccepted;\r\n        uint256 ordersAcceptedCount;\r\n        mapping(uint256 => Feedback) feedbacks;\r\n        uint256 feedbackCount;\r\n    }\r\n\r\n    // Read/write Food Delivery\r\n    mapping(uint256 => FoodDelivery) public foodDeliveries;\r\n    //Store Food Delivery Count\r\n    uint256 public foodDeliveriesCount;\r\n\r\n    //add new food delivery\r\n    function addFoodDelivery(\r\n        address _owner,\r\n        string memory _name,\r\n        string memory _email,\r\n        string memory _phone\r\n    ) public {\r\n        require(msg.sender == _owner);\r\n        // require(msg.sender == address(_owner));\r\n        foodDeliveriesCount++;\r\n        foodDeliveries[foodDeliveriesCount] = FoodDelivery(\r\n            foodDeliveriesCount,\r\n            msg.sender,\r\n            _name,\r\n            _email,\r\n            _phone,\r\n            5,\r\n            false,\r\n            0,\r\n            0\r\n        );\r\n    }\r\n\r\n    //SUPPLIER\r\n    struct Supplier {\r\n        uint256 id;\r\n        address owner;\r\n        string name;\r\n        string addressLocation;\r\n        string phone;\r\n        uint256 MOQ;\r\n        uint256 leadTime;\r\n        string deliveryDays;\r\n        string remarks;\r\n        uint256 avgRating;\r\n        mapping(uint256 => Feedback) feedbacks;\r\n        uint256 feedbackCount;\r\n    }\r\n\r\n    // Read/write Suppliers\r\n    mapping(uint256 => Supplier) public suppliers;\r\n    //Store Suppliers Count\r\n    uint256 public suppliersCount;\r\n\r\n    function addSupplier(\r\n        address _owner,\r\n        string memory _name,\r\n        string memory _addressLocation,\r\n        string memory _phone,\r\n        uint256 _moq,\r\n        uint256 _leadTime,\r\n        string memory _deliveryDays,\r\n        string memory _remarks\r\n    ) public {\r\n        require(msg.sender == _owner);\r\n        // require(msg.sender == address(_owner));\r\n        suppliersCount++;\r\n        suppliers[suppliersCount] = Supplier(\r\n            suppliersCount,\r\n            msg.sender,\r\n            _name,\r\n            _addressLocation,\r\n            _phone,\r\n            _moq,\r\n            _leadTime,\r\n            _deliveryDays,\r\n            _remarks,\r\n            0,\r\n            0\r\n        );\r\n    }\r\n\r\n    //HAWKER\r\n    struct Hawker {\r\n        uint256 id;\r\n        address owner;\r\n        string name;\r\n        string addressLocation;\r\n        string phone;\r\n        string openingHours;\r\n        uint256 leadTime;\r\n        uint256 avgRating;\r\n        string licenseHash;\r\n        bool open;\r\n        mapping(uint256 => Feedback) feedbacks;\r\n        uint256 feedbackCount;\r\n        mapping(uint256 => CartItem) cartItems;\r\n        uint256 itemCount;\r\n    }\r\n\r\n    // Read/write Hawkers\r\n    mapping(uint256 => Hawker) public hawkers;\r\n    //Store Hawkers Count\r\n    uint256 public hawkersCount;\r\n\r\n    //FEEDBACK\r\n    struct Feedback {\r\n        uint256 id;\r\n        address seller;\r\n        address customer;\r\n        uint256 rate;\r\n        string comment;\r\n    }\r\n\r\n    function addHawker(\r\n        address _owner,\r\n        string memory _name,\r\n        string memory _addressLocation,\r\n        string memory _phone,\r\n        string memory _openingHours,\r\n        uint256 _leadTime,\r\n        string memory _licenseHash\r\n    ) public {\r\n        require(msg.sender == _owner);\r\n        // require(msg.sender == address(_owner));\r\n        hawkersCount++;\r\n        hawkers[hawkersCount] = Hawker(\r\n            hawkersCount,\r\n            msg.sender,\r\n            _name,\r\n            _addressLocation,\r\n            _phone,\r\n            _openingHours,\r\n            _leadTime,\r\n            0,\r\n            _licenseHash,\r\n            false,\r\n            0,\r\n            0\r\n        );\r\n    }\r\n\r\n    function editHawkerProfile(\r\n        uint256 _id,\r\n        string memory _phone,\r\n        string memory _OH,\r\n        uint256 _leadTime\r\n    ) public {\r\n        hawkers[_id].phone = _phone;\r\n        hawkers[_id].openingHours = _OH;\r\n        hawkers[_id].leadTime = _leadTime;\r\n    }\r\n\r\n    //change shop status\r\n    function boolOpen(uint256 _id) public {\r\n        hawkers[_id].open = !(hawkers[_id].open);\r\n    }\r\n\r\n    //change food delivery status\r\n    function boolWork(uint256 _id) public {\r\n        foodDeliveries[_id].available = !(foodDeliveries[_id].available);\r\n    }\r\n\r\n    //SUPPLIER\r\n    uint256 public suppProdCount = 0;\r\n    mapping(uint256 => SuppProduct) public suppProducts;\r\n    struct SuppProduct {\r\n        uint256 id;\r\n        string name;\r\n        uint256 price;\r\n        uint256 size;\r\n        uint256 minOrder;\r\n        address payable owner;\r\n        bool published;\r\n        string imageHash;\r\n    }\r\n    struct SuppProfile {\r\n        uint256 id;\r\n        string name;\r\n        string category;\r\n        string location;\r\n        string deliveryHours;\r\n        address payable owner;\r\n        string reviews;\r\n        uint256 rating;\r\n    }\r\n\r\n    //Restaurants products\r\n    uint256 public restProdCount = 0;\r\n    mapping(uint256 => RestProduct) public restProducts;\r\n    struct RestProduct {\r\n        uint256 id;\r\n        string name;\r\n        uint256 price;\r\n        address payable owner;\r\n        bool published;\r\n        string imageHash;\r\n        uint256 soldCount;\r\n    }\r\n\r\n    struct RestProfile {\r\n        uint256 id;\r\n        string name;\r\n        string category;\r\n        string location;\r\n        string deliveryHours;\r\n        address payable owner;\r\n        string reviews;\r\n        uint256 rating;\r\n    }\r\n\r\n    // event RestProdCreated(\r\n    //     uint256 indexed id,\r\n    //     uint256 indexed date,\r\n    //     string name,\r\n    //     uint256 price,\r\n    //     address payable indexed owner,\r\n    //     bool purchased,\r\n    //     string imageHash\r\n    // );\r\n\r\n    // event SupplierProdCreated(\r\n    //     uint256 indexed id,\r\n    //     uint256 indexed date,\r\n    //     string name,\r\n    //     uint256 price,\r\n    //     address payable indexed owner,\r\n    //     bool purchased,\r\n    //     string imageHash\r\n    // );\r\n\r\n    function createSuppProduct(\r\n        string memory _name,\r\n        uint256 _price,\r\n        uint256 _size,\r\n        uint256 _minOrder,\r\n        bool _published,\r\n        string memory _imageHash\r\n    ) public {\r\n        // Require a valid name\r\n        require(bytes(_name).length > 0);\r\n        // Require a valid price\r\n        require(_price > 0);\r\n        // Increment product count\r\n        suppProdCount++;\r\n        // Create the product --- msg.sender is the one who accessed the function\r\n        suppProducts[suppProdCount] = SuppProduct(\r\n            suppProdCount,\r\n            _name,\r\n            _price,\r\n            _size,\r\n            _minOrder,\r\n            msg.sender,\r\n            _published,\r\n            _imageHash\r\n        );\r\n        //trigger an event\r\n        // emit SupplierProdCreated(\r\n        //     suppProdCount,\r\n        //     now,\r\n        //     _name,\r\n        //     _price,\r\n        //     msg.sender,\r\n        //     _published,\r\n        //     _imageHash\r\n        // );\r\n    }\r\n\r\n    function createRestProduct(\r\n        string memory _name,\r\n        uint256 _price,\r\n        bool _published,\r\n        string memory _imageHash\r\n    ) public {\r\n        // Require a valid name\r\n        require(bytes(_name).length > 0);\r\n        // Require a valid price\r\n        require(_price > 0);\r\n        // Increment product count\r\n        restProdCount++;\r\n        // Create the product --- msg.sender is the one who accessed the function\r\n        restProducts[restProdCount] = RestProduct(\r\n            restProdCount,\r\n            _name,\r\n            _price,\r\n            msg.sender,\r\n            _published,\r\n            _imageHash,\r\n            0\r\n        );\r\n        // Trigger an event\r\n        // emit RestProdCreated(\r\n        //     restProdCount,\r\n        //     now,\r\n        //     _name,\r\n        //     _price,\r\n        //     msg.sender,\r\n        //     _published,\r\n        //     _imageHash\r\n        // );\r\n    }\r\n\r\n    //ORDERS\r\n    enum Status {\r\n        OrderPlaced,\r\n        OrderConfirm,\r\n        RiderConfirm,\r\n        OrderCollected,\r\n        OrderCompleted,\r\n        OrderCancelled\r\n    }\r\n    Status public state;\r\n\r\n    struct Order {\r\n        uint256 id;\r\n        address owner;\r\n        address seller;\r\n        address rider;\r\n        uint256 hawkerPayment;\r\n        uint256 riderPayment;\r\n        uint256 totalPrice;\r\n        mapping(uint256 => CartItem) purchasedItemId;\r\n        uint256 purchasedItemCount;\r\n        string dateTime;\r\n        string deliveryDateTime;\r\n        Status state;\r\n        bool rated;\r\n    }\r\n\r\n    mapping(uint256 => Order) public orders;\r\n    uint256 public ordersCount;\r\n\r\n    struct CartItem {\r\n        uint256 id;\r\n        uint256 productId;\r\n        uint256 productQty;\r\n    }\r\n\r\n    //CUSTOMER\r\n    struct Customer {\r\n        uint256 id;\r\n        address owner;\r\n        string name;\r\n        string addressLocation;\r\n        string phone;\r\n        mapping(uint256 => CartItem) cartItems;\r\n        uint256 itemCount;\r\n    }\r\n\r\n    mapping(uint256 => Customer) public customers;\r\n    uint256 public customersCount;\r\n\r\n    function addCustomer(\r\n        address _owner,\r\n        string memory _name,\r\n        string memory _addressLocation,\r\n        string memory _phone\r\n    ) public {\r\n        require(msg.sender == _owner);\r\n        // require(msg.sender == address(_owner));\r\n        customersCount++;\r\n        customers[customersCount] = Customer(\r\n            customersCount,\r\n            msg.sender,\r\n            _name,\r\n            _addressLocation,\r\n            _phone,\r\n            0\r\n        );\r\n    }\r\n\r\n    function editCustProfile(\r\n        uint256 _id,\r\n        string memory _phone,\r\n        string memory _address\r\n    ) public {\r\n        customers[_id].phone = _phone;\r\n        customers[_id].addressLocation = _address;\r\n    }\r\n\r\n    function editSupplierProfile(\r\n        uint256 _id,\r\n        string memory _phone,\r\n        uint256 _moq,\r\n        uint256 _leadTime,\r\n        string memory _deliveryDays,\r\n        string memory _remarks\r\n    ) public {\r\n        suppliers[_id].phone = _phone;\r\n        suppliers[_id].MOQ = _moq;\r\n        suppliers[_id].leadTime = _leadTime;\r\n        suppliers[_id].deliveryDays = _deliveryDays;\r\n        suppliers[_id].remarks = _remarks;\r\n    }\r\n\r\n    function editProduct(\r\n        uint256 _productId,\r\n        string memory _name,\r\n        uint256 _price,\r\n        string memory _imageHash,\r\n        bool _published\r\n    ) public {\r\n        restProducts[_productId].name = _name;\r\n        restProducts[_productId].price = _price;\r\n        restProducts[_productId].imageHash = _imageHash;\r\n        restProducts[_productId].published = _published;\r\n    }\r\n\r\n    function editSuppProduct(\r\n        uint256 _productId,\r\n        string memory _name,\r\n        uint256 _price,\r\n        uint256 _size,\r\n        uint256 _minOrder,\r\n        string memory _imageHash,\r\n        bool _published\r\n    ) public {\r\n        suppProducts[_productId].name = _name;\r\n        suppProducts[_productId].price = _price;\r\n        suppProducts[_productId].size = _size;\r\n        suppProducts[_productId].minOrder = _minOrder;\r\n        suppProducts[_productId].imageHash = _imageHash;\r\n        suppProducts[_productId].published = _published;\r\n    }\r\n\r\n    function addToCart(\r\n        uint256 _custId,\r\n        uint256 _prodId,\r\n        uint256 _prodQty\r\n    ) public {\r\n        (customers[_custId].itemCount)++;\r\n        customers[_custId].cartItems[customers[_custId].itemCount] = CartItem(\r\n            customers[_custId].itemCount,\r\n            _prodId,\r\n            _prodQty\r\n        );\r\n    }\r\n\r\n    function addToCartHawker(\r\n        uint256 _hawkerId,\r\n        uint256 _prodId,\r\n        uint256 _prodQty\r\n    ) public {\r\n        (hawkers[_hawkerId].itemCount)++;\r\n        hawkers[_hawkerId].cartItems[hawkers[_hawkerId].itemCount] = CartItem(\r\n            hawkers[_hawkerId].itemCount,\r\n            _prodId,\r\n            _prodQty\r\n        );\r\n    }\r\n\r\n    function removeProdCart(uint256 custId, uint256 cartId) public {\r\n        Customer storage cust = customers[custId];\r\n        (cust.itemCount)--;\r\n        delete cust.cartItems[cartId];\r\n    }\r\n\r\n    // function deleteProduct(uint256 productId) public {\r\n    //     restProdCount--;\r\n    //     delete restProducts[productId];\r\n    // }\r\n\r\n    //indicator - 1 for customer, 2 for hawker\r\n    function removeAllProdCart(uint256 _id, uint256 _indicator) public {\r\n        if (_indicator == 1) {\r\n            Customer storage cust = customers[_id];\r\n            uint256 _itemCount = cust.itemCount;\r\n            for (uint256 i = 1; i <= _itemCount; i++) {\r\n                delete cust.cartItems[i];\r\n            }\r\n            (cust.itemCount) = 0;\r\n        } else {\r\n            Hawker storage hawker = hawkers[_id];\r\n            uint256 _itemCount = hawker.itemCount;\r\n            for (uint256 i = 1; i <= _itemCount; i++) {\r\n                delete hawker.cartItems[i];\r\n            }\r\n            (hawker.itemCount) = 0;\r\n        }\r\n    }\r\n\r\n    //if indicator is 1 then cust, 2 then hawker\r\n    function getCartProduct(\r\n        uint256 id,\r\n        uint256 cartId,\r\n        uint256 indicator\r\n    ) public returns (uint256, uint256) {\r\n        if (indicator == 1) {\r\n            Customer storage cust = customers[id];\r\n            return (\r\n                cust.cartItems[cartId].productId,\r\n                cust.cartItems[cartId].productQty\r\n            );\r\n        } else {\r\n            Hawker storage hawker = hawkers[id];\r\n            return (\r\n                hawker.cartItems[cartId].productId,\r\n                hawker.cartItems[cartId].productQty\r\n            );\r\n        }\r\n    }\r\n\r\n    function getOrderProduct(uint256 orderId, uint256 cartId)\r\n        public\r\n        returns (CartItem memory)\r\n    {\r\n        Order storage ord = orders[orderId];\r\n        uint256 prodId = ord.purchasedItemId[cartId].productId;\r\n        CartItem memory _cart = ord.purchasedItemId[cartId];\r\n        return (_cart);\r\n    }\r\n\r\n    function getHawkerFeedback(uint256 hawkerId, uint256 feedbackCount)\r\n        public\r\n        returns (Feedback memory)\r\n    {\r\n        Hawker storage hawker = hawkers[hawkerId];\r\n        Feedback memory _feedback = hawker.feedbacks[feedbackCount];\r\n        return (_feedback);\r\n    }\r\n\r\n    // function getFdFeedback(uint256 fdId, uint256 feedbackCount)\r\n    //     public\r\n    //     returns (Feedback memory)\r\n    // {\r\n    //     FoodDelivery storage fd = foodDeliveries[fdId];\r\n    //     Feedback memory _feedback = fd.feedbacks[feedbackCount];\r\n    //     return (_feedback);\r\n    // }\r\n\r\n    function setRating(\r\n        uint256 _orderId,\r\n        uint256 _hawkerId,\r\n        uint256 _hawkerRate,\r\n        string memory _hawkerComment,\r\n        uint256 _foodDeliveryId,\r\n        uint256 _fdRate,\r\n        string memory _fdComment\r\n    ) public {\r\n        orders[_orderId].rated = true;\r\n\r\n        //set hawker feedback\r\n        (hawkers[_hawkerId].feedbackCount)++;\r\n        hawkers[_hawkerId].feedbacks[\r\n            hawkers[_hawkerId].feedbackCount\r\n        ] = Feedback(\r\n            hawkers[_hawkerId].feedbackCount,\r\n            hawkers[_hawkerId].owner,\r\n            msg.sender,\r\n            _hawkerRate,\r\n            _hawkerComment\r\n        );\r\n        uint256 total = _hawkerRate + hawkers[_hawkerId].avgRating;\r\n        uint256 avg = total / (hawkers[_hawkerId].feedbackCount);\r\n        hawkers[_hawkerId].avgRating = avg;\r\n\r\n        //set fd feedback\r\n        (foodDeliveries[_foodDeliveryId].feedbackCount)++;\r\n        foodDeliveries[_foodDeliveryId].feedbacks[\r\n            foodDeliveries[_foodDeliveryId].feedbackCount\r\n        ] = Feedback(\r\n            foodDeliveries[_foodDeliveryId].feedbackCount,\r\n            foodDeliveries[_foodDeliveryId].owner,\r\n            msg.sender,\r\n            _fdRate,\r\n            _fdComment\r\n        );\r\n    }\r\n\r\n    function cancelOrder(uint256 _orderId, address payable _customer)\r\n        public\r\n        payable\r\n    {\r\n        orders[_orderId].state = Status.OrderCancelled;\r\n        address(_customer).transfer(orders[_orderId].totalPrice);\r\n    }\r\n\r\n    // event HawkerProdPurchased(\r\n    //     uint256 orderId,\r\n    //     address indexed buyer,\r\n    //     address indexed seller,\r\n    //     uint256 totalCost,\r\n    //     uint256 indexed date\r\n    // );\r\n\r\n    //indicator  1 - customer, 2 - hawker\r\n    function purchaseProduct(\r\n        uint256 _indicator,\r\n        uint256 _id,\r\n        address payable _seller,\r\n        uint256 _hawkerPayment,\r\n        uint256 _riderPayment,\r\n        uint256 _totalCost,\r\n        string memory _dateTime,\r\n        string memory _deliveryDateTime\r\n    ) public payable {\r\n        if (_indicator == 1) {\r\n            Customer memory cust = customers[_id];\r\n            // Increment order count\r\n            ordersCount++;\r\n            // Create the enum\r\n            state = Status.OrderPlaced;\r\n\r\n            // Create the order\r\n            orders[ordersCount] = Order(\r\n                ordersCount,\r\n                cust.owner,\r\n                _seller,\r\n                address(0),\r\n                _hawkerPayment,\r\n                _riderPayment,\r\n                _totalCost,\r\n                cust.itemCount,\r\n                _dateTime,\r\n                _deliveryDateTime,\r\n                state,\r\n                false\r\n            );\r\n\r\n            //add the items in cartItems(Customer structure) to purchasedItemId (Order structure)\r\n            for (uint256 i = 1; i <= cust.itemCount; i++) {\r\n                (uint256 item, uint256 qty) = getCartProduct(_id, i, 1);\r\n                orders[ordersCount].purchasedItemId[i] = CartItem(i, item, qty);\r\n\r\n                restProducts[item].soldCount++;\r\n            }\r\n\r\n            //Require that there is enough Ether in the transaction\r\n            require(msg.value >= _totalCost);\r\n\r\n            //remove the CartItem in the Customer id\r\n            removeAllProdCart(_id, 1);\r\n        } else {\r\n            Hawker memory hawker = hawkers[_id];\r\n            // Increment order count\r\n            ordersCount++;\r\n            // Create the enum\r\n            state = Status.OrderPlaced;\r\n\r\n            // Create the order\r\n            orders[ordersCount] = Order(\r\n                ordersCount,\r\n                hawker.owner,\r\n                _seller,\r\n                address(0),\r\n                _hawkerPayment,\r\n                _riderPayment,\r\n                _totalCost,\r\n                hawker.itemCount,\r\n                _dateTime,\r\n                _deliveryDateTime,\r\n                state,\r\n                false\r\n            );\r\n\r\n            //add the items in cartItems(Customer structure) to purchasedItemId (Order structure)\r\n            for (uint256 i = 1; i <= hawker.itemCount; i++) {\r\n                (uint256 item, uint256 qty) = getCartProduct(_id, i, 2);\r\n                orders[ordersCount].purchasedItemId[i] = CartItem(i, item, qty);\r\n\r\n                //restProducts[item].soldCount++;\r\n            }\r\n\r\n            //Require that there is enough Ether in the transaction\r\n            require(msg.value >= _totalCost);\r\n            removeAllProdCart(_id, 2);\r\n        }\r\n    }\r\n\r\n    //hawker confirms order transaction made by customer\r\n    function hawkerConfirmOrder(uint256 _orderId, string memory _estTime)\r\n        public\r\n    {\r\n        orders[_orderId].state = Status.OrderConfirm;\r\n        orders[_orderId].deliveryDateTime = _estTime;\r\n        // setOrderDeliveryTime(_orderId, _estTime);\r\n        //Pay the hawker\r\n        address(msg.sender).transfer(orders[_orderId].hawkerPayment);\r\n    }\r\n\r\n    //food delivery accepts order delivery\r\n    function fdAcceptOrder(uint256 _orderId) public {\r\n        //set orderId state to DriverConfirm\r\n        orders[_orderId].state = Status.RiderConfirm;\r\n        orders[_orderId].rider = msg.sender;\r\n    }\r\n\r\n    //food delivery collected order\r\n    function fdCollectedOrder(uint256 _orderId) public {\r\n        //set orderId state to OrderCompleted\r\n        orders[_orderId].state = Status.OrderCollected;\r\n    }\r\n\r\n    //food delivery completes order delivery\r\n    function fdCompleteOrder(\r\n        uint256 _orderId,\r\n        uint256 _fdId,\r\n        string memory _dateTime\r\n    ) public payable {\r\n        //set orderId state to OrderCompleted\r\n        orders[_orderId].state = Status.OrderCompleted;\r\n        orders[_orderId].deliveryDateTime = _dateTime;\r\n        //Pay the rider after completion\r\n        address(msg.sender).transfer(orders[_orderId].riderPayment);\r\n        (foodDeliveries[_fdId].ordersAcceptedCount)++;\r\n    }\r\n}\r\n",
  "sourcePath": "C:/Users/Casuarina/Desktop/FYP_FoodIndustry/blockchain/src/contracts/Marketplace.sol",
  "compiler": {
    "name": "solc",
    "version": "0.5.16+commit.9c3226ce.Emscripten.clang"
  },
  "schemaVersion": "3.4.1",
  "updatedAt": "2021-08-07T16:24:51.528Z",
  "networkType": "ethereum",
  "devdoc": {
    "methods": {}
  },
  "userdoc": {
    "methods": {}
  }
}