{
  "contractName": "Marketplace",
  "abi": [
    {
      "constant": true,
      "inputs": [
        {
          "internalType": "uint256",
          "name": "",
          "type": "uint256"
        }
      ],
      "name": "customers",
      "outputs": [
        {
          "internalType": "uint256",
          "name": "id",
          "type": "uint256"
        },
        {
          "internalType": "address",
          "name": "owner",
          "type": "address"
        },
        {
          "internalType": "string",
          "name": "name",
          "type": "string"
        },
        {
          "internalType": "string",
          "name": "addressLocation",
          "type": "string"
        },
        {
          "internalType": "string",
          "name": "phone",
          "type": "string"
        },
        {
          "internalType": "uint256",
          "name": "itemCount",
          "type": "uint256"
        }
      ],
      "payable": false,
      "stateMutability": "view",
      "type": "function"
    },
    {
      "constant": true,
      "inputs": [],
      "name": "customersCount",
      "outputs": [
        {
          "internalType": "uint256",
          "name": "",
          "type": "uint256"
        }
      ],
      "payable": false,
      "stateMutability": "view",
      "type": "function"
    },
    {
      "constant": true,
      "inputs": [
        {
          "internalType": "uint256",
          "name": "",
          "type": "uint256"
        }
      ],
      "name": "foodDeliveries",
      "outputs": [
        {
          "internalType": "uint256",
          "name": "id",
          "type": "uint256"
        },
        {
          "internalType": "address",
          "name": "owner",
          "type": "address"
        },
        {
          "internalType": "string",
          "name": "name",
          "type": "string"
        },
        {
          "internalType": "string",
          "name": "email",
          "type": "string"
        },
        {
          "internalType": "string",
          "name": "phone",
          "type": "string"
        },
        {
          "internalType": "int256",
          "name": "rating",
          "type": "int256"
        },
        {
          "internalType": "bool",
          "name": "available",
          "type": "bool"
        },
        {
          "internalType": "uint256",
          "name": "ordersAcceptedCount",
          "type": "uint256"
        },
        {
          "internalType": "uint256",
          "name": "feedbackCount",
          "type": "uint256"
        }
      ],
      "payable": false,
      "stateMutability": "view",
      "type": "function"
    },
    {
      "constant": true,
      "inputs": [],
      "name": "foodDeliveriesCount",
      "outputs": [
        {
          "internalType": "uint256",
          "name": "",
          "type": "uint256"
        }
      ],
      "payable": false,
      "stateMutability": "view",
      "type": "function"
    },
    {
      "constant": true,
      "inputs": [
        {
          "internalType": "uint256",
          "name": "",
          "type": "uint256"
        }
      ],
      "name": "hawkers",
      "outputs": [
        {
          "internalType": "uint256",
          "name": "id",
          "type": "uint256"
        },
        {
          "internalType": "address",
          "name": "owner",
          "type": "address"
        },
        {
          "internalType": "string",
          "name": "name",
          "type": "string"
        },
        {
          "internalType": "string",
          "name": "addressLocation",
          "type": "string"
        },
        {
          "internalType": "string",
          "name": "phone",
          "type": "string"
        },
        {
          "internalType": "string",
          "name": "openingHours",
          "type": "string"
        },
        {
          "internalType": "uint256",
          "name": "leadTime",
          "type": "uint256"
        },
        {
          "internalType": "uint256",
          "name": "avgRating",
          "type": "uint256"
        },
        {
          "internalType": "string",
          "name": "licenseHash",
          "type": "string"
        },
        {
          "internalType": "bool",
          "name": "open",
          "type": "bool"
        },
        {
          "internalType": "uint256",
          "name": "feedbackCount",
          "type": "uint256"
        },
        {
          "internalType": "uint256",
          "name": "itemCount",
          "type": "uint256"
        }
      ],
      "payable": false,
      "stateMutability": "view",
      "type": "function"
    },
    {
      "constant": true,
      "inputs": [],
      "name": "hawkersCount",
      "outputs": [
        {
          "internalType": "uint256",
          "name": "",
          "type": "uint256"
        }
      ],
      "payable": false,
      "stateMutability": "view",
      "type": "function"
    },
    {
      "constant": true,
      "inputs": [
        {
          "internalType": "uint256",
          "name": "",
          "type": "uint256"
        }
      ],
      "name": "orders",
      "outputs": [
        {
          "internalType": "uint256",
          "name": "id",
          "type": "uint256"
        },
        {
          "internalType": "address",
          "name": "owner",
          "type": "address"
        },
        {
          "internalType": "address",
          "name": "seller",
          "type": "address"
        },
        {
          "internalType": "address",
          "name": "rider",
          "type": "address"
        },
        {
          "internalType": "uint256",
          "name": "hawkerPayment",
          "type": "uint256"
        },
        {
          "internalType": "uint256",
          "name": "riderPayment",
          "type": "uint256"
        },
        {
          "internalType": "uint256",
          "name": "totalPrice",
          "type": "uint256"
        },
        {
          "internalType": "uint256",
          "name": "purchasedItemCount",
          "type": "uint256"
        },
        {
          "internalType": "string",
          "name": "dateTime",
          "type": "string"
        },
        {
          "internalType": "string",
          "name": "deliveryDateTime",
          "type": "string"
        },
        {
          "internalType": "enum Marketplace.Status",
          "name": "state",
          "type": "uint8"
        },
        {
          "internalType": "bool",
          "name": "rated",
          "type": "bool"
        }
      ],
      "payable": false,
      "stateMutability": "view",
      "type": "function"
    },
    {
      "constant": true,
      "inputs": [],
      "name": "ordersCount",
      "outputs": [
        {
          "internalType": "uint256",
          "name": "",
          "type": "uint256"
        }
      ],
      "payable": false,
      "stateMutability": "view",
      "type": "function"
    },
    {
      "constant": true,
      "inputs": [],
      "name": "restProdCount",
      "outputs": [
        {
          "internalType": "uint256",
          "name": "",
          "type": "uint256"
        }
      ],
      "payable": false,
      "stateMutability": "view",
      "type": "function"
    },
    {
      "constant": true,
      "inputs": [
        {
          "internalType": "uint256",
          "name": "",
          "type": "uint256"
        }
      ],
      "name": "restProducts",
      "outputs": [
        {
          "internalType": "uint256",
          "name": "id",
          "type": "uint256"
        },
        {
          "internalType": "string",
          "name": "name",
          "type": "string"
        },
        {
          "internalType": "uint256",
          "name": "price",
          "type": "uint256"
        },
        {
          "internalType": "address payable",
          "name": "owner",
          "type": "address"
        },
        {
          "internalType": "bool",
          "name": "published",
          "type": "bool"
        },
        {
          "internalType": "string",
          "name": "imageHash",
          "type": "string"
        },
        {
          "internalType": "uint256",
          "name": "soldCount",
          "type": "uint256"
        }
      ],
      "payable": false,
      "stateMutability": "view",
      "type": "function"
    },
    {
      "constant": true,
      "inputs": [],
      "name": "state",
      "outputs": [
        {
          "internalType": "enum Marketplace.Status",
          "name": "",
          "type": "uint8"
        }
      ],
      "payable": false,
      "stateMutability": "view",
      "type": "function"
    },
    {
      "constant": true,
      "inputs": [],
      "name": "suppProdCount",
      "outputs": [
        {
          "internalType": "uint256",
          "name": "",
          "type": "uint256"
        }
      ],
      "payable": false,
      "stateMutability": "view",
      "type": "function"
    },
    {
      "constant": true,
      "inputs": [
        {
          "internalType": "uint256",
          "name": "",
          "type": "uint256"
        }
      ],
      "name": "suppProducts",
      "outputs": [
        {
          "internalType": "uint256",
          "name": "id",
          "type": "uint256"
        },
        {
          "internalType": "string",
          "name": "name",
          "type": "string"
        },
        {
          "internalType": "uint256",
          "name": "price",
          "type": "uint256"
        },
        {
          "internalType": "uint256",
          "name": "size",
          "type": "uint256"
        },
        {
          "internalType": "uint256",
          "name": "minOrder",
          "type": "uint256"
        },
        {
          "internalType": "address payable",
          "name": "owner",
          "type": "address"
        },
        {
          "internalType": "bool",
          "name": "published",
          "type": "bool"
        },
        {
          "internalType": "string",
          "name": "imageHash",
          "type": "string"
        }
      ],
      "payable": false,
      "stateMutability": "view",
      "type": "function"
    },
    {
      "constant": true,
      "inputs": [
        {
          "internalType": "uint256",
          "name": "",
          "type": "uint256"
        }
      ],
      "name": "suppliers",
      "outputs": [
        {
          "internalType": "uint256",
          "name": "id",
          "type": "uint256"
        },
        {
          "internalType": "address",
          "name": "owner",
          "type": "address"
        },
        {
          "internalType": "string",
          "name": "name",
          "type": "string"
        },
        {
          "internalType": "string",
          "name": "email",
          "type": "string"
        },
        {
          "internalType": "string",
          "name": "addressLocation",
          "type": "string"
        },
        {
          "internalType": "string",
          "name": "phone",
          "type": "string"
        },
        {
          "internalType": "uint256",
          "name": "MOQ",
          "type": "uint256"
        },
        {
          "internalType": "uint256",
          "name": "leadTime",
          "type": "uint256"
        },
        {
          "internalType": "string",
          "name": "deliveryDays",
          "type": "string"
        },
        {
          "internalType": "string",
          "name": "remarks",
          "type": "string"
        },
        {
          "internalType": "uint256",
          "name": "avgRating",
          "type": "uint256"
        },
        {
          "internalType": "uint256",
          "name": "feedbackCount",
          "type": "uint256"
        }
      ],
      "payable": false,
      "stateMutability": "view",
      "type": "function"
    },
    {
      "constant": true,
      "inputs": [],
      "name": "suppliersCount",
      "outputs": [
        {
          "internalType": "uint256",
          "name": "",
          "type": "uint256"
        }
      ],
      "payable": false,
      "stateMutability": "view",
      "type": "function"
    },
    {
      "constant": false,
      "inputs": [
        {
          "internalType": "address",
          "name": "_owner",
          "type": "address"
        },
        {
          "internalType": "string",
          "name": "_name",
          "type": "string"
        },
        {
          "internalType": "string",
          "name": "_email",
          "type": "string"
        },
        {
          "internalType": "string",
          "name": "_phone",
          "type": "string"
        }
      ],
      "name": "addFoodDelivery",
      "outputs": [],
      "payable": false,
      "stateMutability": "nonpayable",
      "type": "function"
    },
    {
      "constant": false,
      "inputs": [
        {
          "internalType": "address",
          "name": "_owner",
          "type": "address"
        },
        {
          "internalType": "string",
          "name": "_name",
          "type": "string"
        },
        {
          "internalType": "string",
          "name": "_email",
          "type": "string"
        },
        {
          "internalType": "string",
          "name": "_addressLocation",
          "type": "string"
        },
        {
          "internalType": "string",
          "name": "_phone",
          "type": "string"
        },
        {
          "internalType": "uint256",
          "name": "_moq",
          "type": "uint256"
        },
        {
          "internalType": "uint256",
          "name": "_leadTime",
          "type": "uint256"
        },
        {
          "internalType": "string",
          "name": "_deliveryDays",
          "type": "string"
        },
        {
          "internalType": "string",
          "name": "_remarks",
          "type": "string"
        }
      ],
      "name": "addSupplier",
      "outputs": [],
      "payable": false,
      "stateMutability": "nonpayable",
      "type": "function"
    },
    {
      "constant": false,
      "inputs": [
        {
          "internalType": "address",
          "name": "_owner",
          "type": "address"
        },
        {
          "internalType": "string",
          "name": "_name",
          "type": "string"
        },
        {
          "internalType": "string",
          "name": "_addressLocation",
          "type": "string"
        },
        {
          "internalType": "string",
          "name": "_phone",
          "type": "string"
        },
        {
          "internalType": "string",
          "name": "_openingHours",
          "type": "string"
        },
        {
          "internalType": "uint256",
          "name": "_leadTime",
          "type": "uint256"
        },
        {
          "internalType": "string",
          "name": "_licenseHash",
          "type": "string"
        }
      ],
      "name": "addHawker",
      "outputs": [],
      "payable": false,
      "stateMutability": "nonpayable",
      "type": "function"
    },
    {
      "constant": false,
      "inputs": [
        {
          "internalType": "uint256",
          "name": "_id",
          "type": "uint256"
        },
        {
          "internalType": "string",
          "name": "_phone",
          "type": "string"
        },
        {
          "internalType": "string",
          "name": "_OH",
          "type": "string"
        },
        {
          "internalType": "uint256",
          "name": "_leadTime",
          "type": "uint256"
        }
      ],
      "name": "editHawkerProfile",
      "outputs": [],
      "payable": false,
      "stateMutability": "nonpayable",
      "type": "function"
    },
    {
      "constant": false,
      "inputs": [
        {
          "internalType": "uint256",
          "name": "_id",
          "type": "uint256"
        }
      ],
      "name": "boolOpen",
      "outputs": [],
      "payable": false,
      "stateMutability": "nonpayable",
      "type": "function"
    },
    {
      "constant": false,
      "inputs": [
        {
          "internalType": "uint256",
          "name": "_id",
          "type": "uint256"
        }
      ],
      "name": "boolWork",
      "outputs": [],
      "payable": false,
      "stateMutability": "nonpayable",
      "type": "function"
    },
    {
      "constant": false,
      "inputs": [
        {
          "internalType": "string",
          "name": "_name",
          "type": "string"
        },
        {
          "internalType": "uint256",
          "name": "_price",
          "type": "uint256"
        },
        {
          "internalType": "uint256",
          "name": "_size",
          "type": "uint256"
        },
        {
          "internalType": "uint256",
          "name": "_minOrder",
          "type": "uint256"
        },
        {
          "internalType": "bool",
          "name": "_published",
          "type": "bool"
        },
        {
          "internalType": "string",
          "name": "_imageHash",
          "type": "string"
        }
      ],
      "name": "createSuppProduct",
      "outputs": [],
      "payable": false,
      "stateMutability": "nonpayable",
      "type": "function"
    },
    {
      "constant": false,
      "inputs": [
        {
          "internalType": "string",
          "name": "_name",
          "type": "string"
        },
        {
          "internalType": "uint256",
          "name": "_price",
          "type": "uint256"
        },
        {
          "internalType": "bool",
          "name": "_published",
          "type": "bool"
        },
        {
          "internalType": "string",
          "name": "_imageHash",
          "type": "string"
        }
      ],
      "name": "createRestProduct",
      "outputs": [],
      "payable": false,
      "stateMutability": "nonpayable",
      "type": "function"
    },
    {
      "constant": false,
      "inputs": [
        {
          "internalType": "address",
          "name": "_owner",
          "type": "address"
        },
        {
          "internalType": "string",
          "name": "_name",
          "type": "string"
        },
        {
          "internalType": "string",
          "name": "_addressLocation",
          "type": "string"
        },
        {
          "internalType": "string",
          "name": "_phone",
          "type": "string"
        }
      ],
      "name": "addCustomer",
      "outputs": [],
      "payable": false,
      "stateMutability": "nonpayable",
      "type": "function"
    },
    {
      "constant": false,
      "inputs": [
        {
          "internalType": "uint256",
          "name": "_id",
          "type": "uint256"
        },
        {
          "internalType": "string",
          "name": "_phone",
          "type": "string"
        },
        {
          "internalType": "string",
          "name": "_address",
          "type": "string"
        }
      ],
      "name": "editCustProfile",
      "outputs": [],
      "payable": false,
      "stateMutability": "nonpayable",
      "type": "function"
    },
    {
      "constant": false,
      "inputs": [
        {
          "internalType": "uint256",
          "name": "_id",
          "type": "uint256"
        },
        {
          "internalType": "string",
          "name": "_phone",
          "type": "string"
        },
        {
          "internalType": "uint256",
          "name": "_moq",
          "type": "uint256"
        },
        {
          "internalType": "uint256",
          "name": "_leadTime",
          "type": "uint256"
        },
        {
          "internalType": "string",
          "name": "_deliveryDays",
          "type": "string"
        },
        {
          "internalType": "string",
          "name": "_remarks",
          "type": "string"
        }
      ],
      "name": "editSupplierProfile",
      "outputs": [],
      "payable": false,
      "stateMutability": "nonpayable",
      "type": "function"
    },
    {
      "constant": false,
      "inputs": [
        {
          "internalType": "uint256",
          "name": "_productId",
          "type": "uint256"
        },
        {
          "internalType": "string",
          "name": "_name",
          "type": "string"
        },
        {
          "internalType": "uint256",
          "name": "_price",
          "type": "uint256"
        },
        {
          "internalType": "string",
          "name": "_imageHash",
          "type": "string"
        },
        {
          "internalType": "bool",
          "name": "_published",
          "type": "bool"
        }
      ],
      "name": "editProduct",
      "outputs": [],
      "payable": false,
      "stateMutability": "nonpayable",
      "type": "function"
    },
    {
      "constant": false,
      "inputs": [
        {
          "internalType": "uint256",
          "name": "_productId",
          "type": "uint256"
        },
        {
          "internalType": "string",
          "name": "_name",
          "type": "string"
        },
        {
          "internalType": "uint256",
          "name": "_price",
          "type": "uint256"
        },
        {
          "internalType": "uint256",
          "name": "_size",
          "type": "uint256"
        },
        {
          "internalType": "uint256",
          "name": "_minOrder",
          "type": "uint256"
        },
        {
          "internalType": "string",
          "name": "_imageHash",
          "type": "string"
        },
        {
          "internalType": "bool",
          "name": "_published",
          "type": "bool"
        }
      ],
      "name": "editSuppProduct",
      "outputs": [],
      "payable": false,
      "stateMutability": "nonpayable",
      "type": "function"
    },
    {
      "constant": false,
      "inputs": [
        {
          "internalType": "uint256",
          "name": "_custId",
          "type": "uint256"
        },
        {
          "internalType": "uint256",
          "name": "_prodId",
          "type": "uint256"
        },
        {
          "internalType": "uint256",
          "name": "_prodQty",
          "type": "uint256"
        }
      ],
      "name": "addToCart",
      "outputs": [],
      "payable": false,
      "stateMutability": "nonpayable",
      "type": "function"
    },
    {
      "constant": false,
      "inputs": [
        {
          "internalType": "uint256",
          "name": "_hawkerId",
          "type": "uint256"
        },
        {
          "internalType": "uint256",
          "name": "_prodId",
          "type": "uint256"
        },
        {
          "internalType": "uint256",
          "name": "_prodQty",
          "type": "uint256"
        }
      ],
      "name": "addToCartHawker",
      "outputs": [],
      "payable": false,
      "stateMutability": "nonpayable",
      "type": "function"
    },
    {
      "constant": false,
      "inputs": [
        {
          "internalType": "uint256",
          "name": "custId",
          "type": "uint256"
        },
        {
          "internalType": "uint256",
          "name": "cartId",
          "type": "uint256"
        }
      ],
      "name": "removeProdCart",
      "outputs": [],
      "payable": false,
      "stateMutability": "nonpayable",
      "type": "function"
    },
    {
      "constant": false,
      "inputs": [
        {
          "internalType": "uint256",
          "name": "_id",
          "type": "uint256"
        },
        {
          "internalType": "uint256",
          "name": "_indicator",
          "type": "uint256"
        }
      ],
      "name": "removeAllProdCart",
      "outputs": [],
      "payable": false,
      "stateMutability": "nonpayable",
      "type": "function"
    },
    {
      "constant": false,
      "inputs": [
        {
          "internalType": "uint256",
          "name": "id",
          "type": "uint256"
        },
        {
          "internalType": "uint256",
          "name": "cartId",
          "type": "uint256"
        },
        {
          "internalType": "uint256",
          "name": "indicator",
          "type": "uint256"
        }
      ],
      "name": "getCartProduct",
      "outputs": [
        {
          "internalType": "uint256",
          "name": "",
          "type": "uint256"
        },
        {
          "internalType": "uint256",
          "name": "",
          "type": "uint256"
        }
      ],
      "payable": false,
      "stateMutability": "nonpayable",
      "type": "function"
    },
    {
      "constant": false,
      "inputs": [
        {
          "internalType": "uint256",
          "name": "orderId",
          "type": "uint256"
        },
        {
          "internalType": "uint256",
          "name": "cartId",
          "type": "uint256"
        }
      ],
      "name": "getOrderProduct",
      "outputs": [
        {
          "components": [
            {
              "internalType": "uint256",
              "name": "id",
              "type": "uint256"
            },
            {
              "internalType": "uint256",
              "name": "productId",
              "type": "uint256"
            },
            {
              "internalType": "uint256",
              "name": "productQty",
              "type": "uint256"
            }
          ],
          "internalType": "struct Marketplace.CartItem",
          "name": "",
          "type": "tuple"
        }
      ],
      "payable": false,
      "stateMutability": "nonpayable",
      "type": "function"
    },
    {
      "constant": false,
      "inputs": [
        {
          "internalType": "uint256",
          "name": "hawkerId",
          "type": "uint256"
        },
        {
          "internalType": "uint256",
          "name": "feedbackCount",
          "type": "uint256"
        }
      ],
      "name": "getHawkerFeedback",
      "outputs": [
        {
          "components": [
            {
              "internalType": "uint256",
              "name": "id",
              "type": "uint256"
            },
            {
              "internalType": "address",
              "name": "seller",
              "type": "address"
            },
            {
              "internalType": "address",
              "name": "customer",
              "type": "address"
            },
            {
              "internalType": "uint256",
              "name": "rate",
              "type": "uint256"
            },
            {
              "internalType": "string",
              "name": "comment",
              "type": "string"
            }
          ],
          "internalType": "struct Marketplace.Feedback",
          "name": "",
          "type": "tuple"
        }
      ],
      "payable": false,
      "stateMutability": "nonpayable",
      "type": "function"
    },
    {
      "constant": false,
      "inputs": [
        {
          "internalType": "uint256",
          "name": "_orderId",
          "type": "uint256"
        },
        {
          "internalType": "uint256",
          "name": "_hawkerId",
          "type": "uint256"
        },
        {
          "internalType": "uint256",
          "name": "_hawkerRate",
          "type": "uint256"
        },
        {
          "internalType": "string",
          "name": "_hawkerComment",
          "type": "string"
        },
        {
          "internalType": "uint256",
          "name": "_foodDeliveryId",
          "type": "uint256"
        },
        {
          "internalType": "uint256",
          "name": "_fdRate",
          "type": "uint256"
        },
        {
          "internalType": "string",
          "name": "_fdComment",
          "type": "string"
        }
      ],
      "name": "setRating",
      "outputs": [],
      "payable": false,
      "stateMutability": "nonpayable",
      "type": "function"
    },
    {
      "constant": false,
      "inputs": [
        {
          "internalType": "uint256",
          "name": "_orderId",
          "type": "uint256"
        },
        {
          "internalType": "address payable",
          "name": "_customer",
          "type": "address"
        }
      ],
      "name": "cancelOrder",
      "outputs": [],
      "payable": true,
      "stateMutability": "payable",
      "type": "function"
    },
    {
      "constant": false,
      "inputs": [
        {
          "internalType": "uint256",
          "name": "_indicator",
          "type": "uint256"
        },
        {
          "internalType": "uint256",
          "name": "_id",
          "type": "uint256"
        },
        {
          "internalType": "address payable",
          "name": "_seller",
          "type": "address"
        },
        {
          "internalType": "uint256",
          "name": "_hawkerPayment",
          "type": "uint256"
        },
        {
          "internalType": "uint256",
          "name": "_riderPayment",
          "type": "uint256"
        },
        {
          "internalType": "uint256",
          "name": "_totalCost",
          "type": "uint256"
        },
        {
          "internalType": "string",
          "name": "_dateTime",
          "type": "string"
        },
        {
          "internalType": "string",
          "name": "_deliveryDateTime",
          "type": "string"
        }
      ],
      "name": "purchaseProduct",
      "outputs": [],
      "payable": true,
      "stateMutability": "payable",
      "type": "function"
    },
    {
      "constant": false,
      "inputs": [
        {
          "internalType": "uint256",
          "name": "_orderId",
          "type": "uint256"
        },
        {
          "internalType": "string",
          "name": "_estTime",
          "type": "string"
        }
      ],
      "name": "hawkerConfirmOrder",
      "outputs": [],
      "payable": false,
      "stateMutability": "nonpayable",
      "type": "function"
    },
    {
      "constant": false,
      "inputs": [
        {
          "internalType": "uint256",
          "name": "_orderId",
          "type": "uint256"
        }
      ],
      "name": "fdAcceptOrder",
      "outputs": [],
      "payable": false,
      "stateMutability": "nonpayable",
      "type": "function"
    },
    {
      "constant": false,
      "inputs": [
        {
          "internalType": "uint256",
          "name": "_orderId",
          "type": "uint256"
        }
      ],
      "name": "fdCollectedOrder",
      "outputs": [],
      "payable": false,
      "stateMutability": "nonpayable",
      "type": "function"
    },
    {
      "constant": false,
      "inputs": [
        {
          "internalType": "uint256",
          "name": "_orderId",
          "type": "uint256"
        },
        {
          "internalType": "uint256",
          "name": "_fdId",
          "type": "uint256"
        }
      ],
      "name": "fdCompleteOrder",
      "outputs": [],
      "payable": true,
      "stateMutability": "payable",
      "type": "function"
    }
  ],
  "bytecode": "0x60806040526000600655600060085534801561001a57600080fd5b506159e7806200002b6000396000f3fe6080604052600436106102515760003560e01c8063995d7d9311610139578063cc3cb432116100b6578063e34960761161007a578063e349607614610912578063e6f65b4c1461093b578063f0bbfb0714610966578063f2e7e1951461098f578063f486fca2146109b8578063f75c2d88146109d457610251565b8063cc3cb4321461080b578063cea2312114610834578063d99b099c1461087c578063e16f14e2146108a5578063e24b0562146108e957610251565b8063abed579f116100fd578063abed579f146106f2578063b0fd5c4614610735578063bb474eab14610760578063c0abda2a1461079e578063c19d93fb146107e057610251565b8063995d7d93146106045780639a81fecc1461062d578063a6f849e714610656578063a85c38ef1461067f578063a9937b22146106c757610251565b806342dbaa8e116101d25780637188bf5c116101965780637188bf5c146105195780637323a7d314610542578063757a27031461055e5780637d9bbc73146105895780637e577ef6146105b25780638968bffd146105db57610251565b806342dbaa8e146104365780634368d1791461045f57806360b22e3c1461049c57806362fb1422146104c557806364a6b494146104ee57610251565b806330341437116102195780633034143714610355578063352e740c1461037157806335daa7311461039a5780633be94d47146103c55780634244c3d41461040d57610251565b8063093c05fa1461025657806309cd3f071461029b5780630c21a8d2146102c45780631460953c146102ef578063278e381c14610318575b600080fd5b34801561026257600080fd5b5061027d60048036036102789190810190614aa5565b6109fd565b604051610292999897969594939291906153ce565b60405180910390f35b3480156102a757600080fd5b506102c260048036036102bd91908101906149ec565b610c40565b005b3480156102d057600080fd5b506102d9610daa565b6040516102e691906152eb565b60405180910390f35b3480156102fb57600080fd5b5061031660048036036103119190810190614642565b610db0565b005b34801561032457600080fd5b5061033f600480360361033a9190810190614eb6565b610f10565b60405161034c91906152ae565b60405180910390f35b61036f600480360361036a9190810190614ef2565b610fa0565b005b34801561037d57600080fd5b5061039860048036036103939190810190614803565b611ce5565b005b3480156103a657600080fd5b506103af611ee9565b6040516103bc91906152eb565b60405180910390f35b3480156103d157600080fd5b506103ec60048036036103e79190810190614aa5565b611eef565b6040516104049c9b9a99989796959493929190615470565b60405180910390f35b34801561041957600080fd5b50610434600480360361042f9190810190614eb6565b612274565b005b34801561044257600080fd5b5061045d600480360361045891908101906146ed565b6122d5565b005b34801561046b57600080fd5b5061048660048036036104819190810190614eb6565b6124de565b60405161049391906152c9565b60405180910390f35b3480156104a857600080fd5b506104c360048036036104be9190810190614642565b612694565b005b3480156104d157600080fd5b506104ec60048036036104e79190810190614de8565b612840565b005b3480156104fa57600080fd5b5061050361291e565b60405161051091906152eb565b60405180910390f35b34801561052557600080fd5b50610540600480360361053b9190810190614aa5565b612924565b005b61055c60048036036105579190810190614ace565b612977565b005b34801561056a57600080fd5b50610573612a10565b60405161058091906152eb565b60405180910390f35b34801561059557600080fd5b506105b060048036036105ab9190810190614b5e565b612a16565b005b3480156105be57600080fd5b506105d960048036036105d49190810190614eb6565b612a71565b005b3480156105e757600080fd5b5061060260048036036105fd9190810190614c70565b612b74565b005b34801561061057600080fd5b5061062b60048036036106269190810190614aa5565b612c1a565b005b34801561063957600080fd5b50610654600480360361064f9190810190614fd4565b612caa565b005b34801561066257600080fd5b5061067d60048036036106789190810190614bdd565b612d64565b005b34801561068b57600080fd5b506106a660048036036106a19190810190614aa5565b612ddb565b6040516106be9c9b9a99989796959493929190615306565b60405180910390f35b3480156106d357600080fd5b506106dc612fe5565b6040516106e991906152eb565b60405180910390f35b3480156106fe57600080fd5b5061071960048036036107149190810190614aa5565b612feb565b60405161072c97969594939291906156a7565b60405180910390f35b34801561074157600080fd5b5061074a61318a565b60405161075791906152eb565b60405180910390f35b34801561076c57600080fd5b5061078760048036036107829190810190614fd4565b613190565b6040516107959291906157b0565b60405180910390f35b3480156107aa57600080fd5b506107c560048036036107c09190810190614aa5565b613246565b6040516107d796959493929190615631565b60405180910390f35b3480156107ec57600080fd5b506107f561346a565b6040516108029190615293565b60405180910390f35b34801561081757600080fd5b50610832600480360361082d9190810190614959565b61347d565b005b34801561084057600080fd5b5061085b60048036036108569190810190614aa5565b6135d5565b6040516108739c9b9a9998979695949392919061554d565b60405180910390f35b34801561088857600080fd5b506108a3600480360361089e9190810190614b0a565b6139e5565b005b3480156108b157600080fd5b506108cc60048036036108c79190810190614aa5565b613aa9565b6040516108e0989796959493929190615724565b60405180910390f35b3480156108f557600080fd5b50610910600480360361090b9190810190615023565b613c4e565b005b34801561091e57600080fd5b5061093960048036036109349190810190614aa5565b614067565b005b34801561094757600080fd5b506109506140bc565b60405161095d91906152eb565b60405180910390f35b34801561097257600080fd5b5061098d60048036036109889190810190614aa5565b6140c2565b005b34801561099b57600080fd5b506109b660048036036109b19190810190614d17565b6140fd565b005b6109d260048036036109cd9190810190614eb6565b6141bc565b005b3480156109e057600080fd5b506109fb60048036036109f69190810190614fd4565b61427a565b005b60006020528060005260406000206000915090508060000154908060010160009054906101000a900473ffffffffffffffffffffffffffffffffffffffff1690806002018054600181600116156101000203166002900480601f016020809104026020016040519081016040528092919081815260200182805460018160011615610100020316600290048015610ad55780601f10610aaa57610100808354040283529160200191610ad5565b820191906000526020600020905b815481529060010190602001808311610ab857829003601f168201915b505050505090806003018054600181600116156101000203166002900480601f016020809104026020016040519081016040528092919081815260200182805460018160011615610100020316600290048015610b735780601f10610b4857610100808354040283529160200191610b73565b820191906000526020600020905b815481529060010190602001808311610b5657829003601f168201915b505050505090806004018054600181600116156101000203166002900480601f016020809104026020016040519081016040528092919081815260200182805460018160011615610100020316600290048015610c115780601f10610be657610100808354040283529160200191610c11565b820191906000526020600020905b815481529060010190602001808311610bf457829003601f168201915b5050505050908060050154908060060160009054906101000a900460ff16908060070154908060090154905089565b6000865111610c4e57600080fd5b60008511610c5b57600080fd5b60066000815480929190600101919050555060405180610100016040528060065481526020018781526020018681526020018581526020018481526020013373ffffffffffffffffffffffffffffffffffffffff168152602001831515815260200182815250600760006006548152602001908152602001600020600082015181600001556020820151816001019080519060200190610cfc929190614334565b5060408201518160020155606082015181600301556080820151816004015560a08201518160050160006101000a81548173ffffffffffffffffffffffffffffffffffffffff021916908373ffffffffffffffffffffffffffffffffffffffff16021790555060c08201518160050160146101000a81548160ff02191690831515021790555060e0820151816006019080519060200190610d9e929190614334565b50905050505050505050565b600e5481565b8373ffffffffffffffffffffffffffffffffffffffff163373ffffffffffffffffffffffffffffffffffffffff1614610de857600080fd5b600e600081548092919060010191905055506040518060c00160405280600e5481526020013373ffffffffffffffffffffffffffffffffffffffff1681526020018481526020018381526020018281526020016000815250600d6000600e5481526020019081526020016000206000820151816000015560208201518160010160006101000a81548173ffffffffffffffffffffffffffffffffffffffff021916908373ffffffffffffffffffffffffffffffffffffffff1602179055506040820151816002019080519060200190610ec2929190614334565b506060820151816003019080519060200190610edf929190614334565b506080820151816004019080519060200190610efc929190614334565b5060a0820151816006015590505050505050565b610f186143b4565b6000600b600085815260200190815260200160002090506000816007016000858152602001908152602001600020600101549050610f546143b4565b8260070160008681526020019081526020016000206040518060600160405290816000820154815260200160018201548152602001600282015481525050905080935050505092915050565b600188141561159757610fb16143d5565b600d60008981526020019081526020016000206040518060c0016040529081600082015481526020016001820160009054906101000a900473ffffffffffffffffffffffffffffffffffffffff1673ffffffffffffffffffffffffffffffffffffffff1673ffffffffffffffffffffffffffffffffffffffff168152602001600282018054600181600116156101000203166002900480601f0160208091040260200160405190810160405280929190818152602001828054600181600116156101000203166002900480156110c85780601f1061109d576101008083540402835291602001916110c8565b820191906000526020600020905b8154815290600101906020018083116110ab57829003601f168201915b50505050508152602001600382018054600181600116156101000203166002900480601f01602080910402602001604051908101604052809291908181526020018280546001816001161561010002031660029004801561116a5780601f1061113f5761010080835404028352916020019161116a565b820191906000526020600020905b81548152906001019060200180831161114d57829003601f168201915b50505050508152602001600482018054600181600116156101000203166002900480601f01602080910402602001604051908101604052809291908181526020018280546001816001161561010002031660029004801561120c5780601f106111e15761010080835404028352916020019161120c565b820191906000526020600020905b8154815290600101906020018083116111ef57829003601f168201915b505050505081526020016006820154815250509050600c600081548092919060010191905055506000600a60006101000a81548160ff0219169083600581111561125257fe5b0217905550604051806101800160405280600c548152602001826020015173ffffffffffffffffffffffffffffffffffffffff1681526020018873ffffffffffffffffffffffffffffffffffffffff168152602001600073ffffffffffffffffffffffffffffffffffffffff1681526020018781526020018681526020018581526020018260a001518152602001848152602001838152602001600a60009054906101000a900460ff16600581111561130757fe5b815260200160001515815250600b6000600c5481526020019081526020016000206000820151816000015560208201518160010160006101000a81548173ffffffffffffffffffffffffffffffffffffffff021916908373ffffffffffffffffffffffffffffffffffffffff16021790555060408201518160020160006101000a81548173ffffffffffffffffffffffffffffffffffffffff021916908373ffffffffffffffffffffffffffffffffffffffff16021790555060608201518160030160006101000a81548173ffffffffffffffffffffffffffffffffffffffff021916908373ffffffffffffffffffffffffffffffffffffffff1602179055506080820151816004015560a0820151816005015560c0820151816006015560e0820151816008015561010082015181600901908051906020019061144c929190614334565b5061012082015181600a01908051906020019061146a929190614334565b5061014082015181600b0160006101000a81548160ff0219169083600581111561149057fe5b021790555061016082015181600b0160016101000a81548160ff0219169083151502179055509050506000600190505b8160a001518111611578576000806114da8b846001613190565b91509150604051806060016040528084815260200183815260200182815250600b6000600c54815260200190815260200160002060070160008581526020019081526020016000206000820151816000015560208201518160010155604082015181600201559050506009600083815260200190815260200160002060050160008154809291906001019190505550505080806001019150506114c0565b508334101561158657600080fd5b611591886001612a71565b50611cdb565b61159f614421565b6004600089815260200190815260200160002060405180610180016040529081600082015481526020016001820160009054906101000a900473ffffffffffffffffffffffffffffffffffffffff1673ffffffffffffffffffffffffffffffffffffffff1673ffffffffffffffffffffffffffffffffffffffff168152602001600282018054600181600116156101000203166002900480601f0160208091040260200160405190810160405280929190818152602001828054600181600116156101000203166002900480156116b75780601f1061168c576101008083540402835291602001916116b7565b820191906000526020600020905b81548152906001019060200180831161169a57829003601f168201915b50505050508152602001600382018054600181600116156101000203166002900480601f0160208091040260200160405190810160405280929190818152602001828054600181600116156101000203166002900480156117595780601f1061172e57610100808354040283529160200191611759565b820191906000526020600020905b81548152906001019060200180831161173c57829003601f168201915b50505050508152602001600482018054600181600116156101000203166002900480601f0160208091040260200160405190810160405280929190818152602001828054600181600116156101000203166002900480156117fb5780601f106117d0576101008083540402835291602001916117fb565b820191906000526020600020905b8154815290600101906020018083116117de57829003601f168201915b50505050508152602001600582018054600181600116156101000203166002900480601f01602080910402602001604051908101604052809291908181526020018280546001816001161561010002031660029004801561189d5780601f106118725761010080835404028352916020019161189d565b820191906000526020600020905b81548152906001019060200180831161188057829003601f168201915b505050505081526020016006820154815260200160078201548152602001600882018054600181600116156101000203166002900480601f0160208091040260200160405190810160405280929190818152602001828054600181600116156101000203166002900480156119535780601f1061192857610100808354040283529160200191611953565b820191906000526020600020905b81548152906001019060200180831161193657829003601f168201915b505050505081526020016009820160009054906101000a900460ff16151515158152602001600b8201548152602001600d820154815250509050600c600081548092919060010191905055506000600a60006101000a81548160ff021916908360058111156119be57fe5b0217905550604051806101800160405280600c548152602001826020015173ffffffffffffffffffffffffffffffffffffffff1681526020018873ffffffffffffffffffffffffffffffffffffffff168152602001600073ffffffffffffffffffffffffffffffffffffffff1681526020018781526020018681526020018581526020018261016001518152602001848152602001838152602001600a60009054906101000a900460ff166005811115611a7457fe5b815260200160001515815250600b6000600c5481526020019081526020016000206000820151816000015560208201518160010160006101000a81548173ffffffffffffffffffffffffffffffffffffffff021916908373ffffffffffffffffffffffffffffffffffffffff16021790555060408201518160020160006101000a81548173ffffffffffffffffffffffffffffffffffffffff021916908373ffffffffffffffffffffffffffffffffffffffff16021790555060608201518160030160006101000a81548173ffffffffffffffffffffffffffffffffffffffff021916908373ffffffffffffffffffffffffffffffffffffffff1602179055506080820151816004015560a0820151816005015560c0820151816006015560e08201518160080155610100820151816009019080519060200190611bb9929190614334565b5061012082015181600a019080519060200190611bd7929190614334565b5061014082015181600b0160006101000a81548160ff02191690836005811115611bfd57fe5b021790555061016082015181600b0160016101000a81548160ff0219169083151502179055509050506000600190505b8161016001518111611cc057600080611c488b846002613190565b91509150604051806060016040528084815260200183815260200182815250600b6000600c548152602001908152602001600020600701600085815260200190815260200160002060008201518160000155602082015181600101556040820151816002015590505050508080600101915050611c2d565b5083341015611cce57600080fd5b611cd9886002612a71565b505b5050505050505050565b8873ffffffffffffffffffffffffffffffffffffffff163373ffffffffffffffffffffffffffffffffffffffff1614611d1d57600080fd5b60036000815480929190600101919050555060405180610180016040528060035481526020013373ffffffffffffffffffffffffffffffffffffffff1681526020018981526020018881526020018781526020018681526020018581526020018481526020018381526020018281526020016000815260200160008152506002600060035481526020019081526020016000206000820151816000015560208201518160010160006101000a81548173ffffffffffffffffffffffffffffffffffffffff021916908373ffffffffffffffffffffffffffffffffffffffff1602179055506040820151816002019080519060200190611e1d929190614334565b506060820151816003019080519060200190611e3a929190614334565b506080820151816004019080519060200190611e57929190614334565b5060a0820151816005019080519060200190611e74929190614334565b5060c0820151816006015560e08201518160070155610100820151816008019080519060200190611ea6929190614334565b50610120820151816009019080519060200190611ec4929190614334565b5061014082015181600a015561016082015181600c0155905050505050505050505050565b600c5481565b60046020528060005260406000206000915090508060000154908060010160009054906101000a900473ffffffffffffffffffffffffffffffffffffffff1690806002018054600181600116156101000203166002900480601f016020809104026020016040519081016040528092919081815260200182805460018160011615610100020316600290048015611fc75780601f10611f9c57610100808354040283529160200191611fc7565b820191906000526020600020905b815481529060010190602001808311611faa57829003601f168201915b505050505090806003018054600181600116156101000203166002900480601f0160208091040260200160405190810160405280929190818152602001828054600181600116156101000203166002900480156120655780601f1061203a57610100808354040283529160200191612065565b820191906000526020600020905b81548152906001019060200180831161204857829003601f168201915b505050505090806004018054600181600116156101000203166002900480601f0160208091040260200160405190810160405280929190818152602001828054600181600116156101000203166002900480156121035780601f106120d857610100808354040283529160200191612103565b820191906000526020600020905b8154815290600101906020018083116120e657829003601f168201915b505050505090806005018054600181600116156101000203166002900480601f0160208091040260200160405190810160405280929190818152602001828054600181600116156101000203166002900480156121a15780601f10612176576101008083540402835291602001916121a1565b820191906000526020600020905b81548152906001019060200180831161218457829003601f168201915b505050505090806006015490806007015490806008018054600181600116156101000203166002900480601f01602080910402602001604051908101604052809291908181526020018280546001816001161561010002031660029004801561224b5780601f106122205761010080835404028352916020019161224b565b820191906000526020600020905b81548152906001019060200180831161222e57829003601f168201915b5050505050908060090160009054906101000a900460ff169080600b01549080600d015490508c565b6000600d60008481526020019081526020016000209050806006016000815480929190600190039190505550806005016000838152602001908152602001600020600080820160009055600182016000905560028201600090555050505050565b8673ffffffffffffffffffffffffffffffffffffffff163373ffffffffffffffffffffffffffffffffffffffff161461230d57600080fd5b60056000815480929190600101919050555060405180610180016040528060055481526020013373ffffffffffffffffffffffffffffffffffffffff168152602001878152602001868152602001858152602001848152602001838152602001600081526020018281526020016000151581526020016000815260200160008152506004600060055481526020019081526020016000206000820151816000015560208201518160010160006101000a81548173ffffffffffffffffffffffffffffffffffffffff021916908373ffffffffffffffffffffffffffffffffffffffff1602179055506040820151816002019080519060200190612411929190614334565b50606082015181600301908051906020019061242e929190614334565b50608082015181600401908051906020019061244b929190614334565b5060a0820151816005019080519060200190612468929190614334565b5060c0820151816006015560e0820151816007015561010082015181600801908051906020019061249a929190614334565b506101208201518160090160006101000a81548160ff02191690831515021790555061014082015181600b015561016082015181600d015590505050505050505050565b6124e661449a565b600060046000858152602001908152602001600020905061250561449a565b81600a0160008581526020019081526020016000206040518060a0016040529081600082015481526020016001820160009054906101000a900473ffffffffffffffffffffffffffffffffffffffff1673ffffffffffffffffffffffffffffffffffffffff1673ffffffffffffffffffffffffffffffffffffffff1681526020016002820160009054906101000a900473ffffffffffffffffffffffffffffffffffffffff1673ffffffffffffffffffffffffffffffffffffffff1673ffffffffffffffffffffffffffffffffffffffff16815260200160038201548152602001600482018054600181600116156101000203166002900480601f01602080910402602001604051908101604052809291908181526020018280546001816001161561010002031660029004801561267e5780601f106126535761010080835404028352916020019161267e565b820191906000526020600020905b81548152906001019060200180831161266157829003601f168201915b5050505050815250509050809250505092915050565b8373ffffffffffffffffffffffffffffffffffffffff163373ffffffffffffffffffffffffffffffffffffffff16146126cc57600080fd5b60016000815480929190600101919050555060405180610120016040528060015481526020013373ffffffffffffffffffffffffffffffffffffffff1681526020018481526020018381526020018281526020016005815260200160001515815260200160008152602001600081525060008060015481526020019081526020016000206000820151816000015560208201518160010160006101000a81548173ffffffffffffffffffffffffffffffffffffffff021916908373ffffffffffffffffffffffffffffffffffffffff16021790555060408201518160020190805190602001906127bd929190614334565b5060608201518160030190805190602001906127da929190614334565b5060808201518160040190805190602001906127f7929190614334565b5060a0820151816005015560c08201518160060160006101000a81548160ff02191690831515021790555060e08201518160070155610100820151816009015590505050505050565b8560076000898152602001908152602001600020600101908051906020019061286a9291906144f5565b50846007600089815260200190815260200160002060020181905550836007600089815260200190815260200160002060030181905550826007600089815260200190815260200160002060040181905550816007600089815260200190815260200160002060060190805190602001906128e69291906144f5565b50806007600089815260200190815260200160002060050160146101000a81548160ff02191690831515021790555050505050505050565b60035481565b60008082815260200190815260200160002060060160009054906101000a900460ff161560008083815260200190815260200160002060060160006101000a81548160ff02191690831515021790555050565b6005600b6000848152602001908152602001600020600b0160006101000a81548160ff021916908360058111156129aa57fe5b02179055508073ffffffffffffffffffffffffffffffffffffffff166108fc600b6000858152602001908152602001600020600601549081150290604051600060405180830381858888f19350505050158015612a0b573d6000803e3d6000fd5b505050565b60085481565b81600d60008581526020019081526020016000206004019080519060200190612a409291906144f5565b5080600d60008581526020019081526020016000206003019080519060200190612a6b9291906144f5565b50505050565b6001811415612af7576000600d600084815260200190815260200160002090506000816006015490506000600190505b818111612ae5578260050160008281526020019081526020016000206000808201600090556001820160009055600282016000905550508080600101915050612aa1565b50600082600601819055505050612b70565b6000600460008481526020019081526020016000209050600081600d015490506000600190505b818111612b625782600c0160008281526020019081526020016000206000808201600090556001820160009055600282016000905550508080600101915050612b1e565b50600082600d018190555050505b5050565b83600960008781526020019081526020016000206001019080519060200190612b9e9291906144f5565b5082600960008781526020019081526020016000206002018190555081600960008781526020019081526020016000206004019080519060200190612be49291906144f5565b50806009600087815260200190815260200160002060030160146101000a81548160ff0219169083151502179055505050505050565b6002600b6000838152602001908152602001600020600b0160006101000a81548160ff02191690836005811115612c4d57fe5b021790555033600b600083815260200190815260200160002060030160006101000a81548173ffffffffffffffffffffffffffffffffffffffff021916908373ffffffffffffffffffffffffffffffffffffffff16021790555050565b600d6000848152602001908152602001600020600601600081548092919060010191905055506040518060600160405280600d600086815260200190815260200160002060060154815260200183815260200182815250600d60008581526020019081526020016000206005016000600d6000878152602001908152602001600020600601548152602001908152602001600020600082015181600001556020820151816001015560408201518160020155905050505050565b82600460008681526020019081526020016000206004019080519060200190612d8e9291906144f5565b5081600460008681526020019081526020016000206005019080519060200190612db99291906144f5565b5080600460008681526020019081526020016000206006018190555050505050565b600b6020528060005260406000206000915090508060000154908060010160009054906101000a900473ffffffffffffffffffffffffffffffffffffffff16908060020160009054906101000a900473ffffffffffffffffffffffffffffffffffffffff16908060030160009054906101000a900473ffffffffffffffffffffffffffffffffffffffff1690806004015490806005015490806006015490806008015490806009018054600181600116156101000203166002900480601f016020809104026020016040519081016040528092919081815260200182805460018160011615610100020316600290048015612f175780601f10612eec57610100808354040283529160200191612f17565b820191906000526020600020905b815481529060010190602001808311612efa57829003601f168201915b50505050509080600a018054600181600116156101000203166002900480601f016020809104026020016040519081016040528092919081815260200182805460018160011615610100020316600290048015612fb55780601f10612f8a57610100808354040283529160200191612fb5565b820191906000526020600020905b815481529060010190602001808311612f9857829003601f168201915b50505050509080600b0160009054906101000a900460ff169080600b0160019054906101000a900460ff1690508c565b60065481565b6009602052806000526040600020600091509050806000015490806001018054600181600116156101000203166002900480601f01602080910402602001604051908101604052809291908181526020018280546001816001161561010002031660029004801561309d5780601f106130725761010080835404028352916020019161309d565b820191906000526020600020905b81548152906001019060200180831161308057829003601f168201915b5050505050908060020154908060030160009054906101000a900473ffffffffffffffffffffffffffffffffffffffff16908060030160149054906101000a900460ff1690806004018054600181600116156101000203166002900480601f01602080910402602001604051908101604052809291908181526020018280546001816001161561010002031660029004801561317a5780601f1061314f5761010080835404028352916020019161317a565b820191906000526020600020905b81548152906001019060200180831161315d57829003601f168201915b5050505050908060050154905087565b60015481565b60008060018314156131ef576000600d600087815260200190815260200160002090508060050160008681526020019081526020016000206001015481600501600087815260200190815260200160002060020154925092505061323e565b600060046000878152602001908152602001600020905080600c0160008681526020019081526020016000206001015481600c0160008781526020019081526020016000206002015492509250505b935093915050565b600d6020528060005260406000206000915090508060000154908060010160009054906101000a900473ffffffffffffffffffffffffffffffffffffffff1690806002018054600181600116156101000203166002900480601f01602080910402602001604051908101604052809291908181526020018280546001816001161561010002031660029004801561331e5780601f106132f35761010080835404028352916020019161331e565b820191906000526020600020905b81548152906001019060200180831161330157829003601f168201915b505050505090806003018054600181600116156101000203166002900480601f0160208091040260200160405190810160405280929190818152602001828054600181600116156101000203166002900480156133bc5780601f10613391576101008083540402835291602001916133bc565b820191906000526020600020905b81548152906001019060200180831161339f57829003601f168201915b505050505090806004018054600181600116156101000203166002900480601f01602080910402602001604051908101604052809291908181526020018280546001816001161561010002031660029004801561345a5780601f1061342f5761010080835404028352916020019161345a565b820191906000526020600020905b81548152906001019060200180831161343d57829003601f168201915b5050505050908060060154905086565b600a60009054906101000a900460ff1681565b600084511161348b57600080fd5b6000831161349857600080fd5b6008600081548092919060010191905055506040518060e0016040528060085481526020018581526020018481526020013373ffffffffffffffffffffffffffffffffffffffff16815260200183151581526020018281526020016000815250600960006008548152602001908152602001600020600082015181600001556020820151816001019080519060200190613533929190614334565b506040820151816002015560608201518160030160006101000a81548173ffffffffffffffffffffffffffffffffffffffff021916908373ffffffffffffffffffffffffffffffffffffffff16021790555060808201518160030160146101000a81548160ff02191690831515021790555060a08201518160040190805190602001906135c1929190614334565b5060c0820151816005015590505050505050565b60026020528060005260406000206000915090508060000154908060010160009054906101000a900473ffffffffffffffffffffffffffffffffffffffff1690806002018054600181600116156101000203166002900480601f0160208091040260200160405190810160405280929190818152602001828054600181600116156101000203166002900480156136ad5780601f10613682576101008083540402835291602001916136ad565b820191906000526020600020905b81548152906001019060200180831161369057829003601f168201915b505050505090806003018054600181600116156101000203166002900480601f01602080910402602001604051908101604052809291908181526020018280546001816001161561010002031660029004801561374b5780601f106137205761010080835404028352916020019161374b565b820191906000526020600020905b81548152906001019060200180831161372e57829003601f168201915b505050505090806004018054600181600116156101000203166002900480601f0160208091040260200160405190810160405280929190818152602001828054600181600116156101000203166002900480156137e95780601f106137be576101008083540402835291602001916137e9565b820191906000526020600020905b8154815290600101906020018083116137cc57829003601f168201915b505050505090806005018054600181600116156101000203166002900480601f0160208091040260200160405190810160405280929190818152602001828054600181600116156101000203166002900480156138875780601f1061385c57610100808354040283529160200191613887565b820191906000526020600020905b81548152906001019060200180831161386a57829003601f168201915b505050505090806006015490806007015490806008018054600181600116156101000203166002900480601f0160208091040260200160405190810160405280929190818152602001828054600181600116156101000203166002900480156139315780601f1061390657610100808354040283529160200191613931565b820191906000526020600020905b81548152906001019060200180831161391457829003601f168201915b505050505090806009018054600181600116156101000203166002900480601f0160208091040260200160405190810160405280929190818152602001828054600181600116156101000203166002900480156139cf5780601f106139a4576101008083540402835291602001916139cf565b820191906000526020600020905b8154815290600101906020018083116139b257829003601f168201915b50505050509080600a01549080600c015490508c565b6001600b6000848152602001908152602001600020600b0160006101000a81548160ff02191690836005811115613a1857fe5b021790555080600b6000848152602001908152602001600020600a019080519060200190613a479291906144f5565b503373ffffffffffffffffffffffffffffffffffffffff166108fc600b6000858152602001908152602001600020600401549081150290604051600060405180830381858888f19350505050158015613aa4573d6000803e3d6000fd5b505050565b6007602052806000526040600020600091509050806000015490806001018054600181600116156101000203166002900480601f016020809104026020016040519081016040528092919081815260200182805460018160011615610100020316600290048015613b5b5780601f10613b3057610100808354040283529160200191613b5b565b820191906000526020600020905b815481529060010190602001808311613b3e57829003601f168201915b5050505050908060020154908060030154908060040154908060050160009054906101000a900473ffffffffffffffffffffffffffffffffffffffff16908060050160149054906101000a900460ff1690806006018054600181600116156101000203166002900480601f016020809104026020016040519081016040528092919081815260200182805460018160011615610100020316600290048015613c445780601f10613c1957610100808354040283529160200191613c44565b820191906000526020600020905b815481529060010190602001808311613c2757829003601f168201915b5050505050905088565b6001600b6000898152602001908152602001600020600b0160016101000a81548160ff02191690831515021790555060046000878152602001908152602001600020600b01600081548092919060010191905055506040518060a0016040528060046000898152602001908152602001600020600b015481526020016004600089815260200190815260200160002060010160009054906101000a900473ffffffffffffffffffffffffffffffffffffffff1673ffffffffffffffffffffffffffffffffffffffff1681526020013373ffffffffffffffffffffffffffffffffffffffff1681526020018681526020018581525060046000888152602001908152602001600020600a016000600460008a8152602001908152602001600020600b015481526020019081526020016000206000820151816000015560208201518160010160006101000a81548173ffffffffffffffffffffffffffffffffffffffff021916908373ffffffffffffffffffffffffffffffffffffffff16021790555060408201518160020160006101000a81548173ffffffffffffffffffffffffffffffffffffffff021916908373ffffffffffffffffffffffffffffffffffffffff160217905550606082015181600301556080820151816004019080519060200190613e3d929190614334565b509050506000600460008881526020019081526020016000206007015486019050600060046000898152602001908152602001600020600b01548281613e7f57fe5b04905080600460008a815260200190815260200160002060070181905550600080868152602001908152602001600020600901600081548092919060010191905055506040518060a0016040528060008088815260200190815260200160002060090154815260200160008088815260200190815260200160002060010160009054906101000a900473ffffffffffffffffffffffffffffffffffffffff1673ffffffffffffffffffffffffffffffffffffffff1681526020013373ffffffffffffffffffffffffffffffffffffffff1681526020018581526020018481525060008087815260200190815260200160002060080160008060008981526020019081526020016000206009015481526020019081526020016000206000820151816000015560208201518160010160006101000a81548173ffffffffffffffffffffffffffffffffffffffff021916908373ffffffffffffffffffffffffffffffffffffffff16021790555060408201518160020160006101000a81548173ffffffffffffffffffffffffffffffffffffffff021916908373ffffffffffffffffffffffffffffffffffffffff160217905550606082015181600301556080820151816004019080519060200190614058929190614334565b50905050505050505050505050565b6004600082815260200190815260200160002060090160009054906101000a900460ff16156004600083815260200190815260200160002060090160006101000a81548160ff02191690831515021790555050565b60055481565b6003600b6000838152602001908152602001600020600b0160006101000a81548160ff021916908360058111156140f557fe5b021790555050565b846002600088815260200190815260200160002060050190805190602001906141279291906144f5565b50836002600088815260200190815260200160002060060181905550826002600088815260200190815260200160002060070181905550816002600088815260200190815260200160002060080190805190602001906141889291906144f5565b50806002600088815260200190815260200160002060090190805190602001906141b39291906144f5565b50505050505050565b6004600b6000848152602001908152602001600020600b0160006101000a81548160ff021916908360058111156141ef57fe5b02179055503373ffffffffffffffffffffffffffffffffffffffff166108fc600b6000858152602001908152602001600020600501549081150290604051600060405180830381858888f19350505050158015614250573d6000803e3d6000fd5b50600080828152602001908152602001600020600701600081548092919060010191905055505050565b60046000848152602001908152602001600020600d0160008154809291906001019190505550604051806060016040528060046000868152602001908152602001600020600d015481526020018381526020018281525060046000858152602001908152602001600020600c01600060046000878152602001908152602001600020600d01548152602001908152602001600020600082015181600001556020820151816001015560408201518160020155905050505050565b828054600181600116156101000203166002900490600052602060002090601f016020900481019282601f1061437557805160ff19168380011785556143a3565b828001600101855582156143a3579182015b828111156143a2578251825591602001919060010190614387565b5b5090506143b09190614575565b5090565b60405180606001604052806000815260200160008152602001600081525090565b6040518060c0016040528060008152602001600073ffffffffffffffffffffffffffffffffffffffff168152602001606081526020016060815260200160608152602001600081525090565b60405180610180016040528060008152602001600073ffffffffffffffffffffffffffffffffffffffff1681526020016060815260200160608152602001606081526020016060815260200160008152602001600081526020016060815260200160001515815260200160008152602001600081525090565b6040518060a0016040528060008152602001600073ffffffffffffffffffffffffffffffffffffffff168152602001600073ffffffffffffffffffffffffffffffffffffffff16815260200160008152602001606081525090565b828054600181600116156101000203166002900490600052602060002090601f016020900481019282601f1061453657805160ff1916838001178555614564565b82800160010185558215614564579182015b82811115614563578251825591602001919060010190614548565b5b5090506145719190614575565b5090565b61459791905b8082111561459357600081600090555060010161457b565b5090565b90565b6000813590506145a981615948565b92915050565b6000813590506145be8161595f565b92915050565b6000813590506145d381615976565b92915050565b600082601f8301126145ea57600080fd5b81356145fd6145f882615806565b6157d9565b9150808252602083016020830185838301111561461957600080fd5b6146248382846158e8565b50505092915050565b60008135905061463c8161598d565b92915050565b6000806000806080858703121561465857600080fd5b60006146668782880161459a565b945050602085013567ffffffffffffffff81111561468357600080fd5b61468f878288016145d9565b935050604085013567ffffffffffffffff8111156146ac57600080fd5b6146b8878288016145d9565b925050606085013567ffffffffffffffff8111156146d557600080fd5b6146e1878288016145d9565b91505092959194509250565b600080600080600080600060e0888a03121561470857600080fd5b60006147168a828b0161459a565b975050602088013567ffffffffffffffff81111561473357600080fd5b61473f8a828b016145d9565b965050604088013567ffffffffffffffff81111561475c57600080fd5b6147688a828b016145d9565b955050606088013567ffffffffffffffff81111561478557600080fd5b6147918a828b016145d9565b945050608088013567ffffffffffffffff8111156147ae57600080fd5b6147ba8a828b016145d9565b93505060a06147cb8a828b0161462d565b92505060c088013567ffffffffffffffff8111156147e857600080fd5b6147f48a828b016145d9565b91505092959891949750929550565b60008060008060008060008060006101208a8c03121561482257600080fd5b60006148308c828d0161459a565b99505060208a013567ffffffffffffffff81111561484d57600080fd5b6148598c828d016145d9565b98505060408a013567ffffffffffffffff81111561487657600080fd5b6148828c828d016145d9565b97505060608a013567ffffffffffffffff81111561489f57600080fd5b6148ab8c828d016145d9565b96505060808a013567ffffffffffffffff8111156148c857600080fd5b6148d48c828d016145d9565b95505060a06148e58c828d0161462d565b94505060c06148f68c828d0161462d565b93505060e08a013567ffffffffffffffff81111561491357600080fd5b61491f8c828d016145d9565b9250506101008a013567ffffffffffffffff81111561493d57600080fd5b6149498c828d016145d9565b9150509295985092959850929598565b6000806000806080858703121561496f57600080fd5b600085013567ffffffffffffffff81111561498957600080fd5b614995878288016145d9565b94505060206149a68782880161462d565b93505060406149b7878288016145c4565b925050606085013567ffffffffffffffff8111156149d457600080fd5b6149e0878288016145d9565b91505092959194509250565b60008060008060008060c08789031215614a0557600080fd5b600087013567ffffffffffffffff811115614a1f57600080fd5b614a2b89828a016145d9565b9650506020614a3c89828a0161462d565b9550506040614a4d89828a0161462d565b9450506060614a5e89828a0161462d565b9350506080614a6f89828a016145c4565b92505060a087013567ffffffffffffffff811115614a8c57600080fd5b614a9889828a016145d9565b9150509295509295509295565b600060208284031215614ab757600080fd5b6000614ac58482850161462d565b91505092915050565b60008060408385031215614ae157600080fd5b6000614aef8582860161462d565b9250506020614b00858286016145af565b9150509250929050565b60008060408385031215614b1d57600080fd5b6000614b2b8582860161462d565b925050602083013567ffffffffffffffff811115614b4857600080fd5b614b54858286016145d9565b9150509250929050565b600080600060608486031215614b7357600080fd5b6000614b818682870161462d565b935050602084013567ffffffffffffffff811115614b9e57600080fd5b614baa868287016145d9565b925050604084013567ffffffffffffffff811115614bc757600080fd5b614bd3868287016145d9565b9150509250925092565b60008060008060808587031215614bf357600080fd5b6000614c018782880161462d565b945050602085013567ffffffffffffffff811115614c1e57600080fd5b614c2a878288016145d9565b935050604085013567ffffffffffffffff811115614c4757600080fd5b614c53878288016145d9565b9250506060614c648782880161462d565b91505092959194509250565b600080600080600060a08688031215614c8857600080fd5b6000614c968882890161462d565b955050602086013567ffffffffffffffff811115614cb357600080fd5b614cbf888289016145d9565b9450506040614cd08882890161462d565b935050606086013567ffffffffffffffff811115614ced57600080fd5b614cf9888289016145d9565b9250506080614d0a888289016145c4565b9150509295509295909350565b60008060008060008060c08789031215614d3057600080fd5b6000614d3e89828a0161462d565b965050602087013567ffffffffffffffff811115614d5b57600080fd5b614d6789828a016145d9565b9550506040614d7889828a0161462d565b9450506060614d8989828a0161462d565b935050608087013567ffffffffffffffff811115614da657600080fd5b614db289828a016145d9565b92505060a087013567ffffffffffffffff811115614dcf57600080fd5b614ddb89828a016145d9565b9150509295509295509295565b600080600080600080600060e0888a031215614e0357600080fd5b6000614e118a828b0161462d565b975050602088013567ffffffffffffffff811115614e2e57600080fd5b614e3a8a828b016145d9565b9650506040614e4b8a828b0161462d565b9550506060614e5c8a828b0161462d565b9450506080614e6d8a828b0161462d565b93505060a088013567ffffffffffffffff811115614e8a57600080fd5b614e968a828b016145d9565b92505060c0614ea78a828b016145c4565b91505092959891949750929550565b60008060408385031215614ec957600080fd5b6000614ed78582860161462d565b9250506020614ee88582860161462d565b9150509250929050565b600080600080600080600080610100898b031215614f0f57600080fd5b6000614f1d8b828c0161462d565b9850506020614f2e8b828c0161462d565b9750506040614f3f8b828c016145af565b9650506060614f508b828c0161462d565b9550506080614f618b828c0161462d565b94505060a0614f728b828c0161462d565b93505060c089013567ffffffffffffffff811115614f8f57600080fd5b614f9b8b828c016145d9565b92505060e089013567ffffffffffffffff811115614fb857600080fd5b614fc48b828c016145d9565b9150509295985092959890939650565b600080600060608486031215614fe957600080fd5b6000614ff78682870161462d565b93505060206150088682870161462d565b92505060406150198682870161462d565b9150509250925092565b600080600080600080600060e0888a03121561503e57600080fd5b600061504c8a828b0161462d565b975050602061505d8a828b0161462d565b965050604061506e8a828b0161462d565b955050606088013567ffffffffffffffff81111561508b57600080fd5b6150978a828b016145d9565b94505060806150a88a828b0161462d565b93505060a06150b98a828b0161462d565b92505060c088013567ffffffffffffffff8111156150d657600080fd5b6150e28a828b016145d9565b91505092959891949750929550565b6150fa81615871565b82525050565b6151098161585f565b82525050565b6151188161585f565b82525050565b61512781615883565b82525050565b615136816158d6565b82525050565b615145816158a2565b82525050565b600061515682615832565b615160818561583d565b93506151708185602086016158f7565b6151798161592a565b840191505092915050565b600061518f82615832565b615199818561584e565b93506151a98185602086016158f7565b6151b28161592a565b840191505092915050565b6060820160008201516151d36000850182615275565b5060208201516151e66020850182615275565b5060408201516151f96040850182615275565b50505050565b600060a0830160008301516152176000860182615275565b50602083015161522a6020860182615100565b50604083015161523d6040860182615100565b5060608301516152506060860182615275565b5060808301518482036080860152615268828261514b565b9150508091505092915050565b61527e816158cc565b82525050565b61528d816158cc565b82525050565b60006020820190506152a8600083018461512d565b92915050565b60006060820190506152c360008301846151bd565b92915050565b600060208201905081810360008301526152e381846151ff565b905092915050565b60006020820190506153006000830184615284565b92915050565b60006101808201905061531c600083018f615284565b615329602083018e61510f565b615336604083018d61510f565b615343606083018c61510f565b615350608083018b615284565b61535d60a083018a615284565b61536a60c0830189615284565b61537760e0830188615284565b81810361010083015261538a8187615184565b905081810361012083015261539f8186615184565b90506153af61014083018561512d565b6153bd61016083018461511e565b9d9c50505050505050505050505050565b6000610120820190506153e4600083018c615284565b6153f1602083018b61510f565b8181036040830152615403818a615184565b905081810360608301526154178189615184565b9050818103608083015261542b8188615184565b905061543a60a083018761513c565b61544760c083018661511e565b61545460e0830185615284565b615462610100830184615284565b9a9950505050505050505050565b600061018082019050615486600083018f615284565b615493602083018e61510f565b81810360408301526154a5818d615184565b905081810360608301526154b9818c615184565b905081810360808301526154cd818b615184565b905081810360a08301526154e1818a615184565b90506154f060c0830189615284565b6154fd60e0830188615284565b8181036101008301526155108187615184565b905061552061012083018661511e565b61552e610140830185615284565b61553c610160830184615284565b9d9c50505050505050505050505050565b600061018082019050615563600083018f615284565b615570602083018e61510f565b8181036040830152615582818d615184565b90508181036060830152615596818c615184565b905081810360808301526155aa818b615184565b905081810360a08301526155be818a615184565b90506155cd60c0830189615284565b6155da60e0830188615284565b8181036101008301526155ed8187615184565b90508181036101208301526156028186615184565b9050615612610140830185615284565b615620610160830184615284565b9d9c50505050505050505050505050565b600060c0820190506156466000830189615284565b615653602083018861510f565b81810360408301526156658187615184565b905081810360608301526156798186615184565b9050818103608083015261568d8185615184565b905061569c60a0830184615284565b979650505050505050565b600060e0820190506156bc600083018a615284565b81810360208301526156ce8189615184565b90506156dd6040830188615284565b6156ea60608301876150f1565b6156f7608083018661511e565b81810360a08301526157098185615184565b905061571860c0830184615284565b98975050505050505050565b60006101008201905061573a600083018b615284565b818103602083015261574c818a615184565b905061575b6040830189615284565b6157686060830188615284565b6157756080830187615284565b61578260a08301866150f1565b61578f60c083018561511e565b81810360e08301526157a18184615184565b90509998505050505050505050565b60006040820190506157c56000830185615284565b6157d26020830184615284565b9392505050565b6000604051905081810181811067ffffffffffffffff821117156157fc57600080fd5b8060405250919050565b600067ffffffffffffffff82111561581d57600080fd5b601f19601f8301169050602081019050919050565b600081519050919050565b600082825260208201905092915050565b600082825260208201905092915050565b600061586a826158ac565b9050919050565b600061587c826158ac565b9050919050565b60008115159050919050565b600081905061589d8261593b565b919050565b6000819050919050565b600073ffffffffffffffffffffffffffffffffffffffff82169050919050565b6000819050919050565b60006158e18261588f565b9050919050565b82818337600083830152505050565b60005b838110156159155780820151818401526020810190506158fa565b83811115615924576000848401525b50505050565b6000601f19601f8301169050919050565b6006811061594557fe5b50565b6159518161585f565b811461595c57600080fd5b50565b61596881615871565b811461597357600080fd5b50565b61597f81615883565b811461598a57600080fd5b50565b615996816158cc565b81146159a157600080fd5b5056fea365627a7a7231582008387272148c652dff020303c22e7cffaabd910369ad631b320de1505bdec4046c6578706572696d656e74616cf564736f6c63430005100040",
  "source": "// SPDX-License-Identifier: Blockchain\r\n\r\npragma solidity ^0.5.4;\r\n\r\npragma experimental ABIEncoderV2;\r\n\r\ncontract Marketplace {\r\n    //constructor\r\n    // constructor() public {}\r\n\r\n    // event LogRefund(\r\n    //     address indexed receiver,\r\n    //     uint256 amount,\r\n    //     address indexed owner\r\n    // );\r\n\r\n    //FOOD DELIVERY\r\n    struct FoodDelivery {\r\n        uint256 id;\r\n        address owner;\r\n        string name;\r\n        string email;\r\n        string phone;\r\n        int256 rating;\r\n        bool available;\r\n        // mapping(uint256 => Order) ordersAccepted;\r\n        uint256 ordersAcceptedCount;\r\n        mapping(uint256 => Feedback) feedbacks;\r\n        uint256 feedbackCount;\r\n    }\r\n\r\n    // Read/write Food Delivery\r\n    mapping(uint256 => FoodDelivery) public foodDeliveries;\r\n    //Store Food Delivery Count\r\n    uint256 public foodDeliveriesCount;\r\n\r\n    //add new food delivery\r\n    function addFoodDelivery(\r\n        address _owner,\r\n        string memory _name,\r\n        string memory _email,\r\n        string memory _phone\r\n    ) public {\r\n        require(msg.sender == _owner);\r\n        // require(msg.sender == address(_owner));\r\n        foodDeliveriesCount++;\r\n        foodDeliveries[foodDeliveriesCount] = FoodDelivery(\r\n            foodDeliveriesCount,\r\n            msg.sender,\r\n            _name,\r\n            _email,\r\n            _phone,\r\n            5,\r\n            false,\r\n            0,\r\n            0\r\n        );\r\n    }\r\n\r\n    //SUPPLIER\r\n    struct Supplier {\r\n        uint256 id;\r\n        address owner;\r\n        string name;\r\n        string email;\r\n        string addressLocation;\r\n        string phone;\r\n        uint256 MOQ;\r\n        uint256 leadTime;\r\n        string deliveryDays;\r\n        string remarks;\r\n        uint256 avgRating;\r\n        mapping(uint256 => Feedback) feedbacks;\r\n        uint256 feedbackCount;\r\n    }\r\n\r\n    // Read/write Suppliers\r\n    mapping(uint256 => Supplier) public suppliers;\r\n    //Store Suppliers Count\r\n    uint256 public suppliersCount;\r\n\r\n    function addSupplier(\r\n        address _owner,\r\n        string memory _name,\r\n        string memory _email,\r\n        string memory _addressLocation,\r\n        string memory _phone,\r\n        uint256 _moq,\r\n        uint256 _leadTime,\r\n        string memory _deliveryDays,\r\n        string memory _remarks\r\n    ) public {\r\n        require(msg.sender == _owner);\r\n        // require(msg.sender == address(_owner));\r\n        suppliersCount++;\r\n        suppliers[suppliersCount] = Supplier(\r\n            suppliersCount,\r\n            msg.sender,\r\n            _name,\r\n            _email,\r\n            _addressLocation,\r\n            _phone,\r\n            _moq,\r\n            _leadTime,\r\n            _deliveryDays,\r\n            _remarks,\r\n            0,\r\n            0\r\n        );\r\n    }\r\n\r\n    //HAWKER\r\n    struct Hawker {\r\n        uint256 id;\r\n        address owner;\r\n        string name;\r\n        string addressLocation;\r\n        string phone;\r\n        string openingHours;\r\n        uint256 leadTime;\r\n        uint256 avgRating;\r\n        string licenseHash;\r\n        bool open;\r\n        mapping(uint256 => Feedback) feedbacks;\r\n        uint256 feedbackCount;\r\n        mapping(uint256 => CartItem) cartItems;\r\n        uint256 itemCount;\r\n    }\r\n\r\n    // Read/write Hawkers\r\n    mapping(uint256 => Hawker) public hawkers;\r\n    //Store Hawkers Count\r\n    uint256 public hawkersCount;\r\n\r\n    //FEEDBACK\r\n    struct Feedback {\r\n        uint256 id;\r\n        address seller;\r\n        address customer;\r\n        uint256 rate;\r\n        string comment;\r\n    }\r\n\r\n    function addHawker(\r\n        address _owner,\r\n        string memory _name,\r\n        string memory _addressLocation,\r\n        string memory _phone,\r\n        string memory _openingHours,\r\n        uint256 _leadTime,\r\n        string memory _licenseHash\r\n    ) public {\r\n        require(msg.sender == _owner);\r\n        // require(msg.sender == address(_owner));\r\n        hawkersCount++;\r\n        hawkers[hawkersCount] = Hawker(\r\n            hawkersCount,\r\n            msg.sender,\r\n            _name,\r\n            _addressLocation,\r\n            _phone,\r\n            _openingHours,\r\n            _leadTime,\r\n            0,\r\n            _licenseHash,\r\n            false,\r\n            0,\r\n            0\r\n        );\r\n    }\r\n\r\n    function editHawkerProfile(\r\n        uint256 _id,\r\n        string memory _phone,\r\n        string memory _OH,\r\n        uint256 _leadTime\r\n    ) public {\r\n        hawkers[_id].phone = _phone;\r\n        hawkers[_id].openingHours = _OH;\r\n        hawkers[_id].leadTime = _leadTime;\r\n    }\r\n\r\n    //change shop status\r\n    function boolOpen(uint256 _id) public {\r\n        hawkers[_id].open = !(hawkers[_id].open);\r\n    }\r\n\r\n    //change food delivery status\r\n    function boolWork(uint256 _id) public {\r\n        foodDeliveries[_id].available = !(foodDeliveries[_id].available);\r\n    }\r\n\r\n    //SUPPLIER\r\n    uint256 public suppProdCount = 0;\r\n    mapping(uint256 => SuppProduct) public suppProducts;\r\n    struct SuppProduct {\r\n        uint256 id;\r\n        string name;\r\n        uint256 price;\r\n        uint256 size;\r\n        uint256 minOrder;\r\n        address payable owner;\r\n        bool published;\r\n        string imageHash;\r\n    }\r\n    struct SuppProfile {\r\n        uint256 id;\r\n        string name;\r\n        string category;\r\n        string location;\r\n        string deliveryHours;\r\n        address payable owner;\r\n        string reviews;\r\n        uint256 rating;\r\n    }\r\n\r\n    //Restaurants products\r\n    uint256 public restProdCount = 0;\r\n    mapping(uint256 => RestProduct) public restProducts;\r\n    struct RestProduct {\r\n        uint256 id;\r\n        string name;\r\n        uint256 price;\r\n        address payable owner;\r\n        bool published;\r\n        string imageHash;\r\n        uint256 soldCount;\r\n    }\r\n\r\n    struct RestProfile {\r\n        uint256 id;\r\n        string name;\r\n        string category;\r\n        string location;\r\n        string deliveryHours;\r\n        address payable owner;\r\n        string reviews;\r\n        uint256 rating;\r\n    }\r\n\r\n    // event RestProdCreated(\r\n    //     uint256 indexed id,\r\n    //     uint256 indexed date,\r\n    //     string name,\r\n    //     uint256 price,\r\n    //     address payable indexed owner,\r\n    //     bool purchased,\r\n    //     string imageHash\r\n    // );\r\n\r\n    // event SupplierProdCreated(\r\n    //     uint256 indexed id,\r\n    //     uint256 indexed date,\r\n    //     string name,\r\n    //     uint256 price,\r\n    //     address payable indexed owner,\r\n    //     bool purchased,\r\n    //     string imageHash\r\n    // );\r\n\r\n    function createSuppProduct(\r\n        string memory _name,\r\n        uint256 _price,\r\n        uint256 _size,\r\n        uint256 _minOrder,\r\n        bool _published,\r\n        string memory _imageHash\r\n    ) public {\r\n        // Require a valid name\r\n        require(bytes(_name).length > 0);\r\n        // Require a valid price\r\n        require(_price > 0);\r\n        // Increment product count\r\n        suppProdCount++;\r\n        // Create the product --- msg.sender is the one who accessed the function\r\n        suppProducts[suppProdCount] = SuppProduct(\r\n            suppProdCount,\r\n            _name,\r\n            _price,\r\n            _size,\r\n            _minOrder,\r\n            msg.sender,\r\n            _published,\r\n            _imageHash\r\n        );\r\n        //trigger an event\r\n        // emit SupplierProdCreated(\r\n        //     suppProdCount,\r\n        //     now,\r\n        //     _name,\r\n        //     _price,\r\n        //     msg.sender,\r\n        //     _published,\r\n        //     _imageHash\r\n        // );\r\n    }\r\n\r\n    function createRestProduct(\r\n        string memory _name,\r\n        uint256 _price,\r\n        bool _published,\r\n        string memory _imageHash\r\n    ) public {\r\n        // Require a valid name\r\n        require(bytes(_name).length > 0);\r\n        // Require a valid price\r\n        require(_price > 0);\r\n        // Increment product count\r\n        restProdCount++;\r\n        // Create the product --- msg.sender is the one who accessed the function\r\n        restProducts[restProdCount] = RestProduct(\r\n            restProdCount,\r\n            _name,\r\n            _price,\r\n            msg.sender,\r\n            _published,\r\n            _imageHash,\r\n            0\r\n        );\r\n        // Trigger an event\r\n        // emit RestProdCreated(\r\n        //     restProdCount,\r\n        //     now,\r\n        //     _name,\r\n        //     _price,\r\n        //     msg.sender,\r\n        //     _published,\r\n        //     _imageHash\r\n        // );\r\n    }\r\n\r\n    //ORDERS\r\n    enum Status {\r\n        OrderPlaced,\r\n        OrderConfirm,\r\n        RiderConfirm,\r\n        OrderCollected,\r\n        OrderCompleted,\r\n        OrderCancelled\r\n    }\r\n    Status public state;\r\n\r\n    struct Order {\r\n        uint256 id;\r\n        address owner;\r\n        address seller;\r\n        address rider;\r\n        uint256 hawkerPayment;\r\n        uint256 riderPayment;\r\n        uint256 totalPrice;\r\n        mapping(uint256 => CartItem) purchasedItemId;\r\n        uint256 purchasedItemCount;\r\n        string dateTime;\r\n        string deliveryDateTime;\r\n        Status state;\r\n        bool rated;\r\n    }\r\n\r\n    mapping(uint256 => Order) public orders;\r\n    uint256 public ordersCount;\r\n\r\n    struct CartItem {\r\n        uint256 id;\r\n        uint256 productId;\r\n        uint256 productQty;\r\n    }\r\n\r\n    //CUSTOMER\r\n    struct Customer {\r\n        uint256 id;\r\n        address owner;\r\n        string name;\r\n        string addressLocation;\r\n        string phone;\r\n        mapping(uint256 => CartItem) cartItems;\r\n        uint256 itemCount;\r\n    }\r\n\r\n    mapping(uint256 => Customer) public customers;\r\n    uint256 public customersCount;\r\n\r\n    function addCustomer(\r\n        address _owner,\r\n        string memory _name,\r\n        string memory _addressLocation,\r\n        string memory _phone\r\n    ) public {\r\n        require(msg.sender == _owner);\r\n        // require(msg.sender == address(_owner));\r\n        customersCount++;\r\n        customers[customersCount] = Customer(\r\n            customersCount,\r\n            msg.sender,\r\n            _name,\r\n            _addressLocation,\r\n            _phone,\r\n            0\r\n        );\r\n    }\r\n\r\n    function editCustProfile(\r\n        uint256 _id,\r\n        string memory _phone,\r\n        string memory _address\r\n    ) public {\r\n        customers[_id].phone = _phone;\r\n        customers[_id].addressLocation = _address;\r\n    }\r\n\r\n    function editSupplierProfile(\r\n        uint256 _id,\r\n        string memory _phone,\r\n        uint256 _moq,\r\n        uint256 _leadTime,\r\n        string memory _deliveryDays,\r\n        string memory _remarks\r\n    ) public {\r\n        suppliers[_id].phone = _phone;\r\n        suppliers[_id].MOQ = _moq;\r\n        suppliers[_id].leadTime = _leadTime;\r\n        suppliers[_id].deliveryDays = _deliveryDays;\r\n        suppliers[_id].remarks = _remarks;\r\n    }\r\n\r\n    function editProduct(\r\n        uint256 _productId,\r\n        string memory _name,\r\n        uint256 _price,\r\n        string memory _imageHash,\r\n        bool _published\r\n    ) public {\r\n        restProducts[_productId].name = _name;\r\n        restProducts[_productId].price = _price;\r\n        restProducts[_productId].imageHash = _imageHash;\r\n        restProducts[_productId].published = _published;\r\n    }\r\n\r\n    function editSuppProduct(\r\n        uint256 _productId,\r\n        string memory _name,\r\n        uint256 _price,\r\n        uint256 _size,\r\n        uint256 _minOrder,\r\n        string memory _imageHash,\r\n        bool _published\r\n    ) public {\r\n        suppProducts[_productId].name = _name;\r\n        suppProducts[_productId].price = _price;\r\n        suppProducts[_productId].size = _size;\r\n        suppProducts[_productId].minOrder = _minOrder;\r\n        suppProducts[_productId].imageHash = _imageHash;\r\n        suppProducts[_productId].published = _published;\r\n    }\r\n\r\n    function addToCart(\r\n        uint256 _custId,\r\n        uint256 _prodId,\r\n        uint256 _prodQty\r\n    ) public {\r\n        (customers[_custId].itemCount)++;\r\n        customers[_custId].cartItems[customers[_custId].itemCount] = CartItem(\r\n            customers[_custId].itemCount,\r\n            _prodId,\r\n            _prodQty\r\n        );\r\n    }\r\n\r\n    function addToCartHawker(\r\n        uint256 _hawkerId,\r\n        uint256 _prodId,\r\n        uint256 _prodQty\r\n    ) public {\r\n        (hawkers[_hawkerId].itemCount)++;\r\n        hawkers[_hawkerId].cartItems[hawkers[_hawkerId].itemCount] = CartItem(\r\n            hawkers[_hawkerId].itemCount,\r\n            _prodId,\r\n            _prodQty\r\n        );\r\n    }\r\n\r\n    function removeProdCart(uint256 custId, uint256 cartId) public {\r\n        Customer storage cust = customers[custId];\r\n        (cust.itemCount)--;\r\n        delete cust.cartItems[cartId];\r\n    }\r\n\r\n    // function deleteProduct(uint256 productId) public {\r\n    //     restProdCount--;\r\n    //     delete restProducts[productId];\r\n    // }\r\n\r\n    //indicator - 1 for customer, 2 for hawker\r\n    function removeAllProdCart(uint256 _id, uint256 _indicator) public {\r\n        if (_indicator == 1) {\r\n            Customer storage cust = customers[_id];\r\n            uint256 _itemCount = cust.itemCount;\r\n            for (uint256 i = 1; i <= _itemCount; i++) {\r\n                delete cust.cartItems[i];\r\n            }\r\n            (cust.itemCount) = 0;\r\n        } else {\r\n            Hawker storage hawker = hawkers[_id];\r\n            uint256 _itemCount = hawker.itemCount;\r\n            for (uint256 i = 1; i <= _itemCount; i++) {\r\n                delete hawker.cartItems[i];\r\n            }\r\n            (hawker.itemCount) = 0;\r\n        }\r\n    }\r\n\r\n    //if indicator is 1 then cust, 2 then hawker\r\n    function getCartProduct(\r\n        uint256 id,\r\n        uint256 cartId,\r\n        uint256 indicator\r\n    ) public returns (uint256, uint256) {\r\n        if (indicator == 1) {\r\n            Customer storage cust = customers[id];\r\n            return (\r\n                cust.cartItems[cartId].productId,\r\n                cust.cartItems[cartId].productQty\r\n            );\r\n        } else {\r\n            Hawker storage hawker = hawkers[id];\r\n            return (\r\n                hawker.cartItems[cartId].productId,\r\n                hawker.cartItems[cartId].productQty\r\n            );\r\n        }\r\n    }\r\n\r\n    // function getOrderProduct2(uint256 orderId, uint256 cartId)\r\n    //     public\r\n    //     returns (uint256 productId, uint256 prodQty)\r\n    // {\r\n    //     Order storage ord = orders[orderId];\r\n    //     // uint256 prodId = ord.purchasedItemId[cartId].productId;\r\n    //     // RestProduct memory _product = restProducts[prodId];\r\n    //     // CartItem memory _cart = ord.purchasedItemId[cartId];\r\n    //     return (\r\n    //         ord.purchasedItemId[cartId].productId,\r\n    //         ord.purchasedItemId[cartId].productQty\r\n    //     );\r\n    // }\r\n\r\n    // function getOrderProduct(uint256 orderId, uint256 cartId)\r\n    //     public\r\n    //     returns (RestProduct memory, CartItem memory)\r\n    // {\r\n    //     Order storage ord = orders[orderId];\r\n    //     uint256 prodId = ord.purchasedItemId[cartId].productId;\r\n    //     RestProduct memory _product = restProducts[prodId];\r\n    //     CartItem memory _cart = ord.purchasedItemId[cartId];\r\n    //     return (_product, _cart);\r\n    // }\r\n\r\n    function getOrderProduct(uint256 orderId, uint256 cartId)\r\n        public\r\n        returns (CartItem memory)\r\n    {\r\n        Order storage ord = orders[orderId];\r\n        uint256 prodId = ord.purchasedItemId[cartId].productId;\r\n        CartItem memory _cart = ord.purchasedItemId[cartId];\r\n        return (_cart);\r\n    }\r\n\r\n    // function getOrderProductHawker(uint256 orderId, uint256 cartId)\r\n    //     public\r\n    //     returns (SuppProduct memory, CartItem memory)\r\n    // {\r\n    //     // Order storage ord = orders[orderId];\r\n    //     uint256 prodId = orders[orderId].purchasedItemId[cartId].productId;\r\n    //     SuppProduct memory _product = suppProducts[prodId];\r\n    //     CartItem memory _cart = orders[orderId].purchasedItemId[cartId];\r\n    //     return (_product, _cart);\r\n    // }\r\n\r\n    function getHawkerFeedback(uint256 hawkerId, uint256 feedbackCount)\r\n        public\r\n        returns (Feedback memory)\r\n    {\r\n        Hawker storage hawker = hawkers[hawkerId];\r\n        Feedback memory _feedback = hawker.feedbacks[feedbackCount];\r\n        return (_feedback);\r\n    }\r\n\r\n    // function getFdFeedback(uint256 fdId, uint256 feedbackCount)\r\n    //     public\r\n    //     returns (Feedback memory)\r\n    // {\r\n    //     FoodDelivery storage fd = foodDeliveries[fdId];\r\n    //     Feedback memory _feedback = fd.feedbacks[feedbackCount];\r\n    //     return (_feedback);\r\n    // }\r\n\r\n    function setRating(\r\n        uint256 _orderId,\r\n        uint256 _hawkerId,\r\n        uint256 _hawkerRate,\r\n        string memory _hawkerComment,\r\n        uint256 _foodDeliveryId,\r\n        uint256 _fdRate,\r\n        string memory _fdComment\r\n    ) public {\r\n        orders[_orderId].rated = true;\r\n\r\n        //set hawker feedback\r\n        (hawkers[_hawkerId].feedbackCount)++;\r\n        hawkers[_hawkerId].feedbacks[\r\n            hawkers[_hawkerId].feedbackCount\r\n        ] = Feedback(\r\n            hawkers[_hawkerId].feedbackCount,\r\n            hawkers[_hawkerId].owner,\r\n            msg.sender,\r\n            _hawkerRate,\r\n            _hawkerComment\r\n        );\r\n        uint256 total = _hawkerRate + hawkers[_hawkerId].avgRating;\r\n        uint256 avg = total / (hawkers[_hawkerId].feedbackCount);\r\n        hawkers[_hawkerId].avgRating = avg;\r\n\r\n        //set fd feedback\r\n        (foodDeliveries[_foodDeliveryId].feedbackCount)++;\r\n        foodDeliveries[_foodDeliveryId].feedbacks[\r\n            foodDeliveries[_foodDeliveryId].feedbackCount\r\n        ] = Feedback(\r\n            foodDeliveries[_foodDeliveryId].feedbackCount,\r\n            foodDeliveries[_foodDeliveryId].owner,\r\n            msg.sender,\r\n            _fdRate,\r\n            _fdComment\r\n        );\r\n    }\r\n\r\n    function cancelOrder(uint256 _orderId, address payable _customer)\r\n        public\r\n        payable\r\n    {\r\n        orders[_orderId].state = Status.OrderCancelled;\r\n        address(_customer).transfer(orders[_orderId].totalPrice);\r\n    }\r\n\r\n    // event HawkerProdPurchased(\r\n    //     uint256 orderId,\r\n    //     address indexed buyer,\r\n    //     address indexed seller,\r\n    //     uint256 totalCost,\r\n    //     uint256 indexed date\r\n    // );\r\n\r\n    // function purchaseProduct(\r\n    //     uint256 _custId,\r\n    //     address payable _seller,\r\n    //     uint256 _hawkerPayment,\r\n    //     uint256 _riderPayment,\r\n    //     uint256 _totalCost,\r\n    //     string memory _date,\r\n    //     string memory _time\r\n    // ) public payable {\r\n    //     Customer memory cust = customers[_custId];\r\n    //     // Increment order count\r\n    //     ordersCount++;\r\n    //     // Create the enum\r\n    //     state = Status.OrderPlaced;\r\n\r\n    //     // Create the order\r\n    //     orders[ordersCount] = Order(\r\n    //         ordersCount,\r\n    //         cust.owner,\r\n    //         _seller,\r\n    //         address(0),\r\n    //         _hawkerPayment,\r\n    //         _riderPayment,\r\n    //         _totalCost,\r\n    //         cust.itemCount,\r\n    //         _date,\r\n    //         _time,\r\n    //         state,\r\n    //         false\r\n    //     );\r\n\r\n    //     //add the items in cartItems(Customer structure) to purchasedItemId (Order structure)\r\n    //     for (uint256 i = 1; i <= cust.itemCount; i++) {\r\n    //         (uint256 item, uint256 qty) = getCartProduct(_custId, i, 1);\r\n    //         orders[ordersCount].purchasedItemId[i] = CartItem(i, item, qty);\r\n\r\n    //         restProducts[item].soldCount++;\r\n    //     }\r\n\r\n    //     //Require that there is enough Ether in the transaction\r\n    //     require(msg.value >= _totalCost);\r\n\r\n    //     //remove the CartItem in the Customer id\r\n    //     removeAllProdCart(_custId);\r\n\r\n    //     // //Trigger an event\r\n    //     // emit HawkerProdPurchased(\r\n    //     //     ordersCount,\r\n    //     //     cust.owner,\r\n    //     //     _seller,\r\n    //     //     _totalCost,\r\n    //     //     now\r\n    //     // );\r\n    // }\r\n\r\n    //indicator  1 - customer, 2 - hawker\r\n    function purchaseProduct(\r\n        uint256 _indicator,\r\n        uint256 _id,\r\n        address payable _seller,\r\n        uint256 _hawkerPayment,\r\n        uint256 _riderPayment,\r\n        uint256 _totalCost,\r\n        string memory _dateTime,\r\n        string memory _deliveryDateTime\r\n    ) public payable {\r\n        if (_indicator == 1) {\r\n            Customer memory cust = customers[_id];\r\n            // Increment order count\r\n            ordersCount++;\r\n            // Create the enum\r\n            state = Status.OrderPlaced;\r\n\r\n            // Create the order\r\n            orders[ordersCount] = Order(\r\n                ordersCount,\r\n                cust.owner,\r\n                _seller,\r\n                address(0),\r\n                _hawkerPayment,\r\n                _riderPayment,\r\n                _totalCost,\r\n                cust.itemCount,\r\n                _dateTime,\r\n                _deliveryDateTime,\r\n                state,\r\n                false\r\n            );\r\n\r\n            //add the items in cartItems(Customer structure) to purchasedItemId (Order structure)\r\n            for (uint256 i = 1; i <= cust.itemCount; i++) {\r\n                (uint256 item, uint256 qty) = getCartProduct(_id, i, 1);\r\n                orders[ordersCount].purchasedItemId[i] = CartItem(i, item, qty);\r\n\r\n                restProducts[item].soldCount++;\r\n            }\r\n\r\n            //Require that there is enough Ether in the transaction\r\n            require(msg.value >= _totalCost);\r\n\r\n            //remove the CartItem in the Customer id\r\n            removeAllProdCart(_id, 1);\r\n        } else {\r\n            Hawker memory hawker = hawkers[_id];\r\n            // Increment order count\r\n            ordersCount++;\r\n            // Create the enum\r\n            state = Status.OrderPlaced;\r\n\r\n            // Create the order\r\n            orders[ordersCount] = Order(\r\n                ordersCount,\r\n                hawker.owner,\r\n                _seller,\r\n                address(0),\r\n                _hawkerPayment,\r\n                _riderPayment,\r\n                _totalCost,\r\n                hawker.itemCount,\r\n                _dateTime,\r\n                _deliveryDateTime,\r\n                state,\r\n                false\r\n            );\r\n\r\n            //add the items in cartItems(Customer structure) to purchasedItemId (Order structure)\r\n            for (uint256 i = 1; i <= hawker.itemCount; i++) {\r\n                (uint256 item, uint256 qty) = getCartProduct(_id, i, 2);\r\n                orders[ordersCount].purchasedItemId[i] = CartItem(i, item, qty);\r\n\r\n                //restProducts[item].soldCount++;\r\n            }\r\n\r\n            //Require that there is enough Ether in the transaction\r\n            require(msg.value >= _totalCost);\r\n            removeAllProdCart(_id, 2);\r\n        }\r\n    }\r\n\r\n    //hawker confirms order transaction made by customer\r\n    function hawkerConfirmOrder(uint256 _orderId, string memory _estTime)\r\n        public\r\n    {\r\n        orders[_orderId].state = Status.OrderConfirm;\r\n        orders[_orderId].deliveryDateTime = _estTime;\r\n        // setOrderDeliveryTime(_orderId, _estTime);\r\n        //Pay the hawker\r\n        address(msg.sender).transfer(orders[_orderId].hawkerPayment);\r\n    }\r\n\r\n    //food delivery accepts order delivery\r\n    function fdAcceptOrder(uint256 _orderId) public {\r\n        //set orderId state to DriverConfirm\r\n        orders[_orderId].state = Status.RiderConfirm;\r\n        orders[_orderId].rider = msg.sender;\r\n    }\r\n\r\n    //food delivery collected order\r\n    function fdCollectedOrder(uint256 _orderId) public {\r\n        //set orderId state to OrderCompleted\r\n        orders[_orderId].state = Status.OrderCollected;\r\n    }\r\n\r\n    //food delivery completes order delivery\r\n    function fdCompleteOrder(uint256 _orderId, uint256 _fdId) public payable {\r\n        //set orderId state to OrderCompleted\r\n        orders[_orderId].state = Status.OrderCompleted;\r\n        //Pay the rider after completion\r\n        address(msg.sender).transfer(orders[_orderId].riderPayment);\r\n        (foodDeliveries[_fdId].ordersAcceptedCount)++;\r\n    }\r\n}\r\n",
  "sourcePath": "C:/Users/Casuarina/Desktop/FYP_FoodIndustry/blockchain/src/contracts/Marketplace.sol",
  "compiler": {
    "name": "solc",
    "version": "0.5.16+commit.9c3226ce.Emscripten.clang"
  },
  "schemaVersion": "3.4.1",
  "updatedAt": "2021-08-03T13:51:23.515Z",
  "networkType": "ethereum",
  "devdoc": {
    "methods": {}
  },
  "userdoc": {
    "methods": {}
  }
}