{
  "contractName": "Marketplace",
  "abi": [
    {
      "inputs": [],
      "payable": false,
      "stateMutability": "nonpayable",
      "type": "constructor"
    },
    {
      "anonymous": false,
      "inputs": [
        {
          "indexed": false,
          "internalType": "uint256",
          "name": "id",
          "type": "uint256"
        },
        {
          "indexed": false,
          "internalType": "string",
          "name": "name",
          "type": "string"
        },
        {
          "indexed": false,
          "internalType": "uint256",
          "name": "price",
          "type": "uint256"
        },
        {
          "indexed": false,
          "internalType": "address payable",
          "name": "owner",
          "type": "address"
        },
        {
          "indexed": false,
          "internalType": "bool",
          "name": "purchased",
          "type": "bool"
        }
      ],
      "name": "ProductCreated",
      "type": "event"
    },
    {
      "anonymous": false,
      "inputs": [
        {
          "indexed": false,
          "internalType": "uint256",
          "name": "id",
          "type": "uint256"
        },
        {
          "indexed": false,
          "internalType": "string",
          "name": "name",
          "type": "string"
        },
        {
          "indexed": false,
          "internalType": "uint256",
          "name": "price",
          "type": "uint256"
        },
        {
          "indexed": false,
          "internalType": "address payable",
          "name": "owner",
          "type": "address"
        },
        {
          "indexed": false,
          "internalType": "bool",
          "name": "purchased",
          "type": "bool"
        }
      ],
      "name": "ProductPurchased",
      "type": "event"
    },
    {
      "constant": true,
      "inputs": [],
      "name": "hawkerAddress",
      "outputs": [
        {
          "internalType": "string",
          "name": "",
          "type": "string"
        }
      ],
      "payable": false,
      "stateMutability": "view",
      "type": "function"
    },
    {
      "constant": true,
      "inputs": [],
      "name": "hawkerName",
      "outputs": [
        {
          "internalType": "string",
          "name": "",
          "type": "string"
        }
      ],
      "payable": false,
      "stateMutability": "view",
      "type": "function"
    },
    {
      "constant": true,
      "inputs": [],
      "name": "hawkerOpeningHours",
      "outputs": [
        {
          "internalType": "string",
          "name": "",
          "type": "string"
        }
      ],
      "payable": false,
      "stateMutability": "view",
      "type": "function"
    },
    {
      "constant": true,
      "inputs": [],
      "name": "hawkerPhone",
      "outputs": [
        {
          "internalType": "string",
          "name": "",
          "type": "string"
        }
      ],
      "payable": false,
      "stateMutability": "view",
      "type": "function"
    },
    {
      "constant": true,
      "inputs": [],
      "name": "name",
      "outputs": [
        {
          "internalType": "string",
          "name": "",
          "type": "string"
        }
      ],
      "payable": false,
      "stateMutability": "view",
      "type": "function"
    },
    {
      "constant": true,
      "inputs": [],
      "name": "restProdCount",
      "outputs": [
        {
          "internalType": "uint256",
          "name": "",
          "type": "uint256"
        }
      ],
      "payable": false,
      "stateMutability": "view",
      "type": "function"
    },
    {
      "constant": true,
      "inputs": [
        {
          "internalType": "uint256",
          "name": "",
          "type": "uint256"
        }
      ],
      "name": "restProducts",
      "outputs": [
        {
          "internalType": "uint256",
          "name": "id",
          "type": "uint256"
        },
        {
          "internalType": "string",
          "name": "name",
          "type": "string"
        },
        {
          "internalType": "uint256",
          "name": "price",
          "type": "uint256"
        },
        {
          "internalType": "address payable",
          "name": "owner",
          "type": "address"
        },
        {
          "internalType": "bool",
          "name": "purchased",
          "type": "bool"
        }
      ],
      "payable": false,
      "stateMutability": "view",
      "type": "function"
    },
    {
      "constant": true,
      "inputs": [],
      "name": "suppProdCount",
      "outputs": [
        {
          "internalType": "uint256",
          "name": "",
          "type": "uint256"
        }
      ],
      "payable": false,
      "stateMutability": "view",
      "type": "function"
    },
    {
      "constant": true,
      "inputs": [
        {
          "internalType": "uint256",
          "name": "",
          "type": "uint256"
        }
      ],
      "name": "suppProducts",
      "outputs": [
        {
          "internalType": "uint256",
          "name": "id",
          "type": "uint256"
        },
        {
          "internalType": "string",
          "name": "name",
          "type": "string"
        },
        {
          "internalType": "uint256",
          "name": "price",
          "type": "uint256"
        },
        {
          "internalType": "address payable",
          "name": "owner",
          "type": "address"
        },
        {
          "internalType": "bool",
          "name": "purchased",
          "type": "bool"
        }
      ],
      "payable": false,
      "stateMutability": "view",
      "type": "function"
    },
    {
      "constant": true,
      "inputs": [],
      "name": "returnString",
      "outputs": [
        {
          "internalType": "string",
          "name": "",
          "type": "string"
        }
      ],
      "payable": false,
      "stateMutability": "view",
      "type": "function"
    },
    {
      "constant": false,
      "inputs": [
        {
          "internalType": "string",
          "name": "_name",
          "type": "string"
        },
        {
          "internalType": "uint256",
          "name": "_price",
          "type": "uint256"
        }
      ],
      "name": "createSuppProduct",
      "outputs": [],
      "payable": false,
      "stateMutability": "nonpayable",
      "type": "function"
    },
    {
      "constant": false,
      "inputs": [
        {
          "internalType": "string",
          "name": "_name",
          "type": "string"
        },
        {
          "internalType": "uint256",
          "name": "_price",
          "type": "uint256"
        }
      ],
      "name": "createRestProduct",
      "outputs": [],
      "payable": false,
      "stateMutability": "nonpayable",
      "type": "function"
    }
  ],
  "bytecode": "0x60806040526040518060400160405280601681526020017f53656c6572612052617361204e617369204c656d616b00000000000000000000815250600190805190602001906200005192919062000170565b506040518060600160405280602f81526020016200145e602f9139600290805190602001906200008392919062000170565b506040518060600160405280603581526020016200148d6035913960039080519060200190620000b592919062000170565b506040518060400160405280600881526020017f3938343334353039000000000000000000000000000000000000000000000000815250600490805190602001906200010392919062000170565b50600060055560006007553480156200011b57600080fd5b506040518060400160405280601b81526020017f4461707020556e6976657273697479204d61726b6574706c6163650000000000815250600090805190602001906200016992919062000170565b506200021f565b828054600181600116156101000203166002900490600052602060002090601f016020900481019282601f10620001b357805160ff1916838001178555620001e4565b82800160010185558215620001e4579182015b82811115620001e3578251825591602001919060010190620001c6565b5b509050620001f39190620001f7565b5090565b6200021c91905b8082111562000218576000816000905550600101620001fe565b5090565b90565b61122f806200022f6000396000f3fe608060405234801561001057600080fd5b50600436106100b45760003560e01c8063757a270311610071578063757a27031461044f578063820e248e1461046d578063a9937b22146104f0578063abed579f1461050e578063b1ba814a14610601578063e16f14e214610684576100b4565b806306fdde03146100b95780631dd7408a1461013c578063623eb0d2146101bf5780636cf43347146102845780636dfe683a14610307578063754b5de31461038a575b600080fd5b6100c1610777565b6040518080602001828103825283818151815260200191508051906020019080838360005b838110156101015780820151818401526020810190506100e6565b50505050905090810190601f16801561012e5780820380516001836020036101000a031916815260200191505b509250505060405180910390f35b610144610815565b6040518080602001828103825283818151815260200191508051906020019080838360005b83811015610184578082015181840152602081019050610169565b50505050905090810190601f1680156101b15780820380516001836020036101000a031916815260200191505b509250505060405180910390f35b610282600480360360408110156101d557600080fd5b81019080803590602001906401000000008111156101f257600080fd5b82018360208201111561020457600080fd5b8035906020019184600183028401116401000000008311171561022657600080fd5b91908080601f016020809104026020016040519081016040528093929190818152602001838380828437600081840152601f19601f820116905080830192505050505050509192919290803590602001909291905050506108b3565b005b61028c610ac5565b6040518080602001828103825283818151815260200191508051906020019080838360005b838110156102cc5780820151818401526020810190506102b1565b50505050905090810190601f1680156102f95780820380516001836020036101000a031916815260200191505b509250505060405180910390f35b61030f610b67565b6040518080602001828103825283818151815260200191508051906020019080838360005b8381101561034f578082015181840152602081019050610334565b50505050905090810190601f16801561037c5780820380516001836020036101000a031916815260200191505b509250505060405180910390f35b61044d600480360360408110156103a057600080fd5b81019080803590602001906401000000008111156103bd57600080fd5b8201836020820111156103cf57600080fd5b803590602001918460018302840111640100000000831117156103f157600080fd5b91908080601f016020809104026020016040519081016040528093929190818152602001838380828437600081840152601f19601f82011690508083019250505050505050919291929080359060200190929190505050610c05565b005b610457610e17565b6040518082815260200191505060405180910390f35b610475610e1d565b6040518080602001828103825283818151815260200191508051906020019080838360005b838110156104b557808201518184015260208101905061049a565b50505050905090810190601f1680156104e25780820380516001836020036101000a031916815260200191505b509250505060405180910390f35b6104f8610ebb565b6040518082815260200191505060405180910390f35b61053a6004803603602081101561052457600080fd5b8101908080359060200190929190505050610ec1565b60405180868152602001806020018581526020018473ffffffffffffffffffffffffffffffffffffffff1673ffffffffffffffffffffffffffffffffffffffff16815260200183151515158152602001828103825286818151815260200191508051906020019080838360005b838110156105c25780820151818401526020810190506105a7565b50505050905090810190601f1680156105ef5780820380516001836020036101000a031916815260200191505b50965050505050505060405180910390f35b610609610fbc565b6040518080602001828103825283818151815260200191508051906020019080838360005b8381101561064957808201518184015260208101905061062e565b50505050905090810190601f1680156106765780820380516001836020036101000a031916815260200191505b509250505060405180910390f35b6106b06004803603602081101561069a57600080fd5b810190808035906020019092919050505061105a565b60405180868152602001806020018581526020018473ffffffffffffffffffffffffffffffffffffffff1673ffffffffffffffffffffffffffffffffffffffff16815260200183151515158152602001828103825286818151815260200191508051906020019080838360005b8381101561073857808201518184015260208101905061071d565b50505050905090810190601f1680156107655780820380516001836020036101000a031916815260200191505b50965050505050505060405180910390f35b60008054600181600116156101000203166002900480601f01602080910402602001604051908101604052809291908181526020018280546001816001161561010002031660029004801561080d5780601f106107e25761010080835404028352916020019161080d565b820191906000526020600020905b8154815290600101906020018083116107f057829003601f168201915b505050505081565b60028054600181600116156101000203166002900480601f0160208091040260200160405190810160405280929190818152602001828054600181600116156101000203166002900480156108ab5780601f10610880576101008083540402835291602001916108ab565b820191906000526020600020905b81548152906001019060200180831161088e57829003601f168201915b505050505081565b60008251116108c157600080fd5b600081116108ce57600080fd5b6005600081548092919060010191905055506040518060a0016040528060055481526020018381526020018281526020013373ffffffffffffffffffffffffffffffffffffffff1681526020016000151581525060066000600554815260200190815260200160002060008201518160000155602082015181600101908051906020019061095d929190611155565b506040820151816002015560608201518160030160006101000a81548173ffffffffffffffffffffffffffffffffffffffff021916908373ffffffffffffffffffffffffffffffffffffffff16021790555060808201518160030160146101000a81548160ff0219169083151502179055509050507fbc59c0c8165864dcceb377dd07d8f431d4303f8e501cb0a0374a10cc68d71836600554838333600060405180868152602001806020018581526020018473ffffffffffffffffffffffffffffffffffffffff1673ffffffffffffffffffffffffffffffffffffffff16815260200183151515158152602001828103825286818151815260200191508051906020019080838360005b83811015610a83578082015181840152602081019050610a68565b50505050905090810190601f168015610ab05780820380516001836020036101000a031916815260200191505b50965050505050505060405180910390a15050565b606060018054600181600116156101000203166002900480601f016020809104026020016040519081016040528092919081815260200182805460018160011615610100020316600290048015610b5d5780601f10610b3257610100808354040283529160200191610b5d565b820191906000526020600020905b815481529060010190602001808311610b4057829003601f168201915b5050505050905090565b60038054600181600116156101000203166002900480601f016020809104026020016040519081016040528092919081815260200182805460018160011615610100020316600290048015610bfd5780601f10610bd257610100808354040283529160200191610bfd565b820191906000526020600020905b815481529060010190602001808311610be057829003601f168201915b505050505081565b6000825111610c1357600080fd5b60008111610c2057600080fd5b6007600081548092919060010191905055506040518060a0016040528060075481526020018381526020018281526020013373ffffffffffffffffffffffffffffffffffffffff16815260200160001515815250600860006007548152602001908152602001600020600082015181600001556020820151816001019080519060200190610caf929190611155565b506040820151816002015560608201518160030160006101000a81548173ffffffffffffffffffffffffffffffffffffffff021916908373ffffffffffffffffffffffffffffffffffffffff16021790555060808201518160030160146101000a81548160ff0219169083151502179055509050507fbc59c0c8165864dcceb377dd07d8f431d4303f8e501cb0a0374a10cc68d71836600754838333600060405180868152602001806020018581526020018473ffffffffffffffffffffffffffffffffffffffff1673ffffffffffffffffffffffffffffffffffffffff16815260200183151515158152602001828103825286818151815260200191508051906020019080838360005b83811015610dd5578082015181840152602081019050610dba565b50505050905090810190601f168015610e025780820380516001836020036101000a031916815260200191505b50965050505050505060405180910390a15050565b60075481565b60048054600181600116156101000203166002900480601f016020809104026020016040519081016040528092919081815260200182805460018160011615610100020316600290048015610eb35780601f10610e8857610100808354040283529160200191610eb3565b820191906000526020600020905b815481529060010190602001808311610e9657829003601f168201915b505050505081565b60055481565b6008602052806000526040600020600091509050806000015490806001018054600181600116156101000203166002900480601f016020809104026020016040519081016040528092919081815260200182805460018160011615610100020316600290048015610f735780601f10610f4857610100808354040283529160200191610f73565b820191906000526020600020905b815481529060010190602001808311610f5657829003601f168201915b5050505050908060020154908060030160009054906101000a900473ffffffffffffffffffffffffffffffffffffffff16908060030160149054906101000a900460ff16905085565b60018054600181600116156101000203166002900480601f0160208091040260200160405190810160405280929190818152602001828054600181600116156101000203166002900480156110525780601f1061102757610100808354040283529160200191611052565b820191906000526020600020905b81548152906001019060200180831161103557829003601f168201915b505050505081565b6006602052806000526040600020600091509050806000015490806001018054600181600116156101000203166002900480601f01602080910402602001604051908101604052809291908181526020018280546001816001161561010002031660029004801561110c5780601f106110e15761010080835404028352916020019161110c565b820191906000526020600020905b8154815290600101906020018083116110ef57829003601f168201915b5050505050908060020154908060030160009054906101000a900473ffffffffffffffffffffffffffffffffffffffff16908060030160149054906101000a900460ff16905085565b828054600181600116156101000203166002900490600052602060002090601f016020900481019282601f1061119657805160ff19168380011785556111c4565b828001600101855582156111c4579182015b828111156111c35782518255916020019190600101906111a8565b5b5090506111d191906111d5565b5090565b6111f791905b808211156111f35760008160009055506001016111db565b5090565b9056fea265627a7a72315820ee88cd608677aecaf54ebb962dc52f16fea0708f7c98573e92ea54f347528e6964736f6c6343000510003232204164616d2052642c202330312d303220466f6f642043656e7472652c2053696e6761706f7265203238393837364d6f6e646179202d2054687572736461793a2037616d2d35706d3b205361747572646179202d2053756e6461792037616d2d33706d",
  "source": "// SPDX-License-Identifier: Blockchain\r\n\r\npragma solidity ^0.5.4;\r\n\r\ncontract Marketplace {\r\n    string public name;\r\n\r\n    //hawkerName details\r\n    string public hawkerName = \"Selera Rasa Nasi Lemak\";\r\n    string public hawkerAddress =\r\n        \"2 Adam Rd, #01-02 Food Centre, Singapore 289876\";\r\n    string public hawkerOpeningHours =\r\n        \"Monday - Thursday: 7am-5pm; Saturday - Sunday 7am-3pm\";\r\n    string public hawkerPhone = \"98434509\";\r\n\r\n    //Supplier products\r\n    uint256 public suppProdCount = 0;\r\n    mapping(uint256 => SuppProduct) public suppProducts;\r\n\r\n    //Restaurants products\r\n    uint256 public restProdCount = 0;\r\n    mapping(uint256 => RestProduct) public restProducts;\r\n\r\n    struct SuppProduct {\r\n        uint256 id;\r\n        string name;\r\n        uint256 price;\r\n        address payable owner; //when listing, the owner will be the seller. when buying, the owner will change from the seller to the buyer\r\n        bool purchased;\r\n    }\r\n\r\n    struct RestProduct {\r\n        uint256 id;\r\n        string name;\r\n        uint256 price;\r\n        address payable owner;\r\n        bool purchased;\r\n    }\r\n\r\n    struct RestProfile {\r\n        uint256 id;\r\n        string name;\r\n        string category;\r\n        string location;\r\n        string deliveryHours;\r\n        address payable owner;\r\n        string reviews;\r\n        uint256 rating;\r\n    }\r\n\r\n    event ProductCreated(\r\n        uint256 id,\r\n        string name,\r\n        uint256 price,\r\n        address payable owner,\r\n        bool purchased\r\n    );\r\n\r\n    event ProductPurchased(\r\n        uint256 id,\r\n        string name,\r\n        uint256 price,\r\n        address payable owner,\r\n        bool purchased\r\n    );\r\n\r\n    constructor() public {\r\n        name = \"Dapp University Marketplace\";\r\n    }\r\n\r\n    function returnString() public view returns (string memory) {\r\n        return hawkerName;\r\n    }\r\n\r\n    //parameter _price is expressed in Ethereum cryptocurrency - Ether\r\n    //whenever we store Ether in the blockchain, we store it as Wei (smallest denomination of Ether )\r\n    //can check it on etherconverter.online\r\n    function createSuppProduct(string memory _name, uint256 _price) public {\r\n        // Require a valid name\r\n        require(bytes(_name).length > 0);\r\n        // Require a valid price\r\n        require(_price > 0);\r\n        // Increment product count\r\n        suppProdCount++;\r\n        // Create the product --- msg.sender is the one who accessed the function\r\n        suppProducts[suppProdCount] = SuppProduct(\r\n            suppProdCount,\r\n            _name,\r\n            _price,\r\n            msg.sender,\r\n            false\r\n        );\r\n        // Trigger an event\r\n        emit ProductCreated(suppProdCount, _name, _price, msg.sender, false);\r\n    }\r\n\r\n    function createRestProduct(string memory _name, uint256 _price) public {\r\n        // Require a valid name\r\n        require(bytes(_name).length > 0);\r\n        // Require a valid price\r\n        require(_price > 0);\r\n        // Increment product count\r\n        restProdCount++;\r\n        // Create the product --- msg.sender is the one who accessed the function\r\n        restProducts[restProdCount] = RestProduct(\r\n            restProdCount,\r\n            _name,\r\n            _price,\r\n            msg.sender,\r\n            false\r\n        );\r\n        // Trigger an event\r\n        emit ProductCreated(restProdCount, _name, _price, msg.sender, false);\r\n    }\r\n\r\n    // function purchaseProduct(uint256 _id) public payable {\r\n    //     //Fetch the product\r\n    //     Product memory _product = products[_id];\r\n    //     //Fetch the owner\r\n    //     address payable _seller = _product.owner;\r\n    //     //Make sure the product has a valid id\r\n    //     //require(_product.id > 0 && _product.id <= productCount); ---> need to change\r\n    //     //Require that there is enough Ether in the transaction\r\n    //     require(msg.value >= _product.price);\r\n    //     //Require that the product has not been purchased already\r\n    //     require(!_product.purchased);\r\n    //     //Require that the buyer is not the seller\r\n    //     require(_seller != msg.sender);\r\n    //     //Transfer ownership to the buyer\r\n    //     _product.owner = msg.sender;\r\n    //     //Mark as purchased\r\n    //     _product.purchased = true;\r\n    //     //Update the product\r\n    //     products[_id] = _product;\r\n    //     //Pay the seller by sending them Ether\r\n    //     address(_seller).transfer(msg.value);\r\n\r\n    //     //Trigger an event\r\n    //     emit ProductPurchased(\r\n    //         productCount,\r\n    //         _product.name,\r\n    //         _product.price,\r\n    //         msg.sender,\r\n    //         true\r\n    //     );\r\n    // }\r\n}\r\n",
  "sourcePath": "C:/Users/Casuarina/Desktop/FYP_FoodIndustry/blockchain/src/contracts/Marketplace.sol",
  "compiler": {
    "name": "solc",
    "version": "0.5.16+commit.9c3226ce.Emscripten.clang"
  },
  "schemaVersion": "3.4.1",
  "updatedAt": "2021-06-26T17:44:07.861Z",
  "networkType": "ethereum",
  "devdoc": {
    "methods": {}
  },
  "userdoc": {
    "methods": {}
  }
}