{
  "contractName": "Marketplace",
  "abi": [
    {
      "inputs": [],
      "payable": false,
      "stateMutability": "nonpayable",
      "type": "constructor"
    },
    {
      "anonymous": false,
      "inputs": [
        {
          "indexed": false,
          "internalType": "uint256",
          "name": "orderId",
          "type": "uint256"
        },
        {
          "indexed": true,
          "internalType": "address",
          "name": "buyer",
          "type": "address"
        },
        {
          "indexed": true,
          "internalType": "address",
          "name": "seller",
          "type": "address"
        },
        {
          "indexed": false,
          "internalType": "uint256",
          "name": "totalCost",
          "type": "uint256"
        },
        {
          "indexed": true,
          "internalType": "uint256",
          "name": "date",
          "type": "uint256"
        }
      ],
      "name": "HawkerProdPurchased",
      "type": "event"
    },
    {
      "anonymous": false,
      "inputs": [
        {
          "indexed": true,
          "internalType": "address",
          "name": "receiver",
          "type": "address"
        },
        {
          "indexed": false,
          "internalType": "uint256",
          "name": "amount",
          "type": "uint256"
        },
        {
          "indexed": true,
          "internalType": "address",
          "name": "owner",
          "type": "address"
        }
      ],
      "name": "LogRefund",
      "type": "event"
    },
    {
      "anonymous": false,
      "inputs": [
        {
          "indexed": true,
          "internalType": "uint256",
          "name": "id",
          "type": "uint256"
        },
        {
          "indexed": true,
          "internalType": "uint256",
          "name": "date",
          "type": "uint256"
        },
        {
          "indexed": false,
          "internalType": "string",
          "name": "name",
          "type": "string"
        },
        {
          "indexed": false,
          "internalType": "uint256",
          "name": "price",
          "type": "uint256"
        },
        {
          "indexed": true,
          "internalType": "address payable",
          "name": "owner",
          "type": "address"
        },
        {
          "indexed": false,
          "internalType": "bool",
          "name": "purchased",
          "type": "bool"
        },
        {
          "indexed": false,
          "internalType": "string",
          "name": "imageHash",
          "type": "string"
        }
      ],
      "name": "RestProdCreated",
      "type": "event"
    },
    {
      "anonymous": false,
      "inputs": [
        {
          "indexed": true,
          "internalType": "uint256",
          "name": "id",
          "type": "uint256"
        },
        {
          "indexed": true,
          "internalType": "uint256",
          "name": "date",
          "type": "uint256"
        },
        {
          "indexed": false,
          "internalType": "string",
          "name": "name",
          "type": "string"
        },
        {
          "indexed": false,
          "internalType": "uint256",
          "name": "price",
          "type": "uint256"
        },
        {
          "indexed": true,
          "internalType": "address payable",
          "name": "owner",
          "type": "address"
        },
        {
          "indexed": false,
          "internalType": "bool",
          "name": "purchased",
          "type": "bool"
        },
        {
          "indexed": false,
          "internalType": "string",
          "name": "imageHash",
          "type": "string"
        }
      ],
      "name": "SupplierProdCreated",
      "type": "event"
    },
    {
      "constant": true,
      "inputs": [
        {
          "internalType": "uint256",
          "name": "",
          "type": "uint256"
        }
      ],
      "name": "customers",
      "outputs": [
        {
          "internalType": "uint256",
          "name": "id",
          "type": "uint256"
        },
        {
          "internalType": "address",
          "name": "owner",
          "type": "address"
        },
        {
          "internalType": "string",
          "name": "name",
          "type": "string"
        },
        {
          "internalType": "string",
          "name": "addressLocation",
          "type": "string"
        },
        {
          "internalType": "string",
          "name": "phone",
          "type": "string"
        },
        {
          "internalType": "uint256",
          "name": "itemCount",
          "type": "uint256"
        }
      ],
      "payable": false,
      "stateMutability": "view",
      "type": "function"
    },
    {
      "constant": true,
      "inputs": [],
      "name": "customersCount",
      "outputs": [
        {
          "internalType": "uint256",
          "name": "",
          "type": "uint256"
        }
      ],
      "payable": false,
      "stateMutability": "view",
      "type": "function"
    },
    {
      "constant": true,
      "inputs": [
        {
          "internalType": "uint256",
          "name": "",
          "type": "uint256"
        }
      ],
      "name": "foodDeliveries",
      "outputs": [
        {
          "internalType": "uint256",
          "name": "id",
          "type": "uint256"
        },
        {
          "internalType": "address",
          "name": "owner",
          "type": "address"
        },
        {
          "internalType": "string",
          "name": "name",
          "type": "string"
        },
        {
          "internalType": "string",
          "name": "email",
          "type": "string"
        },
        {
          "internalType": "string",
          "name": "phone",
          "type": "string"
        },
        {
          "internalType": "int256",
          "name": "rating",
          "type": "int256"
        },
        {
          "internalType": "bool",
          "name": "available",
          "type": "bool"
        },
        {
          "internalType": "uint256",
          "name": "ordersAcceptedCount",
          "type": "uint256"
        },
        {
          "internalType": "uint256",
          "name": "feedbackCount",
          "type": "uint256"
        }
      ],
      "payable": false,
      "stateMutability": "view",
      "type": "function"
    },
    {
      "constant": true,
      "inputs": [],
      "name": "foodDeliveriesCount",
      "outputs": [
        {
          "internalType": "uint256",
          "name": "",
          "type": "uint256"
        }
      ],
      "payable": false,
      "stateMutability": "view",
      "type": "function"
    },
    {
      "constant": true,
      "inputs": [
        {
          "internalType": "uint256",
          "name": "",
          "type": "uint256"
        }
      ],
      "name": "hawkers",
      "outputs": [
        {
          "internalType": "uint256",
          "name": "id",
          "type": "uint256"
        },
        {
          "internalType": "address",
          "name": "owner",
          "type": "address"
        },
        {
          "internalType": "string",
          "name": "name",
          "type": "string"
        },
        {
          "internalType": "string",
          "name": "addressLocation",
          "type": "string"
        },
        {
          "internalType": "string",
          "name": "emailAddress",
          "type": "string"
        },
        {
          "internalType": "string",
          "name": "phone",
          "type": "string"
        },
        {
          "internalType": "string",
          "name": "openingHours",
          "type": "string"
        },
        {
          "internalType": "uint256",
          "name": "avgRating",
          "type": "uint256"
        },
        {
          "internalType": "string",
          "name": "licenseHash",
          "type": "string"
        },
        {
          "internalType": "bool",
          "name": "open",
          "type": "bool"
        },
        {
          "internalType": "uint256",
          "name": "feedbackCount",
          "type": "uint256"
        }
      ],
      "payable": false,
      "stateMutability": "view",
      "type": "function"
    },
    {
      "constant": true,
      "inputs": [],
      "name": "hawkersCount",
      "outputs": [
        {
          "internalType": "uint256",
          "name": "",
          "type": "uint256"
        }
      ],
      "payable": false,
      "stateMutability": "view",
      "type": "function"
    },
    {
      "constant": true,
      "inputs": [
        {
          "internalType": "uint256",
          "name": "",
          "type": "uint256"
        }
      ],
      "name": "orders",
      "outputs": [
        {
          "internalType": "uint256",
          "name": "id",
          "type": "uint256"
        },
        {
          "internalType": "address",
          "name": "owner",
          "type": "address"
        },
        {
          "internalType": "address",
          "name": "seller",
          "type": "address"
        },
        {
          "internalType": "address",
          "name": "driver",
          "type": "address"
        },
        {
          "internalType": "uint256",
          "name": "hawkerPayment",
          "type": "uint256"
        },
        {
          "internalType": "uint256",
          "name": "riderPayment",
          "type": "uint256"
        },
        {
          "internalType": "uint256",
          "name": "totalPrice",
          "type": "uint256"
        },
        {
          "internalType": "uint256",
          "name": "purchasedItemCount",
          "type": "uint256"
        },
        {
          "internalType": "string",
          "name": "date",
          "type": "string"
        },
        {
          "internalType": "string",
          "name": "time",
          "type": "string"
        },
        {
          "internalType": "enum Marketplace.Status",
          "name": "state",
          "type": "uint8"
        },
        {
          "internalType": "bool",
          "name": "rated",
          "type": "bool"
        }
      ],
      "payable": false,
      "stateMutability": "view",
      "type": "function"
    },
    {
      "constant": true,
      "inputs": [],
      "name": "ordersCount",
      "outputs": [
        {
          "internalType": "uint256",
          "name": "",
          "type": "uint256"
        }
      ],
      "payable": false,
      "stateMutability": "view",
      "type": "function"
    },
    {
      "constant": true,
      "inputs": [],
      "name": "restProdCount",
      "outputs": [
        {
          "internalType": "uint256",
          "name": "",
          "type": "uint256"
        }
      ],
      "payable": false,
      "stateMutability": "view",
      "type": "function"
    },
    {
      "constant": true,
      "inputs": [
        {
          "internalType": "uint256",
          "name": "",
          "type": "uint256"
        }
      ],
      "name": "restProducts",
      "outputs": [
        {
          "internalType": "uint256",
          "name": "id",
          "type": "uint256"
        },
        {
          "internalType": "string",
          "name": "name",
          "type": "string"
        },
        {
          "internalType": "uint256",
          "name": "price",
          "type": "uint256"
        },
        {
          "internalType": "address payable",
          "name": "owner",
          "type": "address"
        },
        {
          "internalType": "bool",
          "name": "published",
          "type": "bool"
        },
        {
          "internalType": "string",
          "name": "imageHash",
          "type": "string"
        },
        {
          "internalType": "uint256",
          "name": "soldCount",
          "type": "uint256"
        }
      ],
      "payable": false,
      "stateMutability": "view",
      "type": "function"
    },
    {
      "constant": true,
      "inputs": [],
      "name": "state",
      "outputs": [
        {
          "internalType": "enum Marketplace.Status",
          "name": "",
          "type": "uint8"
        }
      ],
      "payable": false,
      "stateMutability": "view",
      "type": "function"
    },
    {
      "constant": true,
      "inputs": [],
      "name": "suppProdCount",
      "outputs": [
        {
          "internalType": "uint256",
          "name": "",
          "type": "uint256"
        }
      ],
      "payable": false,
      "stateMutability": "view",
      "type": "function"
    },
    {
      "constant": true,
      "inputs": [
        {
          "internalType": "uint256",
          "name": "",
          "type": "uint256"
        }
      ],
      "name": "suppProducts",
      "outputs": [
        {
          "internalType": "uint256",
          "name": "id",
          "type": "uint256"
        },
        {
          "internalType": "string",
          "name": "name",
          "type": "string"
        },
        {
          "internalType": "uint256",
          "name": "price",
          "type": "uint256"
        },
        {
          "internalType": "address payable",
          "name": "owner",
          "type": "address"
        },
        {
          "internalType": "bool",
          "name": "published",
          "type": "bool"
        },
        {
          "internalType": "string",
          "name": "imageHash",
          "type": "string"
        }
      ],
      "payable": false,
      "stateMutability": "view",
      "type": "function"
    },
    {
      "constant": true,
      "inputs": [
        {
          "internalType": "uint256",
          "name": "",
          "type": "uint256"
        }
      ],
      "name": "suppliers",
      "outputs": [
        {
          "internalType": "uint256",
          "name": "id",
          "type": "uint256"
        },
        {
          "internalType": "address",
          "name": "owner",
          "type": "address"
        },
        {
          "internalType": "string",
          "name": "name",
          "type": "string"
        },
        {
          "internalType": "string",
          "name": "email",
          "type": "string"
        },
        {
          "internalType": "string",
          "name": "addressLocation",
          "type": "string"
        },
        {
          "internalType": "string",
          "name": "phone",
          "type": "string"
        },
        {
          "internalType": "uint256",
          "name": "MOQ",
          "type": "uint256"
        },
        {
          "internalType": "uint256",
          "name": "leadTime",
          "type": "uint256"
        },
        {
          "internalType": "string",
          "name": "deliveryDays",
          "type": "string"
        },
        {
          "internalType": "string",
          "name": "remarks",
          "type": "string"
        },
        {
          "internalType": "uint256",
          "name": "avgRating",
          "type": "uint256"
        },
        {
          "internalType": "uint256",
          "name": "feedbackCount",
          "type": "uint256"
        }
      ],
      "payable": false,
      "stateMutability": "view",
      "type": "function"
    },
    {
      "constant": true,
      "inputs": [],
      "name": "suppliersCount",
      "outputs": [
        {
          "internalType": "uint256",
          "name": "",
          "type": "uint256"
        }
      ],
      "payable": false,
      "stateMutability": "view",
      "type": "function"
    },
    {
      "constant": false,
      "inputs": [
        {
          "internalType": "address",
          "name": "_owner",
          "type": "address"
        },
        {
          "internalType": "string",
          "name": "_name",
          "type": "string"
        },
        {
          "internalType": "string",
          "name": "_email",
          "type": "string"
        },
        {
          "internalType": "string",
          "name": "_phone",
          "type": "string"
        }
      ],
      "name": "addFoodDelivery",
      "outputs": [],
      "payable": false,
      "stateMutability": "nonpayable",
      "type": "function"
    },
    {
      "constant": false,
      "inputs": [
        {
          "internalType": "address",
          "name": "_owner",
          "type": "address"
        },
        {
          "internalType": "string",
          "name": "_name",
          "type": "string"
        },
        {
          "internalType": "string",
          "name": "_email",
          "type": "string"
        },
        {
          "internalType": "string",
          "name": "_addressLocation",
          "type": "string"
        },
        {
          "internalType": "string",
          "name": "_phone",
          "type": "string"
        },
        {
          "internalType": "uint256",
          "name": "_moq",
          "type": "uint256"
        },
        {
          "internalType": "uint256",
          "name": "_leadTime",
          "type": "uint256"
        },
        {
          "internalType": "string",
          "name": "_deliveryDays",
          "type": "string"
        },
        {
          "internalType": "string",
          "name": "_remarks",
          "type": "string"
        }
      ],
      "name": "addSupplier",
      "outputs": [],
      "payable": false,
      "stateMutability": "nonpayable",
      "type": "function"
    },
    {
      "constant": false,
      "inputs": [
        {
          "internalType": "address",
          "name": "_owner",
          "type": "address"
        },
        {
          "internalType": "string",
          "name": "_name",
          "type": "string"
        },
        {
          "internalType": "string",
          "name": "_addressLocation",
          "type": "string"
        },
        {
          "internalType": "string",
          "name": "_emailAddress",
          "type": "string"
        },
        {
          "internalType": "string",
          "name": "_phone",
          "type": "string"
        },
        {
          "internalType": "string",
          "name": "_openingHours",
          "type": "string"
        },
        {
          "internalType": "string",
          "name": "_licenseHash",
          "type": "string"
        }
      ],
      "name": "addHawker",
      "outputs": [],
      "payable": false,
      "stateMutability": "nonpayable",
      "type": "function"
    },
    {
      "constant": false,
      "inputs": [
        {
          "internalType": "string",
          "name": "_phone",
          "type": "string"
        },
        {
          "internalType": "string",
          "name": "_OH",
          "type": "string"
        }
      ],
      "name": "editHawkerProfile",
      "outputs": [],
      "payable": false,
      "stateMutability": "nonpayable",
      "type": "function"
    },
    {
      "constant": false,
      "inputs": [],
      "name": "boolOpen",
      "outputs": [],
      "payable": false,
      "stateMutability": "nonpayable",
      "type": "function"
    },
    {
      "constant": false,
      "inputs": [],
      "name": "boolWork",
      "outputs": [],
      "payable": false,
      "stateMutability": "nonpayable",
      "type": "function"
    },
    {
      "constant": false,
      "inputs": [
        {
          "internalType": "string",
          "name": "_name",
          "type": "string"
        },
        {
          "internalType": "uint256",
          "name": "_price",
          "type": "uint256"
        },
        {
          "internalType": "bool",
          "name": "_published",
          "type": "bool"
        },
        {
          "internalType": "string",
          "name": "_imageHash",
          "type": "string"
        }
      ],
      "name": "createSuppProduct",
      "outputs": [],
      "payable": false,
      "stateMutability": "nonpayable",
      "type": "function"
    },
    {
      "constant": false,
      "inputs": [
        {
          "internalType": "string",
          "name": "_name",
          "type": "string"
        },
        {
          "internalType": "uint256",
          "name": "_price",
          "type": "uint256"
        },
        {
          "internalType": "bool",
          "name": "_published",
          "type": "bool"
        },
        {
          "internalType": "string",
          "name": "_imageHash",
          "type": "string"
        }
      ],
      "name": "createRestProduct",
      "outputs": [],
      "payable": false,
      "stateMutability": "nonpayable",
      "type": "function"
    },
    {
      "constant": false,
      "inputs": [
        {
          "internalType": "address",
          "name": "_owner",
          "type": "address"
        },
        {
          "internalType": "string",
          "name": "_name",
          "type": "string"
        },
        {
          "internalType": "string",
          "name": "_addressLocation",
          "type": "string"
        },
        {
          "internalType": "string",
          "name": "_phone",
          "type": "string"
        }
      ],
      "name": "addCustomer",
      "outputs": [],
      "payable": false,
      "stateMutability": "nonpayable",
      "type": "function"
    },
    {
      "constant": false,
      "inputs": [
        {
          "internalType": "string",
          "name": "_phone",
          "type": "string"
        },
        {
          "internalType": "string",
          "name": "_address",
          "type": "string"
        }
      ],
      "name": "editCustProfile",
      "outputs": [],
      "payable": false,
      "stateMutability": "nonpayable",
      "type": "function"
    },
    {
      "constant": false,
      "inputs": [
        {
          "internalType": "string",
          "name": "_phone",
          "type": "string"
        },
        {
          "internalType": "uint256",
          "name": "_moq",
          "type": "uint256"
        },
        {
          "internalType": "uint256",
          "name": "_leadTime",
          "type": "uint256"
        },
        {
          "internalType": "string",
          "name": "_deliveryDays",
          "type": "string"
        },
        {
          "internalType": "string",
          "name": "_remarks",
          "type": "string"
        }
      ],
      "name": "editSupplierProfile",
      "outputs": [],
      "payable": false,
      "stateMutability": "nonpayable",
      "type": "function"
    },
    {
      "constant": false,
      "inputs": [
        {
          "internalType": "uint256",
          "name": "_productId",
          "type": "uint256"
        },
        {
          "internalType": "string",
          "name": "_name",
          "type": "string"
        },
        {
          "internalType": "uint256",
          "name": "_price",
          "type": "uint256"
        },
        {
          "internalType": "string",
          "name": "_imageHash",
          "type": "string"
        },
        {
          "internalType": "bool",
          "name": "_published",
          "type": "bool"
        }
      ],
      "name": "editProduct",
      "outputs": [],
      "payable": false,
      "stateMutability": "nonpayable",
      "type": "function"
    },
    {
      "constant": false,
      "inputs": [
        {
          "internalType": "uint256",
          "name": "_id",
          "type": "uint256"
        },
        {
          "internalType": "uint256",
          "name": "_prodQty",
          "type": "uint256"
        }
      ],
      "name": "addToCart",
      "outputs": [],
      "payable": false,
      "stateMutability": "nonpayable",
      "type": "function"
    },
    {
      "constant": false,
      "inputs": [
        {
          "internalType": "uint256",
          "name": "custId",
          "type": "uint256"
        },
        {
          "internalType": "uint256",
          "name": "cartId",
          "type": "uint256"
        }
      ],
      "name": "removeProdCart",
      "outputs": [],
      "payable": false,
      "stateMutability": "nonpayable",
      "type": "function"
    },
    {
      "constant": false,
      "inputs": [
        {
          "internalType": "uint256",
          "name": "productId",
          "type": "uint256"
        }
      ],
      "name": "deleteProduct",
      "outputs": [],
      "payable": false,
      "stateMutability": "nonpayable",
      "type": "function"
    },
    {
      "constant": false,
      "inputs": [
        {
          "internalType": "uint256",
          "name": "custId",
          "type": "uint256"
        }
      ],
      "name": "removeAllProdCart",
      "outputs": [],
      "payable": false,
      "stateMutability": "nonpayable",
      "type": "function"
    },
    {
      "constant": false,
      "inputs": [
        {
          "internalType": "uint256",
          "name": "custId",
          "type": "uint256"
        },
        {
          "internalType": "uint256",
          "name": "cartId",
          "type": "uint256"
        }
      ],
      "name": "getCartProduct",
      "outputs": [
        {
          "internalType": "uint256",
          "name": "",
          "type": "uint256"
        },
        {
          "internalType": "uint256",
          "name": "",
          "type": "uint256"
        }
      ],
      "payable": false,
      "stateMutability": "nonpayable",
      "type": "function"
    },
    {
      "constant": false,
      "inputs": [
        {
          "internalType": "uint256",
          "name": "orderId",
          "type": "uint256"
        },
        {
          "internalType": "uint256",
          "name": "cartId",
          "type": "uint256"
        }
      ],
      "name": "getOrderProduct",
      "outputs": [
        {
          "components": [
            {
              "internalType": "uint256",
              "name": "id",
              "type": "uint256"
            },
            {
              "internalType": "string",
              "name": "name",
              "type": "string"
            },
            {
              "internalType": "uint256",
              "name": "price",
              "type": "uint256"
            },
            {
              "internalType": "address payable",
              "name": "owner",
              "type": "address"
            },
            {
              "internalType": "bool",
              "name": "published",
              "type": "bool"
            },
            {
              "internalType": "string",
              "name": "imageHash",
              "type": "string"
            },
            {
              "internalType": "uint256",
              "name": "soldCount",
              "type": "uint256"
            }
          ],
          "internalType": "struct Marketplace.RestProduct",
          "name": "",
          "type": "tuple"
        },
        {
          "components": [
            {
              "internalType": "uint256",
              "name": "id",
              "type": "uint256"
            },
            {
              "internalType": "uint256",
              "name": "productId",
              "type": "uint256"
            },
            {
              "internalType": "uint256",
              "name": "productQty",
              "type": "uint256"
            }
          ],
          "internalType": "struct Marketplace.CartItem",
          "name": "",
          "type": "tuple"
        }
      ],
      "payable": false,
      "stateMutability": "nonpayable",
      "type": "function"
    },
    {
      "constant": false,
      "inputs": [
        {
          "internalType": "uint256",
          "name": "hawkerId",
          "type": "uint256"
        },
        {
          "internalType": "uint256",
          "name": "feedbackCount",
          "type": "uint256"
        }
      ],
      "name": "getHawkerFeedback",
      "outputs": [
        {
          "components": [
            {
              "internalType": "uint256",
              "name": "id",
              "type": "uint256"
            },
            {
              "internalType": "address",
              "name": "seller",
              "type": "address"
            },
            {
              "internalType": "address",
              "name": "customer",
              "type": "address"
            },
            {
              "internalType": "uint256",
              "name": "rate",
              "type": "uint256"
            },
            {
              "internalType": "string",
              "name": "comment",
              "type": "string"
            }
          ],
          "internalType": "struct Marketplace.Feedback",
          "name": "",
          "type": "tuple"
        }
      ],
      "payable": false,
      "stateMutability": "nonpayable",
      "type": "function"
    },
    {
      "constant": false,
      "inputs": [
        {
          "internalType": "uint256",
          "name": "fdId",
          "type": "uint256"
        },
        {
          "internalType": "uint256",
          "name": "feedbackCount",
          "type": "uint256"
        }
      ],
      "name": "getFdFeedback",
      "outputs": [
        {
          "components": [
            {
              "internalType": "uint256",
              "name": "id",
              "type": "uint256"
            },
            {
              "internalType": "address",
              "name": "seller",
              "type": "address"
            },
            {
              "internalType": "address",
              "name": "customer",
              "type": "address"
            },
            {
              "internalType": "uint256",
              "name": "rate",
              "type": "uint256"
            },
            {
              "internalType": "string",
              "name": "comment",
              "type": "string"
            }
          ],
          "internalType": "struct Marketplace.Feedback",
          "name": "",
          "type": "tuple"
        }
      ],
      "payable": false,
      "stateMutability": "nonpayable",
      "type": "function"
    },
    {
      "constant": false,
      "inputs": [
        {
          "internalType": "uint256",
          "name": "_orderId",
          "type": "uint256"
        },
        {
          "internalType": "address",
          "name": "_hawker",
          "type": "address"
        },
        {
          "internalType": "uint256",
          "name": "_hawkerRate",
          "type": "uint256"
        },
        {
          "internalType": "string",
          "name": "_hawkerComment",
          "type": "string"
        },
        {
          "internalType": "address",
          "name": "_foodDelivery",
          "type": "address"
        },
        {
          "internalType": "uint256",
          "name": "_fdRate",
          "type": "uint256"
        },
        {
          "internalType": "string",
          "name": "_fdComment",
          "type": "string"
        }
      ],
      "name": "setRating",
      "outputs": [],
      "payable": false,
      "stateMutability": "nonpayable",
      "type": "function"
    },
    {
      "constant": false,
      "inputs": [
        {
          "internalType": "uint256",
          "name": "_orderId",
          "type": "uint256"
        },
        {
          "internalType": "address payable",
          "name": "_customer",
          "type": "address"
        }
      ],
      "name": "cancelOrder",
      "outputs": [],
      "payable": true,
      "stateMutability": "payable",
      "type": "function"
    },
    {
      "constant": false,
      "inputs": [
        {
          "internalType": "uint256",
          "name": "_custId",
          "type": "uint256"
        },
        {
          "internalType": "address payable",
          "name": "_seller",
          "type": "address"
        },
        {
          "internalType": "uint256",
          "name": "_hawkerPayment",
          "type": "uint256"
        },
        {
          "internalType": "uint256",
          "name": "_riderPayment",
          "type": "uint256"
        },
        {
          "internalType": "uint256",
          "name": "_totalCost",
          "type": "uint256"
        },
        {
          "internalType": "string",
          "name": "_date",
          "type": "string"
        },
        {
          "internalType": "string",
          "name": "_time",
          "type": "string"
        }
      ],
      "name": "purchaseProduct",
      "outputs": [],
      "payable": true,
      "stateMutability": "payable",
      "type": "function"
    },
    {
      "constant": false,
      "inputs": [
        {
          "internalType": "uint256",
          "name": "_orderId",
          "type": "uint256"
        }
      ],
      "name": "hawkerConfirmOrder",
      "outputs": [],
      "payable": false,
      "stateMutability": "nonpayable",
      "type": "function"
    },
    {
      "constant": false,
      "inputs": [
        {
          "internalType": "uint256",
          "name": "_orderId",
          "type": "uint256"
        }
      ],
      "name": "fdAcceptOrder",
      "outputs": [],
      "payable": false,
      "stateMutability": "nonpayable",
      "type": "function"
    },
    {
      "constant": false,
      "inputs": [
        {
          "internalType": "uint256",
          "name": "_orderId",
          "type": "uint256"
        }
      ],
      "name": "fdCollectedOrder",
      "outputs": [],
      "payable": false,
      "stateMutability": "nonpayable",
      "type": "function"
    },
    {
      "constant": false,
      "inputs": [
        {
          "internalType": "uint256",
          "name": "_orderId",
          "type": "uint256"
        }
      ],
      "name": "fdCompleteOrder",
      "outputs": [],
      "payable": true,
      "stateMutability": "payable",
      "type": "function"
    }
  ],
  "bytecode": "0x60806040526000600655600060085534801561001a57600080fd5b506161f9806200002b6000396000f3fe6080604052600436106102515760003560e01c8063995d7d9311610139578063c6705e9f116100b6578063e6f65b4c1161007a578063e6f65b4c14610905578063e79bb82714610930578063ed90c7b714610959578063f0bbfb0714610982578063f0eab430146109ab578063f89e7697146109d457610251565b8063c6705e9f146107f8578063cc3cb43214610836578063cea231211461085f578063dbeb584b146108a7578063e16f14e2146108c357610251565b8063abed579f116100fd578063abed579f14610701578063ad0c079414610744578063b0fd5c4614610760578063c0abda2a1461078b578063c19d93fb146107cd57610251565b8063995d7d93146106135780639d0d6f8b1461063c578063a85c38ef14610665578063a9937b22146106ad578063aa38fdee146106d857610251565b80633c5c33b8116101d257806364a6b4941161019657806364a6b494146105265780637078b09a146105515780637323a7d31461057a578063757a2703146105965780638455776b146105c15780638968bffd146105ea57610251565b80633c5c33b8146104575780634244c3d4146104805780634368d179146104a95780634937f2a7146104e657806360b22e3c146104fd57610251565b8063278e381c11610219578063278e381c14610355578063352e740c1461039357806335daa731146103bc5780633ab9bbb6146103e75780633be94d471461041057610251565b8063093c05fa146102565780630b90cd281461029b5780630c21a8d2146102c45780631460953c146102ef57806315cfae3914610318575b600080fd5b34801561026257600080fd5b5061027d600480360361027891908101906154d7565b6109eb565b60405161029299989796959493929190615bfa565b60405180910390f35b3480156102a757600080fd5b506102c260048036036102bd9190810190615319565b610c2e565b005b3480156102d057600080fd5b506102d9610d14565b6040516102e69190615b17565b60405180910390f35b3480156102fb57600080fd5b5061031660048036036103119190810190614fea565b610d1a565b005b34801561032457600080fd5b5061033f600480360361033a919081019061577f565b610e7a565b60405161034c9190615ac5565b60405180910390f35b34801561036157600080fd5b5061037c6004803603610377919081019061577f565b61102f565b60405161038a929190615ae7565b60405180910390f35b34801561039f57600080fd5b506103ba60048036036103b591908101906151c3565b6112c7565b005b3480156103c857600080fd5b506103d16114cb565b6040516103de9190615b17565b60405180910390f35b3480156103f357600080fd5b5061040e6004803603610409919081019061577f565b6114d1565b005b34801561041c57600080fd5b50610437600480360361043291908101906154d7565b611616565b60405161044e9b9a99989796959493929190615c9c565b60405180910390f35b34801561046357600080fd5b5061047e60048036036104799190810190615418565b611a2d565b005b34801561048c57600080fd5b506104a760048036036104a2919081019061577f565b611b77565b005b3480156104b557600080fd5b506104d060048036036104cb919081019061577f565b611bd8565b6040516104dd9190615ac5565b60405180910390f35b3480156104f257600080fd5b506104fb611d8e565b005b34801561050957600080fd5b50610524600480360361051f9190810190614fea565b611e6b565b005b34801561053257600080fd5b5061053b612017565b6040516105489190615b17565b60405180910390f35b34801561055d57600080fd5b5061057860048036036105739190810190615319565b61201d565b005b610594600480360361058f9190810190615500565b612103565b005b3480156105a257600080fd5b506105ab6122c3565b6040516105b89190615b17565b60405180910390f35b3480156105cd57600080fd5b506105e860048036036105e3919081019061560a565b6122c9565b005b3480156105f657600080fd5b50610611600480360361060c91908101906156d8565b6127ce565b005b34801561061f57600080fd5b5061063a600480360361063591908101906154d7565b6128b4565b005b34801561064857600080fd5b50610663600480360361065e91908101906154d7565b612ffe565b005b34801561067157600080fd5b5061068c600480360361068791908101906154d7565b6130d6565b6040516106a49c9b9a99989796959493929190615b32565b60405180910390f35b3480156106b957600080fd5b506106c26132e0565b6040516106cf9190615b17565b60405180910390f35b3480156106e457600080fd5b506106ff60048036036106fa9190810190615095565b6132e6565b005b34801561070d57600080fd5b50610728600480360361072391908101906154d7565b6134f0565b60405161073b9796959493929190615f3a565b60405180910390f35b61075e6004803603610759919081019061553c565b61368f565b005b34801561076c57600080fd5b50610775613d28565b6040516107829190615b17565b60405180910390f35b34801561079757600080fd5b506107b260048036036107ad91908101906154d7565b613d2e565b6040516107c496959493929190615e55565b60405180910390f35b3480156107d957600080fd5b506107e2613f52565b6040516107ef9190615a57565b60405180910390f35b34801561080457600080fd5b5061081f600480360361081a919081019061577f565b613f65565b60405161082d929190615fb7565b60405180910390f35b34801561084257600080fd5b5061085d60048036036108589190810190615385565b613fbd565b005b34801561086b57600080fd5b50610886600480360361088191908101906154d7565b61416d565b60405161089e9c9b9a99989796959493929190615d71565b60405180910390f35b6108c160048036036108bc91908101906154d7565b61457d565b005b3480156108cf57600080fd5b506108ea60048036036108e591908101906154d7565b614655565b6040516108fc96959493929190615ecb565b60405180910390f35b34801561091157600080fd5b5061091a6147ee565b6040516109279190615b17565b60405180910390f35b34801561093c57600080fd5b5061095760048036036109529190810190615385565b6147f4565b005b34801561096557600080fd5b50610980600480360361097b91908101906154d7565b614993565b005b34801561098e57600080fd5b506109a960048036036109a491908101906154d7565b614a32565b005b3480156109b757600080fd5b506109d260048036036109cd91908101906154d7565b614aad565b005b3480156109e057600080fd5b506109e9614b28565b005b60006020528060005260406000206000915090508060000154908060010160009054906101000a900473ffffffffffffffffffffffffffffffffffffffff1690806002018054600181600116156101000203166002900480601f016020809104026020016040519081016040528092919081815260200182805460018160011615610100020316600290048015610ac35780601f10610a9857610100808354040283529160200191610ac3565b820191906000526020600020905b815481529060010190602001808311610aa657829003601f168201915b505050505090806003018054600181600116156101000203166002900480601f016020809104026020016040519081016040528092919081815260200182805460018160011615610100020316600290048015610b615780601f10610b3657610100808354040283529160200191610b61565b820191906000526020600020905b815481529060010190602001808311610b4457829003601f168201915b505050505090806004018054600181600116156101000203166002900480601f016020809104026020016040519081016040528092919081815260200182805460018160011615610100020316600290048015610bff5780601f10610bd457610100808354040283529160200191610bff565b820191906000526020600020905b815481529060010190602001808311610be257829003601f168201915b5050505050908060050154908060060160009054906101000a900460ff169080600801549080600a0154905089565b6000809050600090505b600e548111610d0f573373ffffffffffffffffffffffffffffffffffffffff16600d600083815260200190815260200160002060010160009054906101000a900473ffffffffffffffffffffffffffffffffffffffff1673ffffffffffffffffffffffffffffffffffffffff161415610d025782600d60008381526020019081526020016000206004019080519060200190610cd5929190614c08565b5081600d60008381526020019081526020016000206003019080519060200190610d00929190614c08565b505b8080600101915050610c38565b505050565b600e5481565b8373ffffffffffffffffffffffffffffffffffffffff163373ffffffffffffffffffffffffffffffffffffffff1614610d5257600080fd5b600e600081548092919060010191905055506040518060c00160405280600e5481526020013373ffffffffffffffffffffffffffffffffffffffff1681526020018481526020018381526020018281526020016000815250600d6000600e5481526020019081526020016000206000820151816000015560208201518160010160006101000a81548173ffffffffffffffffffffffffffffffffffffffff021916908373ffffffffffffffffffffffffffffffffffffffff1602179055506040820151816002019080519060200190610e2c929190614c88565b506060820151816003019080519060200190610e49929190614c88565b506080820151816004019080519060200190610e66929190614c88565b5060a0820151816006015590505050505050565b610e82614d08565b60008060008581526020019081526020016000209050610ea0614d08565b8160090160008581526020019081526020016000206040518060a0016040529081600082015481526020016001820160009054906101000a900473ffffffffffffffffffffffffffffffffffffffff1673ffffffffffffffffffffffffffffffffffffffff1673ffffffffffffffffffffffffffffffffffffffff1681526020016002820160009054906101000a900473ffffffffffffffffffffffffffffffffffffffff1673ffffffffffffffffffffffffffffffffffffffff1673ffffffffffffffffffffffffffffffffffffffff16815260200160038201548152602001600482018054600181600116156101000203166002900480601f0160208091040260200160405190810160405280929190818152602001828054600181600116156101000203166002900480156110195780601f10610fee57610100808354040283529160200191611019565b820191906000526020600020905b815481529060010190602001808311610ffc57829003601f168201915b5050505050815250509050809250505092915050565b611037614d63565b61103f614db8565b6000600b60008681526020019081526020016000209050600081600701600086815260200190815260200160002060010154905061107b614d63565b600960008381526020019081526020016000206040518060e001604052908160008201548152602001600182018054600181600116156101000203166002900480601f01602080910402602001604051908101604052809291908181526020018280546001816001161561010002031660029004801561113c5780601f106111115761010080835404028352916020019161113c565b820191906000526020600020905b81548152906001019060200180831161111f57829003601f168201915b50505050508152602001600282015481526020016003820160009054906101000a900473ffffffffffffffffffffffffffffffffffffffff1673ffffffffffffffffffffffffffffffffffffffff1673ffffffffffffffffffffffffffffffffffffffff1681526020016003820160149054906101000a900460ff16151515158152602001600482018054600181600116156101000203166002900480601f0160208091040260200160405190810160405280929190818152602001828054600181600116156101000203166002900480156112595780601f1061122e57610100808354040283529160200191611259565b820191906000526020600020905b81548152906001019060200180831161123c57829003601f168201915b505050505081526020016005820154815250509050611276614db8565b83600701600088815260200190815260200160002060405180606001604052908160008201548152602001600182015481526020016002820154815250509050818195509550505050509250929050565b8873ffffffffffffffffffffffffffffffffffffffff163373ffffffffffffffffffffffffffffffffffffffff16146112ff57600080fd5b60036000815480929190600101919050555060405180610180016040528060035481526020013373ffffffffffffffffffffffffffffffffffffffff1681526020018981526020018881526020018781526020018681526020018581526020018481526020018381526020018281526020016000815260200160008152506002600060035481526020019081526020016000206000820151816000015560208201518160010160006101000a81548173ffffffffffffffffffffffffffffffffffffffff021916908373ffffffffffffffffffffffffffffffffffffffff16021790555060408201518160020190805190602001906113ff929190614c88565b50606082015181600301908051906020019061141c929190614c88565b506080820151816004019080519060200190611439929190614c88565b5060a0820151816005019080519060200190611456929190614c88565b5060c0820151816006015560e08201518160070155610100820151816008019080519060200190611488929190614c88565b506101208201518160090190805190602001906114a6929190614c88565b5061014082015181600a015561016082015181600c0155905050505050505050505050565b600c5481565b6000809050600090505b600e548111611611573373ffffffffffffffffffffffffffffffffffffffff16600d600083815260200190815260200160002060010160009054906101000a900473ffffffffffffffffffffffffffffffffffffffff1673ffffffffffffffffffffffffffffffffffffffff16141561160457600d6000828152602001908152602001600020600601600081548092919060010191905055506040518060600160405280600d600084815260200190815260200160002060060154815260200184815260200183815250600d60008381526020019081526020016000206005016000600d60008581526020019081526020016000206006015481526020019081526020016000206000820151816000015560208201518160010155604082015181600201559050505b80806001019150506114db565b505050565b60046020528060005260406000206000915090508060000154908060010160009054906101000a900473ffffffffffffffffffffffffffffffffffffffff1690806002018054600181600116156101000203166002900480601f0160208091040260200160405190810160405280929190818152602001828054600181600116156101000203166002900480156116ee5780601f106116c3576101008083540402835291602001916116ee565b820191906000526020600020905b8154815290600101906020018083116116d157829003601f168201915b505050505090806003018054600181600116156101000203166002900480601f01602080910402602001604051908101604052809291908181526020018280546001816001161561010002031660029004801561178c5780601f106117615761010080835404028352916020019161178c565b820191906000526020600020905b81548152906001019060200180831161176f57829003601f168201915b505050505090806004018054600181600116156101000203166002900480601f01602080910402602001604051908101604052809291908181526020018280546001816001161561010002031660029004801561182a5780601f106117ff5761010080835404028352916020019161182a565b820191906000526020600020905b81548152906001019060200180831161180d57829003601f168201915b505050505090806005018054600181600116156101000203166002900480601f0160208091040260200160405190810160405280929190818152602001828054600181600116156101000203166002900480156118c85780601f1061189d576101008083540402835291602001916118c8565b820191906000526020600020905b8154815290600101906020018083116118ab57829003601f168201915b505050505090806006018054600181600116156101000203166002900480601f0160208091040260200160405190810160405280929190818152602001828054600181600116156101000203166002900480156119665780601f1061193b57610100808354040283529160200191611966565b820191906000526020600020905b81548152906001019060200180831161194957829003601f168201915b505050505090806007015490806008018054600181600116156101000203166002900480601f016020809104026020016040519081016040528092919081815260200182805460018160011615610100020316600290048015611a0a5780601f106119df57610100808354040283529160200191611a0a565b820191906000526020600020905b8154815290600101906020018083116119ed57829003601f168201915b5050505050908060090160009054906101000a900460ff169080600b015490508b565b6000809050600090505b6003548111611b6f573373ffffffffffffffffffffffffffffffffffffffff166002600083815260200190815260200160002060010160009054906101000a900473ffffffffffffffffffffffffffffffffffffffff1673ffffffffffffffffffffffffffffffffffffffff161415611b625785600260008381526020019081526020016000206005019080519060200190611ad4929190614c08565b5084600260008381526020019081526020016000206006018190555083600260008381526020019081526020016000206007018190555082600260008381526020019081526020016000206008019080519060200190611b35929190614c08565b5081600260008381526020019081526020016000206009019080519060200190611b60929190614c08565b505b8080600101915050611a37565b505050505050565b6000600d60008481526020019081526020016000209050806006016000815480929190600190039190505550806005016000838152602001908152602001600020600080820160009055600182016000905560028201600090555050505050565b611be0614d08565b6000600460008581526020019081526020016000209050611bff614d08565b81600a0160008581526020019081526020016000206040518060a0016040529081600082015481526020016001820160009054906101000a900473ffffffffffffffffffffffffffffffffffffffff1673ffffffffffffffffffffffffffffffffffffffff1673ffffffffffffffffffffffffffffffffffffffff1681526020016002820160009054906101000a900473ffffffffffffffffffffffffffffffffffffffff1673ffffffffffffffffffffffffffffffffffffffff1673ffffffffffffffffffffffffffffffffffffffff16815260200160038201548152602001600482018054600181600116156101000203166002900480601f016020809104026020016040519081016040528092919081815260200182805460018160011615610100020316600290048015611d785780601f10611d4d57610100808354040283529160200191611d78565b820191906000526020600020905b815481529060010190602001808311611d5b57829003601f168201915b5050505050815250509050809250505092915050565b6000809050600090505b6001548111611e68573373ffffffffffffffffffffffffffffffffffffffff1660008083815260200190815260200160002060010160009054906101000a900473ffffffffffffffffffffffffffffffffffffffff1673ffffffffffffffffffffffffffffffffffffffff161415611e5b5760008082815260200190815260200160002060060160009054906101000a900460ff161560008083815260200190815260200160002060060160006101000a81548160ff0219169083151502179055505b8080600101915050611d98565b50565b8373ffffffffffffffffffffffffffffffffffffffff163373ffffffffffffffffffffffffffffffffffffffff1614611ea357600080fd5b60016000815480929190600101919050555060405180610120016040528060015481526020013373ffffffffffffffffffffffffffffffffffffffff1681526020018481526020018381526020018281526020016005815260200160001515815260200160008152602001600081525060008060015481526020019081526020016000206000820151816000015560208201518160010160006101000a81548173ffffffffffffffffffffffffffffffffffffffff021916908373ffffffffffffffffffffffffffffffffffffffff1602179055506040820151816002019080519060200190611f94929190614c88565b506060820151816003019080519060200190611fb1929190614c88565b506080820151816004019080519060200190611fce929190614c88565b5060a0820151816005015560c08201518160060160006101000a81548160ff02191690831515021790555060e0820151816008015561010082015181600a015590505050505050565b60035481565b6000809050600090505b60055481116120fe573373ffffffffffffffffffffffffffffffffffffffff166004600083815260200190815260200160002060010160009054906101000a900473ffffffffffffffffffffffffffffffffffffffff1673ffffffffffffffffffffffffffffffffffffffff1614156120f157826004600083815260200190815260200160002060050190805190602001906120c4929190614c08565b50816004600083815260200190815260200160002060060190805190602001906120ef929190614c08565b505b8080600101915050612027565b505050565b6000809050600090505b600c5481116122be5782600b60008381526020019081526020016000206000015414156122b1576005600b6000838152602001908152602001600020600b0160006101000a81548160ff0219169083600581111561216757fe5b0217905550600b600082815260200190815260200160002060010160009054906101000a900473ffffffffffffffffffffffffffffffffffffffff1673ffffffffffffffffffffffffffffffffffffffff16600b600083815260200190815260200160002060010160009054906101000a900473ffffffffffffffffffffffffffffffffffffffff1673ffffffffffffffffffffffffffffffffffffffff167f61f699f59fb091fc805011c4a28b175567a2ea546bd32e2e4c6407881602a4e6600b60008581526020019081526020016000206006015460405161224b9190615b17565b60405180910390a38173ffffffffffffffffffffffffffffffffffffffff166108fc600b6000848152602001908152602001600020600601549081150290604051600060405180830381858888f193505050501580156122af573d6000803e3d6000fd5b505b808060010191505061210d565b505050565b60085481565b6000809050600090505b600c5481116123375787600b600083815260200190815260200160002060000154141561232a576001600b6000838152602001908152602001600020600b0160016101000a81548160ff0219169083151502179055505b80806001019150506122d3565b6000809050600090505b60055481116125ae578773ffffffffffffffffffffffffffffffffffffffff166004600083815260200190815260200160002060010160009054906101000a900473ffffffffffffffffffffffffffffffffffffffff1673ffffffffffffffffffffffffffffffffffffffff1614156125a15760046000828152602001908152602001600020600b01600081548092919060010191905055506040518060a0016040528060046000848152602001908152602001600020600b015481526020018973ffffffffffffffffffffffffffffffffffffffff1681526020013373ffffffffffffffffffffffffffffffffffffffff1681526020018881526020018781525060046000838152602001908152602001600020600a01600060046000858152602001908152602001600020600b015481526020019081526020016000206000820151816000015560208201518160010160006101000a81548173ffffffffffffffffffffffffffffffffffffffff021916908373ffffffffffffffffffffffffffffffffffffffff16021790555060408201518160020160006101000a81548173ffffffffffffffffffffffffffffffffffffffff021916908373ffffffffffffffffffffffffffffffffffffffff16021790555060608201518160030155608082015181600401908051906020019061253e929190614c88565b509050506000600460008381526020019081526020016000206007015488019050600060046000848152602001908152602001600020600b0154828161258057fe5b04905080600460008581526020019081526020016000206007018190555050505b8080600101915050612341565b6000809050600090505b60015481116127c2578573ffffffffffffffffffffffffffffffffffffffff1660008083815260200190815260200160002060010160009054906101000a900473ffffffffffffffffffffffffffffffffffffffff1673ffffffffffffffffffffffffffffffffffffffff1614156127b557600080828152602001908152602001600020600a01600081548092919060010191905055506040518060a00160405280600080848152602001908152602001600020600a015481526020018773ffffffffffffffffffffffffffffffffffffffff1681526020013373ffffffffffffffffffffffffffffffffffffffff168152602001868152602001858152506000808381526020019081526020016000206009016000806000858152602001908152602001600020600a015481526020019081526020016000206000820151816000015560208201518160010160006101000a81548173ffffffffffffffffffffffffffffffffffffffff021916908373ffffffffffffffffffffffffffffffffffffffff16021790555060408201518160020160006101000a81548173ffffffffffffffffffffffffffffffffffffffff021916908373ffffffffffffffffffffffffffffffffffffffff1602179055506060820151816003015560808201518160040190805190602001906127b0929190614c88565b509050505b80806001019150506125b8565b50505050505050505050565b6000809050600090505b60085481116128ac57856009600083815260200190815260200160002060000154141561289f5784600960008381526020019081526020016000206001019080519060200190612829929190614c08565b508360096000838152602001908152602001600020600201819055508260096000838152602001908152602001600020600401908051906020019061286f929190614c08565b50816009600083815260200190815260200160002060030160146101000a81548160ff0219169083151502179055505b80806001019150506127d8565b505050505050565b6000809050600090505b600c5481116129805781600b6000838152602001908152602001600020600001541415612973576002600b6000838152602001908152602001600020600b0160006101000a81548160ff0219169083600581111561291857fe5b021790555033600b600083815260200190815260200160002060030160006101000a81548173ffffffffffffffffffffffffffffffffffffffff021916908373ffffffffffffffffffffffffffffffffffffffff1602179055505b80806001019150506128be565b612988614dd9565b600b600084815260200190815260200160002060405180610180016040529081600082015481526020016001820160009054906101000a900473ffffffffffffffffffffffffffffffffffffffff1673ffffffffffffffffffffffffffffffffffffffff1673ffffffffffffffffffffffffffffffffffffffff1681526020016002820160009054906101000a900473ffffffffffffffffffffffffffffffffffffffff1673ffffffffffffffffffffffffffffffffffffffff1673ffffffffffffffffffffffffffffffffffffffff1681526020016003820160009054906101000a900473ffffffffffffffffffffffffffffffffffffffff1673ffffffffffffffffffffffffffffffffffffffff1673ffffffffffffffffffffffffffffffffffffffff16815260200160048201548152602001600582015481526020016006820154815260200160088201548152602001600982018054600181600116156101000203166002900480601f016020809104026020016040519081016040528092919081815260200182805460018160011615610100020316600290048015612b745780601f10612b4957610100808354040283529160200191612b74565b820191906000526020600020905b815481529060010190602001808311612b5757829003601f168201915b50505050508152602001600a82018054600181600116156101000203166002900480601f016020809104026020016040519081016040528092919081815260200182805460018160011615610100020316600290048015612c165780601f10612beb57610100808354040283529160200191612c16565b820191906000526020600020905b815481529060010190602001808311612bf957829003601f168201915b50505050508152602001600b820160009054906101000a900460ff166005811115612c3d57fe5b6005811115612c4857fe5b8152602001600b820160019054906101000a900460ff161515151581525050905060008160200151905060008260400151905060008360800151905060008460a00151905060008560c00151905060008660e0015190506060876101000151905060608861012001519050600089610140015190506000809050600090505b6001548111612fef573373ffffffffffffffffffffffffffffffffffffffff1660008083815260200190815260200160002060010160009054906101000a900473ffffffffffffffffffffffffffffffffffffffff1673ffffffffffffffffffffffffffffffffffffffff161415612fe257600080828152602001908152602001600020600801600081548092919060010191905055506040518061018001604052806000808481526020019081526020016000206008015481526020018b73ffffffffffffffffffffffffffffffffffffffff1681526020018a73ffffffffffffffffffffffffffffffffffffffff1681526020013373ffffffffffffffffffffffffffffffffffffffff168152602001898152602001888152602001878152602001868152602001858152602001848152602001836005811115612e0957fe5b81526020016000151581525060008083815260200190815260200160002060070160008060008581526020019081526020016000206008015481526020019081526020016000206000820151816000015560208201518160010160006101000a81548173ffffffffffffffffffffffffffffffffffffffff021916908373ffffffffffffffffffffffffffffffffffffffff16021790555060408201518160020160006101000a81548173ffffffffffffffffffffffffffffffffffffffff021916908373ffffffffffffffffffffffffffffffffffffffff16021790555060608201518160030160006101000a81548173ffffffffffffffffffffffffffffffffffffffff021916908373ffffffffffffffffffffffffffffffffffffffff1602179055506080820151816004015560a0820151816005015560c0820151816006015560e08201518160080155610100820151816009019080519060200190612f74929190614c88565b5061012082015181600a019080519060200190612f92929190614c88565b5061014082015181600b0160006101000a81548160ff02191690836005811115612fb857fe5b021790555061016082015181600b0160016101000a81548160ff0219169083151502179055509050505b8080600101915050612cc7565b50505050505050505050505050565b6000809050600090505b600c5481116130d25781600b60008381526020019081526020016000206000015414156130c5576001600b6000838152602001908152602001600020600b0160006101000a81548160ff0219169083600581111561306257fe5b02179055503373ffffffffffffffffffffffffffffffffffffffff166108fc600b6000848152602001908152602001600020600401549081150290604051600060405180830381858888f193505050501580156130c3573d6000803e3d6000fd5b505b8080600101915050613008565b5050565b600b6020528060005260406000206000915090508060000154908060010160009054906101000a900473ffffffffffffffffffffffffffffffffffffffff16908060020160009054906101000a900473ffffffffffffffffffffffffffffffffffffffff16908060030160009054906101000a900473ffffffffffffffffffffffffffffffffffffffff1690806004015490806005015490806006015490806008015490806009018054600181600116156101000203166002900480601f0160208091040260200160405190810160405280929190818152602001828054600181600116156101000203166002900480156132125780601f106131e757610100808354040283529160200191613212565b820191906000526020600020905b8154815290600101906020018083116131f557829003601f168201915b50505050509080600a018054600181600116156101000203166002900480601f0160208091040260200160405190810160405280929190818152602001828054600181600116156101000203166002900480156132b05780601f10613285576101008083540402835291602001916132b0565b820191906000526020600020905b81548152906001019060200180831161329357829003601f168201915b50505050509080600b0160009054906101000a900460ff169080600b0160019054906101000a900460ff1690508c565b60065481565b8673ffffffffffffffffffffffffffffffffffffffff163373ffffffffffffffffffffffffffffffffffffffff161461331e57600080fd5b60056000815480929190600101919050555060405180610160016040528060055481526020013373ffffffffffffffffffffffffffffffffffffffff1681526020018781526020018681526020018581526020018481526020018381526020016000815260200182815260200160001515815260200160008152506004600060055481526020019081526020016000206000820151816000015560208201518160010160006101000a81548173ffffffffffffffffffffffffffffffffffffffff021916908373ffffffffffffffffffffffffffffffffffffffff160217905550604082015181600201908051906020019061341b929190614c88565b506060820151816003019080519060200190613438929190614c88565b506080820151816004019080519060200190613455929190614c88565b5060a0820151816005019080519060200190613472929190614c88565b5060c082015181600601908051906020019061348f929190614c88565b5060e082015181600701556101008201518160080190805190602001906134b7929190614c88565b506101208201518160090160006101000a81548160ff02191690831515021790555061014082015181600b015590505050505050505050565b6009602052806000526040600020600091509050806000015490806001018054600181600116156101000203166002900480601f0160208091040260200160405190810160405280929190818152602001828054600181600116156101000203166002900480156135a25780601f10613577576101008083540402835291602001916135a2565b820191906000526020600020905b81548152906001019060200180831161358557829003601f168201915b5050505050908060020154908060030160009054906101000a900473ffffffffffffffffffffffffffffffffffffffff16908060030160149054906101000a900460ff1690806004018054600181600116156101000203166002900480601f01602080910402602001604051908101604052809291908181526020018280546001816001161561010002031660029004801561367f5780601f106136545761010080835404028352916020019161367f565b820191906000526020600020905b81548152906001019060200180831161366257829003601f168201915b5050505050908060050154905087565b613697614e89565b600d60008981526020019081526020016000206040518060c0016040529081600082015481526020016001820160009054906101000a900473ffffffffffffffffffffffffffffffffffffffff1673ffffffffffffffffffffffffffffffffffffffff1673ffffffffffffffffffffffffffffffffffffffff168152602001600282018054600181600116156101000203166002900480601f0160208091040260200160405190810160405280929190818152602001828054600181600116156101000203166002900480156137ae5780601f10613783576101008083540402835291602001916137ae565b820191906000526020600020905b81548152906001019060200180831161379157829003601f168201915b50505050508152602001600382018054600181600116156101000203166002900480601f0160208091040260200160405190810160405280929190818152602001828054600181600116156101000203166002900480156138505780601f1061382557610100808354040283529160200191613850565b820191906000526020600020905b81548152906001019060200180831161383357829003601f168201915b50505050508152602001600482018054600181600116156101000203166002900480601f0160208091040260200160405190810160405280929190818152602001828054600181600116156101000203166002900480156138f25780601f106138c7576101008083540402835291602001916138f2565b820191906000526020600020905b8154815290600101906020018083116138d557829003601f168201915b505050505081526020016006820154815250509050600c600081548092919060010191905055506000600a60006101000a81548160ff0219169083600581111561393857fe5b0217905550604051806101800160405280600c548152602001826020015173ffffffffffffffffffffffffffffffffffffffff1681526020018873ffffffffffffffffffffffffffffffffffffffff168152602001600073ffffffffffffffffffffffffffffffffffffffff1681526020018781526020018681526020018581526020018260a001518152602001848152602001838152602001600a60009054906101000a900460ff1660058111156139ed57fe5b815260200160001515815250600b6000600c5481526020019081526020016000206000820151816000015560208201518160010160006101000a81548173ffffffffffffffffffffffffffffffffffffffff021916908373ffffffffffffffffffffffffffffffffffffffff16021790555060408201518160020160006101000a81548173ffffffffffffffffffffffffffffffffffffffff021916908373ffffffffffffffffffffffffffffffffffffffff16021790555060608201518160030160006101000a81548173ffffffffffffffffffffffffffffffffffffffff021916908373ffffffffffffffffffffffffffffffffffffffff1602179055506080820151816004015560a0820151816005015560c0820151816006015560e08201518160080155610100820151816009019080519060200190613b32929190614c88565b5061012082015181600a019080519060200190613b50929190614c88565b5061014082015181600b0160006101000a81548160ff02191690836005811115613b7657fe5b021790555061016082015181600b0160016101000a81548160ff0219169083151502179055509050506000600190505b8160a001518111613c9957600080613bbe8b84613f65565b91509150604051806060016040528084815260200183815260200182815250600b6000600c54815260200190815260200160002060070160008581526020019081526020016000206000820151816000015560208201518160010155604082015181600201559050506000600190505b6008548111613c89578260096000838152602001908152602001600020600001541415613c7c5760096000828152602001908152602001600020600501600081548092919060010191905055505b8080600101915050613c2e565b5050508080600101915050613ba6565b5083341015613ca757600080fd5b613cb088614aad565b428773ffffffffffffffffffffffffffffffffffffffff16826020015173ffffffffffffffffffffffffffffffffffffffff167f394e8b77a9fee5df170e8b5e75bb342b1d7422e642c95e30c87919a4d1c87302600c5488604051613d16929190615fb7565b60405180910390a45050505050505050565b60015481565b600d6020528060005260406000206000915090508060000154908060010160009054906101000a900473ffffffffffffffffffffffffffffffffffffffff1690806002018054600181600116156101000203166002900480601f016020809104026020016040519081016040528092919081815260200182805460018160011615610100020316600290048015613e065780601f10613ddb57610100808354040283529160200191613e06565b820191906000526020600020905b815481529060010190602001808311613de957829003601f168201915b505050505090806003018054600181600116156101000203166002900480601f016020809104026020016040519081016040528092919081815260200182805460018160011615610100020316600290048015613ea45780601f10613e7957610100808354040283529160200191613ea4565b820191906000526020600020905b815481529060010190602001808311613e8757829003601f168201915b505050505090806004018054600181600116156101000203166002900480601f016020809104026020016040519081016040528092919081815260200182805460018160011615610100020316600290048015613f425780601f10613f1757610100808354040283529160200191613f42565b820191906000526020600020905b815481529060010190602001808311613f2557829003601f168201915b5050505050908060060154905086565b600a60009054906101000a900460ff1681565b6000806000600d60008681526020019081526020016000209050806005016000858152602001908152602001600020600101548160050160008681526020019081526020016000206002015492509250509250929050565b6000845111613fcb57600080fd5b60008311613fd857600080fd5b6008600081548092919060010191905055506040518060e0016040528060085481526020018581526020018481526020013373ffffffffffffffffffffffffffffffffffffffff16815260200183151581526020018281526020016000815250600960006008548152602001908152602001600020600082015181600001556020820151816001019080519060200190614073929190614c88565b506040820151816002015560608201518160030160006101000a81548173ffffffffffffffffffffffffffffffffffffffff021916908373ffffffffffffffffffffffffffffffffffffffff16021790555060808201518160030160146101000a81548160ff02191690831515021790555060a0820151816004019080519060200190614101929190614c88565b5060c082015181600501559050503373ffffffffffffffffffffffffffffffffffffffff16426008547f54e6025534da695a0a6151e44a9eb387f138d3a38669904f90057d6a197277e88787878760405161415f9493929190615a72565b60405180910390a450505050565b60026020528060005260406000206000915090508060000154908060010160009054906101000a900473ffffffffffffffffffffffffffffffffffffffff1690806002018054600181600116156101000203166002900480601f0160208091040260200160405190810160405280929190818152602001828054600181600116156101000203166002900480156142455780601f1061421a57610100808354040283529160200191614245565b820191906000526020600020905b81548152906001019060200180831161422857829003601f168201915b505050505090806003018054600181600116156101000203166002900480601f0160208091040260200160405190810160405280929190818152602001828054600181600116156101000203166002900480156142e35780601f106142b8576101008083540402835291602001916142e3565b820191906000526020600020905b8154815290600101906020018083116142c657829003601f168201915b505050505090806004018054600181600116156101000203166002900480601f0160208091040260200160405190810160405280929190818152602001828054600181600116156101000203166002900480156143815780601f1061435657610100808354040283529160200191614381565b820191906000526020600020905b81548152906001019060200180831161436457829003601f168201915b505050505090806005018054600181600116156101000203166002900480601f01602080910402602001604051908101604052809291908181526020018280546001816001161561010002031660029004801561441f5780601f106143f45761010080835404028352916020019161441f565b820191906000526020600020905b81548152906001019060200180831161440257829003601f168201915b505050505090806006015490806007015490806008018054600181600116156101000203166002900480601f0160208091040260200160405190810160405280929190818152602001828054600181600116156101000203166002900480156144c95780601f1061449e576101008083540402835291602001916144c9565b820191906000526020600020905b8154815290600101906020018083116144ac57829003601f168201915b505050505090806009018054600181600116156101000203166002900480601f0160208091040260200160405190810160405280929190818152602001828054600181600116156101000203166002900480156145675780601f1061453c57610100808354040283529160200191614567565b820191906000526020600020905b81548152906001019060200180831161454a57829003601f168201915b50505050509080600a01549080600c015490508c565b6000809050600090505b600c5481116146515781600b6000838152602001908152602001600020600001541415614644576004600b6000838152602001908152602001600020600b0160006101000a81548160ff021916908360058111156145e157fe5b02179055503373ffffffffffffffffffffffffffffffffffffffff166108fc600b6000848152602001908152602001600020600501549081150290604051600060405180830381858888f19350505050158015614642573d6000803e3d6000fd5b505b8080600101915050614587565b5050565b6007602052806000526040600020600091509050806000015490806001018054600181600116156101000203166002900480601f0160208091040260200160405190810160405280929190818152602001828054600181600116156101000203166002900480156147075780601f106146dc57610100808354040283529160200191614707565b820191906000526020600020905b8154815290600101906020018083116146ea57829003601f168201915b5050505050908060020154908060030160009054906101000a900473ffffffffffffffffffffffffffffffffffffffff16908060030160149054906101000a900460ff1690806004018054600181600116156101000203166002900480601f0160208091040260200160405190810160405280929190818152602001828054600181600116156101000203166002900480156147e45780601f106147b9576101008083540402835291602001916147e4565b820191906000526020600020905b8154815290600101906020018083116147c757829003601f168201915b5050505050905086565b60055481565b600084511161480257600080fd5b6000831161480f57600080fd5b6006600081548092919060010191905055506040518060c0016040528060065481526020018581526020018481526020013373ffffffffffffffffffffffffffffffffffffffff1681526020018315158152602001828152506007600060065481526020019081526020016000206000820151816000015560208201518160010190805190602001906148a3929190614c88565b506040820151816002015560608201518160030160006101000a81548173ffffffffffffffffffffffffffffffffffffffff021916908373ffffffffffffffffffffffffffffffffffffffff16021790555060808201518160030160146101000a81548160ff02191690831515021790555060a0820151816004019080519060200190614931929190614c88565b509050503373ffffffffffffffffffffffffffffffffffffffff16426006547f19b39c67e4eb69bc0f14af84a2a2c7edce21b590ccf1ffe0497c36c15bb1e099878787876040516149859493929190615a72565b60405180910390a450505050565b60086000815480929190600190039190505550600960008281526020019081526020016000206000808201600090556001820160006149d29190614ed5565b60028201600090556003820160006101000a81549073ffffffffffffffffffffffffffffffffffffffff02191690556003820160146101000a81549060ff0219169055600482016000614a259190614ed5565b6005820160009055505050565b6000809050600090505b600c548111614aa95781600b6000838152602001908152602001600020600001541415614a9c576003600b6000838152602001908152602001600020600b0160006101000a81548160ff02191690836005811115614a9657fe5b02179055505b8080600101915050614a3c565b5050565b6000600d600083815260200190815260200160002090506000816006015490506000600190505b818111614b18578260050160008281526020019081526020016000206000808201600090556001820160009055600282016000905550508080600101915050614ad4565b5060008260060181905550505050565b6000809050600090505b6005548111614c05573373ffffffffffffffffffffffffffffffffffffffff166004600083815260200190815260200160002060010160009054906101000a900473ffffffffffffffffffffffffffffffffffffffff1673ffffffffffffffffffffffffffffffffffffffff161415614bf8576004600082815260200190815260200160002060090160009054906101000a900460ff16156004600083815260200190815260200160002060090160006101000a81548160ff0219169083151502179055505b8080600101915050614b32565b50565b828054600181600116156101000203166002900490600052602060002090601f016020900481019282601f10614c4957805160ff1916838001178555614c77565b82800160010185558215614c77579182015b82811115614c76578251825591602001919060010190614c5b565b5b509050614c849190614f1d565b5090565b828054600181600116156101000203166002900490600052602060002090601f016020900481019282601f10614cc957805160ff1916838001178555614cf7565b82800160010185558215614cf7579182015b82811115614cf6578251825591602001919060010190614cdb565b5b509050614d049190614f1d565b5090565b6040518060a0016040528060008152602001600073ffffffffffffffffffffffffffffffffffffffff168152602001600073ffffffffffffffffffffffffffffffffffffffff16815260200160008152602001606081525090565b6040518060e00160405280600081526020016060815260200160008152602001600073ffffffffffffffffffffffffffffffffffffffff16815260200160001515815260200160608152602001600081525090565b60405180606001604052806000815260200160008152602001600081525090565b60405180610180016040528060008152602001600073ffffffffffffffffffffffffffffffffffffffff168152602001600073ffffffffffffffffffffffffffffffffffffffff168152602001600073ffffffffffffffffffffffffffffffffffffffff16815260200160008152602001600081526020016000815260200160008152602001606081526020016060815260200160006005811115614e7a57fe5b81526020016000151581525090565b6040518060c0016040528060008152602001600073ffffffffffffffffffffffffffffffffffffffff168152602001606081526020016060815260200160608152602001600081525090565b50805460018160011615610100020316600290046000825580601f10614efb5750614f1a565b601f016020900490600052602060002090810190614f199190614f1d565b5b50565b614f3f91905b80821115614f3b576000816000905550600101614f23565b5090565b90565b600081359050614f518161615a565b92915050565b600081359050614f6681616171565b92915050565b600081359050614f7b81616188565b92915050565b600082601f830112614f9257600080fd5b8135614fa5614fa08261600d565b615fe0565b91508082526020830160208301858383011115614fc157600080fd5b614fcc8382846160fa565b50505092915050565b600081359050614fe48161619f565b92915050565b6000806000806080858703121561500057600080fd5b600061500e87828801614f42565b945050602085013567ffffffffffffffff81111561502b57600080fd5b61503787828801614f81565b935050604085013567ffffffffffffffff81111561505457600080fd5b61506087828801614f81565b925050606085013567ffffffffffffffff81111561507d57600080fd5b61508987828801614f81565b91505092959194509250565b600080600080600080600060e0888a0312156150b057600080fd5b60006150be8a828b01614f42565b975050602088013567ffffffffffffffff8111156150db57600080fd5b6150e78a828b01614f81565b965050604088013567ffffffffffffffff81111561510457600080fd5b6151108a828b01614f81565b955050606088013567ffffffffffffffff81111561512d57600080fd5b6151398a828b01614f81565b945050608088013567ffffffffffffffff81111561515657600080fd5b6151628a828b01614f81565b93505060a088013567ffffffffffffffff81111561517f57600080fd5b61518b8a828b01614f81565b92505060c088013567ffffffffffffffff8111156151a857600080fd5b6151b48a828b01614f81565b91505092959891949750929550565b60008060008060008060008060006101208a8c0312156151e257600080fd5b60006151f08c828d01614f42565b99505060208a013567ffffffffffffffff81111561520d57600080fd5b6152198c828d01614f81565b98505060408a013567ffffffffffffffff81111561523657600080fd5b6152428c828d01614f81565b97505060608a013567ffffffffffffffff81111561525f57600080fd5b61526b8c828d01614f81565b96505060808a013567ffffffffffffffff81111561528857600080fd5b6152948c828d01614f81565b95505060a06152a58c828d01614fd5565b94505060c06152b68c828d01614fd5565b93505060e08a013567ffffffffffffffff8111156152d357600080fd5b6152df8c828d01614f81565b9250506101008a013567ffffffffffffffff8111156152fd57600080fd5b6153098c828d01614f81565b9150509295985092959850929598565b6000806040838503121561532c57600080fd5b600083013567ffffffffffffffff81111561534657600080fd5b61535285828601614f81565b925050602083013567ffffffffffffffff81111561536f57600080fd5b61537b85828601614f81565b9150509250929050565b6000806000806080858703121561539b57600080fd5b600085013567ffffffffffffffff8111156153b557600080fd5b6153c187828801614f81565b94505060206153d287828801614fd5565b93505060406153e387828801614f6c565b925050606085013567ffffffffffffffff81111561540057600080fd5b61540c87828801614f81565b91505092959194509250565b600080600080600060a0868803121561543057600080fd5b600086013567ffffffffffffffff81111561544a57600080fd5b61545688828901614f81565b955050602061546788828901614fd5565b945050604061547888828901614fd5565b935050606086013567ffffffffffffffff81111561549557600080fd5b6154a188828901614f81565b925050608086013567ffffffffffffffff8111156154be57600080fd5b6154ca88828901614f81565b9150509295509295909350565b6000602082840312156154e957600080fd5b60006154f784828501614fd5565b91505092915050565b6000806040838503121561551357600080fd5b600061552185828601614fd5565b925050602061553285828601614f57565b9150509250929050565b600080600080600080600060e0888a03121561555757600080fd5b60006155658a828b01614fd5565b97505060206155768a828b01614f57565b96505060406155878a828b01614fd5565b95505060606155988a828b01614fd5565b94505060806155a98a828b01614fd5565b93505060a088013567ffffffffffffffff8111156155c657600080fd5b6155d28a828b01614f81565b92505060c088013567ffffffffffffffff8111156155ef57600080fd5b6155fb8a828b01614f81565b91505092959891949750929550565b600080600080600080600060e0888a03121561562557600080fd5b60006156338a828b01614fd5565b97505060206156448a828b01614f42565b96505060406156558a828b01614fd5565b955050606088013567ffffffffffffffff81111561567257600080fd5b61567e8a828b01614f81565b945050608061568f8a828b01614f42565b93505060a06156a08a828b01614fd5565b92505060c088013567ffffffffffffffff8111156156bd57600080fd5b6156c98a828b01614f81565b91505092959891949750929550565b600080600080600060a086880312156156f057600080fd5b60006156fe88828901614fd5565b955050602086013567ffffffffffffffff81111561571b57600080fd5b61572788828901614f81565b945050604061573888828901614fd5565b935050606086013567ffffffffffffffff81111561575557600080fd5b61576188828901614f81565b925050608061577288828901614f6c565b9150509295509295909350565b6000806040838503121561579257600080fd5b60006157a085828601614fd5565b92505060206157b185828601614fd5565b9150509250929050565b6157c481616083565b82525050565b6157d381616083565b82525050565b6157e281616071565b82525050565b6157f181616071565b82525050565b61580081616095565b82525050565b61580f81616095565b82525050565b61581e816160e8565b82525050565b61582d816160b4565b82525050565b600061583e82616044565b6158488185616060565b9350615858818560208601616109565b6158618161613c565b840191505092915050565b600061587782616039565b615881818561604f565b9350615891818560208601616109565b61589a8161613c565b840191505092915050565b60006158b082616039565b6158ba8185616060565b93506158ca818560208601616109565b6158d38161613c565b840191505092915050565b6060820160008201516158f46000850182615a39565b5060208201516159076020850182615a39565b50604082015161591a6040850182615a39565b50505050565b600060a0830160008301516159386000860182615a39565b50602083015161594b60208601826157d9565b50604083015161595e60408601826157d9565b5060608301516159716060860182615a39565b5060808301518482036080860152615989828261586c565b9150508091505092915050565b600060e0830160008301516159ae6000860182615a39565b50602083015184820360208601526159c6828261586c565b91505060408301516159db6040860182615a39565b5060608301516159ee60608601826157bb565b506080830151615a0160808601826157f7565b5060a083015184820360a0860152615a19828261586c565b91505060c0830151615a2e60c0860182615a39565b508091505092915050565b615a42816160de565b82525050565b615a51816160de565b82525050565b6000602082019050615a6c6000830184615815565b92915050565b60006080820190508181036000830152615a8c8187615833565b9050615a9b6020830186615a48565b615aa86040830185615806565b8181036060830152615aba8184615833565b905095945050505050565b60006020820190508181036000830152615adf8184615920565b905092915050565b60006080820190508181036000830152615b018185615996565b9050615b1060208301846158de565b9392505050565b6000602082019050615b2c6000830184615a48565b92915050565b600061018082019050615b48600083018f615a48565b615b55602083018e6157e8565b615b62604083018d6157e8565b615b6f606083018c6157e8565b615b7c608083018b615a48565b615b8960a083018a615a48565b615b9660c0830189615a48565b615ba360e0830188615a48565b818103610100830152615bb681876158a5565b9050818103610120830152615bcb81866158a5565b9050615bdb610140830185615815565b615be9610160830184615806565b9d9c50505050505050505050505050565b600061012082019050615c10600083018c615a48565b615c1d602083018b6157e8565b8181036040830152615c2f818a6158a5565b90508181036060830152615c4381896158a5565b90508181036080830152615c5781886158a5565b9050615c6660a0830187615824565b615c7360c0830186615806565b615c8060e0830185615a48565b615c8e610100830184615a48565b9a9950505050505050505050565b600061016082019050615cb2600083018e615a48565b615cbf602083018d6157e8565b8181036040830152615cd1818c6158a5565b90508181036060830152615ce5818b6158a5565b90508181036080830152615cf9818a6158a5565b905081810360a0830152615d0d81896158a5565b905081810360c0830152615d2181886158a5565b9050615d3060e0830187615a48565b818103610100830152615d4381866158a5565b9050615d53610120830185615806565b615d61610140830184615a48565b9c9b505050505050505050505050565b600061018082019050615d87600083018f615a48565b615d94602083018e6157e8565b8181036040830152615da6818d6158a5565b90508181036060830152615dba818c6158a5565b90508181036080830152615dce818b6158a5565b905081810360a0830152615de2818a6158a5565b9050615df160c0830189615a48565b615dfe60e0830188615a48565b818103610100830152615e1181876158a5565b9050818103610120830152615e2681866158a5565b9050615e36610140830185615a48565b615e44610160830184615a48565b9d9c50505050505050505050505050565b600060c082019050615e6a6000830189615a48565b615e7760208301886157e8565b8181036040830152615e8981876158a5565b90508181036060830152615e9d81866158a5565b90508181036080830152615eb181856158a5565b9050615ec060a0830184615a48565b979650505050505050565b600060c082019050615ee06000830189615a48565b8181036020830152615ef281886158a5565b9050615f016040830187615a48565b615f0e60608301866157ca565b615f1b6080830185615806565b81810360a0830152615f2d81846158a5565b9050979650505050505050565b600060e082019050615f4f600083018a615a48565b8181036020830152615f6181896158a5565b9050615f706040830188615a48565b615f7d60608301876157ca565b615f8a6080830186615806565b81810360a0830152615f9c81856158a5565b9050615fab60c0830184615a48565b98975050505050505050565b6000604082019050615fcc6000830185615a48565b615fd96020830184615a48565b9392505050565b6000604051905081810181811067ffffffffffffffff8211171561600357600080fd5b8060405250919050565b600067ffffffffffffffff82111561602457600080fd5b601f19601f8301169050602081019050919050565b600081519050919050565b600081519050919050565b600082825260208201905092915050565b600082825260208201905092915050565b600061607c826160be565b9050919050565b600061608e826160be565b9050919050565b60008115159050919050565b60008190506160af8261614d565b919050565b6000819050919050565b600073ffffffffffffffffffffffffffffffffffffffff82169050919050565b6000819050919050565b60006160f3826160a1565b9050919050565b82818337600083830152505050565b60005b8381101561612757808201518184015260208101905061610c565b83811115616136576000848401525b50505050565b6000601f19601f8301169050919050565b6006811061615757fe5b50565b61616381616071565b811461616e57600080fd5b50565b61617a81616083565b811461618557600080fd5b50565b61619181616095565b811461619c57600080fd5b50565b6161a8816160de565b81146161b357600080fd5b5056fea365627a7a7231582023bc98486c518a146c18738da441b49948f41d3aad2f7ee6dfc97a57e54674186c6578706572696d656e74616cf564736f6c63430005100040",
  "source": "// SPDX-License-Identifier: Blockchain\r\n\r\npragma solidity ^0.5.4;\r\n\r\npragma experimental ABIEncoderV2;\r\n\r\ncontract Marketplace {\r\n    //constructor\r\n    constructor() public {}\r\n\r\n    event LogRefund(\r\n        address indexed receiver,\r\n        uint256 amount,\r\n        address indexed owner\r\n    );\r\n\r\n    //FOOD DELIVERY\r\n    struct FoodDelivery {\r\n        uint256 id;\r\n        address owner;\r\n        string name;\r\n        string email;\r\n        string phone;\r\n        int256 rating;\r\n        bool available;\r\n        mapping(uint256 => Order) ordersAccepted;\r\n        uint256 ordersAcceptedCount;\r\n        mapping(uint256 => Feedback) feedbacks;\r\n        uint256 feedbackCount;\r\n    }\r\n\r\n    // Read/write Food Delivery\r\n    mapping(uint256 => FoodDelivery) public foodDeliveries;\r\n    //Store Food Delivery Count\r\n    uint256 public foodDeliveriesCount;\r\n\r\n    //add new food delivery\r\n    function addFoodDelivery(\r\n        address _owner,\r\n        string memory _name,\r\n        string memory _email,\r\n        string memory _phone\r\n    ) public {\r\n        require(msg.sender == _owner);\r\n        // require(msg.sender == address(_owner));\r\n        foodDeliveriesCount++;\r\n        foodDeliveries[foodDeliveriesCount] = FoodDelivery(\r\n            foodDeliveriesCount,\r\n            msg.sender,\r\n            _name,\r\n            _email,\r\n            _phone,\r\n            5,\r\n            false,\r\n            0,\r\n            0\r\n        );\r\n    }\r\n\r\n    //SUPPLIER\r\n    struct Supplier {\r\n        uint256 id;\r\n        address owner;\r\n        string name;\r\n        string email;\r\n        string addressLocation;\r\n        string phone;\r\n        uint256 MOQ;\r\n        uint256 leadTime;\r\n        string deliveryDays;\r\n        string remarks;\r\n        uint256 avgRating;\r\n        mapping(uint256 => Feedback) feedbacks;\r\n        uint256 feedbackCount;\r\n    }\r\n\r\n    // Read/write Suppliers\r\n    mapping(uint256 => Supplier) public suppliers;\r\n    //Store Hawkers Count\r\n    uint256 public suppliersCount;\r\n\r\n    function addSupplier(\r\n        address _owner,\r\n        string memory _name,\r\n        string memory _email,\r\n        string memory _addressLocation,\r\n        string memory _phone,\r\n        uint256 _moq,\r\n        uint256 _leadTime,\r\n        string memory _deliveryDays,\r\n        string memory _remarks\r\n    ) public {\r\n        require(msg.sender == _owner);\r\n        // require(msg.sender == address(_owner));\r\n        suppliersCount++;\r\n        suppliers[suppliersCount] = Supplier(\r\n            suppliersCount,\r\n            msg.sender,\r\n            _name,\r\n            _email,\r\n            _addressLocation,\r\n            _phone,\r\n            _moq,\r\n            _leadTime,\r\n            _deliveryDays,\r\n            _remarks,\r\n            0,\r\n            0\r\n        );\r\n    }\r\n\r\n    //HAWKER\r\n    struct Hawker {\r\n        uint256 id;\r\n        address owner;\r\n        string name;\r\n        string addressLocation;\r\n        string emailAddress;\r\n        string phone;\r\n        string openingHours;\r\n        uint256 avgRating;\r\n        string licenseHash;\r\n        bool open;\r\n        mapping(uint256 => Feedback) feedbacks;\r\n        uint256 feedbackCount;\r\n    }\r\n\r\n    // Read/write Hawkers\r\n    mapping(uint256 => Hawker) public hawkers;\r\n    //Store Hawkers Count\r\n    uint256 public hawkersCount;\r\n\r\n    //FEEDBACK\r\n    struct Feedback {\r\n        uint256 id;\r\n        address seller;\r\n        address customer;\r\n        uint256 rate;\r\n        string comment;\r\n    }\r\n\r\n    function addHawker(\r\n        address _owner,\r\n        string memory _name,\r\n        string memory _addressLocation,\r\n        string memory _emailAddress,\r\n        string memory _phone,\r\n        string memory _openingHours,\r\n        string memory _licenseHash\r\n    ) public {\r\n        require(msg.sender == _owner);\r\n        // require(msg.sender == address(_owner));\r\n        hawkersCount++;\r\n        hawkers[hawkersCount] = Hawker(\r\n            hawkersCount,\r\n            msg.sender,\r\n            _name,\r\n            _addressLocation,\r\n            _emailAddress,\r\n            _phone,\r\n            _openingHours,\r\n            0,\r\n            _licenseHash,\r\n            false,\r\n            0\r\n        );\r\n    }\r\n\r\n    function editHawkerProfile(string memory _phone, string memory _OH) public {\r\n        uint256 i = 0;\r\n        for (i = 0; i <= hawkersCount; i++) {\r\n            if (hawkers[i].owner == msg.sender) {\r\n                hawkers[i].phone = _phone;\r\n                hawkers[i].openingHours = _OH;\r\n            }\r\n        }\r\n    }\r\n\r\n    //change shop status\r\n    function boolOpen() public {\r\n        uint256 i = 0;\r\n        for (i = 0; i <= hawkersCount; i++) {\r\n            if (hawkers[i].owner == msg.sender) {\r\n                hawkers[i].open = !(hawkers[i].open);\r\n            }\r\n        }\r\n    }\r\n\r\n    //change food delivery status\r\n    function boolWork() public {\r\n        uint256 i = 0;\r\n        for (i = 0; i <= foodDeliveriesCount; i++) {\r\n            if (foodDeliveries[i].owner == msg.sender) {\r\n                foodDeliveries[i].available = !(foodDeliveries[i].available);\r\n            }\r\n        }\r\n    }\r\n\r\n    //SUPPLIER\r\n    uint256 public suppProdCount = 0;\r\n    mapping(uint256 => SuppProduct) public suppProducts;\r\n    struct SuppProduct {\r\n        uint256 id;\r\n        string name;\r\n        uint256 price;\r\n        address payable owner;\r\n        bool published;\r\n        string imageHash;\r\n    }\r\n    struct SuppProfile {\r\n        uint256 id;\r\n        string name;\r\n        string category;\r\n        string location;\r\n        string deliveryHours;\r\n        address payable owner;\r\n        string reviews;\r\n        uint256 rating;\r\n    }\r\n\r\n    //Restaurants products\r\n    uint256 public restProdCount = 0;\r\n    mapping(uint256 => RestProduct) public restProducts;\r\n    struct RestProduct {\r\n        uint256 id;\r\n        string name;\r\n        uint256 price;\r\n        address payable owner;\r\n        bool published;\r\n        string imageHash;\r\n        uint256 soldCount;\r\n    }\r\n\r\n    struct RestProfile {\r\n        uint256 id;\r\n        string name;\r\n        string category;\r\n        string location;\r\n        string deliveryHours;\r\n        address payable owner;\r\n        string reviews;\r\n        uint256 rating;\r\n    }\r\n\r\n    event RestProdCreated(\r\n        uint256 indexed id,\r\n        uint256 indexed date,\r\n        string name,\r\n        uint256 price,\r\n        address payable indexed owner,\r\n        bool purchased,\r\n        string imageHash\r\n    );\r\n\r\n    event SupplierProdCreated(\r\n        uint256 indexed id,\r\n        uint256 indexed date,\r\n        string name,\r\n        uint256 price,\r\n        address payable indexed owner,\r\n        bool purchased,\r\n        string imageHash\r\n    );\r\n\r\n    function createSuppProduct(\r\n        string memory _name,\r\n        uint256 _price,\r\n        bool _published,\r\n        string memory _imageHash\r\n    ) public {\r\n        // Require a valid name\r\n        require(bytes(_name).length > 0);\r\n        // Require a valid price\r\n        require(_price > 0);\r\n        // Increment product count\r\n        suppProdCount++;\r\n        // Create the product --- msg.sender is the one who accessed the function\r\n        suppProducts[suppProdCount] = SuppProduct(\r\n            suppProdCount,\r\n            _name,\r\n            _price,\r\n            msg.sender,\r\n            _published,\r\n            _imageHash\r\n        );\r\n        //trigger an event\r\n        emit SupplierProdCreated(\r\n            suppProdCount,\r\n            now,\r\n            _name,\r\n            _price,\r\n            msg.sender,\r\n            _published,\r\n            _imageHash\r\n        );\r\n    }\r\n\r\n    function createRestProduct(\r\n        string memory _name,\r\n        uint256 _price,\r\n        bool _published,\r\n        string memory _imageHash\r\n    ) public {\r\n        // Require a valid name\r\n        require(bytes(_name).length > 0);\r\n        // Require a valid price\r\n        require(_price > 0);\r\n        // Increment product count\r\n        restProdCount++;\r\n        // Create the product --- msg.sender is the one who accessed the function\r\n        restProducts[restProdCount] = RestProduct(\r\n            restProdCount,\r\n            _name,\r\n            _price,\r\n            msg.sender,\r\n            _published,\r\n            _imageHash,\r\n            0\r\n        );\r\n        // Trigger an event\r\n        emit RestProdCreated(\r\n            restProdCount,\r\n            now,\r\n            _name,\r\n            _price,\r\n            msg.sender,\r\n            _published,\r\n            _imageHash\r\n        );\r\n    }\r\n\r\n    //ORDERS\r\n    enum Status {\r\n        OrderPlaced,\r\n        OrderConfirm,\r\n        DriverConfirm,\r\n        OrderCollected,\r\n        OrderCompleted,\r\n        OrderCancelled\r\n    }\r\n    Status public state;\r\n\r\n    struct Order {\r\n        uint256 id;\r\n        address owner;\r\n        address seller;\r\n        address driver;\r\n        uint256 hawkerPayment;\r\n        uint256 riderPayment;\r\n        uint256 totalPrice;\r\n        mapping(uint256 => CartItem) purchasedItemId;\r\n        uint256 purchasedItemCount;\r\n        string date;\r\n        string time;\r\n        Status state;\r\n        bool rated;\r\n    }\r\n\r\n    mapping(uint256 => Order) public orders;\r\n    uint256 public ordersCount;\r\n\r\n    struct CartItem {\r\n        uint256 id;\r\n        uint256 productId;\r\n        uint256 productQty;\r\n    }\r\n\r\n    //CUSTOMER\r\n    struct Customer {\r\n        uint256 id;\r\n        address owner;\r\n        string name;\r\n        string addressLocation;\r\n        string phone;\r\n        mapping(uint256 => CartItem) cartItems;\r\n        uint256 itemCount;\r\n    }\r\n\r\n    mapping(uint256 => Customer) public customers;\r\n    uint256 public customersCount;\r\n\r\n    function addCustomer(\r\n        address _owner,\r\n        string memory _name,\r\n        string memory _addressLocation,\r\n        string memory _phone\r\n    ) public {\r\n        require(msg.sender == _owner);\r\n        // require(msg.sender == address(_owner));\r\n        customersCount++;\r\n        customers[customersCount] = Customer(\r\n            customersCount,\r\n            msg.sender,\r\n            _name,\r\n            _addressLocation,\r\n            _phone,\r\n            0\r\n        );\r\n    }\r\n\r\n    function editCustProfile(string memory _phone, string memory _address)\r\n        public\r\n    {\r\n        uint256 i = 0;\r\n        for (i = 0; i <= customersCount; i++) {\r\n            if (customers[i].owner == msg.sender) {\r\n                customers[i].phone = _phone;\r\n                customers[i].addressLocation = _address;\r\n            }\r\n        }\r\n    }\r\n\r\n    function editSupplierProfile(\r\n        string memory _phone,\r\n        uint256 _moq,\r\n        uint256 _leadTime,\r\n        string memory _deliveryDays,\r\n        string memory _remarks\r\n    ) public {\r\n        uint256 i = 0;\r\n        for (i = 0; i <= suppliersCount; i++) {\r\n            if (suppliers[i].owner == msg.sender) {\r\n                suppliers[i].phone = _phone;\r\n                suppliers[i].MOQ = _moq;\r\n                suppliers[i].leadTime = _leadTime;\r\n                suppliers[i].deliveryDays = _deliveryDays;\r\n                suppliers[i].remarks = _remarks;\r\n            }\r\n        }\r\n    }\r\n\r\n    function editProduct(\r\n        uint256 _productId,\r\n        string memory _name,\r\n        uint256 _price,\r\n        string memory _imageHash,\r\n        bool _published\r\n    ) public {\r\n        uint256 i = 0;\r\n        for (i = 0; i <= restProdCount; i++) {\r\n            if (restProducts[i].id == _productId) {\r\n                restProducts[i].name = _name;\r\n                restProducts[i].price = _price;\r\n                restProducts[i].imageHash = _imageHash;\r\n                restProducts[i].published = _published;\r\n            }\r\n        }\r\n    }\r\n\r\n    function addToCart(uint256 _id, uint256 _prodQty) public {\r\n        uint256 i = 0;\r\n        for (i = 0; i <= customersCount; i++) {\r\n            if (customers[i].owner == msg.sender) {\r\n                (customers[i].itemCount)++;\r\n                customers[i].cartItems[customers[i].itemCount] = CartItem(\r\n                    customers[i].itemCount,\r\n                    _id,\r\n                    _prodQty\r\n                );\r\n            }\r\n        }\r\n    }\r\n\r\n    function removeProdCart(uint256 custId, uint256 cartId) public {\r\n        Customer storage cust = customers[custId];\r\n        (cust.itemCount)--;\r\n        delete cust.cartItems[cartId];\r\n    }\r\n\r\n    function deleteProduct(uint256 productId) public {\r\n        //RestProduct storage product = restProducts[productId];\r\n        restProdCount--;\r\n        delete restProducts[productId];\r\n    }\r\n\r\n    function removeAllProdCart(uint256 custId) public {\r\n        Customer storage cust = customers[custId];\r\n        uint256 _itemCount = cust.itemCount;\r\n        for (uint256 i = 1; i <= _itemCount; i++) {\r\n            delete cust.cartItems[i];\r\n        }\r\n        (cust.itemCount) = 0;\r\n    }\r\n\r\n    function getCartProduct(uint256 custId, uint256 cartId)\r\n        public\r\n        returns (uint256, uint256)\r\n    {\r\n        Customer storage cust = customers[custId];\r\n        return (\r\n            cust.cartItems[cartId].productId,\r\n            cust.cartItems[cartId].productQty\r\n        );\r\n    }\r\n\r\n    function getOrderProduct(uint256 orderId, uint256 cartId)\r\n        public\r\n        returns (RestProduct memory, CartItem memory)\r\n    {\r\n        Order storage ord = orders[orderId];\r\n        uint256 prodId = ord.purchasedItemId[cartId].productId;\r\n        // uint256 prodQty = ord.purchasedItemId[cartId].qty;\r\n        RestProduct memory _product = restProducts[prodId];\r\n        CartItem memory _cart = ord.purchasedItemId[cartId];\r\n        return (_product, _cart);\r\n    }\r\n\r\n    function getHawkerFeedback(uint256 hawkerId, uint256 feedbackCount)\r\n        public\r\n        returns (Feedback memory)\r\n    {\r\n        Hawker storage hawker = hawkers[hawkerId];\r\n        Feedback memory _feedback = hawker.feedbacks[feedbackCount];\r\n        return (_feedback);\r\n    }\r\n\r\n    function getFdFeedback(uint256 fdId, uint256 feedbackCount)\r\n        public\r\n        returns (Feedback memory)\r\n    {\r\n        FoodDelivery storage fd = foodDeliveries[fdId];\r\n        Feedback memory _feedback = fd.feedbacks[feedbackCount];\r\n        return (_feedback);\r\n    }\r\n\r\n    function setRating(\r\n        uint256 _orderId,\r\n        address _hawker,\r\n        uint256 _hawkerRate,\r\n        string memory _hawkerComment,\r\n        address _foodDelivery,\r\n        uint256 _fdRate,\r\n        string memory _fdComment\r\n    ) public {\r\n        //set order rated boolean to true\r\n        uint256 j = 0;\r\n        for (j = 0; j <= ordersCount; j++) {\r\n            if (orders[j].id == _orderId) {\r\n                orders[j].rated = true;\r\n            }\r\n        }\r\n\r\n        //set hawker feedback\r\n        uint256 i = 0;\r\n        for (i = 0; i <= hawkersCount; i++) {\r\n            if (hawkers[i].owner == _hawker) {\r\n                (hawkers[i].feedbackCount)++;\r\n                hawkers[i].feedbacks[hawkers[i].feedbackCount] = Feedback(\r\n                    hawkers[i].feedbackCount,\r\n                    _hawker,\r\n                    msg.sender,\r\n                    _hawkerRate,\r\n                    _hawkerComment\r\n                );\r\n                uint256 total = _hawkerRate + hawkers[i].avgRating;\r\n                uint256 avg = total / (hawkers[i].feedbackCount);\r\n                hawkers[i].avgRating = avg;\r\n            }\r\n        }\r\n\r\n        //set fd feedback\r\n        uint256 k = 0;\r\n        for (k = 0; k <= foodDeliveriesCount; k++) {\r\n            if (foodDeliveries[k].owner == _foodDelivery) {\r\n                (foodDeliveries[k].feedbackCount)++;\r\n                foodDeliveries[k].feedbacks[\r\n                    foodDeliveries[k].feedbackCount\r\n                ] = Feedback(\r\n                    foodDeliveries[k].feedbackCount,\r\n                    _foodDelivery,\r\n                    msg.sender,\r\n                    _fdRate,\r\n                    _fdComment\r\n                );\r\n            }\r\n        }\r\n    }\r\n\r\n    function cancelOrder(uint256 _orderId, address payable _customer)\r\n        public\r\n        payable\r\n    {\r\n        uint256 i = 0;\r\n        for (i = 0; i <= ordersCount; i++) {\r\n            if (orders[i].id == _orderId) {\r\n                orders[i].state = Status.OrderCancelled;\r\n                //address payable customer = address(orders[i].owner);\r\n                emit LogRefund(\r\n                    orders[i].owner,\r\n                    orders[i].totalPrice,\r\n                    orders[i].owner\r\n                );\r\n                address(_customer).transfer(orders[i].totalPrice);\r\n                //msg.sender.transfer(orders[i].totalPrice);\r\n            }\r\n        }\r\n    }\r\n\r\n    event HawkerProdPurchased(\r\n        uint256 orderId,\r\n        address indexed buyer,\r\n        address indexed seller,\r\n        uint256 totalCost,\r\n        uint256 indexed date\r\n    );\r\n\r\n    function purchaseProduct(\r\n        uint256 _custId,\r\n        address payable _seller,\r\n        uint256 _hawkerPayment,\r\n        uint256 _riderPayment,\r\n        uint256 _totalCost,\r\n        string memory _date,\r\n        string memory _time\r\n    ) public payable {\r\n        Customer memory cust = customers[_custId];\r\n        // Increment order count\r\n        ordersCount++;\r\n        // Create the enum\r\n        state = Status.OrderPlaced;\r\n\r\n        // Create the order\r\n        orders[ordersCount] = Order(\r\n            ordersCount,\r\n            cust.owner,\r\n            _seller,\r\n            address(0),\r\n            _hawkerPayment,\r\n            _riderPayment,\r\n            _totalCost,\r\n            cust.itemCount,\r\n            _date,\r\n            _time,\r\n            state,\r\n            false\r\n        );\r\n\r\n        //add the items in cartItems(Customer structure) to purchasedItemId (Order structure)\r\n        for (uint256 i = 1; i <= cust.itemCount; i++) {\r\n            (uint256 item, uint256 qty) = getCartProduct(_custId, i);\r\n            orders[ordersCount].purchasedItemId[i] = CartItem(i, item, qty);\r\n\r\n            //increate soldCount in RestProduct\r\n            for (uint256 k = 1; k <= restProdCount; k++) {\r\n                if (restProducts[k].id == item) {\r\n                    restProducts[k].soldCount++;\r\n                }\r\n            }\r\n        }\r\n\r\n        //Require that there is enough Ether in the transaction\r\n        require(msg.value >= _totalCost);\r\n\r\n        //remove the CartItem in the Customer id\r\n        removeAllProdCart(_custId);\r\n\r\n        // //Trigger an event\r\n        emit HawkerProdPurchased(\r\n            ordersCount,\r\n            cust.owner,\r\n            _seller,\r\n            _totalCost,\r\n            now\r\n        );\r\n    }\r\n\r\n    //hawker confirms order transaction made by customer\r\n    function hawkerConfirmOrder(uint256 _orderId) public {\r\n        uint256 i = 0;\r\n        for (i = 0; i <= ordersCount; i++) {\r\n            if (orders[i].id == _orderId) {\r\n                orders[i].state = Status.OrderConfirm;\r\n                //Pay the hawker\r\n                address(msg.sender).transfer(orders[i].hawkerPayment);\r\n            }\r\n        }\r\n    }\r\n\r\n    //food delivery accepts order delivery\r\n    function fdAcceptOrder(uint256 _orderId) public {\r\n        //set orderId state to DriverConfirm\r\n        uint256 i = 0;\r\n        for (i = 0; i <= ordersCount; i++) {\r\n            if (orders[i].id == _orderId) {\r\n                orders[i].state = Status.DriverConfirm;\r\n                orders[i].driver = msg.sender;\r\n            }\r\n        }\r\n\r\n        Order memory _order = orders[_orderId];\r\n        address _owner = _order.owner;\r\n        address _seller = _order.seller;\r\n        uint256 _hawkerPayment = _order.hawkerPayment;\r\n        uint256 _riderPayment = _order.riderPayment;\r\n        uint256 _totalPrice = _order.totalPrice;\r\n        uint256 _purchasedItemCount = _order.purchasedItemCount;\r\n        string memory _date = _order.date;\r\n        string memory _time = _order.time;\r\n        Status _state = _order.state;\r\n\r\n        //add the order to the acceptedOrder mapping for the fd\r\n        uint256 k = 0;\r\n        for (k = 0; k <= foodDeliveriesCount; k++) {\r\n            if (foodDeliveries[k].owner == msg.sender) {\r\n                (foodDeliveries[k].ordersAcceptedCount)++;\r\n                foodDeliveries[k].ordersAccepted[\r\n                    foodDeliveries[k].ordersAcceptedCount\r\n                ] = Order(\r\n                    foodDeliveries[k].ordersAcceptedCount,\r\n                    _owner,\r\n                    _seller,\r\n                    msg.sender,\r\n                    _hawkerPayment,\r\n                    _riderPayment,\r\n                    _totalPrice,\r\n                    _purchasedItemCount,\r\n                    _date,\r\n                    _time,\r\n                    _state,\r\n                    false\r\n                );\r\n            }\r\n        }\r\n    }\r\n\r\n    //food delivery collected order\r\n    function fdCollectedOrder(uint256 _orderId) public {\r\n        //set orderId state to OrderCompleted\r\n        uint256 i = 0;\r\n        for (i = 0; i <= ordersCount; i++) {\r\n            if (orders[i].id == _orderId) {\r\n                orders[i].state = Status.OrderCollected;\r\n            }\r\n        }\r\n    }\r\n\r\n    //food delivery completes order delivery\r\n    function fdCompleteOrder(uint256 _orderId) public payable {\r\n        //set orderId state to OrderCompleted\r\n        uint256 i = 0;\r\n        for (i = 0; i <= ordersCount; i++) {\r\n            if (orders[i].id == _orderId) {\r\n                orders[i].state = Status.OrderCompleted;\r\n                //Pay the rider after completion\r\n                address(msg.sender).transfer(orders[i].riderPayment);\r\n            }\r\n        }\r\n    }\r\n\r\n    // function purchaseProduct(uint256 _id) public payable {\r\n    //     //Fetch the product\r\n    //     Product memory _product = products[_id];\r\n    //     //Fetch the owner\r\n    //     address payable _seller = _product.owner;\r\n    //     //Make sure the product has a valid id\r\n    //     //require(_product.id > 0 && _product.id <= productCount); ---> need to change\r\n    //     //Require that there is enough Ether in the transaction\r\n    //     require(msg.value >= _product.price);\r\n    //     //Require that the product has not been purchased already\r\n    //     require(!_product.purchased);\r\n    //     //Require that the buyer is not the seller\r\n    //     require(_seller != msg.sender);\r\n    //     //Transfer ownership to the buyer\r\n    //     _product.owner = msg.sender;\r\n    //     //Mark as purchased\r\n    //     _product.purchased = true;\r\n    //     //Update the product\r\n    //     products[_id] = _product;\r\n    //     //Pay the seller by sending them Ether\r\n    //     address(_seller).transfer(msg.value);\r\n\r\n    //     //Trigger an event\r\n    //     emit ProductPurchased(\r\n    //         productCount,\r\n    //         _product.name,\r\n    //         _product.price,\r\n    //         msg.sender,\r\n    //         true\r\n    //     );\r\n    // }\r\n}\r\n",
  "sourcePath": "C:/Users/Casuarina/Desktop/FYP_FoodIndustry/blockchain/src/contracts/Marketplace.sol",
  "compiler": {
    "name": "solc",
    "version": "0.5.16+commit.9c3226ce.Emscripten.clang"
  },
  "schemaVersion": "3.4.1",
  "updatedAt": "2021-07-30T07:31:16.916Z",
  "devdoc": {
    "methods": {}
  },
  "userdoc": {
    "methods": {}
  }
}