{
  "contractName": "Marketplace",
  "abi": [
    {
      "inputs": [],
      "payable": false,
      "stateMutability": "nonpayable",
      "type": "constructor"
    },
    {
      "anonymous": false,
      "inputs": [
        {
          "indexed": false,
          "internalType": "uint256",
          "name": "id",
          "type": "uint256"
        },
        {
          "indexed": false,
          "internalType": "string",
          "name": "name",
          "type": "string"
        },
        {
          "indexed": false,
          "internalType": "uint256",
          "name": "price",
          "type": "uint256"
        },
        {
          "indexed": false,
          "internalType": "address payable",
          "name": "owner",
          "type": "address"
        },
        {
          "indexed": false,
          "internalType": "bool",
          "name": "purchased",
          "type": "bool"
        },
        {
          "indexed": false,
          "internalType": "string",
          "name": "imageHash",
          "type": "string"
        }
      ],
      "name": "ProductCreated",
      "type": "event"
    },
    {
      "anonymous": false,
      "inputs": [
        {
          "indexed": false,
          "internalType": "uint256",
          "name": "id",
          "type": "uint256"
        },
        {
          "indexed": false,
          "internalType": "string",
          "name": "name",
          "type": "string"
        },
        {
          "indexed": false,
          "internalType": "uint256",
          "name": "price",
          "type": "uint256"
        },
        {
          "indexed": false,
          "internalType": "address payable",
          "name": "owner",
          "type": "address"
        },
        {
          "indexed": false,
          "internalType": "bool",
          "name": "purchased",
          "type": "bool"
        }
      ],
      "name": "ProductPurchased",
      "type": "event"
    },
    {
      "constant": true,
      "inputs": [
        {
          "internalType": "uint256",
          "name": "",
          "type": "uint256"
        }
      ],
      "name": "customers",
      "outputs": [
        {
          "internalType": "uint256",
          "name": "id",
          "type": "uint256"
        },
        {
          "internalType": "address",
          "name": "owner",
          "type": "address"
        },
        {
          "internalType": "string",
          "name": "name",
          "type": "string"
        },
        {
          "internalType": "string",
          "name": "addressLocation",
          "type": "string"
        },
        {
          "internalType": "string",
          "name": "phone",
          "type": "string"
        },
        {
          "internalType": "uint256",
          "name": "itemCount",
          "type": "uint256"
        }
      ],
      "payable": false,
      "stateMutability": "view",
      "type": "function"
    },
    {
      "constant": true,
      "inputs": [],
      "name": "customersCount",
      "outputs": [
        {
          "internalType": "uint256",
          "name": "",
          "type": "uint256"
        }
      ],
      "payable": false,
      "stateMutability": "view",
      "type": "function"
    },
    {
      "constant": true,
      "inputs": [
        {
          "internalType": "uint256",
          "name": "",
          "type": "uint256"
        }
      ],
      "name": "foodDeliveries",
      "outputs": [
        {
          "internalType": "uint256",
          "name": "id",
          "type": "uint256"
        },
        {
          "internalType": "address",
          "name": "owner",
          "type": "address"
        },
        {
          "internalType": "string",
          "name": "name",
          "type": "string"
        },
        {
          "internalType": "string",
          "name": "phone",
          "type": "string"
        },
        {
          "internalType": "int256",
          "name": "rating",
          "type": "int256"
        },
        {
          "internalType": "bool",
          "name": "available",
          "type": "bool"
        },
        {
          "internalType": "uint256",
          "name": "ordersAcceptedCount",
          "type": "uint256"
        },
        {
          "internalType": "uint256",
          "name": "feedbackCount",
          "type": "uint256"
        }
      ],
      "payable": false,
      "stateMutability": "view",
      "type": "function"
    },
    {
      "constant": true,
      "inputs": [],
      "name": "foodDeliveriesCount",
      "outputs": [
        {
          "internalType": "uint256",
          "name": "",
          "type": "uint256"
        }
      ],
      "payable": false,
      "stateMutability": "view",
      "type": "function"
    },
    {
      "constant": true,
      "inputs": [
        {
          "internalType": "uint256",
          "name": "",
          "type": "uint256"
        }
      ],
      "name": "hawkers",
      "outputs": [
        {
          "internalType": "uint256",
          "name": "id",
          "type": "uint256"
        },
        {
          "internalType": "address",
          "name": "owner",
          "type": "address"
        },
        {
          "internalType": "string",
          "name": "name",
          "type": "string"
        },
        {
          "internalType": "string",
          "name": "addressLocation",
          "type": "string"
        },
        {
          "internalType": "string",
          "name": "openingHours",
          "type": "string"
        },
        {
          "internalType": "string",
          "name": "phone",
          "type": "string"
        },
        {
          "internalType": "uint256",
          "name": "avgRating",
          "type": "uint256"
        },
        {
          "internalType": "bool",
          "name": "open",
          "type": "bool"
        },
        {
          "internalType": "uint256",
          "name": "feedbackCount",
          "type": "uint256"
        }
      ],
      "payable": false,
      "stateMutability": "view",
      "type": "function"
    },
    {
      "constant": true,
      "inputs": [],
      "name": "hawkersCount",
      "outputs": [
        {
          "internalType": "uint256",
          "name": "",
          "type": "uint256"
        }
      ],
      "payable": false,
      "stateMutability": "view",
      "type": "function"
    },
    {
      "constant": true,
      "inputs": [
        {
          "internalType": "uint256",
          "name": "",
          "type": "uint256"
        }
      ],
      "name": "orders",
      "outputs": [
        {
          "internalType": "uint256",
          "name": "id",
          "type": "uint256"
        },
        {
          "internalType": "address",
          "name": "owner",
          "type": "address"
        },
        {
          "internalType": "address",
          "name": "seller",
          "type": "address"
        },
        {
          "internalType": "address",
          "name": "driver",
          "type": "address"
        },
        {
          "internalType": "uint256",
          "name": "totalPrice",
          "type": "uint256"
        },
        {
          "internalType": "uint256",
          "name": "purchasedItemCount",
          "type": "uint256"
        },
        {
          "internalType": "string",
          "name": "date",
          "type": "string"
        },
        {
          "internalType": "string",
          "name": "time",
          "type": "string"
        },
        {
          "internalType": "enum Marketplace.Status",
          "name": "state",
          "type": "uint8"
        },
        {
          "internalType": "bool",
          "name": "rated",
          "type": "bool"
        }
      ],
      "payable": false,
      "stateMutability": "view",
      "type": "function"
    },
    {
      "constant": true,
      "inputs": [],
      "name": "ordersCount",
      "outputs": [
        {
          "internalType": "uint256",
          "name": "",
          "type": "uint256"
        }
      ],
      "payable": false,
      "stateMutability": "view",
      "type": "function"
    },
    {
      "constant": true,
      "inputs": [],
      "name": "restProdCount",
      "outputs": [
        {
          "internalType": "uint256",
          "name": "",
          "type": "uint256"
        }
      ],
      "payable": false,
      "stateMutability": "view",
      "type": "function"
    },
    {
      "constant": true,
      "inputs": [
        {
          "internalType": "uint256",
          "name": "",
          "type": "uint256"
        }
      ],
      "name": "restProducts",
      "outputs": [
        {
          "internalType": "uint256",
          "name": "id",
          "type": "uint256"
        },
        {
          "internalType": "string",
          "name": "name",
          "type": "string"
        },
        {
          "internalType": "uint256",
          "name": "price",
          "type": "uint256"
        },
        {
          "internalType": "address payable",
          "name": "owner",
          "type": "address"
        },
        {
          "internalType": "bool",
          "name": "published",
          "type": "bool"
        },
        {
          "internalType": "string",
          "name": "imageHash",
          "type": "string"
        }
      ],
      "payable": false,
      "stateMutability": "view",
      "type": "function"
    },
    {
      "constant": true,
      "inputs": [],
      "name": "state",
      "outputs": [
        {
          "internalType": "enum Marketplace.Status",
          "name": "",
          "type": "uint8"
        }
      ],
      "payable": false,
      "stateMutability": "view",
      "type": "function"
    },
    {
      "constant": true,
      "inputs": [],
      "name": "suppProdCount",
      "outputs": [
        {
          "internalType": "uint256",
          "name": "",
          "type": "uint256"
        }
      ],
      "payable": false,
      "stateMutability": "view",
      "type": "function"
    },
    {
      "constant": true,
      "inputs": [
        {
          "internalType": "uint256",
          "name": "",
          "type": "uint256"
        }
      ],
      "name": "suppProducts",
      "outputs": [
        {
          "internalType": "uint256",
          "name": "id",
          "type": "uint256"
        },
        {
          "internalType": "string",
          "name": "name",
          "type": "string"
        },
        {
          "internalType": "uint256",
          "name": "price",
          "type": "uint256"
        },
        {
          "internalType": "address payable",
          "name": "owner",
          "type": "address"
        },
        {
          "internalType": "bool",
          "name": "purchased",
          "type": "bool"
        }
      ],
      "payable": false,
      "stateMutability": "view",
      "type": "function"
    },
    {
      "constant": false,
      "inputs": [
        {
          "internalType": "address",
          "name": "_owner",
          "type": "address"
        },
        {
          "internalType": "string",
          "name": "_name",
          "type": "string"
        },
        {
          "internalType": "string",
          "name": "_phone",
          "type": "string"
        },
        {
          "internalType": "bool",
          "name": "_available",
          "type": "bool"
        }
      ],
      "name": "addFoodDelivery",
      "outputs": [],
      "payable": false,
      "stateMutability": "nonpayable",
      "type": "function"
    },
    {
      "constant": false,
      "inputs": [
        {
          "internalType": "address",
          "name": "_owner",
          "type": "address"
        },
        {
          "internalType": "string",
          "name": "_name",
          "type": "string"
        },
        {
          "internalType": "string",
          "name": "_addressLocation",
          "type": "string"
        },
        {
          "internalType": "string",
          "name": "_openingHours",
          "type": "string"
        },
        {
          "internalType": "string",
          "name": "_phone",
          "type": "string"
        },
        {
          "internalType": "bool",
          "name": "_open",
          "type": "bool"
        }
      ],
      "name": "addHawker",
      "outputs": [],
      "payable": false,
      "stateMutability": "nonpayable",
      "type": "function"
    },
    {
      "constant": false,
      "inputs": [
        {
          "internalType": "string",
          "name": "_phone",
          "type": "string"
        },
        {
          "internalType": "string",
          "name": "_OH",
          "type": "string"
        }
      ],
      "name": "editHawkerProfile",
      "outputs": [],
      "payable": false,
      "stateMutability": "nonpayable",
      "type": "function"
    },
    {
      "constant": false,
      "inputs": [],
      "name": "boolOpen",
      "outputs": [],
      "payable": false,
      "stateMutability": "nonpayable",
      "type": "function"
    },
    {
      "constant": false,
      "inputs": [],
      "name": "boolWork",
      "outputs": [],
      "payable": false,
      "stateMutability": "nonpayable",
      "type": "function"
    },
    {
      "constant": false,
      "inputs": [
        {
          "internalType": "string",
          "name": "_name",
          "type": "string"
        },
        {
          "internalType": "uint256",
          "name": "_price",
          "type": "uint256"
        }
      ],
      "name": "createSuppProduct",
      "outputs": [],
      "payable": false,
      "stateMutability": "nonpayable",
      "type": "function"
    },
    {
      "constant": false,
      "inputs": [
        {
          "internalType": "string",
          "name": "_name",
          "type": "string"
        },
        {
          "internalType": "uint256",
          "name": "_price",
          "type": "uint256"
        },
        {
          "internalType": "bool",
          "name": "_published",
          "type": "bool"
        },
        {
          "internalType": "string",
          "name": "_imageHash",
          "type": "string"
        }
      ],
      "name": "createRestProduct",
      "outputs": [],
      "payable": false,
      "stateMutability": "nonpayable",
      "type": "function"
    },
    {
      "constant": false,
      "inputs": [
        {
          "internalType": "address",
          "name": "_owner",
          "type": "address"
        },
        {
          "internalType": "string",
          "name": "_name",
          "type": "string"
        },
        {
          "internalType": "string",
          "name": "_addressLocation",
          "type": "string"
        },
        {
          "internalType": "string",
          "name": "_phone",
          "type": "string"
        }
      ],
      "name": "addCustomer",
      "outputs": [],
      "payable": false,
      "stateMutability": "nonpayable",
      "type": "function"
    },
    {
      "constant": false,
      "inputs": [
        {
          "internalType": "string",
          "name": "_phone",
          "type": "string"
        },
        {
          "internalType": "string",
          "name": "_address",
          "type": "string"
        }
      ],
      "name": "editCustProfile",
      "outputs": [],
      "payable": false,
      "stateMutability": "nonpayable",
      "type": "function"
    },
    {
      "constant": false,
      "inputs": [
        {
          "internalType": "uint256",
          "name": "_productId",
          "type": "uint256"
        },
        {
          "internalType": "string",
          "name": "_name",
          "type": "string"
        },
        {
          "internalType": "uint256",
          "name": "_price",
          "type": "uint256"
        },
        {
          "internalType": "string",
          "name": "_imageHash",
          "type": "string"
        },
        {
          "internalType": "bool",
          "name": "_published",
          "type": "bool"
        }
      ],
      "name": "editProduct",
      "outputs": [],
      "payable": false,
      "stateMutability": "nonpayable",
      "type": "function"
    },
    {
      "constant": false,
      "inputs": [
        {
          "internalType": "uint256",
          "name": "_id",
          "type": "uint256"
        }
      ],
      "name": "addToCart",
      "outputs": [],
      "payable": false,
      "stateMutability": "nonpayable",
      "type": "function"
    },
    {
      "constant": false,
      "inputs": [
        {
          "internalType": "uint256",
          "name": "custId",
          "type": "uint256"
        },
        {
          "internalType": "uint256",
          "name": "cartId",
          "type": "uint256"
        }
      ],
      "name": "removeProdCart",
      "outputs": [],
      "payable": false,
      "stateMutability": "nonpayable",
      "type": "function"
    },
    {
      "constant": false,
      "inputs": [
        {
          "internalType": "uint256",
          "name": "productId",
          "type": "uint256"
        }
      ],
      "name": "deleteProduct",
      "outputs": [],
      "payable": false,
      "stateMutability": "nonpayable",
      "type": "function"
    },
    {
      "constant": false,
      "inputs": [
        {
          "internalType": "uint256",
          "name": "custId",
          "type": "uint256"
        }
      ],
      "name": "removeAllProdCart",
      "outputs": [],
      "payable": false,
      "stateMutability": "nonpayable",
      "type": "function"
    },
    {
      "constant": false,
      "inputs": [
        {
          "internalType": "uint256",
          "name": "custId",
          "type": "uint256"
        },
        {
          "internalType": "uint256",
          "name": "cartId",
          "type": "uint256"
        }
      ],
      "name": "getCartProduct",
      "outputs": [
        {
          "internalType": "uint256",
          "name": "",
          "type": "uint256"
        }
      ],
      "payable": false,
      "stateMutability": "nonpayable",
      "type": "function"
    },
    {
      "constant": false,
      "inputs": [
        {
          "internalType": "uint256",
          "name": "orderId",
          "type": "uint256"
        },
        {
          "internalType": "uint256",
          "name": "cartId",
          "type": "uint256"
        }
      ],
      "name": "getOrderProduct",
      "outputs": [
        {
          "components": [
            {
              "internalType": "uint256",
              "name": "id",
              "type": "uint256"
            },
            {
              "internalType": "string",
              "name": "name",
              "type": "string"
            },
            {
              "internalType": "uint256",
              "name": "price",
              "type": "uint256"
            },
            {
              "internalType": "address payable",
              "name": "owner",
              "type": "address"
            },
            {
              "internalType": "bool",
              "name": "published",
              "type": "bool"
            },
            {
              "internalType": "string",
              "name": "imageHash",
              "type": "string"
            }
          ],
          "internalType": "struct Marketplace.RestProduct",
          "name": "",
          "type": "tuple"
        }
      ],
      "payable": false,
      "stateMutability": "nonpayable",
      "type": "function"
    },
    {
      "constant": false,
      "inputs": [
        {
          "internalType": "uint256",
          "name": "hawkerId",
          "type": "uint256"
        },
        {
          "internalType": "uint256",
          "name": "feedbackCount",
          "type": "uint256"
        }
      ],
      "name": "getHawkerFeedback",
      "outputs": [
        {
          "components": [
            {
              "internalType": "uint256",
              "name": "id",
              "type": "uint256"
            },
            {
              "internalType": "address",
              "name": "seller",
              "type": "address"
            },
            {
              "internalType": "address",
              "name": "customer",
              "type": "address"
            },
            {
              "internalType": "uint256",
              "name": "rate",
              "type": "uint256"
            },
            {
              "internalType": "string",
              "name": "comment",
              "type": "string"
            }
          ],
          "internalType": "struct Marketplace.Feedback",
          "name": "",
          "type": "tuple"
        }
      ],
      "payable": false,
      "stateMutability": "nonpayable",
      "type": "function"
    },
    {
      "constant": false,
      "inputs": [
        {
          "internalType": "uint256",
          "name": "fdId",
          "type": "uint256"
        },
        {
          "internalType": "uint256",
          "name": "feedbackCount",
          "type": "uint256"
        }
      ],
      "name": "getFdFeedback",
      "outputs": [
        {
          "components": [
            {
              "internalType": "uint256",
              "name": "id",
              "type": "uint256"
            },
            {
              "internalType": "address",
              "name": "seller",
              "type": "address"
            },
            {
              "internalType": "address",
              "name": "customer",
              "type": "address"
            },
            {
              "internalType": "uint256",
              "name": "rate",
              "type": "uint256"
            },
            {
              "internalType": "string",
              "name": "comment",
              "type": "string"
            }
          ],
          "internalType": "struct Marketplace.Feedback",
          "name": "",
          "type": "tuple"
        }
      ],
      "payable": false,
      "stateMutability": "nonpayable",
      "type": "function"
    },
    {
      "constant": false,
      "inputs": [
        {
          "internalType": "uint256",
          "name": "_orderId",
          "type": "uint256"
        },
        {
          "internalType": "address",
          "name": "_hawker",
          "type": "address"
        },
        {
          "internalType": "uint256",
          "name": "_hawkerRate",
          "type": "uint256"
        },
        {
          "internalType": "string",
          "name": "_hawkerComment",
          "type": "string"
        },
        {
          "internalType": "address",
          "name": "_foodDelivery",
          "type": "address"
        },
        {
          "internalType": "uint256",
          "name": "_fdRate",
          "type": "uint256"
        },
        {
          "internalType": "string",
          "name": "_fdComment",
          "type": "string"
        }
      ],
      "name": "setRating",
      "outputs": [],
      "payable": false,
      "stateMutability": "nonpayable",
      "type": "function"
    },
    {
      "constant": false,
      "inputs": [
        {
          "internalType": "uint256",
          "name": "_custId",
          "type": "uint256"
        },
        {
          "internalType": "address payable",
          "name": "_seller",
          "type": "address"
        },
        {
          "internalType": "uint256",
          "name": "_totalCost",
          "type": "uint256"
        },
        {
          "internalType": "string",
          "name": "_date",
          "type": "string"
        },
        {
          "internalType": "string",
          "name": "_time",
          "type": "string"
        }
      ],
      "name": "purchaseProduct",
      "outputs": [],
      "payable": true,
      "stateMutability": "payable",
      "type": "function"
    },
    {
      "constant": false,
      "inputs": [
        {
          "internalType": "uint256",
          "name": "_orderId",
          "type": "uint256"
        }
      ],
      "name": "hawkerConfirmOrder",
      "outputs": [],
      "payable": false,
      "stateMutability": "nonpayable",
      "type": "function"
    },
    {
      "constant": false,
      "inputs": [
        {
          "internalType": "uint256",
          "name": "_orderId",
          "type": "uint256"
        }
      ],
      "name": "fdAcceptOrder",
      "outputs": [],
      "payable": false,
      "stateMutability": "nonpayable",
      "type": "function"
    },
    {
      "constant": false,
      "inputs": [
        {
          "internalType": "uint256",
          "name": "_orderId",
          "type": "uint256"
        }
      ],
      "name": "fdCompleteOrder",
      "outputs": [],
      "payable": false,
      "stateMutability": "nonpayable",
      "type": "function"
    }
  ],
  "bytecode": "0x6080604052600060045560006006553480156200001b57600080fd5b50620000e37373c005d4b234c63f416f6e1038c011d55eddbf1e6040518060400160405280601681526020017f53656c6572612052617361204e617369204c656d616b000000000000000000008152506040518060600160405280602f81526020016200553a602f9139604051806060016040528060358152602001620055d2603591396040518060400160405280600881526020017f39383433343530390000000000000000000000000000000000000000000000008152506000620003b560201b60201c565b620001aa7387ecee1454a7b32253a9020f6ae1ff25e9ce35b56040518060400160405280602081526020017f5469616e205469616e204861696e616e65736520436869636b656e20526963658152506040518060800160405280604681526020016200556960469139604051806060016040528060238152602001620055af602391396040518060400160405280600881526020017f39363931343835320000000000000000000000000000000000000000000000008152506000620003b560201b60201c565b6200027173c9342f12d49ca9e40d600ebf17266dccc88a06396040518060400160405280600981526020017f436173756172696e6100000000000000000000000000000000000000000000008152506040518060400160405280602081526020017f3530204e616e79616e67204176652c2053696e6761706f7265203633393739388152506040518060400160405280600881526020017f39383736353433320000000000000000000000000000000000000000000000008152506200054560201b60201c565b6200031c737c2ea58a210f8e7c80fdeb6788c1d5fc4a3e73ba6040518060400160405280600781526020017f5061747269636b0000000000000000000000000000000000000000000000000081525060405180606001604052806025815260200162005607602591396040518060400160405280600881526020017f39313233343536370000000000000000000000000000000000000000000000008152506200054560201b60201c565b620003af7366f8f66996aab36b041b1cada9f20864a0c426986040518060400160405280600781526020017f4c656f2054616e000000000000000000000000000000000000000000000000008152506040518060400160405280600881526020017f393031323334353600000000000000000000000000000000000000000000000081525060006200067360201b60201c565b62000875565b60036000815480929190600101919050555060405180610120016040528060035481526020018773ffffffffffffffffffffffffffffffffffffffff16815260200186815260200185815260200184815260200183815260200160008152602001821515815260200160008152506002600060035481526020019081526020016000206000820151816000015560208201518160010160006101000a81548173ffffffffffffffffffffffffffffffffffffffff021916908373ffffffffffffffffffffffffffffffffffffffff1602179055506040820151816002019080519060200190620004a7929190620007c6565b506060820151816003019080519060200190620004c6929190620007c6565b506080820151816004019080519060200190620004e5929190620007c6565b5060a082015181600501908051906020019062000504929190620007c6565b5060c0820151816006015560e08201518160070160006101000a81548160ff0219169083151502179055506101008201518160090155905050505050505050565b600c600081548092919060010191905055506040518060c00160405280600c5481526020018573ffffffffffffffffffffffffffffffffffffffff1681526020018481526020018381526020018281526020016000815250600b6000600c5481526020019081526020016000206000820151816000015560208201518160010160006101000a81548173ffffffffffffffffffffffffffffffffffffffff021916908373ffffffffffffffffffffffffffffffffffffffff160217905550604082015181600201908051906020019062000621929190620007c6565b50606082015181600301908051906020019062000640929190620007c6565b5060808201518160040190805190602001906200065f929190620007c6565b5060a0820151816006015590505050505050565b60016000815480929190600101919050555060405180610100016040528060015481526020018573ffffffffffffffffffffffffffffffffffffffff16815260200184815260200183815260200160058152602001821515815260200160008152602001600081525060008060015481526020019081526020016000206000820151816000015560208201518160010160006101000a81548173ffffffffffffffffffffffffffffffffffffffff021916908373ffffffffffffffffffffffffffffffffffffffff16021790555060408201518160020190805190602001906200075f929190620007c6565b5060608201518160030190805190602001906200077e929190620007c6565b506080820151816004015560a08201518160050160006101000a81548160ff02191690831515021790555060c0820151816007015560e0820151816009015590505050505050565b828054600181600116156101000203166002900490600052602060002090601f016020900481019282601f106200080957805160ff19168380011785556200083a565b828001600101855582156200083a579182015b82811115620008395782518255916020019190600101906200081c565b5b5090506200084991906200084d565b5090565b6200087291905b808211156200086e57600081600090555060010162000854565b5090565b90565b614cb580620008856000396000f3fe60806040526004361061020f5760003560e01c8063995d7d9311610118578063c6705e9f116100a0578063e16f14e21161006f578063e16f14e2146107ce578063e6f65b4c1461080f578063ed90c7b71461083a578063f0eab43014610863578063f89e76971461088c5761020f565b8063c6705e9f14610716578063cc3cb43214610753578063db3a0abd1461077c578063dbeb584b146107a55761020f565b8063abed579f116100e7578063abed579f14610613578063afc7c23614610655578063b0fd5c461461067e578063c0abda2a146106a9578063c19d93fb146106eb5761020f565b8063995d7d93146105505780639d0d6f8b14610579578063a85c38ef146105a2578063a9937b22146105e85761020f565b80634244c3d41161019b578063702742b01161016a578063702742b0146104815780637078b09a146104aa578063757a2703146104d35780638455776b146104fe5780638968bffd146105275761020f565b80634244c3d4146103db5780634368d179146104045780634937f2a714610441578063623eb0d2146104585761020f565b80631460953c116101e25780631460953c146102c857806315cfae39146102f1578063278e381c1461032e57806335daa7311461036b5780633be94d47146103965761020f565b80630710f1f114610214578063093c05fa146102305780630b90cd28146102745780630c21a8d21461029d575b600080fd5b61022e600480360361022991908101906141f6565b6108a3565b005b34801561023c57600080fd5b50610257600480360361025291908101906141cd565b610e6d565b60405161026b9897969594939291906147b9565b60405180910390f35b34801561028057600080fd5b5061029b6004803603610296919081019061407a565b611012565b005b3480156102a957600080fd5b506102b26110f8565b6040516102bf91906146f4565b60405180910390f35b3480156102d457600080fd5b506102ef60048036036102ea9190810190613ee6565b6110fe565b005b3480156102fd57600080fd5b5061031860048036036103139190810190614412565b611226565b60405161032591906146b0565b60405180910390f35b34801561033a57600080fd5b5061035560048036036103509190810190614412565b6113db565b60405161036291906146d2565b60405180910390f35b34801561037757600080fd5b50610380611614565b60405161038d91906146f4565b60405180910390f35b3480156103a257600080fd5b506103bd60048036036103b891908101906141cd565b61161a565b6040516103d299989796959493929190614845565b60405180910390f35b3480156103e757600080fd5b5061040260048036036103fd9190810190614412565b6118f5565b005b34801561041057600080fd5b5061042b60048036036104269190810190614412565b61194e565b60405161043891906146b0565b60405180910390f35b34801561044d57600080fd5b50610456611b04565b005b34801561046457600080fd5b5061047f600480360361047a91908101906140e6565b611be1565b005b34801561048d57600080fd5b506104a860048036036104a391908101906141cd565b611d48565b005b3480156104b657600080fd5b506104d160048036036104cc919081019061407a565b611e7c565b005b3480156104df57600080fd5b506104e8611f62565b6040516104f591906146f4565b60405180910390f35b34801561050a57600080fd5b506105256004803603610520919081019061429d565b611f68565b005b34801561053357600080fd5b5061054e6004803603610549919081019061436b565b61246d565b005b34801561055c57600080fd5b50610577600480360361057291908101906141cd565b612553565b005b34801561058557600080fd5b506105a0600480360361059b91908101906141cd565b612c51565b005b3480156105ae57600080fd5b506105c960048036036105c491908101906141cd565b612ccc565b6040516105df9a9998979695949392919061470f565b60405180910390f35b3480156105f457600080fd5b506105fd612eca565b60405161060a91906146f4565b60405180910390f35b34801561061f57600080fd5b5061063a600480360361063591908101906141cd565b612ed0565b60405161064c96959493929190614a2d565b60405180910390f35b34801561066157600080fd5b5061067c60048036036106779190810190613e53565b613069565b005b34801561068a57600080fd5b506106936131b8565b6040516106a091906146f4565b60405180910390f35b3480156106b557600080fd5b506106d060048036036106cb91908101906141cd565b6131be565b6040516106e2969594939291906148ee565b60405180910390f35b3480156106f757600080fd5b506107006133e2565b60405161070d9190614695565b60405180910390f35b34801561072257600080fd5b5061073d60048036036107389190810190614412565b6133f5565b60405161074a91906146f4565b60405180910390f35b34801561075f57600080fd5b5061077a6004803603610775919081019061413a565b61342f565b005b34801561078857600080fd5b506107a3600480360361079e9190810190613f91565b6135b9565b005b3480156107b157600080fd5b506107cc60048036036107c791908101906141cd565b613741565b005b3480156107da57600080fd5b506107f560048036036107f091908101906141cd565b6137bc565b6040516108069594939291906149d3565b60405180910390f35b34801561081b57600080fd5b506108246138b7565b60405161083191906146f4565b60405180910390f35b34801561084657600080fd5b50610861600480360361085c91908101906141cd565b6138bd565b005b34801561086f57600080fd5b5061088a600480360361088591908101906141cd565b613954565b005b34801561089857600080fd5b506108a16139c7565b005b6108ab613aa7565b600b60008781526020019081526020016000206040518060c0016040529081600082015481526020016001820160009054906101000a900473ffffffffffffffffffffffffffffffffffffffff1673ffffffffffffffffffffffffffffffffffffffff1673ffffffffffffffffffffffffffffffffffffffff168152602001600282018054600181600116156101000203166002900480601f0160208091040260200160405190810160405280929190818152602001828054600181600116156101000203166002900480156109c25780601f10610997576101008083540402835291602001916109c2565b820191906000526020600020905b8154815290600101906020018083116109a557829003601f168201915b50505050508152602001600382018054600181600116156101000203166002900480601f016020809104026020016040519081016040528092919081815260200182805460018160011615610100020316600290048015610a645780601f10610a3957610100808354040283529160200191610a64565b820191906000526020600020905b815481529060010190602001808311610a4757829003601f168201915b50505050508152602001600482018054600181600116156101000203166002900480601f016020809104026020016040519081016040528092919081815260200182805460018160011615610100020316600290048015610b065780601f10610adb57610100808354040283529160200191610b06565b820191906000526020600020905b815481529060010190602001808311610ae957829003601f168201915b505050505081526020016006820154815250509050600a600081548092919060010191905055506000600860006101000a81548160ff02191690836003811115610b4c57fe5b0217905550604051806101400160405280600a548152602001826020015173ffffffffffffffffffffffffffffffffffffffff1681526020018673ffffffffffffffffffffffffffffffffffffffff168152602001600073ffffffffffffffffffffffffffffffffffffffff1681526020018581526020018260a001518152602001848152602001838152602001600860009054906101000a900460ff166003811115610bf557fe5b81526020016000151581525060096000600a5481526020019081526020016000206000820151816000015560208201518160010160006101000a81548173ffffffffffffffffffffffffffffffffffffffff021916908373ffffffffffffffffffffffffffffffffffffffff16021790555060408201518160020160006101000a81548173ffffffffffffffffffffffffffffffffffffffff021916908373ffffffffffffffffffffffffffffffffffffffff16021790555060608201518160030160006101000a81548173ffffffffffffffffffffffffffffffffffffffff021916908373ffffffffffffffffffffffffffffffffffffffff1602179055506080820151816004015560a0820151816006015560c0820151816007019080519060200190610d25929190613af3565b5060e0820151816008019080519060200190610d42929190613af3565b506101008201518160090160006101000a81548160ff02191690836003811115610d6857fe5b02179055506101208201518160090160016101000a81548160ff0219169083151502179055509050506000600190505b8160a001518111610e14576000610daf88836133f5565b905060405180604001604052808381526020018281525060096000600a54815260200190815260200160002060050160008481526020019081526020016000206000820151816000015560208201518160010155905050508080600101915050610d98565b508473ffffffffffffffffffffffffffffffffffffffff166108fc349081150290604051600060405180830381858888f19350505050158015610e5b573d6000803e3d6000fd5b50610e6586613954565b505050505050565b60006020528060005260406000206000915090508060000154908060010160009054906101000a900473ffffffffffffffffffffffffffffffffffffffff1690806002018054600181600116156101000203166002900480601f016020809104026020016040519081016040528092919081815260200182805460018160011615610100020316600290048015610f455780601f10610f1a57610100808354040283529160200191610f45565b820191906000526020600020905b815481529060010190602001808311610f2857829003601f168201915b505050505090806003018054600181600116156101000203166002900480601f016020809104026020016040519081016040528092919081815260200182805460018160011615610100020316600290048015610fe35780601f10610fb857610100808354040283529160200191610fe3565b820191906000526020600020905b815481529060010190602001808311610fc657829003601f168201915b5050505050908060040154908060050160009054906101000a900460ff16908060070154908060090154905088565b6000809050600090505b600c5481116110f3573373ffffffffffffffffffffffffffffffffffffffff16600b600083815260200190815260200160002060010160009054906101000a900473ffffffffffffffffffffffffffffffffffffffff1673ffffffffffffffffffffffffffffffffffffffff1614156110e65782600b600083815260200190815260200160002060040190805190602001906110b9929190613b73565b5081600b600083815260200190815260200160002060030190805190602001906110e4929190613b73565b505b808060010191505061101c565b505050565b600c5481565b600c600081548092919060010191905055506040518060c00160405280600c5481526020018573ffffffffffffffffffffffffffffffffffffffff1681526020018481526020018381526020018281526020016000815250600b6000600c5481526020019081526020016000206000820151816000015560208201518160010160006101000a81548173ffffffffffffffffffffffffffffffffffffffff021916908373ffffffffffffffffffffffffffffffffffffffff16021790555060408201518160020190805190602001906111d8929190613af3565b5060608201518160030190805190602001906111f5929190613af3565b506080820151816004019080519060200190611212929190613af3565b5060a0820151816006015590505050505050565b61122e613bf3565b6000806000858152602001908152602001600020905061124c613bf3565b8160080160008581526020019081526020016000206040518060a0016040529081600082015481526020016001820160009054906101000a900473ffffffffffffffffffffffffffffffffffffffff1673ffffffffffffffffffffffffffffffffffffffff1673ffffffffffffffffffffffffffffffffffffffff1681526020016002820160009054906101000a900473ffffffffffffffffffffffffffffffffffffffff1673ffffffffffffffffffffffffffffffffffffffff1673ffffffffffffffffffffffffffffffffffffffff16815260200160038201548152602001600482018054600181600116156101000203166002900480601f0160208091040260200160405190810160405280929190818152602001828054600181600116156101000203166002900480156113c55780601f1061139a576101008083540402835291602001916113c5565b820191906000526020600020905b8154815290600101906020018083116113a857829003601f168201915b5050505050815250509050809250505092915050565b6113e3613c4e565b6000600960008581526020019081526020016000209050600081600501600085815260200190815260200160002060010154905061141f613c4e565b600760008381526020019081526020016000206040518060c001604052908160008201548152602001600182018054600181600116156101000203166002900480601f0160208091040260200160405190810160405280929190818152602001828054600181600116156101000203166002900480156114e05780601f106114b5576101008083540402835291602001916114e0565b820191906000526020600020905b8154815290600101906020018083116114c357829003601f168201915b50505050508152602001600282015481526020016003820160009054906101000a900473ffffffffffffffffffffffffffffffffffffffff1673ffffffffffffffffffffffffffffffffffffffff1673ffffffffffffffffffffffffffffffffffffffff1681526020016003820160149054906101000a900460ff16151515158152602001600482018054600181600116156101000203166002900480601f0160208091040260200160405190810160405280929190818152602001828054600181600116156101000203166002900480156115fd5780601f106115d2576101008083540402835291602001916115fd565b820191906000526020600020905b8154815290600101906020018083116115e057829003601f168201915b505050505081525050905080935050505092915050565b600a5481565b60026020528060005260406000206000915090508060000154908060010160009054906101000a900473ffffffffffffffffffffffffffffffffffffffff1690806002018054600181600116156101000203166002900480601f0160208091040260200160405190810160405280929190818152602001828054600181600116156101000203166002900480156116f25780601f106116c7576101008083540402835291602001916116f2565b820191906000526020600020905b8154815290600101906020018083116116d557829003601f168201915b505050505090806003018054600181600116156101000203166002900480601f0160208091040260200160405190810160405280929190818152602001828054600181600116156101000203166002900480156117905780601f1061176557610100808354040283529160200191611790565b820191906000526020600020905b81548152906001019060200180831161177357829003601f168201915b505050505090806004018054600181600116156101000203166002900480601f01602080910402602001604051908101604052809291908181526020018280546001816001161561010002031660029004801561182e5780601f106118035761010080835404028352916020019161182e565b820191906000526020600020905b81548152906001019060200180831161181157829003601f168201915b505050505090806005018054600181600116156101000203166002900480601f0160208091040260200160405190810160405280929190818152602001828054600181600116156101000203166002900480156118cc5780601f106118a1576101008083540402835291602001916118cc565b820191906000526020600020905b8154815290600101906020018083116118af57829003601f168201915b5050505050908060060154908060070160009054906101000a900460ff16908060090154905089565b6000600b6000848152602001908152602001600020905080600601600081548092919060019003919050555080600501600083815260200190815260200160002060008082016000905560018201600090555050505050565b611956613bf3565b6000600260008581526020019081526020016000209050611975613bf3565b8160080160008581526020019081526020016000206040518060a0016040529081600082015481526020016001820160009054906101000a900473ffffffffffffffffffffffffffffffffffffffff1673ffffffffffffffffffffffffffffffffffffffff1673ffffffffffffffffffffffffffffffffffffffff1681526020016002820160009054906101000a900473ffffffffffffffffffffffffffffffffffffffff1673ffffffffffffffffffffffffffffffffffffffff1673ffffffffffffffffffffffffffffffffffffffff16815260200160038201548152602001600482018054600181600116156101000203166002900480601f016020809104026020016040519081016040528092919081815260200182805460018160011615610100020316600290048015611aee5780601f10611ac357610100808354040283529160200191611aee565b820191906000526020600020905b815481529060010190602001808311611ad157829003601f168201915b5050505050815250509050809250505092915050565b6000809050600090505b6001548111611bde573373ffffffffffffffffffffffffffffffffffffffff1660008083815260200190815260200160002060010160009054906101000a900473ffffffffffffffffffffffffffffffffffffffff1673ffffffffffffffffffffffffffffffffffffffff161415611bd15760008082815260200190815260200160002060050160009054906101000a900460ff161560008083815260200190815260200160002060050160006101000a81548160ff0219169083151502179055505b8080600101915050611b0e565b50565b6000825111611bef57600080fd5b60008111611bfc57600080fd5b6004600081548092919060010191905055506040518060a0016040528060045481526020018381526020018281526020013373ffffffffffffffffffffffffffffffffffffffff16815260200160001515815250600560006004548152602001908152602001600020600082015181600001556020820151816001019080519060200190611c8b929190613af3565b506040820151816002015560608201518160030160006101000a81548173ffffffffffffffffffffffffffffffffffffffff021916908373ffffffffffffffffffffffffffffffffffffffff16021790555060808201518160030160146101000a81548160ff0219169083151502179055509050507fd87ce4bfd22bad4a8ed8acd04d5670a4166b81f64fe53488db885e1987f33d82600454838333600087604051611d3c96959493929190614964565b60405180910390a15050565b6000809050600090505b600c548111611e78573373ffffffffffffffffffffffffffffffffffffffff16600b600083815260200190815260200160002060010160009054906101000a900473ffffffffffffffffffffffffffffffffffffffff1673ffffffffffffffffffffffffffffffffffffffff161415611e6b57600b6000828152602001908152602001600020600601600081548092919060010191905055506040518060400160405280600b600084815260200190815260200160002060060154815260200183815250600b60008381526020019081526020016000206005016000600b600085815260200190815260200160002060060154815260200190815260200160002060008201518160000155602082015181600101559050505b8080600101915050611d52565b5050565b6000809050600090505b6003548111611f5d573373ffffffffffffffffffffffffffffffffffffffff166002600083815260200190815260200160002060010160009054906101000a900473ffffffffffffffffffffffffffffffffffffffff1673ffffffffffffffffffffffffffffffffffffffff161415611f505782600260008381526020019081526020016000206005019080519060200190611f23929190613b73565b5081600260008381526020019081526020016000206004019080519060200190611f4e929190613b73565b505b8080600101915050611e86565b505050565b60065481565b6000809050600090505b600a548111611fd6578760096000838152602001908152602001600020600001541415611fc95760016009600083815260200190815260200160002060090160016101000a81548160ff0219169083151502179055505b8080600101915050611f72565b6000809050600090505b600354811161224d578773ffffffffffffffffffffffffffffffffffffffff166002600083815260200190815260200160002060010160009054906101000a900473ffffffffffffffffffffffffffffffffffffffff1673ffffffffffffffffffffffffffffffffffffffff1614156122405760026000828152602001908152602001600020600901600081548092919060010191905055506040518060a00160405280600260008481526020019081526020016000206009015481526020018973ffffffffffffffffffffffffffffffffffffffff1681526020013373ffffffffffffffffffffffffffffffffffffffff16815260200188815260200187815250600260008381526020019081526020016000206008016000600260008581526020019081526020016000206009015481526020019081526020016000206000820151816000015560208201518160010160006101000a81548173ffffffffffffffffffffffffffffffffffffffff021916908373ffffffffffffffffffffffffffffffffffffffff16021790555060408201518160020160006101000a81548173ffffffffffffffffffffffffffffffffffffffff021916908373ffffffffffffffffffffffffffffffffffffffff1602179055506060820151816003015560808201518160040190805190602001906121dd929190613af3565b50905050600060026000838152602001908152602001600020600601548801905060006002600084815260200190815260200160002060090154828161221f57fe5b04905080600260008581526020019081526020016000206006018190555050505b8080600101915050611fe0565b6000809050600090505b6001548111612461578573ffffffffffffffffffffffffffffffffffffffff1660008083815260200190815260200160002060010160009054906101000a900473ffffffffffffffffffffffffffffffffffffffff1673ffffffffffffffffffffffffffffffffffffffff16141561245457600080828152602001908152602001600020600901600081548092919060010191905055506040518060a001604052806000808481526020019081526020016000206009015481526020018773ffffffffffffffffffffffffffffffffffffffff1681526020013373ffffffffffffffffffffffffffffffffffffffff1681526020018681526020018581525060008083815260200190815260200160002060080160008060008581526020019081526020016000206009015481526020019081526020016000206000820151816000015560208201518160010160006101000a81548173ffffffffffffffffffffffffffffffffffffffff021916908373ffffffffffffffffffffffffffffffffffffffff16021790555060408201518160020160006101000a81548173ffffffffffffffffffffffffffffffffffffffff021916908373ffffffffffffffffffffffffffffffffffffffff16021790555060608201518160030155608082015181600401908051906020019061244f929190613af3565b509050505b8080600101915050612257565b50505050505050505050565b6000809050600090505b600654811161254b57856007600083815260200190815260200160002060000154141561253e57846007600083815260200190815260200160002060010190805190602001906124c8929190613b73565b508360076000838152602001908152602001600020600201819055508260076000838152602001908152602001600020600401908051906020019061250e929190613b73565b50816007600083815260200190815260200160002060030160146101000a81548160ff0219169083151502179055505b8080600101915050612477565b505050505050565b6000809050600090505b600a54811161261f5781600960008381526020019081526020016000206000015414156126125760026009600083815260200190815260200160002060090160006101000a81548160ff021916908360038111156125b757fe5b0217905550336009600083815260200190815260200160002060030160006101000a81548173ffffffffffffffffffffffffffffffffffffffff021916908373ffffffffffffffffffffffffffffffffffffffff1602179055505b808060010191505061255d565b612627613c9c565b6009600084815260200190815260200160002060405180610140016040529081600082015481526020016001820160009054906101000a900473ffffffffffffffffffffffffffffffffffffffff1673ffffffffffffffffffffffffffffffffffffffff1673ffffffffffffffffffffffffffffffffffffffff1681526020016002820160009054906101000a900473ffffffffffffffffffffffffffffffffffffffff1673ffffffffffffffffffffffffffffffffffffffff1673ffffffffffffffffffffffffffffffffffffffff1681526020016003820160009054906101000a900473ffffffffffffffffffffffffffffffffffffffff1673ffffffffffffffffffffffffffffffffffffffff1673ffffffffffffffffffffffffffffffffffffffff1681526020016004820154815260200160068201548152602001600782018054600181600116156101000203166002900480601f0160208091040260200160405190810160405280929190818152602001828054600181600116156101000203166002900480156127ff5780601f106127d4576101008083540402835291602001916127ff565b820191906000526020600020905b8154815290600101906020018083116127e257829003601f168201915b50505050508152602001600882018054600181600116156101000203166002900480601f0160208091040260200160405190810160405280929190818152602001828054600181600116156101000203166002900480156128a15780601f10612876576101008083540402835291602001916128a1565b820191906000526020600020905b81548152906001019060200180831161288457829003601f168201915b505050505081526020016009820160009054906101000a900460ff1660038111156128c857fe5b60038111156128d357fe5b81526020016009820160019054906101000a900460ff161515151581525050905060008160200151905060008260400151905060008360800151905060008460a00151905060608560c00151905060608660e001519050600087610100015190506000809050600090505b6001548111612c44573373ffffffffffffffffffffffffffffffffffffffff1660008083815260200190815260200160002060010160009054906101000a900473ffffffffffffffffffffffffffffffffffffffff1673ffffffffffffffffffffffffffffffffffffffff161415612c3757600080828152602001908152602001600020600701600081548092919060010191905055506040518061014001604052806000808481526020019081526020016000206007015481526020018973ffffffffffffffffffffffffffffffffffffffff1681526020018873ffffffffffffffffffffffffffffffffffffffff1681526020013373ffffffffffffffffffffffffffffffffffffffff168152602001878152602001868152602001858152602001848152602001836003811115612a7457fe5b81526020016000151581525060008083815260200190815260200160002060060160008060008581526020019081526020016000206007015481526020019081526020016000206000820151816000015560208201518160010160006101000a81548173ffffffffffffffffffffffffffffffffffffffff021916908373ffffffffffffffffffffffffffffffffffffffff16021790555060408201518160020160006101000a81548173ffffffffffffffffffffffffffffffffffffffff021916908373ffffffffffffffffffffffffffffffffffffffff16021790555060608201518160030160006101000a81548173ffffffffffffffffffffffffffffffffffffffff021916908373ffffffffffffffffffffffffffffffffffffffff1602179055506080820151816004015560a0820151816006015560c0820151816007019080519060200190612bca929190613af3565b5060e0820151816008019080519060200190612be7929190613af3565b506101008201518160090160006101000a81548160ff02191690836003811115612c0d57fe5b02179055506101208201518160090160016101000a81548160ff0219169083151502179055509050505b808060010191505061293e565b5050505050505050505050565b6000809050600090505b600a548111612cc8578160096000838152602001908152602001600020600001541415612cbb5760016009600083815260200190815260200160002060090160006101000a81548160ff02191690836003811115612cb557fe5b02179055505b8080600101915050612c5b565b5050565b60096020528060005260406000206000915090508060000154908060010160009054906101000a900473ffffffffffffffffffffffffffffffffffffffff16908060020160009054906101000a900473ffffffffffffffffffffffffffffffffffffffff16908060030160009054906101000a900473ffffffffffffffffffffffffffffffffffffffff1690806004015490806006015490806007018054600181600116156101000203166002900480601f016020809104026020016040519081016040528092919081815260200182805460018160011615610100020316600290048015612dfc5780601f10612dd157610100808354040283529160200191612dfc565b820191906000526020600020905b815481529060010190602001808311612ddf57829003601f168201915b505050505090806008018054600181600116156101000203166002900480601f016020809104026020016040519081016040528092919081815260200182805460018160011615610100020316600290048015612e9a5780601f10612e6f57610100808354040283529160200191612e9a565b820191906000526020600020905b815481529060010190602001808311612e7d57829003601f168201915b5050505050908060090160009054906101000a900460ff16908060090160019054906101000a900460ff1690508a565b60045481565b6007602052806000526040600020600091509050806000015490806001018054600181600116156101000203166002900480601f016020809104026020016040519081016040528092919081815260200182805460018160011615610100020316600290048015612f825780601f10612f5757610100808354040283529160200191612f82565b820191906000526020600020905b815481529060010190602001808311612f6557829003601f168201915b5050505050908060020154908060030160009054906101000a900473ffffffffffffffffffffffffffffffffffffffff16908060030160149054906101000a900460ff1690806004018054600181600116156101000203166002900480601f01602080910402602001604051908101604052809291908181526020018280546001816001161561010002031660029004801561305f5780601f106130345761010080835404028352916020019161305f565b820191906000526020600020905b81548152906001019060200180831161304257829003601f168201915b5050505050905086565b60016000815480929190600101919050555060405180610100016040528060015481526020018573ffffffffffffffffffffffffffffffffffffffff16815260200184815260200183815260200160058152602001821515815260200160008152602001600081525060008060015481526020019081526020016000206000820151816000015560208201518160010160006101000a81548173ffffffffffffffffffffffffffffffffffffffff021916908373ffffffffffffffffffffffffffffffffffffffff1602179055506040820151816002019080519060200190613153929190613af3565b506060820151816003019080519060200190613170929190613af3565b506080820151816004015560a08201518160050160006101000a81548160ff02191690831515021790555060c0820151816007015560e0820151816009015590505050505050565b60015481565b600b6020528060005260406000206000915090508060000154908060010160009054906101000a900473ffffffffffffffffffffffffffffffffffffffff1690806002018054600181600116156101000203166002900480601f0160208091040260200160405190810160405280929190818152602001828054600181600116156101000203166002900480156132965780601f1061326b57610100808354040283529160200191613296565b820191906000526020600020905b81548152906001019060200180831161327957829003601f168201915b505050505090806003018054600181600116156101000203166002900480601f0160208091040260200160405190810160405280929190818152602001828054600181600116156101000203166002900480156133345780601f1061330957610100808354040283529160200191613334565b820191906000526020600020905b81548152906001019060200180831161331757829003601f168201915b505050505090806004018054600181600116156101000203166002900480601f0160208091040260200160405190810160405280929190818152602001828054600181600116156101000203166002900480156133d25780601f106133a7576101008083540402835291602001916133d2565b820191906000526020600020905b8154815290600101906020018083116133b557829003601f168201915b5050505050908060060154905086565b600860009054906101000a900460ff1681565b600080600b600085815260200190815260200160002090508060050160008481526020019081526020016000206001015491505092915050565b600084511161343d57600080fd5b6000831161344a57600080fd5b6006600081548092919060010191905055506040518060c0016040528060065481526020018581526020018481526020013373ffffffffffffffffffffffffffffffffffffffff1681526020018315158152602001828152506007600060065481526020019081526020016000206000820151816000015560208201518160010190805190602001906134de929190613af3565b506040820151816002015560608201518160030160006101000a81548173ffffffffffffffffffffffffffffffffffffffff021916908373ffffffffffffffffffffffffffffffffffffffff16021790555060808201518160030160146101000a81548160ff02191690831515021790555060a082015181600401908051906020019061356c929190613af3565b509050507fd87ce4bfd22bad4a8ed8acd04d5670a4166b81f64fe53488db885e1987f33d8260065485853386866040516135ab96959493929190614964565b60405180910390a150505050565b60036000815480929190600101919050555060405180610120016040528060035481526020018773ffffffffffffffffffffffffffffffffffffffff16815260200186815260200185815260200184815260200183815260200160008152602001821515815260200160008152506002600060035481526020019081526020016000206000820151816000015560208201518160010160006101000a81548173ffffffffffffffffffffffffffffffffffffffff021916908373ffffffffffffffffffffffffffffffffffffffff16021790555060408201518160020190805190602001906136a9929190613af3565b5060608201518160030190805190602001906136c6929190613af3565b5060808201518160040190805190602001906136e3929190613af3565b5060a0820151816005019080519060200190613700929190613af3565b5060c0820151816006015560e08201518160070160006101000a81548160ff0219169083151502179055506101008201518160090155905050505050505050565b6000809050600090505b600a5481116137b85781600960008381526020019081526020016000206000015414156137ab5760036009600083815260200190815260200160002060090160006101000a81548160ff021916908360038111156137a557fe5b02179055505b808060010191505061374b565b5050565b6005602052806000526040600020600091509050806000015490806001018054600181600116156101000203166002900480601f01602080910402602001604051908101604052809291908181526020018280546001816001161561010002031660029004801561386e5780601f106138435761010080835404028352916020019161386e565b820191906000526020600020905b81548152906001019060200180831161385157829003601f168201915b5050505050908060020154908060030160009054906101000a900473ffffffffffffffffffffffffffffffffffffffff16908060030160149054906101000a900460ff16905085565b60035481565b60066000815480929190600190039190505550600760008281526020019081526020016000206000808201600090556001820160006138fc9190613d3e565b60028201600090556003820160006101000a81549073ffffffffffffffffffffffffffffffffffffffff02191690556003820160146101000a81549060ff021916905560048201600061394f9190613d3e565b505050565b6000600b600083815260200190815260200160002090506000816006015490506000600190505b8181116139b75782600501600082815260200190815260200160002060008082016000905560018201600090555050808060010191505061397b565b5060008260060181905550505050565b6000809050600090505b6003548111613aa4573373ffffffffffffffffffffffffffffffffffffffff166002600083815260200190815260200160002060010160009054906101000a900473ffffffffffffffffffffffffffffffffffffffff1673ffffffffffffffffffffffffffffffffffffffff161415613a97576002600082815260200190815260200160002060070160009054906101000a900460ff16156002600083815260200190815260200160002060070160006101000a81548160ff0219169083151502179055505b80806001019150506139d1565b50565b6040518060c0016040528060008152602001600073ffffffffffffffffffffffffffffffffffffffff168152602001606081526020016060815260200160608152602001600081525090565b828054600181600116156101000203166002900490600052602060002090601f016020900481019282601f10613b3457805160ff1916838001178555613b62565b82800160010185558215613b62579182015b82811115613b61578251825591602001919060010190613b46565b5b509050613b6f9190613d86565b5090565b828054600181600116156101000203166002900490600052602060002090601f016020900481019282601f10613bb457805160ff1916838001178555613be2565b82800160010185558215613be2579182015b82811115613be1578251825591602001919060010190613bc6565b5b509050613bef9190613d86565b5090565b6040518060a0016040528060008152602001600073ffffffffffffffffffffffffffffffffffffffff168152602001600073ffffffffffffffffffffffffffffffffffffffff16815260200160008152602001606081525090565b6040518060c00160405280600081526020016060815260200160008152602001600073ffffffffffffffffffffffffffffffffffffffff168152602001600015158152602001606081525090565b60405180610140016040528060008152602001600073ffffffffffffffffffffffffffffffffffffffff168152602001600073ffffffffffffffffffffffffffffffffffffffff168152602001600073ffffffffffffffffffffffffffffffffffffffff1681526020016000815260200160008152602001606081526020016060815260200160006003811115613d2f57fe5b81526020016000151581525090565b50805460018160011615610100020316600290046000825580601f10613d645750613d83565b601f016020900490600052602060002090810190613d829190613d86565b5b50565b613da891905b80821115613da4576000816000905550600101613d8c565b5090565b90565b600081359050613dba81614c16565b92915050565b600081359050613dcf81614c2d565b92915050565b600081359050613de481614c44565b92915050565b600082601f830112613dfb57600080fd5b8135613e0e613e0982614ac9565b614a9c565b91508082526020830160208301858383011115613e2a57600080fd5b613e35838284614bb6565b50505092915050565b600081359050613e4d81614c5b565b92915050565b60008060008060808587031215613e6957600080fd5b6000613e7787828801613dab565b945050602085013567ffffffffffffffff811115613e9457600080fd5b613ea087828801613dea565b935050604085013567ffffffffffffffff811115613ebd57600080fd5b613ec987828801613dea565b9250506060613eda87828801613dd5565b91505092959194509250565b60008060008060808587031215613efc57600080fd5b6000613f0a87828801613dab565b945050602085013567ffffffffffffffff811115613f2757600080fd5b613f3387828801613dea565b935050604085013567ffffffffffffffff811115613f5057600080fd5b613f5c87828801613dea565b925050606085013567ffffffffffffffff811115613f7957600080fd5b613f8587828801613dea565b91505092959194509250565b60008060008060008060c08789031215613faa57600080fd5b6000613fb889828a01613dab565b965050602087013567ffffffffffffffff811115613fd557600080fd5b613fe189828a01613dea565b955050604087013567ffffffffffffffff811115613ffe57600080fd5b61400a89828a01613dea565b945050606087013567ffffffffffffffff81111561402757600080fd5b61403389828a01613dea565b935050608087013567ffffffffffffffff81111561405057600080fd5b61405c89828a01613dea565b92505060a061406d89828a01613dd5565b9150509295509295509295565b6000806040838503121561408d57600080fd5b600083013567ffffffffffffffff8111156140a757600080fd5b6140b385828601613dea565b925050602083013567ffffffffffffffff8111156140d057600080fd5b6140dc85828601613dea565b9150509250929050565b600080604083850312156140f957600080fd5b600083013567ffffffffffffffff81111561411357600080fd5b61411f85828601613dea565b925050602061413085828601613e3e565b9150509250929050565b6000806000806080858703121561415057600080fd5b600085013567ffffffffffffffff81111561416a57600080fd5b61417687828801613dea565b945050602061418787828801613e3e565b935050604061419887828801613dd5565b925050606085013567ffffffffffffffff8111156141b557600080fd5b6141c187828801613dea565b91505092959194509250565b6000602082840312156141df57600080fd5b60006141ed84828501613e3e565b91505092915050565b600080600080600060a0868803121561420e57600080fd5b600061421c88828901613e3e565b955050602061422d88828901613dc0565b945050604061423e88828901613e3e565b935050606086013567ffffffffffffffff81111561425b57600080fd5b61426788828901613dea565b925050608086013567ffffffffffffffff81111561428457600080fd5b61429088828901613dea565b9150509295509295909350565b600080600080600080600060e0888a0312156142b857600080fd5b60006142c68a828b01613e3e565b97505060206142d78a828b01613dab565b96505060406142e88a828b01613e3e565b955050606088013567ffffffffffffffff81111561430557600080fd5b6143118a828b01613dea565b94505060806143228a828b01613dab565b93505060a06143338a828b01613e3e565b92505060c088013567ffffffffffffffff81111561435057600080fd5b61435c8a828b01613dea565b91505092959891949750929550565b600080600080600060a0868803121561438357600080fd5b600061439188828901613e3e565b955050602086013567ffffffffffffffff8111156143ae57600080fd5b6143ba88828901613dea565b94505060406143cb88828901613e3e565b935050606086013567ffffffffffffffff8111156143e857600080fd5b6143f488828901613dea565b925050608061440588828901613dd5565b9150509295509295909350565b6000806040838503121561442557600080fd5b600061443385828601613e3e565b925050602061444485828601613e3e565b9150509250929050565b61445781614b3f565b82525050565b61446681614b3f565b82525050565b61447581614b2d565b82525050565b61448481614b2d565b82525050565b61449381614b51565b82525050565b6144a281614b51565b82525050565b6144b181614ba4565b82525050565b6144c081614b70565b82525050565b60006144d182614b00565b6144db8185614b1c565b93506144eb818560208601614bc5565b6144f481614bf8565b840191505092915050565b600061450a82614af5565b6145148185614b0b565b9350614524818560208601614bc5565b61452d81614bf8565b840191505092915050565b600061454382614af5565b61454d8185614b1c565b935061455d818560208601614bc5565b61456681614bf8565b840191505092915050565b600060a0830160008301516145896000860182614677565b50602083015161459c602086018261446c565b5060408301516145af604086018261446c565b5060608301516145c26060860182614677565b50608083015184820360808601526145da82826144ff565b9150508091505092915050565b600060c0830160008301516145ff6000860182614677565b506020830151848203602086015261461782826144ff565b915050604083015161462c6040860182614677565b50606083015161463f606086018261444e565b506080830151614652608086018261448a565b5060a083015184820360a086015261466a82826144ff565b9150508091505092915050565b61468081614b9a565b82525050565b61468f81614b9a565b82525050565b60006020820190506146aa60008301846144a8565b92915050565b600060208201905081810360008301526146ca8184614571565b905092915050565b600060208201905081810360008301526146ec81846145e7565b905092915050565b60006020820190506147096000830184614686565b92915050565b600061014082019050614725600083018d614686565b614732602083018c61447b565b61473f604083018b61447b565b61474c606083018a61447b565b6147596080830189614686565b61476660a0830188614686565b81810360c08301526147788187614538565b905081810360e083015261478c8186614538565b905061479c6101008301856144a8565b6147aa610120830184614499565b9b9a5050505050505050505050565b6000610100820190506147cf600083018b614686565b6147dc602083018a61447b565b81810360408301526147ee8189614538565b905081810360608301526148028188614538565b905061481160808301876144b7565b61481e60a0830186614499565b61482b60c0830185614686565b61483860e0830184614686565b9998505050505050505050565b60006101208201905061485b600083018c614686565b614868602083018b61447b565b818103604083015261487a818a614538565b9050818103606083015261488e8189614538565b905081810360808301526148a28188614538565b905081810360a08301526148b68187614538565b90506148c560c0830186614686565b6148d260e0830185614499565b6148e0610100830184614686565b9a9950505050505050505050565b600060c0820190506149036000830189614686565b614910602083018861447b565b81810360408301526149228187614538565b905081810360608301526149368186614538565b9050818103608083015261494a8185614538565b905061495960a0830184614686565b979650505050505050565b600060c0820190506149796000830189614686565b818103602083015261498b81886144c6565b905061499a6040830187614686565b6149a7606083018661445d565b6149b46080830185614499565b81810360a08301526149c681846144c6565b9050979650505050505050565b600060a0820190506149e86000830188614686565b81810360208301526149fa8187614538565b9050614a096040830186614686565b614a16606083018561445d565b614a236080830184614499565b9695505050505050565b600060c082019050614a426000830189614686565b8181036020830152614a548188614538565b9050614a636040830187614686565b614a70606083018661445d565b614a7d6080830185614499565b81810360a0830152614a8f8184614538565b9050979650505050505050565b6000604051905081810181811067ffffffffffffffff82111715614abf57600080fd5b8060405250919050565b600067ffffffffffffffff821115614ae057600080fd5b601f19601f8301169050602081019050919050565b600081519050919050565b600081519050919050565b600082825260208201905092915050565b600082825260208201905092915050565b6000614b3882614b7a565b9050919050565b6000614b4a82614b7a565b9050919050565b60008115159050919050565b6000819050614b6b82614c09565b919050565b6000819050919050565b600073ffffffffffffffffffffffffffffffffffffffff82169050919050565b6000819050919050565b6000614baf82614b5d565b9050919050565b82818337600083830152505050565b60005b83811015614be3578082015181840152602081019050614bc8565b83811115614bf2576000848401525b50505050565b6000601f19601f8301169050919050565b60048110614c1357fe5b50565b614c1f81614b2d565b8114614c2a57600080fd5b50565b614c3681614b3f565b8114614c4157600080fd5b50565b614c4d81614b51565b8114614c5857600080fd5b50565b614c6481614b9a565b8114614c6f57600080fd5b5056fea365627a7a723158206072d80fdb03cfbfd4c67fdfd9b4413e14ee3487a8e48f19fe6d813b58cc880c6c6578706572696d656e74616cf564736f6c6343000510004032204164616d2052642c202330312d303220466f6f642043656e7472652c2053696e6761706f7265203238393837364d617877656c6c20466f6f642043656e747265202330312d31302f31312c2031204b61646179616e616c6c7572205374726565742c2053696e6761706f7265203036393138345475657364617920e280932053756e6461793a203130616d20e2809320373a3330706d4d6f6e646179202d2054687572736461793a2037616d2d35706d3b205361747572646179202d2053756e6461792037616d2d33706d353020416e67204d6f204b696f2041766520322c2053696e6761706f726520363339373938",
  "source": "// SPDX-License-Identifier: Blockchain\r\n\r\npragma solidity ^0.5.4;\r\n\r\npragma experimental ABIEncoderV2;\r\n\r\ncontract Marketplace {\r\n    //constructor\r\n    constructor() public {\r\n        addHawker(\r\n            0x73c005D4B234C63F416F6e1038C011D55edDBF1e,\r\n            \"Selera Rasa Nasi Lemak\",\r\n            \"2 Adam Rd, #01-02 Food Centre, Singapore 289876\",\r\n            \"Monday - Thursday: 7am-5pm; Saturday - Sunday 7am-3pm\",\r\n            \"98434509\",\r\n            false\r\n        );\r\n        addHawker(\r\n            0x87ECEE1454A7b32253A9020F6ae1FF25e9CE35B5,\r\n            \"Tian Tian Hainanese Chicken Rice\",\r\n            \"Maxwell Food Centre #01-10/11, 1 Kadayanallur Street, Singapore 069184\",\r\n            \"Tuesday  Sunday: 10am  7:30pm\",\r\n            \"96914852\",\r\n            false\r\n        );\r\n        addCustomer(\r\n            0xC9342f12d49ca9e40d600eBF17266DcCc88a0639,\r\n            \"Casuarina\",\r\n            \"50 Nanyang Ave, Singapore 639798\",\r\n            \"98765432\"\r\n        );\r\n        addCustomer(\r\n            0x7C2eA58a210F8e7c80fdeB6788C1D5Fc4a3E73ba,\r\n            \"Patrick\",\r\n            \"50 Ang Mo Kio Ave 2, Singapore 639798\",\r\n            \"91234567\"\r\n        );\r\n        addFoodDelivery(\r\n            0x66f8f66996aaB36b041b1cAdA9f20864a0C42698,\r\n            \"Leo Tan\",\r\n            \"90123456\",\r\n            false\r\n        );\r\n    }\r\n\r\n    //FOOD DELIVERY\r\n    struct FoodDelivery {\r\n        uint256 id;\r\n        address owner;\r\n        string name;\r\n        string phone;\r\n        int256 rating;\r\n        bool available;\r\n        mapping(uint256 => Order) ordersAccepted;\r\n        uint256 ordersAcceptedCount;\r\n        mapping(uint256 => Feedback) feedbacks;\r\n        uint256 feedbackCount;\r\n    }\r\n\r\n    // Read/write Food Delivery\r\n    mapping(uint256 => FoodDelivery) public foodDeliveries;\r\n    //Store Food Delivery Count\r\n    uint256 public foodDeliveriesCount;\r\n\r\n    //add new food delivery\r\n    function addFoodDelivery(\r\n        address _owner,\r\n        string memory _name,\r\n        string memory _phone,\r\n        bool _available\r\n    ) public {\r\n        foodDeliveriesCount++;\r\n        foodDeliveries[foodDeliveriesCount] = FoodDelivery(\r\n            foodDeliveriesCount,\r\n            _owner,\r\n            _name,\r\n            _phone,\r\n            5,\r\n            _available,\r\n            0,\r\n            0\r\n        );\r\n    }\r\n\r\n    //HAWKER\r\n    struct Hawker {\r\n        uint256 id;\r\n        address owner;\r\n        string name;\r\n        string addressLocation;\r\n        string openingHours;\r\n        string phone;\r\n        uint256 avgRating;\r\n        bool open;\r\n        mapping(uint256 => Feedback) feedbacks;\r\n        uint256 feedbackCount;\r\n    }\r\n\r\n    // Read/write Hawkers\r\n    mapping(uint256 => Hawker) public hawkers;\r\n    //Store Hawkers Count\r\n    uint256 public hawkersCount;\r\n\r\n    //FEEDBACK\r\n    struct Feedback {\r\n        uint256 id;\r\n        address seller;\r\n        address customer;\r\n        uint256 rate;\r\n        string comment;\r\n    }\r\n\r\n    function addHawker(\r\n        address _owner,\r\n        string memory _name,\r\n        string memory _addressLocation,\r\n        string memory _openingHours,\r\n        string memory _phone,\r\n        bool _open\r\n    ) public {\r\n        hawkersCount++;\r\n        hawkers[hawkersCount] = Hawker(\r\n            hawkersCount,\r\n            _owner,\r\n            _name,\r\n            _addressLocation,\r\n            _openingHours,\r\n            _phone,\r\n            0,\r\n            _open,\r\n            0\r\n        );\r\n    }\r\n\r\n    function editHawkerProfile(string memory _phone, string memory _OH) public {\r\n        uint256 i = 0;\r\n        for (i = 0; i <= hawkersCount; i++) {\r\n            if (hawkers[i].owner == msg.sender) {\r\n                hawkers[i].phone = _phone;\r\n                hawkers[i].openingHours = _OH;\r\n            }\r\n        }\r\n    }\r\n\r\n    //change shop status\r\n    function boolOpen() public {\r\n        uint256 i = 0;\r\n        for (i = 0; i <= hawkersCount; i++) {\r\n            if (hawkers[i].owner == msg.sender) {\r\n                hawkers[i].open = !(hawkers[i].open);\r\n            }\r\n        }\r\n    }\r\n\r\n    //change food delivery status\r\n    function boolWork() public {\r\n        uint256 i = 0;\r\n        for (i = 0; i <= foodDeliveriesCount; i++) {\r\n            if (foodDeliveries[i].owner == msg.sender) {\r\n                foodDeliveries[i].available = !(foodDeliveries[i].available);\r\n            }\r\n        }\r\n    }\r\n\r\n    //SUPPLIER\r\n    uint256 public suppProdCount = 0;\r\n    mapping(uint256 => SuppProduct) public suppProducts;\r\n    struct SuppProduct {\r\n        uint256 id;\r\n        string name;\r\n        uint256 price;\r\n        address payable owner; //when listing, the owner will be the seller. when buying, the owner will change from the seller to the buyer\r\n        bool purchased;\r\n    }\r\n\r\n    //Restaurants products\r\n    uint256 public restProdCount = 0;\r\n    mapping(uint256 => RestProduct) public restProducts;\r\n    struct RestProduct {\r\n        uint256 id;\r\n        string name;\r\n        uint256 price;\r\n        address payable owner;\r\n        bool published;\r\n        string imageHash;\r\n    }\r\n\r\n    struct RestProfile {\r\n        uint256 id;\r\n        string name;\r\n        string category;\r\n        string location;\r\n        string deliveryHours;\r\n        address payable owner;\r\n        string reviews;\r\n        uint256 rating;\r\n    }\r\n\r\n    event ProductCreated(\r\n        uint256 id,\r\n        string name,\r\n        uint256 price,\r\n        address payable owner,\r\n        bool purchased,\r\n        string imageHash\r\n    );\r\n\r\n    event ProductPurchased(\r\n        uint256 id,\r\n        string name,\r\n        uint256 price,\r\n        address payable owner,\r\n        bool purchased\r\n    );\r\n\r\n    //parameter _price is expressed in Ethereum cryptocurrency - Ether\r\n    //whenever we store Ether in the blockchain, we store it as Wei (smallest denomination of Ether )\r\n    //can check it on etherconverter.online\r\n    function createSuppProduct(string memory _name, uint256 _price) public {\r\n        // Require a valid name\r\n        require(bytes(_name).length > 0);\r\n        // Require a valid price\r\n        require(_price > 0);\r\n        // Increment product count\r\n        suppProdCount++;\r\n        // Create the product --- msg.sender is the one who accessed the function\r\n        suppProducts[suppProdCount] = SuppProduct(\r\n            suppProdCount,\r\n            _name,\r\n            _price,\r\n            msg.sender,\r\n            false\r\n        );\r\n        // Trigger an event\r\n        emit ProductCreated(\r\n            suppProdCount,\r\n            _name,\r\n            _price,\r\n            msg.sender,\r\n            false,\r\n            _name\r\n        );\r\n    }\r\n\r\n    function createRestProduct(\r\n        string memory _name,\r\n        uint256 _price,\r\n        bool _published,\r\n        string memory _imageHash\r\n    ) public {\r\n        // Require a valid name\r\n        require(bytes(_name).length > 0);\r\n        // Require a valid price\r\n        require(_price > 0);\r\n        // Increment product count\r\n        restProdCount++;\r\n        // Create the product --- msg.sender is the one who accessed the function\r\n        restProducts[restProdCount] = RestProduct(\r\n            restProdCount,\r\n            _name,\r\n            _price,\r\n            msg.sender,\r\n            _published,\r\n            _imageHash\r\n        );\r\n        // Trigger an event\r\n        emit ProductCreated(\r\n            restProdCount,\r\n            _name,\r\n            _price,\r\n            msg.sender,\r\n            _published,\r\n            _imageHash\r\n        );\r\n    }\r\n\r\n    //ORDERS\r\n    enum Status {\r\n        OrderPlaced,\r\n        OrderConfirm,\r\n        DriverConfirm,\r\n        OrderCompleted\r\n    }\r\n    Status public state;\r\n\r\n    struct Order {\r\n        uint256 id;\r\n        address owner;\r\n        address seller;\r\n        address driver;\r\n        uint256 totalPrice;\r\n        mapping(uint256 => CartItem) purchasedItemId;\r\n        uint256 purchasedItemCount;\r\n        string date;\r\n        string time;\r\n        Status state;\r\n        bool rated;\r\n    }\r\n\r\n    mapping(uint256 => Order) public orders;\r\n    uint256 public ordersCount;\r\n\r\n    struct CartItem {\r\n        uint256 id;\r\n        uint256 productId;\r\n    }\r\n\r\n    //CUSTOMER\r\n    struct Customer {\r\n        uint256 id;\r\n        address owner;\r\n        string name;\r\n        string addressLocation;\r\n        string phone;\r\n        mapping(uint256 => CartItem) cartItems;\r\n        uint256 itemCount;\r\n    }\r\n\r\n    mapping(uint256 => Customer) public customers;\r\n    uint256 public customersCount;\r\n\r\n    function addCustomer(\r\n        address _owner,\r\n        string memory _name,\r\n        string memory _addressLocation,\r\n        string memory _phone\r\n    ) public {\r\n        customersCount++;\r\n        //CartItem[] memory cartItems;\r\n        customers[customersCount] = Customer(\r\n            customersCount,\r\n            _owner,\r\n            _name,\r\n            _addressLocation,\r\n            _phone,\r\n            0\r\n        );\r\n    }\r\n\r\n    function editCustProfile(string memory _phone, string memory _address)\r\n        public\r\n    {\r\n        uint256 i = 0;\r\n        for (i = 0; i <= customersCount; i++) {\r\n            if (customers[i].owner == msg.sender) {\r\n                customers[i].phone = _phone;\r\n                customers[i].addressLocation = _address;\r\n            }\r\n        }\r\n    }\r\n\r\n    function editProduct(\r\n        uint256 _productId,\r\n        string memory _name,\r\n        uint256 _price,\r\n        string memory _imageHash,\r\n        bool _published\r\n    ) public {\r\n        uint256 i = 0;\r\n        for (i = 0; i <= restProdCount; i++) {\r\n            if (restProducts[i].id == _productId) {\r\n                restProducts[i].name = _name;\r\n                restProducts[i].price = _price;\r\n                restProducts[i].imageHash = _imageHash;\r\n                restProducts[i].published = _published;\r\n            }\r\n        }\r\n    }\r\n\r\n    function addToCart(uint256 _id) public {\r\n        uint256 i = 0;\r\n        for (i = 0; i <= customersCount; i++) {\r\n            if (customers[i].owner == msg.sender) {\r\n                (customers[i].itemCount)++;\r\n                customers[i].cartItems[customers[i].itemCount] = CartItem(\r\n                    customers[i].itemCount,\r\n                    _id\r\n                );\r\n            }\r\n        }\r\n    }\r\n\r\n    function removeProdCart(uint256 custId, uint256 cartId) public {\r\n        Customer storage cust = customers[custId];\r\n        (cust.itemCount)--;\r\n        delete cust.cartItems[cartId];\r\n    }\r\n\r\n    function deleteProduct(uint256 productId) public {\r\n        //RestProduct storage product = restProducts[productId];\r\n        restProdCount--;\r\n        delete restProducts[productId];\r\n    }\r\n\r\n    function removeAllProdCart(uint256 custId) public {\r\n        Customer storage cust = customers[custId];\r\n        uint256 _itemCount = cust.itemCount;\r\n        for (uint256 i = 1; i <= _itemCount; i++) {\r\n            delete cust.cartItems[i];\r\n        }\r\n        (cust.itemCount) = 0;\r\n    }\r\n\r\n    function getCartProduct(uint256 custId, uint256 cartId)\r\n        public\r\n        returns (uint256)\r\n    {\r\n        Customer storage cust = customers[custId];\r\n        return (cust.cartItems[cartId].productId);\r\n    }\r\n\r\n    function getOrderProduct(uint256 orderId, uint256 cartId)\r\n        public\r\n        returns (RestProduct memory)\r\n    {\r\n        Order storage ord = orders[orderId];\r\n        uint256 prodId = ord.purchasedItemId[cartId].productId;\r\n        RestProduct memory _product = restProducts[prodId];\r\n        return (_product);\r\n    }\r\n\r\n    function getHawkerFeedback(uint256 hawkerId, uint256 feedbackCount)\r\n        public\r\n        returns (Feedback memory)\r\n    {\r\n        Hawker storage hawker = hawkers[hawkerId];\r\n        Feedback memory _feedback = hawker.feedbacks[feedbackCount];\r\n        return (_feedback);\r\n    }\r\n\r\n    function getFdFeedback(uint256 fdId, uint256 feedbackCount)\r\n        public\r\n        returns (Feedback memory)\r\n    {\r\n        FoodDelivery storage fd = foodDeliveries[fdId];\r\n        Feedback memory _feedback = fd.feedbacks[feedbackCount];\r\n        return (_feedback);\r\n    }\r\n\r\n    function setRating(\r\n        uint256 _orderId,\r\n        address _hawker,\r\n        uint256 _hawkerRate,\r\n        string memory _hawkerComment,\r\n        address _foodDelivery,\r\n        uint256 _fdRate,\r\n        string memory _fdComment\r\n    ) public {\r\n        //set order rated boolean to true\r\n        uint256 j = 0;\r\n        for (j = 0; j <= ordersCount; j++) {\r\n            if (orders[j].id == _orderId) {\r\n                orders[j].rated = true;\r\n            }\r\n        }\r\n\r\n        //set hawker feedback\r\n        uint256 i = 0;\r\n        for (i = 0; i <= hawkersCount; i++) {\r\n            if (hawkers[i].owner == _hawker) {\r\n                (hawkers[i].feedbackCount)++;\r\n                hawkers[i].feedbacks[hawkers[i].feedbackCount] = Feedback(\r\n                    hawkers[i].feedbackCount,\r\n                    _hawker,\r\n                    msg.sender,\r\n                    _hawkerRate,\r\n                    _hawkerComment\r\n                );\r\n                uint256 total = _hawkerRate + hawkers[i].avgRating;\r\n                uint256 avg = total / (hawkers[i].feedbackCount);\r\n                hawkers[i].avgRating = avg;\r\n            }\r\n        }\r\n\r\n        //set fd feedback\r\n        uint256 k = 0;\r\n        for (k = 0; k <= foodDeliveriesCount; k++) {\r\n            if (foodDeliveries[k].owner == _foodDelivery) {\r\n                (foodDeliveries[k].feedbackCount)++;\r\n                foodDeliveries[k].feedbacks[\r\n                    foodDeliveries[k].feedbackCount\r\n                ] = Feedback(\r\n                    foodDeliveries[k].feedbackCount,\r\n                    _foodDelivery,\r\n                    msg.sender,\r\n                    _fdRate,\r\n                    _fdComment\r\n                );\r\n            }\r\n        }\r\n    }\r\n\r\n    function purchaseProduct(\r\n        uint256 _custId,\r\n        address payable _seller,\r\n        uint256 _totalCost,\r\n        string memory _date,\r\n        string memory _time\r\n    ) public payable {\r\n        Customer memory cust = customers[_custId];\r\n        // Increment order count\r\n        ordersCount++;\r\n        // Create the enum\r\n        state = Status.OrderPlaced;\r\n\r\n        // Create the order\r\n        orders[ordersCount] = Order(\r\n            ordersCount,\r\n            cust.owner,\r\n            _seller,\r\n            address(0),\r\n            _totalCost,\r\n            cust.itemCount,\r\n            _date,\r\n            _time,\r\n            state,\r\n            false\r\n        );\r\n\r\n        //add the items in cartItems(Customer structure) to purchasedItemId (Order structure)\r\n        for (uint256 i = 1; i <= cust.itemCount; i++) {\r\n            uint256 item = getCartProduct(_custId, i);\r\n            orders[ordersCount].purchasedItemId[i] = CartItem(i, item);\r\n        }\r\n\r\n        //Pay the seller by sending them Ether\r\n        address(_seller).transfer(msg.value);\r\n\r\n        //remove the CartItem in the Customer id\r\n        removeAllProdCart(_custId);\r\n    }\r\n\r\n    //hawker confirms order transaction made by customer\r\n    function hawkerConfirmOrder(uint256 _orderId) public {\r\n        uint256 i = 0;\r\n        for (i = 0; i <= ordersCount; i++) {\r\n            if (orders[i].id == _orderId) {\r\n                orders[i].state = Status.OrderConfirm;\r\n            }\r\n        }\r\n    }\r\n\r\n    //food delivery accepts order delivery\r\n    function fdAcceptOrder(uint256 _orderId) public {\r\n        //set orderId state to DriverConfirm\r\n        uint256 i = 0;\r\n        for (i = 0; i <= ordersCount; i++) {\r\n            if (orders[i].id == _orderId) {\r\n                orders[i].state = Status.DriverConfirm;\r\n                orders[i].driver = msg.sender;\r\n            }\r\n        }\r\n\r\n        Order memory _order = orders[_orderId];\r\n        address _owner = _order.owner;\r\n        address _seller = _order.seller;\r\n        uint256 _totalPrice = _order.totalPrice;\r\n        uint256 _purchasedItemCount = _order.purchasedItemCount;\r\n        string memory _date = _order.date;\r\n        string memory _time = _order.time;\r\n        Status _state = _order.state;\r\n\r\n        //add the order to the acceptedOrder mapping for the fd\r\n        uint256 k = 0;\r\n        for (k = 0; k <= foodDeliveriesCount; k++) {\r\n            if (foodDeliveries[k].owner == msg.sender) {\r\n                (foodDeliveries[k].ordersAcceptedCount)++;\r\n                foodDeliveries[k].ordersAccepted[\r\n                    foodDeliveries[k].ordersAcceptedCount\r\n                ] = Order(\r\n                    foodDeliveries[k].ordersAcceptedCount,\r\n                    _owner,\r\n                    _seller,\r\n                    msg.sender,\r\n                    _totalPrice,\r\n                    _purchasedItemCount,\r\n                    _date,\r\n                    _time,\r\n                    _state,\r\n                    false\r\n                );\r\n            }\r\n        }\r\n    }\r\n\r\n    //food delivery completes order delivery\r\n    function fdCompleteOrder(uint256 _orderId) public {\r\n        //set orderId state to OrderCompleted\r\n        uint256 i = 0;\r\n        for (i = 0; i <= ordersCount; i++) {\r\n            if (orders[i].id == _orderId) {\r\n                orders[i].state = Status.OrderCompleted;\r\n            }\r\n        }\r\n    }\r\n\r\n    // function purchaseProduct(uint256 _id) public payable {\r\n    //     //Fetch the product\r\n    //     Product memory _product = products[_id];\r\n    //     //Fetch the owner\r\n    //     address payable _seller = _product.owner;\r\n    //     //Make sure the product has a valid id\r\n    //     //require(_product.id > 0 && _product.id <= productCount); ---> need to change\r\n    //     //Require that there is enough Ether in the transaction\r\n    //     require(msg.value >= _product.price);\r\n    //     //Require that the product has not been purchased already\r\n    //     require(!_product.purchased);\r\n    //     //Require that the buyer is not the seller\r\n    //     require(_seller != msg.sender);\r\n    //     //Transfer ownership to the buyer\r\n    //     _product.owner = msg.sender;\r\n    //     //Mark as purchased\r\n    //     _product.purchased = true;\r\n    //     //Update the product\r\n    //     products[_id] = _product;\r\n    //     //Pay the seller by sending them Ether\r\n    //     address(_seller).transfer(msg.value);\r\n\r\n    //     //Trigger an event\r\n    //     emit ProductPurchased(\r\n    //         productCount,\r\n    //         _product.name,\r\n    //         _product.price,\r\n    //         msg.sender,\r\n    //         true\r\n    //     );\r\n    // }\r\n}\r\n",
  "sourcePath": "C:/Users/Casuarina/Desktop/FYP_FoodIndustry/blockchain/src/contracts/Marketplace.sol",
  "compiler": {
    "name": "solc",
    "version": "0.5.16+commit.9c3226ce.Emscripten.clang"
  },
  "schemaVersion": "3.4.1",
  "updatedAt": "2021-07-18T14:32:30.895Z",
  "networkType": "ethereum",
  "devdoc": {
    "methods": {}
  },
  "userdoc": {
    "methods": {}
  }
}