{
  "contractName": "Marketplace",
  "abi": [
    {
      "inputs": [],
      "payable": false,
      "stateMutability": "nonpayable",
      "type": "constructor"
    },
    {
      "anonymous": false,
      "inputs": [
        {
          "indexed": false,
          "internalType": "uint256",
          "name": "id",
          "type": "uint256"
        },
        {
          "indexed": false,
          "internalType": "string",
          "name": "name",
          "type": "string"
        },
        {
          "indexed": false,
          "internalType": "uint256",
          "name": "price",
          "type": "uint256"
        },
        {
          "indexed": false,
          "internalType": "address payable",
          "name": "owner",
          "type": "address"
        },
        {
          "indexed": false,
          "internalType": "bool",
          "name": "purchased",
          "type": "bool"
        }
      ],
      "name": "ProductCreated",
      "type": "event"
    },
    {
      "anonymous": false,
      "inputs": [
        {
          "indexed": false,
          "internalType": "uint256",
          "name": "id",
          "type": "uint256"
        },
        {
          "indexed": false,
          "internalType": "string",
          "name": "name",
          "type": "string"
        },
        {
          "indexed": false,
          "internalType": "uint256",
          "name": "price",
          "type": "uint256"
        },
        {
          "indexed": false,
          "internalType": "address payable",
          "name": "owner",
          "type": "address"
        },
        {
          "indexed": false,
          "internalType": "bool",
          "name": "purchased",
          "type": "bool"
        }
      ],
      "name": "ProductPurchased",
      "type": "event"
    },
    {
      "constant": true,
      "inputs": [],
      "name": "hawkerAddress",
      "outputs": [
        {
          "internalType": "string",
          "name": "",
          "type": "string"
        }
      ],
      "payable": false,
      "stateMutability": "view",
      "type": "function"
    },
    {
      "constant": true,
      "inputs": [],
      "name": "hawkerName",
      "outputs": [
        {
          "internalType": "string",
          "name": "",
          "type": "string"
        }
      ],
      "payable": false,
      "stateMutability": "view",
      "type": "function"
    },
    {
      "constant": true,
      "inputs": [],
      "name": "hawkerOpeningHours",
      "outputs": [
        {
          "internalType": "string",
          "name": "",
          "type": "string"
        }
      ],
      "payable": false,
      "stateMutability": "view",
      "type": "function"
    },
    {
      "constant": true,
      "inputs": [],
      "name": "hawkerPhone",
      "outputs": [
        {
          "internalType": "string",
          "name": "",
          "type": "string"
        }
      ],
      "payable": false,
      "stateMutability": "view",
      "type": "function"
    },
    {
      "constant": true,
      "inputs": [
        {
          "internalType": "uint256",
          "name": "",
          "type": "uint256"
        }
      ],
      "name": "hawkers",
      "outputs": [
        {
          "internalType": "uint256",
          "name": "id",
          "type": "uint256"
        },
        {
          "internalType": "address",
          "name": "owner",
          "type": "address"
        },
        {
          "internalType": "string",
          "name": "name",
          "type": "string"
        },
        {
          "internalType": "string",
          "name": "addressLocation",
          "type": "string"
        },
        {
          "internalType": "string",
          "name": "openingHours",
          "type": "string"
        },
        {
          "internalType": "string",
          "name": "phone",
          "type": "string"
        },
        {
          "internalType": "int256",
          "name": "rating",
          "type": "int256"
        }
      ],
      "payable": false,
      "stateMutability": "view",
      "type": "function"
    },
    {
      "constant": true,
      "inputs": [],
      "name": "hawkersCount",
      "outputs": [
        {
          "internalType": "uint256",
          "name": "",
          "type": "uint256"
        }
      ],
      "payable": false,
      "stateMutability": "view",
      "type": "function"
    },
    {
      "constant": true,
      "inputs": [],
      "name": "restProdCount",
      "outputs": [
        {
          "internalType": "uint256",
          "name": "",
          "type": "uint256"
        }
      ],
      "payable": false,
      "stateMutability": "view",
      "type": "function"
    },
    {
      "constant": true,
      "inputs": [
        {
          "internalType": "uint256",
          "name": "",
          "type": "uint256"
        }
      ],
      "name": "restProducts",
      "outputs": [
        {
          "internalType": "uint256",
          "name": "id",
          "type": "uint256"
        },
        {
          "internalType": "string",
          "name": "name",
          "type": "string"
        },
        {
          "internalType": "uint256",
          "name": "price",
          "type": "uint256"
        },
        {
          "internalType": "address payable",
          "name": "owner",
          "type": "address"
        },
        {
          "internalType": "bool",
          "name": "purchased",
          "type": "bool"
        }
      ],
      "payable": false,
      "stateMutability": "view",
      "type": "function"
    },
    {
      "constant": true,
      "inputs": [],
      "name": "suppProdCount",
      "outputs": [
        {
          "internalType": "uint256",
          "name": "",
          "type": "uint256"
        }
      ],
      "payable": false,
      "stateMutability": "view",
      "type": "function"
    },
    {
      "constant": true,
      "inputs": [
        {
          "internalType": "uint256",
          "name": "",
          "type": "uint256"
        }
      ],
      "name": "suppProducts",
      "outputs": [
        {
          "internalType": "uint256",
          "name": "id",
          "type": "uint256"
        },
        {
          "internalType": "string",
          "name": "name",
          "type": "string"
        },
        {
          "internalType": "uint256",
          "name": "price",
          "type": "uint256"
        },
        {
          "internalType": "address payable",
          "name": "owner",
          "type": "address"
        },
        {
          "internalType": "bool",
          "name": "purchased",
          "type": "bool"
        }
      ],
      "payable": false,
      "stateMutability": "view",
      "type": "function"
    },
    {
      "constant": false,
      "inputs": [
        {
          "internalType": "address",
          "name": "_owner",
          "type": "address"
        },
        {
          "internalType": "string",
          "name": "_name",
          "type": "string"
        },
        {
          "internalType": "string",
          "name": "_addressLocation",
          "type": "string"
        },
        {
          "internalType": "string",
          "name": "_openingHours",
          "type": "string"
        },
        {
          "internalType": "string",
          "name": "_phone",
          "type": "string"
        }
      ],
      "name": "addHawker",
      "outputs": [],
      "payable": false,
      "stateMutability": "nonpayable",
      "type": "function"
    },
    {
      "constant": false,
      "inputs": [
        {
          "internalType": "string",
          "name": "_phone",
          "type": "string"
        },
        {
          "internalType": "string",
          "name": "_OH",
          "type": "string"
        }
      ],
      "name": "editHawkerProfile",
      "outputs": [],
      "payable": false,
      "stateMutability": "nonpayable",
      "type": "function"
    },
    {
      "constant": false,
      "inputs": [
        {
          "internalType": "string",
          "name": "_name",
          "type": "string"
        },
        {
          "internalType": "uint256",
          "name": "_price",
          "type": "uint256"
        }
      ],
      "name": "createSuppProduct",
      "outputs": [],
      "payable": false,
      "stateMutability": "nonpayable",
      "type": "function"
    },
    {
      "constant": false,
      "inputs": [
        {
          "internalType": "string",
          "name": "_name",
          "type": "string"
        },
        {
          "internalType": "uint256",
          "name": "_price",
          "type": "uint256"
        }
      ],
      "name": "createRestProduct",
      "outputs": [],
      "payable": false,
      "stateMutability": "nonpayable",
      "type": "function"
    }
  ],
  "bytecode": "0x60806040526040518060400160405280601681526020017f53656c6572612052617361204e617369204c656d616b0000000000000000000081525060009080519060200190620000519291906200033b565b506040518060600160405280602f815260200162001fa2602f913960019080519060200190620000839291906200033b565b5060405180606001604052806035815260200162001fd16035913960029080519060200190620000b59291906200033b565b506040518060400160405280600881526020017f393834333435303900000000000000000000000000000000000000000000000081525060039080519060200190620001039291906200033b565b50600060065560006008553480156200011b57600080fd5b50620001e17373c005d4b234c63f416f6e1038c011d55eddbf1e6040518060400160405280601681526020017f53656c6572612052617361204e617369204c656d616b000000000000000000008152506040518060600160405280602f815260200162001fa2602f913960405180606001604052806035815260200162001fd1603591396040518060400160405280600881526020017f3938343334353039000000000000000000000000000000000000000000000000815250620001e760201b60201c565b62000471565b6005600081548092919060010191905055506040518060e0016040528060055481526020018673ffffffffffffffffffffffffffffffffffffffff16815260200185815260200184815260200183815260200182815260200160008152506004600060055481526020019081526020016000206000820151816000015560208201518160010160006101000a81548173ffffffffffffffffffffffffffffffffffffffff021916908373ffffffffffffffffffffffffffffffffffffffff1602179055506040820151816002019080519060200190620002c9929190620003c2565b506060820151816003019080519060200190620002e8929190620003c2565b50608082015181600401908051906020019062000307929190620003c2565b5060a082015181600501908051906020019062000326929190620003c2565b5060c082015181600601559050505050505050565b828054600181600116156101000203166002900490600052602060002090601f016020900481019282601f106200037e57805160ff1916838001178555620003af565b82800160010185558215620003af579182015b82811115620003ae57825182559160200191906001019062000391565b5b509050620003be919062000449565b5090565b828054600181600116156101000203166002900490600052602060002090601f016020900481019282601f106200040557805160ff191683800117855562000436565b8280016001018555821562000436579182015b828111156200043557825182559160200191906001019062000418565b5b50905062000445919062000449565b5090565b6200046e91905b808211156200046a57600081600090555060010162000450565b5090565b90565b611b2180620004816000396000f3fe608060405234801561001057600080fd5b50600436106100ea5760003560e01c8063820e248e1161008c578063abed579f11610066578063abed579f14610a5c578063b1ba814a14610b4f578063e16f14e214610bd2578063e6f65b4c14610cc5576100ea565b8063820e248e1461071b5780638489ac2a1461079e578063a9937b2214610a3e576100ea565b80636dfe683a116100c85780636dfe683a146104635780637078b09a146104e6578063754b5de314610638578063757a2703146106fd576100ea565b80631dd7408a146100ef5780633be94d4714610172578063623eb0d21461039e575b600080fd5b6100f7610ce3565b6040518080602001828103825283818151815260200191508051906020019080838360005b8381101561013757808201518184015260208101905061011c565b50505050905090810190601f1680156101645780820380516001836020036101000a031916815260200191505b509250505060405180910390f35b61019e6004803603602081101561018857600080fd5b8101908080359060200190929190505050610d81565b604051808881526020018773ffffffffffffffffffffffffffffffffffffffff1673ffffffffffffffffffffffffffffffffffffffff1681526020018060200180602001806020018060200186815260200185810385528a818151815260200191508051906020019080838360005b8381101561022857808201518184015260208101905061020d565b50505050905090810190601f1680156102555780820380516001836020036101000a031916815260200191505b50858103845289818151815260200191508051906020019080838360005b8381101561028e578082015181840152602081019050610273565b50505050905090810190601f1680156102bb5780820380516001836020036101000a031916815260200191505b50858103835288818151815260200191508051906020019080838360005b838110156102f45780820151818401526020810190506102d9565b50505050905090810190601f1680156103215780820380516001836020036101000a031916815260200191505b50858103825287818151815260200191508051906020019080838360005b8381101561035a57808201518184015260208101905061033f565b50505050905090810190601f1680156103875780820380516001836020036101000a031916815260200191505b509b50505050505050505050505060405180910390f35b610461600480360360408110156103b457600080fd5b81019080803590602001906401000000008111156103d157600080fd5b8201836020820111156103e357600080fd5b8035906020019184600183028401116401000000008311171561040557600080fd5b91908080601f016020809104026020016040519081016040528093929190818152602001838380828437600081840152601f19601f82011690508083019250505050505050919291929080359060200190929190505050611043565b005b61046b611255565b6040518080602001828103825283818151815260200191508051906020019080838360005b838110156104ab578082015181840152602081019050610490565b50505050905090810190601f1680156104d85780820380516001836020036101000a031916815260200191505b509250505060405180910390f35b610636600480360360408110156104fc57600080fd5b810190808035906020019064010000000081111561051957600080fd5b82018360208201111561052b57600080fd5b8035906020019184600183028401116401000000008311171561054d57600080fd5b91908080601f016020809104026020016040519081016040528093929190818152602001838380828437600081840152601f19601f820116905080830192505050505050509192919290803590602001906401000000008111156105b057600080fd5b8201836020820111156105c257600080fd5b803590602001918460018302840111640100000000831117156105e457600080fd5b91908080601f016020809104026020016040519081016040528093929190818152602001838380828437600081840152601f19601f8201169050808301925050505050505091929192905050506112f3565b005b6106fb6004803603604081101561064e57600080fd5b810190808035906020019064010000000081111561066b57600080fd5b82018360208201111561067d57600080fd5b8035906020019184600183028401116401000000008311171561069f57600080fd5b91908080601f016020809104026020016040519081016040528093929190818152602001838380828437600081840152601f19601f82011690508083019250505050505050919291929080359060200190929190505050611325565b005b610705611537565b6040518082815260200191505060405180910390f35b61072361153d565b6040518080602001828103825283818151815260200191508051906020019080838360005b83811015610763578082015181840152602081019050610748565b50505050905090810190601f1680156107905780820380516001836020036101000a031916815260200191505b509250505060405180910390f35b610a3c600480360360a08110156107b457600080fd5b81019080803573ffffffffffffffffffffffffffffffffffffffff169060200190929190803590602001906401000000008111156107f157600080fd5b82018360208201111561080357600080fd5b8035906020019184600183028401116401000000008311171561082557600080fd5b91908080601f016020809104026020016040519081016040528093929190818152602001838380828437600081840152601f19601f8201169050808301925050505050505091929192908035906020019064010000000081111561088857600080fd5b82018360208201111561089a57600080fd5b803590602001918460018302840111640100000000831117156108bc57600080fd5b91908080601f016020809104026020016040519081016040528093929190818152602001838380828437600081840152601f19601f8201169050808301925050505050505091929192908035906020019064010000000081111561091f57600080fd5b82018360208201111561093157600080fd5b8035906020019184600183028401116401000000008311171561095357600080fd5b91908080601f016020809104026020016040519081016040528093929190818152602001838380828437600081840152601f19601f820116905080830192505050505050509192919290803590602001906401000000008111156109b657600080fd5b8201836020820111156109c857600080fd5b803590602001918460018302840111640100000000831117156109ea57600080fd5b91908080601f016020809104026020016040519081016040528093929190818152602001838380828437600081840152601f19601f8201169050808301925050505050505091929192905050506115db565b005b610a46611727565b6040518082815260200191505060405180910390f35b610a8860048036036020811015610a7257600080fd5b810190808035906020019092919050505061172d565b60405180868152602001806020018581526020018473ffffffffffffffffffffffffffffffffffffffff1673ffffffffffffffffffffffffffffffffffffffff16815260200183151515158152602001828103825286818151815260200191508051906020019080838360005b83811015610b10578082015181840152602081019050610af5565b50505050905090810190601f168015610b3d5780820380516001836020036101000a031916815260200191505b50965050505050505060405180910390f35b610b57611828565b6040518080602001828103825283818151815260200191508051906020019080838360005b83811015610b97578082015181840152602081019050610b7c565b50505050905090810190601f168015610bc45780820380516001836020036101000a031916815260200191505b509250505060405180910390f35b610bfe60048036036020811015610be857600080fd5b81019080803590602001909291905050506118c6565b60405180868152602001806020018581526020018473ffffffffffffffffffffffffffffffffffffffff1673ffffffffffffffffffffffffffffffffffffffff16815260200183151515158152602001828103825286818151815260200191508051906020019080838360005b83811015610c86578082015181840152602081019050610c6b565b50505050905090810190601f168015610cb35780820380516001836020036101000a031916815260200191505b50965050505050505060405180910390f35b610ccd6119c1565b6040518082815260200191505060405180910390f35b60018054600181600116156101000203166002900480601f016020809104026020016040519081016040528092919081815260200182805460018160011615610100020316600290048015610d795780601f10610d4e57610100808354040283529160200191610d79565b820191906000526020600020905b815481529060010190602001808311610d5c57829003601f168201915b505050505081565b60046020528060005260406000206000915090508060000154908060010160009054906101000a900473ffffffffffffffffffffffffffffffffffffffff1690806002018054600181600116156101000203166002900480601f016020809104026020016040519081016040528092919081815260200182805460018160011615610100020316600290048015610e595780601f10610e2e57610100808354040283529160200191610e59565b820191906000526020600020905b815481529060010190602001808311610e3c57829003601f168201915b505050505090806003018054600181600116156101000203166002900480601f016020809104026020016040519081016040528092919081815260200182805460018160011615610100020316600290048015610ef75780601f10610ecc57610100808354040283529160200191610ef7565b820191906000526020600020905b815481529060010190602001808311610eda57829003601f168201915b505050505090806004018054600181600116156101000203166002900480601f016020809104026020016040519081016040528092919081815260200182805460018160011615610100020316600290048015610f955780601f10610f6a57610100808354040283529160200191610f95565b820191906000526020600020905b815481529060010190602001808311610f7857829003601f168201915b505050505090806005018054600181600116156101000203166002900480601f0160208091040260200160405190810160405280929190818152602001828054600181600116156101000203166002900480156110335780601f1061100857610100808354040283529160200191611033565b820191906000526020600020905b81548152906001019060200180831161101657829003601f168201915b5050505050908060060154905087565b600082511161105157600080fd5b6000811161105e57600080fd5b6006600081548092919060010191905055506040518060a0016040528060065481526020018381526020018281526020013373ffffffffffffffffffffffffffffffffffffffff168152602001600015158152506007600060065481526020019081526020016000206000820151816000015560208201518160010190805190602001906110ed9291906119c7565b506040820151816002015560608201518160030160006101000a81548173ffffffffffffffffffffffffffffffffffffffff021916908373ffffffffffffffffffffffffffffffffffffffff16021790555060808201518160030160146101000a81548160ff0219169083151502179055509050507fbc59c0c8165864dcceb377dd07d8f431d4303f8e501cb0a0374a10cc68d71836600654838333600060405180868152602001806020018581526020018473ffffffffffffffffffffffffffffffffffffffff1673ffffffffffffffffffffffffffffffffffffffff16815260200183151515158152602001828103825286818151815260200191508051906020019080838360005b838110156112135780820151818401526020810190506111f8565b50505050905090810190601f1680156112405780820380516001836020036101000a031916815260200191505b50965050505050505060405180910390a15050565b60028054600181600116156101000203166002900480601f0160208091040260200160405190810160405280929190818152602001828054600181600116156101000203166002900480156112eb5780601f106112c0576101008083540402835291602001916112eb565b820191906000526020600020905b8154815290600101906020018083116112ce57829003601f168201915b505050505081565b8160039080519060200190611309929190611a47565b508060029080519060200190611320929190611a47565b505050565b600082511161133357600080fd5b6000811161134057600080fd5b6008600081548092919060010191905055506040518060a0016040528060085481526020018381526020018281526020013373ffffffffffffffffffffffffffffffffffffffff168152602001600015158152506009600060085481526020019081526020016000206000820151816000015560208201518160010190805190602001906113cf9291906119c7565b506040820151816002015560608201518160030160006101000a81548173ffffffffffffffffffffffffffffffffffffffff021916908373ffffffffffffffffffffffffffffffffffffffff16021790555060808201518160030160146101000a81548160ff0219169083151502179055509050507fbc59c0c8165864dcceb377dd07d8f431d4303f8e501cb0a0374a10cc68d71836600854838333600060405180868152602001806020018581526020018473ffffffffffffffffffffffffffffffffffffffff1673ffffffffffffffffffffffffffffffffffffffff16815260200183151515158152602001828103825286818151815260200191508051906020019080838360005b838110156114f55780820151818401526020810190506114da565b50505050905090810190601f1680156115225780820380516001836020036101000a031916815260200191505b50965050505050505060405180910390a15050565b60085481565b60038054600181600116156101000203166002900480601f0160208091040260200160405190810160405280929190818152602001828054600181600116156101000203166002900480156115d35780601f106115a8576101008083540402835291602001916115d3565b820191906000526020600020905b8154815290600101906020018083116115b657829003601f168201915b505050505081565b6005600081548092919060010191905055506040518060e0016040528060055481526020018673ffffffffffffffffffffffffffffffffffffffff16815260200185815260200184815260200183815260200182815260200160008152506004600060055481526020019081526020016000206000820151816000015560208201518160010160006101000a81548173ffffffffffffffffffffffffffffffffffffffff021916908373ffffffffffffffffffffffffffffffffffffffff16021790555060408201518160020190805190602001906116bb9291906119c7565b5060608201518160030190805190602001906116d89291906119c7565b5060808201518160040190805190602001906116f59291906119c7565b5060a08201518160050190805190602001906117129291906119c7565b5060c082015181600601559050505050505050565b60065481565b6009602052806000526040600020600091509050806000015490806001018054600181600116156101000203166002900480601f0160208091040260200160405190810160405280929190818152602001828054600181600116156101000203166002900480156117df5780601f106117b4576101008083540402835291602001916117df565b820191906000526020600020905b8154815290600101906020018083116117c257829003601f168201915b5050505050908060020154908060030160009054906101000a900473ffffffffffffffffffffffffffffffffffffffff16908060030160149054906101000a900460ff16905085565b60008054600181600116156101000203166002900480601f0160208091040260200160405190810160405280929190818152602001828054600181600116156101000203166002900480156118be5780601f10611893576101008083540402835291602001916118be565b820191906000526020600020905b8154815290600101906020018083116118a157829003601f168201915b505050505081565b6007602052806000526040600020600091509050806000015490806001018054600181600116156101000203166002900480601f0160208091040260200160405190810160405280929190818152602001828054600181600116156101000203166002900480156119785780601f1061194d57610100808354040283529160200191611978565b820191906000526020600020905b81548152906001019060200180831161195b57829003601f168201915b5050505050908060020154908060030160009054906101000a900473ffffffffffffffffffffffffffffffffffffffff16908060030160149054906101000a900460ff16905085565b60055481565b828054600181600116156101000203166002900490600052602060002090601f016020900481019282601f10611a0857805160ff1916838001178555611a36565b82800160010185558215611a36579182015b82811115611a35578251825591602001919060010190611a1a565b5b509050611a439190611ac7565b5090565b828054600181600116156101000203166002900490600052602060002090601f016020900481019282601f10611a8857805160ff1916838001178555611ab6565b82800160010185558215611ab6579182015b82811115611ab5578251825591602001919060010190611a9a565b5b509050611ac39190611ac7565b5090565b611ae991905b80821115611ae5576000816000905550600101611acd565b5090565b9056fea265627a7a72315820ba738b9072a424c02d28aaed231783b88b30c459895c190ff8b94a9b338c9e5564736f6c6343000510003232204164616d2052642c202330312d303220466f6f642043656e7472652c2053696e6761706f7265203238393837364d6f6e646179202d2054687572736461793a2037616d2d35706d3b205361747572646179202d2053756e6461792037616d2d33706d",
  "source": "// SPDX-License-Identifier: Blockchain\r\n\r\npragma solidity ^0.5.4;\r\n\r\ncontract Marketplace {\r\n    //hawkerName details\r\n    string public hawkerName = \"Selera Rasa Nasi Lemak\";\r\n    string public hawkerAddress =\r\n        \"2 Adam Rd, #01-02 Food Centre, Singapore 289876\";\r\n    string public hawkerOpeningHours =\r\n        \"Monday - Thursday: 7am-5pm; Saturday - Sunday 7am-3pm\";\r\n    string public hawkerPhone = \"98434509\";\r\n\r\n    // address[] public hawkerUsers;\r\n    // struct HawkerUser {\r\n    //     string name;\r\n    //     string addressLocation;\r\n    //     string openingHours;\r\n    //     string phone;\r\n    //     int rating;\r\n    //     string[] review;\r\n    // }\r\n    // mapping(address => HawkerUser) public hawkerInfo;\r\n\r\n    //constructor\r\n    constructor() public {\r\n        addHawker(\r\n            0x73c005D4B234C63F416F6e1038C011D55edDBF1e,\r\n            \"Selera Rasa Nasi Lemak\",\r\n            \"2 Adam Rd, #01-02 Food Centre, Singapore 289876\",\r\n            \"Monday - Thursday: 7am-5pm; Saturday - Sunday 7am-3pm\",\r\n            \"98434509\"\r\n        );\r\n    }\r\n\r\n    struct Hawker {\r\n        uint256 id;\r\n        address owner;\r\n        string name;\r\n        string addressLocation;\r\n        string openingHours;\r\n        string phone;\r\n        int256 rating;\r\n    }\r\n    // Read/write Hawkers\r\n    mapping(uint256 => Hawker) public hawkers;\r\n    //Store Hawkers Count\r\n    uint256 public hawkersCount;\r\n\r\n    function addHawker(\r\n        address _owner,\r\n        string memory _name,\r\n        string memory _addressLocation,\r\n        string memory _openingHours,\r\n        string memory _phone\r\n    ) public {\r\n        hawkersCount++;\r\n        hawkers[hawkersCount] = Hawker(\r\n            hawkersCount,\r\n            _owner,\r\n            _name,\r\n            _addressLocation,\r\n            _openingHours,\r\n            _phone,\r\n            0\r\n        );\r\n    }\r\n\r\n    //Supplier products\r\n    uint256 public suppProdCount = 0;\r\n    mapping(uint256 => SuppProduct) public suppProducts;\r\n    struct SuppProduct {\r\n        uint256 id;\r\n        string name;\r\n        uint256 price;\r\n        address payable owner; //when listing, the owner will be the seller. when buying, the owner will change from the seller to the buyer\r\n        bool purchased;\r\n    }\r\n\r\n    //Restaurants products\r\n    uint256 public restProdCount = 0;\r\n    mapping(uint256 => RestProduct) public restProducts;\r\n    struct RestProduct {\r\n        uint256 id;\r\n        string name;\r\n        uint256 price;\r\n        address payable owner;\r\n        bool purchased;\r\n    }\r\n\r\n    struct RestProfile {\r\n        uint256 id;\r\n        string name;\r\n        string category;\r\n        string location;\r\n        string deliveryHours;\r\n        address payable owner;\r\n        string reviews;\r\n        uint256 rating;\r\n    }\r\n\r\n    event ProductCreated(\r\n        uint256 id,\r\n        string name,\r\n        uint256 price,\r\n        address payable owner,\r\n        bool purchased\r\n    );\r\n\r\n    event ProductPurchased(\r\n        uint256 id,\r\n        string name,\r\n        uint256 price,\r\n        address payable owner,\r\n        bool purchased\r\n    );\r\n\r\n    function editHawkerProfile(string memory _phone, string memory _OH) public {\r\n        hawkerPhone = _phone;\r\n        hawkerOpeningHours = _OH;\r\n    }\r\n\r\n    //parameter _price is expressed in Ethereum cryptocurrency - Ether\r\n    //whenever we store Ether in the blockchain, we store it as Wei (smallest denomination of Ether )\r\n    //can check it on etherconverter.online\r\n    function createSuppProduct(string memory _name, uint256 _price) public {\r\n        // Require a valid name\r\n        require(bytes(_name).length > 0);\r\n        // Require a valid price\r\n        require(_price > 0);\r\n        // Increment product count\r\n        suppProdCount++;\r\n        // Create the product --- msg.sender is the one who accessed the function\r\n        suppProducts[suppProdCount] = SuppProduct(\r\n            suppProdCount,\r\n            _name,\r\n            _price,\r\n            msg.sender,\r\n            false\r\n        );\r\n        // Trigger an event\r\n        emit ProductCreated(suppProdCount, _name, _price, msg.sender, false);\r\n    }\r\n\r\n    function createRestProduct(string memory _name, uint256 _price) public {\r\n        // Require a valid name\r\n        require(bytes(_name).length > 0);\r\n        // Require a valid price\r\n        require(_price > 0);\r\n        // Increment product count\r\n        restProdCount++;\r\n        // Create the product --- msg.sender is the one who accessed the function\r\n        restProducts[restProdCount] = RestProduct(\r\n            restProdCount,\r\n            _name,\r\n            _price,\r\n            msg.sender,\r\n            false\r\n        );\r\n        // Trigger an event\r\n        emit ProductCreated(restProdCount, _name, _price, msg.sender, false);\r\n    }\r\n\r\n    // function purchaseProduct(uint256 _id) public payable {\r\n    //     //Fetch the product\r\n    //     Product memory _product = products[_id];\r\n    //     //Fetch the owner\r\n    //     address payable _seller = _product.owner;\r\n    //     //Make sure the product has a valid id\r\n    //     //require(_product.id > 0 && _product.id <= productCount); ---> need to change\r\n    //     //Require that there is enough Ether in the transaction\r\n    //     require(msg.value >= _product.price);\r\n    //     //Require that the product has not been purchased already\r\n    //     require(!_product.purchased);\r\n    //     //Require that the buyer is not the seller\r\n    //     require(_seller != msg.sender);\r\n    //     //Transfer ownership to the buyer\r\n    //     _product.owner = msg.sender;\r\n    //     //Mark as purchased\r\n    //     _product.purchased = true;\r\n    //     //Update the product\r\n    //     products[_id] = _product;\r\n    //     //Pay the seller by sending them Ether\r\n    //     address(_seller).transfer(msg.value);\r\n\r\n    //     //Trigger an event\r\n    //     emit ProductPurchased(\r\n    //         productCount,\r\n    //         _product.name,\r\n    //         _product.price,\r\n    //         msg.sender,\r\n    //         true\r\n    //     );\r\n    // }\r\n}\r\n",
  "sourcePath": "C:/Users/Casuarina/Desktop/FYP_FoodIndustry/blockchain/src/contracts/Marketplace.sol",
  "compiler": {
    "name": "solc",
    "version": "0.5.16+commit.9c3226ce.Emscripten.clang"
  },
  "schemaVersion": "3.4.1",
  "updatedAt": "2021-06-30T10:28:16.470Z",
  "networkType": "ethereum",
  "devdoc": {
    "methods": {}
  },
  "userdoc": {
    "methods": {}
  }
}