{
  "contractName": "Marketplace",
  "abi": [
    {
      "inputs": [],
      "payable": false,
      "stateMutability": "nonpayable",
      "type": "constructor"
    },
    {
      "anonymous": false,
      "inputs": [
        {
          "indexed": false,
          "internalType": "uint256",
          "name": "orderId",
          "type": "uint256"
        },
        {
          "indexed": true,
          "internalType": "address",
          "name": "buyer",
          "type": "address"
        },
        {
          "indexed": true,
          "internalType": "address",
          "name": "seller",
          "type": "address"
        },
        {
          "indexed": false,
          "internalType": "uint256",
          "name": "totalCost",
          "type": "uint256"
        },
        {
          "indexed": true,
          "internalType": "uint256",
          "name": "date",
          "type": "uint256"
        }
      ],
      "name": "HawkerProdPurchased",
      "type": "event"
    },
    {
      "anonymous": false,
      "inputs": [
        {
          "indexed": true,
          "internalType": "address",
          "name": "receiver",
          "type": "address"
        },
        {
          "indexed": false,
          "internalType": "uint256",
          "name": "amount",
          "type": "uint256"
        },
        {
          "indexed": true,
          "internalType": "address",
          "name": "owner",
          "type": "address"
        }
      ],
      "name": "LogRefund",
      "type": "event"
    },
    {
      "anonymous": false,
      "inputs": [
        {
          "indexed": true,
          "internalType": "uint256",
          "name": "id",
          "type": "uint256"
        },
        {
          "indexed": true,
          "internalType": "uint256",
          "name": "date",
          "type": "uint256"
        },
        {
          "indexed": false,
          "internalType": "string",
          "name": "name",
          "type": "string"
        },
        {
          "indexed": false,
          "internalType": "uint256",
          "name": "price",
          "type": "uint256"
        },
        {
          "indexed": true,
          "internalType": "address payable",
          "name": "owner",
          "type": "address"
        },
        {
          "indexed": false,
          "internalType": "bool",
          "name": "purchased",
          "type": "bool"
        },
        {
          "indexed": false,
          "internalType": "string",
          "name": "imageHash",
          "type": "string"
        }
      ],
      "name": "RestProdCreated",
      "type": "event"
    },
    {
      "anonymous": false,
      "inputs": [
        {
          "indexed": true,
          "internalType": "uint256",
          "name": "id",
          "type": "uint256"
        },
        {
          "indexed": true,
          "internalType": "uint256",
          "name": "date",
          "type": "uint256"
        },
        {
          "indexed": false,
          "internalType": "string",
          "name": "name",
          "type": "string"
        },
        {
          "indexed": false,
          "internalType": "uint256",
          "name": "price",
          "type": "uint256"
        },
        {
          "indexed": true,
          "internalType": "address payable",
          "name": "owner",
          "type": "address"
        },
        {
          "indexed": false,
          "internalType": "bool",
          "name": "purchased",
          "type": "bool"
        },
        {
          "indexed": false,
          "internalType": "string",
          "name": "imageHash",
          "type": "string"
        }
      ],
      "name": "SupplierProdCreated",
      "type": "event"
    },
    {
      "constant": true,
      "inputs": [
        {
          "internalType": "uint256",
          "name": "",
          "type": "uint256"
        }
      ],
      "name": "customers",
      "outputs": [
        {
          "internalType": "uint256",
          "name": "id",
          "type": "uint256"
        },
        {
          "internalType": "address",
          "name": "owner",
          "type": "address"
        },
        {
          "internalType": "string",
          "name": "name",
          "type": "string"
        },
        {
          "internalType": "string",
          "name": "addressLocation",
          "type": "string"
        },
        {
          "internalType": "string",
          "name": "phone",
          "type": "string"
        },
        {
          "internalType": "uint256",
          "name": "itemCount",
          "type": "uint256"
        }
      ],
      "payable": false,
      "stateMutability": "view",
      "type": "function"
    },
    {
      "constant": true,
      "inputs": [],
      "name": "customersCount",
      "outputs": [
        {
          "internalType": "uint256",
          "name": "",
          "type": "uint256"
        }
      ],
      "payable": false,
      "stateMutability": "view",
      "type": "function"
    },
    {
      "constant": true,
      "inputs": [
        {
          "internalType": "uint256",
          "name": "",
          "type": "uint256"
        }
      ],
      "name": "foodDeliveries",
      "outputs": [
        {
          "internalType": "uint256",
          "name": "id",
          "type": "uint256"
        },
        {
          "internalType": "address",
          "name": "owner",
          "type": "address"
        },
        {
          "internalType": "string",
          "name": "name",
          "type": "string"
        },
        {
          "internalType": "string",
          "name": "phone",
          "type": "string"
        },
        {
          "internalType": "int256",
          "name": "rating",
          "type": "int256"
        },
        {
          "internalType": "bool",
          "name": "available",
          "type": "bool"
        },
        {
          "internalType": "uint256",
          "name": "ordersAcceptedCount",
          "type": "uint256"
        },
        {
          "internalType": "uint256",
          "name": "feedbackCount",
          "type": "uint256"
        }
      ],
      "payable": false,
      "stateMutability": "view",
      "type": "function"
    },
    {
      "constant": true,
      "inputs": [],
      "name": "foodDeliveriesCount",
      "outputs": [
        {
          "internalType": "uint256",
          "name": "",
          "type": "uint256"
        }
      ],
      "payable": false,
      "stateMutability": "view",
      "type": "function"
    },
    {
      "constant": true,
      "inputs": [
        {
          "internalType": "uint256",
          "name": "",
          "type": "uint256"
        }
      ],
      "name": "hawkers",
      "outputs": [
        {
          "internalType": "uint256",
          "name": "id",
          "type": "uint256"
        },
        {
          "internalType": "address",
          "name": "owner",
          "type": "address"
        },
        {
          "internalType": "string",
          "name": "name",
          "type": "string"
        },
        {
          "internalType": "string",
          "name": "addressLocation",
          "type": "string"
        },
        {
          "internalType": "string",
          "name": "openingHours",
          "type": "string"
        },
        {
          "internalType": "string",
          "name": "phone",
          "type": "string"
        },
        {
          "internalType": "uint256",
          "name": "avgRating",
          "type": "uint256"
        },
        {
          "internalType": "bool",
          "name": "open",
          "type": "bool"
        },
        {
          "internalType": "uint256",
          "name": "feedbackCount",
          "type": "uint256"
        }
      ],
      "payable": false,
      "stateMutability": "view",
      "type": "function"
    },
    {
      "constant": true,
      "inputs": [],
      "name": "hawkersCount",
      "outputs": [
        {
          "internalType": "uint256",
          "name": "",
          "type": "uint256"
        }
      ],
      "payable": false,
      "stateMutability": "view",
      "type": "function"
    },
    {
      "constant": true,
      "inputs": [
        {
          "internalType": "uint256",
          "name": "",
          "type": "uint256"
        }
      ],
      "name": "orders",
      "outputs": [
        {
          "internalType": "uint256",
          "name": "id",
          "type": "uint256"
        },
        {
          "internalType": "address",
          "name": "owner",
          "type": "address"
        },
        {
          "internalType": "address",
          "name": "seller",
          "type": "address"
        },
        {
          "internalType": "address",
          "name": "driver",
          "type": "address"
        },
        {
          "internalType": "uint256",
          "name": "hawkerPayment",
          "type": "uint256"
        },
        {
          "internalType": "uint256",
          "name": "riderPayment",
          "type": "uint256"
        },
        {
          "internalType": "uint256",
          "name": "totalPrice",
          "type": "uint256"
        },
        {
          "internalType": "uint256",
          "name": "purchasedItemCount",
          "type": "uint256"
        },
        {
          "internalType": "string",
          "name": "date",
          "type": "string"
        },
        {
          "internalType": "string",
          "name": "time",
          "type": "string"
        },
        {
          "internalType": "enum Marketplace.Status",
          "name": "state",
          "type": "uint8"
        },
        {
          "internalType": "bool",
          "name": "rated",
          "type": "bool"
        }
      ],
      "payable": false,
      "stateMutability": "view",
      "type": "function"
    },
    {
      "constant": true,
      "inputs": [],
      "name": "ordersCount",
      "outputs": [
        {
          "internalType": "uint256",
          "name": "",
          "type": "uint256"
        }
      ],
      "payable": false,
      "stateMutability": "view",
      "type": "function"
    },
    {
      "constant": true,
      "inputs": [],
      "name": "restProdCount",
      "outputs": [
        {
          "internalType": "uint256",
          "name": "",
          "type": "uint256"
        }
      ],
      "payable": false,
      "stateMutability": "view",
      "type": "function"
    },
    {
      "constant": true,
      "inputs": [
        {
          "internalType": "uint256",
          "name": "",
          "type": "uint256"
        }
      ],
      "name": "restProducts",
      "outputs": [
        {
          "internalType": "uint256",
          "name": "id",
          "type": "uint256"
        },
        {
          "internalType": "string",
          "name": "name",
          "type": "string"
        },
        {
          "internalType": "uint256",
          "name": "price",
          "type": "uint256"
        },
        {
          "internalType": "address payable",
          "name": "owner",
          "type": "address"
        },
        {
          "internalType": "bool",
          "name": "published",
          "type": "bool"
        },
        {
          "internalType": "string",
          "name": "imageHash",
          "type": "string"
        },
        {
          "internalType": "uint256",
          "name": "soldCount",
          "type": "uint256"
        }
      ],
      "payable": false,
      "stateMutability": "view",
      "type": "function"
    },
    {
      "constant": true,
      "inputs": [],
      "name": "state",
      "outputs": [
        {
          "internalType": "enum Marketplace.Status",
          "name": "",
          "type": "uint8"
        }
      ],
      "payable": false,
      "stateMutability": "view",
      "type": "function"
    },
    {
      "constant": true,
      "inputs": [],
      "name": "suppProdCount",
      "outputs": [
        {
          "internalType": "uint256",
          "name": "",
          "type": "uint256"
        }
      ],
      "payable": false,
      "stateMutability": "view",
      "type": "function"
    },
    {
      "constant": true,
      "inputs": [
        {
          "internalType": "uint256",
          "name": "",
          "type": "uint256"
        }
      ],
      "name": "suppProducts",
      "outputs": [
        {
          "internalType": "uint256",
          "name": "id",
          "type": "uint256"
        },
        {
          "internalType": "string",
          "name": "name",
          "type": "string"
        },
        {
          "internalType": "uint256",
          "name": "price",
          "type": "uint256"
        },
        {
          "internalType": "address payable",
          "name": "owner",
          "type": "address"
        },
        {
          "internalType": "bool",
          "name": "published",
          "type": "bool"
        },
        {
          "internalType": "string",
          "name": "imageHash",
          "type": "string"
        }
      ],
      "payable": false,
      "stateMutability": "view",
      "type": "function"
    },
    {
      "constant": false,
      "inputs": [
        {
          "internalType": "address",
          "name": "_owner",
          "type": "address"
        },
        {
          "internalType": "string",
          "name": "_name",
          "type": "string"
        },
        {
          "internalType": "string",
          "name": "_phone",
          "type": "string"
        },
        {
          "internalType": "bool",
          "name": "_available",
          "type": "bool"
        }
      ],
      "name": "addFoodDelivery",
      "outputs": [],
      "payable": false,
      "stateMutability": "nonpayable",
      "type": "function"
    },
    {
      "constant": false,
      "inputs": [
        {
          "internalType": "address",
          "name": "_owner",
          "type": "address"
        },
        {
          "internalType": "string",
          "name": "_name",
          "type": "string"
        },
        {
          "internalType": "string",
          "name": "_addressLocation",
          "type": "string"
        },
        {
          "internalType": "string",
          "name": "_openingHours",
          "type": "string"
        },
        {
          "internalType": "string",
          "name": "_phone",
          "type": "string"
        },
        {
          "internalType": "bool",
          "name": "_open",
          "type": "bool"
        }
      ],
      "name": "addHawker",
      "outputs": [],
      "payable": false,
      "stateMutability": "nonpayable",
      "type": "function"
    },
    {
      "constant": false,
      "inputs": [
        {
          "internalType": "string",
          "name": "_phone",
          "type": "string"
        },
        {
          "internalType": "string",
          "name": "_OH",
          "type": "string"
        }
      ],
      "name": "editHawkerProfile",
      "outputs": [],
      "payable": false,
      "stateMutability": "nonpayable",
      "type": "function"
    },
    {
      "constant": false,
      "inputs": [],
      "name": "boolOpen",
      "outputs": [],
      "payable": false,
      "stateMutability": "nonpayable",
      "type": "function"
    },
    {
      "constant": false,
      "inputs": [],
      "name": "boolWork",
      "outputs": [],
      "payable": false,
      "stateMutability": "nonpayable",
      "type": "function"
    },
    {
      "constant": false,
      "inputs": [
        {
          "internalType": "string",
          "name": "_name",
          "type": "string"
        },
        {
          "internalType": "uint256",
          "name": "_price",
          "type": "uint256"
        },
        {
          "internalType": "bool",
          "name": "_published",
          "type": "bool"
        },
        {
          "internalType": "string",
          "name": "_imageHash",
          "type": "string"
        }
      ],
      "name": "createSuppProduct",
      "outputs": [],
      "payable": false,
      "stateMutability": "nonpayable",
      "type": "function"
    },
    {
      "constant": false,
      "inputs": [
        {
          "internalType": "string",
          "name": "_name",
          "type": "string"
        },
        {
          "internalType": "uint256",
          "name": "_price",
          "type": "uint256"
        },
        {
          "internalType": "bool",
          "name": "_published",
          "type": "bool"
        },
        {
          "internalType": "string",
          "name": "_imageHash",
          "type": "string"
        }
      ],
      "name": "createRestProduct",
      "outputs": [],
      "payable": false,
      "stateMutability": "nonpayable",
      "type": "function"
    },
    {
      "constant": false,
      "inputs": [
        {
          "internalType": "address",
          "name": "_owner",
          "type": "address"
        },
        {
          "internalType": "string",
          "name": "_name",
          "type": "string"
        },
        {
          "internalType": "string",
          "name": "_addressLocation",
          "type": "string"
        },
        {
          "internalType": "string",
          "name": "_phone",
          "type": "string"
        }
      ],
      "name": "addCustomer",
      "outputs": [],
      "payable": false,
      "stateMutability": "nonpayable",
      "type": "function"
    },
    {
      "constant": false,
      "inputs": [
        {
          "internalType": "string",
          "name": "_phone",
          "type": "string"
        },
        {
          "internalType": "string",
          "name": "_address",
          "type": "string"
        }
      ],
      "name": "editCustProfile",
      "outputs": [],
      "payable": false,
      "stateMutability": "nonpayable",
      "type": "function"
    },
    {
      "constant": false,
      "inputs": [
        {
          "internalType": "uint256",
          "name": "_productId",
          "type": "uint256"
        },
        {
          "internalType": "string",
          "name": "_name",
          "type": "string"
        },
        {
          "internalType": "uint256",
          "name": "_price",
          "type": "uint256"
        },
        {
          "internalType": "string",
          "name": "_imageHash",
          "type": "string"
        },
        {
          "internalType": "bool",
          "name": "_published",
          "type": "bool"
        }
      ],
      "name": "editProduct",
      "outputs": [],
      "payable": false,
      "stateMutability": "nonpayable",
      "type": "function"
    },
    {
      "constant": false,
      "inputs": [
        {
          "internalType": "uint256",
          "name": "_id",
          "type": "uint256"
        },
        {
          "internalType": "uint256",
          "name": "_prodQty",
          "type": "uint256"
        }
      ],
      "name": "addToCart",
      "outputs": [],
      "payable": false,
      "stateMutability": "nonpayable",
      "type": "function"
    },
    {
      "constant": false,
      "inputs": [
        {
          "internalType": "uint256",
          "name": "custId",
          "type": "uint256"
        },
        {
          "internalType": "uint256",
          "name": "cartId",
          "type": "uint256"
        }
      ],
      "name": "removeProdCart",
      "outputs": [],
      "payable": false,
      "stateMutability": "nonpayable",
      "type": "function"
    },
    {
      "constant": false,
      "inputs": [
        {
          "internalType": "uint256",
          "name": "productId",
          "type": "uint256"
        }
      ],
      "name": "deleteProduct",
      "outputs": [],
      "payable": false,
      "stateMutability": "nonpayable",
      "type": "function"
    },
    {
      "constant": false,
      "inputs": [
        {
          "internalType": "uint256",
          "name": "custId",
          "type": "uint256"
        }
      ],
      "name": "removeAllProdCart",
      "outputs": [],
      "payable": false,
      "stateMutability": "nonpayable",
      "type": "function"
    },
    {
      "constant": false,
      "inputs": [
        {
          "internalType": "uint256",
          "name": "custId",
          "type": "uint256"
        },
        {
          "internalType": "uint256",
          "name": "cartId",
          "type": "uint256"
        }
      ],
      "name": "getCartProduct",
      "outputs": [
        {
          "internalType": "uint256",
          "name": "",
          "type": "uint256"
        },
        {
          "internalType": "uint256",
          "name": "",
          "type": "uint256"
        }
      ],
      "payable": false,
      "stateMutability": "nonpayable",
      "type": "function"
    },
    {
      "constant": false,
      "inputs": [
        {
          "internalType": "uint256",
          "name": "orderId",
          "type": "uint256"
        },
        {
          "internalType": "uint256",
          "name": "cartId",
          "type": "uint256"
        }
      ],
      "name": "getOrderProduct",
      "outputs": [
        {
          "components": [
            {
              "internalType": "uint256",
              "name": "id",
              "type": "uint256"
            },
            {
              "internalType": "string",
              "name": "name",
              "type": "string"
            },
            {
              "internalType": "uint256",
              "name": "price",
              "type": "uint256"
            },
            {
              "internalType": "address payable",
              "name": "owner",
              "type": "address"
            },
            {
              "internalType": "bool",
              "name": "published",
              "type": "bool"
            },
            {
              "internalType": "string",
              "name": "imageHash",
              "type": "string"
            },
            {
              "internalType": "uint256",
              "name": "soldCount",
              "type": "uint256"
            }
          ],
          "internalType": "struct Marketplace.RestProduct",
          "name": "",
          "type": "tuple"
        },
        {
          "components": [
            {
              "internalType": "uint256",
              "name": "id",
              "type": "uint256"
            },
            {
              "internalType": "uint256",
              "name": "productId",
              "type": "uint256"
            },
            {
              "internalType": "uint256",
              "name": "productQty",
              "type": "uint256"
            }
          ],
          "internalType": "struct Marketplace.CartItem",
          "name": "",
          "type": "tuple"
        }
      ],
      "payable": false,
      "stateMutability": "nonpayable",
      "type": "function"
    },
    {
      "constant": false,
      "inputs": [
        {
          "internalType": "uint256",
          "name": "hawkerId",
          "type": "uint256"
        },
        {
          "internalType": "uint256",
          "name": "feedbackCount",
          "type": "uint256"
        }
      ],
      "name": "getHawkerFeedback",
      "outputs": [
        {
          "components": [
            {
              "internalType": "uint256",
              "name": "id",
              "type": "uint256"
            },
            {
              "internalType": "address",
              "name": "seller",
              "type": "address"
            },
            {
              "internalType": "address",
              "name": "customer",
              "type": "address"
            },
            {
              "internalType": "uint256",
              "name": "rate",
              "type": "uint256"
            },
            {
              "internalType": "string",
              "name": "comment",
              "type": "string"
            }
          ],
          "internalType": "struct Marketplace.Feedback",
          "name": "",
          "type": "tuple"
        }
      ],
      "payable": false,
      "stateMutability": "nonpayable",
      "type": "function"
    },
    {
      "constant": false,
      "inputs": [
        {
          "internalType": "uint256",
          "name": "fdId",
          "type": "uint256"
        },
        {
          "internalType": "uint256",
          "name": "feedbackCount",
          "type": "uint256"
        }
      ],
      "name": "getFdFeedback",
      "outputs": [
        {
          "components": [
            {
              "internalType": "uint256",
              "name": "id",
              "type": "uint256"
            },
            {
              "internalType": "address",
              "name": "seller",
              "type": "address"
            },
            {
              "internalType": "address",
              "name": "customer",
              "type": "address"
            },
            {
              "internalType": "uint256",
              "name": "rate",
              "type": "uint256"
            },
            {
              "internalType": "string",
              "name": "comment",
              "type": "string"
            }
          ],
          "internalType": "struct Marketplace.Feedback",
          "name": "",
          "type": "tuple"
        }
      ],
      "payable": false,
      "stateMutability": "nonpayable",
      "type": "function"
    },
    {
      "constant": false,
      "inputs": [
        {
          "internalType": "uint256",
          "name": "_orderId",
          "type": "uint256"
        },
        {
          "internalType": "address",
          "name": "_hawker",
          "type": "address"
        },
        {
          "internalType": "uint256",
          "name": "_hawkerRate",
          "type": "uint256"
        },
        {
          "internalType": "string",
          "name": "_hawkerComment",
          "type": "string"
        },
        {
          "internalType": "address",
          "name": "_foodDelivery",
          "type": "address"
        },
        {
          "internalType": "uint256",
          "name": "_fdRate",
          "type": "uint256"
        },
        {
          "internalType": "string",
          "name": "_fdComment",
          "type": "string"
        }
      ],
      "name": "setRating",
      "outputs": [],
      "payable": false,
      "stateMutability": "nonpayable",
      "type": "function"
    },
    {
      "constant": false,
      "inputs": [
        {
          "internalType": "uint256",
          "name": "_orderId",
          "type": "uint256"
        },
        {
          "internalType": "address payable",
          "name": "_customer",
          "type": "address"
        }
      ],
      "name": "cancelOrder",
      "outputs": [],
      "payable": true,
      "stateMutability": "payable",
      "type": "function"
    },
    {
      "constant": false,
      "inputs": [
        {
          "internalType": "uint256",
          "name": "_custId",
          "type": "uint256"
        },
        {
          "internalType": "address payable",
          "name": "_seller",
          "type": "address"
        },
        {
          "internalType": "uint256",
          "name": "_hawkerPayment",
          "type": "uint256"
        },
        {
          "internalType": "uint256",
          "name": "_riderPayment",
          "type": "uint256"
        },
        {
          "internalType": "uint256",
          "name": "_totalCost",
          "type": "uint256"
        },
        {
          "internalType": "string",
          "name": "_date",
          "type": "string"
        },
        {
          "internalType": "string",
          "name": "_time",
          "type": "string"
        }
      ],
      "name": "purchaseProduct",
      "outputs": [],
      "payable": true,
      "stateMutability": "payable",
      "type": "function"
    },
    {
      "constant": false,
      "inputs": [
        {
          "internalType": "uint256",
          "name": "_orderId",
          "type": "uint256"
        }
      ],
      "name": "hawkerConfirmOrder",
      "outputs": [],
      "payable": false,
      "stateMutability": "nonpayable",
      "type": "function"
    },
    {
      "constant": false,
      "inputs": [
        {
          "internalType": "uint256",
          "name": "_orderId",
          "type": "uint256"
        }
      ],
      "name": "fdAcceptOrder",
      "outputs": [],
      "payable": false,
      "stateMutability": "nonpayable",
      "type": "function"
    },
    {
      "constant": false,
      "inputs": [
        {
          "internalType": "uint256",
          "name": "_orderId",
          "type": "uint256"
        }
      ],
      "name": "fdCollectedOrder",
      "outputs": [],
      "payable": false,
      "stateMutability": "nonpayable",
      "type": "function"
    },
    {
      "constant": false,
      "inputs": [
        {
          "internalType": "uint256",
          "name": "_orderId",
          "type": "uint256"
        }
      ],
      "name": "fdCompleteOrder",
      "outputs": [],
      "payable": true,
      "stateMutability": "payable",
      "type": "function"
    }
  ],
  "bytecode": "0x6080604052600060045560006006553480156200001b57600080fd5b50620000e37373c005d4b234c63f416f6e1038c011d55eddbf1e6040518060400160405280601681526020017f53656c6572612052617361204e617369204c656d616b000000000000000000008152506040518060600160405280602f815260200162005c48602f913960405180606001604052806035815260200162005ce0603591396040518060400160405280600881526020017f39383433343530390000000000000000000000000000000000000000000000008152506000620003b560201b60201c565b620001aa7387ecee1454a7b32253a9020f6ae1ff25e9ce35b56040518060400160405280602081526020017f5469616e205469616e204861696e616e65736520436869636b656e205269636581525060405180608001604052806046815260200162005c776046913960405180606001604052806023815260200162005cbd602391396040518060400160405280600881526020017f39363931343835320000000000000000000000000000000000000000000000008152506000620003b560201b60201c565b6200027173c9342f12d49ca9e40d600ebf17266dccc88a06396040518060400160405280600981526020017f436173756172696e6100000000000000000000000000000000000000000000008152506040518060400160405280602081526020017f3530204e616e79616e67204176652c2053696e6761706f7265203633393739388152506040518060400160405280600881526020017f39383736353433320000000000000000000000000000000000000000000000008152506200054560201b60201c565b6200031c737c2ea58a210f8e7c80fdeb6788c1d5fc4a3e73ba6040518060400160405280600781526020017f5061747269636b0000000000000000000000000000000000000000000000000081525060405180606001604052806025815260200162005d15602591396040518060400160405280600881526020017f39313233343536370000000000000000000000000000000000000000000000008152506200054560201b60201c565b620003af7366f8f66996aab36b041b1cada9f20864a0c426986040518060400160405280600781526020017f4c656f2054616e000000000000000000000000000000000000000000000000008152506040518060400160405280600881526020017f393031323334353600000000000000000000000000000000000000000000000081525060006200067360201b60201c565b62000875565b60036000815480929190600101919050555060405180610120016040528060035481526020018773ffffffffffffffffffffffffffffffffffffffff16815260200186815260200185815260200184815260200183815260200160008152602001821515815260200160008152506002600060035481526020019081526020016000206000820151816000015560208201518160010160006101000a81548173ffffffffffffffffffffffffffffffffffffffff021916908373ffffffffffffffffffffffffffffffffffffffff1602179055506040820151816002019080519060200190620004a7929190620007c6565b506060820151816003019080519060200190620004c6929190620007c6565b506080820151816004019080519060200190620004e5929190620007c6565b5060a082015181600501908051906020019062000504929190620007c6565b5060c0820151816006015560e08201518160070160006101000a81548160ff0219169083151502179055506101008201518160090155905050505050505050565b600c600081548092919060010191905055506040518060c00160405280600c5481526020018573ffffffffffffffffffffffffffffffffffffffff1681526020018481526020018381526020018281526020016000815250600b6000600c5481526020019081526020016000206000820151816000015560208201518160010160006101000a81548173ffffffffffffffffffffffffffffffffffffffff021916908373ffffffffffffffffffffffffffffffffffffffff160217905550604082015181600201908051906020019062000621929190620007c6565b50606082015181600301908051906020019062000640929190620007c6565b5060808201518160040190805190602001906200065f929190620007c6565b5060a0820151816006015590505050505050565b60016000815480929190600101919050555060405180610100016040528060015481526020018573ffffffffffffffffffffffffffffffffffffffff16815260200184815260200183815260200160058152602001821515815260200160008152602001600081525060008060015481526020019081526020016000206000820151816000015560208201518160010160006101000a81548173ffffffffffffffffffffffffffffffffffffffff021916908373ffffffffffffffffffffffffffffffffffffffff16021790555060408201518160020190805190602001906200075f929190620007c6565b5060608201518160030190805190602001906200077e929190620007c6565b506080820151816004015560a08201518160050160006101000a81548160ff02191690831515021790555060c0820151816007015560e0820151816009015590505050505050565b828054600181600116156101000203166002900490600052602060002090601f016020900481019282601f106200080957805160ff19168380011785556200083a565b828001600101855582156200083a579182015b82811115620008395782518255916020019190600101906200081c565b5b5090506200084991906200084d565b5090565b6200087291905b808211156200086e57600081600090555060010162000854565b5090565b90565b6153c380620008856000396000f3fe6080604052600436106102255760003560e01c8063a85c38ef11610123578063cc3cb432116100ab578063e79bb8271161006f578063e79bb8271461083c578063ed90c7b714610865578063f0bbfb071461088e578063f0eab430146108b7578063f89e7697146108e057610225565b8063cc3cb43214610761578063db3a0abd1461078a578063dbeb584b146107b3578063e16f14e2146107cf578063e6f65b4c1461081157610225565b8063afc7c236116100f2578063afc7c23614610662578063b0fd5c461461068b578063c0abda2a146106b6578063c19d93fb146106f8578063c6705e9f1461072357610225565b8063a85c38ef14610590578063a9937b22146105d8578063abed579f14610603578063ad0c07941461064657610225565b80634244c3d4116101b1578063757a270311610175578063757a2703146104c15780638455776b146104ec5780638968bffd14610515578063995d7d931461053e5780639d0d6f8b1461056757610225565b80634244c3d4146103ff5780634368d179146104285780634937f2a7146104655780637078b09a1461047c5780637323a7d3146104a557610225565b806315cfae39116101f857806315cfae39146102eb578063278e381c1461032857806335daa731146103665780633ab9bbb6146103915780633be94d47146103ba57610225565b8063093c05fa1461022a5780630b90cd281461026e5780630c21a8d2146102975780631460953c146102c2575b600080fd5b34801561023657600080fd5b50610251600480360361024c91908101906147c7565b6108f7565b604051610265989796959493929190614eea565b60405180910390f35b34801561027a57600080fd5b50610295600480360361029091908101906146c8565b610a9c565b005b3480156102a357600080fd5b506102ac610b82565b6040516102b99190614e07565b60405180910390f35b3480156102ce57600080fd5b506102e960048036036102e49190810190614534565b610b88565b005b3480156102f757600080fd5b50610312600480360361030d9190810190614a6f565b610cb0565b60405161031f9190614db5565b60405180910390f35b34801561033457600080fd5b5061034f600480360361034a9190810190614a6f565b610e65565b60405161035d929190614dd7565b60405180910390f35b34801561037257600080fd5b5061037b6110fd565b6040516103889190614e07565b60405180910390f35b34801561039d57600080fd5b506103b860048036036103b39190810190614a6f565b611103565b005b3480156103c657600080fd5b506103e160048036036103dc91908101906147c7565b611248565b6040516103f699989796959493929190614f76565b60405180910390f35b34801561040b57600080fd5b5061042660048036036104219190810190614a6f565b611523565b005b34801561043457600080fd5b5061044f600480360361044a9190810190614a6f565b611584565b60405161045c9190614db5565b60405180910390f35b34801561047157600080fd5b5061047a61173a565b005b34801561048857600080fd5b506104a3600480360361049e91908101906146c8565b611817565b005b6104bf60048036036104ba91908101906147f0565b6118fd565b005b3480156104cd57600080fd5b506104d6611abd565b6040516104e39190614e07565b60405180910390f35b3480156104f857600080fd5b50610513600480360361050e91908101906148fa565b611ac3565b005b34801561052157600080fd5b5061053c600480360361053791908101906149c8565b611fc8565b005b34801561054a57600080fd5b50610565600480360361056091908101906147c7565b6120ae565b005b34801561057357600080fd5b5061058e600480360361058991908101906147c7565b6127f8565b005b34801561059c57600080fd5b506105b760048036036105b291908101906147c7565b6128d0565b6040516105cf9c9b9a99989796959493929190614e22565b60405180910390f35b3480156105e457600080fd5b506105ed612ada565b6040516105fa9190614e07565b60405180910390f35b34801561060f57600080fd5b5061062a600480360361062591908101906147c7565b612ae0565b60405161063d9796959493929190615104565b60405180910390f35b610660600480360361065b919081019061482c565b612c7f565b005b34801561066e57600080fd5b50610689600480360361068491908101906144a1565b613318565b005b34801561069757600080fd5b506106a0613467565b6040516106ad9190614e07565b60405180910390f35b3480156106c257600080fd5b506106dd60048036036106d891908101906147c7565b61346d565b6040516106ef9695949392919061501f565b60405180910390f35b34801561070457600080fd5b5061070d613691565b60405161071a9190614d47565b60405180910390f35b34801561072f57600080fd5b5061074a60048036036107459190810190614a6f565b6136a4565b604051610758929190615181565b60405180910390f35b34801561076d57600080fd5b5061078860048036036107839190810190614734565b6136fc565b005b34801561079657600080fd5b506107b160048036036107ac91908101906145df565b6138ac565b005b6107cd60048036036107c891908101906147c7565b613a34565b005b3480156107db57600080fd5b506107f660048036036107f191908101906147c7565b613b0c565b60405161080896959493929190615095565b60405180910390f35b34801561081d57600080fd5b50610826613ca5565b6040516108339190614e07565b60405180910390f35b34801561084857600080fd5b50610863600480360361085e9190810190614734565b613cab565b005b34801561087157600080fd5b5061088c600480360361088791908101906147c7565b613e4a565b005b34801561089a57600080fd5b506108b560048036036108b091908101906147c7565b613ee9565b005b3480156108c357600080fd5b506108de60048036036108d991908101906147c7565b613f64565b005b3480156108ec57600080fd5b506108f5613fdf565b005b60006020528060005260406000206000915090508060000154908060010160009054906101000a900473ffffffffffffffffffffffffffffffffffffffff1690806002018054600181600116156101000203166002900480601f0160208091040260200160405190810160405280929190818152602001828054600181600116156101000203166002900480156109cf5780601f106109a4576101008083540402835291602001916109cf565b820191906000526020600020905b8154815290600101906020018083116109b257829003601f168201915b505050505090806003018054600181600116156101000203166002900480601f016020809104026020016040519081016040528092919081815260200182805460018160011615610100020316600290048015610a6d5780601f10610a4257610100808354040283529160200191610a6d565b820191906000526020600020905b815481529060010190602001808311610a5057829003601f168201915b5050505050908060040154908060050160009054906101000a900460ff16908060070154908060090154905088565b6000809050600090505b600c548111610b7d573373ffffffffffffffffffffffffffffffffffffffff16600b600083815260200190815260200160002060010160009054906101000a900473ffffffffffffffffffffffffffffffffffffffff1673ffffffffffffffffffffffffffffffffffffffff161415610b705782600b60008381526020019081526020016000206004019080519060200190610b439291906140bf565b5081600b60008381526020019081526020016000206003019080519060200190610b6e9291906140bf565b505b8080600101915050610aa6565b505050565b600c5481565b600c600081548092919060010191905055506040518060c00160405280600c5481526020018573ffffffffffffffffffffffffffffffffffffffff1681526020018481526020018381526020018281526020016000815250600b6000600c5481526020019081526020016000206000820151816000015560208201518160010160006101000a81548173ffffffffffffffffffffffffffffffffffffffff021916908373ffffffffffffffffffffffffffffffffffffffff1602179055506040820151816002019080519060200190610c6292919061413f565b506060820151816003019080519060200190610c7f92919061413f565b506080820151816004019080519060200190610c9c92919061413f565b5060a0820151816006015590505050505050565b610cb86141bf565b60008060008581526020019081526020016000209050610cd66141bf565b8160080160008581526020019081526020016000206040518060a0016040529081600082015481526020016001820160009054906101000a900473ffffffffffffffffffffffffffffffffffffffff1673ffffffffffffffffffffffffffffffffffffffff1673ffffffffffffffffffffffffffffffffffffffff1681526020016002820160009054906101000a900473ffffffffffffffffffffffffffffffffffffffff1673ffffffffffffffffffffffffffffffffffffffff1673ffffffffffffffffffffffffffffffffffffffff16815260200160038201548152602001600482018054600181600116156101000203166002900480601f016020809104026020016040519081016040528092919081815260200182805460018160011615610100020316600290048015610e4f5780601f10610e2457610100808354040283529160200191610e4f565b820191906000526020600020905b815481529060010190602001808311610e3257829003601f168201915b5050505050815250509050809250505092915050565b610e6d61421a565b610e7561426f565b60006009600086815260200190815260200160002090506000816007016000868152602001908152602001600020600101549050610eb161421a565b600760008381526020019081526020016000206040518060e001604052908160008201548152602001600182018054600181600116156101000203166002900480601f016020809104026020016040519081016040528092919081815260200182805460018160011615610100020316600290048015610f725780601f10610f4757610100808354040283529160200191610f72565b820191906000526020600020905b815481529060010190602001808311610f5557829003601f168201915b50505050508152602001600282015481526020016003820160009054906101000a900473ffffffffffffffffffffffffffffffffffffffff1673ffffffffffffffffffffffffffffffffffffffff1673ffffffffffffffffffffffffffffffffffffffff1681526020016003820160149054906101000a900460ff16151515158152602001600482018054600181600116156101000203166002900480601f01602080910402602001604051908101604052809291908181526020018280546001816001161561010002031660029004801561108f5780601f106110645761010080835404028352916020019161108f565b820191906000526020600020905b81548152906001019060200180831161107257829003601f168201915b5050505050815260200160058201548152505090506110ac61426f565b83600701600088815260200190815260200160002060405180606001604052908160008201548152602001600182015481526020016002820154815250509050818195509550505050509250929050565b600a5481565b6000809050600090505b600c548111611243573373ffffffffffffffffffffffffffffffffffffffff16600b600083815260200190815260200160002060010160009054906101000a900473ffffffffffffffffffffffffffffffffffffffff1673ffffffffffffffffffffffffffffffffffffffff16141561123657600b6000828152602001908152602001600020600601600081548092919060010191905055506040518060600160405280600b600084815260200190815260200160002060060154815260200184815260200183815250600b60008381526020019081526020016000206005016000600b60008581526020019081526020016000206006015481526020019081526020016000206000820151816000015560208201518160010155604082015181600201559050505b808060010191505061110d565b505050565b60026020528060005260406000206000915090508060000154908060010160009054906101000a900473ffffffffffffffffffffffffffffffffffffffff1690806002018054600181600116156101000203166002900480601f0160208091040260200160405190810160405280929190818152602001828054600181600116156101000203166002900480156113205780601f106112f557610100808354040283529160200191611320565b820191906000526020600020905b81548152906001019060200180831161130357829003601f168201915b505050505090806003018054600181600116156101000203166002900480601f0160208091040260200160405190810160405280929190818152602001828054600181600116156101000203166002900480156113be5780601f10611393576101008083540402835291602001916113be565b820191906000526020600020905b8154815290600101906020018083116113a157829003601f168201915b505050505090806004018054600181600116156101000203166002900480601f01602080910402602001604051908101604052809291908181526020018280546001816001161561010002031660029004801561145c5780601f106114315761010080835404028352916020019161145c565b820191906000526020600020905b81548152906001019060200180831161143f57829003601f168201915b505050505090806005018054600181600116156101000203166002900480601f0160208091040260200160405190810160405280929190818152602001828054600181600116156101000203166002900480156114fa5780601f106114cf576101008083540402835291602001916114fa565b820191906000526020600020905b8154815290600101906020018083116114dd57829003601f168201915b5050505050908060060154908060070160009054906101000a900460ff16908060090154905089565b6000600b60008481526020019081526020016000209050806006016000815480929190600190039190505550806005016000838152602001908152602001600020600080820160009055600182016000905560028201600090555050505050565b61158c6141bf565b60006002600085815260200190815260200160002090506115ab6141bf565b8160080160008581526020019081526020016000206040518060a0016040529081600082015481526020016001820160009054906101000a900473ffffffffffffffffffffffffffffffffffffffff1673ffffffffffffffffffffffffffffffffffffffff1673ffffffffffffffffffffffffffffffffffffffff1681526020016002820160009054906101000a900473ffffffffffffffffffffffffffffffffffffffff1673ffffffffffffffffffffffffffffffffffffffff1673ffffffffffffffffffffffffffffffffffffffff16815260200160038201548152602001600482018054600181600116156101000203166002900480601f0160208091040260200160405190810160405280929190818152602001828054600181600116156101000203166002900480156117245780601f106116f957610100808354040283529160200191611724565b820191906000526020600020905b81548152906001019060200180831161170757829003601f168201915b5050505050815250509050809250505092915050565b6000809050600090505b6001548111611814573373ffffffffffffffffffffffffffffffffffffffff1660008083815260200190815260200160002060010160009054906101000a900473ffffffffffffffffffffffffffffffffffffffff1673ffffffffffffffffffffffffffffffffffffffff1614156118075760008082815260200190815260200160002060050160009054906101000a900460ff161560008083815260200190815260200160002060050160006101000a81548160ff0219169083151502179055505b8080600101915050611744565b50565b6000809050600090505b60035481116118f8573373ffffffffffffffffffffffffffffffffffffffff166002600083815260200190815260200160002060010160009054906101000a900473ffffffffffffffffffffffffffffffffffffffff1673ffffffffffffffffffffffffffffffffffffffff1614156118eb57826002600083815260200190815260200160002060050190805190602001906118be9291906140bf565b50816002600083815260200190815260200160002060040190805190602001906118e99291906140bf565b505b8080600101915050611821565b505050565b6000809050600090505b600a548111611ab8578260096000838152602001908152602001600020600001541415611aab57600560096000838152602001908152602001600020600b0160006101000a81548160ff0219169083600581111561196157fe5b02179055506009600082815260200190815260200160002060010160009054906101000a900473ffffffffffffffffffffffffffffffffffffffff1673ffffffffffffffffffffffffffffffffffffffff166009600083815260200190815260200160002060010160009054906101000a900473ffffffffffffffffffffffffffffffffffffffff1673ffffffffffffffffffffffffffffffffffffffff167f61f699f59fb091fc805011c4a28b175567a2ea546bd32e2e4c6407881602a4e66009600085815260200190815260200160002060060154604051611a459190614e07565b60405180910390a38173ffffffffffffffffffffffffffffffffffffffff166108fc60096000848152602001908152602001600020600601549081150290604051600060405180830381858888f19350505050158015611aa9573d6000803e3d6000fd5b505b8080600101915050611907565b505050565b60065481565b6000809050600090505b600a548111611b31578760096000838152602001908152602001600020600001541415611b2457600160096000838152602001908152602001600020600b0160016101000a81548160ff0219169083151502179055505b8080600101915050611acd565b6000809050600090505b6003548111611da8578773ffffffffffffffffffffffffffffffffffffffff166002600083815260200190815260200160002060010160009054906101000a900473ffffffffffffffffffffffffffffffffffffffff1673ffffffffffffffffffffffffffffffffffffffff161415611d9b5760026000828152602001908152602001600020600901600081548092919060010191905055506040518060a00160405280600260008481526020019081526020016000206009015481526020018973ffffffffffffffffffffffffffffffffffffffff1681526020013373ffffffffffffffffffffffffffffffffffffffff16815260200188815260200187815250600260008381526020019081526020016000206008016000600260008581526020019081526020016000206009015481526020019081526020016000206000820151816000015560208201518160010160006101000a81548173ffffffffffffffffffffffffffffffffffffffff021916908373ffffffffffffffffffffffffffffffffffffffff16021790555060408201518160020160006101000a81548173ffffffffffffffffffffffffffffffffffffffff021916908373ffffffffffffffffffffffffffffffffffffffff160217905550606082015181600301556080820151816004019080519060200190611d3892919061413f565b509050506000600260008381526020019081526020016000206006015488019050600060026000848152602001908152602001600020600901548281611d7a57fe5b04905080600260008581526020019081526020016000206006018190555050505b8080600101915050611b3b565b6000809050600090505b6001548111611fbc578573ffffffffffffffffffffffffffffffffffffffff1660008083815260200190815260200160002060010160009054906101000a900473ffffffffffffffffffffffffffffffffffffffff1673ffffffffffffffffffffffffffffffffffffffff161415611faf57600080828152602001908152602001600020600901600081548092919060010191905055506040518060a001604052806000808481526020019081526020016000206009015481526020018773ffffffffffffffffffffffffffffffffffffffff1681526020013373ffffffffffffffffffffffffffffffffffffffff1681526020018681526020018581525060008083815260200190815260200160002060080160008060008581526020019081526020016000206009015481526020019081526020016000206000820151816000015560208201518160010160006101000a81548173ffffffffffffffffffffffffffffffffffffffff021916908373ffffffffffffffffffffffffffffffffffffffff16021790555060408201518160020160006101000a81548173ffffffffffffffffffffffffffffffffffffffff021916908373ffffffffffffffffffffffffffffffffffffffff160217905550606082015181600301556080820151816004019080519060200190611faa92919061413f565b509050505b8080600101915050611db2565b50505050505050505050565b6000809050600090505b60065481116120a657856007600083815260200190815260200160002060000154141561209957846007600083815260200190815260200160002060010190805190602001906120239291906140bf565b50836007600083815260200190815260200160002060020181905550826007600083815260200190815260200160002060040190805190602001906120699291906140bf565b50816007600083815260200190815260200160002060030160146101000a81548160ff0219169083151502179055505b8080600101915050611fd2565b505050505050565b6000809050600090505b600a54811161217a57816009600083815260200190815260200160002060000154141561216d57600260096000838152602001908152602001600020600b0160006101000a81548160ff0219169083600581111561211257fe5b0217905550336009600083815260200190815260200160002060030160006101000a81548173ffffffffffffffffffffffffffffffffffffffff021916908373ffffffffffffffffffffffffffffffffffffffff1602179055505b80806001019150506120b8565b612182614290565b6009600084815260200190815260200160002060405180610180016040529081600082015481526020016001820160009054906101000a900473ffffffffffffffffffffffffffffffffffffffff1673ffffffffffffffffffffffffffffffffffffffff1673ffffffffffffffffffffffffffffffffffffffff1681526020016002820160009054906101000a900473ffffffffffffffffffffffffffffffffffffffff1673ffffffffffffffffffffffffffffffffffffffff1673ffffffffffffffffffffffffffffffffffffffff1681526020016003820160009054906101000a900473ffffffffffffffffffffffffffffffffffffffff1673ffffffffffffffffffffffffffffffffffffffff1673ffffffffffffffffffffffffffffffffffffffff16815260200160048201548152602001600582015481526020016006820154815260200160088201548152602001600982018054600181600116156101000203166002900480601f01602080910402602001604051908101604052809291908181526020018280546001816001161561010002031660029004801561236e5780601f106123435761010080835404028352916020019161236e565b820191906000526020600020905b81548152906001019060200180831161235157829003601f168201915b50505050508152602001600a82018054600181600116156101000203166002900480601f0160208091040260200160405190810160405280929190818152602001828054600181600116156101000203166002900480156124105780601f106123e557610100808354040283529160200191612410565b820191906000526020600020905b8154815290600101906020018083116123f357829003601f168201915b50505050508152602001600b820160009054906101000a900460ff16600581111561243757fe5b600581111561244257fe5b8152602001600b820160019054906101000a900460ff161515151581525050905060008160200151905060008260400151905060008360800151905060008460a00151905060008560c00151905060008660e0015190506060876101000151905060608861012001519050600089610140015190506000809050600090505b60015481116127e9573373ffffffffffffffffffffffffffffffffffffffff1660008083815260200190815260200160002060010160009054906101000a900473ffffffffffffffffffffffffffffffffffffffff1673ffffffffffffffffffffffffffffffffffffffff1614156127dc57600080828152602001908152602001600020600701600081548092919060010191905055506040518061018001604052806000808481526020019081526020016000206007015481526020018b73ffffffffffffffffffffffffffffffffffffffff1681526020018a73ffffffffffffffffffffffffffffffffffffffff1681526020013373ffffffffffffffffffffffffffffffffffffffff16815260200189815260200188815260200187815260200186815260200185815260200184815260200183600581111561260357fe5b81526020016000151581525060008083815260200190815260200160002060060160008060008581526020019081526020016000206007015481526020019081526020016000206000820151816000015560208201518160010160006101000a81548173ffffffffffffffffffffffffffffffffffffffff021916908373ffffffffffffffffffffffffffffffffffffffff16021790555060408201518160020160006101000a81548173ffffffffffffffffffffffffffffffffffffffff021916908373ffffffffffffffffffffffffffffffffffffffff16021790555060608201518160030160006101000a81548173ffffffffffffffffffffffffffffffffffffffff021916908373ffffffffffffffffffffffffffffffffffffffff1602179055506080820151816004015560a0820151816005015560c0820151816006015560e0820151816008015561010082015181600901908051906020019061276e92919061413f565b5061012082015181600a01908051906020019061278c92919061413f565b5061014082015181600b0160006101000a81548160ff021916908360058111156127b257fe5b021790555061016082015181600b0160016101000a81548160ff0219169083151502179055509050505b80806001019150506124c1565b50505050505050505050505050565b6000809050600090505b600a5481116128cc5781600960008381526020019081526020016000206000015414156128bf57600160096000838152602001908152602001600020600b0160006101000a81548160ff0219169083600581111561285c57fe5b02179055503373ffffffffffffffffffffffffffffffffffffffff166108fc60096000848152602001908152602001600020600401549081150290604051600060405180830381858888f193505050501580156128bd573d6000803e3d6000fd5b505b8080600101915050612802565b5050565b60096020528060005260406000206000915090508060000154908060010160009054906101000a900473ffffffffffffffffffffffffffffffffffffffff16908060020160009054906101000a900473ffffffffffffffffffffffffffffffffffffffff16908060030160009054906101000a900473ffffffffffffffffffffffffffffffffffffffff1690806004015490806005015490806006015490806008015490806009018054600181600116156101000203166002900480601f016020809104026020016040519081016040528092919081815260200182805460018160011615610100020316600290048015612a0c5780601f106129e157610100808354040283529160200191612a0c565b820191906000526020600020905b8154815290600101906020018083116129ef57829003601f168201915b50505050509080600a018054600181600116156101000203166002900480601f016020809104026020016040519081016040528092919081815260200182805460018160011615610100020316600290048015612aaa5780601f10612a7f57610100808354040283529160200191612aaa565b820191906000526020600020905b815481529060010190602001808311612a8d57829003601f168201915b50505050509080600b0160009054906101000a900460ff169080600b0160019054906101000a900460ff1690508c565b60045481565b6007602052806000526040600020600091509050806000015490806001018054600181600116156101000203166002900480601f016020809104026020016040519081016040528092919081815260200182805460018160011615610100020316600290048015612b925780601f10612b6757610100808354040283529160200191612b92565b820191906000526020600020905b815481529060010190602001808311612b7557829003601f168201915b5050505050908060020154908060030160009054906101000a900473ffffffffffffffffffffffffffffffffffffffff16908060030160149054906101000a900460ff1690806004018054600181600116156101000203166002900480601f016020809104026020016040519081016040528092919081815260200182805460018160011615610100020316600290048015612c6f5780601f10612c4457610100808354040283529160200191612c6f565b820191906000526020600020905b815481529060010190602001808311612c5257829003601f168201915b5050505050908060050154905087565b612c87614340565b600b60008981526020019081526020016000206040518060c0016040529081600082015481526020016001820160009054906101000a900473ffffffffffffffffffffffffffffffffffffffff1673ffffffffffffffffffffffffffffffffffffffff1673ffffffffffffffffffffffffffffffffffffffff168152602001600282018054600181600116156101000203166002900480601f016020809104026020016040519081016040528092919081815260200182805460018160011615610100020316600290048015612d9e5780601f10612d7357610100808354040283529160200191612d9e565b820191906000526020600020905b815481529060010190602001808311612d8157829003601f168201915b50505050508152602001600382018054600181600116156101000203166002900480601f016020809104026020016040519081016040528092919081815260200182805460018160011615610100020316600290048015612e405780601f10612e1557610100808354040283529160200191612e40565b820191906000526020600020905b815481529060010190602001808311612e2357829003601f168201915b50505050508152602001600482018054600181600116156101000203166002900480601f016020809104026020016040519081016040528092919081815260200182805460018160011615610100020316600290048015612ee25780601f10612eb757610100808354040283529160200191612ee2565b820191906000526020600020905b815481529060010190602001808311612ec557829003601f168201915b505050505081526020016006820154815250509050600a600081548092919060010191905055506000600860006101000a81548160ff02191690836005811115612f2857fe5b0217905550604051806101800160405280600a548152602001826020015173ffffffffffffffffffffffffffffffffffffffff1681526020018873ffffffffffffffffffffffffffffffffffffffff168152602001600073ffffffffffffffffffffffffffffffffffffffff1681526020018781526020018681526020018581526020018260a001518152602001848152602001838152602001600860009054906101000a900460ff166005811115612fdd57fe5b81526020016000151581525060096000600a5481526020019081526020016000206000820151816000015560208201518160010160006101000a81548173ffffffffffffffffffffffffffffffffffffffff021916908373ffffffffffffffffffffffffffffffffffffffff16021790555060408201518160020160006101000a81548173ffffffffffffffffffffffffffffffffffffffff021916908373ffffffffffffffffffffffffffffffffffffffff16021790555060608201518160030160006101000a81548173ffffffffffffffffffffffffffffffffffffffff021916908373ffffffffffffffffffffffffffffffffffffffff1602179055506080820151816004015560a0820151816005015560c0820151816006015560e0820151816008015561010082015181600901908051906020019061312292919061413f565b5061012082015181600a01908051906020019061314092919061413f565b5061014082015181600b0160006101000a81548160ff0219169083600581111561316657fe5b021790555061016082015181600b0160016101000a81548160ff0219169083151502179055509050506000600190505b8160a001518111613289576000806131ae8b846136a4565b9150915060405180606001604052808481526020018381526020018281525060096000600a54815260200190815260200160002060070160008581526020019081526020016000206000820151816000015560208201518160010155604082015181600201559050506000600190505b600654811161327957826007600083815260200190815260200160002060000154141561326c5760076000828152602001908152602001600020600501600081548092919060010191905055505b808060010191505061321e565b5050508080600101915050613196565b508334101561329757600080fd5b6132a088613f64565b428773ffffffffffffffffffffffffffffffffffffffff16826020015173ffffffffffffffffffffffffffffffffffffffff167f394e8b77a9fee5df170e8b5e75bb342b1d7422e642c95e30c87919a4d1c87302600a5488604051613306929190615181565b60405180910390a45050505050505050565b60016000815480929190600101919050555060405180610100016040528060015481526020018573ffffffffffffffffffffffffffffffffffffffff16815260200184815260200183815260200160058152602001821515815260200160008152602001600081525060008060015481526020019081526020016000206000820151816000015560208201518160010160006101000a81548173ffffffffffffffffffffffffffffffffffffffff021916908373ffffffffffffffffffffffffffffffffffffffff160217905550604082015181600201908051906020019061340292919061413f565b50606082015181600301908051906020019061341f92919061413f565b506080820151816004015560a08201518160050160006101000a81548160ff02191690831515021790555060c0820151816007015560e0820151816009015590505050505050565b60015481565b600b6020528060005260406000206000915090508060000154908060010160009054906101000a900473ffffffffffffffffffffffffffffffffffffffff1690806002018054600181600116156101000203166002900480601f0160208091040260200160405190810160405280929190818152602001828054600181600116156101000203166002900480156135455780601f1061351a57610100808354040283529160200191613545565b820191906000526020600020905b81548152906001019060200180831161352857829003601f168201915b505050505090806003018054600181600116156101000203166002900480601f0160208091040260200160405190810160405280929190818152602001828054600181600116156101000203166002900480156135e35780601f106135b8576101008083540402835291602001916135e3565b820191906000526020600020905b8154815290600101906020018083116135c657829003601f168201915b505050505090806004018054600181600116156101000203166002900480601f0160208091040260200160405190810160405280929190818152602001828054600181600116156101000203166002900480156136815780601f1061365657610100808354040283529160200191613681565b820191906000526020600020905b81548152906001019060200180831161366457829003601f168201915b5050505050908060060154905086565b600860009054906101000a900460ff1681565b6000806000600b60008681526020019081526020016000209050806005016000858152602001908152602001600020600101548160050160008681526020019081526020016000206002015492509250509250929050565b600084511161370a57600080fd5b6000831161371757600080fd5b6006600081548092919060010191905055506040518060e0016040528060065481526020018581526020018481526020013373ffffffffffffffffffffffffffffffffffffffff168152602001831515815260200182815260200160008152506007600060065481526020019081526020016000206000820151816000015560208201518160010190805190602001906137b292919061413f565b506040820151816002015560608201518160030160006101000a81548173ffffffffffffffffffffffffffffffffffffffff021916908373ffffffffffffffffffffffffffffffffffffffff16021790555060808201518160030160146101000a81548160ff02191690831515021790555060a082015181600401908051906020019061384092919061413f565b5060c082015181600501559050503373ffffffffffffffffffffffffffffffffffffffff16426006547f54e6025534da695a0a6151e44a9eb387f138d3a38669904f90057d6a197277e88787878760405161389e9493929190614d62565b60405180910390a450505050565b60036000815480929190600101919050555060405180610120016040528060035481526020018773ffffffffffffffffffffffffffffffffffffffff16815260200186815260200185815260200184815260200183815260200160008152602001821515815260200160008152506002600060035481526020019081526020016000206000820151816000015560208201518160010160006101000a81548173ffffffffffffffffffffffffffffffffffffffff021916908373ffffffffffffffffffffffffffffffffffffffff160217905550604082015181600201908051906020019061399c92919061413f565b5060608201518160030190805190602001906139b992919061413f565b5060808201518160040190805190602001906139d692919061413f565b5060a08201518160050190805190602001906139f392919061413f565b5060c0820151816006015560e08201518160070160006101000a81548160ff0219169083151502179055506101008201518160090155905050505050505050565b6000809050600090505b600a548111613b08578160096000838152602001908152602001600020600001541415613afb57600460096000838152602001908152602001600020600b0160006101000a81548160ff02191690836005811115613a9857fe5b02179055503373ffffffffffffffffffffffffffffffffffffffff166108fc60096000848152602001908152602001600020600501549081150290604051600060405180830381858888f19350505050158015613af9573d6000803e3d6000fd5b505b8080600101915050613a3e565b5050565b6005602052806000526040600020600091509050806000015490806001018054600181600116156101000203166002900480601f016020809104026020016040519081016040528092919081815260200182805460018160011615610100020316600290048015613bbe5780601f10613b9357610100808354040283529160200191613bbe565b820191906000526020600020905b815481529060010190602001808311613ba157829003601f168201915b5050505050908060020154908060030160009054906101000a900473ffffffffffffffffffffffffffffffffffffffff16908060030160149054906101000a900460ff1690806004018054600181600116156101000203166002900480601f016020809104026020016040519081016040528092919081815260200182805460018160011615610100020316600290048015613c9b5780601f10613c7057610100808354040283529160200191613c9b565b820191906000526020600020905b815481529060010190602001808311613c7e57829003601f168201915b5050505050905086565b60035481565b6000845111613cb957600080fd5b60008311613cc657600080fd5b6004600081548092919060010191905055506040518060c0016040528060045481526020018581526020018481526020013373ffffffffffffffffffffffffffffffffffffffff168152602001831515815260200182815250600560006004548152602001908152602001600020600082015181600001556020820151816001019080519060200190613d5a92919061413f565b506040820151816002015560608201518160030160006101000a81548173ffffffffffffffffffffffffffffffffffffffff021916908373ffffffffffffffffffffffffffffffffffffffff16021790555060808201518160030160146101000a81548160ff02191690831515021790555060a0820151816004019080519060200190613de892919061413f565b509050503373ffffffffffffffffffffffffffffffffffffffff16426004547f19b39c67e4eb69bc0f14af84a2a2c7edce21b590ccf1ffe0497c36c15bb1e09987878787604051613e3c9493929190614d62565b60405180910390a450505050565b6006600081548092919060019003919050555060076000828152602001908152602001600020600080820160009055600182016000613e89919061438c565b60028201600090556003820160006101000a81549073ffffffffffffffffffffffffffffffffffffffff02191690556003820160146101000a81549060ff0219169055600482016000613edc919061438c565b6005820160009055505050565b6000809050600090505b600a548111613f60578160096000838152602001908152602001600020600001541415613f5357600360096000838152602001908152602001600020600b0160006101000a81548160ff02191690836005811115613f4d57fe5b02179055505b8080600101915050613ef3565b5050565b6000600b600083815260200190815260200160002090506000816006015490506000600190505b818111613fcf578260050160008281526020019081526020016000206000808201600090556001820160009055600282016000905550508080600101915050613f8b565b5060008260060181905550505050565b6000809050600090505b60035481116140bc573373ffffffffffffffffffffffffffffffffffffffff166002600083815260200190815260200160002060010160009054906101000a900473ffffffffffffffffffffffffffffffffffffffff1673ffffffffffffffffffffffffffffffffffffffff1614156140af576002600082815260200190815260200160002060070160009054906101000a900460ff16156002600083815260200190815260200160002060070160006101000a81548160ff0219169083151502179055505b8080600101915050613fe9565b50565b828054600181600116156101000203166002900490600052602060002090601f016020900481019282601f1061410057805160ff191683800117855561412e565b8280016001018555821561412e579182015b8281111561412d578251825591602001919060010190614112565b5b50905061413b91906143d4565b5090565b828054600181600116156101000203166002900490600052602060002090601f016020900481019282601f1061418057805160ff19168380011785556141ae565b828001600101855582156141ae579182015b828111156141ad578251825591602001919060010190614192565b5b5090506141bb91906143d4565b5090565b6040518060a0016040528060008152602001600073ffffffffffffffffffffffffffffffffffffffff168152602001600073ffffffffffffffffffffffffffffffffffffffff16815260200160008152602001606081525090565b6040518060e00160405280600081526020016060815260200160008152602001600073ffffffffffffffffffffffffffffffffffffffff16815260200160001515815260200160608152602001600081525090565b60405180606001604052806000815260200160008152602001600081525090565b60405180610180016040528060008152602001600073ffffffffffffffffffffffffffffffffffffffff168152602001600073ffffffffffffffffffffffffffffffffffffffff168152602001600073ffffffffffffffffffffffffffffffffffffffff1681526020016000815260200160008152602001600081526020016000815260200160608152602001606081526020016000600581111561433157fe5b81526020016000151581525090565b6040518060c0016040528060008152602001600073ffffffffffffffffffffffffffffffffffffffff168152602001606081526020016060815260200160608152602001600081525090565b50805460018160011615610100020316600290046000825580601f106143b257506143d1565b601f0160209004906000526020600020908101906143d091906143d4565b5b50565b6143f691905b808211156143f25760008160009055506001016143da565b5090565b90565b60008135905061440881615324565b92915050565b60008135905061441d8161533b565b92915050565b60008135905061443281615352565b92915050565b600082601f83011261444957600080fd5b813561445c614457826151d7565b6151aa565b9150808252602083016020830185838301111561447857600080fd5b6144838382846152c4565b50505092915050565b60008135905061449b81615369565b92915050565b600080600080608085870312156144b757600080fd5b60006144c5878288016143f9565b945050602085013567ffffffffffffffff8111156144e257600080fd5b6144ee87828801614438565b935050604085013567ffffffffffffffff81111561450b57600080fd5b61451787828801614438565b925050606061452887828801614423565b91505092959194509250565b6000806000806080858703121561454a57600080fd5b6000614558878288016143f9565b945050602085013567ffffffffffffffff81111561457557600080fd5b61458187828801614438565b935050604085013567ffffffffffffffff81111561459e57600080fd5b6145aa87828801614438565b925050606085013567ffffffffffffffff8111156145c757600080fd5b6145d387828801614438565b91505092959194509250565b60008060008060008060c087890312156145f857600080fd5b600061460689828a016143f9565b965050602087013567ffffffffffffffff81111561462357600080fd5b61462f89828a01614438565b955050604087013567ffffffffffffffff81111561464c57600080fd5b61465889828a01614438565b945050606087013567ffffffffffffffff81111561467557600080fd5b61468189828a01614438565b935050608087013567ffffffffffffffff81111561469e57600080fd5b6146aa89828a01614438565b92505060a06146bb89828a01614423565b9150509295509295509295565b600080604083850312156146db57600080fd5b600083013567ffffffffffffffff8111156146f557600080fd5b61470185828601614438565b925050602083013567ffffffffffffffff81111561471e57600080fd5b61472a85828601614438565b9150509250929050565b6000806000806080858703121561474a57600080fd5b600085013567ffffffffffffffff81111561476457600080fd5b61477087828801614438565b94505060206147818782880161448c565b935050604061479287828801614423565b925050606085013567ffffffffffffffff8111156147af57600080fd5b6147bb87828801614438565b91505092959194509250565b6000602082840312156147d957600080fd5b60006147e78482850161448c565b91505092915050565b6000806040838503121561480357600080fd5b60006148118582860161448c565b92505060206148228582860161440e565b9150509250929050565b600080600080600080600060e0888a03121561484757600080fd5b60006148558a828b0161448c565b97505060206148668a828b0161440e565b96505060406148778a828b0161448c565b95505060606148888a828b0161448c565b94505060806148998a828b0161448c565b93505060a088013567ffffffffffffffff8111156148b657600080fd5b6148c28a828b01614438565b92505060c088013567ffffffffffffffff8111156148df57600080fd5b6148eb8a828b01614438565b91505092959891949750929550565b600080600080600080600060e0888a03121561491557600080fd5b60006149238a828b0161448c565b97505060206149348a828b016143f9565b96505060406149458a828b0161448c565b955050606088013567ffffffffffffffff81111561496257600080fd5b61496e8a828b01614438565b945050608061497f8a828b016143f9565b93505060a06149908a828b0161448c565b92505060c088013567ffffffffffffffff8111156149ad57600080fd5b6149b98a828b01614438565b91505092959891949750929550565b600080600080600060a086880312156149e057600080fd5b60006149ee8882890161448c565b955050602086013567ffffffffffffffff811115614a0b57600080fd5b614a1788828901614438565b9450506040614a288882890161448c565b935050606086013567ffffffffffffffff811115614a4557600080fd5b614a5188828901614438565b9250506080614a6288828901614423565b9150509295509295909350565b60008060408385031215614a8257600080fd5b6000614a908582860161448c565b9250506020614aa18582860161448c565b9150509250929050565b614ab48161524d565b82525050565b614ac38161524d565b82525050565b614ad28161523b565b82525050565b614ae18161523b565b82525050565b614af08161525f565b82525050565b614aff8161525f565b82525050565b614b0e816152b2565b82525050565b614b1d8161527e565b82525050565b6000614b2e8261520e565b614b38818561522a565b9350614b488185602086016152d3565b614b5181615306565b840191505092915050565b6000614b6782615203565b614b718185615219565b9350614b818185602086016152d3565b614b8a81615306565b840191505092915050565b6000614ba082615203565b614baa818561522a565b9350614bba8185602086016152d3565b614bc381615306565b840191505092915050565b606082016000820151614be46000850182614d29565b506020820151614bf76020850182614d29565b506040820151614c0a6040850182614d29565b50505050565b600060a083016000830151614c286000860182614d29565b506020830151614c3b6020860182614ac9565b506040830151614c4e6040860182614ac9565b506060830151614c616060860182614d29565b5060808301518482036080860152614c798282614b5c565b9150508091505092915050565b600060e083016000830151614c9e6000860182614d29565b5060208301518482036020860152614cb68282614b5c565b9150506040830151614ccb6040860182614d29565b506060830151614cde6060860182614aab565b506080830151614cf16080860182614ae7565b5060a083015184820360a0860152614d098282614b5c565b91505060c0830151614d1e60c0860182614d29565b508091505092915050565b614d32816152a8565b82525050565b614d41816152a8565b82525050565b6000602082019050614d5c6000830184614b05565b92915050565b60006080820190508181036000830152614d7c8187614b23565b9050614d8b6020830186614d38565b614d986040830185614af6565b8181036060830152614daa8184614b23565b905095945050505050565b60006020820190508181036000830152614dcf8184614c10565b905092915050565b60006080820190508181036000830152614df18185614c86565b9050614e006020830184614bce565b9392505050565b6000602082019050614e1c6000830184614d38565b92915050565b600061018082019050614e38600083018f614d38565b614e45602083018e614ad8565b614e52604083018d614ad8565b614e5f606083018c614ad8565b614e6c608083018b614d38565b614e7960a083018a614d38565b614e8660c0830189614d38565b614e9360e0830188614d38565b818103610100830152614ea68187614b95565b9050818103610120830152614ebb8186614b95565b9050614ecb610140830185614b05565b614ed9610160830184614af6565b9d9c50505050505050505050505050565b600061010082019050614f00600083018b614d38565b614f0d602083018a614ad8565b8181036040830152614f1f8189614b95565b90508181036060830152614f338188614b95565b9050614f426080830187614b14565b614f4f60a0830186614af6565b614f5c60c0830185614d38565b614f6960e0830184614d38565b9998505050505050505050565b600061012082019050614f8c600083018c614d38565b614f99602083018b614ad8565b8181036040830152614fab818a614b95565b90508181036060830152614fbf8189614b95565b90508181036080830152614fd38188614b95565b905081810360a0830152614fe78187614b95565b9050614ff660c0830186614d38565b61500360e0830185614af6565b615011610100830184614d38565b9a9950505050505050505050565b600060c0820190506150346000830189614d38565b6150416020830188614ad8565b81810360408301526150538187614b95565b905081810360608301526150678186614b95565b9050818103608083015261507b8185614b95565b905061508a60a0830184614d38565b979650505050505050565b600060c0820190506150aa6000830189614d38565b81810360208301526150bc8188614b95565b90506150cb6040830187614d38565b6150d86060830186614aba565b6150e56080830185614af6565b81810360a08301526150f78184614b95565b9050979650505050505050565b600060e082019050615119600083018a614d38565b818103602083015261512b8189614b95565b905061513a6040830188614d38565b6151476060830187614aba565b6151546080830186614af6565b81810360a08301526151668185614b95565b905061517560c0830184614d38565b98975050505050505050565b60006040820190506151966000830185614d38565b6151a36020830184614d38565b9392505050565b6000604051905081810181811067ffffffffffffffff821117156151cd57600080fd5b8060405250919050565b600067ffffffffffffffff8211156151ee57600080fd5b601f19601f8301169050602081019050919050565b600081519050919050565b600081519050919050565b600082825260208201905092915050565b600082825260208201905092915050565b600061524682615288565b9050919050565b600061525882615288565b9050919050565b60008115159050919050565b600081905061527982615317565b919050565b6000819050919050565b600073ffffffffffffffffffffffffffffffffffffffff82169050919050565b6000819050919050565b60006152bd8261526b565b9050919050565b82818337600083830152505050565b60005b838110156152f15780820151818401526020810190506152d6565b83811115615300576000848401525b50505050565b6000601f19601f8301169050919050565b6006811061532157fe5b50565b61532d8161523b565b811461533857600080fd5b50565b6153448161524d565b811461534f57600080fd5b50565b61535b8161525f565b811461536657600080fd5b50565b615372816152a8565b811461537d57600080fd5b5056fea365627a7a72315820f936e27dfd215ebd3b584c89ecc95bbbc1c1f2ca015fb9baab4b023579a22c876c6578706572696d656e74616cf564736f6c6343000510004032204164616d2052642c202330312d303220466f6f642043656e7472652c2053696e6761706f7265203238393837364d617877656c6c20466f6f642043656e747265202330312d31302f31312c2031204b61646179616e616c6c7572205374726565742c2053696e6761706f7265203036393138345475657364617920e280932053756e6461793a203130616d20e2809320373a3330706d4d6f6e646179202d2054687572736461793a2037616d2d35706d3b205361747572646179202d2053756e6461792037616d2d33706d353020416e67204d6f204b696f2041766520322c2053696e6761706f726520363339373938",
  "source": "// SPDX-License-Identifier: Blockchain\r\n\r\npragma solidity ^0.5.4;\r\n\r\npragma experimental ABIEncoderV2;\r\n\r\ncontract Marketplace {\r\n    //constructor\r\n    constructor() public {\r\n        addHawker(\r\n            0x73c005D4B234C63F416F6e1038C011D55edDBF1e,\r\n            \"Selera Rasa Nasi Lemak\",\r\n            \"2 Adam Rd, #01-02 Food Centre, Singapore 289876\",\r\n            \"Monday - Thursday: 7am-5pm; Saturday - Sunday 7am-3pm\",\r\n            \"98434509\",\r\n            false\r\n        );\r\n        addHawker(\r\n            0x87ECEE1454A7b32253A9020F6ae1FF25e9CE35B5,\r\n            \"Tian Tian Hainanese Chicken Rice\",\r\n            \"Maxwell Food Centre #01-10/11, 1 Kadayanallur Street, Singapore 069184\",\r\n            \"Tuesday  Sunday: 10am  7:30pm\",\r\n            \"96914852\",\r\n            false\r\n        );\r\n        addCustomer(\r\n            0xC9342f12d49ca9e40d600eBF17266DcCc88a0639,\r\n            \"Casuarina\",\r\n            \"50 Nanyang Ave, Singapore 639798\",\r\n            \"98765432\"\r\n        );\r\n        addCustomer(\r\n            0x7C2eA58a210F8e7c80fdeB6788C1D5Fc4a3E73ba,\r\n            \"Patrick\",\r\n            \"50 Ang Mo Kio Ave 2, Singapore 639798\",\r\n            \"91234567\"\r\n        );\r\n        addFoodDelivery(\r\n            0x66f8f66996aaB36b041b1cAdA9f20864a0C42698,\r\n            \"Leo Tan\",\r\n            \"90123456\",\r\n            false\r\n        );\r\n    }\r\n\r\n    event LogRefund(\r\n        address indexed receiver,\r\n        uint256 amount,\r\n        address indexed owner\r\n    );\r\n\r\n    //FOOD DELIVERY\r\n    struct FoodDelivery {\r\n        uint256 id;\r\n        address owner;\r\n        string name;\r\n        string phone;\r\n        int256 rating;\r\n        bool available;\r\n        mapping(uint256 => Order) ordersAccepted;\r\n        uint256 ordersAcceptedCount;\r\n        mapping(uint256 => Feedback) feedbacks;\r\n        uint256 feedbackCount;\r\n    }\r\n\r\n    // Read/write Food Delivery\r\n    mapping(uint256 => FoodDelivery) public foodDeliveries;\r\n    //Store Food Delivery Count\r\n    uint256 public foodDeliveriesCount;\r\n\r\n    //add new food delivery\r\n    function addFoodDelivery(\r\n        address _owner,\r\n        string memory _name,\r\n        string memory _phone,\r\n        bool _available\r\n    ) public {\r\n        foodDeliveriesCount++;\r\n        foodDeliveries[foodDeliveriesCount] = FoodDelivery(\r\n            foodDeliveriesCount,\r\n            _owner,\r\n            _name,\r\n            _phone,\r\n            5,\r\n            _available,\r\n            0,\r\n            0\r\n        );\r\n    }\r\n\r\n    // struct OrderHistory {\r\n    //     address\r\n    // }\r\n\r\n    //HAWKER\r\n    struct Hawker {\r\n        uint256 id;\r\n        address owner;\r\n        string name;\r\n        string addressLocation;\r\n        string openingHours;\r\n        string phone;\r\n        uint256 avgRating;\r\n        bool open;\r\n        mapping(uint256 => Feedback) feedbacks;\r\n        uint256 feedbackCount;\r\n    }\r\n\r\n    // Read/write Hawkers\r\n    mapping(uint256 => Hawker) public hawkers;\r\n    //Store Hawkers Count\r\n    uint256 public hawkersCount;\r\n\r\n    //FEEDBACK\r\n    struct Feedback {\r\n        uint256 id;\r\n        address seller;\r\n        address customer;\r\n        uint256 rate;\r\n        string comment;\r\n    }\r\n\r\n    function addHawker(\r\n        address _owner,\r\n        string memory _name,\r\n        string memory _addressLocation,\r\n        string memory _openingHours,\r\n        string memory _phone,\r\n        bool _open\r\n    ) public {\r\n        hawkersCount++;\r\n        hawkers[hawkersCount] = Hawker(\r\n            hawkersCount,\r\n            _owner,\r\n            _name,\r\n            _addressLocation,\r\n            _openingHours,\r\n            _phone,\r\n            0,\r\n            _open,\r\n            0\r\n        );\r\n    }\r\n\r\n    function editHawkerProfile(string memory _phone, string memory _OH) public {\r\n        uint256 i = 0;\r\n        for (i = 0; i <= hawkersCount; i++) {\r\n            if (hawkers[i].owner == msg.sender) {\r\n                hawkers[i].phone = _phone;\r\n                hawkers[i].openingHours = _OH;\r\n            }\r\n        }\r\n    }\r\n\r\n    //change shop status\r\n    function boolOpen() public {\r\n        uint256 i = 0;\r\n        for (i = 0; i <= hawkersCount; i++) {\r\n            if (hawkers[i].owner == msg.sender) {\r\n                hawkers[i].open = !(hawkers[i].open);\r\n            }\r\n        }\r\n    }\r\n\r\n    //change food delivery status\r\n    function boolWork() public {\r\n        uint256 i = 0;\r\n        for (i = 0; i <= foodDeliveriesCount; i++) {\r\n            if (foodDeliveries[i].owner == msg.sender) {\r\n                foodDeliveries[i].available = !(foodDeliveries[i].available);\r\n            }\r\n        }\r\n    }\r\n\r\n    //SUPPLIER\r\n    uint256 public suppProdCount = 0;\r\n    mapping(uint256 => SuppProduct) public suppProducts;\r\n    struct SuppProduct {\r\n        uint256 id;\r\n        string name;\r\n        uint256 price;\r\n        address payable owner;\r\n        bool published;\r\n        string imageHash;\r\n    }\r\n    struct SuppProfile {\r\n        uint256 id;\r\n        string name;\r\n        string category;\r\n        string location;\r\n        string deliveryHours;\r\n        address payable owner;\r\n        string reviews;\r\n        uint256 rating;\r\n    }\r\n\r\n    //Restaurants products\r\n    uint256 public restProdCount = 0;\r\n    mapping(uint256 => RestProduct) public restProducts;\r\n    struct RestProduct {\r\n        uint256 id;\r\n        string name;\r\n        uint256 price;\r\n        address payable owner;\r\n        bool published;\r\n        string imageHash;\r\n        uint256 soldCount;\r\n    }\r\n\r\n    struct RestProfile {\r\n        uint256 id;\r\n        string name;\r\n        string category;\r\n        string location;\r\n        string deliveryHours;\r\n        address payable owner;\r\n        string reviews;\r\n        uint256 rating;\r\n    }\r\n\r\n    event RestProdCreated(\r\n        uint256 indexed id,\r\n        uint256 indexed date,\r\n        string name,\r\n        uint256 price,\r\n        address payable indexed owner,\r\n        bool purchased,\r\n        string imageHash\r\n    );\r\n\r\n    event SupplierProdCreated(\r\n        uint256 indexed id,\r\n        uint256 indexed date,\r\n        string name,\r\n        uint256 price,\r\n        address payable indexed owner,\r\n        bool purchased,\r\n        string imageHash\r\n    );\r\n\r\n    function createSuppProduct(\r\n        string memory _name,\r\n        uint256 _price,\r\n        bool _published,\r\n        string memory _imageHash\r\n    ) public {\r\n        // Require a valid name\r\n        require(bytes(_name).length > 0);\r\n        // Require a valid price\r\n        require(_price > 0);\r\n        // Increment product count\r\n        suppProdCount++;\r\n        // Create the product --- msg.sender is the one who accessed the function\r\n        suppProducts[suppProdCount] = SuppProduct(\r\n            suppProdCount,\r\n            _name,\r\n            _price,\r\n            msg.sender,\r\n            _published,\r\n            _imageHash\r\n        );\r\n        //trigger an event\r\n        emit SupplierProdCreated(\r\n            suppProdCount,\r\n            now,\r\n            _name,\r\n            _price,\r\n            msg.sender,\r\n            _published,\r\n            _imageHash\r\n        );\r\n    }\r\n\r\n    function createRestProduct(\r\n        string memory _name,\r\n        uint256 _price,\r\n        bool _published,\r\n        string memory _imageHash\r\n    ) public {\r\n        // Require a valid name\r\n        require(bytes(_name).length > 0);\r\n        // Require a valid price\r\n        require(_price > 0);\r\n        // Increment product count\r\n        restProdCount++;\r\n        // Create the product --- msg.sender is the one who accessed the function\r\n        restProducts[restProdCount] = RestProduct(\r\n            restProdCount,\r\n            _name,\r\n            _price,\r\n            msg.sender,\r\n            _published,\r\n            _imageHash,\r\n            0\r\n        );\r\n        // Trigger an event\r\n        emit RestProdCreated(\r\n            restProdCount,\r\n            now,\r\n            _name,\r\n            _price,\r\n            msg.sender,\r\n            _published,\r\n            _imageHash\r\n        );\r\n    }\r\n\r\n    //ORDERS\r\n    enum Status {\r\n        OrderPlaced,\r\n        OrderConfirm,\r\n        DriverConfirm,\r\n        OrderCollected,\r\n        OrderCompleted,\r\n        OrderCancelled\r\n    }\r\n    Status public state;\r\n\r\n    struct Order {\r\n        uint256 id;\r\n        address owner;\r\n        address seller;\r\n        address driver;\r\n        uint256 hawkerPayment;\r\n        uint256 riderPayment;\r\n        uint256 totalPrice;\r\n        mapping(uint256 => CartItem) purchasedItemId;\r\n        uint256 purchasedItemCount;\r\n        string date;\r\n        string time;\r\n        Status state;\r\n        bool rated;\r\n    }\r\n\r\n    mapping(uint256 => Order) public orders;\r\n    uint256 public ordersCount;\r\n\r\n    struct CartItem {\r\n        uint256 id;\r\n        uint256 productId;\r\n        uint256 productQty;\r\n    }\r\n\r\n    //CUSTOMER\r\n    struct Customer {\r\n        uint256 id;\r\n        address owner;\r\n        string name;\r\n        string addressLocation;\r\n        string phone;\r\n        mapping(uint256 => CartItem) cartItems;\r\n        uint256 itemCount;\r\n    }\r\n\r\n    mapping(uint256 => Customer) public customers;\r\n    uint256 public customersCount;\r\n\r\n    function addCustomer(\r\n        address _owner,\r\n        string memory _name,\r\n        string memory _addressLocation,\r\n        string memory _phone\r\n    ) public {\r\n        customersCount++;\r\n        customers[customersCount] = Customer(\r\n            customersCount,\r\n            _owner,\r\n            _name,\r\n            _addressLocation,\r\n            _phone,\r\n            0\r\n        );\r\n    }\r\n\r\n    function editCustProfile(string memory _phone, string memory _address)\r\n        public\r\n    {\r\n        uint256 i = 0;\r\n        for (i = 0; i <= customersCount; i++) {\r\n            if (customers[i].owner == msg.sender) {\r\n                customers[i].phone = _phone;\r\n                customers[i].addressLocation = _address;\r\n            }\r\n        }\r\n    }\r\n\r\n    function editProduct(\r\n        uint256 _productId,\r\n        string memory _name,\r\n        uint256 _price,\r\n        string memory _imageHash,\r\n        bool _published\r\n    ) public {\r\n        uint256 i = 0;\r\n        for (i = 0; i <= restProdCount; i++) {\r\n            if (restProducts[i].id == _productId) {\r\n                restProducts[i].name = _name;\r\n                restProducts[i].price = _price;\r\n                restProducts[i].imageHash = _imageHash;\r\n                restProducts[i].published = _published;\r\n            }\r\n        }\r\n    }\r\n\r\n    function addToCart(uint256 _id, uint256 _prodQty) public {\r\n        uint256 i = 0;\r\n        for (i = 0; i <= customersCount; i++) {\r\n            if (customers[i].owner == msg.sender) {\r\n                (customers[i].itemCount)++;\r\n                customers[i].cartItems[customers[i].itemCount] = CartItem(\r\n                    customers[i].itemCount,\r\n                    _id,\r\n                    _prodQty\r\n                );\r\n            }\r\n        }\r\n    }\r\n\r\n    function removeProdCart(uint256 custId, uint256 cartId) public {\r\n        Customer storage cust = customers[custId];\r\n        (cust.itemCount)--;\r\n        delete cust.cartItems[cartId];\r\n    }\r\n\r\n    function deleteProduct(uint256 productId) public {\r\n        //RestProduct storage product = restProducts[productId];\r\n        restProdCount--;\r\n        delete restProducts[productId];\r\n    }\r\n\r\n    function removeAllProdCart(uint256 custId) public {\r\n        Customer storage cust = customers[custId];\r\n        uint256 _itemCount = cust.itemCount;\r\n        for (uint256 i = 1; i <= _itemCount; i++) {\r\n            delete cust.cartItems[i];\r\n        }\r\n        (cust.itemCount) = 0;\r\n    }\r\n\r\n    function getCartProduct(uint256 custId, uint256 cartId)\r\n        public\r\n        returns (uint256, uint256)\r\n    {\r\n        Customer storage cust = customers[custId];\r\n        return (\r\n            cust.cartItems[cartId].productId,\r\n            cust.cartItems[cartId].productQty\r\n        );\r\n    }\r\n\r\n    function getOrderProduct(uint256 orderId, uint256 cartId)\r\n        public\r\n        returns (RestProduct memory, CartItem memory)\r\n    {\r\n        Order storage ord = orders[orderId];\r\n        uint256 prodId = ord.purchasedItemId[cartId].productId;\r\n        // uint256 prodQty = ord.purchasedItemId[cartId].qty;\r\n        RestProduct memory _product = restProducts[prodId];\r\n        CartItem memory _cart = ord.purchasedItemId[cartId];\r\n        return (_product, _cart);\r\n    }\r\n\r\n    function getHawkerFeedback(uint256 hawkerId, uint256 feedbackCount)\r\n        public\r\n        returns (Feedback memory)\r\n    {\r\n        Hawker storage hawker = hawkers[hawkerId];\r\n        Feedback memory _feedback = hawker.feedbacks[feedbackCount];\r\n        return (_feedback);\r\n    }\r\n\r\n    function getFdFeedback(uint256 fdId, uint256 feedbackCount)\r\n        public\r\n        returns (Feedback memory)\r\n    {\r\n        FoodDelivery storage fd = foodDeliveries[fdId];\r\n        Feedback memory _feedback = fd.feedbacks[feedbackCount];\r\n        return (_feedback);\r\n    }\r\n\r\n    function setRating(\r\n        uint256 _orderId,\r\n        address _hawker,\r\n        uint256 _hawkerRate,\r\n        string memory _hawkerComment,\r\n        address _foodDelivery,\r\n        uint256 _fdRate,\r\n        string memory _fdComment\r\n    ) public {\r\n        //set order rated boolean to true\r\n        uint256 j = 0;\r\n        for (j = 0; j <= ordersCount; j++) {\r\n            if (orders[j].id == _orderId) {\r\n                orders[j].rated = true;\r\n            }\r\n        }\r\n\r\n        //set hawker feedback\r\n        uint256 i = 0;\r\n        for (i = 0; i <= hawkersCount; i++) {\r\n            if (hawkers[i].owner == _hawker) {\r\n                (hawkers[i].feedbackCount)++;\r\n                hawkers[i].feedbacks[hawkers[i].feedbackCount] = Feedback(\r\n                    hawkers[i].feedbackCount,\r\n                    _hawker,\r\n                    msg.sender,\r\n                    _hawkerRate,\r\n                    _hawkerComment\r\n                );\r\n                uint256 total = _hawkerRate + hawkers[i].avgRating;\r\n                uint256 avg = total / (hawkers[i].feedbackCount);\r\n                hawkers[i].avgRating = avg;\r\n            }\r\n        }\r\n\r\n        //set fd feedback\r\n        uint256 k = 0;\r\n        for (k = 0; k <= foodDeliveriesCount; k++) {\r\n            if (foodDeliveries[k].owner == _foodDelivery) {\r\n                (foodDeliveries[k].feedbackCount)++;\r\n                foodDeliveries[k].feedbacks[\r\n                    foodDeliveries[k].feedbackCount\r\n                ] = Feedback(\r\n                    foodDeliveries[k].feedbackCount,\r\n                    _foodDelivery,\r\n                    msg.sender,\r\n                    _fdRate,\r\n                    _fdComment\r\n                );\r\n            }\r\n        }\r\n    }\r\n\r\n    function cancelOrder(uint256 _orderId, address payable _customer)\r\n        public\r\n        payable\r\n    {\r\n        uint256 i = 0;\r\n        for (i = 0; i <= ordersCount; i++) {\r\n            if (orders[i].id == _orderId) {\r\n                orders[i].state = Status.OrderCancelled;\r\n                //address payable customer = address(orders[i].owner);\r\n                emit LogRefund(\r\n                    orders[i].owner,\r\n                    orders[i].totalPrice,\r\n                    orders[i].owner\r\n                );\r\n                address(_customer).transfer(orders[i].totalPrice);\r\n                //msg.sender.transfer(orders[i].totalPrice);\r\n            }\r\n        }\r\n    }\r\n\r\n    event HawkerProdPurchased(\r\n        uint256 orderId,\r\n        address indexed buyer,\r\n        address indexed seller,\r\n        uint256 totalCost,\r\n        uint256 indexed date\r\n    );\r\n\r\n    function purchaseProduct(\r\n        uint256 _custId,\r\n        address payable _seller,\r\n        uint256 _hawkerPayment,\r\n        uint256 _riderPayment,\r\n        uint256 _totalCost,\r\n        string memory _date,\r\n        string memory _time\r\n    ) public payable {\r\n        Customer memory cust = customers[_custId];\r\n        // Increment order count\r\n        ordersCount++;\r\n        // Create the enum\r\n        state = Status.OrderPlaced;\r\n\r\n        // Create the order\r\n        orders[ordersCount] = Order(\r\n            ordersCount,\r\n            cust.owner,\r\n            _seller,\r\n            address(0),\r\n            _hawkerPayment,\r\n            _riderPayment,\r\n            _totalCost,\r\n            cust.itemCount,\r\n            _date,\r\n            _time,\r\n            state,\r\n            false\r\n        );\r\n\r\n        //add the items in cartItems(Customer structure) to purchasedItemId (Order structure)\r\n        for (uint256 i = 1; i <= cust.itemCount; i++) {\r\n            (uint256 item, uint256 qty) = getCartProduct(_custId, i);\r\n            orders[ordersCount].purchasedItemId[i] = CartItem(i, item, qty);\r\n\r\n            //increate soldCount in RestProduct\r\n            for (uint256 k = 1; k <= restProdCount; k++) {\r\n                if (restProducts[k].id == item) {\r\n                    restProducts[k].soldCount++;\r\n                }\r\n            }\r\n        }\r\n\r\n        //Require that there is enough Ether in the transaction\r\n        require(msg.value >= _totalCost);\r\n\r\n        //remove the CartItem in the Customer id\r\n        removeAllProdCart(_custId);\r\n\r\n        // //Trigger an event\r\n        emit HawkerProdPurchased(\r\n            ordersCount,\r\n            cust.owner,\r\n            _seller,\r\n            _totalCost,\r\n            now\r\n        );\r\n    }\r\n\r\n    //hawker confirms order transaction made by customer\r\n    function hawkerConfirmOrder(uint256 _orderId) public {\r\n        uint256 i = 0;\r\n        for (i = 0; i <= ordersCount; i++) {\r\n            if (orders[i].id == _orderId) {\r\n                orders[i].state = Status.OrderConfirm;\r\n                //Pay the hawker\r\n                address(msg.sender).transfer(orders[i].hawkerPayment);\r\n            }\r\n        }\r\n    }\r\n\r\n    //food delivery accepts order delivery\r\n    function fdAcceptOrder(uint256 _orderId) public {\r\n        //set orderId state to DriverConfirm\r\n        uint256 i = 0;\r\n        for (i = 0; i <= ordersCount; i++) {\r\n            if (orders[i].id == _orderId) {\r\n                orders[i].state = Status.DriverConfirm;\r\n                orders[i].driver = msg.sender;\r\n            }\r\n        }\r\n\r\n        Order memory _order = orders[_orderId];\r\n        address _owner = _order.owner;\r\n        address _seller = _order.seller;\r\n        uint256 _hawkerPayment = _order.hawkerPayment;\r\n        uint256 _riderPayment = _order.riderPayment;\r\n        uint256 _totalPrice = _order.totalPrice;\r\n        uint256 _purchasedItemCount = _order.purchasedItemCount;\r\n        string memory _date = _order.date;\r\n        string memory _time = _order.time;\r\n        Status _state = _order.state;\r\n\r\n        //add the order to the acceptedOrder mapping for the fd\r\n        uint256 k = 0;\r\n        for (k = 0; k <= foodDeliveriesCount; k++) {\r\n            if (foodDeliveries[k].owner == msg.sender) {\r\n                (foodDeliveries[k].ordersAcceptedCount)++;\r\n                foodDeliveries[k].ordersAccepted[\r\n                    foodDeliveries[k].ordersAcceptedCount\r\n                ] = Order(\r\n                    foodDeliveries[k].ordersAcceptedCount,\r\n                    _owner,\r\n                    _seller,\r\n                    msg.sender,\r\n                    _hawkerPayment,\r\n                    _riderPayment,\r\n                    _totalPrice,\r\n                    _purchasedItemCount,\r\n                    _date,\r\n                    _time,\r\n                    _state,\r\n                    false\r\n                );\r\n            }\r\n        }\r\n    }\r\n\r\n    //food delivery collected order\r\n    function fdCollectedOrder(uint256 _orderId) public {\r\n        //set orderId state to OrderCompleted\r\n        uint256 i = 0;\r\n        for (i = 0; i <= ordersCount; i++) {\r\n            if (orders[i].id == _orderId) {\r\n                orders[i].state = Status.OrderCollected;\r\n            }\r\n        }\r\n    }\r\n\r\n    //food delivery completes order delivery\r\n    function fdCompleteOrder(uint256 _orderId) public payable {\r\n        //set orderId state to OrderCompleted\r\n        uint256 i = 0;\r\n        for (i = 0; i <= ordersCount; i++) {\r\n            if (orders[i].id == _orderId) {\r\n                orders[i].state = Status.OrderCompleted;\r\n                //Pay the rider after completion\r\n                address(msg.sender).transfer(orders[i].riderPayment);\r\n            }\r\n        }\r\n    }\r\n\r\n    // function purchaseProduct(uint256 _id) public payable {\r\n    //     //Fetch the product\r\n    //     Product memory _product = products[_id];\r\n    //     //Fetch the owner\r\n    //     address payable _seller = _product.owner;\r\n    //     //Make sure the product has a valid id\r\n    //     //require(_product.id > 0 && _product.id <= productCount); ---> need to change\r\n    //     //Require that there is enough Ether in the transaction\r\n    //     require(msg.value >= _product.price);\r\n    //     //Require that the product has not been purchased already\r\n    //     require(!_product.purchased);\r\n    //     //Require that the buyer is not the seller\r\n    //     require(_seller != msg.sender);\r\n    //     //Transfer ownership to the buyer\r\n    //     _product.owner = msg.sender;\r\n    //     //Mark as purchased\r\n    //     _product.purchased = true;\r\n    //     //Update the product\r\n    //     products[_id] = _product;\r\n    //     //Pay the seller by sending them Ether\r\n    //     address(_seller).transfer(msg.value);\r\n\r\n    //     //Trigger an event\r\n    //     emit ProductPurchased(\r\n    //         productCount,\r\n    //         _product.name,\r\n    //         _product.price,\r\n    //         msg.sender,\r\n    //         true\r\n    //     );\r\n    // }\r\n}\r\n",
  "sourcePath": "C:/Users/Casuarina/Desktop/FYP_FoodIndustry/blockchain/src/contracts/Marketplace.sol",
  "compiler": {
    "name": "solc",
    "version": "0.5.16+commit.9c3226ce.Emscripten.clang"
  },
  "schemaVersion": "3.4.1",
  "updatedAt": "2021-07-27T12:01:30.680Z",
  "networkType": "ethereum",
  "devdoc": {
    "methods": {}
  },
  "userdoc": {
    "methods": {}
  }
}