{
  "contractName": "Marketplace",
  "abi": [
    {
      "inputs": [],
      "payable": false,
      "stateMutability": "nonpayable",
      "type": "constructor"
    },
    {
      "anonymous": false,
      "inputs": [
        {
          "indexed": false,
          "internalType": "uint256",
          "name": "id",
          "type": "uint256"
        },
        {
          "indexed": false,
          "internalType": "string",
          "name": "name",
          "type": "string"
        },
        {
          "indexed": false,
          "internalType": "uint256",
          "name": "price",
          "type": "uint256"
        },
        {
          "indexed": false,
          "internalType": "address payable",
          "name": "owner",
          "type": "address"
        },
        {
          "indexed": false,
          "internalType": "bool",
          "name": "purchased",
          "type": "bool"
        },
        {
          "indexed": false,
          "internalType": "string",
          "name": "imageHash",
          "type": "string"
        }
      ],
      "name": "ProductCreated",
      "type": "event"
    },
    {
      "anonymous": false,
      "inputs": [
        {
          "indexed": false,
          "internalType": "uint256",
          "name": "id",
          "type": "uint256"
        },
        {
          "indexed": false,
          "internalType": "string",
          "name": "name",
          "type": "string"
        },
        {
          "indexed": false,
          "internalType": "uint256",
          "name": "price",
          "type": "uint256"
        },
        {
          "indexed": false,
          "internalType": "address payable",
          "name": "owner",
          "type": "address"
        },
        {
          "indexed": false,
          "internalType": "bool",
          "name": "purchased",
          "type": "bool"
        }
      ],
      "name": "ProductPurchased",
      "type": "event"
    },
    {
      "constant": true,
      "inputs": [
        {
          "internalType": "uint256",
          "name": "",
          "type": "uint256"
        }
      ],
      "name": "customers",
      "outputs": [
        {
          "internalType": "uint256",
          "name": "id",
          "type": "uint256"
        },
        {
          "internalType": "address",
          "name": "owner",
          "type": "address"
        },
        {
          "internalType": "string",
          "name": "name",
          "type": "string"
        },
        {
          "internalType": "string",
          "name": "addressLocation",
          "type": "string"
        },
        {
          "internalType": "string",
          "name": "phone",
          "type": "string"
        },
        {
          "internalType": "uint256",
          "name": "itemCount",
          "type": "uint256"
        }
      ],
      "payable": false,
      "stateMutability": "view",
      "type": "function"
    },
    {
      "constant": true,
      "inputs": [],
      "name": "customersCount",
      "outputs": [
        {
          "internalType": "uint256",
          "name": "",
          "type": "uint256"
        }
      ],
      "payable": false,
      "stateMutability": "view",
      "type": "function"
    },
    {
      "constant": true,
      "inputs": [
        {
          "internalType": "uint256",
          "name": "",
          "type": "uint256"
        }
      ],
      "name": "foodDeliveries",
      "outputs": [
        {
          "internalType": "uint256",
          "name": "id",
          "type": "uint256"
        },
        {
          "internalType": "address",
          "name": "owner",
          "type": "address"
        },
        {
          "internalType": "string",
          "name": "name",
          "type": "string"
        },
        {
          "internalType": "string",
          "name": "phone",
          "type": "string"
        },
        {
          "internalType": "int256",
          "name": "rating",
          "type": "int256"
        },
        {
          "internalType": "bool",
          "name": "available",
          "type": "bool"
        },
        {
          "internalType": "uint256",
          "name": "ordersAcceptedCount",
          "type": "uint256"
        }
      ],
      "payable": false,
      "stateMutability": "view",
      "type": "function"
    },
    {
      "constant": true,
      "inputs": [],
      "name": "foodDeliveriesCount",
      "outputs": [
        {
          "internalType": "uint256",
          "name": "",
          "type": "uint256"
        }
      ],
      "payable": false,
      "stateMutability": "view",
      "type": "function"
    },
    {
      "constant": true,
      "inputs": [
        {
          "internalType": "uint256",
          "name": "",
          "type": "uint256"
        }
      ],
      "name": "hawkers",
      "outputs": [
        {
          "internalType": "uint256",
          "name": "id",
          "type": "uint256"
        },
        {
          "internalType": "address",
          "name": "owner",
          "type": "address"
        },
        {
          "internalType": "string",
          "name": "name",
          "type": "string"
        },
        {
          "internalType": "string",
          "name": "addressLocation",
          "type": "string"
        },
        {
          "internalType": "string",
          "name": "openingHours",
          "type": "string"
        },
        {
          "internalType": "string",
          "name": "phone",
          "type": "string"
        },
        {
          "internalType": "int256",
          "name": "rating",
          "type": "int256"
        },
        {
          "internalType": "bool",
          "name": "open",
          "type": "bool"
        }
      ],
      "payable": false,
      "stateMutability": "view",
      "type": "function"
    },
    {
      "constant": true,
      "inputs": [],
      "name": "hawkersCount",
      "outputs": [
        {
          "internalType": "uint256",
          "name": "",
          "type": "uint256"
        }
      ],
      "payable": false,
      "stateMutability": "view",
      "type": "function"
    },
    {
      "constant": true,
      "inputs": [
        {
          "internalType": "uint256",
          "name": "",
          "type": "uint256"
        }
      ],
      "name": "orders",
      "outputs": [
        {
          "internalType": "uint256",
          "name": "id",
          "type": "uint256"
        },
        {
          "internalType": "address",
          "name": "owner",
          "type": "address"
        },
        {
          "internalType": "address",
          "name": "seller",
          "type": "address"
        },
        {
          "internalType": "address",
          "name": "driver",
          "type": "address"
        },
        {
          "internalType": "uint256",
          "name": "totalPrice",
          "type": "uint256"
        },
        {
          "internalType": "uint256",
          "name": "purchasedItemCount",
          "type": "uint256"
        },
        {
          "internalType": "string",
          "name": "date",
          "type": "string"
        },
        {
          "internalType": "string",
          "name": "time",
          "type": "string"
        },
        {
          "internalType": "enum Marketplace.Status",
          "name": "state",
          "type": "uint8"
        }
      ],
      "payable": false,
      "stateMutability": "view",
      "type": "function"
    },
    {
      "constant": true,
      "inputs": [],
      "name": "ordersCount",
      "outputs": [
        {
          "internalType": "uint256",
          "name": "",
          "type": "uint256"
        }
      ],
      "payable": false,
      "stateMutability": "view",
      "type": "function"
    },
    {
      "constant": true,
      "inputs": [],
      "name": "restProdCount",
      "outputs": [
        {
          "internalType": "uint256",
          "name": "",
          "type": "uint256"
        }
      ],
      "payable": false,
      "stateMutability": "view",
      "type": "function"
    },
    {
      "constant": true,
      "inputs": [
        {
          "internalType": "uint256",
          "name": "",
          "type": "uint256"
        }
      ],
      "name": "restProducts",
      "outputs": [
        {
          "internalType": "uint256",
          "name": "id",
          "type": "uint256"
        },
        {
          "internalType": "string",
          "name": "name",
          "type": "string"
        },
        {
          "internalType": "uint256",
          "name": "price",
          "type": "uint256"
        },
        {
          "internalType": "address payable",
          "name": "owner",
          "type": "address"
        },
        {
          "internalType": "bool",
          "name": "published",
          "type": "bool"
        },
        {
          "internalType": "string",
          "name": "imageHash",
          "type": "string"
        }
      ],
      "payable": false,
      "stateMutability": "view",
      "type": "function"
    },
    {
      "constant": true,
      "inputs": [],
      "name": "state",
      "outputs": [
        {
          "internalType": "enum Marketplace.Status",
          "name": "",
          "type": "uint8"
        }
      ],
      "payable": false,
      "stateMutability": "view",
      "type": "function"
    },
    {
      "constant": true,
      "inputs": [],
      "name": "suppProdCount",
      "outputs": [
        {
          "internalType": "uint256",
          "name": "",
          "type": "uint256"
        }
      ],
      "payable": false,
      "stateMutability": "view",
      "type": "function"
    },
    {
      "constant": true,
      "inputs": [
        {
          "internalType": "uint256",
          "name": "",
          "type": "uint256"
        }
      ],
      "name": "suppProducts",
      "outputs": [
        {
          "internalType": "uint256",
          "name": "id",
          "type": "uint256"
        },
        {
          "internalType": "string",
          "name": "name",
          "type": "string"
        },
        {
          "internalType": "uint256",
          "name": "price",
          "type": "uint256"
        },
        {
          "internalType": "address payable",
          "name": "owner",
          "type": "address"
        },
        {
          "internalType": "bool",
          "name": "purchased",
          "type": "bool"
        }
      ],
      "payable": false,
      "stateMutability": "view",
      "type": "function"
    },
    {
      "constant": false,
      "inputs": [
        {
          "internalType": "address",
          "name": "_owner",
          "type": "address"
        },
        {
          "internalType": "string",
          "name": "_name",
          "type": "string"
        },
        {
          "internalType": "string",
          "name": "_phone",
          "type": "string"
        },
        {
          "internalType": "bool",
          "name": "_available",
          "type": "bool"
        }
      ],
      "name": "addFoodDelivery",
      "outputs": [],
      "payable": false,
      "stateMutability": "nonpayable",
      "type": "function"
    },
    {
      "constant": false,
      "inputs": [
        {
          "internalType": "address",
          "name": "_owner",
          "type": "address"
        },
        {
          "internalType": "string",
          "name": "_name",
          "type": "string"
        },
        {
          "internalType": "string",
          "name": "_addressLocation",
          "type": "string"
        },
        {
          "internalType": "string",
          "name": "_openingHours",
          "type": "string"
        },
        {
          "internalType": "string",
          "name": "_phone",
          "type": "string"
        },
        {
          "internalType": "bool",
          "name": "_open",
          "type": "bool"
        }
      ],
      "name": "addHawker",
      "outputs": [],
      "payable": false,
      "stateMutability": "nonpayable",
      "type": "function"
    },
    {
      "constant": false,
      "inputs": [
        {
          "internalType": "string",
          "name": "_phone",
          "type": "string"
        },
        {
          "internalType": "string",
          "name": "_OH",
          "type": "string"
        }
      ],
      "name": "editHawkerProfile",
      "outputs": [],
      "payable": false,
      "stateMutability": "nonpayable",
      "type": "function"
    },
    {
      "constant": false,
      "inputs": [],
      "name": "boolOpen",
      "outputs": [],
      "payable": false,
      "stateMutability": "nonpayable",
      "type": "function"
    },
    {
      "constant": false,
      "inputs": [],
      "name": "boolWork",
      "outputs": [],
      "payable": false,
      "stateMutability": "nonpayable",
      "type": "function"
    },
    {
      "constant": false,
      "inputs": [
        {
          "internalType": "string",
          "name": "_name",
          "type": "string"
        },
        {
          "internalType": "uint256",
          "name": "_price",
          "type": "uint256"
        }
      ],
      "name": "createSuppProduct",
      "outputs": [],
      "payable": false,
      "stateMutability": "nonpayable",
      "type": "function"
    },
    {
      "constant": false,
      "inputs": [
        {
          "internalType": "string",
          "name": "_name",
          "type": "string"
        },
        {
          "internalType": "uint256",
          "name": "_price",
          "type": "uint256"
        },
        {
          "internalType": "bool",
          "name": "_published",
          "type": "bool"
        },
        {
          "internalType": "string",
          "name": "_imageHash",
          "type": "string"
        }
      ],
      "name": "createRestProduct",
      "outputs": [],
      "payable": false,
      "stateMutability": "nonpayable",
      "type": "function"
    },
    {
      "constant": false,
      "inputs": [
        {
          "internalType": "address",
          "name": "_owner",
          "type": "address"
        },
        {
          "internalType": "string",
          "name": "_name",
          "type": "string"
        },
        {
          "internalType": "string",
          "name": "_addressLocation",
          "type": "string"
        },
        {
          "internalType": "string",
          "name": "_phone",
          "type": "string"
        }
      ],
      "name": "addCustomer",
      "outputs": [],
      "payable": false,
      "stateMutability": "nonpayable",
      "type": "function"
    },
    {
      "constant": false,
      "inputs": [
        {
          "internalType": "string",
          "name": "_phone",
          "type": "string"
        },
        {
          "internalType": "string",
          "name": "_address",
          "type": "string"
        }
      ],
      "name": "editCustProfile",
      "outputs": [],
      "payable": false,
      "stateMutability": "nonpayable",
      "type": "function"
    },
    {
      "constant": false,
      "inputs": [
        {
          "internalType": "uint256",
          "name": "_id",
          "type": "uint256"
        }
      ],
      "name": "addToCart",
      "outputs": [],
      "payable": false,
      "stateMutability": "nonpayable",
      "type": "function"
    },
    {
      "constant": false,
      "inputs": [
        {
          "internalType": "uint256",
          "name": "custId",
          "type": "uint256"
        },
        {
          "internalType": "uint256",
          "name": "cartId",
          "type": "uint256"
        }
      ],
      "name": "removeProdCart",
      "outputs": [],
      "payable": false,
      "stateMutability": "nonpayable",
      "type": "function"
    },
    {
      "constant": false,
      "inputs": [
        {
          "internalType": "uint256",
          "name": "custId",
          "type": "uint256"
        }
      ],
      "name": "removeAllProdCart",
      "outputs": [],
      "payable": false,
      "stateMutability": "nonpayable",
      "type": "function"
    },
    {
      "constant": false,
      "inputs": [
        {
          "internalType": "uint256",
          "name": "custId",
          "type": "uint256"
        },
        {
          "internalType": "uint256",
          "name": "cartId",
          "type": "uint256"
        }
      ],
      "name": "getCartProduct",
      "outputs": [
        {
          "internalType": "uint256",
          "name": "",
          "type": "uint256"
        }
      ],
      "payable": false,
      "stateMutability": "nonpayable",
      "type": "function"
    },
    {
      "constant": false,
      "inputs": [
        {
          "internalType": "uint256",
          "name": "orderId",
          "type": "uint256"
        },
        {
          "internalType": "uint256",
          "name": "cartId",
          "type": "uint256"
        }
      ],
      "name": "getOrderProduct",
      "outputs": [
        {
          "components": [
            {
              "internalType": "uint256",
              "name": "id",
              "type": "uint256"
            },
            {
              "internalType": "string",
              "name": "name",
              "type": "string"
            },
            {
              "internalType": "uint256",
              "name": "price",
              "type": "uint256"
            },
            {
              "internalType": "address payable",
              "name": "owner",
              "type": "address"
            },
            {
              "internalType": "bool",
              "name": "published",
              "type": "bool"
            },
            {
              "internalType": "string",
              "name": "imageHash",
              "type": "string"
            }
          ],
          "internalType": "struct Marketplace.RestProduct",
          "name": "",
          "type": "tuple"
        }
      ],
      "payable": false,
      "stateMutability": "nonpayable",
      "type": "function"
    },
    {
      "constant": false,
      "inputs": [
        {
          "internalType": "uint256",
          "name": "_custId",
          "type": "uint256"
        },
        {
          "internalType": "address payable",
          "name": "_seller",
          "type": "address"
        },
        {
          "internalType": "uint256",
          "name": "_totalCost",
          "type": "uint256"
        },
        {
          "internalType": "string",
          "name": "_date",
          "type": "string"
        },
        {
          "internalType": "string",
          "name": "_time",
          "type": "string"
        }
      ],
      "name": "purchaseProduct",
      "outputs": [],
      "payable": true,
      "stateMutability": "payable",
      "type": "function"
    },
    {
      "constant": false,
      "inputs": [
        {
          "internalType": "uint256",
          "name": "_orderId",
          "type": "uint256"
        }
      ],
      "name": "hawkerConfirmOrder",
      "outputs": [],
      "payable": false,
      "stateMutability": "nonpayable",
      "type": "function"
    },
    {
      "constant": false,
      "inputs": [
        {
          "internalType": "uint256",
          "name": "_orderId",
          "type": "uint256"
        }
      ],
      "name": "fdAcceptOrder",
      "outputs": [],
      "payable": false,
      "stateMutability": "nonpayable",
      "type": "function"
    },
    {
      "constant": false,
      "inputs": [
        {
          "internalType": "uint256",
          "name": "_orderId",
          "type": "uint256"
        }
      ],
      "name": "fdCompleteOrder",
      "outputs": [],
      "payable": false,
      "stateMutability": "nonpayable",
      "type": "function"
    }
  ],
  "bytecode": "0x6080604052600060045560006006553480156200001b57600080fd5b50620000e37373c005d4b234c63f416f6e1038c011d55eddbf1e6040518060400160405280601681526020017f53656c6572612052617361204e617369204c656d616b000000000000000000008152506040518060600160405280602f815260200162004653602f9139604051806060016040528060358152602001620046eb603591396040518060400160405280600881526020017f39383433343530390000000000000000000000000000000000000000000000008152506000620003b560201b60201c565b620001aa7387ecee1454a7b32253a9020f6ae1ff25e9ce35b56040518060400160405280602081526020017f5469616e205469616e204861696e616e65736520436869636b656e20526963658152506040518060800160405280604681526020016200468260469139604051806060016040528060238152602001620046c8602391396040518060400160405280600881526020017f39363931343835320000000000000000000000000000000000000000000000008152506000620003b560201b60201c565b6200027173c9342f12d49ca9e40d600ebf17266dccc88a06396040518060400160405280600981526020017f436173756172696e6100000000000000000000000000000000000000000000008152506040518060400160405280602081526020017f3530204e616e79616e67204176652c2053696e6761706f7265203633393739388152506040518060400160405280600881526020017f39383736353433320000000000000000000000000000000000000000000000008152506200053360201b60201c565b6200031c737c2ea58a210f8e7c80fdeb6788c1d5fc4a3e73ba6040518060400160405280600781526020017f5061747269636b0000000000000000000000000000000000000000000000000081525060405180606001604052806025815260200162004720602591396040518060400160405280600881526020017f39313233343536370000000000000000000000000000000000000000000000008152506200053360201b60201c565b620003af7366f8f66996aab36b041b1cada9f20864a0c426986040518060400160405280600781526020017f4c656f2054616e000000000000000000000000000000000000000000000000008152506040518060400160405280600881526020017f393031323334353600000000000000000000000000000000000000000000000081525060006200066160201b60201c565b62000851565b60036000815480929190600101919050555060405180610100016040528060035481526020018773ffffffffffffffffffffffffffffffffffffffff168152602001868152602001858152602001848152602001838152602001600581526020018215158152506002600060035481526020019081526020016000206000820151816000015560208201518160010160006101000a81548173ffffffffffffffffffffffffffffffffffffffff021916908373ffffffffffffffffffffffffffffffffffffffff1602179055506040820151816002019080519060200190620004a0929190620007a2565b506060820151816003019080519060200190620004bf929190620007a2565b506080820151816004019080519060200190620004de929190620007a2565b5060a0820151816005019080519060200190620004fd929190620007a2565b5060c0820151816006015560e08201518160070160006101000a81548160ff021916908315150217905550905050505050505050565b600c600081548092919060010191905055506040518060c00160405280600c5481526020018573ffffffffffffffffffffffffffffffffffffffff1681526020018481526020018381526020018281526020016000815250600b6000600c5481526020019081526020016000206000820151816000015560208201518160010160006101000a81548173ffffffffffffffffffffffffffffffffffffffff021916908373ffffffffffffffffffffffffffffffffffffffff16021790555060408201518160020190805190602001906200060f929190620007a2565b5060608201518160030190805190602001906200062e929190620007a2565b5060808201518160040190805190602001906200064d929190620007a2565b5060a0820151816006015590505050505050565b6001600081548092919060010191905055506040518060e0016040528060015481526020018573ffffffffffffffffffffffffffffffffffffffff168152602001848152602001838152602001600581526020018215158152602001600081525060008060015481526020019081526020016000206000820151816000015560208201518160010160006101000a81548173ffffffffffffffffffffffffffffffffffffffff021916908373ffffffffffffffffffffffffffffffffffffffff160217905550604082015181600201908051906020019062000745929190620007a2565b50606082015181600301908051906020019062000764929190620007a2565b506080820151816004015560a08201518160050160006101000a81548160ff02191690831515021790555060c0820151816007015590505050505050565b828054600181600116156101000203166002900490600052602060002090601f016020900481019282601f10620007e557805160ff191683800117855562000816565b8280016001018555821562000816579182015b8281111562000815578251825591602001919060010190620007f8565b5b50905062000825919062000829565b5090565b6200084e91905b808211156200084a57600081600090555060010162000830565b5090565b90565b613df280620008616000396000f3fe6080604052600436106101d85760003560e01c80639d0d6f8b11610102578063c6705e9f11610095578063e16f14e211610064578063e16f14e2146106c8578063e6f65b4c14610709578063f0eab43014610734578063f89e76971461075d576101d8565b8063c6705e9f14610610578063cc3cb4321461064d578063db3a0abd14610676578063dbeb584b1461069f576101d8565b8063afc7c236116100d1578063afc7c2361461054f578063b0fd5c4614610578578063c0abda2a146105a3578063c19d93fb146105e5576101d8565b80639d0d6f8b14610474578063a85c38ef1461049d578063a9937b22146104e2578063abed579f1461050d576101d8565b80633be94d471161017a578063702742b011610149578063702742b0146103ce5780637078b09a146103f7578063757a270314610420578063995d7d931461044b576101d8565b80633be94d47146103215780634244c3d4146103655780634937f2a71461038e578063623eb0d2146103a5576101d8565b80630c21a8d2116101b65780630c21a8d2146102655780631460953c14610290578063278e381c146102b957806335daa731146102f6576101d8565b80630710f1f1146101dd578063093c05fa146101f95780630b90cd281461023c575b600080fd5b6101f760048036036101f2919081019061357c565b610774565b005b34801561020557600080fd5b50610220600480360361021b9190810190613553565b610d14565b6040516102339796959493929190613914565b60405180910390f35b34801561024857600080fd5b50610263600480360361025e9190810190613400565b610eb3565b005b34801561027157600080fd5b5061027a610f99565b604051610287919061385e565b60405180910390f35b34801561029c57600080fd5b506102b760048036036102b2919081019061326c565b610f9f565b005b3480156102c557600080fd5b506102e060048036036102db9190810190613623565b6110c7565b6040516102ed919061383c565b60405180910390f35b34801561030257600080fd5b5061030b611300565b604051610318919061385e565b60405180910390f35b34801561032d57600080fd5b5061034860048036036103439190810190613553565b611306565b60405161035c989796959493929190613991565b60405180910390f35b34801561037157600080fd5b5061038c60048036036103879190810190613623565b6115db565b005b34801561039a57600080fd5b506103a3611634565b005b3480156103b157600080fd5b506103cc60048036036103c7919081019061346c565b611711565b005b3480156103da57600080fd5b506103f560048036036103f09190810190613553565b611878565b005b34801561040357600080fd5b5061041e60048036036104199190810190613400565b6119ac565b005b34801561042c57600080fd5b50610435611a92565b604051610442919061385e565b60405180910390f35b34801561045757600080fd5b50610472600480360361046d9190810190613553565b611a98565b005b34801561048057600080fd5b5061049b60048036036104969190810190613553565b612151565b005b3480156104a957600080fd5b506104c460048036036104bf9190810190613553565b6121cc565b6040516104d999989796959493929190613879565b60405180910390f35b3480156104ee57600080fd5b506104f76123b7565b604051610504919061385e565b60405180910390f35b34801561051957600080fd5b50610534600480360361052f9190810190613553565b6123bd565b60405161054696959493929190613b6a565b60405180910390f35b34801561055b57600080fd5b50610576600480360361057191908101906131d9565b612556565b005b34801561058457600080fd5b5061058d612693565b60405161059a919061385e565b60405180910390f35b3480156105af57600080fd5b506105ca60048036036105c59190810190613553565b612699565b6040516105dc96959493929190613a2b565b60405180910390f35b3480156105f157600080fd5b506105fa6128bd565b6040516106079190613821565b60405180910390f35b34801561061c57600080fd5b5061063760048036036106329190810190613623565b6128d0565b604051610644919061385e565b60405180910390f35b34801561065957600080fd5b50610674600480360361066f91908101906134c0565b61290a565b005b34801561068257600080fd5b5061069d60048036036106989190810190613317565b612a94565b005b3480156106ab57600080fd5b506106c660048036036106c19190810190613553565b612c0a565b005b3480156106d457600080fd5b506106ef60048036036106ea9190810190613553565b612c85565b604051610700959493929190613b10565b60405180910390f35b34801561071557600080fd5b5061071e612d80565b60405161072b919061385e565b60405180910390f35b34801561074057600080fd5b5061075b60048036036107569190810190613553565b612d86565b005b34801561076957600080fd5b50610772612df9565b005b61077c612ed9565b600b60008781526020019081526020016000206040518060c0016040529081600082015481526020016001820160009054906101000a900473ffffffffffffffffffffffffffffffffffffffff1673ffffffffffffffffffffffffffffffffffffffff1673ffffffffffffffffffffffffffffffffffffffff168152602001600282018054600181600116156101000203166002900480601f0160208091040260200160405190810160405280929190818152602001828054600181600116156101000203166002900480156108935780601f1061086857610100808354040283529160200191610893565b820191906000526020600020905b81548152906001019060200180831161087657829003601f168201915b50505050508152602001600382018054600181600116156101000203166002900480601f0160208091040260200160405190810160405280929190818152602001828054600181600116156101000203166002900480156109355780601f1061090a57610100808354040283529160200191610935565b820191906000526020600020905b81548152906001019060200180831161091857829003601f168201915b50505050508152602001600482018054600181600116156101000203166002900480601f0160208091040260200160405190810160405280929190818152602001828054600181600116156101000203166002900480156109d75780601f106109ac576101008083540402835291602001916109d7565b820191906000526020600020905b8154815290600101906020018083116109ba57829003601f168201915b505050505081526020016006820154815250509050600a600081548092919060010191905055506000600860006101000a81548160ff02191690836003811115610a1d57fe5b0217905550604051806101200160405280600a548152602001826020015173ffffffffffffffffffffffffffffffffffffffff1681526020018673ffffffffffffffffffffffffffffffffffffffff168152602001600073ffffffffffffffffffffffffffffffffffffffff1681526020018581526020018260a001518152602001848152602001838152602001600860009054906101000a900460ff166003811115610ac657fe5b81525060096000600a5481526020019081526020016000206000820151816000015560208201518160010160006101000a81548173ffffffffffffffffffffffffffffffffffffffff021916908373ffffffffffffffffffffffffffffffffffffffff16021790555060408201518160020160006101000a81548173ffffffffffffffffffffffffffffffffffffffff021916908373ffffffffffffffffffffffffffffffffffffffff16021790555060608201518160030160006101000a81548173ffffffffffffffffffffffffffffffffffffffff021916908373ffffffffffffffffffffffffffffffffffffffff1602179055506080820151816004015560a0820151816006015560c0820151816007019080519060200190610bed929190612f25565b5060e0820151816008019080519060200190610c0a929190612f25565b506101008201518160090160006101000a81548160ff02191690836003811115610c3057fe5b02179055509050506000600190505b8160a001518111610cbb576000610c5688836128d0565b905060405180604001604052808381526020018281525060096000600a54815260200190815260200160002060050160008481526020019081526020016000206000820151816000015560208201518160010155905050508080600101915050610c3f565b508473ffffffffffffffffffffffffffffffffffffffff166108fc349081150290604051600060405180830381858888f19350505050158015610d02573d6000803e3d6000fd5b50610d0c86612d86565b505050505050565b60006020528060005260406000206000915090508060000154908060010160009054906101000a900473ffffffffffffffffffffffffffffffffffffffff1690806002018054600181600116156101000203166002900480601f016020809104026020016040519081016040528092919081815260200182805460018160011615610100020316600290048015610dec5780601f10610dc157610100808354040283529160200191610dec565b820191906000526020600020905b815481529060010190602001808311610dcf57829003601f168201915b505050505090806003018054600181600116156101000203166002900480601f016020809104026020016040519081016040528092919081815260200182805460018160011615610100020316600290048015610e8a5780601f10610e5f57610100808354040283529160200191610e8a565b820191906000526020600020905b815481529060010190602001808311610e6d57829003601f168201915b5050505050908060040154908060050160009054906101000a900460ff16908060070154905087565b6000809050600090505b600c548111610f94573373ffffffffffffffffffffffffffffffffffffffff16600b600083815260200190815260200160002060010160009054906101000a900473ffffffffffffffffffffffffffffffffffffffff1673ffffffffffffffffffffffffffffffffffffffff161415610f875782600b60008381526020019081526020016000206004019080519060200190610f5a929190612fa5565b5081600b60008381526020019081526020016000206003019080519060200190610f85929190612fa5565b505b8080600101915050610ebd565b505050565b600c5481565b600c600081548092919060010191905055506040518060c00160405280600c5481526020018573ffffffffffffffffffffffffffffffffffffffff1681526020018481526020018381526020018281526020016000815250600b6000600c5481526020019081526020016000206000820151816000015560208201518160010160006101000a81548173ffffffffffffffffffffffffffffffffffffffff021916908373ffffffffffffffffffffffffffffffffffffffff1602179055506040820151816002019080519060200190611079929190612f25565b506060820151816003019080519060200190611096929190612f25565b5060808201518160040190805190602001906110b3929190612f25565b5060a0820151816006015590505050505050565b6110cf613025565b6000600960008581526020019081526020016000209050600081600501600085815260200190815260200160002060010154905061110b613025565b600760008381526020019081526020016000206040518060c001604052908160008201548152602001600182018054600181600116156101000203166002900480601f0160208091040260200160405190810160405280929190818152602001828054600181600116156101000203166002900480156111cc5780601f106111a1576101008083540402835291602001916111cc565b820191906000526020600020905b8154815290600101906020018083116111af57829003601f168201915b50505050508152602001600282015481526020016003820160009054906101000a900473ffffffffffffffffffffffffffffffffffffffff1673ffffffffffffffffffffffffffffffffffffffff1673ffffffffffffffffffffffffffffffffffffffff1681526020016003820160149054906101000a900460ff16151515158152602001600482018054600181600116156101000203166002900480601f0160208091040260200160405190810160405280929190818152602001828054600181600116156101000203166002900480156112e95780601f106112be576101008083540402835291602001916112e9565b820191906000526020600020905b8154815290600101906020018083116112cc57829003601f168201915b505050505081525050905080935050505092915050565b600a5481565b60026020528060005260406000206000915090508060000154908060010160009054906101000a900473ffffffffffffffffffffffffffffffffffffffff1690806002018054600181600116156101000203166002900480601f0160208091040260200160405190810160405280929190818152602001828054600181600116156101000203166002900480156113de5780601f106113b3576101008083540402835291602001916113de565b820191906000526020600020905b8154815290600101906020018083116113c157829003601f168201915b505050505090806003018054600181600116156101000203166002900480601f01602080910402602001604051908101604052809291908181526020018280546001816001161561010002031660029004801561147c5780601f106114515761010080835404028352916020019161147c565b820191906000526020600020905b81548152906001019060200180831161145f57829003601f168201915b505050505090806004018054600181600116156101000203166002900480601f01602080910402602001604051908101604052809291908181526020018280546001816001161561010002031660029004801561151a5780601f106114ef5761010080835404028352916020019161151a565b820191906000526020600020905b8154815290600101906020018083116114fd57829003601f168201915b505050505090806005018054600181600116156101000203166002900480601f0160208091040260200160405190810160405280929190818152602001828054600181600116156101000203166002900480156115b85780601f1061158d576101008083540402835291602001916115b8565b820191906000526020600020905b81548152906001019060200180831161159b57829003601f168201915b5050505050908060060154908060070160009054906101000a900460ff16905088565b6000600b6000848152602001908152602001600020905080600601600081548092919060019003919050555080600501600083815260200190815260200160002060008082016000905560018201600090555050505050565b6000809050600090505b600154811161170e573373ffffffffffffffffffffffffffffffffffffffff1660008083815260200190815260200160002060010160009054906101000a900473ffffffffffffffffffffffffffffffffffffffff1673ffffffffffffffffffffffffffffffffffffffff1614156117015760008082815260200190815260200160002060050160009054906101000a900460ff161560008083815260200190815260200160002060050160006101000a81548160ff0219169083151502179055505b808060010191505061163e565b50565b600082511161171f57600080fd5b6000811161172c57600080fd5b6004600081548092919060010191905055506040518060a0016040528060045481526020018381526020018281526020013373ffffffffffffffffffffffffffffffffffffffff168152602001600015158152506005600060045481526020019081526020016000206000820151816000015560208201518160010190805190602001906117bb929190612f25565b506040820151816002015560608201518160030160006101000a81548173ffffffffffffffffffffffffffffffffffffffff021916908373ffffffffffffffffffffffffffffffffffffffff16021790555060808201518160030160146101000a81548160ff0219169083151502179055509050507fd87ce4bfd22bad4a8ed8acd04d5670a4166b81f64fe53488db885e1987f33d8260045483833360008760405161186c96959493929190613aa1565b60405180910390a15050565b6000809050600090505b600c5481116119a8573373ffffffffffffffffffffffffffffffffffffffff16600b600083815260200190815260200160002060010160009054906101000a900473ffffffffffffffffffffffffffffffffffffffff1673ffffffffffffffffffffffffffffffffffffffff16141561199b57600b6000828152602001908152602001600020600601600081548092919060010191905055506040518060400160405280600b600084815260200190815260200160002060060154815260200183815250600b60008381526020019081526020016000206005016000600b600085815260200190815260200160002060060154815260200190815260200160002060008201518160000155602082015181600101559050505b8080600101915050611882565b5050565b6000809050600090505b6003548111611a8d573373ffffffffffffffffffffffffffffffffffffffff166002600083815260200190815260200160002060010160009054906101000a900473ffffffffffffffffffffffffffffffffffffffff1673ffffffffffffffffffffffffffffffffffffffff161415611a805782600260008381526020019081526020016000206005019080519060200190611a53929190612fa5565b5081600260008381526020019081526020016000206004019080519060200190611a7e929190612fa5565b505b80806001019150506119b6565b505050565b60065481565b6000809050600090505b600a548111611b64578160096000838152602001908152602001600020600001541415611b575760026009600083815260200190815260200160002060090160006101000a81548160ff02191690836003811115611afc57fe5b0217905550336009600083815260200190815260200160002060030160006101000a81548173ffffffffffffffffffffffffffffffffffffffff021916908373ffffffffffffffffffffffffffffffffffffffff1602179055505b8080600101915050611aa2565b611b6c613073565b6009600084815260200190815260200160002060405180610120016040529081600082015481526020016001820160009054906101000a900473ffffffffffffffffffffffffffffffffffffffff1673ffffffffffffffffffffffffffffffffffffffff1673ffffffffffffffffffffffffffffffffffffffff1681526020016002820160009054906101000a900473ffffffffffffffffffffffffffffffffffffffff1673ffffffffffffffffffffffffffffffffffffffff1673ffffffffffffffffffffffffffffffffffffffff1681526020016003820160009054906101000a900473ffffffffffffffffffffffffffffffffffffffff1673ffffffffffffffffffffffffffffffffffffffff1673ffffffffffffffffffffffffffffffffffffffff1681526020016004820154815260200160068201548152602001600782018054600181600116156101000203166002900480601f016020809104026020016040519081016040528092919081815260200182805460018160011615610100020316600290048015611d445780601f10611d1957610100808354040283529160200191611d44565b820191906000526020600020905b815481529060010190602001808311611d2757829003601f168201915b50505050508152602001600882018054600181600116156101000203166002900480601f016020809104026020016040519081016040528092919081815260200182805460018160011615610100020316600290048015611de65780601f10611dbb57610100808354040283529160200191611de6565b820191906000526020600020905b815481529060010190602001808311611dc957829003601f168201915b505050505081526020016009820160009054906101000a900460ff166003811115611e0d57fe5b6003811115611e1857fe5b81525050905060008160200151905060008260400151905060008360800151905060008460a00151905060608560c00151905060608660e001519050600087610100015190506000809050600090505b6001548111612144573373ffffffffffffffffffffffffffffffffffffffff1660008083815260200190815260200160002060010160009054906101000a900473ffffffffffffffffffffffffffffffffffffffff1673ffffffffffffffffffffffffffffffffffffffff16141561213757600080828152602001908152602001600020600701600081548092919060010191905055506040518061012001604052806000808481526020019081526020016000206007015481526020018973ffffffffffffffffffffffffffffffffffffffff1681526020018873ffffffffffffffffffffffffffffffffffffffff1681526020013373ffffffffffffffffffffffffffffffffffffffff168152602001878152602001868152602001858152602001848152602001836003811115611f9e57fe5b81525060008083815260200190815260200160002060060160008060008581526020019081526020016000206007015481526020019081526020016000206000820151816000015560208201518160010160006101000a81548173ffffffffffffffffffffffffffffffffffffffff021916908373ffffffffffffffffffffffffffffffffffffffff16021790555060408201518160020160006101000a81548173ffffffffffffffffffffffffffffffffffffffff021916908373ffffffffffffffffffffffffffffffffffffffff16021790555060608201518160030160006101000a81548173ffffffffffffffffffffffffffffffffffffffff021916908373ffffffffffffffffffffffffffffffffffffffff1602179055506080820151816004015560a0820151816006015560c08201518160070190805190602001906120eb929190612f25565b5060e0820151816008019080519060200190612108929190612f25565b506101008201518160090160006101000a81548160ff0219169083600381111561212e57fe5b02179055509050505b8080600101915050611e68565b5050505050505050505050565b6000809050600090505b600a5481116121c85781600960008381526020019081526020016000206000015414156121bb5760016009600083815260200190815260200160002060090160006101000a81548160ff021916908360038111156121b557fe5b02179055505b808060010191505061215b565b5050565b60096020528060005260406000206000915090508060000154908060010160009054906101000a900473ffffffffffffffffffffffffffffffffffffffff16908060020160009054906101000a900473ffffffffffffffffffffffffffffffffffffffff16908060030160009054906101000a900473ffffffffffffffffffffffffffffffffffffffff1690806004015490806006015490806007018054600181600116156101000203166002900480601f0160208091040260200160405190810160405280929190818152602001828054600181600116156101000203166002900480156122fc5780601f106122d1576101008083540402835291602001916122fc565b820191906000526020600020905b8154815290600101906020018083116122df57829003601f168201915b505050505090806008018054600181600116156101000203166002900480601f01602080910402602001604051908101604052809291908181526020018280546001816001161561010002031660029004801561239a5780601f1061236f5761010080835404028352916020019161239a565b820191906000526020600020905b81548152906001019060200180831161237d57829003601f168201915b5050505050908060090160009054906101000a900460ff16905089565b60045481565b6007602052806000526040600020600091509050806000015490806001018054600181600116156101000203166002900480601f01602080910402602001604051908101604052809291908181526020018280546001816001161561010002031660029004801561246f5780601f106124445761010080835404028352916020019161246f565b820191906000526020600020905b81548152906001019060200180831161245257829003601f168201915b5050505050908060020154908060030160009054906101000a900473ffffffffffffffffffffffffffffffffffffffff16908060030160149054906101000a900460ff1690806004018054600181600116156101000203166002900480601f01602080910402602001604051908101604052809291908181526020018280546001816001161561010002031660029004801561254c5780601f106125215761010080835404028352916020019161254c565b820191906000526020600020905b81548152906001019060200180831161252f57829003601f168201915b5050505050905086565b6001600081548092919060010191905055506040518060e0016040528060015481526020018573ffffffffffffffffffffffffffffffffffffffff168152602001848152602001838152602001600581526020018215158152602001600081525060008060015481526020019081526020016000206000820151816000015560208201518160010160006101000a81548173ffffffffffffffffffffffffffffffffffffffff021916908373ffffffffffffffffffffffffffffffffffffffff1602179055506040820151816002019080519060200190612638929190612f25565b506060820151816003019080519060200190612655929190612f25565b506080820151816004015560a08201518160050160006101000a81548160ff02191690831515021790555060c0820151816007015590505050505050565b60015481565b600b6020528060005260406000206000915090508060000154908060010160009054906101000a900473ffffffffffffffffffffffffffffffffffffffff1690806002018054600181600116156101000203166002900480601f0160208091040260200160405190810160405280929190818152602001828054600181600116156101000203166002900480156127715780601f1061274657610100808354040283529160200191612771565b820191906000526020600020905b81548152906001019060200180831161275457829003601f168201915b505050505090806003018054600181600116156101000203166002900480601f01602080910402602001604051908101604052809291908181526020018280546001816001161561010002031660029004801561280f5780601f106127e45761010080835404028352916020019161280f565b820191906000526020600020905b8154815290600101906020018083116127f257829003601f168201915b505050505090806004018054600181600116156101000203166002900480601f0160208091040260200160405190810160405280929190818152602001828054600181600116156101000203166002900480156128ad5780601f10612882576101008083540402835291602001916128ad565b820191906000526020600020905b81548152906001019060200180831161289057829003601f168201915b5050505050908060060154905086565b600860009054906101000a900460ff1681565b600080600b600085815260200190815260200160002090508060050160008481526020019081526020016000206001015491505092915050565b600084511161291857600080fd5b6000831161292557600080fd5b6006600081548092919060010191905055506040518060c0016040528060065481526020018581526020018481526020013373ffffffffffffffffffffffffffffffffffffffff1681526020018315158152602001828152506007600060065481526020019081526020016000206000820151816000015560208201518160010190805190602001906129b9929190612f25565b506040820151816002015560608201518160030160006101000a81548173ffffffffffffffffffffffffffffffffffffffff021916908373ffffffffffffffffffffffffffffffffffffffff16021790555060808201518160030160146101000a81548160ff02191690831515021790555060a0820151816004019080519060200190612a47929190612f25565b509050507fd87ce4bfd22bad4a8ed8acd04d5670a4166b81f64fe53488db885e1987f33d826006548585338686604051612a8696959493929190613aa1565b60405180910390a150505050565b60036000815480929190600101919050555060405180610100016040528060035481526020018773ffffffffffffffffffffffffffffffffffffffff168152602001868152602001858152602001848152602001838152602001600581526020018215158152506002600060035481526020019081526020016000206000820151816000015560208201518160010160006101000a81548173ffffffffffffffffffffffffffffffffffffffff021916908373ffffffffffffffffffffffffffffffffffffffff1602179055506040820151816002019080519060200190612b7d929190612f25565b506060820151816003019080519060200190612b9a929190612f25565b506080820151816004019080519060200190612bb7929190612f25565b5060a0820151816005019080519060200190612bd4929190612f25565b5060c0820151816006015560e08201518160070160006101000a81548160ff021916908315150217905550905050505050505050565b6000809050600090505b600a548111612c81578160096000838152602001908152602001600020600001541415612c745760036009600083815260200190815260200160002060090160006101000a81548160ff02191690836003811115612c6e57fe5b02179055505b8080600101915050612c14565b5050565b6005602052806000526040600020600091509050806000015490806001018054600181600116156101000203166002900480601f016020809104026020016040519081016040528092919081815260200182805460018160011615610100020316600290048015612d375780601f10612d0c57610100808354040283529160200191612d37565b820191906000526020600020905b815481529060010190602001808311612d1a57829003601f168201915b5050505050908060020154908060030160009054906101000a900473ffffffffffffffffffffffffffffffffffffffff16908060030160149054906101000a900460ff16905085565b60035481565b6000600b600083815260200190815260200160002090506000816006015490506000600190505b818111612de957826005016000828152602001908152602001600020600080820160009055600182016000905550508080600101915050612dad565b5060008260060181905550505050565b6000809050600090505b6003548111612ed6573373ffffffffffffffffffffffffffffffffffffffff166002600083815260200190815260200160002060010160009054906101000a900473ffffffffffffffffffffffffffffffffffffffff1673ffffffffffffffffffffffffffffffffffffffff161415612ec9576002600082815260200190815260200160002060070160009054906101000a900460ff16156002600083815260200190815260200160002060070160006101000a81548160ff0219169083151502179055505b8080600101915050612e03565b50565b6040518060c0016040528060008152602001600073ffffffffffffffffffffffffffffffffffffffff168152602001606081526020016060815260200160608152602001600081525090565b828054600181600116156101000203166002900490600052602060002090601f016020900481019282601f10612f6657805160ff1916838001178555612f94565b82800160010185558215612f94579182015b82811115612f93578251825591602001919060010190612f78565b5b509050612fa1919061310c565b5090565b828054600181600116156101000203166002900490600052602060002090601f016020900481019282601f10612fe657805160ff1916838001178555613014565b82800160010185558215613014579182015b82811115613013578251825591602001919060010190612ff8565b5b509050613021919061310c565b5090565b6040518060c00160405280600081526020016060815260200160008152602001600073ffffffffffffffffffffffffffffffffffffffff168152602001600015158152602001606081525090565b60405180610120016040528060008152602001600073ffffffffffffffffffffffffffffffffffffffff168152602001600073ffffffffffffffffffffffffffffffffffffffff168152602001600073ffffffffffffffffffffffffffffffffffffffff168152602001600081526020016000815260200160608152602001606081526020016000600381111561310657fe5b81525090565b61312e91905b8082111561312a576000816000905550600101613112565b5090565b90565b60008135905061314081613d53565b92915050565b60008135905061315581613d6a565b92915050565b60008135905061316a81613d81565b92915050565b600082601f83011261318157600080fd5b813561319461318f82613c06565b613bd9565b915080825260208301602083018583830111156131b057600080fd5b6131bb838284613cf3565b50505092915050565b6000813590506131d381613d98565b92915050565b600080600080608085870312156131ef57600080fd5b60006131fd87828801613131565b945050602085013567ffffffffffffffff81111561321a57600080fd5b61322687828801613170565b935050604085013567ffffffffffffffff81111561324357600080fd5b61324f87828801613170565b92505060606132608782880161315b565b91505092959194509250565b6000806000806080858703121561328257600080fd5b600061329087828801613131565b945050602085013567ffffffffffffffff8111156132ad57600080fd5b6132b987828801613170565b935050604085013567ffffffffffffffff8111156132d657600080fd5b6132e287828801613170565b925050606085013567ffffffffffffffff8111156132ff57600080fd5b61330b87828801613170565b91505092959194509250565b60008060008060008060c0878903121561333057600080fd5b600061333e89828a01613131565b965050602087013567ffffffffffffffff81111561335b57600080fd5b61336789828a01613170565b955050604087013567ffffffffffffffff81111561338457600080fd5b61339089828a01613170565b945050606087013567ffffffffffffffff8111156133ad57600080fd5b6133b989828a01613170565b935050608087013567ffffffffffffffff8111156133d657600080fd5b6133e289828a01613170565b92505060a06133f389828a0161315b565b9150509295509295509295565b6000806040838503121561341357600080fd5b600083013567ffffffffffffffff81111561342d57600080fd5b61343985828601613170565b925050602083013567ffffffffffffffff81111561345657600080fd5b61346285828601613170565b9150509250929050565b6000806040838503121561347f57600080fd5b600083013567ffffffffffffffff81111561349957600080fd5b6134a585828601613170565b92505060206134b6858286016131c4565b9150509250929050565b600080600080608085870312156134d657600080fd5b600085013567ffffffffffffffff8111156134f057600080fd5b6134fc87828801613170565b945050602061350d878288016131c4565b935050604061351e8782880161315b565b925050606085013567ffffffffffffffff81111561353b57600080fd5b61354787828801613170565b91505092959194509250565b60006020828403121561356557600080fd5b6000613573848285016131c4565b91505092915050565b600080600080600060a0868803121561359457600080fd5b60006135a2888289016131c4565b95505060206135b388828901613146565b94505060406135c4888289016131c4565b935050606086013567ffffffffffffffff8111156135e157600080fd5b6135ed88828901613170565b925050608086013567ffffffffffffffff81111561360a57600080fd5b61361688828901613170565b9150509295509295909350565b6000806040838503121561363657600080fd5b6000613644858286016131c4565b9250506020613655858286016131c4565b9150509250929050565b61366881613c7c565b82525050565b61367781613c7c565b82525050565b61368681613c6a565b82525050565b61369581613c8e565b82525050565b6136a481613c8e565b82525050565b6136b381613ce1565b82525050565b6136c281613cad565b82525050565b60006136d382613c3d565b6136dd8185613c59565b93506136ed818560208601613d02565b6136f681613d35565b840191505092915050565b600061370c82613c32565b6137168185613c48565b9350613726818560208601613d02565b61372f81613d35565b840191505092915050565b600061374582613c32565b61374f8185613c59565b935061375f818560208601613d02565b61376881613d35565b840191505092915050565b600060c08301600083015161378b6000860182613803565b50602083015184820360208601526137a38282613701565b91505060408301516137b86040860182613803565b5060608301516137cb606086018261365f565b5060808301516137de608086018261368c565b5060a083015184820360a08601526137f68282613701565b9150508091505092915050565b61380c81613cd7565b82525050565b61381b81613cd7565b82525050565b600060208201905061383660008301846136aa565b92915050565b600060208201905081810360008301526138568184613773565b905092915050565b60006020820190506138736000830184613812565b92915050565b60006101208201905061388f600083018c613812565b61389c602083018b61367d565b6138a9604083018a61367d565b6138b6606083018961367d565b6138c36080830188613812565b6138d060a0830187613812565b81810360c08301526138e2818661373a565b905081810360e08301526138f6818561373a565b90506139066101008301846136aa565b9a9950505050505050505050565b600060e082019050613929600083018a613812565b613936602083018961367d565b8181036040830152613948818861373a565b9050818103606083015261395c818761373a565b905061396b60808301866136b9565b61397860a083018561369b565b61398560c0830184613812565b98975050505050505050565b6000610100820190506139a7600083018b613812565b6139b4602083018a61367d565b81810360408301526139c6818961373a565b905081810360608301526139da818861373a565b905081810360808301526139ee818761373a565b905081810360a0830152613a02818661373a565b9050613a1160c08301856136b9565b613a1e60e083018461369b565b9998505050505050505050565b600060c082019050613a406000830189613812565b613a4d602083018861367d565b8181036040830152613a5f818761373a565b90508181036060830152613a73818661373a565b90508181036080830152613a87818561373a565b9050613a9660a0830184613812565b979650505050505050565b600060c082019050613ab66000830189613812565b8181036020830152613ac881886136c8565b9050613ad76040830187613812565b613ae4606083018661366e565b613af1608083018561369b565b81810360a0830152613b0381846136c8565b9050979650505050505050565b600060a082019050613b256000830188613812565b8181036020830152613b37818761373a565b9050613b466040830186613812565b613b53606083018561366e565b613b60608083018461369b565b9695505050505050565b600060c082019050613b7f6000830189613812565b8181036020830152613b91818861373a565b9050613ba06040830187613812565b613bad606083018661366e565b613bba608083018561369b565b81810360a0830152613bcc818461373a565b9050979650505050505050565b6000604051905081810181811067ffffffffffffffff82111715613bfc57600080fd5b8060405250919050565b600067ffffffffffffffff821115613c1d57600080fd5b601f19601f8301169050602081019050919050565b600081519050919050565b600081519050919050565b600082825260208201905092915050565b600082825260208201905092915050565b6000613c7582613cb7565b9050919050565b6000613c8782613cb7565b9050919050565b60008115159050919050565b6000819050613ca882613d46565b919050565b6000819050919050565b600073ffffffffffffffffffffffffffffffffffffffff82169050919050565b6000819050919050565b6000613cec82613c9a565b9050919050565b82818337600083830152505050565b60005b83811015613d20578082015181840152602081019050613d05565b83811115613d2f576000848401525b50505050565b6000601f19601f8301169050919050565b60048110613d5057fe5b50565b613d5c81613c6a565b8114613d6757600080fd5b50565b613d7381613c7c565b8114613d7e57600080fd5b50565b613d8a81613c8e565b8114613d9557600080fd5b50565b613da181613cd7565b8114613dac57600080fd5b5056fea365627a7a72315820700add4c70900063569184e083730405585a92bf7c3fc9e73c0e4ec3fd3f33926c6578706572696d656e74616cf564736f6c6343000510004032204164616d2052642c202330312d303220466f6f642043656e7472652c2053696e6761706f7265203238393837364d617877656c6c20466f6f642043656e747265202330312d31302f31312c2031204b61646179616e616c6c7572205374726565742c2053696e6761706f7265203036393138345475657364617920e280932053756e6461793a203130616d20e2809320373a3330706d4d6f6e646179202d2054687572736461793a2037616d2d35706d3b205361747572646179202d2053756e6461792037616d2d33706d353020416e67204d6f204b696f2041766520322c2053696e6761706f726520363339373938",
  "source": "// SPDX-License-Identifier: Blockchain\r\n\r\npragma solidity ^0.5.4;\r\n\r\npragma experimental ABIEncoderV2;\r\n\r\ncontract Marketplace {\r\n    //constructor\r\n    constructor() public {\r\n        addHawker(\r\n            0x73c005D4B234C63F416F6e1038C011D55edDBF1e,\r\n            \"Selera Rasa Nasi Lemak\",\r\n            \"2 Adam Rd, #01-02 Food Centre, Singapore 289876\",\r\n            \"Monday - Thursday: 7am-5pm; Saturday - Sunday 7am-3pm\",\r\n            \"98434509\",\r\n            false\r\n        );\r\n        addHawker(\r\n            0x87ECEE1454A7b32253A9020F6ae1FF25e9CE35B5,\r\n            \"Tian Tian Hainanese Chicken Rice\",\r\n            \"Maxwell Food Centre #01-10/11, 1 Kadayanallur Street, Singapore 069184\",\r\n            \"Tuesday  Sunday: 10am  7:30pm\",\r\n            \"96914852\",\r\n            false\r\n        );\r\n        addCustomer(\r\n            0xC9342f12d49ca9e40d600eBF17266DcCc88a0639,\r\n            \"Casuarina\",\r\n            \"50 Nanyang Ave, Singapore 639798\",\r\n            \"98765432\"\r\n        );\r\n        addCustomer(\r\n            0x7C2eA58a210F8e7c80fdeB6788C1D5Fc4a3E73ba,\r\n            \"Patrick\",\r\n            \"50 Ang Mo Kio Ave 2, Singapore 639798\",\r\n            \"91234567\"\r\n        );\r\n        addFoodDelivery(\r\n            0x66f8f66996aaB36b041b1cAdA9f20864a0C42698,\r\n            \"Leo Tan\",\r\n            \"90123456\",\r\n            false\r\n        );\r\n    }\r\n\r\n    //FOOD DELIVERY\r\n    struct FoodDelivery {\r\n        uint256 id;\r\n        address owner;\r\n        string name;\r\n        string phone;\r\n        int256 rating;\r\n        bool available;\r\n        mapping(uint256 => Order) ordersAccepted;\r\n        uint256 ordersAcceptedCount;\r\n    }\r\n\r\n    // Read/write Food Delivery\r\n    mapping(uint256 => FoodDelivery) public foodDeliveries;\r\n    //Store Food Delivery Count\r\n    uint256 public foodDeliveriesCount;\r\n\r\n    //add new food delivery\r\n    function addFoodDelivery(\r\n        address _owner,\r\n        string memory _name,\r\n        string memory _phone,\r\n        bool _available\r\n    ) public {\r\n        foodDeliveriesCount++;\r\n        foodDeliveries[foodDeliveriesCount] = FoodDelivery(\r\n            foodDeliveriesCount,\r\n            _owner,\r\n            _name,\r\n            _phone,\r\n            5,\r\n            _available,\r\n            0\r\n        );\r\n    }\r\n\r\n    //HAWKER\r\n    struct Hawker {\r\n        uint256 id;\r\n        address owner;\r\n        string name;\r\n        string addressLocation;\r\n        string openingHours;\r\n        string phone;\r\n        int256 rating;\r\n        bool open;\r\n    }\r\n    // Read/write Hawkers\r\n    mapping(uint256 => Hawker) public hawkers;\r\n    //Store Hawkers Count\r\n    uint256 public hawkersCount;\r\n\r\n    function addHawker(\r\n        address _owner,\r\n        string memory _name,\r\n        string memory _addressLocation,\r\n        string memory _openingHours,\r\n        string memory _phone,\r\n        bool _open\r\n    ) public {\r\n        hawkersCount++;\r\n        hawkers[hawkersCount] = Hawker(\r\n            hawkersCount,\r\n            _owner,\r\n            _name,\r\n            _addressLocation,\r\n            _openingHours,\r\n            _phone,\r\n            5,\r\n            _open\r\n        );\r\n    }\r\n\r\n    function editHawkerProfile(string memory _phone, string memory _OH) public {\r\n        uint256 i = 0;\r\n        for (i = 0; i <= hawkersCount; i++) {\r\n            if (hawkers[i].owner == msg.sender) {\r\n                hawkers[i].phone = _phone;\r\n                hawkers[i].openingHours = _OH;\r\n            }\r\n        }\r\n    }\r\n\r\n    //change shop status\r\n    function boolOpen() public {\r\n        uint256 i = 0;\r\n        for (i = 0; i <= hawkersCount; i++) {\r\n            if (hawkers[i].owner == msg.sender) {\r\n                hawkers[i].open = !(hawkers[i].open);\r\n            }\r\n        }\r\n    }\r\n\r\n    //change food delivery status\r\n    function boolWork() public {\r\n        uint256 i = 0;\r\n        for (i = 0; i <= foodDeliveriesCount; i++) {\r\n            if (foodDeliveries[i].owner == msg.sender) {\r\n                foodDeliveries[i].available = !(foodDeliveries[i].available);\r\n            }\r\n        }\r\n    }\r\n\r\n    //SUPPLIER\r\n    uint256 public suppProdCount = 0;\r\n    mapping(uint256 => SuppProduct) public suppProducts;\r\n    struct SuppProduct {\r\n        uint256 id;\r\n        string name;\r\n        uint256 price;\r\n        address payable owner; //when listing, the owner will be the seller. when buying, the owner will change from the seller to the buyer\r\n        bool purchased;\r\n    }\r\n\r\n    //Restaurants products\r\n    uint256 public restProdCount = 0;\r\n    mapping(uint256 => RestProduct) public restProducts;\r\n    struct RestProduct {\r\n        uint256 id;\r\n        string name;\r\n        uint256 price;\r\n        address payable owner;\r\n        bool published;\r\n        string imageHash;\r\n    }\r\n\r\n    struct RestProfile {\r\n        uint256 id;\r\n        string name;\r\n        string category;\r\n        string location;\r\n        string deliveryHours;\r\n        address payable owner;\r\n        string reviews;\r\n        uint256 rating;\r\n    }\r\n\r\n    event ProductCreated(\r\n        uint256 id,\r\n        string name,\r\n        uint256 price,\r\n        address payable owner,\r\n        bool purchased,\r\n        string imageHash\r\n    );\r\n\r\n    event ProductPurchased(\r\n        uint256 id,\r\n        string name,\r\n        uint256 price,\r\n        address payable owner,\r\n        bool purchased\r\n    );\r\n\r\n    //parameter _price is expressed in Ethereum cryptocurrency - Ether\r\n    //whenever we store Ether in the blockchain, we store it as Wei (smallest denomination of Ether )\r\n    //can check it on etherconverter.online\r\n    function createSuppProduct(string memory _name, uint256 _price) public {\r\n        // Require a valid name\r\n        require(bytes(_name).length > 0);\r\n        // Require a valid price\r\n        require(_price > 0);\r\n        // Increment product count\r\n        suppProdCount++;\r\n        // Create the product --- msg.sender is the one who accessed the function\r\n        suppProducts[suppProdCount] = SuppProduct(\r\n            suppProdCount,\r\n            _name,\r\n            _price,\r\n            msg.sender,\r\n            false\r\n        );\r\n        // Trigger an event\r\n        emit ProductCreated(\r\n            suppProdCount,\r\n            _name,\r\n            _price,\r\n            msg.sender,\r\n            false,\r\n            _name\r\n        );\r\n    }\r\n\r\n    function createRestProduct(\r\n        string memory _name,\r\n        uint256 _price,\r\n        bool _published,\r\n        string memory _imageHash\r\n    ) public {\r\n        // Require a valid name\r\n        require(bytes(_name).length > 0);\r\n        // Require a valid price\r\n        require(_price > 0);\r\n        // Increment product count\r\n        restProdCount++;\r\n        // Create the product --- msg.sender is the one who accessed the function\r\n        restProducts[restProdCount] = RestProduct(\r\n            restProdCount,\r\n            _name,\r\n            _price,\r\n            msg.sender,\r\n            _published,\r\n            _imageHash\r\n        );\r\n        // Trigger an event\r\n        emit ProductCreated(\r\n            restProdCount,\r\n            _name,\r\n            _price,\r\n            msg.sender,\r\n            _published,\r\n            _imageHash\r\n        );\r\n    }\r\n\r\n    //ORDERS\r\n    enum Status {\r\n        OrderPlaced,\r\n        OrderConfirm,\r\n        DriverConfirm,\r\n        OrderCompleted\r\n    }\r\n    Status public state;\r\n\r\n    struct Order {\r\n        uint256 id;\r\n        address owner;\r\n        address seller;\r\n        address driver;\r\n        uint256 totalPrice;\r\n        mapping(uint256 => CartItem) purchasedItemId;\r\n        uint256 purchasedItemCount;\r\n        string date;\r\n        string time;\r\n        Status state;\r\n    }\r\n\r\n    mapping(uint256 => Order) public orders;\r\n    uint256 public ordersCount;\r\n\r\n    struct CartItem {\r\n        uint256 id;\r\n        uint256 productId;\r\n    }\r\n\r\n    //CUSTOMER\r\n    struct Customer {\r\n        uint256 id;\r\n        address owner;\r\n        string name;\r\n        string addressLocation;\r\n        string phone;\r\n        mapping(uint256 => CartItem) cartItems;\r\n        uint256 itemCount;\r\n    }\r\n\r\n    mapping(uint256 => Customer) public customers;\r\n    uint256 public customersCount;\r\n\r\n    function addCustomer(\r\n        address _owner,\r\n        string memory _name,\r\n        string memory _addressLocation,\r\n        string memory _phone\r\n    ) public {\r\n        customersCount++;\r\n        //CartItem[] memory cartItems;\r\n        customers[customersCount] = Customer(\r\n            customersCount,\r\n            _owner,\r\n            _name,\r\n            _addressLocation,\r\n            _phone,\r\n            0\r\n        );\r\n    }\r\n\r\n    function editCustProfile(string memory _phone, string memory _address)\r\n        public\r\n    {\r\n        uint256 i = 0;\r\n        for (i = 0; i <= customersCount; i++) {\r\n            if (customers[i].owner == msg.sender) {\r\n                customers[i].phone = _phone;\r\n                customers[i].addressLocation = _address;\r\n            }\r\n        }\r\n    }\r\n\r\n    function addToCart(uint256 _id) public {\r\n        uint256 i = 0;\r\n        for (i = 0; i <= customersCount; i++) {\r\n            if (customers[i].owner == msg.sender) {\r\n                (customers[i].itemCount)++;\r\n                customers[i].cartItems[customers[i].itemCount] = CartItem(\r\n                    customers[i].itemCount,\r\n                    _id\r\n                );\r\n            }\r\n        }\r\n    }\r\n\r\n    function removeProdCart(uint256 custId, uint256 cartId) public {\r\n        Customer storage cust = customers[custId];\r\n        (cust.itemCount)--;\r\n        delete cust.cartItems[cartId];\r\n    }\r\n\r\n    function removeAllProdCart(uint256 custId) public {\r\n        Customer storage cust = customers[custId];\r\n        uint256 _itemCount = cust.itemCount;\r\n        for (uint256 i = 1; i <= _itemCount; i++) {\r\n            delete cust.cartItems[i];\r\n        }\r\n        (cust.itemCount) = 0;\r\n    }\r\n\r\n    function getCartProduct(uint256 custId, uint256 cartId)\r\n        public\r\n        returns (uint256)\r\n    {\r\n        Customer storage cust = customers[custId];\r\n        return (cust.cartItems[cartId].productId);\r\n    }\r\n\r\n    function getOrderProduct(uint256 orderId, uint256 cartId)\r\n        public\r\n        returns (RestProduct memory)\r\n    {\r\n        Order storage ord = orders[orderId];\r\n        uint256 prodId = ord.purchasedItemId[cartId].productId;\r\n        RestProduct memory _product = restProducts[prodId];\r\n        return (_product);\r\n    }\r\n\r\n    function purchaseProduct(\r\n        uint256 _custId,\r\n        address payable _seller,\r\n        uint256 _totalCost,\r\n        string memory _date,\r\n        string memory _time\r\n    ) public payable {\r\n        Customer memory cust = customers[_custId];\r\n        // Increment order count\r\n        ordersCount++;\r\n        // Create the enum\r\n        state = Status.OrderPlaced;\r\n\r\n        // Create the order\r\n        orders[ordersCount] = Order(\r\n            ordersCount,\r\n            cust.owner,\r\n            _seller,\r\n            address(0),\r\n            _totalCost,\r\n            cust.itemCount,\r\n            _date,\r\n            _time,\r\n            state\r\n        );\r\n\r\n        //add the items in cartItems(Customer structure) to purchasedItemId (Order structure)\r\n        for (uint256 i = 1; i <= cust.itemCount; i++) {\r\n            uint256 item = getCartProduct(_custId, i);\r\n            orders[ordersCount].purchasedItemId[i] = CartItem(i, item);\r\n        }\r\n\r\n        //Pay the seller by sending them Ether\r\n        address(_seller).transfer(msg.value);\r\n\r\n        //remove the CartItem in the Customer id\r\n        removeAllProdCart(_custId);\r\n    }\r\n\r\n    //hawker confirms order transaction made by customer\r\n    function hawkerConfirmOrder(uint256 _orderId) public {\r\n        uint256 i = 0;\r\n        for (i = 0; i <= ordersCount; i++) {\r\n            if (orders[i].id == _orderId) {\r\n                orders[i].state = Status.OrderConfirm;\r\n            }\r\n        }\r\n    }\r\n\r\n    //food delivery accepts order delivery\r\n    function fdAcceptOrder(uint256 _orderId) public {\r\n        //set orderId state to DriverConfirm\r\n        uint256 i = 0;\r\n        for (i = 0; i <= ordersCount; i++) {\r\n            if (orders[i].id == _orderId) {\r\n                orders[i].state = Status.DriverConfirm;\r\n                orders[i].driver = msg.sender;\r\n            }\r\n        }\r\n\r\n        Order memory _order = orders[_orderId];\r\n        address _owner = _order.owner;\r\n        address _seller = _order.seller;\r\n        uint256 _totalPrice = _order.totalPrice;\r\n        uint256 _purchasedItemCount = _order.purchasedItemCount;\r\n        string memory _date = _order.date;\r\n        string memory _time = _order.time;\r\n        Status _state = _order.state;\r\n\r\n        //add the order to the acceptedOrder mapping for the fd\r\n        uint256 k = 0;\r\n        for (k = 0; k <= foodDeliveriesCount; k++) {\r\n            if (foodDeliveries[k].owner == msg.sender) {\r\n                (foodDeliveries[k].ordersAcceptedCount)++;\r\n                foodDeliveries[k].ordersAccepted[\r\n                    foodDeliveries[k].ordersAcceptedCount\r\n                ] = Order(\r\n                    foodDeliveries[k].ordersAcceptedCount,\r\n                    _owner,\r\n                    _seller,\r\n                    msg.sender,\r\n                    _totalPrice,\r\n                    _purchasedItemCount,\r\n                    _date,\r\n                    _time,\r\n                    _state\r\n                );\r\n            }\r\n        }\r\n    }\r\n\r\n    //food delivery completes order delivery\r\n    function fdCompleteOrder(uint256 _orderId) public {\r\n        //set orderId state to OrderCompleted\r\n        uint256 i = 0;\r\n        for (i = 0; i <= ordersCount; i++) {\r\n            if (orders[i].id == _orderId) {\r\n                orders[i].state = Status.OrderCompleted;\r\n            }\r\n        }\r\n    }\r\n\r\n    // function purchaseProduct(uint256 _id) public payable {\r\n    //     //Fetch the product\r\n    //     Product memory _product = products[_id];\r\n    //     //Fetch the owner\r\n    //     address payable _seller = _product.owner;\r\n    //     //Make sure the product has a valid id\r\n    //     //require(_product.id > 0 && _product.id <= productCount); ---> need to change\r\n    //     //Require that there is enough Ether in the transaction\r\n    //     require(msg.value >= _product.price);\r\n    //     //Require that the product has not been purchased already\r\n    //     require(!_product.purchased);\r\n    //     //Require that the buyer is not the seller\r\n    //     require(_seller != msg.sender);\r\n    //     //Transfer ownership to the buyer\r\n    //     _product.owner = msg.sender;\r\n    //     //Mark as purchased\r\n    //     _product.purchased = true;\r\n    //     //Update the product\r\n    //     products[_id] = _product;\r\n    //     //Pay the seller by sending them Ether\r\n    //     address(_seller).transfer(msg.value);\r\n\r\n    //     //Trigger an event\r\n    //     emit ProductPurchased(\r\n    //         productCount,\r\n    //         _product.name,\r\n    //         _product.price,\r\n    //         msg.sender,\r\n    //         true\r\n    //     );\r\n    // }\r\n}\r\n",
  "sourcePath": "C:/Users/Casuarina/Desktop/FYP_FoodIndustry/blockchain/src/contracts/Marketplace.sol",
  "compiler": {
    "name": "solc",
    "version": "0.5.16+commit.9c3226ce.Emscripten.clang"
  },
  "schemaVersion": "3.4.1",
  "updatedAt": "2021-07-14T14:44:40.000Z",
  "networkType": "ethereum",
  "devdoc": {
    "methods": {}
  },
  "userdoc": {
    "methods": {}
  }
}