{
  "contractName": "Marketplace",
  "abi": [
    {
      "inputs": [],
      "payable": false,
      "stateMutability": "nonpayable",
      "type": "constructor"
    },
    {
      "anonymous": false,
      "inputs": [
        {
          "indexed": false,
          "internalType": "uint256",
          "name": "id",
          "type": "uint256"
        },
        {
          "indexed": false,
          "internalType": "string",
          "name": "name",
          "type": "string"
        },
        {
          "indexed": false,
          "internalType": "uint256",
          "name": "price",
          "type": "uint256"
        },
        {
          "indexed": false,
          "internalType": "address payable",
          "name": "owner",
          "type": "address"
        },
        {
          "indexed": false,
          "internalType": "bool",
          "name": "purchased",
          "type": "bool"
        },
        {
          "indexed": false,
          "internalType": "string",
          "name": "imageHash",
          "type": "string"
        }
      ],
      "name": "ProductCreated",
      "type": "event"
    },
    {
      "anonymous": false,
      "inputs": [
        {
          "indexed": false,
          "internalType": "uint256",
          "name": "id",
          "type": "uint256"
        },
        {
          "indexed": false,
          "internalType": "string",
          "name": "name",
          "type": "string"
        },
        {
          "indexed": false,
          "internalType": "uint256",
          "name": "price",
          "type": "uint256"
        },
        {
          "indexed": false,
          "internalType": "address payable",
          "name": "owner",
          "type": "address"
        },
        {
          "indexed": false,
          "internalType": "bool",
          "name": "purchased",
          "type": "bool"
        }
      ],
      "name": "ProductPurchased",
      "type": "event"
    },
    {
      "constant": true,
      "inputs": [
        {
          "internalType": "uint256",
          "name": "",
          "type": "uint256"
        }
      ],
      "name": "customers",
      "outputs": [
        {
          "internalType": "uint256",
          "name": "id",
          "type": "uint256"
        },
        {
          "internalType": "address",
          "name": "owner",
          "type": "address"
        },
        {
          "internalType": "string",
          "name": "name",
          "type": "string"
        },
        {
          "internalType": "string",
          "name": "addressLocation",
          "type": "string"
        },
        {
          "internalType": "string",
          "name": "phone",
          "type": "string"
        },
        {
          "internalType": "uint256",
          "name": "itemCount",
          "type": "uint256"
        }
      ],
      "payable": false,
      "stateMutability": "view",
      "type": "function"
    },
    {
      "constant": true,
      "inputs": [],
      "name": "customersCount",
      "outputs": [
        {
          "internalType": "uint256",
          "name": "",
          "type": "uint256"
        }
      ],
      "payable": false,
      "stateMutability": "view",
      "type": "function"
    },
    {
      "constant": true,
      "inputs": [
        {
          "internalType": "uint256",
          "name": "",
          "type": "uint256"
        }
      ],
      "name": "foodDeliveries",
      "outputs": [
        {
          "internalType": "uint256",
          "name": "id",
          "type": "uint256"
        },
        {
          "internalType": "address",
          "name": "owner",
          "type": "address"
        },
        {
          "internalType": "string",
          "name": "name",
          "type": "string"
        },
        {
          "internalType": "string",
          "name": "phone",
          "type": "string"
        },
        {
          "internalType": "int256",
          "name": "rating",
          "type": "int256"
        },
        {
          "internalType": "bool",
          "name": "available",
          "type": "bool"
        },
        {
          "internalType": "uint256",
          "name": "ordersAcceptedCount",
          "type": "uint256"
        }
      ],
      "payable": false,
      "stateMutability": "view",
      "type": "function"
    },
    {
      "constant": true,
      "inputs": [],
      "name": "foodDeliveriesCount",
      "outputs": [
        {
          "internalType": "uint256",
          "name": "",
          "type": "uint256"
        }
      ],
      "payable": false,
      "stateMutability": "view",
      "type": "function"
    },
    {
      "constant": true,
      "inputs": [
        {
          "internalType": "uint256",
          "name": "",
          "type": "uint256"
        }
      ],
      "name": "hawkers",
      "outputs": [
        {
          "internalType": "uint256",
          "name": "id",
          "type": "uint256"
        },
        {
          "internalType": "address",
          "name": "owner",
          "type": "address"
        },
        {
          "internalType": "string",
          "name": "name",
          "type": "string"
        },
        {
          "internalType": "string",
          "name": "addressLocation",
          "type": "string"
        },
        {
          "internalType": "string",
          "name": "openingHours",
          "type": "string"
        },
        {
          "internalType": "string",
          "name": "phone",
          "type": "string"
        },
        {
          "internalType": "int256",
          "name": "rating",
          "type": "int256"
        },
        {
          "internalType": "bool",
          "name": "open",
          "type": "bool"
        }
      ],
      "payable": false,
      "stateMutability": "view",
      "type": "function"
    },
    {
      "constant": true,
      "inputs": [],
      "name": "hawkersCount",
      "outputs": [
        {
          "internalType": "uint256",
          "name": "",
          "type": "uint256"
        }
      ],
      "payable": false,
      "stateMutability": "view",
      "type": "function"
    },
    {
      "constant": true,
      "inputs": [
        {
          "internalType": "uint256",
          "name": "",
          "type": "uint256"
        }
      ],
      "name": "orders",
      "outputs": [
        {
          "internalType": "uint256",
          "name": "id",
          "type": "uint256"
        },
        {
          "internalType": "address",
          "name": "owner",
          "type": "address"
        },
        {
          "internalType": "address",
          "name": "seller",
          "type": "address"
        },
        {
          "internalType": "uint256",
          "name": "totalPrice",
          "type": "uint256"
        },
        {
          "internalType": "uint256",
          "name": "purchasedItemCount",
          "type": "uint256"
        },
        {
          "internalType": "string",
          "name": "date",
          "type": "string"
        },
        {
          "internalType": "string",
          "name": "time",
          "type": "string"
        },
        {
          "internalType": "enum Marketplace.Status",
          "name": "state",
          "type": "uint8"
        }
      ],
      "payable": false,
      "stateMutability": "view",
      "type": "function"
    },
    {
      "constant": true,
      "inputs": [],
      "name": "ordersCount",
      "outputs": [
        {
          "internalType": "uint256",
          "name": "",
          "type": "uint256"
        }
      ],
      "payable": false,
      "stateMutability": "view",
      "type": "function"
    },
    {
      "constant": true,
      "inputs": [],
      "name": "restProdCount",
      "outputs": [
        {
          "internalType": "uint256",
          "name": "",
          "type": "uint256"
        }
      ],
      "payable": false,
      "stateMutability": "view",
      "type": "function"
    },
    {
      "constant": true,
      "inputs": [
        {
          "internalType": "uint256",
          "name": "",
          "type": "uint256"
        }
      ],
      "name": "restProducts",
      "outputs": [
        {
          "internalType": "uint256",
          "name": "id",
          "type": "uint256"
        },
        {
          "internalType": "string",
          "name": "name",
          "type": "string"
        },
        {
          "internalType": "uint256",
          "name": "price",
          "type": "uint256"
        },
        {
          "internalType": "address payable",
          "name": "owner",
          "type": "address"
        },
        {
          "internalType": "bool",
          "name": "purchased",
          "type": "bool"
        },
        {
          "internalType": "string",
          "name": "imageHash",
          "type": "string"
        }
      ],
      "payable": false,
      "stateMutability": "view",
      "type": "function"
    },
    {
      "constant": true,
      "inputs": [],
      "name": "state",
      "outputs": [
        {
          "internalType": "enum Marketplace.Status",
          "name": "",
          "type": "uint8"
        }
      ],
      "payable": false,
      "stateMutability": "view",
      "type": "function"
    },
    {
      "constant": true,
      "inputs": [],
      "name": "suppProdCount",
      "outputs": [
        {
          "internalType": "uint256",
          "name": "",
          "type": "uint256"
        }
      ],
      "payable": false,
      "stateMutability": "view",
      "type": "function"
    },
    {
      "constant": true,
      "inputs": [
        {
          "internalType": "uint256",
          "name": "",
          "type": "uint256"
        }
      ],
      "name": "suppProducts",
      "outputs": [
        {
          "internalType": "uint256",
          "name": "id",
          "type": "uint256"
        },
        {
          "internalType": "string",
          "name": "name",
          "type": "string"
        },
        {
          "internalType": "uint256",
          "name": "price",
          "type": "uint256"
        },
        {
          "internalType": "address payable",
          "name": "owner",
          "type": "address"
        },
        {
          "internalType": "bool",
          "name": "purchased",
          "type": "bool"
        }
      ],
      "payable": false,
      "stateMutability": "view",
      "type": "function"
    },
    {
      "constant": false,
      "inputs": [
        {
          "internalType": "address",
          "name": "_owner",
          "type": "address"
        },
        {
          "internalType": "string",
          "name": "_name",
          "type": "string"
        },
        {
          "internalType": "string",
          "name": "_phone",
          "type": "string"
        },
        {
          "internalType": "bool",
          "name": "_available",
          "type": "bool"
        }
      ],
      "name": "addFoodDelivery",
      "outputs": [],
      "payable": false,
      "stateMutability": "nonpayable",
      "type": "function"
    },
    {
      "constant": false,
      "inputs": [
        {
          "internalType": "address",
          "name": "_owner",
          "type": "address"
        },
        {
          "internalType": "string",
          "name": "_name",
          "type": "string"
        },
        {
          "internalType": "string",
          "name": "_addressLocation",
          "type": "string"
        },
        {
          "internalType": "string",
          "name": "_openingHours",
          "type": "string"
        },
        {
          "internalType": "string",
          "name": "_phone",
          "type": "string"
        },
        {
          "internalType": "bool",
          "name": "_open",
          "type": "bool"
        }
      ],
      "name": "addHawker",
      "outputs": [],
      "payable": false,
      "stateMutability": "nonpayable",
      "type": "function"
    },
    {
      "constant": false,
      "inputs": [
        {
          "internalType": "string",
          "name": "_phone",
          "type": "string"
        },
        {
          "internalType": "string",
          "name": "_OH",
          "type": "string"
        }
      ],
      "name": "editHawkerProfile",
      "outputs": [],
      "payable": false,
      "stateMutability": "nonpayable",
      "type": "function"
    },
    {
      "constant": false,
      "inputs": [],
      "name": "boolOpen",
      "outputs": [],
      "payable": false,
      "stateMutability": "nonpayable",
      "type": "function"
    },
    {
      "constant": false,
      "inputs": [],
      "name": "boolWork",
      "outputs": [],
      "payable": false,
      "stateMutability": "nonpayable",
      "type": "function"
    },
    {
      "constant": false,
      "inputs": [
        {
          "internalType": "string",
          "name": "_name",
          "type": "string"
        },
        {
          "internalType": "uint256",
          "name": "_price",
          "type": "uint256"
        }
      ],
      "name": "createSuppProduct",
      "outputs": [],
      "payable": false,
      "stateMutability": "nonpayable",
      "type": "function"
    },
    {
      "constant": false,
      "inputs": [
        {
          "internalType": "string",
          "name": "_name",
          "type": "string"
        },
        {
          "internalType": "uint256",
          "name": "_price",
          "type": "uint256"
        },
        {
          "internalType": "string",
          "name": "_imageHash",
          "type": "string"
        }
      ],
      "name": "createRestProduct",
      "outputs": [],
      "payable": false,
      "stateMutability": "nonpayable",
      "type": "function"
    },
    {
      "constant": false,
      "inputs": [
        {
          "internalType": "address",
          "name": "_owner",
          "type": "address"
        },
        {
          "internalType": "string",
          "name": "_name",
          "type": "string"
        },
        {
          "internalType": "string",
          "name": "_addressLocation",
          "type": "string"
        },
        {
          "internalType": "string",
          "name": "_phone",
          "type": "string"
        }
      ],
      "name": "addCustomer",
      "outputs": [],
      "payable": false,
      "stateMutability": "nonpayable",
      "type": "function"
    },
    {
      "constant": false,
      "inputs": [
        {
          "internalType": "string",
          "name": "_phone",
          "type": "string"
        },
        {
          "internalType": "string",
          "name": "_address",
          "type": "string"
        }
      ],
      "name": "editCustProfile",
      "outputs": [],
      "payable": false,
      "stateMutability": "nonpayable",
      "type": "function"
    },
    {
      "constant": false,
      "inputs": [
        {
          "internalType": "uint256",
          "name": "_id",
          "type": "uint256"
        }
      ],
      "name": "addToCart",
      "outputs": [],
      "payable": false,
      "stateMutability": "nonpayable",
      "type": "function"
    },
    {
      "constant": false,
      "inputs": [
        {
          "internalType": "uint256",
          "name": "custId",
          "type": "uint256"
        },
        {
          "internalType": "uint256",
          "name": "cartId",
          "type": "uint256"
        }
      ],
      "name": "removeProdCart",
      "outputs": [],
      "payable": false,
      "stateMutability": "nonpayable",
      "type": "function"
    },
    {
      "constant": false,
      "inputs": [
        {
          "internalType": "uint256",
          "name": "custId",
          "type": "uint256"
        }
      ],
      "name": "removeAllProdCart",
      "outputs": [],
      "payable": false,
      "stateMutability": "nonpayable",
      "type": "function"
    },
    {
      "constant": false,
      "inputs": [
        {
          "internalType": "uint256",
          "name": "custId",
          "type": "uint256"
        },
        {
          "internalType": "uint256",
          "name": "cartId",
          "type": "uint256"
        }
      ],
      "name": "getCartProduct",
      "outputs": [
        {
          "internalType": "uint256",
          "name": "",
          "type": "uint256"
        }
      ],
      "payable": false,
      "stateMutability": "nonpayable",
      "type": "function"
    },
    {
      "constant": false,
      "inputs": [
        {
          "internalType": "uint256",
          "name": "orderId",
          "type": "uint256"
        },
        {
          "internalType": "uint256",
          "name": "cartId",
          "type": "uint256"
        }
      ],
      "name": "getOrderProduct",
      "outputs": [
        {
          "components": [
            {
              "internalType": "uint256",
              "name": "id",
              "type": "uint256"
            },
            {
              "internalType": "string",
              "name": "name",
              "type": "string"
            },
            {
              "internalType": "uint256",
              "name": "price",
              "type": "uint256"
            },
            {
              "internalType": "address payable",
              "name": "owner",
              "type": "address"
            },
            {
              "internalType": "bool",
              "name": "purchased",
              "type": "bool"
            },
            {
              "internalType": "string",
              "name": "imageHash",
              "type": "string"
            }
          ],
          "internalType": "struct Marketplace.RestProduct",
          "name": "",
          "type": "tuple"
        }
      ],
      "payable": false,
      "stateMutability": "nonpayable",
      "type": "function"
    },
    {
      "constant": false,
      "inputs": [
        {
          "internalType": "uint256",
          "name": "_custId",
          "type": "uint256"
        },
        {
          "internalType": "address payable",
          "name": "_seller",
          "type": "address"
        },
        {
          "internalType": "uint256",
          "name": "_totalCost",
          "type": "uint256"
        },
        {
          "internalType": "string",
          "name": "_date",
          "type": "string"
        },
        {
          "internalType": "string",
          "name": "_time",
          "type": "string"
        }
      ],
      "name": "purchaseProduct",
      "outputs": [],
      "payable": true,
      "stateMutability": "payable",
      "type": "function"
    },
    {
      "constant": false,
      "inputs": [
        {
          "internalType": "uint256",
          "name": "_orderId",
          "type": "uint256"
        }
      ],
      "name": "hawkerConfirmOrder",
      "outputs": [],
      "payable": false,
      "stateMutability": "nonpayable",
      "type": "function"
    }
  ],
  "bytecode": "0x6080604052600060045560006006553480156200001b57600080fd5b50620000e37373c005d4b234c63f416f6e1038c011d55eddbf1e6040518060400160405280601681526020017f53656c6572612052617361204e617369204c656d616b000000000000000000008152506040518060600160405280602f815260200162003d70602f913960405180606001604052806035815260200162003e08603591396040518060400160405280600881526020017f39383433343530390000000000000000000000000000000000000000000000008152506000620003b560201b60201c565b620001aa7387ecee1454a7b32253a9020f6ae1ff25e9ce35b56040518060400160405280602081526020017f5469616e205469616e204861696e616e65736520436869636b656e205269636581525060405180608001604052806046815260200162003d9f6046913960405180606001604052806023815260200162003de5602391396040518060400160405280600881526020017f39363931343835320000000000000000000000000000000000000000000000008152506000620003b560201b60201c565b6200027173c9342f12d49ca9e40d600ebf17266dccc88a06396040518060400160405280600981526020017f436173756172696e6100000000000000000000000000000000000000000000008152506040518060400160405280602081526020017f3530204e616e79616e67204176652c2053696e6761706f7265203633393739388152506040518060400160405280600881526020017f39383736353433320000000000000000000000000000000000000000000000008152506200053360201b60201c565b6200031c737c2ea58a210f8e7c80fdeb6788c1d5fc4a3e73ba6040518060400160405280600781526020017f5061747269636b0000000000000000000000000000000000000000000000000081525060405180606001604052806025815260200162003e3d602591396040518060400160405280600881526020017f39313233343536370000000000000000000000000000000000000000000000008152506200053360201b60201c565b620003af7366f8f66996aab36b041b1cada9f20864a0c426986040518060400160405280600781526020017f4c656f2054616e000000000000000000000000000000000000000000000000008152506040518060400160405280600881526020017f393031323334353600000000000000000000000000000000000000000000000081525060006200066160201b60201c565b62000851565b60036000815480929190600101919050555060405180610100016040528060035481526020018773ffffffffffffffffffffffffffffffffffffffff168152602001868152602001858152602001848152602001838152602001600581526020018215158152506002600060035481526020019081526020016000206000820151816000015560208201518160010160006101000a81548173ffffffffffffffffffffffffffffffffffffffff021916908373ffffffffffffffffffffffffffffffffffffffff1602179055506040820151816002019080519060200190620004a0929190620007a2565b506060820151816003019080519060200190620004bf929190620007a2565b506080820151816004019080519060200190620004de929190620007a2565b5060a0820151816005019080519060200190620004fd929190620007a2565b5060c0820151816006015560e08201518160070160006101000a81548160ff021916908315150217905550905050505050505050565b600c600081548092919060010191905055506040518060c00160405280600c5481526020018573ffffffffffffffffffffffffffffffffffffffff1681526020018481526020018381526020018281526020016000815250600b6000600c5481526020019081526020016000206000820151816000015560208201518160010160006101000a81548173ffffffffffffffffffffffffffffffffffffffff021916908373ffffffffffffffffffffffffffffffffffffffff16021790555060408201518160020190805190602001906200060f929190620007a2565b5060608201518160030190805190602001906200062e929190620007a2565b5060808201518160040190805190602001906200064d929190620007a2565b5060a0820151816006015590505050505050565b6001600081548092919060010191905055506040518060e0016040528060015481526020018573ffffffffffffffffffffffffffffffffffffffff168152602001848152602001838152602001600581526020018215158152602001600081525060008060015481526020019081526020016000206000820151816000015560208201518160010160006101000a81548173ffffffffffffffffffffffffffffffffffffffff021916908373ffffffffffffffffffffffffffffffffffffffff160217905550604082015181600201908051906020019062000745929190620007a2565b50606082015181600301908051906020019062000764929190620007a2565b506080820151816004015560a08201518160050160006101000a81548160ff02191690831515021790555060c0820151816007015590505050505050565b828054600181600116156101000203166002900490600052602060002090601f016020900481019282601f10620007e557805160ff191683800117855562000816565b8280016001018555821562000816579182015b8281111562000815578251825591602001919060010190620007f8565b5b50905062000825919062000829565b5090565b6200084e91905b808211156200084a57600081600090555060010162000830565b5090565b90565b61350f80620008616000396000f3fe6080604052600436106101c25760003560e01c80639d0d6f8b116100f7578063c0abda2a11610095578063e16f14e211610064578063e16f14e21461065f578063e6f65b4c146106a0578063f0eab430146106cb578063f89e7697146106f4576101c2565b8063c0abda2a1461058c578063c19d93fb146105ce578063c6705e9f146105f9578063db3a0abd14610636576101c2565b8063abed579f116100d1578063abed579f146104cd578063afc7c2361461050f578063b0fd5c4614610538578063bc3704f214610563576101c2565b80639d0d6f8b14610435578063a85c38ef1461045e578063a9937b22146104a2576101c2565b80633be94d4711610164578063623eb0d21161013e578063623eb0d21461038f578063702742b0146103b85780637078b09a146103e1578063757a27031461040a576101c2565b80633be94d471461030b5780634244c3d41461034f5780634937f2a714610378576101c2565b80630c21a8d2116101a05780630c21a8d21461024f5780631460953c1461027a578063278e381c146102a357806335daa731146102e0576101c2565b80630710f1f1146101c7578063093c05fa146101e35780630b90cd2814610226575b600080fd5b6101e160048036036101dc9190810190612ca8565b61070b565b005b3480156101ef57600080fd5b5061020a60048036036102059190810190612c7f565b610c46565b60405161021d9796959493929190613031565b60405180910390f35b34801561023257600080fd5b5061024d60048036036102489190810190612b40565b610de5565b005b34801561025b57600080fd5b50610264610ecb565b6040516102719190612f8a565b60405180910390f35b34801561028657600080fd5b506102a1600480360361029c91908101906129ac565b610ed1565b005b3480156102af57600080fd5b506102ca60048036036102c59190810190612d4f565b610ff9565b6040516102d79190612f68565b60405180910390f35b3480156102ec57600080fd5b506102f5611232565b6040516103029190612f8a565b60405180910390f35b34801561031757600080fd5b50610332600480360361032d9190810190612c7f565b611238565b6040516103469897969594939291906130ae565b60405180910390f35b34801561035b57600080fd5b5061037660048036036103719190810190612d4f565b61150d565b005b34801561038457600080fd5b5061038d611566565b005b34801561039b57600080fd5b506103b660048036036103b19190810190612bac565b611643565b005b3480156103c457600080fd5b506103df60048036036103da9190810190612c7f565b6117aa565b005b3480156103ed57600080fd5b5061040860048036036104039190810190612b40565b6118de565b005b34801561041657600080fd5b5061041f6119c4565b60405161042c9190612f8a565b60405180910390f35b34801561044157600080fd5b5061045c60048036036104579190810190612c7f565b6119ca565b005b34801561046a57600080fd5b5061048560048036036104809190810190612c7f565b611a45565b604051610499989796959493929190612fa5565b60405180910390f35b3480156104ae57600080fd5b506104b7611c0a565b6040516104c49190612f8a565b60405180910390f35b3480156104d957600080fd5b506104f460048036036104ef9190810190612c7f565b611c10565b60405161050696959493929190613287565b60405180910390f35b34801561051b57600080fd5b5061053660048036036105319190810190612919565b611da9565b005b34801561054457600080fd5b5061054d611ee6565b60405161055a9190612f8a565b60405180910390f35b34801561056f57600080fd5b5061058a60048036036105859190810190612c00565b611eec565b005b34801561059857600080fd5b506105b360048036036105ae9190810190612c7f565b612077565b6040516105c596959493929190613148565b60405180910390f35b3480156105da57600080fd5b506105e361229b565b6040516105f09190612f4d565b60405180910390f35b34801561060557600080fd5b50610620600480360361061b9190810190612d4f565b6122ae565b60405161062d9190612f8a565b60405180910390f35b34801561064257600080fd5b5061065d60048036036106589190810190612a57565b6122e8565b005b34801561066b57600080fd5b5061068660048036036106819190810190612c7f565b61245e565b60405161069795949392919061322d565b60405180910390f35b3480156106ac57600080fd5b506106b5612559565b6040516106c29190612f8a565b60405180910390f35b3480156106d757600080fd5b506106f260048036036106ed9190810190612c7f565b61255f565b005b34801561070057600080fd5b506107096125d2565b005b6107136126b2565b600b60008781526020019081526020016000206040518060c0016040529081600082015481526020016001820160009054906101000a900473ffffffffffffffffffffffffffffffffffffffff1673ffffffffffffffffffffffffffffffffffffffff1673ffffffffffffffffffffffffffffffffffffffff168152602001600282018054600181600116156101000203166002900480601f01602080910402602001604051908101604052809291908181526020018280546001816001161561010002031660029004801561082a5780601f106107ff5761010080835404028352916020019161082a565b820191906000526020600020905b81548152906001019060200180831161080d57829003601f168201915b50505050508152602001600382018054600181600116156101000203166002900480601f0160208091040260200160405190810160405280929190818152602001828054600181600116156101000203166002900480156108cc5780601f106108a1576101008083540402835291602001916108cc565b820191906000526020600020905b8154815290600101906020018083116108af57829003601f168201915b50505050508152602001600482018054600181600116156101000203166002900480601f01602080910402602001604051908101604052809291908181526020018280546001816001161561010002031660029004801561096e5780601f106109435761010080835404028352916020019161096e565b820191906000526020600020905b81548152906001019060200180831161095157829003601f168201915b505050505081526020016006820154815250509050600a600081548092919060010191905055506000600860006101000a81548160ff021916908360048111156109b457fe5b0217905550604051806101000160405280600a548152602001826020015173ffffffffffffffffffffffffffffffffffffffff1681526020018673ffffffffffffffffffffffffffffffffffffffff1681526020018581526020018260a001518152602001848152602001838152602001600860009054906101000a900460ff166004811115610a4057fe5b81525060096000600a5481526020019081526020016000206000820151816000015560208201518160010160006101000a81548173ffffffffffffffffffffffffffffffffffffffff021916908373ffffffffffffffffffffffffffffffffffffffff16021790555060408201518160020160006101000a81548173ffffffffffffffffffffffffffffffffffffffff021916908373ffffffffffffffffffffffffffffffffffffffff160217905550606082015181600301556080820151816005015560a0820151816006019080519060200190610b209291906126fe565b5060c0820151816007019080519060200190610b3d9291906126fe565b5060e08201518160080160006101000a81548160ff02191690836004811115610b6257fe5b02179055509050506000600190505b8160a001518111610bed576000610b8888836122ae565b905060405180604001604052808381526020018281525060096000600a54815260200190815260200160002060040160008481526020019081526020016000206000820151816000015560208201518160010155905050508080600101915050610b71565b508473ffffffffffffffffffffffffffffffffffffffff166108fc349081150290604051600060405180830381858888f19350505050158015610c34573d6000803e3d6000fd5b50610c3e8661255f565b505050505050565b60006020528060005260406000206000915090508060000154908060010160009054906101000a900473ffffffffffffffffffffffffffffffffffffffff1690806002018054600181600116156101000203166002900480601f016020809104026020016040519081016040528092919081815260200182805460018160011615610100020316600290048015610d1e5780601f10610cf357610100808354040283529160200191610d1e565b820191906000526020600020905b815481529060010190602001808311610d0157829003601f168201915b505050505090806003018054600181600116156101000203166002900480601f016020809104026020016040519081016040528092919081815260200182805460018160011615610100020316600290048015610dbc5780601f10610d9157610100808354040283529160200191610dbc565b820191906000526020600020905b815481529060010190602001808311610d9f57829003601f168201915b5050505050908060040154908060050160009054906101000a900460ff16908060070154905087565b6000809050600090505b600c548111610ec6573373ffffffffffffffffffffffffffffffffffffffff16600b600083815260200190815260200160002060010160009054906101000a900473ffffffffffffffffffffffffffffffffffffffff1673ffffffffffffffffffffffffffffffffffffffff161415610eb95782600b60008381526020019081526020016000206004019080519060200190610e8c92919061277e565b5081600b60008381526020019081526020016000206003019080519060200190610eb792919061277e565b505b8080600101915050610def565b505050565b600c5481565b600c600081548092919060010191905055506040518060c00160405280600c5481526020018573ffffffffffffffffffffffffffffffffffffffff1681526020018481526020018381526020018281526020016000815250600b6000600c5481526020019081526020016000206000820151816000015560208201518160010160006101000a81548173ffffffffffffffffffffffffffffffffffffffff021916908373ffffffffffffffffffffffffffffffffffffffff1602179055506040820151816002019080519060200190610fab9291906126fe565b506060820151816003019080519060200190610fc89291906126fe565b506080820151816004019080519060200190610fe59291906126fe565b5060a0820151816006015590505050505050565b6110016127fe565b6000600960008581526020019081526020016000209050600081600401600085815260200190815260200160002060010154905061103d6127fe565b600760008381526020019081526020016000206040518060c001604052908160008201548152602001600182018054600181600116156101000203166002900480601f0160208091040260200160405190810160405280929190818152602001828054600181600116156101000203166002900480156110fe5780601f106110d3576101008083540402835291602001916110fe565b820191906000526020600020905b8154815290600101906020018083116110e157829003601f168201915b50505050508152602001600282015481526020016003820160009054906101000a900473ffffffffffffffffffffffffffffffffffffffff1673ffffffffffffffffffffffffffffffffffffffff1673ffffffffffffffffffffffffffffffffffffffff1681526020016003820160149054906101000a900460ff16151515158152602001600482018054600181600116156101000203166002900480601f01602080910402602001604051908101604052809291908181526020018280546001816001161561010002031660029004801561121b5780601f106111f05761010080835404028352916020019161121b565b820191906000526020600020905b8154815290600101906020018083116111fe57829003601f168201915b505050505081525050905080935050505092915050565b600a5481565b60026020528060005260406000206000915090508060000154908060010160009054906101000a900473ffffffffffffffffffffffffffffffffffffffff1690806002018054600181600116156101000203166002900480601f0160208091040260200160405190810160405280929190818152602001828054600181600116156101000203166002900480156113105780601f106112e557610100808354040283529160200191611310565b820191906000526020600020905b8154815290600101906020018083116112f357829003601f168201915b505050505090806003018054600181600116156101000203166002900480601f0160208091040260200160405190810160405280929190818152602001828054600181600116156101000203166002900480156113ae5780601f10611383576101008083540402835291602001916113ae565b820191906000526020600020905b81548152906001019060200180831161139157829003601f168201915b505050505090806004018054600181600116156101000203166002900480601f01602080910402602001604051908101604052809291908181526020018280546001816001161561010002031660029004801561144c5780601f106114215761010080835404028352916020019161144c565b820191906000526020600020905b81548152906001019060200180831161142f57829003601f168201915b505050505090806005018054600181600116156101000203166002900480601f0160208091040260200160405190810160405280929190818152602001828054600181600116156101000203166002900480156114ea5780601f106114bf576101008083540402835291602001916114ea565b820191906000526020600020905b8154815290600101906020018083116114cd57829003601f168201915b5050505050908060060154908060070160009054906101000a900460ff16905088565b6000600b6000848152602001908152602001600020905080600601600081548092919060019003919050555080600501600083815260200190815260200160002060008082016000905560018201600090555050505050565b6000809050600090505b6001548111611640573373ffffffffffffffffffffffffffffffffffffffff1660008083815260200190815260200160002060010160009054906101000a900473ffffffffffffffffffffffffffffffffffffffff1673ffffffffffffffffffffffffffffffffffffffff1614156116335760008082815260200190815260200160002060050160009054906101000a900460ff161560008083815260200190815260200160002060050160006101000a81548160ff0219169083151502179055505b8080600101915050611570565b50565b600082511161165157600080fd5b6000811161165e57600080fd5b6004600081548092919060010191905055506040518060a0016040528060045481526020018381526020018281526020013373ffffffffffffffffffffffffffffffffffffffff168152602001600015158152506005600060045481526020019081526020016000206000820151816000015560208201518160010190805190602001906116ed9291906126fe565b506040820151816002015560608201518160030160006101000a81548173ffffffffffffffffffffffffffffffffffffffff021916908373ffffffffffffffffffffffffffffffffffffffff16021790555060808201518160030160146101000a81548160ff0219169083151502179055509050507fd87ce4bfd22bad4a8ed8acd04d5670a4166b81f64fe53488db885e1987f33d8260045483833360008760405161179e969594939291906131be565b60405180910390a15050565b6000809050600090505b600c5481116118da573373ffffffffffffffffffffffffffffffffffffffff16600b600083815260200190815260200160002060010160009054906101000a900473ffffffffffffffffffffffffffffffffffffffff1673ffffffffffffffffffffffffffffffffffffffff1614156118cd57600b6000828152602001908152602001600020600601600081548092919060010191905055506040518060400160405280600b600084815260200190815260200160002060060154815260200183815250600b60008381526020019081526020016000206005016000600b600085815260200190815260200160002060060154815260200190815260200160002060008201518160000155602082015181600101559050505b80806001019150506117b4565b5050565b6000809050600090505b60035481116119bf573373ffffffffffffffffffffffffffffffffffffffff166002600083815260200190815260200160002060010160009054906101000a900473ffffffffffffffffffffffffffffffffffffffff1673ffffffffffffffffffffffffffffffffffffffff1614156119b2578260026000838152602001908152602001600020600501908051906020019061198592919061277e565b50816002600083815260200190815260200160002060040190805190602001906119b092919061277e565b505b80806001019150506118e8565b505050565b60065481565b6000809050600090505b600a548111611a41578160096000838152602001908152602001600020600001541415611a345760016009600083815260200190815260200160002060080160006101000a81548160ff02191690836004811115611a2e57fe5b02179055505b80806001019150506119d4565b5050565b60096020528060005260406000206000915090508060000154908060010160009054906101000a900473ffffffffffffffffffffffffffffffffffffffff16908060020160009054906101000a900473ffffffffffffffffffffffffffffffffffffffff1690806003015490806005015490806006018054600181600116156101000203166002900480601f016020809104026020016040519081016040528092919081815260200182805460018160011615610100020316600290048015611b4f5780601f10611b2457610100808354040283529160200191611b4f565b820191906000526020600020905b815481529060010190602001808311611b3257829003601f168201915b505050505090806007018054600181600116156101000203166002900480601f016020809104026020016040519081016040528092919081815260200182805460018160011615610100020316600290048015611bed5780601f10611bc257610100808354040283529160200191611bed565b820191906000526020600020905b815481529060010190602001808311611bd057829003601f168201915b5050505050908060080160009054906101000a900460ff16905088565b60045481565b6007602052806000526040600020600091509050806000015490806001018054600181600116156101000203166002900480601f016020809104026020016040519081016040528092919081815260200182805460018160011615610100020316600290048015611cc25780601f10611c9757610100808354040283529160200191611cc2565b820191906000526020600020905b815481529060010190602001808311611ca557829003601f168201915b5050505050908060020154908060030160009054906101000a900473ffffffffffffffffffffffffffffffffffffffff16908060030160149054906101000a900460ff1690806004018054600181600116156101000203166002900480601f016020809104026020016040519081016040528092919081815260200182805460018160011615610100020316600290048015611d9f5780601f10611d7457610100808354040283529160200191611d9f565b820191906000526020600020905b815481529060010190602001808311611d8257829003601f168201915b5050505050905086565b6001600081548092919060010191905055506040518060e0016040528060015481526020018573ffffffffffffffffffffffffffffffffffffffff168152602001848152602001838152602001600581526020018215158152602001600081525060008060015481526020019081526020016000206000820151816000015560208201518160010160006101000a81548173ffffffffffffffffffffffffffffffffffffffff021916908373ffffffffffffffffffffffffffffffffffffffff1602179055506040820151816002019080519060200190611e8b9291906126fe565b506060820151816003019080519060200190611ea89291906126fe565b506080820151816004015560a08201518160050160006101000a81548160ff02191690831515021790555060c0820151816007015590505050505050565b60015481565b6000835111611efa57600080fd5b60008211611f0757600080fd5b6006600081548092919060010191905055506040518060c0016040528060065481526020018481526020018381526020013373ffffffffffffffffffffffffffffffffffffffff16815260200160001515815260200182815250600760006006548152602001908152602001600020600082015181600001556020820151816001019080519060200190611f9c9291906126fe565b506040820151816002015560608201518160030160006101000a81548173ffffffffffffffffffffffffffffffffffffffff021916908373ffffffffffffffffffffffffffffffffffffffff16021790555060808201518160030160146101000a81548160ff02191690831515021790555060a082015181600401908051906020019061202a9291906126fe565b509050507fd87ce4bfd22bad4a8ed8acd04d5670a4166b81f64fe53488db885e1987f33d8260065484843360008660405161206a969594939291906131be565b60405180910390a1505050565b600b6020528060005260406000206000915090508060000154908060010160009054906101000a900473ffffffffffffffffffffffffffffffffffffffff1690806002018054600181600116156101000203166002900480601f01602080910402602001604051908101604052809291908181526020018280546001816001161561010002031660029004801561214f5780601f106121245761010080835404028352916020019161214f565b820191906000526020600020905b81548152906001019060200180831161213257829003601f168201915b505050505090806003018054600181600116156101000203166002900480601f0160208091040260200160405190810160405280929190818152602001828054600181600116156101000203166002900480156121ed5780601f106121c2576101008083540402835291602001916121ed565b820191906000526020600020905b8154815290600101906020018083116121d057829003601f168201915b505050505090806004018054600181600116156101000203166002900480601f01602080910402602001604051908101604052809291908181526020018280546001816001161561010002031660029004801561228b5780601f106122605761010080835404028352916020019161228b565b820191906000526020600020905b81548152906001019060200180831161226e57829003601f168201915b5050505050908060060154905086565b600860009054906101000a900460ff1681565b600080600b600085815260200190815260200160002090508060050160008481526020019081526020016000206001015491505092915050565b60036000815480929190600101919050555060405180610100016040528060035481526020018773ffffffffffffffffffffffffffffffffffffffff168152602001868152602001858152602001848152602001838152602001600581526020018215158152506002600060035481526020019081526020016000206000820151816000015560208201518160010160006101000a81548173ffffffffffffffffffffffffffffffffffffffff021916908373ffffffffffffffffffffffffffffffffffffffff16021790555060408201518160020190805190602001906123d19291906126fe565b5060608201518160030190805190602001906123ee9291906126fe565b50608082015181600401908051906020019061240b9291906126fe565b5060a08201518160050190805190602001906124289291906126fe565b5060c0820151816006015560e08201518160070160006101000a81548160ff021916908315150217905550905050505050505050565b6005602052806000526040600020600091509050806000015490806001018054600181600116156101000203166002900480601f0160208091040260200160405190810160405280929190818152602001828054600181600116156101000203166002900480156125105780601f106124e557610100808354040283529160200191612510565b820191906000526020600020905b8154815290600101906020018083116124f357829003601f168201915b5050505050908060020154908060030160009054906101000a900473ffffffffffffffffffffffffffffffffffffffff16908060030160149054906101000a900460ff16905085565b60035481565b6000600b600083815260200190815260200160002090506000816006015490506000600190505b8181116125c257826005016000828152602001908152602001600020600080820160009055600182016000905550508080600101915050612586565b5060008260060181905550505050565b6000809050600090505b60035481116126af573373ffffffffffffffffffffffffffffffffffffffff166002600083815260200190815260200160002060010160009054906101000a900473ffffffffffffffffffffffffffffffffffffffff1673ffffffffffffffffffffffffffffffffffffffff1614156126a2576002600082815260200190815260200160002060070160009054906101000a900460ff16156002600083815260200190815260200160002060070160006101000a81548160ff0219169083151502179055505b80806001019150506125dc565b50565b6040518060c0016040528060008152602001600073ffffffffffffffffffffffffffffffffffffffff168152602001606081526020016060815260200160608152602001600081525090565b828054600181600116156101000203166002900490600052602060002090601f016020900481019282601f1061273f57805160ff191683800117855561276d565b8280016001018555821561276d579182015b8281111561276c578251825591602001919060010190612751565b5b50905061277a919061284c565b5090565b828054600181600116156101000203166002900490600052602060002090601f016020900481019282601f106127bf57805160ff19168380011785556127ed565b828001600101855582156127ed579182015b828111156127ec5782518255916020019190600101906127d1565b5b5090506127fa919061284c565b5090565b6040518060c00160405280600081526020016060815260200160008152602001600073ffffffffffffffffffffffffffffffffffffffff168152602001600015158152602001606081525090565b61286e91905b8082111561286a576000816000905550600101612852565b5090565b90565b60008135905061288081613470565b92915050565b60008135905061289581613487565b92915050565b6000813590506128aa8161349e565b92915050565b600082601f8301126128c157600080fd5b81356128d46128cf82613323565b6132f6565b915080825260208301602083018583830111156128f057600080fd5b6128fb838284613410565b50505092915050565b600081359050612913816134b5565b92915050565b6000806000806080858703121561292f57600080fd5b600061293d87828801612871565b945050602085013567ffffffffffffffff81111561295a57600080fd5b612966878288016128b0565b935050604085013567ffffffffffffffff81111561298357600080fd5b61298f878288016128b0565b92505060606129a08782880161289b565b91505092959194509250565b600080600080608085870312156129c257600080fd5b60006129d087828801612871565b945050602085013567ffffffffffffffff8111156129ed57600080fd5b6129f9878288016128b0565b935050604085013567ffffffffffffffff811115612a1657600080fd5b612a22878288016128b0565b925050606085013567ffffffffffffffff811115612a3f57600080fd5b612a4b878288016128b0565b91505092959194509250565b60008060008060008060c08789031215612a7057600080fd5b6000612a7e89828a01612871565b965050602087013567ffffffffffffffff811115612a9b57600080fd5b612aa789828a016128b0565b955050604087013567ffffffffffffffff811115612ac457600080fd5b612ad089828a016128b0565b945050606087013567ffffffffffffffff811115612aed57600080fd5b612af989828a016128b0565b935050608087013567ffffffffffffffff811115612b1657600080fd5b612b2289828a016128b0565b92505060a0612b3389828a0161289b565b9150509295509295509295565b60008060408385031215612b5357600080fd5b600083013567ffffffffffffffff811115612b6d57600080fd5b612b79858286016128b0565b925050602083013567ffffffffffffffff811115612b9657600080fd5b612ba2858286016128b0565b9150509250929050565b60008060408385031215612bbf57600080fd5b600083013567ffffffffffffffff811115612bd957600080fd5b612be5858286016128b0565b9250506020612bf685828601612904565b9150509250929050565b600080600060608486031215612c1557600080fd5b600084013567ffffffffffffffff811115612c2f57600080fd5b612c3b868287016128b0565b9350506020612c4c86828701612904565b925050604084013567ffffffffffffffff811115612c6957600080fd5b612c75868287016128b0565b9150509250925092565b600060208284031215612c9157600080fd5b6000612c9f84828501612904565b91505092915050565b600080600080600060a08688031215612cc057600080fd5b6000612cce88828901612904565b9550506020612cdf88828901612886565b9450506040612cf088828901612904565b935050606086013567ffffffffffffffff811115612d0d57600080fd5b612d19888289016128b0565b925050608086013567ffffffffffffffff811115612d3657600080fd5b612d42888289016128b0565b9150509295509295909350565b60008060408385031215612d6257600080fd5b6000612d7085828601612904565b9250506020612d8185828601612904565b9150509250929050565b612d9481613399565b82525050565b612da381613399565b82525050565b612db281613387565b82525050565b612dc1816133ab565b82525050565b612dd0816133ab565b82525050565b612ddf816133fe565b82525050565b612dee816133ca565b82525050565b6000612dff8261335a565b612e098185613376565b9350612e1981856020860161341f565b612e2281613452565b840191505092915050565b6000612e388261334f565b612e428185613365565b9350612e5281856020860161341f565b612e5b81613452565b840191505092915050565b6000612e718261334f565b612e7b8185613376565b9350612e8b81856020860161341f565b612e9481613452565b840191505092915050565b600060c083016000830151612eb76000860182612f2f565b5060208301518482036020860152612ecf8282612e2d565b9150506040830151612ee46040860182612f2f565b506060830151612ef76060860182612d8b565b506080830151612f0a6080860182612db8565b5060a083015184820360a0860152612f228282612e2d565b9150508091505092915050565b612f38816133f4565b82525050565b612f47816133f4565b82525050565b6000602082019050612f626000830184612dd6565b92915050565b60006020820190508181036000830152612f828184612e9f565b905092915050565b6000602082019050612f9f6000830184612f3e565b92915050565b600061010082019050612fbb600083018b612f3e565b612fc8602083018a612da9565b612fd56040830189612da9565b612fe26060830188612f3e565b612fef6080830187612f3e565b81810360a08301526130018186612e66565b905081810360c08301526130158185612e66565b905061302460e0830184612dd6565b9998505050505050505050565b600060e082019050613046600083018a612f3e565b6130536020830189612da9565b81810360408301526130658188612e66565b905081810360608301526130798187612e66565b90506130886080830186612de5565b61309560a0830185612dc7565b6130a260c0830184612f3e565b98975050505050505050565b6000610100820190506130c4600083018b612f3e565b6130d1602083018a612da9565b81810360408301526130e38189612e66565b905081810360608301526130f78188612e66565b9050818103608083015261310b8187612e66565b905081810360a083015261311f8186612e66565b905061312e60c0830185612de5565b61313b60e0830184612dc7565b9998505050505050505050565b600060c08201905061315d6000830189612f3e565b61316a6020830188612da9565b818103604083015261317c8187612e66565b905081810360608301526131908186612e66565b905081810360808301526131a48185612e66565b90506131b360a0830184612f3e565b979650505050505050565b600060c0820190506131d36000830189612f3e565b81810360208301526131e58188612df4565b90506131f46040830187612f3e565b6132016060830186612d9a565b61320e6080830185612dc7565b81810360a08301526132208184612df4565b9050979650505050505050565b600060a0820190506132426000830188612f3e565b81810360208301526132548187612e66565b90506132636040830186612f3e565b6132706060830185612d9a565b61327d6080830184612dc7565b9695505050505050565b600060c08201905061329c6000830189612f3e565b81810360208301526132ae8188612e66565b90506132bd6040830187612f3e565b6132ca6060830186612d9a565b6132d76080830185612dc7565b81810360a08301526132e98184612e66565b9050979650505050505050565b6000604051905081810181811067ffffffffffffffff8211171561331957600080fd5b8060405250919050565b600067ffffffffffffffff82111561333a57600080fd5b601f19601f8301169050602081019050919050565b600081519050919050565b600081519050919050565b600082825260208201905092915050565b600082825260208201905092915050565b6000613392826133d4565b9050919050565b60006133a4826133d4565b9050919050565b60008115159050919050565b60008190506133c582613463565b919050565b6000819050919050565b600073ffffffffffffffffffffffffffffffffffffffff82169050919050565b6000819050919050565b6000613409826133b7565b9050919050565b82818337600083830152505050565b60005b8381101561343d578082015181840152602081019050613422565b8381111561344c576000848401525b50505050565b6000601f19601f8301169050919050565b6005811061346d57fe5b50565b61347981613387565b811461348457600080fd5b50565b61349081613399565b811461349b57600080fd5b50565b6134a7816133ab565b81146134b257600080fd5b50565b6134be816133f4565b81146134c957600080fd5b5056fea365627a7a7231582094199c672ac82a76877e02b54f40ef993aed034bd8e1924ea585df571c6a302b6c6578706572696d656e74616cf564736f6c6343000510004032204164616d2052642c202330312d303220466f6f642043656e7472652c2053696e6761706f7265203238393837364d617877656c6c20466f6f642043656e747265202330312d31302f31312c2031204b61646179616e616c6c7572205374726565742c2053696e6761706f7265203036393138345475657364617920e280932053756e6461793a203130616d20e2809320373a3330706d4d6f6e646179202d2054687572736461793a2037616d2d35706d3b205361747572646179202d2053756e6461792037616d2d33706d353020416e67204d6f204b696f2041766520322c2053696e6761706f726520363339373938",
  "source": "// SPDX-License-Identifier: Blockchain\r\n\r\npragma solidity ^0.5.4;\r\npragma experimental ABIEncoderV2;\r\n\r\ncontract Marketplace {\r\n    //constructor\r\n    constructor() public {\r\n        addHawker(\r\n            0x73c005D4B234C63F416F6e1038C011D55edDBF1e,\r\n            \"Selera Rasa Nasi Lemak\",\r\n            \"2 Adam Rd, #01-02 Food Centre, Singapore 289876\",\r\n            \"Monday - Thursday: 7am-5pm; Saturday - Sunday 7am-3pm\",\r\n            \"98434509\",\r\n            false\r\n        );\r\n        addHawker(\r\n            0x87ECEE1454A7b32253A9020F6ae1FF25e9CE35B5,\r\n            \"Tian Tian Hainanese Chicken Rice\",\r\n            \"Maxwell Food Centre #01-10/11, 1 Kadayanallur Street, Singapore 069184\",\r\n            \"Tuesday  Sunday: 10am  7:30pm\",\r\n            \"96914852\",\r\n            false\r\n        );\r\n        addCustomer(\r\n            0xC9342f12d49ca9e40d600eBF17266DcCc88a0639,\r\n            \"Casuarina\",\r\n            \"50 Nanyang Ave, Singapore 639798\",\r\n            \"98765432\"\r\n        );\r\n        addCustomer(\r\n            0x7C2eA58a210F8e7c80fdeB6788C1D5Fc4a3E73ba,\r\n            \"Patrick\",\r\n            \"50 Ang Mo Kio Ave 2, Singapore 639798\",\r\n            \"91234567\"\r\n        );\r\n        addFoodDelivery(\r\n            0x66f8f66996aaB36b041b1cAdA9f20864a0C42698,\r\n            \"Leo Tan\",\r\n            \"90123456\",\r\n            false\r\n        );\r\n    }\r\n\r\n    //FOOD DELIVERY\r\n    struct FoodDelivery {\r\n        uint256 id;\r\n        address owner;\r\n        string name;\r\n        string phone;\r\n        int256 rating;\r\n        bool available;\r\n        mapping(uint256 => Order) ordersAccepted;\r\n        uint256 ordersAcceptedCount;\r\n    }\r\n\r\n    // Read/write Food Delivery\r\n    mapping(uint256 => FoodDelivery) public foodDeliveries;\r\n    //Store Food Delivery Count\r\n    uint256 public foodDeliveriesCount;\r\n\r\n    //add new food delivery\r\n    function addFoodDelivery(\r\n        address _owner,\r\n        string memory _name,\r\n        string memory _phone,\r\n        bool _available\r\n    ) public {\r\n        foodDeliveriesCount++;\r\n        foodDeliveries[foodDeliveriesCount] = FoodDelivery(\r\n            foodDeliveriesCount,\r\n            _owner,\r\n            _name,\r\n            _phone,\r\n            5,\r\n            _available,\r\n            0\r\n        );\r\n    }\r\n\r\n    //HAWKER\r\n    struct Hawker {\r\n        uint256 id;\r\n        address owner;\r\n        string name;\r\n        string addressLocation;\r\n        string openingHours;\r\n        string phone;\r\n        int256 rating;\r\n        bool open;\r\n    }\r\n    // Read/write Hawkers\r\n    mapping(uint256 => Hawker) public hawkers;\r\n    //Store Hawkers Count\r\n    uint256 public hawkersCount;\r\n\r\n    function addHawker(\r\n        address _owner,\r\n        string memory _name,\r\n        string memory _addressLocation,\r\n        string memory _openingHours,\r\n        string memory _phone,\r\n        bool _open\r\n    ) public {\r\n        hawkersCount++;\r\n        hawkers[hawkersCount] = Hawker(\r\n            hawkersCount,\r\n            _owner,\r\n            _name,\r\n            _addressLocation,\r\n            _openingHours,\r\n            _phone,\r\n            5,\r\n            _open\r\n        );\r\n    }\r\n\r\n    function editHawkerProfile(string memory _phone, string memory _OH) public {\r\n        uint256 i = 0;\r\n        for (i = 0; i <= hawkersCount; i++) {\r\n            if (hawkers[i].owner == msg.sender) {\r\n                hawkers[i].phone = _phone;\r\n                hawkers[i].openingHours = _OH;\r\n            }\r\n        }\r\n    }\r\n\r\n    //change shop status\r\n    function boolOpen() public {\r\n        uint256 i = 0;\r\n        for (i = 0; i <= hawkersCount; i++) {\r\n            if (hawkers[i].owner == msg.sender) {\r\n                hawkers[i].open = !(hawkers[i].open);\r\n            }\r\n        }\r\n    }\r\n\r\n    //change food delivery status\r\n    function boolWork() public {\r\n        uint256 i = 0;\r\n        for (i = 0; i <= foodDeliveriesCount; i++) {\r\n            if (foodDeliveries[i].owner == msg.sender) {\r\n                foodDeliveries[i].available = !(foodDeliveries[i].available);\r\n            }\r\n        }\r\n    }\r\n\r\n    //SUPPLIER\r\n    uint256 public suppProdCount = 0;\r\n    mapping(uint256 => SuppProduct) public suppProducts;\r\n    struct SuppProduct {\r\n        uint256 id;\r\n        string name;\r\n        uint256 price;\r\n        address payable owner; //when listing, the owner will be the seller. when buying, the owner will change from the seller to the buyer\r\n        bool purchased;\r\n    }\r\n\r\n    //Restaurants products\r\n    uint256 public restProdCount = 0;\r\n    mapping(uint256 => RestProduct) public restProducts;\r\n    struct RestProduct {\r\n        uint256 id;\r\n        string name;\r\n        uint256 price;\r\n        address payable owner;\r\n        bool purchased;\r\n        string imageHash;\r\n    }\r\n\r\n    struct RestProfile {\r\n        uint256 id;\r\n        string name;\r\n        string category;\r\n        string location;\r\n        string deliveryHours;\r\n        address payable owner;\r\n        string reviews;\r\n        uint256 rating;\r\n    }\r\n\r\n    event ProductCreated(\r\n        uint256 id,\r\n        string name,\r\n        uint256 price,\r\n        address payable owner,\r\n        bool purchased,\r\n        string imageHash\r\n    );\r\n\r\n    event ProductPurchased(\r\n        uint256 id,\r\n        string name,\r\n        uint256 price,\r\n        address payable owner,\r\n        bool purchased\r\n    );\r\n\r\n    //parameter _price is expressed in Ethereum cryptocurrency - Ether\r\n    //whenever we store Ether in the blockchain, we store it as Wei (smallest denomination of Ether )\r\n    //can check it on etherconverter.online\r\n    function createSuppProduct(string memory _name, uint256 _price) public {\r\n        // Require a valid name\r\n        require(bytes(_name).length > 0);\r\n        // Require a valid price\r\n        require(_price > 0);\r\n        // Increment product count\r\n        suppProdCount++;\r\n        // Create the product --- msg.sender is the one who accessed the function\r\n        suppProducts[suppProdCount] = SuppProduct(\r\n            suppProdCount,\r\n            _name,\r\n            _price,\r\n            msg.sender,\r\n            false\r\n        );\r\n        // Trigger an event\r\n        emit ProductCreated(\r\n            suppProdCount,\r\n            _name,\r\n            _price,\r\n            msg.sender,\r\n            false,\r\n            _name\r\n        );\r\n    }\r\n\r\n    function createRestProduct(\r\n        string memory _name,\r\n        uint256 _price,\r\n        string memory _imageHash\r\n    ) public {\r\n        // Require a valid name\r\n        require(bytes(_name).length > 0);\r\n        // Require a valid price\r\n        require(_price > 0);\r\n        // Increment product count\r\n        restProdCount++;\r\n        // Create the product --- msg.sender is the one who accessed the function\r\n        restProducts[restProdCount] = RestProduct(\r\n            restProdCount,\r\n            _name,\r\n            _price,\r\n            msg.sender,\r\n            false,\r\n            _imageHash\r\n        );\r\n        // Trigger an event\r\n        emit ProductCreated(\r\n            restProdCount,\r\n            _name,\r\n            _price,\r\n            msg.sender,\r\n            false,\r\n            _imageHash\r\n        );\r\n    }\r\n\r\n    //ORDERS\r\n    enum Status {\r\n        OrderPlaced,\r\n        OrderConfirm,\r\n        DriverConfirm,\r\n        InTransit,\r\n        OrderCompleted\r\n    }\r\n    Status public state;\r\n\r\n    struct Order {\r\n        uint256 id;\r\n        address owner;\r\n        address seller;\r\n        uint256 totalPrice;\r\n        mapping(uint256 => CartItem) purchasedItemId;\r\n        uint256 purchasedItemCount;\r\n        string date;\r\n        string time;\r\n        Status state;\r\n    }\r\n\r\n    mapping(uint256 => Order) public orders;\r\n    uint256 public ordersCount;\r\n\r\n    struct CartItem {\r\n        uint256 id;\r\n        uint256 productId;\r\n    }\r\n\r\n    //CUSTOMER\r\n    struct Customer {\r\n        uint256 id;\r\n        address owner;\r\n        string name;\r\n        string addressLocation;\r\n        string phone;\r\n        mapping(uint256 => CartItem) cartItems;\r\n        uint256 itemCount;\r\n    }\r\n\r\n    mapping(uint256 => Customer) public customers;\r\n    uint256 public customersCount;\r\n\r\n    function addCustomer(\r\n        address _owner,\r\n        string memory _name,\r\n        string memory _addressLocation,\r\n        string memory _phone\r\n    ) public {\r\n        customersCount++;\r\n        //CartItem[] memory cartItems;\r\n        customers[customersCount] = Customer(\r\n            customersCount,\r\n            _owner,\r\n            _name,\r\n            _addressLocation,\r\n            _phone,\r\n            0\r\n        );\r\n    }\r\n\r\n    function editCustProfile(string memory _phone, string memory _address)\r\n        public\r\n    {\r\n        uint256 i = 0;\r\n        for (i = 0; i <= customersCount; i++) {\r\n            if (customers[i].owner == msg.sender) {\r\n                customers[i].phone = _phone;\r\n                customers[i].addressLocation = _address;\r\n            }\r\n        }\r\n    }\r\n\r\n    function addToCart(uint256 _id) public {\r\n        uint256 i = 0;\r\n        for (i = 0; i <= customersCount; i++) {\r\n            if (customers[i].owner == msg.sender) {\r\n                (customers[i].itemCount)++;\r\n                customers[i].cartItems[customers[i].itemCount] = CartItem(\r\n                    customers[i].itemCount,\r\n                    _id\r\n                );\r\n            }\r\n        }\r\n    }\r\n\r\n    function removeProdCart(uint256 custId, uint256 cartId) public {\r\n        Customer storage cust = customers[custId];\r\n        (cust.itemCount)--;\r\n        delete cust.cartItems[cartId];\r\n    }\r\n\r\n    function removeAllProdCart(uint256 custId) public {\r\n        Customer storage cust = customers[custId];\r\n        uint256 _itemCount = cust.itemCount;\r\n        for (uint256 i = 1; i <= _itemCount; i++) {\r\n            delete cust.cartItems[i];\r\n        }\r\n        (cust.itemCount) = 0;\r\n    }\r\n\r\n    function getCartProduct(uint256 custId, uint256 cartId)\r\n        public\r\n        returns (uint256)\r\n    {\r\n        Customer storage cust = customers[custId];\r\n        return (cust.cartItems[cartId].productId);\r\n    }\r\n\r\n    function getOrderProduct(uint256 orderId, uint256 cartId)\r\n        public\r\n        returns (RestProduct memory)\r\n    {\r\n        Order storage ord = orders[orderId];\r\n        uint256 prodId = ord.purchasedItemId[cartId].productId;\r\n        RestProduct memory _product = restProducts[prodId];\r\n        return (_product);\r\n    }\r\n\r\n    function purchaseProduct(\r\n        uint256 _custId,\r\n        address payable _seller,\r\n        uint256 _totalCost,\r\n        string memory _date,\r\n        string memory _time\r\n    ) public payable {\r\n        Customer memory cust = customers[_custId];\r\n        // Increment order count\r\n        ordersCount++;\r\n        // Create the enum\r\n        state = Status.OrderPlaced;\r\n\r\n        // Create the order\r\n        orders[ordersCount] = Order(\r\n            ordersCount,\r\n            cust.owner,\r\n            _seller,\r\n            _totalCost,\r\n            cust.itemCount,\r\n            _date,\r\n            _time,\r\n            state\r\n        );\r\n\r\n        //add the items in cartItems(Customer structure) to purchasedItemId (Order structure)\r\n        for (uint256 i = 1; i <= cust.itemCount; i++) {\r\n            uint256 item = getCartProduct(_custId, i);\r\n            orders[ordersCount].purchasedItemId[i] = CartItem(i, item);\r\n        }\r\n\r\n        //Pay the seller by sending them Ether\r\n        address(_seller).transfer(msg.value);\r\n\r\n        //remove the CartItem in the Customer id\r\n        removeAllProdCart(_custId);\r\n    }\r\n\r\n    //hawker confirms order transaction made by customer\r\n    function hawkerConfirmOrder(uint256 _orderId) public {\r\n        uint256 i = 0;\r\n        for (i = 0; i <= ordersCount; i++) {\r\n            if (orders[i].id == _orderId) {\r\n                orders[i].state = Status.OrderConfirm;\r\n            }\r\n        }\r\n    }\r\n    // function purchaseProduct(uint256 _id) public payable {\r\n    //     //Fetch the product\r\n    //     Product memory _product = products[_id];\r\n    //     //Fetch the owner\r\n    //     address payable _seller = _product.owner;\r\n    //     //Make sure the product has a valid id\r\n    //     //require(_product.id > 0 && _product.id <= productCount); ---> need to change\r\n    //     //Require that there is enough Ether in the transaction\r\n    //     require(msg.value >= _product.price);\r\n    //     //Require that the product has not been purchased already\r\n    //     require(!_product.purchased);\r\n    //     //Require that the buyer is not the seller\r\n    //     require(_seller != msg.sender);\r\n    //     //Transfer ownership to the buyer\r\n    //     _product.owner = msg.sender;\r\n    //     //Mark as purchased\r\n    //     _product.purchased = true;\r\n    //     //Update the product\r\n    //     products[_id] = _product;\r\n    //     //Pay the seller by sending them Ether\r\n    //     address(_seller).transfer(msg.value);\r\n\r\n    //     //Trigger an event\r\n    //     emit ProductPurchased(\r\n    //         productCount,\r\n    //         _product.name,\r\n    //         _product.price,\r\n    //         msg.sender,\r\n    //         true\r\n    //     );\r\n    // }\r\n}\r\n",
  "sourcePath": "C:/Users/Casuarina/Desktop/FYP_FoodIndustry/blockchain/src/contracts/Marketplace.sol",
  "compiler": {
    "name": "solc",
    "version": "0.5.16+commit.9c3226ce.Emscripten.clang"
  },
  "schemaVersion": "3.4.1",
  "updatedAt": "2021-07-11T08:38:33.006Z",
  "networkType": "ethereum",
  "devdoc": {
    "methods": {}
  },
  "userdoc": {
    "methods": {}
  }
}