{
  "contractName": "Marketplace",
  "abi": [
    {
      "constant": true,
      "inputs": [
        {
          "internalType": "uint256",
          "name": "",
          "type": "uint256"
        }
      ],
      "name": "customers",
      "outputs": [
        {
          "internalType": "uint256",
          "name": "id",
          "type": "uint256"
        },
        {
          "internalType": "address",
          "name": "owner",
          "type": "address"
        },
        {
          "internalType": "string",
          "name": "profileHash",
          "type": "string"
        },
        {
          "internalType": "uint256",
          "name": "itemCount",
          "type": "uint256"
        }
      ],
      "payable": false,
      "stateMutability": "view",
      "type": "function"
    },
    {
      "constant": true,
      "inputs": [],
      "name": "customersCount",
      "outputs": [
        {
          "internalType": "uint256",
          "name": "",
          "type": "uint256"
        }
      ],
      "payable": false,
      "stateMutability": "view",
      "type": "function"
    },
    {
      "constant": true,
      "inputs": [
        {
          "internalType": "uint256",
          "name": "",
          "type": "uint256"
        }
      ],
      "name": "foodDeliveries",
      "outputs": [
        {
          "internalType": "uint256",
          "name": "id",
          "type": "uint256"
        },
        {
          "internalType": "address",
          "name": "owner",
          "type": "address"
        },
        {
          "internalType": "string",
          "name": "profileHash",
          "type": "string"
        },
        {
          "internalType": "int256",
          "name": "rating",
          "type": "int256"
        },
        {
          "internalType": "bool",
          "name": "available",
          "type": "bool"
        },
        {
          "internalType": "uint256",
          "name": "ordersAcceptedCount",
          "type": "uint256"
        },
        {
          "internalType": "uint256",
          "name": "feedbackCount",
          "type": "uint256"
        }
      ],
      "payable": false,
      "stateMutability": "view",
      "type": "function"
    },
    {
      "constant": true,
      "inputs": [],
      "name": "foodDeliveriesCount",
      "outputs": [
        {
          "internalType": "uint256",
          "name": "",
          "type": "uint256"
        }
      ],
      "payable": false,
      "stateMutability": "view",
      "type": "function"
    },
    {
      "constant": true,
      "inputs": [
        {
          "internalType": "uint256",
          "name": "",
          "type": "uint256"
        }
      ],
      "name": "hawkers",
      "outputs": [
        {
          "internalType": "uint256",
          "name": "id",
          "type": "uint256"
        },
        {
          "internalType": "address",
          "name": "owner",
          "type": "address"
        },
        {
          "internalType": "string",
          "name": "profileHash",
          "type": "string"
        },
        {
          "internalType": "uint256",
          "name": "avgRating",
          "type": "uint256"
        },
        {
          "internalType": "bool",
          "name": "open",
          "type": "bool"
        },
        {
          "internalType": "uint256",
          "name": "feedbackCount",
          "type": "uint256"
        },
        {
          "internalType": "uint256",
          "name": "itemCount",
          "type": "uint256"
        }
      ],
      "payable": false,
      "stateMutability": "view",
      "type": "function"
    },
    {
      "constant": true,
      "inputs": [],
      "name": "hawkersCount",
      "outputs": [
        {
          "internalType": "uint256",
          "name": "",
          "type": "uint256"
        }
      ],
      "payable": false,
      "stateMutability": "view",
      "type": "function"
    },
    {
      "constant": true,
      "inputs": [
        {
          "internalType": "uint256",
          "name": "",
          "type": "uint256"
        }
      ],
      "name": "orders",
      "outputs": [
        {
          "internalType": "uint256",
          "name": "id",
          "type": "uint256"
        },
        {
          "internalType": "address",
          "name": "owner",
          "type": "address"
        },
        {
          "internalType": "address",
          "name": "seller",
          "type": "address"
        },
        {
          "internalType": "address",
          "name": "rider",
          "type": "address"
        },
        {
          "internalType": "uint256",
          "name": "hawkerPayment",
          "type": "uint256"
        },
        {
          "internalType": "uint256",
          "name": "riderPayment",
          "type": "uint256"
        },
        {
          "internalType": "uint256",
          "name": "totalPrice",
          "type": "uint256"
        },
        {
          "internalType": "uint256",
          "name": "purchasedItemCount",
          "type": "uint256"
        },
        {
          "internalType": "string",
          "name": "dateTime",
          "type": "string"
        },
        {
          "internalType": "string",
          "name": "deliveryDateTime",
          "type": "string"
        },
        {
          "internalType": "enum Marketplace.Status",
          "name": "state",
          "type": "uint8"
        },
        {
          "internalType": "bool",
          "name": "rated",
          "type": "bool"
        }
      ],
      "payable": false,
      "stateMutability": "view",
      "type": "function"
    },
    {
      "constant": true,
      "inputs": [],
      "name": "ordersCount",
      "outputs": [
        {
          "internalType": "uint256",
          "name": "",
          "type": "uint256"
        }
      ],
      "payable": false,
      "stateMutability": "view",
      "type": "function"
    },
    {
      "constant": true,
      "inputs": [],
      "name": "restProdCount",
      "outputs": [
        {
          "internalType": "uint256",
          "name": "",
          "type": "uint256"
        }
      ],
      "payable": false,
      "stateMutability": "view",
      "type": "function"
    },
    {
      "constant": true,
      "inputs": [
        {
          "internalType": "uint256",
          "name": "",
          "type": "uint256"
        }
      ],
      "name": "restProducts",
      "outputs": [
        {
          "internalType": "uint256",
          "name": "id",
          "type": "uint256"
        },
        {
          "internalType": "string",
          "name": "name",
          "type": "string"
        },
        {
          "internalType": "uint256",
          "name": "price",
          "type": "uint256"
        },
        {
          "internalType": "address payable",
          "name": "owner",
          "type": "address"
        },
        {
          "internalType": "bool",
          "name": "published",
          "type": "bool"
        },
        {
          "internalType": "string",
          "name": "imageHash",
          "type": "string"
        },
        {
          "internalType": "uint256",
          "name": "soldCount",
          "type": "uint256"
        }
      ],
      "payable": false,
      "stateMutability": "view",
      "type": "function"
    },
    {
      "constant": true,
      "inputs": [],
      "name": "state",
      "outputs": [
        {
          "internalType": "enum Marketplace.Status",
          "name": "",
          "type": "uint8"
        }
      ],
      "payable": false,
      "stateMutability": "view",
      "type": "function"
    },
    {
      "constant": true,
      "inputs": [],
      "name": "suppProdCount",
      "outputs": [
        {
          "internalType": "uint256",
          "name": "",
          "type": "uint256"
        }
      ],
      "payable": false,
      "stateMutability": "view",
      "type": "function"
    },
    {
      "constant": true,
      "inputs": [
        {
          "internalType": "uint256",
          "name": "",
          "type": "uint256"
        }
      ],
      "name": "suppProducts",
      "outputs": [
        {
          "internalType": "uint256",
          "name": "id",
          "type": "uint256"
        },
        {
          "internalType": "string",
          "name": "name",
          "type": "string"
        },
        {
          "internalType": "uint256",
          "name": "price",
          "type": "uint256"
        },
        {
          "internalType": "uint256",
          "name": "size",
          "type": "uint256"
        },
        {
          "internalType": "uint256",
          "name": "minOrder",
          "type": "uint256"
        },
        {
          "internalType": "address payable",
          "name": "owner",
          "type": "address"
        },
        {
          "internalType": "bool",
          "name": "published",
          "type": "bool"
        },
        {
          "internalType": "string",
          "name": "imageHash",
          "type": "string"
        },
        {
          "internalType": "string",
          "name": "expiryDate",
          "type": "string"
        }
      ],
      "payable": false,
      "stateMutability": "view",
      "type": "function"
    },
    {
      "constant": true,
      "inputs": [
        {
          "internalType": "uint256",
          "name": "",
          "type": "uint256"
        }
      ],
      "name": "suppliers",
      "outputs": [
        {
          "internalType": "uint256",
          "name": "id",
          "type": "uint256"
        },
        {
          "internalType": "address",
          "name": "owner",
          "type": "address"
        },
        {
          "internalType": "string",
          "name": "profileHash",
          "type": "string"
        },
        {
          "internalType": "uint256",
          "name": "avgRating",
          "type": "uint256"
        },
        {
          "internalType": "uint256",
          "name": "feedbackCount",
          "type": "uint256"
        }
      ],
      "payable": false,
      "stateMutability": "view",
      "type": "function"
    },
    {
      "constant": true,
      "inputs": [],
      "name": "suppliersCount",
      "outputs": [
        {
          "internalType": "uint256",
          "name": "",
          "type": "uint256"
        }
      ],
      "payable": false,
      "stateMutability": "view",
      "type": "function"
    },
    {
      "constant": false,
      "inputs": [
        {
          "internalType": "address",
          "name": "_owner",
          "type": "address"
        },
        {
          "internalType": "string",
          "name": "_profileHash",
          "type": "string"
        }
      ],
      "name": "addFoodDelivery",
      "outputs": [],
      "payable": false,
      "stateMutability": "nonpayable",
      "type": "function"
    },
    {
      "constant": false,
      "inputs": [
        {
          "internalType": "address",
          "name": "_owner",
          "type": "address"
        },
        {
          "internalType": "string",
          "name": "_profileHash",
          "type": "string"
        }
      ],
      "name": "addSupplier",
      "outputs": [],
      "payable": false,
      "stateMutability": "nonpayable",
      "type": "function"
    },
    {
      "constant": false,
      "inputs": [
        {
          "internalType": "address",
          "name": "_owner",
          "type": "address"
        },
        {
          "internalType": "string",
          "name": "_profileHash",
          "type": "string"
        }
      ],
      "name": "addHawker",
      "outputs": [],
      "payable": false,
      "stateMutability": "nonpayable",
      "type": "function"
    },
    {
      "constant": false,
      "inputs": [
        {
          "internalType": "uint256",
          "name": "_id",
          "type": "uint256"
        },
        {
          "internalType": "string",
          "name": "_profileHash",
          "type": "string"
        }
      ],
      "name": "editHawkerProfile",
      "outputs": [],
      "payable": false,
      "stateMutability": "nonpayable",
      "type": "function"
    },
    {
      "constant": false,
      "inputs": [
        {
          "internalType": "uint256",
          "name": "_id",
          "type": "uint256"
        }
      ],
      "name": "boolOpen",
      "outputs": [],
      "payable": false,
      "stateMutability": "nonpayable",
      "type": "function"
    },
    {
      "constant": false,
      "inputs": [
        {
          "internalType": "uint256",
          "name": "_id",
          "type": "uint256"
        }
      ],
      "name": "boolWork",
      "outputs": [],
      "payable": false,
      "stateMutability": "nonpayable",
      "type": "function"
    },
    {
      "constant": false,
      "inputs": [
        {
          "internalType": "string",
          "name": "_name",
          "type": "string"
        },
        {
          "internalType": "uint256",
          "name": "_price",
          "type": "uint256"
        },
        {
          "internalType": "uint256",
          "name": "_size",
          "type": "uint256"
        },
        {
          "internalType": "uint256",
          "name": "_minOrder",
          "type": "uint256"
        },
        {
          "internalType": "bool",
          "name": "_published",
          "type": "bool"
        },
        {
          "internalType": "string",
          "name": "_imageHash",
          "type": "string"
        },
        {
          "internalType": "string",
          "name": "_expiryDate",
          "type": "string"
        }
      ],
      "name": "createSuppProduct",
      "outputs": [],
      "payable": false,
      "stateMutability": "nonpayable",
      "type": "function"
    },
    {
      "constant": false,
      "inputs": [
        {
          "internalType": "string",
          "name": "_name",
          "type": "string"
        },
        {
          "internalType": "uint256",
          "name": "_price",
          "type": "uint256"
        },
        {
          "internalType": "bool",
          "name": "_published",
          "type": "bool"
        },
        {
          "internalType": "string",
          "name": "_imageHash",
          "type": "string"
        }
      ],
      "name": "createRestProduct",
      "outputs": [],
      "payable": false,
      "stateMutability": "nonpayable",
      "type": "function"
    },
    {
      "constant": false,
      "inputs": [
        {
          "internalType": "address",
          "name": "_owner",
          "type": "address"
        },
        {
          "internalType": "string",
          "name": "_profileHash",
          "type": "string"
        }
      ],
      "name": "addCustomer",
      "outputs": [],
      "payable": false,
      "stateMutability": "nonpayable",
      "type": "function"
    },
    {
      "constant": false,
      "inputs": [
        {
          "internalType": "uint256",
          "name": "_id",
          "type": "uint256"
        },
        {
          "internalType": "string",
          "name": "_profileHash",
          "type": "string"
        }
      ],
      "name": "editCustProfile",
      "outputs": [],
      "payable": false,
      "stateMutability": "nonpayable",
      "type": "function"
    },
    {
      "constant": false,
      "inputs": [
        {
          "internalType": "uint256",
          "name": "_id",
          "type": "uint256"
        },
        {
          "internalType": "string",
          "name": "_profileHash",
          "type": "string"
        }
      ],
      "name": "editSupplierProfile",
      "outputs": [],
      "payable": false,
      "stateMutability": "nonpayable",
      "type": "function"
    },
    {
      "constant": false,
      "inputs": [
        {
          "internalType": "uint256",
          "name": "_productId",
          "type": "uint256"
        },
        {
          "internalType": "string",
          "name": "_name",
          "type": "string"
        },
        {
          "internalType": "uint256",
          "name": "_price",
          "type": "uint256"
        },
        {
          "internalType": "string",
          "name": "_imageHash",
          "type": "string"
        },
        {
          "internalType": "bool",
          "name": "_published",
          "type": "bool"
        }
      ],
      "name": "editProduct",
      "outputs": [],
      "payable": false,
      "stateMutability": "nonpayable",
      "type": "function"
    },
    {
      "constant": false,
      "inputs": [
        {
          "internalType": "uint256",
          "name": "_productId",
          "type": "uint256"
        },
        {
          "internalType": "string",
          "name": "_name",
          "type": "string"
        },
        {
          "internalType": "uint256",
          "name": "_price",
          "type": "uint256"
        },
        {
          "internalType": "uint256",
          "name": "_size",
          "type": "uint256"
        },
        {
          "internalType": "uint256",
          "name": "_minOrder",
          "type": "uint256"
        },
        {
          "internalType": "string",
          "name": "_imageHash",
          "type": "string"
        },
        {
          "internalType": "bool",
          "name": "_published",
          "type": "bool"
        }
      ],
      "name": "editSuppProduct",
      "outputs": [],
      "payable": false,
      "stateMutability": "nonpayable",
      "type": "function"
    },
    {
      "constant": false,
      "inputs": [
        {
          "internalType": "uint256",
          "name": "_custId",
          "type": "uint256"
        },
        {
          "internalType": "uint256",
          "name": "_prodId",
          "type": "uint256"
        },
        {
          "internalType": "uint256",
          "name": "_prodQty",
          "type": "uint256"
        }
      ],
      "name": "addToCart",
      "outputs": [],
      "payable": false,
      "stateMutability": "nonpayable",
      "type": "function"
    },
    {
      "constant": false,
      "inputs": [
        {
          "internalType": "uint256",
          "name": "_hawkerId",
          "type": "uint256"
        },
        {
          "internalType": "uint256",
          "name": "_prodId",
          "type": "uint256"
        },
        {
          "internalType": "uint256",
          "name": "_prodQty",
          "type": "uint256"
        }
      ],
      "name": "addToCartHawker",
      "outputs": [],
      "payable": false,
      "stateMutability": "nonpayable",
      "type": "function"
    },
    {
      "constant": false,
      "inputs": [
        {
          "internalType": "uint256",
          "name": "custId",
          "type": "uint256"
        },
        {
          "internalType": "uint256",
          "name": "cartId",
          "type": "uint256"
        }
      ],
      "name": "removeProdCart",
      "outputs": [],
      "payable": false,
      "stateMutability": "nonpayable",
      "type": "function"
    },
    {
      "constant": false,
      "inputs": [
        {
          "internalType": "uint256",
          "name": "_id",
          "type": "uint256"
        },
        {
          "internalType": "uint256",
          "name": "_indicator",
          "type": "uint256"
        }
      ],
      "name": "removeAllProdCart",
      "outputs": [],
      "payable": false,
      "stateMutability": "nonpayable",
      "type": "function"
    },
    {
      "constant": false,
      "inputs": [
        {
          "internalType": "uint256",
          "name": "id",
          "type": "uint256"
        },
        {
          "internalType": "uint256",
          "name": "cartId",
          "type": "uint256"
        },
        {
          "internalType": "uint256",
          "name": "indicator",
          "type": "uint256"
        }
      ],
      "name": "getCartProduct",
      "outputs": [
        {
          "internalType": "uint256",
          "name": "",
          "type": "uint256"
        },
        {
          "internalType": "uint256",
          "name": "",
          "type": "uint256"
        }
      ],
      "payable": false,
      "stateMutability": "nonpayable",
      "type": "function"
    },
    {
      "constant": false,
      "inputs": [
        {
          "internalType": "uint256",
          "name": "orderId",
          "type": "uint256"
        },
        {
          "internalType": "uint256",
          "name": "cartId",
          "type": "uint256"
        }
      ],
      "name": "getOrderProduct",
      "outputs": [
        {
          "components": [
            {
              "internalType": "uint256",
              "name": "id",
              "type": "uint256"
            },
            {
              "internalType": "uint256",
              "name": "productId",
              "type": "uint256"
            },
            {
              "internalType": "uint256",
              "name": "productQty",
              "type": "uint256"
            }
          ],
          "internalType": "struct Marketplace.CartItem",
          "name": "",
          "type": "tuple"
        }
      ],
      "payable": false,
      "stateMutability": "nonpayable",
      "type": "function"
    },
    {
      "constant": false,
      "inputs": [
        {
          "internalType": "uint256",
          "name": "hawkerId",
          "type": "uint256"
        },
        {
          "internalType": "uint256",
          "name": "feedbackCount",
          "type": "uint256"
        }
      ],
      "name": "getHawkerFeedback",
      "outputs": [
        {
          "components": [
            {
              "internalType": "uint256",
              "name": "id",
              "type": "uint256"
            },
            {
              "internalType": "address",
              "name": "seller",
              "type": "address"
            },
            {
              "internalType": "address",
              "name": "customer",
              "type": "address"
            },
            {
              "internalType": "uint256",
              "name": "rate",
              "type": "uint256"
            },
            {
              "internalType": "string",
              "name": "comment",
              "type": "string"
            }
          ],
          "internalType": "struct Marketplace.Feedback",
          "name": "",
          "type": "tuple"
        }
      ],
      "payable": false,
      "stateMutability": "nonpayable",
      "type": "function"
    },
    {
      "constant": false,
      "inputs": [
        {
          "internalType": "uint256",
          "name": "_orderId",
          "type": "uint256"
        },
        {
          "internalType": "uint256",
          "name": "_hawkerId",
          "type": "uint256"
        },
        {
          "internalType": "uint256",
          "name": "_hawkerRate",
          "type": "uint256"
        },
        {
          "internalType": "string",
          "name": "_hawkerComment",
          "type": "string"
        },
        {
          "internalType": "uint256",
          "name": "_foodDeliveryId",
          "type": "uint256"
        },
        {
          "internalType": "uint256",
          "name": "_fdRate",
          "type": "uint256"
        },
        {
          "internalType": "string",
          "name": "_fdComment",
          "type": "string"
        }
      ],
      "name": "setRating",
      "outputs": [],
      "payable": false,
      "stateMutability": "nonpayable",
      "type": "function"
    },
    {
      "constant": false,
      "inputs": [
        {
          "internalType": "uint256",
          "name": "_orderId",
          "type": "uint256"
        },
        {
          "internalType": "address payable",
          "name": "_customer",
          "type": "address"
        }
      ],
      "name": "cancelOrder",
      "outputs": [],
      "payable": true,
      "stateMutability": "payable",
      "type": "function"
    },
    {
      "constant": false,
      "inputs": [
        {
          "internalType": "uint256",
          "name": "_indicator",
          "type": "uint256"
        },
        {
          "internalType": "uint256",
          "name": "_id",
          "type": "uint256"
        },
        {
          "internalType": "address payable",
          "name": "_seller",
          "type": "address"
        },
        {
          "internalType": "uint256",
          "name": "_hawkerPayment",
          "type": "uint256"
        },
        {
          "internalType": "uint256",
          "name": "_riderPayment",
          "type": "uint256"
        },
        {
          "internalType": "uint256",
          "name": "_totalCost",
          "type": "uint256"
        },
        {
          "internalType": "string",
          "name": "_dateTime",
          "type": "string"
        },
        {
          "internalType": "string",
          "name": "_deliveryDateTime",
          "type": "string"
        }
      ],
      "name": "purchaseProduct",
      "outputs": [],
      "payable": true,
      "stateMutability": "payable",
      "type": "function"
    },
    {
      "constant": false,
      "inputs": [
        {
          "internalType": "uint256",
          "name": "_orderId",
          "type": "uint256"
        },
        {
          "internalType": "string",
          "name": "_estTime",
          "type": "string"
        }
      ],
      "name": "hawkerConfirmOrder",
      "outputs": [],
      "payable": false,
      "stateMutability": "nonpayable",
      "type": "function"
    },
    {
      "constant": false,
      "inputs": [
        {
          "internalType": "uint256",
          "name": "_orderId",
          "type": "uint256"
        }
      ],
      "name": "fdAcceptOrder",
      "outputs": [],
      "payable": false,
      "stateMutability": "nonpayable",
      "type": "function"
    },
    {
      "constant": false,
      "inputs": [
        {
          "internalType": "uint256",
          "name": "_orderId",
          "type": "uint256"
        }
      ],
      "name": "fdCollectedOrder",
      "outputs": [],
      "payable": false,
      "stateMutability": "nonpayable",
      "type": "function"
    },
    {
      "constant": false,
      "inputs": [
        {
          "internalType": "uint256",
          "name": "_orderId",
          "type": "uint256"
        },
        {
          "internalType": "uint256",
          "name": "_fdId",
          "type": "uint256"
        },
        {
          "internalType": "string",
          "name": "_dateTime",
          "type": "string"
        }
      ],
      "name": "fdCompleteOrder",
      "outputs": [],
      "payable": true,
      "stateMutability": "payable",
      "type": "function"
    }
  ],
  "bytecode": "0x60806040526000600655600060085534801561001a57600080fd5b5061462f8061002a6000396000f3fe6080604052600436106102515760003560e01c80639a81fecc11610139578063c19d93fb116100b6578063e24b05621161007a578063e24b056214610903578063e34960761461092c578063e4fed93c14610955578063e6f65b4c14610971578063f0bbfb071461099c578063f75c2d88146109c557610251565b8063c19d93fb14610800578063cc3cb4321461082b578063cea2312114610854578063d99b099c14610895578063e16f14e2146108be57610251565b8063adc7db9f116100fd578063adc7db9f14610705578063b0062d141461072e578063b0fd5c4614610757578063bb474eab14610782578063c0abda2a146107c057610251565b80639a81fecc146105fd578063a09a6b5114610626578063a85c38ef1461064f578063a9937b2214610697578063abed579f146106c257610251565b80634244c3d4116101d25780637323a7d3116101965780637323a7d314610512578063757a27031461052e5780637e577ef61461055957806388bc8150146105825780638968bffd146105ab578063995d7d93146105d457610251565b80634244c3d41461042f5780634368d1791461045857806362fb14221461049557806364a6b494146104be5780637188bf5c146104e957610251565b8063278e381c11610219578063278e381c1461033f57806329c5d7bb1461037c57806330341437146103a557806335daa731146103c15780633be94d47146103ec57610251565b8063093c05fa146102565780630c21a8d2146102995780630c6e9ec1146102c45780631c933a3e146102ed5780631d3b7e2b14610316575b600080fd5b34801561026257600080fd5b5061027d6004803603610278919081019061399a565b6109ee565b6040516102909796959493929190614147565b60405180910390f35b3480156102a557600080fd5b506102ae610af5565b6040516102bb9190614064565b60405180910390f35b3480156102d057600080fd5b506102eb60048036036102e691908101906139ff565b610afb565b005b3480156102f957600080fd5b50610314600480360361030f91908101906137cd565b610b2a565b005b34801561032257600080fd5b5061033d600480360361033891908101906139ff565b610c53565b005b34801561034b57600080fd5b5061036660048036036103619190810190613bc8565b610c82565b6040516103739190614027565b60405180910390f35b34801561038857600080fd5b506103a3600480360361039e91908101906138b4565b610d12565b005b6103bf60048036036103ba9190810190613c04565b610e86565b005b3480156103cd57600080fd5b506103d66117f2565b6040516103e39190614064565b60405180910390f35b3480156103f857600080fd5b50610413600480360361040e919081019061399a565b6117f8565b6040516104269796959493929190614209565b60405180910390f35b34801561043b57600080fd5b5061045660048036036104519190810190613bc8565b6118ff565b005b34801561046457600080fd5b5061047f600480360361047a9190810190613bc8565b611960565b60405161048c9190614042565b60405180910390f35b3480156104a157600080fd5b506104bc60048036036104b79190810190613afa565b611b16565b005b3480156104ca57600080fd5b506104d3611bf4565b6040516104e09190614064565b60405180910390f35b3480156104f557600080fd5b50610510600480360361050b919081019061399a565b611bfa565b005b61052c600480360361052791908101906139c3565b611c4d565b005b34801561053a57600080fd5b50610543611ce6565b6040516105509190614064565b60405180910390f35b34801561056557600080fd5b50610580600480360361057b9190810190613bc8565b611cec565b005b34801561058e57600080fd5b506105a960048036036105a491908101906137cd565b611def565b005b3480156105b757600080fd5b506105d260048036036105cd9190810190613a53565b611f07565b005b3480156105e057600080fd5b506105fb60048036036105f6919081019061399a565b611fad565b005b34801561060957600080fd5b50610624600480360361061f9190810190613d4d565b61203d565b005b34801561063257600080fd5b5061064d600480360361064891908101906137cd565b6120f7565b005b34801561065b57600080fd5b506106766004803603610671919081019061399a565b612259565b60405161068e9c9b9a9998979695949392919061407f565b60405180910390f35b3480156106a357600080fd5b506106ac612463565b6040516106b99190614064565b60405180910390f35b3480156106ce57600080fd5b506106e960048036036106e4919081019061399a565b612469565b6040516106fc97969594939291906142d9565b60405180910390f35b34801561071157600080fd5b5061072c600480360361072791908101906137cd565b612608565b005b34801561073a57600080fd5b50610755600480360361075091908101906139ff565b61276b565b005b34801561076357600080fd5b5061076c61279a565b6040516107799190614064565b60405180910390f35b34801561078e57600080fd5b506107a960048036036107a49190810190613d4d565b6127a0565b6040516107b79291906143f8565b60405180910390f35b3480156107cc57600080fd5b506107e760048036036107e2919081019061399a565b612856565b6040516107f794939291906141bd565b60405180910390f35b34801561080c57600080fd5b5061081561293e565b604051610822919061400c565b60405180910390f35b34801561083757600080fd5b50610852600480360361084d9190810190613821565b612951565b005b34801561086057600080fd5b5061087b6004803603610876919081019061399a565b612aa9565b60405161088c95949392919061427f565b60405180910390f35b3480156108a157600080fd5b506108bc60048036036108b791908101906139ff565b612b97565b005b3480156108ca57600080fd5b506108e560048036036108e0919081019061399a565b612c5b565b6040516108fa99989796959493929190614356565b60405180910390f35b34801561090f57600080fd5b5061092a60048036036109259190810190613d9c565b612e9e565b005b34801561093857600080fd5b50610953600480360361094e919081019061399a565b6132b7565b005b61096f600480360361096a9190810190613ce6565b61330c565b005b34801561097d57600080fd5b506109866133f6565b6040516109939190614064565b60405180910390f35b3480156109a857600080fd5b506109c360048036036109be919081019061399a565b6133fc565b005b3480156109d157600080fd5b506109ec60048036036109e79190810190613d4d565b613437565b005b60006020528060005260406000206000915090508060000154908060010160009054906101000a900473ffffffffffffffffffffffffffffffffffffffff1690806002018054600181600116156101000203166002900480601f016020809104026020016040519081016040528092919081815260200182805460018160011615610100020316600290048015610ac65780601f10610a9b57610100808354040283529160200191610ac6565b820191906000526020600020905b815481529060010190602001808311610aa957829003601f168201915b5050505050908060030154908060040160009054906101000a900460ff16908060050154908060070154905087565b600e5481565b80600260008481526020019081526020016000206002019080519060200190610b259291906134f1565b505050565b8173ffffffffffffffffffffffffffffffffffffffff163373ffffffffffffffffffffffffffffffffffffffff1614610b6257600080fd5b6003600081548092919060010191905055506040518060a0016040528060035481526020013373ffffffffffffffffffffffffffffffffffffffff1681526020018281526020016000815260200160008152506002600060035481526020019081526020016000206000820151816000015560208201518160010160006101000a81548173ffffffffffffffffffffffffffffffffffffffff021916908373ffffffffffffffffffffffffffffffffffffffff1602179055506040820151816002019080519060200190610c37929190613571565b5060608201518160030155608082015181600501559050505050565b80600460008481526020019081526020016000206002019080519060200190610c7d9291906134f1565b505050565b610c8a6135f1565b6000600b600085815260200190815260200160002090506000816007016000858152602001908152602001600020600101549050610cc66135f1565b8260070160008681526020019081526020016000206040518060600160405290816000820154815260200160018201548152602001600282015481525050905080935050505092915050565b60066000815480929190600101919050555060405180610120016040528060065481526020018881526020018781526020018681526020018581526020013373ffffffffffffffffffffffffffffffffffffffff168152602001841515815260200183815260200182815250600760006006548152602001908152602001600020600082015181600001556020820151816001019080519060200190610db9929190613571565b5060408201518160020155606082015181600301556080820151816004015560a08201518160050160006101000a81548173ffffffffffffffffffffffffffffffffffffffff021916908373ffffffffffffffffffffffffffffffffffffffff16021790555060c08201518160050160146101000a81548160ff02191690831515021790555060e0820151816006019080519060200190610e5b929190613571565b50610100820151816007019080519060200190610e79929190613571565b5090505050505050505050565b600188141561133957610e97613612565b600d6000898152602001908152602001600020604051806080016040529081600082015481526020016001820160009054906101000a900473ffffffffffffffffffffffffffffffffffffffff1673ffffffffffffffffffffffffffffffffffffffff1673ffffffffffffffffffffffffffffffffffffffff168152602001600282018054600181600116156101000203166002900480601f016020809104026020016040519081016040528092919081815260200182805460018160011615610100020316600290048015610fae5780601f10610f8357610100808354040283529160200191610fae565b820191906000526020600020905b815481529060010190602001808311610f9157829003601f168201915b505050505081526020016004820154815250509050600c600081548092919060010191905055506000600a60006101000a81548160ff02191690836005811115610ff457fe5b0217905550604051806101800160405280600c548152602001826020015173ffffffffffffffffffffffffffffffffffffffff1681526020018873ffffffffffffffffffffffffffffffffffffffff168152602001600073ffffffffffffffffffffffffffffffffffffffff16815260200187815260200186815260200185815260200182606001518152602001848152602001838152602001600a60009054906101000a900460ff1660058111156110a957fe5b815260200160001515815250600b6000600c5481526020019081526020016000206000820151816000015560208201518160010160006101000a81548173ffffffffffffffffffffffffffffffffffffffff021916908373ffffffffffffffffffffffffffffffffffffffff16021790555060408201518160020160006101000a81548173ffffffffffffffffffffffffffffffffffffffff021916908373ffffffffffffffffffffffffffffffffffffffff16021790555060608201518160030160006101000a81548173ffffffffffffffffffffffffffffffffffffffff021916908373ffffffffffffffffffffffffffffffffffffffff1602179055506080820151816004015560a0820151816005015560c0820151816006015560e082015181600801556101008201518160090190805190602001906111ee929190613571565b5061012082015181600a01908051906020019061120c929190613571565b5061014082015181600b0160006101000a81548160ff0219169083600581111561123257fe5b021790555061016082015181600b0160016101000a81548160ff0219169083151502179055509050506000600190505b8160600151811161131a5760008061127c8b8460016127a0565b91509150604051806060016040528084815260200183815260200182815250600b6000600c5481526020019081526020016000206007016000858152602001908152602001600020600082015181600001556020820151816001015560408201518160020155905050600960008381526020019081526020016000206005016000815480929190600101919050555050508080600101915050611262565b508334101561132857600080fd5b611333886001611cec565b506117e8565b611341613650565b600460008981526020019081526020016000206040518060e0016040529081600082015481526020016001820160009054906101000a900473ffffffffffffffffffffffffffffffffffffffff1673ffffffffffffffffffffffffffffffffffffffff1673ffffffffffffffffffffffffffffffffffffffff168152602001600282018054600181600116156101000203166002900480601f0160208091040260200160405190810160405280929190818152602001828054600181600116156101000203166002900480156114585780601f1061142d57610100808354040283529160200191611458565b820191906000526020600020905b81548152906001019060200180831161143b57829003601f168201915b50505050508152602001600382015481526020016004820160009054906101000a900460ff16151515158152602001600682015481526020016008820154815250509050600c600081548092919060010191905055506000600a60006101000a81548160ff021916908360058111156114cd57fe5b0217905550604051806101800160405280600c548152602001826020015173ffffffffffffffffffffffffffffffffffffffff1681526020018873ffffffffffffffffffffffffffffffffffffffff168152602001600073ffffffffffffffffffffffffffffffffffffffff1681526020018781526020018681526020018581526020018260c001518152602001848152602001838152602001600a60009054906101000a900460ff16600581111561158257fe5b815260200160001515815250600b6000600c5481526020019081526020016000206000820151816000015560208201518160010160006101000a81548173ffffffffffffffffffffffffffffffffffffffff021916908373ffffffffffffffffffffffffffffffffffffffff16021790555060408201518160020160006101000a81548173ffffffffffffffffffffffffffffffffffffffff021916908373ffffffffffffffffffffffffffffffffffffffff16021790555060608201518160030160006101000a81548173ffffffffffffffffffffffffffffffffffffffff021916908373ffffffffffffffffffffffffffffffffffffffff1602179055506080820151816004015560a0820151816005015560c0820151816006015560e082015181600801556101008201518160090190805190602001906116c7929190613571565b5061012082015181600a0190805190602001906116e5929190613571565b5061014082015181600b0160006101000a81548160ff0219169083600581111561170b57fe5b021790555061016082015181600b0160016101000a81548160ff0219169083151502179055509050506000600190505b8160c0015181116117cd576000806117558b8460026127a0565b91509150604051806060016040528084815260200183815260200182815250600b6000600c54815260200190815260200160002060070160008581526020019081526020016000206000820151816000015560208201518160010155604082015181600201559050505050808060010191505061173b565b50833410156117db57600080fd5b6117e6886002611cec565b505b5050505050505050565b600c5481565b60046020528060005260406000206000915090508060000154908060010160009054906101000a900473ffffffffffffffffffffffffffffffffffffffff1690806002018054600181600116156101000203166002900480601f0160208091040260200160405190810160405280929190818152602001828054600181600116156101000203166002900480156118d05780601f106118a5576101008083540402835291602001916118d0565b820191906000526020600020905b8154815290600101906020018083116118b357829003601f168201915b5050505050908060030154908060040160009054906101000a900460ff16908060060154908060080154905087565b6000600d60008481526020019081526020016000209050806004016000815480929190600190039190505550806003016000838152602001908152602001600020600080820160009055600182016000905560028201600090555050505050565b6119686136a5565b60006004600085815260200190815260200160002090506119876136a5565b8160050160008581526020019081526020016000206040518060a0016040529081600082015481526020016001820160009054906101000a900473ffffffffffffffffffffffffffffffffffffffff1673ffffffffffffffffffffffffffffffffffffffff1673ffffffffffffffffffffffffffffffffffffffff1681526020016002820160009054906101000a900473ffffffffffffffffffffffffffffffffffffffff1673ffffffffffffffffffffffffffffffffffffffff1673ffffffffffffffffffffffffffffffffffffffff16815260200160038201548152602001600482018054600181600116156101000203166002900480601f016020809104026020016040519081016040528092919081815260200182805460018160011615610100020316600290048015611b005780601f10611ad557610100808354040283529160200191611b00565b820191906000526020600020905b815481529060010190602001808311611ae357829003601f168201915b5050505050815250509050809250505092915050565b85600760008981526020019081526020016000206001019080519060200190611b409291906134f1565b5084600760008981526020019081526020016000206002018190555083600760008981526020019081526020016000206003018190555082600760008981526020019081526020016000206004018190555081600760008981526020019081526020016000206006019080519060200190611bbc9291906134f1565b50806007600089815260200190815260200160002060050160146101000a81548160ff02191690831515021790555050505050505050565b60035481565b60008082815260200190815260200160002060040160009054906101000a900460ff161560008083815260200190815260200160002060040160006101000a81548160ff02191690831515021790555050565b6005600b6000848152602001908152602001600020600b0160006101000a81548160ff02191690836005811115611c8057fe5b02179055508073ffffffffffffffffffffffffffffffffffffffff166108fc600b6000858152602001908152602001600020600601549081150290604051600060405180830381858888f19350505050158015611ce1573d6000803e3d6000fd5b505050565b60085481565b6001811415611d72576000600d600084815260200190815260200160002090506000816004015490506000600190505b818111611d60578260030160008281526020019081526020016000206000808201600090556001820160009055600282016000905550508080600101915050611d1c565b50600082600401819055505050611deb565b60006004600084815260200190815260200160002090506000816008015490506000600190505b818111611ddd578260070160008281526020019081526020016000206000808201600090556001820160009055600282016000905550508080600101915050611d99565b506000826008018190555050505b5050565b8173ffffffffffffffffffffffffffffffffffffffff163373ffffffffffffffffffffffffffffffffffffffff1614611e2757600080fd5b600e600081548092919060010191905055506040518060800160405280600e5481526020013373ffffffffffffffffffffffffffffffffffffffff1681526020018281526020016000815250600d6000600e5481526020019081526020016000206000820151816000015560208201518160010160006101000a81548173ffffffffffffffffffffffffffffffffffffffff021916908373ffffffffffffffffffffffffffffffffffffffff1602179055506040820151816002019080519060200190611ef5929190613571565b50606082015181600401559050505050565b83600960008781526020019081526020016000206001019080519060200190611f319291906134f1565b5082600960008781526020019081526020016000206002018190555081600960008781526020019081526020016000206004019080519060200190611f779291906134f1565b50806009600087815260200190815260200160002060030160146101000a81548160ff0219169083151502179055505050505050565b6002600b6000838152602001908152602001600020600b0160006101000a81548160ff02191690836005811115611fe057fe5b021790555033600b600083815260200190815260200160002060030160006101000a81548173ffffffffffffffffffffffffffffffffffffffff021916908373ffffffffffffffffffffffffffffffffffffffff16021790555050565b600d6000848152602001908152602001600020600401600081548092919060010191905055506040518060600160405280600d600086815260200190815260200160002060040154815260200183815260200182815250600d60008581526020019081526020016000206003016000600d6000878152602001908152602001600020600401548152602001908152602001600020600082015181600001556020820151816001015560408201518160020155905050505050565b8173ffffffffffffffffffffffffffffffffffffffff163373ffffffffffffffffffffffffffffffffffffffff161461212f57600080fd5b6001600081548092919060010191905055506040518060e0016040528060015481526020013373ffffffffffffffffffffffffffffffffffffffff1681526020018281526020016005815260200160001515815260200160008152602001600081525060008060015481526020019081526020016000206000820151816000015560208201518160010160006101000a81548173ffffffffffffffffffffffffffffffffffffffff021916908373ffffffffffffffffffffffffffffffffffffffff1602179055506040820151816002019080519060200190612213929190613571565b506060820151816003015560808201518160040160006101000a81548160ff02191690831515021790555060a0820151816005015560c082015181600701559050505050565b600b6020528060005260406000206000915090508060000154908060010160009054906101000a900473ffffffffffffffffffffffffffffffffffffffff16908060020160009054906101000a900473ffffffffffffffffffffffffffffffffffffffff16908060030160009054906101000a900473ffffffffffffffffffffffffffffffffffffffff1690806004015490806005015490806006015490806008015490806009018054600181600116156101000203166002900480601f0160208091040260200160405190810160405280929190818152602001828054600181600116156101000203166002900480156123955780601f1061236a57610100808354040283529160200191612395565b820191906000526020600020905b81548152906001019060200180831161237857829003601f168201915b50505050509080600a018054600181600116156101000203166002900480601f0160208091040260200160405190810160405280929190818152602001828054600181600116156101000203166002900480156124335780601f1061240857610100808354040283529160200191612433565b820191906000526020600020905b81548152906001019060200180831161241657829003601f168201915b50505050509080600b0160009054906101000a900460ff169080600b0160019054906101000a900460ff1690508c565b60065481565b6009602052806000526040600020600091509050806000015490806001018054600181600116156101000203166002900480601f01602080910402602001604051908101604052809291908181526020018280546001816001161561010002031660029004801561251b5780601f106124f05761010080835404028352916020019161251b565b820191906000526020600020905b8154815290600101906020018083116124fe57829003601f168201915b5050505050908060020154908060030160009054906101000a900473ffffffffffffffffffffffffffffffffffffffff16908060030160149054906101000a900460ff1690806004018054600181600116156101000203166002900480601f0160208091040260200160405190810160405280929190818152602001828054600181600116156101000203166002900480156125f85780601f106125cd576101008083540402835291602001916125f8565b820191906000526020600020905b8154815290600101906020018083116125db57829003601f168201915b5050505050908060050154905087565b8173ffffffffffffffffffffffffffffffffffffffff163373ffffffffffffffffffffffffffffffffffffffff161461264057600080fd5b6005600081548092919060010191905055506040518060e0016040528060055481526020013373ffffffffffffffffffffffffffffffffffffffff168152602001828152602001600081526020016000151581526020016000815260200160008152506004600060055481526020019081526020016000206000820151816000015560208201518160010160006101000a81548173ffffffffffffffffffffffffffffffffffffffff021916908373ffffffffffffffffffffffffffffffffffffffff1602179055506040820151816002019080519060200190612725929190613571565b506060820151816003015560808201518160040160006101000a81548160ff02191690831515021790555060a0820151816006015560c082015181600801559050505050565b80600d600084815260200190815260200160002060020190805190602001906127959291906134f1565b505050565b60015481565b60008060018314156127ff576000600d600087815260200190815260200160002090508060030160008681526020019081526020016000206001015481600301600087815260200190815260200160002060020154925092505061284e565b6000600460008781526020019081526020016000209050806007016000868152602001908152602001600020600101548160070160008781526020019081526020016000206002015492509250505b935093915050565b600d6020528060005260406000206000915090508060000154908060010160009054906101000a900473ffffffffffffffffffffffffffffffffffffffff1690806002018054600181600116156101000203166002900480601f01602080910402602001604051908101604052809291908181526020018280546001816001161561010002031660029004801561292e5780601f106129035761010080835404028352916020019161292e565b820191906000526020600020905b81548152906001019060200180831161291157829003601f168201915b5050505050908060040154905084565b600a60009054906101000a900460ff1681565b600084511161295f57600080fd5b6000831161296c57600080fd5b6008600081548092919060010191905055506040518060e0016040528060085481526020018581526020018481526020013373ffffffffffffffffffffffffffffffffffffffff16815260200183151581526020018281526020016000815250600960006008548152602001908152602001600020600082015181600001556020820151816001019080519060200190612a07929190613571565b506040820151816002015560608201518160030160006101000a81548173ffffffffffffffffffffffffffffffffffffffff021916908373ffffffffffffffffffffffffffffffffffffffff16021790555060808201518160030160146101000a81548160ff02191690831515021790555060a0820151816004019080519060200190612a95929190613571565b5060c0820151816005015590505050505050565b60026020528060005260406000206000915090508060000154908060010160009054906101000a900473ffffffffffffffffffffffffffffffffffffffff1690806002018054600181600116156101000203166002900480601f016020809104026020016040519081016040528092919081815260200182805460018160011615610100020316600290048015612b815780601f10612b5657610100808354040283529160200191612b81565b820191906000526020600020905b815481529060010190602001808311612b6457829003601f168201915b5050505050908060030154908060050154905085565b6001600b6000848152602001908152602001600020600b0160006101000a81548160ff02191690836005811115612bca57fe5b021790555080600b6000848152602001908152602001600020600a019080519060200190612bf99291906134f1565b503373ffffffffffffffffffffffffffffffffffffffff166108fc600b6000858152602001908152602001600020600401549081150290604051600060405180830381858888f19350505050158015612c56573d6000803e3d6000fd5b505050565b6007602052806000526040600020600091509050806000015490806001018054600181600116156101000203166002900480601f016020809104026020016040519081016040528092919081815260200182805460018160011615610100020316600290048015612d0d5780601f10612ce257610100808354040283529160200191612d0d565b820191906000526020600020905b815481529060010190602001808311612cf057829003601f168201915b5050505050908060020154908060030154908060040154908060050160009054906101000a900473ffffffffffffffffffffffffffffffffffffffff16908060050160149054906101000a900460ff1690806006018054600181600116156101000203166002900480601f016020809104026020016040519081016040528092919081815260200182805460018160011615610100020316600290048015612df65780601f10612dcb57610100808354040283529160200191612df6565b820191906000526020600020905b815481529060010190602001808311612dd957829003601f168201915b505050505090806007018054600181600116156101000203166002900480601f016020809104026020016040519081016040528092919081815260200182805460018160011615610100020316600290048015612e945780601f10612e6957610100808354040283529160200191612e94565b820191906000526020600020905b815481529060010190602001808311612e7757829003601f168201915b5050505050905089565b6001600b6000898152602001908152602001600020600b0160016101000a81548160ff02191690831515021790555060046000878152602001908152602001600020600601600081548092919060010191905055506040518060a00160405280600460008981526020019081526020016000206006015481526020016004600089815260200190815260200160002060010160009054906101000a900473ffffffffffffffffffffffffffffffffffffffff1673ffffffffffffffffffffffffffffffffffffffff1681526020013373ffffffffffffffffffffffffffffffffffffffff16815260200186815260200185815250600460008881526020019081526020016000206005016000600460008a81526020019081526020016000206006015481526020019081526020016000206000820151816000015560208201518160010160006101000a81548173ffffffffffffffffffffffffffffffffffffffff021916908373ffffffffffffffffffffffffffffffffffffffff16021790555060408201518160020160006101000a81548173ffffffffffffffffffffffffffffffffffffffff021916908373ffffffffffffffffffffffffffffffffffffffff16021790555060608201518160030155608082015181600401908051906020019061308d929190613571565b5090505060006004600088815260200190815260200160002060030154860190506000600460008981526020019081526020016000206006015482816130cf57fe5b04905080600460008a815260200190815260200160002060030181905550600080868152602001908152602001600020600701600081548092919060010191905055506040518060a0016040528060008088815260200190815260200160002060070154815260200160008088815260200190815260200160002060010160009054906101000a900473ffffffffffffffffffffffffffffffffffffffff1673ffffffffffffffffffffffffffffffffffffffff1681526020013373ffffffffffffffffffffffffffffffffffffffff1681526020018581526020018481525060008087815260200190815260200160002060060160008060008981526020019081526020016000206007015481526020019081526020016000206000820151816000015560208201518160010160006101000a81548173ffffffffffffffffffffffffffffffffffffffff021916908373ffffffffffffffffffffffffffffffffffffffff16021790555060408201518160020160006101000a81548173ffffffffffffffffffffffffffffffffffffffff021916908373ffffffffffffffffffffffffffffffffffffffff1602179055506060820151816003015560808201518160040190805190602001906132a8929190613571565b50905050505050505050505050565b6004600082815260200190815260200160002060040160009054906101000a900460ff16156004600083815260200190815260200160002060040160006101000a81548160ff02191690831515021790555050565b6004600b6000858152602001908152602001600020600b0160006101000a81548160ff0219169083600581111561333f57fe5b021790555080600b6000858152602001908152602001600020600a01908051906020019061336e9291906134f1565b503373ffffffffffffffffffffffffffffffffffffffff166108fc600b6000868152602001908152602001600020600501549081150290604051600060405180830381858888f193505050501580156133cb573d6000803e3d6000fd5b5060008083815260200190815260200160002060050160008154809291906001019190505550505050565b60055481565b6003600b6000838152602001908152602001600020600b0160006101000a81548160ff0219169083600581111561342f57fe5b021790555050565b60046000848152602001908152602001600020600801600081548092919060010191905055506040518060600160405280600460008681526020019081526020016000206008015481526020018381526020018281525060046000858152602001908152602001600020600701600060046000878152602001908152602001600020600801548152602001908152602001600020600082015181600001556020820151816001015560408201518160020155905050505050565b828054600181600116156101000203166002900490600052602060002090601f016020900481019282601f1061353257805160ff1916838001178555613560565b82800160010185558215613560579182015b8281111561355f578251825591602001919060010190613544565b5b50905061356d9190613700565b5090565b828054600181600116156101000203166002900490600052602060002090601f016020900481019282601f106135b257805160ff19168380011785556135e0565b828001600101855582156135e0579182015b828111156135df5782518255916020019190600101906135c4565b5b5090506135ed9190613700565b5090565b60405180606001604052806000815260200160008152602001600081525090565b604051806080016040528060008152602001600073ffffffffffffffffffffffffffffffffffffffff16815260200160608152602001600081525090565b6040518060e0016040528060008152602001600073ffffffffffffffffffffffffffffffffffffffff168152602001606081526020016000815260200160001515815260200160008152602001600081525090565b6040518060a0016040528060008152602001600073ffffffffffffffffffffffffffffffffffffffff168152602001600073ffffffffffffffffffffffffffffffffffffffff16815260200160008152602001606081525090565b61372291905b8082111561371e576000816000905550600101613706565b5090565b90565b60008135905061373481614590565b92915050565b600081359050613749816145a7565b92915050565b60008135905061375e816145be565b92915050565b600082601f83011261377557600080fd5b81356137886137838261444e565b614421565b915080825260208301602083018583830111156137a457600080fd5b6137af838284614530565b50505092915050565b6000813590506137c7816145d5565b92915050565b600080604083850312156137e057600080fd5b60006137ee85828601613725565b925050602083013567ffffffffffffffff81111561380b57600080fd5b61381785828601613764565b9150509250929050565b6000806000806080858703121561383757600080fd5b600085013567ffffffffffffffff81111561385157600080fd5b61385d87828801613764565b945050602061386e878288016137b8565b935050604061387f8782880161374f565b925050606085013567ffffffffffffffff81111561389c57600080fd5b6138a887828801613764565b91505092959194509250565b600080600080600080600060e0888a0312156138cf57600080fd5b600088013567ffffffffffffffff8111156138e957600080fd5b6138f58a828b01613764565b97505060206139068a828b016137b8565b96505060406139178a828b016137b8565b95505060606139288a828b016137b8565b94505060806139398a828b0161374f565b93505060a088013567ffffffffffffffff81111561395657600080fd5b6139628a828b01613764565b92505060c088013567ffffffffffffffff81111561397f57600080fd5b61398b8a828b01613764565b91505092959891949750929550565b6000602082840312156139ac57600080fd5b60006139ba848285016137b8565b91505092915050565b600080604083850312156139d657600080fd5b60006139e4858286016137b8565b92505060206139f58582860161373a565b9150509250929050565b60008060408385031215613a1257600080fd5b6000613a20858286016137b8565b925050602083013567ffffffffffffffff811115613a3d57600080fd5b613a4985828601613764565b9150509250929050565b600080600080600060a08688031215613a6b57600080fd5b6000613a79888289016137b8565b955050602086013567ffffffffffffffff811115613a9657600080fd5b613aa288828901613764565b9450506040613ab3888289016137b8565b935050606086013567ffffffffffffffff811115613ad057600080fd5b613adc88828901613764565b9250506080613aed8882890161374f565b9150509295509295909350565b600080600080600080600060e0888a031215613b1557600080fd5b6000613b238a828b016137b8565b975050602088013567ffffffffffffffff811115613b4057600080fd5b613b4c8a828b01613764565b9650506040613b5d8a828b016137b8565b9550506060613b6e8a828b016137b8565b9450506080613b7f8a828b016137b8565b93505060a088013567ffffffffffffffff811115613b9c57600080fd5b613ba88a828b01613764565b92505060c0613bb98a828b0161374f565b91505092959891949750929550565b60008060408385031215613bdb57600080fd5b6000613be9858286016137b8565b9250506020613bfa858286016137b8565b9150509250929050565b600080600080600080600080610100898b031215613c2157600080fd5b6000613c2f8b828c016137b8565b9850506020613c408b828c016137b8565b9750506040613c518b828c0161373a565b9650506060613c628b828c016137b8565b9550506080613c738b828c016137b8565b94505060a0613c848b828c016137b8565b93505060c089013567ffffffffffffffff811115613ca157600080fd5b613cad8b828c01613764565b92505060e089013567ffffffffffffffff811115613cca57600080fd5b613cd68b828c01613764565b9150509295985092959890939650565b600080600060608486031215613cfb57600080fd5b6000613d09868287016137b8565b9350506020613d1a868287016137b8565b925050604084013567ffffffffffffffff811115613d3757600080fd5b613d4386828701613764565b9150509250925092565b600080600060608486031215613d6257600080fd5b6000613d70868287016137b8565b9350506020613d81868287016137b8565b9250506040613d92868287016137b8565b9150509250925092565b600080600080600080600060e0888a031215613db757600080fd5b6000613dc58a828b016137b8565b9750506020613dd68a828b016137b8565b9650506040613de78a828b016137b8565b955050606088013567ffffffffffffffff811115613e0457600080fd5b613e108a828b01613764565b9450506080613e218a828b016137b8565b93505060a0613e328a828b016137b8565b92505060c088013567ffffffffffffffff811115613e4f57600080fd5b613e5b8a828b01613764565b91505092959891949750929550565b613e73816144b9565b82525050565b613e82816144a7565b82525050565b613e91816144a7565b82525050565b613ea0816144cb565b82525050565b613eaf8161451e565b82525050565b613ebe816144ea565b82525050565b6000613ecf8261447a565b613ed98185614485565b9350613ee981856020860161453f565b613ef281614572565b840191505092915050565b6000613f088261447a565b613f128185614496565b9350613f2281856020860161453f565b613f2b81614572565b840191505092915050565b606082016000820151613f4c6000850182613fee565b506020820151613f5f6020850182613fee565b506040820151613f726040850182613fee565b50505050565b600060a083016000830151613f906000860182613fee565b506020830151613fa36020860182613e79565b506040830151613fb66040860182613e79565b506060830151613fc96060860182613fee565b5060808301518482036080860152613fe18282613ec4565b9150508091505092915050565b613ff781614514565b82525050565b61400681614514565b82525050565b60006020820190506140216000830184613ea6565b92915050565b600060608201905061403c6000830184613f36565b92915050565b6000602082019050818103600083015261405c8184613f78565b905092915050565b60006020820190506140796000830184613ffd565b92915050565b600061018082019050614095600083018f613ffd565b6140a2602083018e613e88565b6140af604083018d613e88565b6140bc606083018c613e88565b6140c9608083018b613ffd565b6140d660a083018a613ffd565b6140e360c0830189613ffd565b6140f060e0830188613ffd565b8181036101008301526141038187613efd565b90508181036101208301526141188186613efd565b9050614128610140830185613ea6565b614136610160830184613e97565b9d9c50505050505050505050505050565b600060e08201905061415c600083018a613ffd565b6141696020830189613e88565b818103604083015261417b8188613efd565b905061418a6060830187613eb5565b6141976080830186613e97565b6141a460a0830185613ffd565b6141b160c0830184613ffd565b98975050505050505050565b60006080820190506141d26000830187613ffd565b6141df6020830186613e88565b81810360408301526141f18185613efd565b90506142006060830184613ffd565b95945050505050565b600060e08201905061421e600083018a613ffd565b61422b6020830189613e88565b818103604083015261423d8188613efd565b905061424c6060830187613ffd565b6142596080830186613e97565b61426660a0830185613ffd565b61427360c0830184613ffd565b98975050505050505050565b600060a0820190506142946000830188613ffd565b6142a16020830187613e88565b81810360408301526142b38186613efd565b90506142c26060830185613ffd565b6142cf6080830184613ffd565b9695505050505050565b600060e0820190506142ee600083018a613ffd565b81810360208301526143008189613efd565b905061430f6040830188613ffd565b61431c6060830187613e6a565b6143296080830186613e97565b81810360a083015261433b8185613efd565b905061434a60c0830184613ffd565b98975050505050505050565b60006101208201905061436c600083018c613ffd565b818103602083015261437e818b613efd565b905061438d604083018a613ffd565b61439a6060830189613ffd565b6143a76080830188613ffd565b6143b460a0830187613e6a565b6143c160c0830186613e97565b81810360e08301526143d38185613efd565b90508181036101008301526143e88184613efd565b90509a9950505050505050505050565b600060408201905061440d6000830185613ffd565b61441a6020830184613ffd565b9392505050565b6000604051905081810181811067ffffffffffffffff8211171561444457600080fd5b8060405250919050565b600067ffffffffffffffff82111561446557600080fd5b601f19601f8301169050602081019050919050565b600081519050919050565b600082825260208201905092915050565b600082825260208201905092915050565b60006144b2826144f4565b9050919050565b60006144c4826144f4565b9050919050565b60008115159050919050565b60008190506144e582614583565b919050565b6000819050919050565b600073ffffffffffffffffffffffffffffffffffffffff82169050919050565b6000819050919050565b6000614529826144d7565b9050919050565b82818337600083830152505050565b60005b8381101561455d578082015181840152602081019050614542565b8381111561456c576000848401525b50505050565b6000601f19601f8301169050919050565b6006811061458d57fe5b50565b614599816144a7565b81146145a457600080fd5b50565b6145b0816144b9565b81146145bb57600080fd5b50565b6145c7816144cb565b81146145d257600080fd5b50565b6145de81614514565b81146145e957600080fd5b5056fea365627a7a72315820daec6390b59e7b4824c292599032ca8a0ea4ccffacc61f4e29e77775e778b08f6c6578706572696d656e74616cf564736f6c63430005100040",
  "source": "// SPDX-License-Identifier: Blockchain\r\n\r\npragma solidity ^0.5.4;\r\n\r\npragma experimental ABIEncoderV2;\r\n\r\ncontract Marketplace {\r\n    //FOOD DELIVERY\r\n    struct FoodDelivery {\r\n        uint256 id;\r\n        address owner;\r\n        // string name;\r\n        // string email;\r\n        // string phone;\r\n        string profileHash;\r\n        int256 rating;\r\n        bool available;\r\n        // mapping(uint256 => Order) ordersAccepted;\r\n        uint256 ordersAcceptedCount;\r\n        mapping(uint256 => Feedback) feedbacks;\r\n        uint256 feedbackCount;\r\n    }\r\n\r\n    // Read/write Food Delivery\r\n    mapping(uint256 => FoodDelivery) public foodDeliveries;\r\n    //Store Food Delivery Count\r\n    uint256 public foodDeliveriesCount;\r\n\r\n    //add new food delivery\r\n    function addFoodDelivery(address _owner, string memory _profileHash)\r\n        public\r\n    {\r\n        require(msg.sender == _owner);\r\n        // require(msg.sender == address(_owner));\r\n        foodDeliveriesCount++;\r\n        foodDeliveries[foodDeliveriesCount] = FoodDelivery(\r\n            foodDeliveriesCount,\r\n            msg.sender,\r\n            _profileHash,\r\n            5,\r\n            false,\r\n            0,\r\n            0\r\n        );\r\n    }\r\n\r\n    //SUPPLIER\r\n    struct Supplier {\r\n        uint256 id;\r\n        address owner;\r\n        string profileHash;\r\n        uint256 avgRating;\r\n        mapping(uint256 => Feedback) feedbacks;\r\n        uint256 feedbackCount;\r\n    }\r\n\r\n    // Read/write Suppliers\r\n    mapping(uint256 => Supplier) public suppliers;\r\n    //Store Suppliers Count\r\n    uint256 public suppliersCount;\r\n\r\n    function addSupplier(address _owner, string memory _profileHash) public {\r\n        require(msg.sender == _owner);\r\n        // require(msg.sender == address(_owner));\r\n        suppliersCount++;\r\n        suppliers[suppliersCount] = Supplier(\r\n            suppliersCount,\r\n            msg.sender,\r\n            _profileHash,\r\n            0,\r\n            0\r\n        );\r\n    }\r\n\r\n    //HAWKER\r\n    struct Hawker {\r\n        uint256 id;\r\n        address owner;\r\n        string profileHash;\r\n        uint256 avgRating;\r\n        bool open;\r\n        mapping(uint256 => Feedback) feedbacks;\r\n        uint256 feedbackCount;\r\n        mapping(uint256 => CartItem) cartItems;\r\n        uint256 itemCount;\r\n    }\r\n\r\n    // Read/write Hawkers\r\n    mapping(uint256 => Hawker) public hawkers;\r\n    //Store Hawkers Count\r\n    uint256 public hawkersCount;\r\n\r\n    //FEEDBACK\r\n    struct Feedback {\r\n        uint256 id;\r\n        address seller;\r\n        address customer;\r\n        uint256 rate;\r\n        string comment;\r\n    }\r\n\r\n    function addHawker(address _owner, string memory _profileHash) public {\r\n        require(msg.sender == _owner);\r\n        hawkersCount++;\r\n        hawkers[hawkersCount] = Hawker(\r\n            hawkersCount,\r\n            msg.sender,\r\n            _profileHash,\r\n            0,\r\n            false,\r\n            0,\r\n            0\r\n        );\r\n    }\r\n\r\n    function editHawkerProfile(uint256 _id, string memory _profileHash) public {\r\n        hawkers[_id].profileHash = _profileHash;\r\n    }\r\n\r\n    //change shop status\r\n    function boolOpen(uint256 _id) public {\r\n        hawkers[_id].open = !(hawkers[_id].open);\r\n    }\r\n\r\n    //change food delivery status\r\n    function boolWork(uint256 _id) public {\r\n        foodDeliveries[_id].available = !(foodDeliveries[_id].available);\r\n    }\r\n\r\n    //SUPPLIER\r\n    uint256 public suppProdCount = 0;\r\n    mapping(uint256 => SuppProduct) public suppProducts;\r\n    struct SuppProduct {\r\n        uint256 id;\r\n        string name;\r\n        uint256 price;\r\n        uint256 size;\r\n        uint256 minOrder;\r\n        address payable owner;\r\n        bool published;\r\n        string imageHash;\r\n        string expiryDate;\r\n    }\r\n\r\n    //Restaurants products\r\n    uint256 public restProdCount = 0;\r\n    mapping(uint256 => RestProduct) public restProducts;\r\n    struct RestProduct {\r\n        uint256 id;\r\n        string name;\r\n        uint256 price;\r\n        address payable owner;\r\n        bool published;\r\n        string imageHash;\r\n        uint256 soldCount;\r\n    }\r\n\r\n    function createSuppProduct(\r\n        string memory _name,\r\n        uint256 _price,\r\n        uint256 _size,\r\n        uint256 _minOrder,\r\n        bool _published,\r\n        string memory _imageHash,\r\n        string memory _expiryDate\r\n    ) public {\r\n        // Increment product count\r\n        suppProdCount++;\r\n        // Create the product --- msg.sender is the one who accessed the function\r\n        suppProducts[suppProdCount] = SuppProduct(\r\n            suppProdCount,\r\n            _name,\r\n            _price,\r\n            _size,\r\n            _minOrder,\r\n            msg.sender,\r\n            _published,\r\n            _imageHash,\r\n            _expiryDate\r\n        );\r\n    }\r\n\r\n    function createRestProduct(\r\n        string memory _name,\r\n        uint256 _price,\r\n        bool _published,\r\n        string memory _imageHash\r\n    ) public {\r\n        // Require a valid name\r\n        require(bytes(_name).length > 0);\r\n        // Require a valid price\r\n        require(_price > 0);\r\n        // Increment product count\r\n        restProdCount++;\r\n        // Create the product --- msg.sender is the one who accessed the function\r\n        restProducts[restProdCount] = RestProduct(\r\n            restProdCount,\r\n            _name,\r\n            _price,\r\n            msg.sender,\r\n            _published,\r\n            _imageHash,\r\n            0\r\n        );\r\n    }\r\n\r\n    //ORDERS\r\n\r\n    enum Status {\r\n        OrderPlaced,\r\n        OrderConfirm,\r\n        RiderConfirm,\r\n        OrderCollected,\r\n        OrderCompleted,\r\n        OrderCancelled\r\n    }\r\n    Status public state;\r\n\r\n    struct Order {\r\n        uint256 id;\r\n        address owner;\r\n        address seller;\r\n        address rider;\r\n        uint256 hawkerPayment;\r\n        uint256 riderPayment;\r\n        uint256 totalPrice;\r\n        mapping(uint256 => CartItem) purchasedItemId;\r\n        uint256 purchasedItemCount;\r\n        string dateTime;\r\n        string deliveryDateTime;\r\n        Status state;\r\n        bool rated;\r\n    }\r\n\r\n    mapping(uint256 => Order) public orders;\r\n    uint256 public ordersCount;\r\n\r\n    struct CartItem {\r\n        uint256 id;\r\n        uint256 productId;\r\n        uint256 productQty;\r\n    }\r\n\r\n    //CUSTOMER\r\n    struct Customer {\r\n        uint256 id;\r\n        address owner;\r\n        // string name;\r\n        // string addressLocation;\r\n        // string phone;\r\n        string profileHash;\r\n        mapping(uint256 => CartItem) cartItems;\r\n        uint256 itemCount;\r\n    }\r\n\r\n    mapping(uint256 => Customer) public customers;\r\n    uint256 public customersCount;\r\n\r\n    function addCustomer(address _owner, string memory _profileHash) public {\r\n        require(msg.sender == _owner);\r\n        customersCount++;\r\n        customers[customersCount] = Customer(\r\n            customersCount,\r\n            msg.sender,\r\n            _profileHash,\r\n            0\r\n        );\r\n    }\r\n\r\n    function editCustProfile(uint256 _id, string memory _profileHash) public {\r\n        customers[_id].profileHash = _profileHash;\r\n    }\r\n\r\n    function editSupplierProfile(uint256 _id, string memory _profileHash)\r\n        public\r\n    {\r\n        suppliers[_id].profileHash = _profileHash;\r\n    }\r\n\r\n    function editProduct(\r\n        uint256 _productId,\r\n        string memory _name,\r\n        uint256 _price,\r\n        string memory _imageHash,\r\n        bool _published\r\n    ) public {\r\n        restProducts[_productId].name = _name;\r\n        restProducts[_productId].price = _price;\r\n        restProducts[_productId].imageHash = _imageHash;\r\n        restProducts[_productId].published = _published;\r\n    }\r\n\r\n    function editSuppProduct(\r\n        uint256 _productId,\r\n        string memory _name,\r\n        uint256 _price,\r\n        uint256 _size,\r\n        uint256 _minOrder,\r\n        string memory _imageHash,\r\n        bool _published\r\n    ) public {\r\n        suppProducts[_productId].name = _name;\r\n        suppProducts[_productId].price = _price;\r\n        suppProducts[_productId].size = _size;\r\n        suppProducts[_productId].minOrder = _minOrder;\r\n        suppProducts[_productId].imageHash = _imageHash;\r\n        suppProducts[_productId].published = _published;\r\n    }\r\n\r\n    function addToCart(\r\n        uint256 _custId,\r\n        uint256 _prodId,\r\n        uint256 _prodQty\r\n    ) public {\r\n        (customers[_custId].itemCount)++;\r\n        customers[_custId].cartItems[customers[_custId].itemCount] = CartItem(\r\n            customers[_custId].itemCount,\r\n            _prodId,\r\n            _prodQty\r\n        );\r\n    }\r\n\r\n    function addToCartHawker(\r\n        uint256 _hawkerId,\r\n        uint256 _prodId,\r\n        uint256 _prodQty\r\n    ) public {\r\n        (hawkers[_hawkerId].itemCount)++;\r\n        hawkers[_hawkerId].cartItems[hawkers[_hawkerId].itemCount] = CartItem(\r\n            hawkers[_hawkerId].itemCount,\r\n            _prodId,\r\n            _prodQty\r\n        );\r\n    }\r\n\r\n    function removeProdCart(uint256 custId, uint256 cartId) public {\r\n        Customer storage cust = customers[custId];\r\n        (cust.itemCount)--;\r\n        delete cust.cartItems[cartId];\r\n    }\r\n\r\n    //indicator - 1 for customer, 2 for hawker\r\n    function removeAllProdCart(uint256 _id, uint256 _indicator) public {\r\n        if (_indicator == 1) {\r\n            Customer storage cust = customers[_id];\r\n            uint256 _itemCount = cust.itemCount;\r\n            for (uint256 i = 1; i <= _itemCount; i++) {\r\n                delete cust.cartItems[i];\r\n            }\r\n            (cust.itemCount) = 0;\r\n        } else {\r\n            Hawker storage hawker = hawkers[_id];\r\n            uint256 _itemCount = hawker.itemCount;\r\n            for (uint256 i = 1; i <= _itemCount; i++) {\r\n                delete hawker.cartItems[i];\r\n            }\r\n            (hawker.itemCount) = 0;\r\n        }\r\n    }\r\n\r\n    //if indicator is 1 then cust, 2 then hawker\r\n    function getCartProduct(\r\n        uint256 id,\r\n        uint256 cartId,\r\n        uint256 indicator\r\n    ) public returns (uint256, uint256) {\r\n        if (indicator == 1) {\r\n            Customer storage cust = customers[id];\r\n            return (\r\n                cust.cartItems[cartId].productId,\r\n                cust.cartItems[cartId].productQty\r\n            );\r\n        } else {\r\n            Hawker storage hawker = hawkers[id];\r\n            return (\r\n                hawker.cartItems[cartId].productId,\r\n                hawker.cartItems[cartId].productQty\r\n            );\r\n        }\r\n    }\r\n\r\n    function getOrderProduct(uint256 orderId, uint256 cartId)\r\n        public\r\n        returns (CartItem memory)\r\n    {\r\n        Order storage ord = orders[orderId];\r\n        uint256 prodId = ord.purchasedItemId[cartId].productId;\r\n        CartItem memory _cart = ord.purchasedItemId[cartId];\r\n        return (_cart);\r\n    }\r\n\r\n    function getHawkerFeedback(uint256 hawkerId, uint256 feedbackCount)\r\n        public\r\n        returns (Feedback memory)\r\n    {\r\n        Hawker storage hawker = hawkers[hawkerId];\r\n        Feedback memory _feedback = hawker.feedbacks[feedbackCount];\r\n        return (_feedback);\r\n    }\r\n\r\n    function setRating(\r\n        uint256 _orderId,\r\n        uint256 _hawkerId,\r\n        uint256 _hawkerRate,\r\n        string memory _hawkerComment,\r\n        uint256 _foodDeliveryId,\r\n        uint256 _fdRate,\r\n        string memory _fdComment\r\n    ) public {\r\n        orders[_orderId].rated = true;\r\n\r\n        //set hawker feedback\r\n        (hawkers[_hawkerId].feedbackCount)++;\r\n        hawkers[_hawkerId].feedbacks[\r\n            hawkers[_hawkerId].feedbackCount\r\n        ] = Feedback(\r\n            hawkers[_hawkerId].feedbackCount,\r\n            hawkers[_hawkerId].owner,\r\n            msg.sender,\r\n            _hawkerRate,\r\n            _hawkerComment\r\n        );\r\n        uint256 total = _hawkerRate + hawkers[_hawkerId].avgRating;\r\n        uint256 avg = total / (hawkers[_hawkerId].feedbackCount);\r\n        hawkers[_hawkerId].avgRating = avg;\r\n\r\n        //set fd feedback\r\n        (foodDeliveries[_foodDeliveryId].feedbackCount)++;\r\n        foodDeliveries[_foodDeliveryId].feedbacks[\r\n            foodDeliveries[_foodDeliveryId].feedbackCount\r\n        ] = Feedback(\r\n            foodDeliveries[_foodDeliveryId].feedbackCount,\r\n            foodDeliveries[_foodDeliveryId].owner,\r\n            msg.sender,\r\n            _fdRate,\r\n            _fdComment\r\n        );\r\n    }\r\n\r\n    function cancelOrder(uint256 _orderId, address payable _customer)\r\n        public\r\n        payable\r\n    {\r\n        orders[_orderId].state = Status.OrderCancelled;\r\n        address(_customer).transfer(orders[_orderId].totalPrice);\r\n    }\r\n\r\n    //indicator  1 - customer, 2 - hawker\r\n    function purchaseProduct(\r\n        uint256 _indicator,\r\n        uint256 _id,\r\n        address payable _seller,\r\n        uint256 _hawkerPayment,\r\n        uint256 _riderPayment,\r\n        uint256 _totalCost,\r\n        string memory _dateTime,\r\n        string memory _deliveryDateTime\r\n    ) public payable {\r\n        if (_indicator == 1) {\r\n            Customer memory cust = customers[_id];\r\n            // Increment order count\r\n            ordersCount++;\r\n            // Create the enum\r\n            state = Status.OrderPlaced;\r\n\r\n            // Create the order\r\n            orders[ordersCount] = Order(\r\n                ordersCount,\r\n                cust.owner,\r\n                _seller,\r\n                address(0),\r\n                _hawkerPayment,\r\n                _riderPayment,\r\n                _totalCost,\r\n                cust.itemCount,\r\n                _dateTime,\r\n                _deliveryDateTime,\r\n                state,\r\n                false\r\n            );\r\n\r\n            //add the items in cartItems(Customer structure) to purchasedItemId (Order structure)\r\n            for (uint256 i = 1; i <= cust.itemCount; i++) {\r\n                (uint256 item, uint256 qty) = getCartProduct(_id, i, 1);\r\n                orders[ordersCount].purchasedItemId[i] = CartItem(i, item, qty);\r\n\r\n                restProducts[item].soldCount++;\r\n            }\r\n\r\n            //Require that there is enough Ether in the transaction\r\n            require(msg.value >= _totalCost);\r\n\r\n            //remove the CartItem in the Customer id\r\n            removeAllProdCart(_id, 1);\r\n        } else {\r\n            Hawker memory hawker = hawkers[_id];\r\n            // Increment order count\r\n            ordersCount++;\r\n            // Create the enum\r\n            state = Status.OrderPlaced;\r\n\r\n            // Create the order\r\n            orders[ordersCount] = Order(\r\n                ordersCount,\r\n                hawker.owner,\r\n                _seller,\r\n                address(0),\r\n                _hawkerPayment,\r\n                _riderPayment,\r\n                _totalCost,\r\n                hawker.itemCount,\r\n                _dateTime,\r\n                _deliveryDateTime,\r\n                state,\r\n                false\r\n            );\r\n\r\n            //add the items in cartItems(Customer structure) to purchasedItemId (Order structure)\r\n            for (uint256 i = 1; i <= hawker.itemCount; i++) {\r\n                (uint256 item, uint256 qty) = getCartProduct(_id, i, 2);\r\n                orders[ordersCount].purchasedItemId[i] = CartItem(i, item, qty);\r\n\r\n                //restProducts[item].soldCount++;\r\n            }\r\n\r\n            //Require that there is enough Ether in the transaction\r\n            require(msg.value >= _totalCost);\r\n            removeAllProdCart(_id, 2);\r\n        }\r\n    }\r\n\r\n    //hawker confirms order transaction made by customer\r\n    function hawkerConfirmOrder(uint256 _orderId, string memory _estTime)\r\n        public\r\n    {\r\n        orders[_orderId].state = Status.OrderConfirm;\r\n        orders[_orderId].deliveryDateTime = _estTime;\r\n        // setOrderDeliveryTime(_orderId, _estTime);\r\n        //Pay the hawker\r\n        address(msg.sender).transfer(orders[_orderId].hawkerPayment);\r\n    }\r\n\r\n    //food delivery accepts order delivery\r\n    function fdAcceptOrder(uint256 _orderId) public {\r\n        //set orderId state to DriverConfirm\r\n        orders[_orderId].state = Status.RiderConfirm;\r\n        orders[_orderId].rider = msg.sender;\r\n    }\r\n\r\n    //food delivery collected order\r\n    function fdCollectedOrder(uint256 _orderId) public {\r\n        //set orderId state to OrderCompleted\r\n        orders[_orderId].state = Status.OrderCollected;\r\n    }\r\n\r\n    //food delivery completes order delivery\r\n    function fdCompleteOrder(\r\n        uint256 _orderId,\r\n        uint256 _fdId,\r\n        string memory _dateTime\r\n    ) public payable {\r\n        //set orderId state to OrderCompleted\r\n        orders[_orderId].state = Status.OrderCompleted;\r\n        orders[_orderId].deliveryDateTime = _dateTime;\r\n        //Pay the rider after completion\r\n        address(msg.sender).transfer(orders[_orderId].riderPayment);\r\n        (foodDeliveries[_fdId].ordersAcceptedCount)++;\r\n    }\r\n}\r\n",
  "sourcePath": "C:/Users/Casuarina/Desktop/FYP_FoodIndustry/blockchain/src/contracts/Marketplace.sol",
  "compiler": {
    "name": "solc",
    "version": "0.5.16+commit.9c3226ce.Emscripten.clang"
  },
  "schemaVersion": "3.4.1",
  "updatedAt": "2021-12-02T05:46:10.580Z",
  "networkType": "ethereum",
  "devdoc": {
    "methods": {}
  },
  "userdoc": {
    "methods": {}
  }
}