{
  "contractName": "Marketplace",
  "abi": [
    {
      "inputs": [],
      "payable": false,
      "stateMutability": "nonpayable",
      "type": "constructor"
    },
    {
      "anonymous": false,
      "inputs": [
        {
          "indexed": false,
          "internalType": "uint256",
          "name": "orderId",
          "type": "uint256"
        },
        {
          "indexed": true,
          "internalType": "address",
          "name": "buyer",
          "type": "address"
        },
        {
          "indexed": true,
          "internalType": "address",
          "name": "seller",
          "type": "address"
        },
        {
          "indexed": false,
          "internalType": "uint256",
          "name": "totalCost",
          "type": "uint256"
        },
        {
          "indexed": true,
          "internalType": "uint256",
          "name": "date",
          "type": "uint256"
        }
      ],
      "name": "HawkerProdPurchased",
      "type": "event"
    },
    {
      "anonymous": false,
      "inputs": [
        {
          "indexed": true,
          "internalType": "address",
          "name": "receiver",
          "type": "address"
        },
        {
          "indexed": false,
          "internalType": "uint256",
          "name": "amount",
          "type": "uint256"
        },
        {
          "indexed": true,
          "internalType": "address",
          "name": "owner",
          "type": "address"
        }
      ],
      "name": "LogRefund",
      "type": "event"
    },
    {
      "anonymous": false,
      "inputs": [
        {
          "indexed": true,
          "internalType": "uint256",
          "name": "id",
          "type": "uint256"
        },
        {
          "indexed": true,
          "internalType": "uint256",
          "name": "date",
          "type": "uint256"
        },
        {
          "indexed": false,
          "internalType": "string",
          "name": "name",
          "type": "string"
        },
        {
          "indexed": false,
          "internalType": "uint256",
          "name": "price",
          "type": "uint256"
        },
        {
          "indexed": true,
          "internalType": "address payable",
          "name": "owner",
          "type": "address"
        },
        {
          "indexed": false,
          "internalType": "bool",
          "name": "purchased",
          "type": "bool"
        },
        {
          "indexed": false,
          "internalType": "string",
          "name": "imageHash",
          "type": "string"
        }
      ],
      "name": "RestProdCreated",
      "type": "event"
    },
    {
      "anonymous": false,
      "inputs": [
        {
          "indexed": true,
          "internalType": "uint256",
          "name": "id",
          "type": "uint256"
        },
        {
          "indexed": true,
          "internalType": "uint256",
          "name": "date",
          "type": "uint256"
        },
        {
          "indexed": false,
          "internalType": "string",
          "name": "name",
          "type": "string"
        },
        {
          "indexed": false,
          "internalType": "uint256",
          "name": "price",
          "type": "uint256"
        },
        {
          "indexed": true,
          "internalType": "address payable",
          "name": "owner",
          "type": "address"
        },
        {
          "indexed": false,
          "internalType": "bool",
          "name": "purchased",
          "type": "bool"
        },
        {
          "indexed": false,
          "internalType": "string",
          "name": "imageHash",
          "type": "string"
        }
      ],
      "name": "SupplierProdCreated",
      "type": "event"
    },
    {
      "constant": true,
      "inputs": [
        {
          "internalType": "uint256",
          "name": "",
          "type": "uint256"
        }
      ],
      "name": "customers",
      "outputs": [
        {
          "internalType": "uint256",
          "name": "id",
          "type": "uint256"
        },
        {
          "internalType": "address",
          "name": "owner",
          "type": "address"
        },
        {
          "internalType": "string",
          "name": "name",
          "type": "string"
        },
        {
          "internalType": "string",
          "name": "addressLocation",
          "type": "string"
        },
        {
          "internalType": "string",
          "name": "phone",
          "type": "string"
        },
        {
          "internalType": "uint256",
          "name": "itemCount",
          "type": "uint256"
        }
      ],
      "payable": false,
      "stateMutability": "view",
      "type": "function"
    },
    {
      "constant": true,
      "inputs": [],
      "name": "customersCount",
      "outputs": [
        {
          "internalType": "uint256",
          "name": "",
          "type": "uint256"
        }
      ],
      "payable": false,
      "stateMutability": "view",
      "type": "function"
    },
    {
      "constant": true,
      "inputs": [
        {
          "internalType": "uint256",
          "name": "",
          "type": "uint256"
        }
      ],
      "name": "foodDeliveries",
      "outputs": [
        {
          "internalType": "uint256",
          "name": "id",
          "type": "uint256"
        },
        {
          "internalType": "address",
          "name": "owner",
          "type": "address"
        },
        {
          "internalType": "string",
          "name": "name",
          "type": "string"
        },
        {
          "internalType": "string",
          "name": "phone",
          "type": "string"
        },
        {
          "internalType": "int256",
          "name": "rating",
          "type": "int256"
        },
        {
          "internalType": "bool",
          "name": "available",
          "type": "bool"
        },
        {
          "internalType": "uint256",
          "name": "ordersAcceptedCount",
          "type": "uint256"
        },
        {
          "internalType": "uint256",
          "name": "feedbackCount",
          "type": "uint256"
        }
      ],
      "payable": false,
      "stateMutability": "view",
      "type": "function"
    },
    {
      "constant": true,
      "inputs": [],
      "name": "foodDeliveriesCount",
      "outputs": [
        {
          "internalType": "uint256",
          "name": "",
          "type": "uint256"
        }
      ],
      "payable": false,
      "stateMutability": "view",
      "type": "function"
    },
    {
      "constant": true,
      "inputs": [
        {
          "internalType": "uint256",
          "name": "",
          "type": "uint256"
        }
      ],
      "name": "hawkers",
      "outputs": [
        {
          "internalType": "uint256",
          "name": "id",
          "type": "uint256"
        },
        {
          "internalType": "address",
          "name": "owner",
          "type": "address"
        },
        {
          "internalType": "string",
          "name": "name",
          "type": "string"
        },
        {
          "internalType": "string",
          "name": "addressLocation",
          "type": "string"
        },
        {
          "internalType": "string",
          "name": "openingHours",
          "type": "string"
        },
        {
          "internalType": "string",
          "name": "phone",
          "type": "string"
        },
        {
          "internalType": "uint256",
          "name": "avgRating",
          "type": "uint256"
        },
        {
          "internalType": "bool",
          "name": "open",
          "type": "bool"
        },
        {
          "internalType": "uint256",
          "name": "feedbackCount",
          "type": "uint256"
        }
      ],
      "payable": false,
      "stateMutability": "view",
      "type": "function"
    },
    {
      "constant": true,
      "inputs": [],
      "name": "hawkersCount",
      "outputs": [
        {
          "internalType": "uint256",
          "name": "",
          "type": "uint256"
        }
      ],
      "payable": false,
      "stateMutability": "view",
      "type": "function"
    },
    {
      "constant": true,
      "inputs": [
        {
          "internalType": "uint256",
          "name": "",
          "type": "uint256"
        }
      ],
      "name": "orders",
      "outputs": [
        {
          "internalType": "uint256",
          "name": "id",
          "type": "uint256"
        },
        {
          "internalType": "address",
          "name": "owner",
          "type": "address"
        },
        {
          "internalType": "address",
          "name": "seller",
          "type": "address"
        },
        {
          "internalType": "address",
          "name": "driver",
          "type": "address"
        },
        {
          "internalType": "uint256",
          "name": "hawkerPayment",
          "type": "uint256"
        },
        {
          "internalType": "uint256",
          "name": "riderPayment",
          "type": "uint256"
        },
        {
          "internalType": "uint256",
          "name": "totalPrice",
          "type": "uint256"
        },
        {
          "internalType": "uint256",
          "name": "purchasedItemCount",
          "type": "uint256"
        },
        {
          "internalType": "string",
          "name": "date",
          "type": "string"
        },
        {
          "internalType": "string",
          "name": "time",
          "type": "string"
        },
        {
          "internalType": "enum Marketplace.Status",
          "name": "state",
          "type": "uint8"
        },
        {
          "internalType": "bool",
          "name": "rated",
          "type": "bool"
        }
      ],
      "payable": false,
      "stateMutability": "view",
      "type": "function"
    },
    {
      "constant": true,
      "inputs": [],
      "name": "ordersCount",
      "outputs": [
        {
          "internalType": "uint256",
          "name": "",
          "type": "uint256"
        }
      ],
      "payable": false,
      "stateMutability": "view",
      "type": "function"
    },
    {
      "constant": true,
      "inputs": [],
      "name": "restProdCount",
      "outputs": [
        {
          "internalType": "uint256",
          "name": "",
          "type": "uint256"
        }
      ],
      "payable": false,
      "stateMutability": "view",
      "type": "function"
    },
    {
      "constant": true,
      "inputs": [
        {
          "internalType": "uint256",
          "name": "",
          "type": "uint256"
        }
      ],
      "name": "restProducts",
      "outputs": [
        {
          "internalType": "uint256",
          "name": "id",
          "type": "uint256"
        },
        {
          "internalType": "string",
          "name": "name",
          "type": "string"
        },
        {
          "internalType": "uint256",
          "name": "price",
          "type": "uint256"
        },
        {
          "internalType": "address payable",
          "name": "owner",
          "type": "address"
        },
        {
          "internalType": "bool",
          "name": "published",
          "type": "bool"
        },
        {
          "internalType": "string",
          "name": "imageHash",
          "type": "string"
        },
        {
          "internalType": "uint256",
          "name": "soldCount",
          "type": "uint256"
        }
      ],
      "payable": false,
      "stateMutability": "view",
      "type": "function"
    },
    {
      "constant": true,
      "inputs": [],
      "name": "state",
      "outputs": [
        {
          "internalType": "enum Marketplace.Status",
          "name": "",
          "type": "uint8"
        }
      ],
      "payable": false,
      "stateMutability": "view",
      "type": "function"
    },
    {
      "constant": true,
      "inputs": [],
      "name": "suppProdCount",
      "outputs": [
        {
          "internalType": "uint256",
          "name": "",
          "type": "uint256"
        }
      ],
      "payable": false,
      "stateMutability": "view",
      "type": "function"
    },
    {
      "constant": true,
      "inputs": [
        {
          "internalType": "uint256",
          "name": "",
          "type": "uint256"
        }
      ],
      "name": "suppProducts",
      "outputs": [
        {
          "internalType": "uint256",
          "name": "id",
          "type": "uint256"
        },
        {
          "internalType": "string",
          "name": "name",
          "type": "string"
        },
        {
          "internalType": "uint256",
          "name": "price",
          "type": "uint256"
        },
        {
          "internalType": "address payable",
          "name": "owner",
          "type": "address"
        },
        {
          "internalType": "bool",
          "name": "published",
          "type": "bool"
        },
        {
          "internalType": "string",
          "name": "imageHash",
          "type": "string"
        }
      ],
      "payable": false,
      "stateMutability": "view",
      "type": "function"
    },
    {
      "constant": false,
      "inputs": [
        {
          "internalType": "address",
          "name": "_owner",
          "type": "address"
        },
        {
          "internalType": "string",
          "name": "_name",
          "type": "string"
        },
        {
          "internalType": "string",
          "name": "_phone",
          "type": "string"
        },
        {
          "internalType": "bool",
          "name": "_available",
          "type": "bool"
        }
      ],
      "name": "addFoodDelivery",
      "outputs": [],
      "payable": false,
      "stateMutability": "nonpayable",
      "type": "function"
    },
    {
      "constant": false,
      "inputs": [
        {
          "internalType": "address",
          "name": "_owner",
          "type": "address"
        },
        {
          "internalType": "string",
          "name": "_name",
          "type": "string"
        },
        {
          "internalType": "string",
          "name": "_addressLocation",
          "type": "string"
        },
        {
          "internalType": "string",
          "name": "_openingHours",
          "type": "string"
        },
        {
          "internalType": "string",
          "name": "_phone",
          "type": "string"
        },
        {
          "internalType": "bool",
          "name": "_open",
          "type": "bool"
        }
      ],
      "name": "addHawker",
      "outputs": [],
      "payable": false,
      "stateMutability": "nonpayable",
      "type": "function"
    },
    {
      "constant": false,
      "inputs": [
        {
          "internalType": "string",
          "name": "_phone",
          "type": "string"
        },
        {
          "internalType": "string",
          "name": "_OH",
          "type": "string"
        }
      ],
      "name": "editHawkerProfile",
      "outputs": [],
      "payable": false,
      "stateMutability": "nonpayable",
      "type": "function"
    },
    {
      "constant": false,
      "inputs": [],
      "name": "boolOpen",
      "outputs": [],
      "payable": false,
      "stateMutability": "nonpayable",
      "type": "function"
    },
    {
      "constant": false,
      "inputs": [],
      "name": "boolWork",
      "outputs": [],
      "payable": false,
      "stateMutability": "nonpayable",
      "type": "function"
    },
    {
      "constant": false,
      "inputs": [
        {
          "internalType": "string",
          "name": "_name",
          "type": "string"
        },
        {
          "internalType": "uint256",
          "name": "_price",
          "type": "uint256"
        },
        {
          "internalType": "bool",
          "name": "_published",
          "type": "bool"
        },
        {
          "internalType": "string",
          "name": "_imageHash",
          "type": "string"
        }
      ],
      "name": "createSuppProduct",
      "outputs": [],
      "payable": false,
      "stateMutability": "nonpayable",
      "type": "function"
    },
    {
      "constant": false,
      "inputs": [
        {
          "internalType": "string",
          "name": "_name",
          "type": "string"
        },
        {
          "internalType": "uint256",
          "name": "_price",
          "type": "uint256"
        },
        {
          "internalType": "bool",
          "name": "_published",
          "type": "bool"
        },
        {
          "internalType": "string",
          "name": "_imageHash",
          "type": "string"
        }
      ],
      "name": "createRestProduct",
      "outputs": [],
      "payable": false,
      "stateMutability": "nonpayable",
      "type": "function"
    },
    {
      "constant": false,
      "inputs": [
        {
          "internalType": "address",
          "name": "_owner",
          "type": "address"
        },
        {
          "internalType": "string",
          "name": "_name",
          "type": "string"
        },
        {
          "internalType": "string",
          "name": "_addressLocation",
          "type": "string"
        },
        {
          "internalType": "string",
          "name": "_phone",
          "type": "string"
        }
      ],
      "name": "addCustomer",
      "outputs": [],
      "payable": false,
      "stateMutability": "nonpayable",
      "type": "function"
    },
    {
      "constant": false,
      "inputs": [
        {
          "internalType": "string",
          "name": "_phone",
          "type": "string"
        },
        {
          "internalType": "string",
          "name": "_address",
          "type": "string"
        }
      ],
      "name": "editCustProfile",
      "outputs": [],
      "payable": false,
      "stateMutability": "nonpayable",
      "type": "function"
    },
    {
      "constant": false,
      "inputs": [
        {
          "internalType": "uint256",
          "name": "_productId",
          "type": "uint256"
        },
        {
          "internalType": "string",
          "name": "_name",
          "type": "string"
        },
        {
          "internalType": "uint256",
          "name": "_price",
          "type": "uint256"
        },
        {
          "internalType": "string",
          "name": "_imageHash",
          "type": "string"
        },
        {
          "internalType": "bool",
          "name": "_published",
          "type": "bool"
        }
      ],
      "name": "editProduct",
      "outputs": [],
      "payable": false,
      "stateMutability": "nonpayable",
      "type": "function"
    },
    {
      "constant": false,
      "inputs": [
        {
          "internalType": "uint256",
          "name": "_id",
          "type": "uint256"
        }
      ],
      "name": "addToCart",
      "outputs": [],
      "payable": false,
      "stateMutability": "nonpayable",
      "type": "function"
    },
    {
      "constant": false,
      "inputs": [
        {
          "internalType": "uint256",
          "name": "custId",
          "type": "uint256"
        },
        {
          "internalType": "uint256",
          "name": "cartId",
          "type": "uint256"
        }
      ],
      "name": "removeProdCart",
      "outputs": [],
      "payable": false,
      "stateMutability": "nonpayable",
      "type": "function"
    },
    {
      "constant": false,
      "inputs": [
        {
          "internalType": "uint256",
          "name": "productId",
          "type": "uint256"
        }
      ],
      "name": "deleteProduct",
      "outputs": [],
      "payable": false,
      "stateMutability": "nonpayable",
      "type": "function"
    },
    {
      "constant": false,
      "inputs": [
        {
          "internalType": "uint256",
          "name": "custId",
          "type": "uint256"
        }
      ],
      "name": "removeAllProdCart",
      "outputs": [],
      "payable": false,
      "stateMutability": "nonpayable",
      "type": "function"
    },
    {
      "constant": false,
      "inputs": [
        {
          "internalType": "uint256",
          "name": "custId",
          "type": "uint256"
        },
        {
          "internalType": "uint256",
          "name": "cartId",
          "type": "uint256"
        }
      ],
      "name": "getCartProduct",
      "outputs": [
        {
          "internalType": "uint256",
          "name": "",
          "type": "uint256"
        }
      ],
      "payable": false,
      "stateMutability": "nonpayable",
      "type": "function"
    },
    {
      "constant": false,
      "inputs": [
        {
          "internalType": "uint256",
          "name": "orderId",
          "type": "uint256"
        },
        {
          "internalType": "uint256",
          "name": "cartId",
          "type": "uint256"
        }
      ],
      "name": "getOrderProduct",
      "outputs": [
        {
          "components": [
            {
              "internalType": "uint256",
              "name": "id",
              "type": "uint256"
            },
            {
              "internalType": "string",
              "name": "name",
              "type": "string"
            },
            {
              "internalType": "uint256",
              "name": "price",
              "type": "uint256"
            },
            {
              "internalType": "address payable",
              "name": "owner",
              "type": "address"
            },
            {
              "internalType": "bool",
              "name": "published",
              "type": "bool"
            },
            {
              "internalType": "string",
              "name": "imageHash",
              "type": "string"
            },
            {
              "internalType": "uint256",
              "name": "soldCount",
              "type": "uint256"
            }
          ],
          "internalType": "struct Marketplace.RestProduct",
          "name": "",
          "type": "tuple"
        }
      ],
      "payable": false,
      "stateMutability": "nonpayable",
      "type": "function"
    },
    {
      "constant": false,
      "inputs": [
        {
          "internalType": "uint256",
          "name": "hawkerId",
          "type": "uint256"
        },
        {
          "internalType": "uint256",
          "name": "feedbackCount",
          "type": "uint256"
        }
      ],
      "name": "getHawkerFeedback",
      "outputs": [
        {
          "components": [
            {
              "internalType": "uint256",
              "name": "id",
              "type": "uint256"
            },
            {
              "internalType": "address",
              "name": "seller",
              "type": "address"
            },
            {
              "internalType": "address",
              "name": "customer",
              "type": "address"
            },
            {
              "internalType": "uint256",
              "name": "rate",
              "type": "uint256"
            },
            {
              "internalType": "string",
              "name": "comment",
              "type": "string"
            }
          ],
          "internalType": "struct Marketplace.Feedback",
          "name": "",
          "type": "tuple"
        }
      ],
      "payable": false,
      "stateMutability": "nonpayable",
      "type": "function"
    },
    {
      "constant": false,
      "inputs": [
        {
          "internalType": "uint256",
          "name": "fdId",
          "type": "uint256"
        },
        {
          "internalType": "uint256",
          "name": "feedbackCount",
          "type": "uint256"
        }
      ],
      "name": "getFdFeedback",
      "outputs": [
        {
          "components": [
            {
              "internalType": "uint256",
              "name": "id",
              "type": "uint256"
            },
            {
              "internalType": "address",
              "name": "seller",
              "type": "address"
            },
            {
              "internalType": "address",
              "name": "customer",
              "type": "address"
            },
            {
              "internalType": "uint256",
              "name": "rate",
              "type": "uint256"
            },
            {
              "internalType": "string",
              "name": "comment",
              "type": "string"
            }
          ],
          "internalType": "struct Marketplace.Feedback",
          "name": "",
          "type": "tuple"
        }
      ],
      "payable": false,
      "stateMutability": "nonpayable",
      "type": "function"
    },
    {
      "constant": false,
      "inputs": [
        {
          "internalType": "uint256",
          "name": "_orderId",
          "type": "uint256"
        },
        {
          "internalType": "address",
          "name": "_hawker",
          "type": "address"
        },
        {
          "internalType": "uint256",
          "name": "_hawkerRate",
          "type": "uint256"
        },
        {
          "internalType": "string",
          "name": "_hawkerComment",
          "type": "string"
        },
        {
          "internalType": "address",
          "name": "_foodDelivery",
          "type": "address"
        },
        {
          "internalType": "uint256",
          "name": "_fdRate",
          "type": "uint256"
        },
        {
          "internalType": "string",
          "name": "_fdComment",
          "type": "string"
        }
      ],
      "name": "setRating",
      "outputs": [],
      "payable": false,
      "stateMutability": "nonpayable",
      "type": "function"
    },
    {
      "constant": false,
      "inputs": [
        {
          "internalType": "uint256",
          "name": "_orderId",
          "type": "uint256"
        },
        {
          "internalType": "address payable",
          "name": "_customer",
          "type": "address"
        }
      ],
      "name": "cancelOrder",
      "outputs": [],
      "payable": true,
      "stateMutability": "payable",
      "type": "function"
    },
    {
      "constant": false,
      "inputs": [
        {
          "internalType": "uint256",
          "name": "_custId",
          "type": "uint256"
        },
        {
          "internalType": "address payable",
          "name": "_seller",
          "type": "address"
        },
        {
          "internalType": "uint256",
          "name": "_hawkerPayment",
          "type": "uint256"
        },
        {
          "internalType": "uint256",
          "name": "_riderPayment",
          "type": "uint256"
        },
        {
          "internalType": "uint256",
          "name": "_totalCost",
          "type": "uint256"
        },
        {
          "internalType": "string",
          "name": "_date",
          "type": "string"
        },
        {
          "internalType": "string",
          "name": "_time",
          "type": "string"
        }
      ],
      "name": "purchaseProduct",
      "outputs": [],
      "payable": true,
      "stateMutability": "payable",
      "type": "function"
    },
    {
      "constant": false,
      "inputs": [
        {
          "internalType": "uint256",
          "name": "_orderId",
          "type": "uint256"
        }
      ],
      "name": "hawkerConfirmOrder",
      "outputs": [],
      "payable": false,
      "stateMutability": "nonpayable",
      "type": "function"
    },
    {
      "constant": false,
      "inputs": [
        {
          "internalType": "uint256",
          "name": "_orderId",
          "type": "uint256"
        }
      ],
      "name": "fdAcceptOrder",
      "outputs": [],
      "payable": false,
      "stateMutability": "nonpayable",
      "type": "function"
    },
    {
      "constant": false,
      "inputs": [
        {
          "internalType": "uint256",
          "name": "_orderId",
          "type": "uint256"
        }
      ],
      "name": "fdCompleteOrder",
      "outputs": [],
      "payable": true,
      "stateMutability": "payable",
      "type": "function"
    }
  ],
  "bytecode": "0x6080604052600060045560006006553480156200001b57600080fd5b50620000e37373c005d4b234c63f416f6e1038c011d55eddbf1e6040518060400160405280601681526020017f53656c6572612052617361204e617369204c656d616b000000000000000000008152506040518060600160405280602f815260200162005a7e602f913960405180606001604052806035815260200162005b16603591396040518060400160405280600881526020017f39383433343530390000000000000000000000000000000000000000000000008152506000620003b560201b60201c565b620001aa7387ecee1454a7b32253a9020f6ae1ff25e9ce35b56040518060400160405280602081526020017f5469616e205469616e204861696e616e65736520436869636b656e205269636581525060405180608001604052806046815260200162005aad6046913960405180606001604052806023815260200162005af3602391396040518060400160405280600881526020017f39363931343835320000000000000000000000000000000000000000000000008152506000620003b560201b60201c565b6200027173c9342f12d49ca9e40d600ebf17266dccc88a06396040518060400160405280600981526020017f436173756172696e6100000000000000000000000000000000000000000000008152506040518060400160405280602081526020017f3530204e616e79616e67204176652c2053696e6761706f7265203633393739388152506040518060400160405280600881526020017f39383736353433320000000000000000000000000000000000000000000000008152506200054560201b60201c565b6200031c737c2ea58a210f8e7c80fdeb6788c1d5fc4a3e73ba6040518060400160405280600781526020017f5061747269636b0000000000000000000000000000000000000000000000000081525060405180606001604052806025815260200162005b4b602591396040518060400160405280600881526020017f39313233343536370000000000000000000000000000000000000000000000008152506200054560201b60201c565b620003af7366f8f66996aab36b041b1cada9f20864a0c426986040518060400160405280600781526020017f4c656f2054616e000000000000000000000000000000000000000000000000008152506040518060400160405280600881526020017f393031323334353600000000000000000000000000000000000000000000000081525060006200067360201b60201c565b62000875565b60036000815480929190600101919050555060405180610120016040528060035481526020018773ffffffffffffffffffffffffffffffffffffffff16815260200186815260200185815260200184815260200183815260200160008152602001821515815260200160008152506002600060035481526020019081526020016000206000820151816000015560208201518160010160006101000a81548173ffffffffffffffffffffffffffffffffffffffff021916908373ffffffffffffffffffffffffffffffffffffffff1602179055506040820151816002019080519060200190620004a7929190620007c6565b506060820151816003019080519060200190620004c6929190620007c6565b506080820151816004019080519060200190620004e5929190620007c6565b5060a082015181600501908051906020019062000504929190620007c6565b5060c0820151816006015560e08201518160070160006101000a81548160ff0219169083151502179055506101008201518160090155905050505050505050565b600c600081548092919060010191905055506040518060c00160405280600c5481526020018573ffffffffffffffffffffffffffffffffffffffff1681526020018481526020018381526020018281526020016000815250600b6000600c5481526020019081526020016000206000820151816000015560208201518160010160006101000a81548173ffffffffffffffffffffffffffffffffffffffff021916908373ffffffffffffffffffffffffffffffffffffffff160217905550604082015181600201908051906020019062000621929190620007c6565b50606082015181600301908051906020019062000640929190620007c6565b5060808201518160040190805190602001906200065f929190620007c6565b5060a0820151816006015590505050505050565b60016000815480929190600101919050555060405180610100016040528060015481526020018573ffffffffffffffffffffffffffffffffffffffff16815260200184815260200183815260200160058152602001821515815260200160008152602001600081525060008060015481526020019081526020016000206000820151816000015560208201518160010160006101000a81548173ffffffffffffffffffffffffffffffffffffffff021916908373ffffffffffffffffffffffffffffffffffffffff16021790555060408201518160020190805190602001906200075f929190620007c6565b5060608201518160030190805190602001906200077e929190620007c6565b506080820151816004015560a08201518160050160006101000a81548160ff02191690831515021790555060c0820151816007015560e0820151816009015590505050505050565b828054600181600116156101000203166002900490600052602060002090601f016020900481019282601f106200080957805160ff19168380011785556200083a565b828001600101855582156200083a579182015b82811115620008395782518255916020019190600101906200081c565b5b5090506200084991906200084d565b5090565b6200087291905b808211156200086e57600081600090555060010162000854565b5090565b90565b6151f980620008856000396000f3fe60806040526004361061021a5760003560e01c80639d0d6f8b11610123578063c6705e9f116100ab578063e6f65b4c1161006f578063e6f65b4c14610804578063e79bb8271461082f578063ed90c7b714610858578063f0eab43014610881578063f89e7697146108aa5761021a565b8063c6705e9f14610717578063cc3cb43214610754578063db3a0abd1461077d578063dbeb584b146107a6578063e16f14e2146107c25761021a565b8063ad0c0794116100f2578063ad0c07941461063a578063afc7c23614610656578063b0fd5c461461067f578063c0abda2a146106aa578063c19d93fb146106ec5761021a565b80639d0d6f8b1461055b578063a85c38ef14610584578063a9937b22146105cc578063abed579f146105f75761021a565b80634368d179116101a65780637323a7d3116101755780637323a7d314610499578063757a2703146104b55780638455776b146104e05780638968bffd14610509578063995d7d93146105325761021a565b80634368d179146103f35780634937f2a714610430578063702742b0146104475780637078b09a146104705761021a565b806315cfae39116101ed57806315cfae39146102e0578063278e381c1461031d57806335daa7311461035a5780633be94d47146103855780634244c3d4146103ca5761021a565b8063093c05fa1461021f5780630b90cd28146102635780630c21a8d21461028c5780631460953c146102b7575b600080fd5b34801561022b57600080fd5b506102466004803603610241919081019061464d565b6108c1565b60405161025a989796959493929190614d20565b60405180910390f35b34801561026f57600080fd5b5061028a6004803603610285919081019061454e565b610a66565b005b34801561029857600080fd5b506102a1610b4c565b6040516102ae9190614c3d565b60405180910390f35b3480156102c357600080fd5b506102de60048036036102d991908101906143ba565b610b52565b005b3480156102ec57600080fd5b50610307600480360361030291908101906148f5565b610c7a565b6040516103149190614bf9565b60405180910390f35b34801561032957600080fd5b50610344600480360361033f91908101906148f5565b610e2f565b6040516103519190614c1b565b60405180910390f35b34801561036657600080fd5b5061036f611072565b60405161037c9190614c3d565b60405180910390f35b34801561039157600080fd5b506103ac60048036036103a7919081019061464d565b611078565b6040516103c199989796959493929190614dac565b60405180910390f35b3480156103d657600080fd5b506103f160048036036103ec91908101906148f5565b611353565b005b3480156103ff57600080fd5b5061041a600480360361041591908101906148f5565b6113ac565b6040516104279190614bf9565b60405180910390f35b34801561043c57600080fd5b50610445611562565b005b34801561045357600080fd5b5061046e6004803603610469919081019061464d565b61163f565b005b34801561047c57600080fd5b506104976004803603610492919081019061454e565b611773565b005b6104b360048036036104ae9190810190614676565b611859565b005b3480156104c157600080fd5b506104ca611a19565b6040516104d79190614c3d565b60405180910390f35b3480156104ec57600080fd5b5061050760048036036105029190810190614780565b611a1f565b005b34801561051557600080fd5b50610530600480360361052b919081019061484e565b611f24565b005b34801561053e57600080fd5b506105596004803603610554919081019061464d565b61200a565b005b34801561056757600080fd5b50610582600480360361057d919081019061464d565b612754565b005b34801561059057600080fd5b506105ab60048036036105a6919081019061464d565b61282c565b6040516105c39c9b9a99989796959493929190614c58565b60405180910390f35b3480156105d857600080fd5b506105e1612a36565b6040516105ee9190614c3d565b60405180910390f35b34801561060357600080fd5b5061061e6004803603610619919081019061464d565b612a3c565b6040516106319796959493929190614f3a565b60405180910390f35b610654600480360361064f91908101906146b2565b612bdb565b005b34801561066257600080fd5b5061067d60048036036106789190810190614327565b613260565b005b34801561068b57600080fd5b506106946133af565b6040516106a19190614c3d565b60405180910390f35b3480156106b657600080fd5b506106d160048036036106cc919081019061464d565b6133b5565b6040516106e396959493929190614e55565b60405180910390f35b3480156106f857600080fd5b506107016135d9565b60405161070e9190614b8b565b60405180910390f35b34801561072357600080fd5b5061073e600480360361073991908101906148f5565b6135ec565b60405161074b9190614c3d565b60405180910390f35b34801561076057600080fd5b5061077b600480360361077691908101906145ba565b613626565b005b34801561078957600080fd5b506107a4600480360361079f9190810190614465565b6137d6565b005b6107c060048036036107bb919081019061464d565b61395e565b005b3480156107ce57600080fd5b506107e960048036036107e4919081019061464d565b613a36565b6040516107fb96959493929190614ecb565b60405180910390f35b34801561081057600080fd5b50610819613bcf565b6040516108269190614c3d565b60405180910390f35b34801561083b57600080fd5b50610856600480360361085191908101906145ba565b613bd5565b005b34801561086457600080fd5b5061087f600480360361087a919081019061464d565b613d74565b005b34801561088d57600080fd5b506108a860048036036108a3919081019061464d565b613e13565b005b3480156108b657600080fd5b506108bf613e86565b005b60006020528060005260406000206000915090508060000154908060010160009054906101000a900473ffffffffffffffffffffffffffffffffffffffff1690806002018054600181600116156101000203166002900480601f0160208091040260200160405190810160405280929190818152602001828054600181600116156101000203166002900480156109995780601f1061096e57610100808354040283529160200191610999565b820191906000526020600020905b81548152906001019060200180831161097c57829003601f168201915b505050505090806003018054600181600116156101000203166002900480601f016020809104026020016040519081016040528092919081815260200182805460018160011615610100020316600290048015610a375780601f10610a0c57610100808354040283529160200191610a37565b820191906000526020600020905b815481529060010190602001808311610a1a57829003601f168201915b5050505050908060040154908060050160009054906101000a900460ff16908060070154908060090154905088565b6000809050600090505b600c548111610b47573373ffffffffffffffffffffffffffffffffffffffff16600b600083815260200190815260200160002060010160009054906101000a900473ffffffffffffffffffffffffffffffffffffffff1673ffffffffffffffffffffffffffffffffffffffff161415610b3a5782600b60008381526020019081526020016000206004019080519060200190610b0d929190613f66565b5081600b60008381526020019081526020016000206003019080519060200190610b38929190613f66565b505b8080600101915050610a70565b505050565b600c5481565b600c600081548092919060010191905055506040518060c00160405280600c5481526020018573ffffffffffffffffffffffffffffffffffffffff1681526020018481526020018381526020018281526020016000815250600b6000600c5481526020019081526020016000206000820151816000015560208201518160010160006101000a81548173ffffffffffffffffffffffffffffffffffffffff021916908373ffffffffffffffffffffffffffffffffffffffff1602179055506040820151816002019080519060200190610c2c929190613fe6565b506060820151816003019080519060200190610c49929190613fe6565b506080820151816004019080519060200190610c66929190613fe6565b5060a0820151816006015590505050505050565b610c82614066565b60008060008581526020019081526020016000209050610ca0614066565b8160080160008581526020019081526020016000206040518060a0016040529081600082015481526020016001820160009054906101000a900473ffffffffffffffffffffffffffffffffffffffff1673ffffffffffffffffffffffffffffffffffffffff1673ffffffffffffffffffffffffffffffffffffffff1681526020016002820160009054906101000a900473ffffffffffffffffffffffffffffffffffffffff1673ffffffffffffffffffffffffffffffffffffffff1673ffffffffffffffffffffffffffffffffffffffff16815260200160038201548152602001600482018054600181600116156101000203166002900480601f016020809104026020016040519081016040528092919081815260200182805460018160011615610100020316600290048015610e195780601f10610dee57610100808354040283529160200191610e19565b820191906000526020600020905b815481529060010190602001808311610dfc57829003601f168201915b5050505050815250509050809250505092915050565b610e376140c1565b60006009600085815260200190815260200160002090506000816007016000858152602001908152602001600020600101549050610e736140c1565b600760008381526020019081526020016000206040518060e001604052908160008201548152602001600182018054600181600116156101000203166002900480601f016020809104026020016040519081016040528092919081815260200182805460018160011615610100020316600290048015610f345780601f10610f0957610100808354040283529160200191610f34565b820191906000526020600020905b815481529060010190602001808311610f1757829003601f168201915b50505050508152602001600282015481526020016003820160009054906101000a900473ffffffffffffffffffffffffffffffffffffffff1673ffffffffffffffffffffffffffffffffffffffff1673ffffffffffffffffffffffffffffffffffffffff1681526020016003820160149054906101000a900460ff16151515158152602001600482018054600181600116156101000203166002900480601f0160208091040260200160405190810160405280929190818152602001828054600181600116156101000203166002900480156110515780601f1061102657610100808354040283529160200191611051565b820191906000526020600020905b81548152906001019060200180831161103457829003601f168201915b50505050508152602001600582015481525050905080935050505092915050565b600a5481565b60026020528060005260406000206000915090508060000154908060010160009054906101000a900473ffffffffffffffffffffffffffffffffffffffff1690806002018054600181600116156101000203166002900480601f0160208091040260200160405190810160405280929190818152602001828054600181600116156101000203166002900480156111505780601f1061112557610100808354040283529160200191611150565b820191906000526020600020905b81548152906001019060200180831161113357829003601f168201915b505050505090806003018054600181600116156101000203166002900480601f0160208091040260200160405190810160405280929190818152602001828054600181600116156101000203166002900480156111ee5780601f106111c3576101008083540402835291602001916111ee565b820191906000526020600020905b8154815290600101906020018083116111d157829003601f168201915b505050505090806004018054600181600116156101000203166002900480601f01602080910402602001604051908101604052809291908181526020018280546001816001161561010002031660029004801561128c5780601f106112615761010080835404028352916020019161128c565b820191906000526020600020905b81548152906001019060200180831161126f57829003601f168201915b505050505090806005018054600181600116156101000203166002900480601f01602080910402602001604051908101604052809291908181526020018280546001816001161561010002031660029004801561132a5780601f106112ff5761010080835404028352916020019161132a565b820191906000526020600020905b81548152906001019060200180831161130d57829003601f168201915b5050505050908060060154908060070160009054906101000a900460ff16908060090154905089565b6000600b6000848152602001908152602001600020905080600601600081548092919060019003919050555080600501600083815260200190815260200160002060008082016000905560018201600090555050505050565b6113b4614066565b60006002600085815260200190815260200160002090506113d3614066565b8160080160008581526020019081526020016000206040518060a0016040529081600082015481526020016001820160009054906101000a900473ffffffffffffffffffffffffffffffffffffffff1673ffffffffffffffffffffffffffffffffffffffff1673ffffffffffffffffffffffffffffffffffffffff1681526020016002820160009054906101000a900473ffffffffffffffffffffffffffffffffffffffff1673ffffffffffffffffffffffffffffffffffffffff1673ffffffffffffffffffffffffffffffffffffffff16815260200160038201548152602001600482018054600181600116156101000203166002900480601f01602080910402602001604051908101604052809291908181526020018280546001816001161561010002031660029004801561154c5780601f106115215761010080835404028352916020019161154c565b820191906000526020600020905b81548152906001019060200180831161152f57829003601f168201915b5050505050815250509050809250505092915050565b6000809050600090505b600154811161163c573373ffffffffffffffffffffffffffffffffffffffff1660008083815260200190815260200160002060010160009054906101000a900473ffffffffffffffffffffffffffffffffffffffff1673ffffffffffffffffffffffffffffffffffffffff16141561162f5760008082815260200190815260200160002060050160009054906101000a900460ff161560008083815260200190815260200160002060050160006101000a81548160ff0219169083151502179055505b808060010191505061156c565b50565b6000809050600090505b600c54811161176f573373ffffffffffffffffffffffffffffffffffffffff16600b600083815260200190815260200160002060010160009054906101000a900473ffffffffffffffffffffffffffffffffffffffff1673ffffffffffffffffffffffffffffffffffffffff16141561176257600b6000828152602001908152602001600020600601600081548092919060010191905055506040518060400160405280600b600084815260200190815260200160002060060154815260200183815250600b60008381526020019081526020016000206005016000600b600085815260200190815260200160002060060154815260200190815260200160002060008201518160000155602082015181600101559050505b8080600101915050611649565b5050565b6000809050600090505b6003548111611854573373ffffffffffffffffffffffffffffffffffffffff166002600083815260200190815260200160002060010160009054906101000a900473ffffffffffffffffffffffffffffffffffffffff1673ffffffffffffffffffffffffffffffffffffffff161415611847578260026000838152602001908152602001600020600501908051906020019061181a929190613f66565b5081600260008381526020019081526020016000206004019080519060200190611845929190613f66565b505b808060010191505061177d565b505050565b6000809050600090505b600a548111611a14578260096000838152602001908152602001600020600001541415611a0757600460096000838152602001908152602001600020600b0160006101000a81548160ff021916908360048111156118bd57fe5b02179055506009600082815260200190815260200160002060010160009054906101000a900473ffffffffffffffffffffffffffffffffffffffff1673ffffffffffffffffffffffffffffffffffffffff166009600083815260200190815260200160002060010160009054906101000a900473ffffffffffffffffffffffffffffffffffffffff1673ffffffffffffffffffffffffffffffffffffffff167f61f699f59fb091fc805011c4a28b175567a2ea546bd32e2e4c6407881602a4e660096000858152602001908152602001600020600601546040516119a19190614c3d565b60405180910390a38173ffffffffffffffffffffffffffffffffffffffff166108fc60096000848152602001908152602001600020600601549081150290604051600060405180830381858888f19350505050158015611a05573d6000803e3d6000fd5b505b8080600101915050611863565b505050565b60065481565b6000809050600090505b600a548111611a8d578760096000838152602001908152602001600020600001541415611a8057600160096000838152602001908152602001600020600b0160016101000a81548160ff0219169083151502179055505b8080600101915050611a29565b6000809050600090505b6003548111611d04578773ffffffffffffffffffffffffffffffffffffffff166002600083815260200190815260200160002060010160009054906101000a900473ffffffffffffffffffffffffffffffffffffffff1673ffffffffffffffffffffffffffffffffffffffff161415611cf75760026000828152602001908152602001600020600901600081548092919060010191905055506040518060a00160405280600260008481526020019081526020016000206009015481526020018973ffffffffffffffffffffffffffffffffffffffff1681526020013373ffffffffffffffffffffffffffffffffffffffff16815260200188815260200187815250600260008381526020019081526020016000206008016000600260008581526020019081526020016000206009015481526020019081526020016000206000820151816000015560208201518160010160006101000a81548173ffffffffffffffffffffffffffffffffffffffff021916908373ffffffffffffffffffffffffffffffffffffffff16021790555060408201518160020160006101000a81548173ffffffffffffffffffffffffffffffffffffffff021916908373ffffffffffffffffffffffffffffffffffffffff160217905550606082015181600301556080820151816004019080519060200190611c94929190613fe6565b509050506000600260008381526020019081526020016000206006015488019050600060026000848152602001908152602001600020600901548281611cd657fe5b04905080600260008581526020019081526020016000206006018190555050505b8080600101915050611a97565b6000809050600090505b6001548111611f18578573ffffffffffffffffffffffffffffffffffffffff1660008083815260200190815260200160002060010160009054906101000a900473ffffffffffffffffffffffffffffffffffffffff1673ffffffffffffffffffffffffffffffffffffffff161415611f0b57600080828152602001908152602001600020600901600081548092919060010191905055506040518060a001604052806000808481526020019081526020016000206009015481526020018773ffffffffffffffffffffffffffffffffffffffff1681526020013373ffffffffffffffffffffffffffffffffffffffff1681526020018681526020018581525060008083815260200190815260200160002060080160008060008581526020019081526020016000206009015481526020019081526020016000206000820151816000015560208201518160010160006101000a81548173ffffffffffffffffffffffffffffffffffffffff021916908373ffffffffffffffffffffffffffffffffffffffff16021790555060408201518160020160006101000a81548173ffffffffffffffffffffffffffffffffffffffff021916908373ffffffffffffffffffffffffffffffffffffffff160217905550606082015181600301556080820151816004019080519060200190611f06929190613fe6565b509050505b8080600101915050611d0e565b50505050505050505050565b6000809050600090505b6006548111612002578560076000838152602001908152602001600020600001541415611ff55784600760008381526020019081526020016000206001019080519060200190611f7f929190613f66565b5083600760008381526020019081526020016000206002018190555082600760008381526020019081526020016000206004019080519060200190611fc5929190613f66565b50816007600083815260200190815260200160002060030160146101000a81548160ff0219169083151502179055505b8080600101915050611f2e565b505050505050565b6000809050600090505b600a5481116120d65781600960008381526020019081526020016000206000015414156120c957600260096000838152602001908152602001600020600b0160006101000a81548160ff0219169083600481111561206e57fe5b0217905550336009600083815260200190815260200160002060030160006101000a81548173ffffffffffffffffffffffffffffffffffffffff021916908373ffffffffffffffffffffffffffffffffffffffff1602179055505b8080600101915050612014565b6120de614116565b6009600084815260200190815260200160002060405180610180016040529081600082015481526020016001820160009054906101000a900473ffffffffffffffffffffffffffffffffffffffff1673ffffffffffffffffffffffffffffffffffffffff1673ffffffffffffffffffffffffffffffffffffffff1681526020016002820160009054906101000a900473ffffffffffffffffffffffffffffffffffffffff1673ffffffffffffffffffffffffffffffffffffffff1673ffffffffffffffffffffffffffffffffffffffff1681526020016003820160009054906101000a900473ffffffffffffffffffffffffffffffffffffffff1673ffffffffffffffffffffffffffffffffffffffff1673ffffffffffffffffffffffffffffffffffffffff16815260200160048201548152602001600582015481526020016006820154815260200160088201548152602001600982018054600181600116156101000203166002900480601f0160208091040260200160405190810160405280929190818152602001828054600181600116156101000203166002900480156122ca5780601f1061229f576101008083540402835291602001916122ca565b820191906000526020600020905b8154815290600101906020018083116122ad57829003601f168201915b50505050508152602001600a82018054600181600116156101000203166002900480601f01602080910402602001604051908101604052809291908181526020018280546001816001161561010002031660029004801561236c5780601f106123415761010080835404028352916020019161236c565b820191906000526020600020905b81548152906001019060200180831161234f57829003601f168201915b50505050508152602001600b820160009054906101000a900460ff16600481111561239357fe5b600481111561239e57fe5b8152602001600b820160019054906101000a900460ff161515151581525050905060008160200151905060008260400151905060008360800151905060008460a00151905060008560c00151905060008660e0015190506060876101000151905060608861012001519050600089610140015190506000809050600090505b6001548111612745573373ffffffffffffffffffffffffffffffffffffffff1660008083815260200190815260200160002060010160009054906101000a900473ffffffffffffffffffffffffffffffffffffffff1673ffffffffffffffffffffffffffffffffffffffff16141561273857600080828152602001908152602001600020600701600081548092919060010191905055506040518061018001604052806000808481526020019081526020016000206007015481526020018b73ffffffffffffffffffffffffffffffffffffffff1681526020018a73ffffffffffffffffffffffffffffffffffffffff1681526020013373ffffffffffffffffffffffffffffffffffffffff16815260200189815260200188815260200187815260200186815260200185815260200184815260200183600481111561255f57fe5b81526020016000151581525060008083815260200190815260200160002060060160008060008581526020019081526020016000206007015481526020019081526020016000206000820151816000015560208201518160010160006101000a81548173ffffffffffffffffffffffffffffffffffffffff021916908373ffffffffffffffffffffffffffffffffffffffff16021790555060408201518160020160006101000a81548173ffffffffffffffffffffffffffffffffffffffff021916908373ffffffffffffffffffffffffffffffffffffffff16021790555060608201518160030160006101000a81548173ffffffffffffffffffffffffffffffffffffffff021916908373ffffffffffffffffffffffffffffffffffffffff1602179055506080820151816004015560a0820151816005015560c0820151816006015560e082015181600801556101008201518160090190805190602001906126ca929190613fe6565b5061012082015181600a0190805190602001906126e8929190613fe6565b5061014082015181600b0160006101000a81548160ff0219169083600481111561270e57fe5b021790555061016082015181600b0160016101000a81548160ff0219169083151502179055509050505b808060010191505061241d565b50505050505050505050505050565b6000809050600090505b600a54811161282857816009600083815260200190815260200160002060000154141561281b57600160096000838152602001908152602001600020600b0160006101000a81548160ff021916908360048111156127b857fe5b02179055503373ffffffffffffffffffffffffffffffffffffffff166108fc60096000848152602001908152602001600020600401549081150290604051600060405180830381858888f19350505050158015612819573d6000803e3d6000fd5b505b808060010191505061275e565b5050565b60096020528060005260406000206000915090508060000154908060010160009054906101000a900473ffffffffffffffffffffffffffffffffffffffff16908060020160009054906101000a900473ffffffffffffffffffffffffffffffffffffffff16908060030160009054906101000a900473ffffffffffffffffffffffffffffffffffffffff1690806004015490806005015490806006015490806008015490806009018054600181600116156101000203166002900480601f0160208091040260200160405190810160405280929190818152602001828054600181600116156101000203166002900480156129685780601f1061293d57610100808354040283529160200191612968565b820191906000526020600020905b81548152906001019060200180831161294b57829003601f168201915b50505050509080600a018054600181600116156101000203166002900480601f016020809104026020016040519081016040528092919081815260200182805460018160011615610100020316600290048015612a065780601f106129db57610100808354040283529160200191612a06565b820191906000526020600020905b8154815290600101906020018083116129e957829003601f168201915b50505050509080600b0160009054906101000a900460ff169080600b0160019054906101000a900460ff1690508c565b60045481565b6007602052806000526040600020600091509050806000015490806001018054600181600116156101000203166002900480601f016020809104026020016040519081016040528092919081815260200182805460018160011615610100020316600290048015612aee5780601f10612ac357610100808354040283529160200191612aee565b820191906000526020600020905b815481529060010190602001808311612ad157829003601f168201915b5050505050908060020154908060030160009054906101000a900473ffffffffffffffffffffffffffffffffffffffff16908060030160149054906101000a900460ff1690806004018054600181600116156101000203166002900480601f016020809104026020016040519081016040528092919081815260200182805460018160011615610100020316600290048015612bcb5780601f10612ba057610100808354040283529160200191612bcb565b820191906000526020600020905b815481529060010190602001808311612bae57829003601f168201915b5050505050908060050154905087565b612be36141c6565b600b60008981526020019081526020016000206040518060c0016040529081600082015481526020016001820160009054906101000a900473ffffffffffffffffffffffffffffffffffffffff1673ffffffffffffffffffffffffffffffffffffffff1673ffffffffffffffffffffffffffffffffffffffff168152602001600282018054600181600116156101000203166002900480601f016020809104026020016040519081016040528092919081815260200182805460018160011615610100020316600290048015612cfa5780601f10612ccf57610100808354040283529160200191612cfa565b820191906000526020600020905b815481529060010190602001808311612cdd57829003601f168201915b50505050508152602001600382018054600181600116156101000203166002900480601f016020809104026020016040519081016040528092919081815260200182805460018160011615610100020316600290048015612d9c5780601f10612d7157610100808354040283529160200191612d9c565b820191906000526020600020905b815481529060010190602001808311612d7f57829003601f168201915b50505050508152602001600482018054600181600116156101000203166002900480601f016020809104026020016040519081016040528092919081815260200182805460018160011615610100020316600290048015612e3e5780601f10612e1357610100808354040283529160200191612e3e565b820191906000526020600020905b815481529060010190602001808311612e2157829003601f168201915b505050505081526020016006820154815250509050600a600081548092919060010191905055506000600860006101000a81548160ff02191690836004811115612e8457fe5b0217905550604051806101800160405280600a548152602001826020015173ffffffffffffffffffffffffffffffffffffffff1681526020018873ffffffffffffffffffffffffffffffffffffffff168152602001600073ffffffffffffffffffffffffffffffffffffffff1681526020018781526020018681526020018581526020018260a001518152602001848152602001838152602001600860009054906101000a900460ff166004811115612f3957fe5b81526020016000151581525060096000600a5481526020019081526020016000206000820151816000015560208201518160010160006101000a81548173ffffffffffffffffffffffffffffffffffffffff021916908373ffffffffffffffffffffffffffffffffffffffff16021790555060408201518160020160006101000a81548173ffffffffffffffffffffffffffffffffffffffff021916908373ffffffffffffffffffffffffffffffffffffffff16021790555060608201518160030160006101000a81548173ffffffffffffffffffffffffffffffffffffffff021916908373ffffffffffffffffffffffffffffffffffffffff1602179055506080820151816004015560a0820151816005015560c0820151816006015560e0820151816008015561010082015181600901908051906020019061307e929190613fe6565b5061012082015181600a01908051906020019061309c929190613fe6565b5061014082015181600b0160006101000a81548160ff021916908360048111156130c257fe5b021790555061016082015181600b0160016101000a81548160ff0219169083151502179055509050506000600190505b8160a0015181116131d15760006131098a836135ec565b905060405180604001604052808381526020018281525060096000600a548152602001908152602001600020600701600084815260200190815260200160002060008201518160000155602082015181600101559050506000600190505b60065481116131c25781600760008381526020019081526020016000206000015414156131b55760076000828152602001908152602001600020600501600081548092919060010191905055505b8080600101915050613167565b505080806001019150506130f2565b50833410156131df57600080fd5b6131e888613e13565b428773ffffffffffffffffffffffffffffffffffffffff16826020015173ffffffffffffffffffffffffffffffffffffffff167f394e8b77a9fee5df170e8b5e75bb342b1d7422e642c95e30c87919a4d1c87302600a548860405161324e929190614fb7565b60405180910390a45050505050505050565b60016000815480929190600101919050555060405180610100016040528060015481526020018573ffffffffffffffffffffffffffffffffffffffff16815260200184815260200183815260200160058152602001821515815260200160008152602001600081525060008060015481526020019081526020016000206000820151816000015560208201518160010160006101000a81548173ffffffffffffffffffffffffffffffffffffffff021916908373ffffffffffffffffffffffffffffffffffffffff160217905550604082015181600201908051906020019061334a929190613fe6565b506060820151816003019080519060200190613367929190613fe6565b506080820151816004015560a08201518160050160006101000a81548160ff02191690831515021790555060c0820151816007015560e0820151816009015590505050505050565b60015481565b600b6020528060005260406000206000915090508060000154908060010160009054906101000a900473ffffffffffffffffffffffffffffffffffffffff1690806002018054600181600116156101000203166002900480601f01602080910402602001604051908101604052809291908181526020018280546001816001161561010002031660029004801561348d5780601f106134625761010080835404028352916020019161348d565b820191906000526020600020905b81548152906001019060200180831161347057829003601f168201915b505050505090806003018054600181600116156101000203166002900480601f01602080910402602001604051908101604052809291908181526020018280546001816001161561010002031660029004801561352b5780601f106135005761010080835404028352916020019161352b565b820191906000526020600020905b81548152906001019060200180831161350e57829003601f168201915b505050505090806004018054600181600116156101000203166002900480601f0160208091040260200160405190810160405280929190818152602001828054600181600116156101000203166002900480156135c95780601f1061359e576101008083540402835291602001916135c9565b820191906000526020600020905b8154815290600101906020018083116135ac57829003601f168201915b5050505050908060060154905086565b600860009054906101000a900460ff1681565b600080600b600085815260200190815260200160002090508060050160008481526020019081526020016000206001015491505092915050565b600084511161363457600080fd5b6000831161364157600080fd5b6006600081548092919060010191905055506040518060e0016040528060065481526020018581526020018481526020013373ffffffffffffffffffffffffffffffffffffffff168152602001831515815260200182815260200160008152506007600060065481526020019081526020016000206000820151816000015560208201518160010190805190602001906136dc929190613fe6565b506040820151816002015560608201518160030160006101000a81548173ffffffffffffffffffffffffffffffffffffffff021916908373ffffffffffffffffffffffffffffffffffffffff16021790555060808201518160030160146101000a81548160ff02191690831515021790555060a082015181600401908051906020019061376a929190613fe6565b5060c082015181600501559050503373ffffffffffffffffffffffffffffffffffffffff16426006547f54e6025534da695a0a6151e44a9eb387f138d3a38669904f90057d6a197277e8878787876040516137c89493929190614ba6565b60405180910390a450505050565b60036000815480929190600101919050555060405180610120016040528060035481526020018773ffffffffffffffffffffffffffffffffffffffff16815260200186815260200185815260200184815260200183815260200160008152602001821515815260200160008152506002600060035481526020019081526020016000206000820151816000015560208201518160010160006101000a81548173ffffffffffffffffffffffffffffffffffffffff021916908373ffffffffffffffffffffffffffffffffffffffff16021790555060408201518160020190805190602001906138c6929190613fe6565b5060608201518160030190805190602001906138e3929190613fe6565b506080820151816004019080519060200190613900929190613fe6565b5060a082015181600501908051906020019061391d929190613fe6565b5060c0820151816006015560e08201518160070160006101000a81548160ff0219169083151502179055506101008201518160090155905050505050505050565b6000809050600090505b600a548111613a32578160096000838152602001908152602001600020600001541415613a2557600360096000838152602001908152602001600020600b0160006101000a81548160ff021916908360048111156139c257fe5b02179055503373ffffffffffffffffffffffffffffffffffffffff166108fc60096000848152602001908152602001600020600501549081150290604051600060405180830381858888f19350505050158015613a23573d6000803e3d6000fd5b505b8080600101915050613968565b5050565b6005602052806000526040600020600091509050806000015490806001018054600181600116156101000203166002900480601f016020809104026020016040519081016040528092919081815260200182805460018160011615610100020316600290048015613ae85780601f10613abd57610100808354040283529160200191613ae8565b820191906000526020600020905b815481529060010190602001808311613acb57829003601f168201915b5050505050908060020154908060030160009054906101000a900473ffffffffffffffffffffffffffffffffffffffff16908060030160149054906101000a900460ff1690806004018054600181600116156101000203166002900480601f016020809104026020016040519081016040528092919081815260200182805460018160011615610100020316600290048015613bc55780601f10613b9a57610100808354040283529160200191613bc5565b820191906000526020600020905b815481529060010190602001808311613ba857829003601f168201915b5050505050905086565b60035481565b6000845111613be357600080fd5b60008311613bf057600080fd5b6004600081548092919060010191905055506040518060c0016040528060045481526020018581526020018481526020013373ffffffffffffffffffffffffffffffffffffffff168152602001831515815260200182815250600560006004548152602001908152602001600020600082015181600001556020820151816001019080519060200190613c84929190613fe6565b506040820151816002015560608201518160030160006101000a81548173ffffffffffffffffffffffffffffffffffffffff021916908373ffffffffffffffffffffffffffffffffffffffff16021790555060808201518160030160146101000a81548160ff02191690831515021790555060a0820151816004019080519060200190613d12929190613fe6565b509050503373ffffffffffffffffffffffffffffffffffffffff16426004547f19b39c67e4eb69bc0f14af84a2a2c7edce21b590ccf1ffe0497c36c15bb1e09987878787604051613d669493929190614ba6565b60405180910390a450505050565b6006600081548092919060019003919050555060076000828152602001908152602001600020600080820160009055600182016000613db39190614212565b60028201600090556003820160006101000a81549073ffffffffffffffffffffffffffffffffffffffff02191690556003820160146101000a81549060ff0219169055600482016000613e069190614212565b6005820160009055505050565b6000600b600083815260200190815260200160002090506000816006015490506000600190505b818111613e7657826005016000828152602001908152602001600020600080820160009055600182016000905550508080600101915050613e3a565b5060008260060181905550505050565b6000809050600090505b6003548111613f63573373ffffffffffffffffffffffffffffffffffffffff166002600083815260200190815260200160002060010160009054906101000a900473ffffffffffffffffffffffffffffffffffffffff1673ffffffffffffffffffffffffffffffffffffffff161415613f56576002600082815260200190815260200160002060070160009054906101000a900460ff16156002600083815260200190815260200160002060070160006101000a81548160ff0219169083151502179055505b8080600101915050613e90565b50565b828054600181600116156101000203166002900490600052602060002090601f016020900481019282601f10613fa757805160ff1916838001178555613fd5565b82800160010185558215613fd5579182015b82811115613fd4578251825591602001919060010190613fb9565b5b509050613fe2919061425a565b5090565b828054600181600116156101000203166002900490600052602060002090601f016020900481019282601f1061402757805160ff1916838001178555614055565b82800160010185558215614055579182015b82811115614054578251825591602001919060010190614039565b5b509050614062919061425a565b5090565b6040518060a0016040528060008152602001600073ffffffffffffffffffffffffffffffffffffffff168152602001600073ffffffffffffffffffffffffffffffffffffffff16815260200160008152602001606081525090565b6040518060e00160405280600081526020016060815260200160008152602001600073ffffffffffffffffffffffffffffffffffffffff16815260200160001515815260200160608152602001600081525090565b60405180610180016040528060008152602001600073ffffffffffffffffffffffffffffffffffffffff168152602001600073ffffffffffffffffffffffffffffffffffffffff168152602001600073ffffffffffffffffffffffffffffffffffffffff168152602001600081526020016000815260200160008152602001600081526020016060815260200160608152602001600060048111156141b757fe5b81526020016000151581525090565b6040518060c0016040528060008152602001600073ffffffffffffffffffffffffffffffffffffffff168152602001606081526020016060815260200160608152602001600081525090565b50805460018160011615610100020316600290046000825580601f106142385750614257565b601f016020900490600052602060002090810190614256919061425a565b5b50565b61427c91905b80821115614278576000816000905550600101614260565b5090565b90565b60008135905061428e8161515a565b92915050565b6000813590506142a381615171565b92915050565b6000813590506142b881615188565b92915050565b600082601f8301126142cf57600080fd5b81356142e26142dd8261500d565b614fe0565b915080825260208301602083018583830111156142fe57600080fd5b6143098382846150fa565b50505092915050565b6000813590506143218161519f565b92915050565b6000806000806080858703121561433d57600080fd5b600061434b8782880161427f565b945050602085013567ffffffffffffffff81111561436857600080fd5b614374878288016142be565b935050604085013567ffffffffffffffff81111561439157600080fd5b61439d878288016142be565b92505060606143ae878288016142a9565b91505092959194509250565b600080600080608085870312156143d057600080fd5b60006143de8782880161427f565b945050602085013567ffffffffffffffff8111156143fb57600080fd5b614407878288016142be565b935050604085013567ffffffffffffffff81111561442457600080fd5b614430878288016142be565b925050606085013567ffffffffffffffff81111561444d57600080fd5b614459878288016142be565b91505092959194509250565b60008060008060008060c0878903121561447e57600080fd5b600061448c89828a0161427f565b965050602087013567ffffffffffffffff8111156144a957600080fd5b6144b589828a016142be565b955050604087013567ffffffffffffffff8111156144d257600080fd5b6144de89828a016142be565b945050606087013567ffffffffffffffff8111156144fb57600080fd5b61450789828a016142be565b935050608087013567ffffffffffffffff81111561452457600080fd5b61453089828a016142be565b92505060a061454189828a016142a9565b9150509295509295509295565b6000806040838503121561456157600080fd5b600083013567ffffffffffffffff81111561457b57600080fd5b614587858286016142be565b925050602083013567ffffffffffffffff8111156145a457600080fd5b6145b0858286016142be565b9150509250929050565b600080600080608085870312156145d057600080fd5b600085013567ffffffffffffffff8111156145ea57600080fd5b6145f6878288016142be565b945050602061460787828801614312565b9350506040614618878288016142a9565b925050606085013567ffffffffffffffff81111561463557600080fd5b614641878288016142be565b91505092959194509250565b60006020828403121561465f57600080fd5b600061466d84828501614312565b91505092915050565b6000806040838503121561468957600080fd5b600061469785828601614312565b92505060206146a885828601614294565b9150509250929050565b600080600080600080600060e0888a0312156146cd57600080fd5b60006146db8a828b01614312565b97505060206146ec8a828b01614294565b96505060406146fd8a828b01614312565b955050606061470e8a828b01614312565b945050608061471f8a828b01614312565b93505060a088013567ffffffffffffffff81111561473c57600080fd5b6147488a828b016142be565b92505060c088013567ffffffffffffffff81111561476557600080fd5b6147718a828b016142be565b91505092959891949750929550565b600080600080600080600060e0888a03121561479b57600080fd5b60006147a98a828b01614312565b97505060206147ba8a828b0161427f565b96505060406147cb8a828b01614312565b955050606088013567ffffffffffffffff8111156147e857600080fd5b6147f48a828b016142be565b94505060806148058a828b0161427f565b93505060a06148168a828b01614312565b92505060c088013567ffffffffffffffff81111561483357600080fd5b61483f8a828b016142be565b91505092959891949750929550565b600080600080600060a0868803121561486657600080fd5b600061487488828901614312565b955050602086013567ffffffffffffffff81111561489157600080fd5b61489d888289016142be565b94505060406148ae88828901614312565b935050606086013567ffffffffffffffff8111156148cb57600080fd5b6148d7888289016142be565b92505060806148e8888289016142a9565b9150509295509295909350565b6000806040838503121561490857600080fd5b600061491685828601614312565b925050602061492785828601614312565b9150509250929050565b61493a81615083565b82525050565b61494981615083565b82525050565b61495881615071565b82525050565b61496781615071565b82525050565b61497681615095565b82525050565b61498581615095565b82525050565b614994816150e8565b82525050565b6149a3816150b4565b82525050565b60006149b482615044565b6149be8185615060565b93506149ce818560208601615109565b6149d78161513c565b840191505092915050565b60006149ed82615039565b6149f7818561504f565b9350614a07818560208601615109565b614a108161513c565b840191505092915050565b6000614a2682615039565b614a308185615060565b9350614a40818560208601615109565b614a498161513c565b840191505092915050565b600060a083016000830151614a6c6000860182614b6d565b506020830151614a7f602086018261494f565b506040830151614a92604086018261494f565b506060830151614aa56060860182614b6d565b5060808301518482036080860152614abd82826149e2565b9150508091505092915050565b600060e083016000830151614ae26000860182614b6d565b5060208301518482036020860152614afa82826149e2565b9150506040830151614b0f6040860182614b6d565b506060830151614b226060860182614931565b506080830151614b35608086018261496d565b5060a083015184820360a0860152614b4d82826149e2565b91505060c0830151614b6260c0860182614b6d565b508091505092915050565b614b76816150de565b82525050565b614b85816150de565b82525050565b6000602082019050614ba0600083018461498b565b92915050565b60006080820190508181036000830152614bc081876149a9565b9050614bcf6020830186614b7c565b614bdc604083018561497c565b8181036060830152614bee81846149a9565b905095945050505050565b60006020820190508181036000830152614c138184614a54565b905092915050565b60006020820190508181036000830152614c358184614aca565b905092915050565b6000602082019050614c526000830184614b7c565b92915050565b600061018082019050614c6e600083018f614b7c565b614c7b602083018e61495e565b614c88604083018d61495e565b614c95606083018c61495e565b614ca2608083018b614b7c565b614caf60a083018a614b7c565b614cbc60c0830189614b7c565b614cc960e0830188614b7c565b818103610100830152614cdc8187614a1b565b9050818103610120830152614cf18186614a1b565b9050614d0161014083018561498b565b614d0f61016083018461497c565b9d9c50505050505050505050505050565b600061010082019050614d36600083018b614b7c565b614d43602083018a61495e565b8181036040830152614d558189614a1b565b90508181036060830152614d698188614a1b565b9050614d78608083018761499a565b614d8560a083018661497c565b614d9260c0830185614b7c565b614d9f60e0830184614b7c565b9998505050505050505050565b600061012082019050614dc2600083018c614b7c565b614dcf602083018b61495e565b8181036040830152614de1818a614a1b565b90508181036060830152614df58189614a1b565b90508181036080830152614e098188614a1b565b905081810360a0830152614e1d8187614a1b565b9050614e2c60c0830186614b7c565b614e3960e083018561497c565b614e47610100830184614b7c565b9a9950505050505050505050565b600060c082019050614e6a6000830189614b7c565b614e77602083018861495e565b8181036040830152614e898187614a1b565b90508181036060830152614e9d8186614a1b565b90508181036080830152614eb18185614a1b565b9050614ec060a0830184614b7c565b979650505050505050565b600060c082019050614ee06000830189614b7c565b8181036020830152614ef28188614a1b565b9050614f016040830187614b7c565b614f0e6060830186614940565b614f1b608083018561497c565b81810360a0830152614f2d8184614a1b565b9050979650505050505050565b600060e082019050614f4f600083018a614b7c565b8181036020830152614f618189614a1b565b9050614f706040830188614b7c565b614f7d6060830187614940565b614f8a608083018661497c565b81810360a0830152614f9c8185614a1b565b9050614fab60c0830184614b7c565b98975050505050505050565b6000604082019050614fcc6000830185614b7c565b614fd96020830184614b7c565b9392505050565b6000604051905081810181811067ffffffffffffffff8211171561500357600080fd5b8060405250919050565b600067ffffffffffffffff82111561502457600080fd5b601f19601f8301169050602081019050919050565b600081519050919050565b600081519050919050565b600082825260208201905092915050565b600082825260208201905092915050565b600061507c826150be565b9050919050565b600061508e826150be565b9050919050565b60008115159050919050565b60008190506150af8261514d565b919050565b6000819050919050565b600073ffffffffffffffffffffffffffffffffffffffff82169050919050565b6000819050919050565b60006150f3826150a1565b9050919050565b82818337600083830152505050565b60005b8381101561512757808201518184015260208101905061510c565b83811115615136576000848401525b50505050565b6000601f19601f8301169050919050565b6005811061515757fe5b50565b61516381615071565b811461516e57600080fd5b50565b61517a81615083565b811461518557600080fd5b50565b61519181615095565b811461519c57600080fd5b50565b6151a8816150de565b81146151b357600080fd5b5056fea365627a7a723158207d3cb8410de2c851a1f34a8fb93cd92e047578181bd9b7c058d59d934c468be06c6578706572696d656e74616cf564736f6c6343000510004032204164616d2052642c202330312d303220466f6f642043656e7472652c2053696e6761706f7265203238393837364d617877656c6c20466f6f642043656e747265202330312d31302f31312c2031204b61646179616e616c6c7572205374726565742c2053696e6761706f7265203036393138345475657364617920e280932053756e6461793a203130616d20e2809320373a3330706d4d6f6e646179202d2054687572736461793a2037616d2d35706d3b205361747572646179202d2053756e6461792037616d2d33706d353020416e67204d6f204b696f2041766520322c2053696e6761706f726520363339373938",
  "source": "// SPDX-License-Identifier: Blockchain\r\n\r\npragma solidity ^0.5.4;\r\n\r\npragma experimental ABIEncoderV2;\r\n\r\ncontract Marketplace {\r\n    //constructor\r\n    constructor() public {\r\n        addHawker(\r\n            0x73c005D4B234C63F416F6e1038C011D55edDBF1e,\r\n            \"Selera Rasa Nasi Lemak\",\r\n            \"2 Adam Rd, #01-02 Food Centre, Singapore 289876\",\r\n            \"Monday - Thursday: 7am-5pm; Saturday - Sunday 7am-3pm\",\r\n            \"98434509\",\r\n            false\r\n        );\r\n        addHawker(\r\n            0x87ECEE1454A7b32253A9020F6ae1FF25e9CE35B5,\r\n            \"Tian Tian Hainanese Chicken Rice\",\r\n            \"Maxwell Food Centre #01-10/11, 1 Kadayanallur Street, Singapore 069184\",\r\n            \"Tuesday  Sunday: 10am  7:30pm\",\r\n            \"96914852\",\r\n            false\r\n        );\r\n        addCustomer(\r\n            0xC9342f12d49ca9e40d600eBF17266DcCc88a0639,\r\n            \"Casuarina\",\r\n            \"50 Nanyang Ave, Singapore 639798\",\r\n            \"98765432\"\r\n        );\r\n        addCustomer(\r\n            0x7C2eA58a210F8e7c80fdeB6788C1D5Fc4a3E73ba,\r\n            \"Patrick\",\r\n            \"50 Ang Mo Kio Ave 2, Singapore 639798\",\r\n            \"91234567\"\r\n        );\r\n        addFoodDelivery(\r\n            0x66f8f66996aaB36b041b1cAdA9f20864a0C42698,\r\n            \"Leo Tan\",\r\n            \"90123456\",\r\n            false\r\n        );\r\n    }\r\n\r\n    event LogRefund(\r\n        address indexed receiver,\r\n        uint256 amount,\r\n        address indexed owner\r\n    );\r\n\r\n    //FOOD DELIVERY\r\n    struct FoodDelivery {\r\n        uint256 id;\r\n        address owner;\r\n        string name;\r\n        string phone;\r\n        int256 rating;\r\n        bool available;\r\n        mapping(uint256 => Order) ordersAccepted;\r\n        uint256 ordersAcceptedCount;\r\n        mapping(uint256 => Feedback) feedbacks;\r\n        uint256 feedbackCount;\r\n    }\r\n\r\n    // Read/write Food Delivery\r\n    mapping(uint256 => FoodDelivery) public foodDeliveries;\r\n    //Store Food Delivery Count\r\n    uint256 public foodDeliveriesCount;\r\n\r\n    //add new food delivery\r\n    function addFoodDelivery(\r\n        address _owner,\r\n        string memory _name,\r\n        string memory _phone,\r\n        bool _available\r\n    ) public {\r\n        foodDeliveriesCount++;\r\n        foodDeliveries[foodDeliveriesCount] = FoodDelivery(\r\n            foodDeliveriesCount,\r\n            _owner,\r\n            _name,\r\n            _phone,\r\n            5,\r\n            _available,\r\n            0,\r\n            0\r\n        );\r\n    }\r\n\r\n    // struct OrderHistory {\r\n    //     address\r\n    // }\r\n\r\n    //HAWKER\r\n    struct Hawker {\r\n        uint256 id;\r\n        address owner;\r\n        string name;\r\n        string addressLocation;\r\n        string openingHours;\r\n        string phone;\r\n        uint256 avgRating;\r\n        bool open;\r\n        mapping(uint256 => Feedback) feedbacks;\r\n        uint256 feedbackCount;\r\n    }\r\n\r\n    // Read/write Hawkers\r\n    mapping(uint256 => Hawker) public hawkers;\r\n    //Store Hawkers Count\r\n    uint256 public hawkersCount;\r\n\r\n    //FEEDBACK\r\n    struct Feedback {\r\n        uint256 id;\r\n        address seller;\r\n        address customer;\r\n        uint256 rate;\r\n        string comment;\r\n    }\r\n\r\n    function addHawker(\r\n        address _owner,\r\n        string memory _name,\r\n        string memory _addressLocation,\r\n        string memory _openingHours,\r\n        string memory _phone,\r\n        bool _open\r\n    ) public {\r\n        hawkersCount++;\r\n        hawkers[hawkersCount] = Hawker(\r\n            hawkersCount,\r\n            _owner,\r\n            _name,\r\n            _addressLocation,\r\n            _openingHours,\r\n            _phone,\r\n            0,\r\n            _open,\r\n            0\r\n        );\r\n    }\r\n\r\n    function editHawkerProfile(string memory _phone, string memory _OH) public {\r\n        uint256 i = 0;\r\n        for (i = 0; i <= hawkersCount; i++) {\r\n            if (hawkers[i].owner == msg.sender) {\r\n                hawkers[i].phone = _phone;\r\n                hawkers[i].openingHours = _OH;\r\n            }\r\n        }\r\n    }\r\n\r\n    //change shop status\r\n    function boolOpen() public {\r\n        uint256 i = 0;\r\n        for (i = 0; i <= hawkersCount; i++) {\r\n            if (hawkers[i].owner == msg.sender) {\r\n                hawkers[i].open = !(hawkers[i].open);\r\n            }\r\n        }\r\n    }\r\n\r\n    //change food delivery status\r\n    function boolWork() public {\r\n        uint256 i = 0;\r\n        for (i = 0; i <= foodDeliveriesCount; i++) {\r\n            if (foodDeliveries[i].owner == msg.sender) {\r\n                foodDeliveries[i].available = !(foodDeliveries[i].available);\r\n            }\r\n        }\r\n    }\r\n\r\n    //SUPPLIER\r\n    uint256 public suppProdCount = 0;\r\n    mapping(uint256 => SuppProduct) public suppProducts;\r\n    struct SuppProduct {\r\n        uint256 id;\r\n        string name;\r\n        uint256 price;\r\n        address payable owner;\r\n        bool published;\r\n        string imageHash;\r\n    }\r\n    struct SuppProfile {\r\n        uint256 id;\r\n        string name;\r\n        string category;\r\n        string location;\r\n        string deliveryHours;\r\n        address payable owner;\r\n        string reviews;\r\n        uint256 rating;\r\n    }\r\n\r\n    //Restaurants products\r\n    uint256 public restProdCount = 0;\r\n    mapping(uint256 => RestProduct) public restProducts;\r\n    struct RestProduct {\r\n        uint256 id;\r\n        string name;\r\n        uint256 price;\r\n        address payable owner;\r\n        bool published;\r\n        string imageHash;\r\n        uint256 soldCount;\r\n    }\r\n\r\n    struct RestProfile {\r\n        uint256 id;\r\n        string name;\r\n        string category;\r\n        string location;\r\n        string deliveryHours;\r\n        address payable owner;\r\n        string reviews;\r\n        uint256 rating;\r\n    }\r\n\r\n    event RestProdCreated(\r\n        uint256 indexed id,\r\n        uint256 indexed date,\r\n        string name,\r\n        uint256 price,\r\n        address payable indexed owner,\r\n        bool purchased,\r\n        string imageHash\r\n    );\r\n\r\n    event SupplierProdCreated(\r\n        uint256 indexed id,\r\n        uint256 indexed date,\r\n        string name,\r\n        uint256 price,\r\n        address payable indexed owner,\r\n        bool purchased,\r\n        string imageHash\r\n    );\r\n\r\n    function createSuppProduct(\r\n        string memory _name,\r\n        uint256 _price,\r\n        bool _published,\r\n        string memory _imageHash\r\n    ) public {\r\n        // Require a valid name\r\n        require(bytes(_name).length > 0);\r\n        // Require a valid price\r\n        require(_price > 0);\r\n        // Increment product count\r\n        suppProdCount++;\r\n        // Create the product --- msg.sender is the one who accessed the function\r\n        suppProducts[suppProdCount] = SuppProduct(\r\n            suppProdCount,\r\n            _name,\r\n            _price,\r\n            msg.sender,\r\n            _published,\r\n            _imageHash\r\n        );\r\n        //trigger an event\r\n        emit SupplierProdCreated(\r\n            suppProdCount,\r\n            now,\r\n            _name,\r\n            _price,\r\n            msg.sender,\r\n            _published,\r\n            _imageHash\r\n        );\r\n    }\r\n\r\n    function createRestProduct(\r\n        string memory _name,\r\n        uint256 _price,\r\n        bool _published,\r\n        string memory _imageHash\r\n    ) public {\r\n        // Require a valid name\r\n        require(bytes(_name).length > 0);\r\n        // Require a valid price\r\n        require(_price > 0);\r\n        // Increment product count\r\n        restProdCount++;\r\n        // Create the product --- msg.sender is the one who accessed the function\r\n        restProducts[restProdCount] = RestProduct(\r\n            restProdCount,\r\n            _name,\r\n            _price,\r\n            msg.sender,\r\n            _published,\r\n            _imageHash,\r\n            0\r\n        );\r\n        // Trigger an event\r\n        emit RestProdCreated(\r\n            restProdCount,\r\n            now,\r\n            _name,\r\n            _price,\r\n            msg.sender,\r\n            _published,\r\n            _imageHash\r\n        );\r\n    }\r\n\r\n    //ORDERS\r\n    enum Status {\r\n        OrderPlaced,\r\n        OrderConfirm,\r\n        DriverConfirm,\r\n        OrderCompleted,\r\n        OrderCancelled\r\n    }\r\n    Status public state;\r\n\r\n    struct Order {\r\n        uint256 id;\r\n        address owner;\r\n        address seller;\r\n        address driver;\r\n        uint256 hawkerPayment;\r\n        uint256 riderPayment;\r\n        uint256 totalPrice;\r\n        mapping(uint256 => CartItem) purchasedItemId;\r\n        uint256 purchasedItemCount;\r\n        string date;\r\n        string time;\r\n        Status state;\r\n        bool rated;\r\n    }\r\n\r\n    mapping(uint256 => Order) public orders;\r\n    uint256 public ordersCount;\r\n\r\n    struct CartItem {\r\n        uint256 id;\r\n        uint256 productId;\r\n    }\r\n\r\n    //CUSTOMER\r\n    struct Customer {\r\n        uint256 id;\r\n        address owner;\r\n        string name;\r\n        string addressLocation;\r\n        string phone;\r\n        mapping(uint256 => CartItem) cartItems;\r\n        uint256 itemCount;\r\n    }\r\n\r\n    mapping(uint256 => Customer) public customers;\r\n    uint256 public customersCount;\r\n\r\n    function addCustomer(\r\n        address _owner,\r\n        string memory _name,\r\n        string memory _addressLocation,\r\n        string memory _phone\r\n    ) public {\r\n        customersCount++;\r\n        //CartItem[] memory cartItems;\r\n        customers[customersCount] = Customer(\r\n            customersCount,\r\n            _owner,\r\n            _name,\r\n            _addressLocation,\r\n            _phone,\r\n            0\r\n        );\r\n    }\r\n\r\n    function editCustProfile(string memory _phone, string memory _address)\r\n        public\r\n    {\r\n        uint256 i = 0;\r\n        for (i = 0; i <= customersCount; i++) {\r\n            if (customers[i].owner == msg.sender) {\r\n                customers[i].phone = _phone;\r\n                customers[i].addressLocation = _address;\r\n            }\r\n        }\r\n    }\r\n\r\n    function editProduct(\r\n        uint256 _productId,\r\n        string memory _name,\r\n        uint256 _price,\r\n        string memory _imageHash,\r\n        bool _published\r\n    ) public {\r\n        uint256 i = 0;\r\n        for (i = 0; i <= restProdCount; i++) {\r\n            if (restProducts[i].id == _productId) {\r\n                restProducts[i].name = _name;\r\n                restProducts[i].price = _price;\r\n                restProducts[i].imageHash = _imageHash;\r\n                restProducts[i].published = _published;\r\n            }\r\n        }\r\n    }\r\n\r\n    function addToCart(uint256 _id) public {\r\n        uint256 i = 0;\r\n        for (i = 0; i <= customersCount; i++) {\r\n            if (customers[i].owner == msg.sender) {\r\n                (customers[i].itemCount)++;\r\n                customers[i].cartItems[customers[i].itemCount] = CartItem(\r\n                    customers[i].itemCount,\r\n                    _id\r\n                );\r\n            }\r\n        }\r\n    }\r\n\r\n    function removeProdCart(uint256 custId, uint256 cartId) public {\r\n        Customer storage cust = customers[custId];\r\n        (cust.itemCount)--;\r\n        delete cust.cartItems[cartId];\r\n    }\r\n\r\n    function deleteProduct(uint256 productId) public {\r\n        //RestProduct storage product = restProducts[productId];\r\n        restProdCount--;\r\n        delete restProducts[productId];\r\n    }\r\n\r\n    function removeAllProdCart(uint256 custId) public {\r\n        Customer storage cust = customers[custId];\r\n        uint256 _itemCount = cust.itemCount;\r\n        for (uint256 i = 1; i <= _itemCount; i++) {\r\n            delete cust.cartItems[i];\r\n        }\r\n        (cust.itemCount) = 0;\r\n    }\r\n\r\n    function getCartProduct(uint256 custId, uint256 cartId)\r\n        public\r\n        returns (uint256)\r\n    {\r\n        Customer storage cust = customers[custId];\r\n        return (cust.cartItems[cartId].productId);\r\n    }\r\n\r\n    function getOrderProduct(uint256 orderId, uint256 cartId)\r\n        public\r\n        returns (RestProduct memory)\r\n    {\r\n        Order storage ord = orders[orderId];\r\n        uint256 prodId = ord.purchasedItemId[cartId].productId;\r\n        RestProduct memory _product = restProducts[prodId];\r\n        return (_product);\r\n    }\r\n\r\n    function getHawkerFeedback(uint256 hawkerId, uint256 feedbackCount)\r\n        public\r\n        returns (Feedback memory)\r\n    {\r\n        Hawker storage hawker = hawkers[hawkerId];\r\n        Feedback memory _feedback = hawker.feedbacks[feedbackCount];\r\n        return (_feedback);\r\n    }\r\n\r\n    function getFdFeedback(uint256 fdId, uint256 feedbackCount)\r\n        public\r\n        returns (Feedback memory)\r\n    {\r\n        FoodDelivery storage fd = foodDeliveries[fdId];\r\n        Feedback memory _feedback = fd.feedbacks[feedbackCount];\r\n        return (_feedback);\r\n    }\r\n\r\n    function setRating(\r\n        uint256 _orderId,\r\n        address _hawker,\r\n        uint256 _hawkerRate,\r\n        string memory _hawkerComment,\r\n        address _foodDelivery,\r\n        uint256 _fdRate,\r\n        string memory _fdComment\r\n    ) public {\r\n        //set order rated boolean to true\r\n        uint256 j = 0;\r\n        for (j = 0; j <= ordersCount; j++) {\r\n            if (orders[j].id == _orderId) {\r\n                orders[j].rated = true;\r\n            }\r\n        }\r\n\r\n        //set hawker feedback\r\n        uint256 i = 0;\r\n        for (i = 0; i <= hawkersCount; i++) {\r\n            if (hawkers[i].owner == _hawker) {\r\n                (hawkers[i].feedbackCount)++;\r\n                hawkers[i].feedbacks[hawkers[i].feedbackCount] = Feedback(\r\n                    hawkers[i].feedbackCount,\r\n                    _hawker,\r\n                    msg.sender,\r\n                    _hawkerRate,\r\n                    _hawkerComment\r\n                );\r\n                uint256 total = _hawkerRate + hawkers[i].avgRating;\r\n                uint256 avg = total / (hawkers[i].feedbackCount);\r\n                hawkers[i].avgRating = avg;\r\n            }\r\n        }\r\n\r\n        //set fd feedback\r\n        uint256 k = 0;\r\n        for (k = 0; k <= foodDeliveriesCount; k++) {\r\n            if (foodDeliveries[k].owner == _foodDelivery) {\r\n                (foodDeliveries[k].feedbackCount)++;\r\n                foodDeliveries[k].feedbacks[\r\n                    foodDeliveries[k].feedbackCount\r\n                ] = Feedback(\r\n                    foodDeliveries[k].feedbackCount,\r\n                    _foodDelivery,\r\n                    msg.sender,\r\n                    _fdRate,\r\n                    _fdComment\r\n                );\r\n            }\r\n        }\r\n    }\r\n\r\n    function cancelOrder(uint256 _orderId, address payable _customer)\r\n        public\r\n        payable\r\n    {\r\n        uint256 i = 0;\r\n        for (i = 0; i <= ordersCount; i++) {\r\n            if (orders[i].id == _orderId) {\r\n                orders[i].state = Status.OrderCancelled;\r\n                //address payable customer = address(orders[i].owner);\r\n                emit LogRefund(\r\n                    orders[i].owner,\r\n                    orders[i].totalPrice,\r\n                    orders[i].owner\r\n                );\r\n                address(_customer).transfer(orders[i].totalPrice);\r\n                //msg.sender.transfer(orders[i].totalPrice);\r\n            }\r\n        }\r\n    }\r\n\r\n    event HawkerProdPurchased(\r\n        uint256 orderId,\r\n        address indexed buyer,\r\n        address indexed seller,\r\n        uint256 totalCost,\r\n        uint256 indexed date\r\n    );\r\n\r\n    function purchaseProduct(\r\n        uint256 _custId,\r\n        address payable _seller,\r\n        uint256 _hawkerPayment,\r\n        uint256 _riderPayment,\r\n        uint256 _totalCost,\r\n        string memory _date,\r\n        string memory _time\r\n    ) public payable {\r\n        Customer memory cust = customers[_custId];\r\n        // Increment order count\r\n        ordersCount++;\r\n        // Create the enum\r\n        state = Status.OrderPlaced;\r\n\r\n        // Create the order\r\n        orders[ordersCount] = Order(\r\n            ordersCount,\r\n            cust.owner,\r\n            _seller,\r\n            address(0),\r\n            _hawkerPayment,\r\n            _riderPayment,\r\n            _totalCost,\r\n            cust.itemCount,\r\n            _date,\r\n            _time,\r\n            state,\r\n            false\r\n        );\r\n\r\n        //add the items in cartItems(Customer structure) to purchasedItemId (Order structure)\r\n        for (uint256 i = 1; i <= cust.itemCount; i++) {\r\n            uint256 item = getCartProduct(_custId, i);\r\n            orders[ordersCount].purchasedItemId[i] = CartItem(i, item);\r\n\r\n            //increate soldCount in RestProduct\r\n            for (uint256 k = 1; k <= restProdCount; k++) {\r\n                if (restProducts[k].id == item) {\r\n                    restProducts[k].soldCount++;\r\n                }\r\n            }\r\n        }\r\n\r\n        //Require that there is enough Ether in the transaction\r\n        require(msg.value >= _totalCost);\r\n\r\n        //remove the CartItem in the Customer id\r\n        removeAllProdCart(_custId);\r\n\r\n        // //Trigger an event\r\n        emit HawkerProdPurchased(\r\n            ordersCount,\r\n            cust.owner,\r\n            _seller,\r\n            _totalCost,\r\n            now\r\n        );\r\n    }\r\n\r\n    //hawker confirms order transaction made by customer\r\n    function hawkerConfirmOrder(uint256 _orderId) public {\r\n        uint256 i = 0;\r\n        for (i = 0; i <= ordersCount; i++) {\r\n            if (orders[i].id == _orderId) {\r\n                orders[i].state = Status.OrderConfirm;\r\n                //Pay the hawker\r\n                address(msg.sender).transfer(orders[i].hawkerPayment);\r\n            }\r\n        }\r\n    }\r\n\r\n    //food delivery accepts order delivery\r\n    function fdAcceptOrder(uint256 _orderId) public {\r\n        //set orderId state to DriverConfirm\r\n        uint256 i = 0;\r\n        for (i = 0; i <= ordersCount; i++) {\r\n            if (orders[i].id == _orderId) {\r\n                orders[i].state = Status.DriverConfirm;\r\n                orders[i].driver = msg.sender;\r\n            }\r\n        }\r\n\r\n        Order memory _order = orders[_orderId];\r\n        address _owner = _order.owner;\r\n        address _seller = _order.seller;\r\n        uint256 _hawkerPayment = _order.hawkerPayment;\r\n        uint256 _riderPayment = _order.riderPayment;\r\n        uint256 _totalPrice = _order.totalPrice;\r\n        uint256 _purchasedItemCount = _order.purchasedItemCount;\r\n        string memory _date = _order.date;\r\n        string memory _time = _order.time;\r\n        Status _state = _order.state;\r\n\r\n        //add the order to the acceptedOrder mapping for the fd\r\n        uint256 k = 0;\r\n        for (k = 0; k <= foodDeliveriesCount; k++) {\r\n            if (foodDeliveries[k].owner == msg.sender) {\r\n                (foodDeliveries[k].ordersAcceptedCount)++;\r\n                foodDeliveries[k].ordersAccepted[\r\n                    foodDeliveries[k].ordersAcceptedCount\r\n                ] = Order(\r\n                    foodDeliveries[k].ordersAcceptedCount,\r\n                    _owner,\r\n                    _seller,\r\n                    msg.sender,\r\n                    _hawkerPayment,\r\n                    _riderPayment,\r\n                    _totalPrice,\r\n                    _purchasedItemCount,\r\n                    _date,\r\n                    _time,\r\n                    _state,\r\n                    false\r\n                );\r\n            }\r\n        }\r\n    }\r\n\r\n    //food delivery completes order delivery\r\n    function fdCompleteOrder(uint256 _orderId) public payable {\r\n        //set orderId state to OrderCompleted\r\n        uint256 i = 0;\r\n        for (i = 0; i <= ordersCount; i++) {\r\n            if (orders[i].id == _orderId) {\r\n                orders[i].state = Status.OrderCompleted;\r\n                //Pay the rider after completion\r\n                address(msg.sender).transfer(orders[i].riderPayment);\r\n            }\r\n        }\r\n    }\r\n\r\n    // function purchaseProduct(uint256 _id) public payable {\r\n    //     //Fetch the product\r\n    //     Product memory _product = products[_id];\r\n    //     //Fetch the owner\r\n    //     address payable _seller = _product.owner;\r\n    //     //Make sure the product has a valid id\r\n    //     //require(_product.id > 0 && _product.id <= productCount); ---> need to change\r\n    //     //Require that there is enough Ether in the transaction\r\n    //     require(msg.value >= _product.price);\r\n    //     //Require that the product has not been purchased already\r\n    //     require(!_product.purchased);\r\n    //     //Require that the buyer is not the seller\r\n    //     require(_seller != msg.sender);\r\n    //     //Transfer ownership to the buyer\r\n    //     _product.owner = msg.sender;\r\n    //     //Mark as purchased\r\n    //     _product.purchased = true;\r\n    //     //Update the product\r\n    //     products[_id] = _product;\r\n    //     //Pay the seller by sending them Ether\r\n    //     address(_seller).transfer(msg.value);\r\n\r\n    //     //Trigger an event\r\n    //     emit ProductPurchased(\r\n    //         productCount,\r\n    //         _product.name,\r\n    //         _product.price,\r\n    //         msg.sender,\r\n    //         true\r\n    //     );\r\n    // }\r\n}\r\n",
  "sourcePath": "C:/Users/Casuarina/Desktop/FYP_FoodIndustry/blockchain/src/contracts/Marketplace.sol",
  "compiler": {
    "name": "solc",
    "version": "0.5.16+commit.9c3226ce.Emscripten.clang"
  },
  "schemaVersion": "3.4.1",
  "updatedAt": "2021-07-23T10:54:31.767Z",
  "networkType": "ethereum",
  "devdoc": {
    "methods": {}
  },
  "userdoc": {
    "methods": {}
  }
}