{
  "contractName": "Marketplace",
  "abi": [
    {
      "constant": true,
      "inputs": [
        {
          "internalType": "uint256",
          "name": "",
          "type": "uint256"
        }
      ],
      "name": "customers",
      "outputs": [
        {
          "internalType": "uint256",
          "name": "id",
          "type": "uint256"
        },
        {
          "internalType": "address",
          "name": "owner",
          "type": "address"
        },
        {
          "internalType": "string",
          "name": "name",
          "type": "string"
        },
        {
          "internalType": "string",
          "name": "addressLocation",
          "type": "string"
        },
        {
          "internalType": "string",
          "name": "phone",
          "type": "string"
        },
        {
          "internalType": "uint256",
          "name": "itemCount",
          "type": "uint256"
        }
      ],
      "payable": false,
      "stateMutability": "view",
      "type": "function"
    },
    {
      "constant": true,
      "inputs": [],
      "name": "customersCount",
      "outputs": [
        {
          "internalType": "uint256",
          "name": "",
          "type": "uint256"
        }
      ],
      "payable": false,
      "stateMutability": "view",
      "type": "function"
    },
    {
      "constant": true,
      "inputs": [
        {
          "internalType": "uint256",
          "name": "",
          "type": "uint256"
        }
      ],
      "name": "foodDeliveries",
      "outputs": [
        {
          "internalType": "uint256",
          "name": "id",
          "type": "uint256"
        },
        {
          "internalType": "address",
          "name": "owner",
          "type": "address"
        },
        {
          "internalType": "string",
          "name": "name",
          "type": "string"
        },
        {
          "internalType": "string",
          "name": "email",
          "type": "string"
        },
        {
          "internalType": "string",
          "name": "phone",
          "type": "string"
        },
        {
          "internalType": "int256",
          "name": "rating",
          "type": "int256"
        },
        {
          "internalType": "bool",
          "name": "available",
          "type": "bool"
        },
        {
          "internalType": "uint256",
          "name": "ordersAcceptedCount",
          "type": "uint256"
        },
        {
          "internalType": "uint256",
          "name": "feedbackCount",
          "type": "uint256"
        }
      ],
      "payable": false,
      "stateMutability": "view",
      "type": "function"
    },
    {
      "constant": true,
      "inputs": [],
      "name": "foodDeliveriesCount",
      "outputs": [
        {
          "internalType": "uint256",
          "name": "",
          "type": "uint256"
        }
      ],
      "payable": false,
      "stateMutability": "view",
      "type": "function"
    },
    {
      "constant": true,
      "inputs": [
        {
          "internalType": "uint256",
          "name": "",
          "type": "uint256"
        }
      ],
      "name": "hawkers",
      "outputs": [
        {
          "internalType": "uint256",
          "name": "id",
          "type": "uint256"
        },
        {
          "internalType": "address",
          "name": "owner",
          "type": "address"
        },
        {
          "internalType": "string",
          "name": "name",
          "type": "string"
        },
        {
          "internalType": "string",
          "name": "addressLocation",
          "type": "string"
        },
        {
          "internalType": "string",
          "name": "emailAddress",
          "type": "string"
        },
        {
          "internalType": "string",
          "name": "phone",
          "type": "string"
        },
        {
          "internalType": "string",
          "name": "openingHours",
          "type": "string"
        },
        {
          "internalType": "uint256",
          "name": "avgRating",
          "type": "uint256"
        },
        {
          "internalType": "string",
          "name": "licenseHash",
          "type": "string"
        },
        {
          "internalType": "bool",
          "name": "open",
          "type": "bool"
        },
        {
          "internalType": "uint256",
          "name": "feedbackCount",
          "type": "uint256"
        },
        {
          "internalType": "uint256",
          "name": "itemCount",
          "type": "uint256"
        }
      ],
      "payable": false,
      "stateMutability": "view",
      "type": "function"
    },
    {
      "constant": true,
      "inputs": [],
      "name": "hawkersCount",
      "outputs": [
        {
          "internalType": "uint256",
          "name": "",
          "type": "uint256"
        }
      ],
      "payable": false,
      "stateMutability": "view",
      "type": "function"
    },
    {
      "constant": true,
      "inputs": [
        {
          "internalType": "uint256",
          "name": "",
          "type": "uint256"
        }
      ],
      "name": "orders",
      "outputs": [
        {
          "internalType": "uint256",
          "name": "id",
          "type": "uint256"
        },
        {
          "internalType": "address",
          "name": "owner",
          "type": "address"
        },
        {
          "internalType": "address",
          "name": "seller",
          "type": "address"
        },
        {
          "internalType": "address",
          "name": "rider",
          "type": "address"
        },
        {
          "internalType": "uint256",
          "name": "hawkerPayment",
          "type": "uint256"
        },
        {
          "internalType": "uint256",
          "name": "riderPayment",
          "type": "uint256"
        },
        {
          "internalType": "uint256",
          "name": "totalPrice",
          "type": "uint256"
        },
        {
          "internalType": "uint256",
          "name": "purchasedItemCount",
          "type": "uint256"
        },
        {
          "internalType": "string",
          "name": "date",
          "type": "string"
        },
        {
          "internalType": "string",
          "name": "time",
          "type": "string"
        },
        {
          "internalType": "enum Marketplace.Status",
          "name": "state",
          "type": "uint8"
        },
        {
          "internalType": "bool",
          "name": "rated",
          "type": "bool"
        }
      ],
      "payable": false,
      "stateMutability": "view",
      "type": "function"
    },
    {
      "constant": true,
      "inputs": [],
      "name": "ordersCount",
      "outputs": [
        {
          "internalType": "uint256",
          "name": "",
          "type": "uint256"
        }
      ],
      "payable": false,
      "stateMutability": "view",
      "type": "function"
    },
    {
      "constant": true,
      "inputs": [],
      "name": "restProdCount",
      "outputs": [
        {
          "internalType": "uint256",
          "name": "",
          "type": "uint256"
        }
      ],
      "payable": false,
      "stateMutability": "view",
      "type": "function"
    },
    {
      "constant": true,
      "inputs": [
        {
          "internalType": "uint256",
          "name": "",
          "type": "uint256"
        }
      ],
      "name": "restProducts",
      "outputs": [
        {
          "internalType": "uint256",
          "name": "id",
          "type": "uint256"
        },
        {
          "internalType": "string",
          "name": "name",
          "type": "string"
        },
        {
          "internalType": "uint256",
          "name": "price",
          "type": "uint256"
        },
        {
          "internalType": "address payable",
          "name": "owner",
          "type": "address"
        },
        {
          "internalType": "bool",
          "name": "published",
          "type": "bool"
        },
        {
          "internalType": "string",
          "name": "imageHash",
          "type": "string"
        },
        {
          "internalType": "uint256",
          "name": "soldCount",
          "type": "uint256"
        }
      ],
      "payable": false,
      "stateMutability": "view",
      "type": "function"
    },
    {
      "constant": true,
      "inputs": [],
      "name": "state",
      "outputs": [
        {
          "internalType": "enum Marketplace.Status",
          "name": "",
          "type": "uint8"
        }
      ],
      "payable": false,
      "stateMutability": "view",
      "type": "function"
    },
    {
      "constant": true,
      "inputs": [],
      "name": "suppProdCount",
      "outputs": [
        {
          "internalType": "uint256",
          "name": "",
          "type": "uint256"
        }
      ],
      "payable": false,
      "stateMutability": "view",
      "type": "function"
    },
    {
      "constant": true,
      "inputs": [
        {
          "internalType": "uint256",
          "name": "",
          "type": "uint256"
        }
      ],
      "name": "suppProducts",
      "outputs": [
        {
          "internalType": "uint256",
          "name": "id",
          "type": "uint256"
        },
        {
          "internalType": "string",
          "name": "name",
          "type": "string"
        },
        {
          "internalType": "uint256",
          "name": "price",
          "type": "uint256"
        },
        {
          "internalType": "uint256",
          "name": "size",
          "type": "uint256"
        },
        {
          "internalType": "uint256",
          "name": "minOrder",
          "type": "uint256"
        },
        {
          "internalType": "address payable",
          "name": "owner",
          "type": "address"
        },
        {
          "internalType": "bool",
          "name": "published",
          "type": "bool"
        },
        {
          "internalType": "string",
          "name": "imageHash",
          "type": "string"
        }
      ],
      "payable": false,
      "stateMutability": "view",
      "type": "function"
    },
    {
      "constant": true,
      "inputs": [
        {
          "internalType": "uint256",
          "name": "",
          "type": "uint256"
        }
      ],
      "name": "suppliers",
      "outputs": [
        {
          "internalType": "uint256",
          "name": "id",
          "type": "uint256"
        },
        {
          "internalType": "address",
          "name": "owner",
          "type": "address"
        },
        {
          "internalType": "string",
          "name": "name",
          "type": "string"
        },
        {
          "internalType": "string",
          "name": "email",
          "type": "string"
        },
        {
          "internalType": "string",
          "name": "addressLocation",
          "type": "string"
        },
        {
          "internalType": "string",
          "name": "phone",
          "type": "string"
        },
        {
          "internalType": "uint256",
          "name": "MOQ",
          "type": "uint256"
        },
        {
          "internalType": "uint256",
          "name": "leadTime",
          "type": "uint256"
        },
        {
          "internalType": "string",
          "name": "deliveryDays",
          "type": "string"
        },
        {
          "internalType": "string",
          "name": "remarks",
          "type": "string"
        },
        {
          "internalType": "uint256",
          "name": "avgRating",
          "type": "uint256"
        },
        {
          "internalType": "uint256",
          "name": "feedbackCount",
          "type": "uint256"
        }
      ],
      "payable": false,
      "stateMutability": "view",
      "type": "function"
    },
    {
      "constant": true,
      "inputs": [],
      "name": "suppliersCount",
      "outputs": [
        {
          "internalType": "uint256",
          "name": "",
          "type": "uint256"
        }
      ],
      "payable": false,
      "stateMutability": "view",
      "type": "function"
    },
    {
      "constant": false,
      "inputs": [
        {
          "internalType": "address",
          "name": "_owner",
          "type": "address"
        },
        {
          "internalType": "string",
          "name": "_name",
          "type": "string"
        },
        {
          "internalType": "string",
          "name": "_email",
          "type": "string"
        },
        {
          "internalType": "string",
          "name": "_phone",
          "type": "string"
        }
      ],
      "name": "addFoodDelivery",
      "outputs": [],
      "payable": false,
      "stateMutability": "nonpayable",
      "type": "function"
    },
    {
      "constant": false,
      "inputs": [
        {
          "internalType": "address",
          "name": "_owner",
          "type": "address"
        },
        {
          "internalType": "string",
          "name": "_name",
          "type": "string"
        },
        {
          "internalType": "string",
          "name": "_email",
          "type": "string"
        },
        {
          "internalType": "string",
          "name": "_addressLocation",
          "type": "string"
        },
        {
          "internalType": "string",
          "name": "_phone",
          "type": "string"
        },
        {
          "internalType": "uint256",
          "name": "_moq",
          "type": "uint256"
        },
        {
          "internalType": "uint256",
          "name": "_leadTime",
          "type": "uint256"
        },
        {
          "internalType": "string",
          "name": "_deliveryDays",
          "type": "string"
        },
        {
          "internalType": "string",
          "name": "_remarks",
          "type": "string"
        }
      ],
      "name": "addSupplier",
      "outputs": [],
      "payable": false,
      "stateMutability": "nonpayable",
      "type": "function"
    },
    {
      "constant": false,
      "inputs": [
        {
          "internalType": "address",
          "name": "_owner",
          "type": "address"
        },
        {
          "internalType": "string",
          "name": "_name",
          "type": "string"
        },
        {
          "internalType": "string",
          "name": "_addressLocation",
          "type": "string"
        },
        {
          "internalType": "string",
          "name": "_emailAddress",
          "type": "string"
        },
        {
          "internalType": "string",
          "name": "_phone",
          "type": "string"
        },
        {
          "internalType": "string",
          "name": "_openingHours",
          "type": "string"
        },
        {
          "internalType": "string",
          "name": "_licenseHash",
          "type": "string"
        }
      ],
      "name": "addHawker",
      "outputs": [],
      "payable": false,
      "stateMutability": "nonpayable",
      "type": "function"
    },
    {
      "constant": false,
      "inputs": [
        {
          "internalType": "uint256",
          "name": "_id",
          "type": "uint256"
        },
        {
          "internalType": "string",
          "name": "_phone",
          "type": "string"
        },
        {
          "internalType": "string",
          "name": "_OH",
          "type": "string"
        }
      ],
      "name": "editHawkerProfile",
      "outputs": [],
      "payable": false,
      "stateMutability": "nonpayable",
      "type": "function"
    },
    {
      "constant": false,
      "inputs": [
        {
          "internalType": "uint256",
          "name": "_id",
          "type": "uint256"
        }
      ],
      "name": "boolOpen",
      "outputs": [],
      "payable": false,
      "stateMutability": "nonpayable",
      "type": "function"
    },
    {
      "constant": false,
      "inputs": [
        {
          "internalType": "uint256",
          "name": "_id",
          "type": "uint256"
        }
      ],
      "name": "boolWork",
      "outputs": [],
      "payable": false,
      "stateMutability": "nonpayable",
      "type": "function"
    },
    {
      "constant": false,
      "inputs": [
        {
          "internalType": "string",
          "name": "_name",
          "type": "string"
        },
        {
          "internalType": "uint256",
          "name": "_price",
          "type": "uint256"
        },
        {
          "internalType": "uint256",
          "name": "_size",
          "type": "uint256"
        },
        {
          "internalType": "uint256",
          "name": "_minOrder",
          "type": "uint256"
        },
        {
          "internalType": "bool",
          "name": "_published",
          "type": "bool"
        },
        {
          "internalType": "string",
          "name": "_imageHash",
          "type": "string"
        }
      ],
      "name": "createSuppProduct",
      "outputs": [],
      "payable": false,
      "stateMutability": "nonpayable",
      "type": "function"
    },
    {
      "constant": false,
      "inputs": [
        {
          "internalType": "string",
          "name": "_name",
          "type": "string"
        },
        {
          "internalType": "uint256",
          "name": "_price",
          "type": "uint256"
        },
        {
          "internalType": "bool",
          "name": "_published",
          "type": "bool"
        },
        {
          "internalType": "string",
          "name": "_imageHash",
          "type": "string"
        }
      ],
      "name": "createRestProduct",
      "outputs": [],
      "payable": false,
      "stateMutability": "nonpayable",
      "type": "function"
    },
    {
      "constant": false,
      "inputs": [
        {
          "internalType": "address",
          "name": "_owner",
          "type": "address"
        },
        {
          "internalType": "string",
          "name": "_name",
          "type": "string"
        },
        {
          "internalType": "string",
          "name": "_addressLocation",
          "type": "string"
        },
        {
          "internalType": "string",
          "name": "_phone",
          "type": "string"
        }
      ],
      "name": "addCustomer",
      "outputs": [],
      "payable": false,
      "stateMutability": "nonpayable",
      "type": "function"
    },
    {
      "constant": false,
      "inputs": [
        {
          "internalType": "uint256",
          "name": "_id",
          "type": "uint256"
        },
        {
          "internalType": "string",
          "name": "_phone",
          "type": "string"
        },
        {
          "internalType": "string",
          "name": "_address",
          "type": "string"
        }
      ],
      "name": "editCustProfile",
      "outputs": [],
      "payable": false,
      "stateMutability": "nonpayable",
      "type": "function"
    },
    {
      "constant": false,
      "inputs": [
        {
          "internalType": "uint256",
          "name": "_id",
          "type": "uint256"
        },
        {
          "internalType": "string",
          "name": "_phone",
          "type": "string"
        },
        {
          "internalType": "uint256",
          "name": "_moq",
          "type": "uint256"
        },
        {
          "internalType": "uint256",
          "name": "_leadTime",
          "type": "uint256"
        },
        {
          "internalType": "string",
          "name": "_deliveryDays",
          "type": "string"
        },
        {
          "internalType": "string",
          "name": "_remarks",
          "type": "string"
        }
      ],
      "name": "editSupplierProfile",
      "outputs": [],
      "payable": false,
      "stateMutability": "nonpayable",
      "type": "function"
    },
    {
      "constant": false,
      "inputs": [
        {
          "internalType": "uint256",
          "name": "_productId",
          "type": "uint256"
        },
        {
          "internalType": "string",
          "name": "_name",
          "type": "string"
        },
        {
          "internalType": "uint256",
          "name": "_price",
          "type": "uint256"
        },
        {
          "internalType": "string",
          "name": "_imageHash",
          "type": "string"
        },
        {
          "internalType": "bool",
          "name": "_published",
          "type": "bool"
        }
      ],
      "name": "editProduct",
      "outputs": [],
      "payable": false,
      "stateMutability": "nonpayable",
      "type": "function"
    },
    {
      "constant": false,
      "inputs": [
        {
          "internalType": "uint256",
          "name": "_productId",
          "type": "uint256"
        },
        {
          "internalType": "string",
          "name": "_name",
          "type": "string"
        },
        {
          "internalType": "uint256",
          "name": "_price",
          "type": "uint256"
        },
        {
          "internalType": "uint256",
          "name": "_size",
          "type": "uint256"
        },
        {
          "internalType": "uint256",
          "name": "_minOrder",
          "type": "uint256"
        },
        {
          "internalType": "string",
          "name": "_imageHash",
          "type": "string"
        },
        {
          "internalType": "bool",
          "name": "_published",
          "type": "bool"
        }
      ],
      "name": "editSuppProduct",
      "outputs": [],
      "payable": false,
      "stateMutability": "nonpayable",
      "type": "function"
    },
    {
      "constant": false,
      "inputs": [
        {
          "internalType": "uint256",
          "name": "_custId",
          "type": "uint256"
        },
        {
          "internalType": "uint256",
          "name": "_prodId",
          "type": "uint256"
        },
        {
          "internalType": "uint256",
          "name": "_prodQty",
          "type": "uint256"
        }
      ],
      "name": "addToCart",
      "outputs": [],
      "payable": false,
      "stateMutability": "nonpayable",
      "type": "function"
    },
    {
      "constant": false,
      "inputs": [
        {
          "internalType": "uint256",
          "name": "_hawkerId",
          "type": "uint256"
        },
        {
          "internalType": "uint256",
          "name": "_prodId",
          "type": "uint256"
        },
        {
          "internalType": "uint256",
          "name": "_prodQty",
          "type": "uint256"
        }
      ],
      "name": "addToCartHawker",
      "outputs": [],
      "payable": false,
      "stateMutability": "nonpayable",
      "type": "function"
    },
    {
      "constant": false,
      "inputs": [
        {
          "internalType": "uint256",
          "name": "custId",
          "type": "uint256"
        },
        {
          "internalType": "uint256",
          "name": "cartId",
          "type": "uint256"
        }
      ],
      "name": "removeProdCart",
      "outputs": [],
      "payable": false,
      "stateMutability": "nonpayable",
      "type": "function"
    },
    {
      "constant": false,
      "inputs": [
        {
          "internalType": "uint256",
          "name": "_id",
          "type": "uint256"
        },
        {
          "internalType": "uint256",
          "name": "_indicator",
          "type": "uint256"
        }
      ],
      "name": "removeAllProdCart",
      "outputs": [],
      "payable": false,
      "stateMutability": "nonpayable",
      "type": "function"
    },
    {
      "constant": false,
      "inputs": [
        {
          "internalType": "uint256",
          "name": "id",
          "type": "uint256"
        },
        {
          "internalType": "uint256",
          "name": "cartId",
          "type": "uint256"
        },
        {
          "internalType": "uint256",
          "name": "indicator",
          "type": "uint256"
        }
      ],
      "name": "getCartProduct",
      "outputs": [
        {
          "internalType": "uint256",
          "name": "",
          "type": "uint256"
        },
        {
          "internalType": "uint256",
          "name": "",
          "type": "uint256"
        }
      ],
      "payable": false,
      "stateMutability": "nonpayable",
      "type": "function"
    },
    {
      "constant": false,
      "inputs": [
        {
          "internalType": "uint256",
          "name": "orderId",
          "type": "uint256"
        },
        {
          "internalType": "uint256",
          "name": "cartId",
          "type": "uint256"
        }
      ],
      "name": "getOrderProduct",
      "outputs": [
        {
          "components": [
            {
              "internalType": "uint256",
              "name": "id",
              "type": "uint256"
            },
            {
              "internalType": "uint256",
              "name": "productId",
              "type": "uint256"
            },
            {
              "internalType": "uint256",
              "name": "productQty",
              "type": "uint256"
            }
          ],
          "internalType": "struct Marketplace.CartItem",
          "name": "",
          "type": "tuple"
        }
      ],
      "payable": false,
      "stateMutability": "nonpayable",
      "type": "function"
    },
    {
      "constant": false,
      "inputs": [
        {
          "internalType": "uint256",
          "name": "hawkerId",
          "type": "uint256"
        },
        {
          "internalType": "uint256",
          "name": "feedbackCount",
          "type": "uint256"
        }
      ],
      "name": "getHawkerFeedback",
      "outputs": [
        {
          "components": [
            {
              "internalType": "uint256",
              "name": "id",
              "type": "uint256"
            },
            {
              "internalType": "address",
              "name": "seller",
              "type": "address"
            },
            {
              "internalType": "address",
              "name": "customer",
              "type": "address"
            },
            {
              "internalType": "uint256",
              "name": "rate",
              "type": "uint256"
            },
            {
              "internalType": "string",
              "name": "comment",
              "type": "string"
            }
          ],
          "internalType": "struct Marketplace.Feedback",
          "name": "",
          "type": "tuple"
        }
      ],
      "payable": false,
      "stateMutability": "nonpayable",
      "type": "function"
    },
    {
      "constant": false,
      "inputs": [
        {
          "internalType": "uint256",
          "name": "_orderId",
          "type": "uint256"
        },
        {
          "internalType": "uint256",
          "name": "_hawkerId",
          "type": "uint256"
        },
        {
          "internalType": "uint256",
          "name": "_hawkerRate",
          "type": "uint256"
        },
        {
          "internalType": "string",
          "name": "_hawkerComment",
          "type": "string"
        },
        {
          "internalType": "uint256",
          "name": "_foodDeliveryId",
          "type": "uint256"
        },
        {
          "internalType": "uint256",
          "name": "_fdRate",
          "type": "uint256"
        },
        {
          "internalType": "string",
          "name": "_fdComment",
          "type": "string"
        }
      ],
      "name": "setRating",
      "outputs": [],
      "payable": false,
      "stateMutability": "nonpayable",
      "type": "function"
    },
    {
      "constant": false,
      "inputs": [
        {
          "internalType": "uint256",
          "name": "_orderId",
          "type": "uint256"
        },
        {
          "internalType": "address payable",
          "name": "_customer",
          "type": "address"
        }
      ],
      "name": "cancelOrder",
      "outputs": [],
      "payable": true,
      "stateMutability": "payable",
      "type": "function"
    },
    {
      "constant": false,
      "inputs": [
        {
          "internalType": "uint256",
          "name": "_indicator",
          "type": "uint256"
        },
        {
          "internalType": "uint256",
          "name": "_id",
          "type": "uint256"
        },
        {
          "internalType": "address payable",
          "name": "_seller",
          "type": "address"
        },
        {
          "internalType": "uint256",
          "name": "_hawkerPayment",
          "type": "uint256"
        },
        {
          "internalType": "uint256",
          "name": "_riderPayment",
          "type": "uint256"
        },
        {
          "internalType": "uint256",
          "name": "_totalCost",
          "type": "uint256"
        },
        {
          "internalType": "string",
          "name": "_date",
          "type": "string"
        },
        {
          "internalType": "string",
          "name": "_time",
          "type": "string"
        }
      ],
      "name": "purchaseProduct",
      "outputs": [],
      "payable": true,
      "stateMutability": "payable",
      "type": "function"
    },
    {
      "constant": false,
      "inputs": [
        {
          "internalType": "uint256",
          "name": "_orderId",
          "type": "uint256"
        }
      ],
      "name": "hawkerConfirmOrder",
      "outputs": [],
      "payable": false,
      "stateMutability": "nonpayable",
      "type": "function"
    },
    {
      "constant": false,
      "inputs": [
        {
          "internalType": "uint256",
          "name": "_orderId",
          "type": "uint256"
        }
      ],
      "name": "fdAcceptOrder",
      "outputs": [],
      "payable": false,
      "stateMutability": "nonpayable",
      "type": "function"
    },
    {
      "constant": false,
      "inputs": [
        {
          "internalType": "uint256",
          "name": "_orderId",
          "type": "uint256"
        }
      ],
      "name": "fdCollectedOrder",
      "outputs": [],
      "payable": false,
      "stateMutability": "nonpayable",
      "type": "function"
    },
    {
      "constant": false,
      "inputs": [
        {
          "internalType": "uint256",
          "name": "_orderId",
          "type": "uint256"
        },
        {
          "internalType": "uint256",
          "name": "_fdId",
          "type": "uint256"
        }
      ],
      "name": "fdCompleteOrder",
      "outputs": [],
      "payable": true,
      "stateMutability": "payable",
      "type": "function"
    }
  ],
  "bytecode": "0x60806040526000600655600060085534801561001a57600080fd5b50615a1a806200002b6000396000f3fe6080604052600436106102515760003560e01c8063995d7d9311610139578063c19d93fb116100b6578063e34960761161007a578063e349607614610912578063e6f65b4c1461093b578063f0bbfb0714610966578063f2e7e1951461098f578063f486fca2146109b8578063f75c2d88146109d457610251565b8063c19d93fb14610809578063cc3cb43214610834578063cea231211461085d578063e16f14e2146108a5578063e24b0562146108e957610251565b8063aa38fdee116100fd578063aa38fdee146106f2578063abed579f1461071b578063b0fd5c461461075e578063bb474eab14610789578063c0abda2a146107c757610251565b8063995d7d93146106045780639a81fecc1461062d5780639d0d6f8b14610656578063a85c38ef1461067f578063a9937b22146106c757610251565b80634244c3d4116101d25780637188bf5c116101965780637188bf5c146105195780637323a7d314610542578063757a27031461055e5780637d9bbc73146105895780637e577ef6146105b25780638968bffd146105db57610251565b80634244c3d4146104365780634368d1791461045f57806360b22e3c1461049c57806362fb1422146104c557806364a6b494146104ee57610251565b8063278e381c11610219578063278e381c14610341578063303414371461037e578063352e740c1461039a57806335daa731146103c35780633be94d47146103ee57610251565b8063049af3f914610256578063093c05fa1461027f57806309cd3f07146102c45780630c21a8d2146102ed5780631460953c14610318575b600080fd5b34801561026257600080fd5b5061027d60048036036102789190810190614c1d565b6109fd565b005b34801561028b57600080fd5b506102a660048036036102a19190810190614bb8565b610a58565b6040516102bb999897969594939291906153fa565b60405180910390f35b3480156102d057600080fd5b506102eb60048036036102e69190810190614aff565b610c9b565b005b3480156102f957600080fd5b50610302610e05565b60405161030f9190615317565b60405180910390f35b34801561032457600080fd5b5061033f600480360361033a919081019061473d565b610e0b565b005b34801561034d57600080fd5b5061036860048036036103639190810190614ee2565b610f6b565b60405161037591906152da565b60405180910390f35b61039860048036036103939190810190614f1e565b610ffb565b005b3480156103a657600080fd5b506103c160048036036103bc9190810190614916565b611dd8565b005b3480156103cf57600080fd5b506103d8611fdc565b6040516103e59190615317565b60405180910390f35b3480156103fa57600080fd5b5061041560048036036104109190810190614bb8565b611fe2565b60405161042d9c9b9a9998979695949392919061549c565b60405180910390f35b34801561044257600080fd5b5061045d60048036036104589190810190614ee2565b6123ff565b005b34801561046b57600080fd5b5061048660048036036104819190810190614ee2565b612460565b60405161049391906152f5565b60405180910390f35b3480156104a857600080fd5b506104c360048036036104be919081019061473d565b612616565b005b3480156104d157600080fd5b506104ec60048036036104e79190810190614e14565b6127c2565b005b3480156104fa57600080fd5b506105036128a0565b6040516105109190615317565b60405180910390f35b34801561052557600080fd5b50610540600480360361053b9190810190614bb8565b6128a6565b005b61055c60048036036105579190810190614be1565b6128f9565b005b34801561056a57600080fd5b50610573612992565b6040516105809190615317565b60405180910390f35b34801561059557600080fd5b506105b060048036036105ab9190810190614c1d565b612998565b005b3480156105be57600080fd5b506105d960048036036105d49190810190614ee2565b6129f3565b005b3480156105e757600080fd5b5061060260048036036105fd9190810190614c9c565b612af6565b005b34801561061057600080fd5b5061062b60048036036106269190810190614bb8565b612b9c565b005b34801561063957600080fd5b50610654600480360361064f9190810190615000565b612c2c565b005b34801561066257600080fd5b5061067d60048036036106789190810190614bb8565b612ce6565b005b34801561068b57600080fd5b506106a660048036036106a19190810190614bb8565b612d7e565b6040516106be9c9b9a99989796959493929190615332565b60405180910390f35b3480156106d357600080fd5b506106dc612f88565b6040516106e99190615317565b60405180910390f35b3480156106fe57600080fd5b50610719600480360361071491908101906147e8565b612f8e565b005b34801561072757600080fd5b50610742600480360361073d9190810190614bb8565b6131aa565b60405161075597969594939291906156da565b60405180910390f35b34801561076a57600080fd5b50610773613349565b6040516107809190615317565b60405180910390f35b34801561079557600080fd5b506107b060048036036107ab9190810190615000565b61334f565b6040516107be9291906157e3565b60405180910390f35b3480156107d357600080fd5b506107ee60048036036107e99190810190614bb8565b613405565b60405161080096959493929190615664565b60405180910390f35b34801561081557600080fd5b5061081e613629565b60405161082b91906152bf565b60405180910390f35b34801561084057600080fd5b5061085b60048036036108569190810190614a6c565b61363c565b005b34801561086957600080fd5b50610884600480360361087f9190810190614bb8565b613794565b60405161089c9c9b9a99989796959493929190615580565b60405180910390f35b3480156108b157600080fd5b506108cc60048036036108c79190810190614bb8565b613ba4565b6040516108e0989796959493929190615757565b60405180910390f35b3480156108f557600080fd5b50610910600480360361090b919081019061504f565b613d49565b005b34801561091e57600080fd5b5061093960048036036109349190810190614bb8565b614162565b005b34801561094757600080fd5b506109506141b7565b60405161095d9190615317565b60405180910390f35b34801561097257600080fd5b5061098d60048036036109889190810190614bb8565b6141bd565b005b34801561099b57600080fd5b506109b660048036036109b19190810190614d43565b6141f8565b005b6109d260048036036109cd9190810190614ee2565b6142b7565b005b3480156109e057600080fd5b506109fb60048036036109f69190810190615000565b614375565b005b81600460008581526020019081526020016000206005019080519060200190610a2792919061442f565b5080600460008581526020019081526020016000206006019080519060200190610a5292919061442f565b50505050565b60006020528060005260406000206000915090508060000154908060010160009054906101000a900473ffffffffffffffffffffffffffffffffffffffff1690806002018054600181600116156101000203166002900480601f016020809104026020016040519081016040528092919081815260200182805460018160011615610100020316600290048015610b305780601f10610b0557610100808354040283529160200191610b30565b820191906000526020600020905b815481529060010190602001808311610b1357829003601f168201915b505050505090806003018054600181600116156101000203166002900480601f016020809104026020016040519081016040528092919081815260200182805460018160011615610100020316600290048015610bce5780601f10610ba357610100808354040283529160200191610bce565b820191906000526020600020905b815481529060010190602001808311610bb157829003601f168201915b505050505090806004018054600181600116156101000203166002900480601f016020809104026020016040519081016040528092919081815260200182805460018160011615610100020316600290048015610c6c5780601f10610c4157610100808354040283529160200191610c6c565b820191906000526020600020905b815481529060010190602001808311610c4f57829003601f168201915b5050505050908060050154908060060160009054906101000a900460ff16908060070154908060090154905089565b6000865111610ca957600080fd5b60008511610cb657600080fd5b60066000815480929190600101919050555060405180610100016040528060065481526020018781526020018681526020018581526020018481526020013373ffffffffffffffffffffffffffffffffffffffff168152602001831515815260200182815250600760006006548152602001908152602001600020600082015181600001556020820151816001019080519060200190610d579291906144af565b5060408201518160020155606082015181600301556080820151816004015560a08201518160050160006101000a81548173ffffffffffffffffffffffffffffffffffffffff021916908373ffffffffffffffffffffffffffffffffffffffff16021790555060c08201518160050160146101000a81548160ff02191690831515021790555060e0820151816006019080519060200190610df99291906144af565b50905050505050505050565b600e5481565b8373ffffffffffffffffffffffffffffffffffffffff163373ffffffffffffffffffffffffffffffffffffffff1614610e4357600080fd5b600e600081548092919060010191905055506040518060c00160405280600e5481526020013373ffffffffffffffffffffffffffffffffffffffff1681526020018481526020018381526020018281526020016000815250600d6000600e5481526020019081526020016000206000820151816000015560208201518160010160006101000a81548173ffffffffffffffffffffffffffffffffffffffff021916908373ffffffffffffffffffffffffffffffffffffffff1602179055506040820151816002019080519060200190610f1d9291906144af565b506060820151816003019080519060200190610f3a9291906144af565b506080820151816004019080519060200190610f579291906144af565b5060a0820151816006015590505050505050565b610f7361452f565b6000600b600085815260200190815260200160002090506000816007016000858152602001908152602001600020600101549050610faf61452f565b8260070160008681526020019081526020016000206040518060600160405290816000820154815260200160018201548152602001600282015481525050905080935050505092915050565b60018814156115f25761100c614550565b600d60008981526020019081526020016000206040518060c0016040529081600082015481526020016001820160009054906101000a900473ffffffffffffffffffffffffffffffffffffffff1673ffffffffffffffffffffffffffffffffffffffff1673ffffffffffffffffffffffffffffffffffffffff168152602001600282018054600181600116156101000203166002900480601f0160208091040260200160405190810160405280929190818152602001828054600181600116156101000203166002900480156111235780601f106110f857610100808354040283529160200191611123565b820191906000526020600020905b81548152906001019060200180831161110657829003601f168201915b50505050508152602001600382018054600181600116156101000203166002900480601f0160208091040260200160405190810160405280929190818152602001828054600181600116156101000203166002900480156111c55780601f1061119a576101008083540402835291602001916111c5565b820191906000526020600020905b8154815290600101906020018083116111a857829003601f168201915b50505050508152602001600482018054600181600116156101000203166002900480601f0160208091040260200160405190810160405280929190818152602001828054600181600116156101000203166002900480156112675780601f1061123c57610100808354040283529160200191611267565b820191906000526020600020905b81548152906001019060200180831161124a57829003601f168201915b505050505081526020016006820154815250509050600c600081548092919060010191905055506000600a60006101000a81548160ff021916908360058111156112ad57fe5b0217905550604051806101800160405280600c548152602001826020015173ffffffffffffffffffffffffffffffffffffffff1681526020018873ffffffffffffffffffffffffffffffffffffffff168152602001600073ffffffffffffffffffffffffffffffffffffffff1681526020018781526020018681526020018581526020018260a001518152602001848152602001838152602001600a60009054906101000a900460ff16600581111561136257fe5b815260200160001515815250600b6000600c5481526020019081526020016000206000820151816000015560208201518160010160006101000a81548173ffffffffffffffffffffffffffffffffffffffff021916908373ffffffffffffffffffffffffffffffffffffffff16021790555060408201518160020160006101000a81548173ffffffffffffffffffffffffffffffffffffffff021916908373ffffffffffffffffffffffffffffffffffffffff16021790555060608201518160030160006101000a81548173ffffffffffffffffffffffffffffffffffffffff021916908373ffffffffffffffffffffffffffffffffffffffff1602179055506080820151816004015560a0820151816005015560c0820151816006015560e082015181600801556101008201518160090190805190602001906114a79291906144af565b5061012082015181600a0190805190602001906114c59291906144af565b5061014082015181600b0160006101000a81548160ff021916908360058111156114eb57fe5b021790555061016082015181600b0160016101000a81548160ff0219169083151502179055509050506000600190505b8160a0015181116115d3576000806115358b84600161334f565b91509150604051806060016040528084815260200183815260200182815250600b6000600c548152602001908152602001600020600701600085815260200190815260200160002060008201518160000155602082015181600101556040820151816002015590505060096000838152602001908152602001600020600501600081548092919060010191905055505050808060010191505061151b565b50833410156115e157600080fd5b6115ec8860016129f3565b50611dce565b6115fa61459c565b6004600089815260200190815260200160002060405180610180016040529081600082015481526020016001820160009054906101000a900473ffffffffffffffffffffffffffffffffffffffff1673ffffffffffffffffffffffffffffffffffffffff1673ffffffffffffffffffffffffffffffffffffffff168152602001600282018054600181600116156101000203166002900480601f0160208091040260200160405190810160405280929190818152602001828054600181600116156101000203166002900480156117125780601f106116e757610100808354040283529160200191611712565b820191906000526020600020905b8154815290600101906020018083116116f557829003601f168201915b50505050508152602001600382018054600181600116156101000203166002900480601f0160208091040260200160405190810160405280929190818152602001828054600181600116156101000203166002900480156117b45780601f10611789576101008083540402835291602001916117b4565b820191906000526020600020905b81548152906001019060200180831161179757829003601f168201915b50505050508152602001600482018054600181600116156101000203166002900480601f0160208091040260200160405190810160405280929190818152602001828054600181600116156101000203166002900480156118565780601f1061182b57610100808354040283529160200191611856565b820191906000526020600020905b81548152906001019060200180831161183957829003601f168201915b50505050508152602001600582018054600181600116156101000203166002900480601f0160208091040260200160405190810160405280929190818152602001828054600181600116156101000203166002900480156118f85780601f106118cd576101008083540402835291602001916118f8565b820191906000526020600020905b8154815290600101906020018083116118db57829003601f168201915b50505050508152602001600682018054600181600116156101000203166002900480601f01602080910402602001604051908101604052809291908181526020018280546001816001161561010002031660029004801561199a5780601f1061196f5761010080835404028352916020019161199a565b820191906000526020600020905b81548152906001019060200180831161197d57829003601f168201915b5050505050815260200160078201548152602001600882018054600181600116156101000203166002900480601f016020809104026020016040519081016040528092919081815260200182805460018160011615610100020316600290048015611a465780601f10611a1b57610100808354040283529160200191611a46565b820191906000526020600020905b815481529060010190602001808311611a2957829003601f168201915b505050505081526020016009820160009054906101000a900460ff16151515158152602001600b8201548152602001600d820154815250509050600c600081548092919060010191905055506000600a60006101000a81548160ff02191690836005811115611ab157fe5b0217905550604051806101800160405280600c548152602001826020015173ffffffffffffffffffffffffffffffffffffffff1681526020018873ffffffffffffffffffffffffffffffffffffffff168152602001600073ffffffffffffffffffffffffffffffffffffffff1681526020018781526020018681526020018581526020018261016001518152602001848152602001838152602001600a60009054906101000a900460ff166005811115611b6757fe5b815260200160001515815250600b6000600c5481526020019081526020016000206000820151816000015560208201518160010160006101000a81548173ffffffffffffffffffffffffffffffffffffffff021916908373ffffffffffffffffffffffffffffffffffffffff16021790555060408201518160020160006101000a81548173ffffffffffffffffffffffffffffffffffffffff021916908373ffffffffffffffffffffffffffffffffffffffff16021790555060608201518160030160006101000a81548173ffffffffffffffffffffffffffffffffffffffff021916908373ffffffffffffffffffffffffffffffffffffffff1602179055506080820151816004015560a0820151816005015560c0820151816006015560e08201518160080155610100820151816009019080519060200190611cac9291906144af565b5061012082015181600a019080519060200190611cca9291906144af565b5061014082015181600b0160006101000a81548160ff02191690836005811115611cf057fe5b021790555061016082015181600b0160016101000a81548160ff0219169083151502179055509050506000600190505b8161016001518111611db357600080611d3b8b84600261334f565b91509150604051806060016040528084815260200183815260200182815250600b6000600c548152602001908152602001600020600701600085815260200190815260200160002060008201518160000155602082015181600101556040820151816002015590505050508080600101915050611d20565b5083341015611dc157600080fd5b611dcc8860026129f3565b505b5050505050505050565b8873ffffffffffffffffffffffffffffffffffffffff163373ffffffffffffffffffffffffffffffffffffffff1614611e1057600080fd5b60036000815480929190600101919050555060405180610180016040528060035481526020013373ffffffffffffffffffffffffffffffffffffffff1681526020018981526020018881526020018781526020018681526020018581526020018481526020018381526020018281526020016000815260200160008152506002600060035481526020019081526020016000206000820151816000015560208201518160010160006101000a81548173ffffffffffffffffffffffffffffffffffffffff021916908373ffffffffffffffffffffffffffffffffffffffff1602179055506040820151816002019080519060200190611f109291906144af565b506060820151816003019080519060200190611f2d9291906144af565b506080820151816004019080519060200190611f4a9291906144af565b5060a0820151816005019080519060200190611f679291906144af565b5060c0820151816006015560e08201518160070155610100820151816008019080519060200190611f999291906144af565b50610120820151816009019080519060200190611fb79291906144af565b5061014082015181600a015561016082015181600c0155905050505050505050505050565b600c5481565b60046020528060005260406000206000915090508060000154908060010160009054906101000a900473ffffffffffffffffffffffffffffffffffffffff1690806002018054600181600116156101000203166002900480601f0160208091040260200160405190810160405280929190818152602001828054600181600116156101000203166002900480156120ba5780601f1061208f576101008083540402835291602001916120ba565b820191906000526020600020905b81548152906001019060200180831161209d57829003601f168201915b505050505090806003018054600181600116156101000203166002900480601f0160208091040260200160405190810160405280929190818152602001828054600181600116156101000203166002900480156121585780601f1061212d57610100808354040283529160200191612158565b820191906000526020600020905b81548152906001019060200180831161213b57829003601f168201915b505050505090806004018054600181600116156101000203166002900480601f0160208091040260200160405190810160405280929190818152602001828054600181600116156101000203166002900480156121f65780601f106121cb576101008083540402835291602001916121f6565b820191906000526020600020905b8154815290600101906020018083116121d957829003601f168201915b505050505090806005018054600181600116156101000203166002900480601f0160208091040260200160405190810160405280929190818152602001828054600181600116156101000203166002900480156122945780601f1061226957610100808354040283529160200191612294565b820191906000526020600020905b81548152906001019060200180831161227757829003601f168201915b505050505090806006018054600181600116156101000203166002900480601f0160208091040260200160405190810160405280929190818152602001828054600181600116156101000203166002900480156123325780601f1061230757610100808354040283529160200191612332565b820191906000526020600020905b81548152906001019060200180831161231557829003601f168201915b505050505090806007015490806008018054600181600116156101000203166002900480601f0160208091040260200160405190810160405280929190818152602001828054600181600116156101000203166002900480156123d65780601f106123ab576101008083540402835291602001916123d6565b820191906000526020600020905b8154815290600101906020018083116123b957829003601f168201915b5050505050908060090160009054906101000a900460ff169080600b01549080600d015490508c565b6000600d60008481526020019081526020016000209050806006016000815480929190600190039190505550806005016000838152602001908152602001600020600080820160009055600182016000905560028201600090555050505050565b612468614615565b6000600460008581526020019081526020016000209050612487614615565b81600a0160008581526020019081526020016000206040518060a0016040529081600082015481526020016001820160009054906101000a900473ffffffffffffffffffffffffffffffffffffffff1673ffffffffffffffffffffffffffffffffffffffff1673ffffffffffffffffffffffffffffffffffffffff1681526020016002820160009054906101000a900473ffffffffffffffffffffffffffffffffffffffff1673ffffffffffffffffffffffffffffffffffffffff1673ffffffffffffffffffffffffffffffffffffffff16815260200160038201548152602001600482018054600181600116156101000203166002900480601f0160208091040260200160405190810160405280929190818152602001828054600181600116156101000203166002900480156126005780601f106125d557610100808354040283529160200191612600565b820191906000526020600020905b8154815290600101906020018083116125e357829003601f168201915b5050505050815250509050809250505092915050565b8373ffffffffffffffffffffffffffffffffffffffff163373ffffffffffffffffffffffffffffffffffffffff161461264e57600080fd5b60016000815480929190600101919050555060405180610120016040528060015481526020013373ffffffffffffffffffffffffffffffffffffffff1681526020018481526020018381526020018281526020016005815260200160001515815260200160008152602001600081525060008060015481526020019081526020016000206000820151816000015560208201518160010160006101000a81548173ffffffffffffffffffffffffffffffffffffffff021916908373ffffffffffffffffffffffffffffffffffffffff160217905550604082015181600201908051906020019061273f9291906144af565b50606082015181600301908051906020019061275c9291906144af565b5060808201518160040190805190602001906127799291906144af565b5060a0820151816005015560c08201518160060160006101000a81548160ff02191690831515021790555060e08201518160070155610100820151816009015590505050505050565b856007600089815260200190815260200160002060010190805190602001906127ec92919061442f565b508460076000898152602001908152602001600020600201819055508360076000898152602001908152602001600020600301819055508260076000898152602001908152602001600020600401819055508160076000898152602001908152602001600020600601908051906020019061286892919061442f565b50806007600089815260200190815260200160002060050160146101000a81548160ff02191690831515021790555050505050505050565b60035481565b60008082815260200190815260200160002060060160009054906101000a900460ff161560008083815260200190815260200160002060060160006101000a81548160ff02191690831515021790555050565b6005600b6000848152602001908152602001600020600b0160006101000a81548160ff0219169083600581111561292c57fe5b02179055508073ffffffffffffffffffffffffffffffffffffffff166108fc600b6000858152602001908152602001600020600601549081150290604051600060405180830381858888f1935050505015801561298d573d6000803e3d6000fd5b505050565b60085481565b81600d600085815260200190815260200160002060040190805190602001906129c292919061442f565b5080600d600085815260200190815260200160002060030190805190602001906129ed92919061442f565b50505050565b6001811415612a79576000600d600084815260200190815260200160002090506000816006015490506000600190505b818111612a67578260050160008281526020019081526020016000206000808201600090556001820160009055600282016000905550508080600101915050612a23565b50600082600601819055505050612af2565b6000600460008481526020019081526020016000209050600081600d015490506000600190505b818111612ae45782600c0160008281526020019081526020016000206000808201600090556001820160009055600282016000905550508080600101915050612aa0565b50600082600d018190555050505b5050565b83600960008781526020019081526020016000206001019080519060200190612b2092919061442f565b5082600960008781526020019081526020016000206002018190555081600960008781526020019081526020016000206004019080519060200190612b6692919061442f565b50806009600087815260200190815260200160002060030160146101000a81548160ff0219169083151502179055505050505050565b6002600b6000838152602001908152602001600020600b0160006101000a81548160ff02191690836005811115612bcf57fe5b021790555033600b600083815260200190815260200160002060030160006101000a81548173ffffffffffffffffffffffffffffffffffffffff021916908373ffffffffffffffffffffffffffffffffffffffff16021790555050565b600d6000848152602001908152602001600020600601600081548092919060010191905055506040518060600160405280600d600086815260200190815260200160002060060154815260200183815260200182815250600d60008581526020019081526020016000206005016000600d6000878152602001908152602001600020600601548152602001908152602001600020600082015181600001556020820151816001015560408201518160020155905050505050565b6001600b6000838152602001908152602001600020600b0160006101000a81548160ff02191690836005811115612d1957fe5b02179055503373ffffffffffffffffffffffffffffffffffffffff166108fc600b6000848152602001908152602001600020600401549081150290604051600060405180830381858888f19350505050158015612d7a573d6000803e3d6000fd5b5050565b600b6020528060005260406000206000915090508060000154908060010160009054906101000a900473ffffffffffffffffffffffffffffffffffffffff16908060020160009054906101000a900473ffffffffffffffffffffffffffffffffffffffff16908060030160009054906101000a900473ffffffffffffffffffffffffffffffffffffffff1690806004015490806005015490806006015490806008015490806009018054600181600116156101000203166002900480601f016020809104026020016040519081016040528092919081815260200182805460018160011615610100020316600290048015612eba5780601f10612e8f57610100808354040283529160200191612eba565b820191906000526020600020905b815481529060010190602001808311612e9d57829003601f168201915b50505050509080600a018054600181600116156101000203166002900480601f016020809104026020016040519081016040528092919081815260200182805460018160011615610100020316600290048015612f585780601f10612f2d57610100808354040283529160200191612f58565b820191906000526020600020905b815481529060010190602001808311612f3b57829003601f168201915b50505050509080600b0160009054906101000a900460ff169080600b0160019054906101000a900460ff1690508c565b60065481565b8673ffffffffffffffffffffffffffffffffffffffff163373ffffffffffffffffffffffffffffffffffffffff1614612fc657600080fd5b60056000815480929190600101919050555060405180610180016040528060055481526020013373ffffffffffffffffffffffffffffffffffffffff168152602001878152602001868152602001858152602001848152602001838152602001600081526020018281526020016000151581526020016000815260200160008152506004600060055481526020019081526020016000206000820151816000015560208201518160010160006101000a81548173ffffffffffffffffffffffffffffffffffffffff021916908373ffffffffffffffffffffffffffffffffffffffff16021790555060408201518160020190805190602001906130ca9291906144af565b5060608201518160030190805190602001906130e79291906144af565b5060808201518160040190805190602001906131049291906144af565b5060a08201518160050190805190602001906131219291906144af565b5060c082015181600601908051906020019061313e9291906144af565b5060e082015181600701556101008201518160080190805190602001906131669291906144af565b506101208201518160090160006101000a81548160ff02191690831515021790555061014082015181600b015561016082015181600d015590505050505050505050565b6009602052806000526040600020600091509050806000015490806001018054600181600116156101000203166002900480601f01602080910402602001604051908101604052809291908181526020018280546001816001161561010002031660029004801561325c5780601f106132315761010080835404028352916020019161325c565b820191906000526020600020905b81548152906001019060200180831161323f57829003601f168201915b5050505050908060020154908060030160009054906101000a900473ffffffffffffffffffffffffffffffffffffffff16908060030160149054906101000a900460ff1690806004018054600181600116156101000203166002900480601f0160208091040260200160405190810160405280929190818152602001828054600181600116156101000203166002900480156133395780601f1061330e57610100808354040283529160200191613339565b820191906000526020600020905b81548152906001019060200180831161331c57829003601f168201915b5050505050908060050154905087565b60015481565b60008060018314156133ae576000600d60008781526020019081526020016000209050806005016000868152602001908152602001600020600101548160050160008781526020019081526020016000206002015492509250506133fd565b600060046000878152602001908152602001600020905080600c0160008681526020019081526020016000206001015481600c0160008781526020019081526020016000206002015492509250505b935093915050565b600d6020528060005260406000206000915090508060000154908060010160009054906101000a900473ffffffffffffffffffffffffffffffffffffffff1690806002018054600181600116156101000203166002900480601f0160208091040260200160405190810160405280929190818152602001828054600181600116156101000203166002900480156134dd5780601f106134b2576101008083540402835291602001916134dd565b820191906000526020600020905b8154815290600101906020018083116134c057829003601f168201915b505050505090806003018054600181600116156101000203166002900480601f01602080910402602001604051908101604052809291908181526020018280546001816001161561010002031660029004801561357b5780601f106135505761010080835404028352916020019161357b565b820191906000526020600020905b81548152906001019060200180831161355e57829003601f168201915b505050505090806004018054600181600116156101000203166002900480601f0160208091040260200160405190810160405280929190818152602001828054600181600116156101000203166002900480156136195780601f106135ee57610100808354040283529160200191613619565b820191906000526020600020905b8154815290600101906020018083116135fc57829003601f168201915b5050505050908060060154905086565b600a60009054906101000a900460ff1681565b600084511161364a57600080fd5b6000831161365757600080fd5b6008600081548092919060010191905055506040518060e0016040528060085481526020018581526020018481526020013373ffffffffffffffffffffffffffffffffffffffff168152602001831515815260200182815260200160008152506009600060085481526020019081526020016000206000820151816000015560208201518160010190805190602001906136f29291906144af565b506040820151816002015560608201518160030160006101000a81548173ffffffffffffffffffffffffffffffffffffffff021916908373ffffffffffffffffffffffffffffffffffffffff16021790555060808201518160030160146101000a81548160ff02191690831515021790555060a08201518160040190805190602001906137809291906144af565b5060c0820151816005015590505050505050565b60026020528060005260406000206000915090508060000154908060010160009054906101000a900473ffffffffffffffffffffffffffffffffffffffff1690806002018054600181600116156101000203166002900480601f01602080910402602001604051908101604052809291908181526020018280546001816001161561010002031660029004801561386c5780601f106138415761010080835404028352916020019161386c565b820191906000526020600020905b81548152906001019060200180831161384f57829003601f168201915b505050505090806003018054600181600116156101000203166002900480601f01602080910402602001604051908101604052809291908181526020018280546001816001161561010002031660029004801561390a5780601f106138df5761010080835404028352916020019161390a565b820191906000526020600020905b8154815290600101906020018083116138ed57829003601f168201915b505050505090806004018054600181600116156101000203166002900480601f0160208091040260200160405190810160405280929190818152602001828054600181600116156101000203166002900480156139a85780601f1061397d576101008083540402835291602001916139a8565b820191906000526020600020905b81548152906001019060200180831161398b57829003601f168201915b505050505090806005018054600181600116156101000203166002900480601f016020809104026020016040519081016040528092919081815260200182805460018160011615610100020316600290048015613a465780601f10613a1b57610100808354040283529160200191613a46565b820191906000526020600020905b815481529060010190602001808311613a2957829003601f168201915b505050505090806006015490806007015490806008018054600181600116156101000203166002900480601f016020809104026020016040519081016040528092919081815260200182805460018160011615610100020316600290048015613af05780601f10613ac557610100808354040283529160200191613af0565b820191906000526020600020905b815481529060010190602001808311613ad357829003601f168201915b505050505090806009018054600181600116156101000203166002900480601f016020809104026020016040519081016040528092919081815260200182805460018160011615610100020316600290048015613b8e5780601f10613b6357610100808354040283529160200191613b8e565b820191906000526020600020905b815481529060010190602001808311613b7157829003601f168201915b50505050509080600a01549080600c015490508c565b6007602052806000526040600020600091509050806000015490806001018054600181600116156101000203166002900480601f016020809104026020016040519081016040528092919081815260200182805460018160011615610100020316600290048015613c565780601f10613c2b57610100808354040283529160200191613c56565b820191906000526020600020905b815481529060010190602001808311613c3957829003601f168201915b5050505050908060020154908060030154908060040154908060050160009054906101000a900473ffffffffffffffffffffffffffffffffffffffff16908060050160149054906101000a900460ff1690806006018054600181600116156101000203166002900480601f016020809104026020016040519081016040528092919081815260200182805460018160011615610100020316600290048015613d3f5780601f10613d1457610100808354040283529160200191613d3f565b820191906000526020600020905b815481529060010190602001808311613d2257829003601f168201915b5050505050905088565b6001600b6000898152602001908152602001600020600b0160016101000a81548160ff02191690831515021790555060046000878152602001908152602001600020600b01600081548092919060010191905055506040518060a0016040528060046000898152602001908152602001600020600b015481526020016004600089815260200190815260200160002060010160009054906101000a900473ffffffffffffffffffffffffffffffffffffffff1673ffffffffffffffffffffffffffffffffffffffff1681526020013373ffffffffffffffffffffffffffffffffffffffff1681526020018681526020018581525060046000888152602001908152602001600020600a016000600460008a8152602001908152602001600020600b015481526020019081526020016000206000820151816000015560208201518160010160006101000a81548173ffffffffffffffffffffffffffffffffffffffff021916908373ffffffffffffffffffffffffffffffffffffffff16021790555060408201518160020160006101000a81548173ffffffffffffffffffffffffffffffffffffffff021916908373ffffffffffffffffffffffffffffffffffffffff160217905550606082015181600301556080820151816004019080519060200190613f389291906144af565b509050506000600460008881526020019081526020016000206007015486019050600060046000898152602001908152602001600020600b01548281613f7a57fe5b04905080600460008a815260200190815260200160002060070181905550600080868152602001908152602001600020600901600081548092919060010191905055506040518060a0016040528060008088815260200190815260200160002060090154815260200160008088815260200190815260200160002060010160009054906101000a900473ffffffffffffffffffffffffffffffffffffffff1673ffffffffffffffffffffffffffffffffffffffff1681526020013373ffffffffffffffffffffffffffffffffffffffff1681526020018581526020018481525060008087815260200190815260200160002060080160008060008981526020019081526020016000206009015481526020019081526020016000206000820151816000015560208201518160010160006101000a81548173ffffffffffffffffffffffffffffffffffffffff021916908373ffffffffffffffffffffffffffffffffffffffff16021790555060408201518160020160006101000a81548173ffffffffffffffffffffffffffffffffffffffff021916908373ffffffffffffffffffffffffffffffffffffffff1602179055506060820151816003015560808201518160040190805190602001906141539291906144af565b50905050505050505050505050565b6004600082815260200190815260200160002060090160009054906101000a900460ff16156004600083815260200190815260200160002060090160006101000a81548160ff02191690831515021790555050565b60055481565b6003600b6000838152602001908152602001600020600b0160006101000a81548160ff021916908360058111156141f057fe5b021790555050565b8460026000888152602001908152602001600020600501908051906020019061422292919061442f565b508360026000888152602001908152602001600020600601819055508260026000888152602001908152602001600020600701819055508160026000888152602001908152602001600020600801908051906020019061428392919061442f565b50806002600088815260200190815260200160002060090190805190602001906142ae92919061442f565b50505050505050565b6004600b6000848152602001908152602001600020600b0160006101000a81548160ff021916908360058111156142ea57fe5b02179055503373ffffffffffffffffffffffffffffffffffffffff166108fc600b6000858152602001908152602001600020600501549081150290604051600060405180830381858888f1935050505015801561434b573d6000803e3d6000fd5b50600080828152602001908152602001600020600701600081548092919060010191905055505050565b60046000848152602001908152602001600020600d0160008154809291906001019190505550604051806060016040528060046000868152602001908152602001600020600d015481526020018381526020018281525060046000858152602001908152602001600020600c01600060046000878152602001908152602001600020600d01548152602001908152602001600020600082015181600001556020820151816001015560408201518160020155905050505050565b828054600181600116156101000203166002900490600052602060002090601f016020900481019282601f1061447057805160ff191683800117855561449e565b8280016001018555821561449e579182015b8281111561449d578251825591602001919060010190614482565b5b5090506144ab9190614670565b5090565b828054600181600116156101000203166002900490600052602060002090601f016020900481019282601f106144f057805160ff191683800117855561451e565b8280016001018555821561451e579182015b8281111561451d578251825591602001919060010190614502565b5b50905061452b9190614670565b5090565b60405180606001604052806000815260200160008152602001600081525090565b6040518060c0016040528060008152602001600073ffffffffffffffffffffffffffffffffffffffff168152602001606081526020016060815260200160608152602001600081525090565b60405180610180016040528060008152602001600073ffffffffffffffffffffffffffffffffffffffff1681526020016060815260200160608152602001606081526020016060815260200160608152602001600081526020016060815260200160001515815260200160008152602001600081525090565b6040518060a0016040528060008152602001600073ffffffffffffffffffffffffffffffffffffffff168152602001600073ffffffffffffffffffffffffffffffffffffffff16815260200160008152602001606081525090565b61469291905b8082111561468e576000816000905550600101614676565b5090565b90565b6000813590506146a48161597b565b92915050565b6000813590506146b981615992565b92915050565b6000813590506146ce816159a9565b92915050565b600082601f8301126146e557600080fd5b81356146f86146f382615839565b61580c565b9150808252602083016020830185838301111561471457600080fd5b61471f83828461591b565b50505092915050565b600081359050614737816159c0565b92915050565b6000806000806080858703121561475357600080fd5b600061476187828801614695565b945050602085013567ffffffffffffffff81111561477e57600080fd5b61478a878288016146d4565b935050604085013567ffffffffffffffff8111156147a757600080fd5b6147b3878288016146d4565b925050606085013567ffffffffffffffff8111156147d057600080fd5b6147dc878288016146d4565b91505092959194509250565b600080600080600080600060e0888a03121561480357600080fd5b60006148118a828b01614695565b975050602088013567ffffffffffffffff81111561482e57600080fd5b61483a8a828b016146d4565b965050604088013567ffffffffffffffff81111561485757600080fd5b6148638a828b016146d4565b955050606088013567ffffffffffffffff81111561488057600080fd5b61488c8a828b016146d4565b945050608088013567ffffffffffffffff8111156148a957600080fd5b6148b58a828b016146d4565b93505060a088013567ffffffffffffffff8111156148d257600080fd5b6148de8a828b016146d4565b92505060c088013567ffffffffffffffff8111156148fb57600080fd5b6149078a828b016146d4565b91505092959891949750929550565b60008060008060008060008060006101208a8c03121561493557600080fd5b60006149438c828d01614695565b99505060208a013567ffffffffffffffff81111561496057600080fd5b61496c8c828d016146d4565b98505060408a013567ffffffffffffffff81111561498957600080fd5b6149958c828d016146d4565b97505060608a013567ffffffffffffffff8111156149b257600080fd5b6149be8c828d016146d4565b96505060808a013567ffffffffffffffff8111156149db57600080fd5b6149e78c828d016146d4565b95505060a06149f88c828d01614728565b94505060c0614a098c828d01614728565b93505060e08a013567ffffffffffffffff811115614a2657600080fd5b614a328c828d016146d4565b9250506101008a013567ffffffffffffffff811115614a5057600080fd5b614a5c8c828d016146d4565b9150509295985092959850929598565b60008060008060808587031215614a8257600080fd5b600085013567ffffffffffffffff811115614a9c57600080fd5b614aa8878288016146d4565b9450506020614ab987828801614728565b9350506040614aca878288016146bf565b925050606085013567ffffffffffffffff811115614ae757600080fd5b614af3878288016146d4565b91505092959194509250565b60008060008060008060c08789031215614b1857600080fd5b600087013567ffffffffffffffff811115614b3257600080fd5b614b3e89828a016146d4565b9650506020614b4f89828a01614728565b9550506040614b6089828a01614728565b9450506060614b7189828a01614728565b9350506080614b8289828a016146bf565b92505060a087013567ffffffffffffffff811115614b9f57600080fd5b614bab89828a016146d4565b9150509295509295509295565b600060208284031215614bca57600080fd5b6000614bd884828501614728565b91505092915050565b60008060408385031215614bf457600080fd5b6000614c0285828601614728565b9250506020614c13858286016146aa565b9150509250929050565b600080600060608486031215614c3257600080fd5b6000614c4086828701614728565b935050602084013567ffffffffffffffff811115614c5d57600080fd5b614c69868287016146d4565b925050604084013567ffffffffffffffff811115614c8657600080fd5b614c92868287016146d4565b9150509250925092565b600080600080600060a08688031215614cb457600080fd5b6000614cc288828901614728565b955050602086013567ffffffffffffffff811115614cdf57600080fd5b614ceb888289016146d4565b9450506040614cfc88828901614728565b935050606086013567ffffffffffffffff811115614d1957600080fd5b614d25888289016146d4565b9250506080614d36888289016146bf565b9150509295509295909350565b60008060008060008060c08789031215614d5c57600080fd5b6000614d6a89828a01614728565b965050602087013567ffffffffffffffff811115614d8757600080fd5b614d9389828a016146d4565b9550506040614da489828a01614728565b9450506060614db589828a01614728565b935050608087013567ffffffffffffffff811115614dd257600080fd5b614dde89828a016146d4565b92505060a087013567ffffffffffffffff811115614dfb57600080fd5b614e0789828a016146d4565b9150509295509295509295565b600080600080600080600060e0888a031215614e2f57600080fd5b6000614e3d8a828b01614728565b975050602088013567ffffffffffffffff811115614e5a57600080fd5b614e668a828b016146d4565b9650506040614e778a828b01614728565b9550506060614e888a828b01614728565b9450506080614e998a828b01614728565b93505060a088013567ffffffffffffffff811115614eb657600080fd5b614ec28a828b016146d4565b92505060c0614ed38a828b016146bf565b91505092959891949750929550565b60008060408385031215614ef557600080fd5b6000614f0385828601614728565b9250506020614f1485828601614728565b9150509250929050565b600080600080600080600080610100898b031215614f3b57600080fd5b6000614f498b828c01614728565b9850506020614f5a8b828c01614728565b9750506040614f6b8b828c016146aa565b9650506060614f7c8b828c01614728565b9550506080614f8d8b828c01614728565b94505060a0614f9e8b828c01614728565b93505060c089013567ffffffffffffffff811115614fbb57600080fd5b614fc78b828c016146d4565b92505060e089013567ffffffffffffffff811115614fe457600080fd5b614ff08b828c016146d4565b9150509295985092959890939650565b60008060006060848603121561501557600080fd5b600061502386828701614728565b935050602061503486828701614728565b925050604061504586828701614728565b9150509250925092565b600080600080600080600060e0888a03121561506a57600080fd5b60006150788a828b01614728565b97505060206150898a828b01614728565b965050604061509a8a828b01614728565b955050606088013567ffffffffffffffff8111156150b757600080fd5b6150c38a828b016146d4565b94505060806150d48a828b01614728565b93505060a06150e58a828b01614728565b92505060c088013567ffffffffffffffff81111561510257600080fd5b61510e8a828b016146d4565b91505092959891949750929550565b615126816158a4565b82525050565b61513581615892565b82525050565b61514481615892565b82525050565b615153816158b6565b82525050565b61516281615909565b82525050565b615171816158d5565b82525050565b600061518282615865565b61518c8185615870565b935061519c81856020860161592a565b6151a58161595d565b840191505092915050565b60006151bb82615865565b6151c58185615881565b93506151d581856020860161592a565b6151de8161595d565b840191505092915050565b6060820160008201516151ff60008501826152a1565b50602082015161521260208501826152a1565b50604082015161522560408501826152a1565b50505050565b600060a08301600083015161524360008601826152a1565b506020830151615256602086018261512c565b506040830151615269604086018261512c565b50606083015161527c60608601826152a1565b50608083015184820360808601526152948282615177565b9150508091505092915050565b6152aa816158ff565b82525050565b6152b9816158ff565b82525050565b60006020820190506152d46000830184615159565b92915050565b60006060820190506152ef60008301846151e9565b92915050565b6000602082019050818103600083015261530f818461522b565b905092915050565b600060208201905061532c60008301846152b0565b92915050565b600061018082019050615348600083018f6152b0565b615355602083018e61513b565b615362604083018d61513b565b61536f606083018c61513b565b61537c608083018b6152b0565b61538960a083018a6152b0565b61539660c08301896152b0565b6153a360e08301886152b0565b8181036101008301526153b681876151b0565b90508181036101208301526153cb81866151b0565b90506153db610140830185615159565b6153e961016083018461514a565b9d9c50505050505050505050505050565b600061012082019050615410600083018c6152b0565b61541d602083018b61513b565b818103604083015261542f818a6151b0565b9050818103606083015261544381896151b0565b9050818103608083015261545781886151b0565b905061546660a0830187615168565b61547360c083018661514a565b61548060e08301856152b0565b61548e6101008301846152b0565b9a9950505050505050505050565b6000610180820190506154b2600083018f6152b0565b6154bf602083018e61513b565b81810360408301526154d1818d6151b0565b905081810360608301526154e5818c6151b0565b905081810360808301526154f9818b6151b0565b905081810360a083015261550d818a6151b0565b905081810360c083015261552181896151b0565b905061553060e08301886152b0565b81810361010083015261554381876151b0565b905061555361012083018661514a565b6155616101408301856152b0565b61556f6101608301846152b0565b9d9c50505050505050505050505050565b600061018082019050615596600083018f6152b0565b6155a3602083018e61513b565b81810360408301526155b5818d6151b0565b905081810360608301526155c9818c6151b0565b905081810360808301526155dd818b6151b0565b905081810360a08301526155f1818a6151b0565b905061560060c08301896152b0565b61560d60e08301886152b0565b81810361010083015261562081876151b0565b905081810361012083015261563581866151b0565b90506156456101408301856152b0565b6156536101608301846152b0565b9d9c50505050505050505050505050565b600060c08201905061567960008301896152b0565b615686602083018861513b565b818103604083015261569881876151b0565b905081810360608301526156ac81866151b0565b905081810360808301526156c081856151b0565b90506156cf60a08301846152b0565b979650505050505050565b600060e0820190506156ef600083018a6152b0565b818103602083015261570181896151b0565b905061571060408301886152b0565b61571d606083018761511d565b61572a608083018661514a565b81810360a083015261573c81856151b0565b905061574b60c08301846152b0565b98975050505050505050565b60006101008201905061576d600083018b6152b0565b818103602083015261577f818a6151b0565b905061578e60408301896152b0565b61579b60608301886152b0565b6157a860808301876152b0565b6157b560a083018661511d565b6157c260c083018561514a565b81810360e08301526157d481846151b0565b90509998505050505050505050565b60006040820190506157f860008301856152b0565b61580560208301846152b0565b9392505050565b6000604051905081810181811067ffffffffffffffff8211171561582f57600080fd5b8060405250919050565b600067ffffffffffffffff82111561585057600080fd5b601f19601f8301169050602081019050919050565b600081519050919050565b600082825260208201905092915050565b600082825260208201905092915050565b600061589d826158df565b9050919050565b60006158af826158df565b9050919050565b60008115159050919050565b60008190506158d08261596e565b919050565b6000819050919050565b600073ffffffffffffffffffffffffffffffffffffffff82169050919050565b6000819050919050565b6000615914826158c2565b9050919050565b82818337600083830152505050565b60005b8381101561594857808201518184015260208101905061592d565b83811115615957576000848401525b50505050565b6000601f19601f8301169050919050565b6006811061597857fe5b50565b61598481615892565b811461598f57600080fd5b50565b61599b816158a4565b81146159a657600080fd5b50565b6159b2816158b6565b81146159bd57600080fd5b50565b6159c9816158ff565b81146159d457600080fd5b5056fea365627a7a72315820b0010f96698932cff1abc72281fea503779786fc4351b8b341ab88e4e129e6e06c6578706572696d656e74616cf564736f6c63430005100040",
  "source": "// SPDX-License-Identifier: Blockchain\r\n\r\npragma solidity ^0.5.4;\r\n\r\npragma experimental ABIEncoderV2;\r\n\r\ncontract Marketplace {\r\n    //constructor\r\n    // constructor() public {}\r\n\r\n    // event LogRefund(\r\n    //     address indexed receiver,\r\n    //     uint256 amount,\r\n    //     address indexed owner\r\n    // );\r\n\r\n    //FOOD DELIVERY\r\n    struct FoodDelivery {\r\n        uint256 id;\r\n        address owner;\r\n        string name;\r\n        string email;\r\n        string phone;\r\n        int256 rating;\r\n        bool available;\r\n        // mapping(uint256 => Order) ordersAccepted;\r\n        uint256 ordersAcceptedCount;\r\n        mapping(uint256 => Feedback) feedbacks;\r\n        uint256 feedbackCount;\r\n    }\r\n\r\n    // Read/write Food Delivery\r\n    mapping(uint256 => FoodDelivery) public foodDeliveries;\r\n    //Store Food Delivery Count\r\n    uint256 public foodDeliveriesCount;\r\n\r\n    //add new food delivery\r\n    function addFoodDelivery(\r\n        address _owner,\r\n        string memory _name,\r\n        string memory _email,\r\n        string memory _phone\r\n    ) public {\r\n        require(msg.sender == _owner);\r\n        // require(msg.sender == address(_owner));\r\n        foodDeliveriesCount++;\r\n        foodDeliveries[foodDeliveriesCount] = FoodDelivery(\r\n            foodDeliveriesCount,\r\n            msg.sender,\r\n            _name,\r\n            _email,\r\n            _phone,\r\n            5,\r\n            false,\r\n            0,\r\n            0\r\n        );\r\n    }\r\n\r\n    //SUPPLIER\r\n    struct Supplier {\r\n        uint256 id;\r\n        address owner;\r\n        string name;\r\n        string email;\r\n        string addressLocation;\r\n        string phone;\r\n        uint256 MOQ;\r\n        uint256 leadTime;\r\n        string deliveryDays;\r\n        string remarks;\r\n        uint256 avgRating;\r\n        mapping(uint256 => Feedback) feedbacks;\r\n        uint256 feedbackCount;\r\n    }\r\n\r\n    // Read/write Suppliers\r\n    mapping(uint256 => Supplier) public suppliers;\r\n    //Store Suppliers Count\r\n    uint256 public suppliersCount;\r\n\r\n    function addSupplier(\r\n        address _owner,\r\n        string memory _name,\r\n        string memory _email,\r\n        string memory _addressLocation,\r\n        string memory _phone,\r\n        uint256 _moq,\r\n        uint256 _leadTime,\r\n        string memory _deliveryDays,\r\n        string memory _remarks\r\n    ) public {\r\n        require(msg.sender == _owner);\r\n        // require(msg.sender == address(_owner));\r\n        suppliersCount++;\r\n        suppliers[suppliersCount] = Supplier(\r\n            suppliersCount,\r\n            msg.sender,\r\n            _name,\r\n            _email,\r\n            _addressLocation,\r\n            _phone,\r\n            _moq,\r\n            _leadTime,\r\n            _deliveryDays,\r\n            _remarks,\r\n            0,\r\n            0\r\n        );\r\n    }\r\n\r\n    //HAWKER\r\n    struct Hawker {\r\n        uint256 id;\r\n        address owner;\r\n        string name;\r\n        string addressLocation;\r\n        string emailAddress;\r\n        string phone;\r\n        string openingHours;\r\n        uint256 avgRating;\r\n        string licenseHash;\r\n        bool open;\r\n        mapping(uint256 => Feedback) feedbacks;\r\n        uint256 feedbackCount;\r\n        mapping(uint256 => CartItem) cartItems;\r\n        uint256 itemCount;\r\n    }\r\n\r\n    // Read/write Hawkers\r\n    mapping(uint256 => Hawker) public hawkers;\r\n    //Store Hawkers Count\r\n    uint256 public hawkersCount;\r\n\r\n    //FEEDBACK\r\n    struct Feedback {\r\n        uint256 id;\r\n        address seller;\r\n        address customer;\r\n        uint256 rate;\r\n        string comment;\r\n    }\r\n\r\n    function addHawker(\r\n        address _owner,\r\n        string memory _name,\r\n        string memory _addressLocation,\r\n        string memory _emailAddress,\r\n        string memory _phone,\r\n        string memory _openingHours,\r\n        string memory _licenseHash\r\n    ) public {\r\n        require(msg.sender == _owner);\r\n        // require(msg.sender == address(_owner));\r\n        hawkersCount++;\r\n        hawkers[hawkersCount] = Hawker(\r\n            hawkersCount,\r\n            msg.sender,\r\n            _name,\r\n            _addressLocation,\r\n            _emailAddress,\r\n            _phone,\r\n            _openingHours,\r\n            0,\r\n            _licenseHash,\r\n            false,\r\n            0,\r\n            0\r\n        );\r\n    }\r\n\r\n    function editHawkerProfile(\r\n        uint256 _id,\r\n        string memory _phone,\r\n        string memory _OH\r\n    ) public {\r\n        hawkers[_id].phone = _phone;\r\n        hawkers[_id].openingHours = _OH;\r\n    }\r\n\r\n    //change shop status\r\n    function boolOpen(uint256 _id) public {\r\n        hawkers[_id].open = !(hawkers[_id].open);\r\n    }\r\n\r\n    //change food delivery status\r\n    function boolWork(uint256 _id) public {\r\n        foodDeliveries[_id].available = !(foodDeliveries[_id].available);\r\n    }\r\n\r\n    //SUPPLIER\r\n    uint256 public suppProdCount = 0;\r\n    mapping(uint256 => SuppProduct) public suppProducts;\r\n    struct SuppProduct {\r\n        uint256 id;\r\n        string name;\r\n        uint256 price;\r\n        uint256 size;\r\n        uint256 minOrder;\r\n        address payable owner;\r\n        bool published;\r\n        string imageHash;\r\n    }\r\n    struct SuppProfile {\r\n        uint256 id;\r\n        string name;\r\n        string category;\r\n        string location;\r\n        string deliveryHours;\r\n        address payable owner;\r\n        string reviews;\r\n        uint256 rating;\r\n    }\r\n\r\n    //Restaurants products\r\n    uint256 public restProdCount = 0;\r\n    mapping(uint256 => RestProduct) public restProducts;\r\n    struct RestProduct {\r\n        uint256 id;\r\n        string name;\r\n        uint256 price;\r\n        address payable owner;\r\n        bool published;\r\n        string imageHash;\r\n        uint256 soldCount;\r\n    }\r\n\r\n    struct RestProfile {\r\n        uint256 id;\r\n        string name;\r\n        string category;\r\n        string location;\r\n        string deliveryHours;\r\n        address payable owner;\r\n        string reviews;\r\n        uint256 rating;\r\n    }\r\n\r\n    // event RestProdCreated(\r\n    //     uint256 indexed id,\r\n    //     uint256 indexed date,\r\n    //     string name,\r\n    //     uint256 price,\r\n    //     address payable indexed owner,\r\n    //     bool purchased,\r\n    //     string imageHash\r\n    // );\r\n\r\n    // event SupplierProdCreated(\r\n    //     uint256 indexed id,\r\n    //     uint256 indexed date,\r\n    //     string name,\r\n    //     uint256 price,\r\n    //     address payable indexed owner,\r\n    //     bool purchased,\r\n    //     string imageHash\r\n    // );\r\n\r\n    function createSuppProduct(\r\n        string memory _name,\r\n        uint256 _price,\r\n        uint256 _size,\r\n        uint256 _minOrder,\r\n        bool _published,\r\n        string memory _imageHash\r\n    ) public {\r\n        // Require a valid name\r\n        require(bytes(_name).length > 0);\r\n        // Require a valid price\r\n        require(_price > 0);\r\n        // Increment product count\r\n        suppProdCount++;\r\n        // Create the product --- msg.sender is the one who accessed the function\r\n        suppProducts[suppProdCount] = SuppProduct(\r\n            suppProdCount,\r\n            _name,\r\n            _price,\r\n            _size,\r\n            _minOrder,\r\n            msg.sender,\r\n            _published,\r\n            _imageHash\r\n        );\r\n        //trigger an event\r\n        // emit SupplierProdCreated(\r\n        //     suppProdCount,\r\n        //     now,\r\n        //     _name,\r\n        //     _price,\r\n        //     msg.sender,\r\n        //     _published,\r\n        //     _imageHash\r\n        // );\r\n    }\r\n\r\n    function createRestProduct(\r\n        string memory _name,\r\n        uint256 _price,\r\n        bool _published,\r\n        string memory _imageHash\r\n    ) public {\r\n        // Require a valid name\r\n        require(bytes(_name).length > 0);\r\n        // Require a valid price\r\n        require(_price > 0);\r\n        // Increment product count\r\n        restProdCount++;\r\n        // Create the product --- msg.sender is the one who accessed the function\r\n        restProducts[restProdCount] = RestProduct(\r\n            restProdCount,\r\n            _name,\r\n            _price,\r\n            msg.sender,\r\n            _published,\r\n            _imageHash,\r\n            0\r\n        );\r\n        // Trigger an event\r\n        // emit RestProdCreated(\r\n        //     restProdCount,\r\n        //     now,\r\n        //     _name,\r\n        //     _price,\r\n        //     msg.sender,\r\n        //     _published,\r\n        //     _imageHash\r\n        // );\r\n    }\r\n\r\n    //ORDERS\r\n    enum Status {\r\n        OrderPlaced,\r\n        OrderConfirm,\r\n        RiderConfirm,\r\n        OrderCollected,\r\n        OrderCompleted,\r\n        OrderCancelled\r\n    }\r\n    Status public state;\r\n\r\n    struct Order {\r\n        uint256 id;\r\n        address owner;\r\n        address seller;\r\n        address rider;\r\n        uint256 hawkerPayment;\r\n        uint256 riderPayment;\r\n        uint256 totalPrice;\r\n        mapping(uint256 => CartItem) purchasedItemId;\r\n        uint256 purchasedItemCount;\r\n        string date;\r\n        string time;\r\n        Status state;\r\n        bool rated;\r\n    }\r\n\r\n    mapping(uint256 => Order) public orders;\r\n    uint256 public ordersCount;\r\n\r\n    struct CartItem {\r\n        uint256 id;\r\n        uint256 productId;\r\n        uint256 productQty;\r\n    }\r\n\r\n    //CUSTOMER\r\n    struct Customer {\r\n        uint256 id;\r\n        address owner;\r\n        string name;\r\n        string addressLocation;\r\n        string phone;\r\n        mapping(uint256 => CartItem) cartItems;\r\n        uint256 itemCount;\r\n    }\r\n\r\n    mapping(uint256 => Customer) public customers;\r\n    uint256 public customersCount;\r\n\r\n    function addCustomer(\r\n        address _owner,\r\n        string memory _name,\r\n        string memory _addressLocation,\r\n        string memory _phone\r\n    ) public {\r\n        require(msg.sender == _owner);\r\n        // require(msg.sender == address(_owner));\r\n        customersCount++;\r\n        customers[customersCount] = Customer(\r\n            customersCount,\r\n            msg.sender,\r\n            _name,\r\n            _addressLocation,\r\n            _phone,\r\n            0\r\n        );\r\n    }\r\n\r\n    function editCustProfile(\r\n        uint256 _id,\r\n        string memory _phone,\r\n        string memory _address\r\n    ) public {\r\n        customers[_id].phone = _phone;\r\n        customers[_id].addressLocation = _address;\r\n    }\r\n\r\n    function editSupplierProfile(\r\n        uint256 _id,\r\n        string memory _phone,\r\n        uint256 _moq,\r\n        uint256 _leadTime,\r\n        string memory _deliveryDays,\r\n        string memory _remarks\r\n    ) public {\r\n        suppliers[_id].phone = _phone;\r\n        suppliers[_id].MOQ = _moq;\r\n        suppliers[_id].leadTime = _leadTime;\r\n        suppliers[_id].deliveryDays = _deliveryDays;\r\n        suppliers[_id].remarks = _remarks;\r\n    }\r\n\r\n    function editProduct(\r\n        uint256 _productId,\r\n        string memory _name,\r\n        uint256 _price,\r\n        string memory _imageHash,\r\n        bool _published\r\n    ) public {\r\n        restProducts[_productId].name = _name;\r\n        restProducts[_productId].price = _price;\r\n        restProducts[_productId].imageHash = _imageHash;\r\n        restProducts[_productId].published = _published;\r\n    }\r\n\r\n    function editSuppProduct(\r\n        uint256 _productId,\r\n        string memory _name,\r\n        uint256 _price,\r\n        uint256 _size,\r\n        uint256 _minOrder,\r\n        string memory _imageHash,\r\n        bool _published\r\n    ) public {\r\n        suppProducts[_productId].name = _name;\r\n        suppProducts[_productId].price = _price;\r\n        suppProducts[_productId].size = _size;\r\n        suppProducts[_productId].minOrder = _minOrder;\r\n        suppProducts[_productId].imageHash = _imageHash;\r\n        suppProducts[_productId].published = _published;\r\n    }\r\n\r\n    function addToCart(\r\n        uint256 _custId,\r\n        uint256 _prodId,\r\n        uint256 _prodQty\r\n    ) public {\r\n        (customers[_custId].itemCount)++;\r\n        customers[_custId].cartItems[customers[_custId].itemCount] = CartItem(\r\n            customers[_custId].itemCount,\r\n            _prodId,\r\n            _prodQty\r\n        );\r\n    }\r\n\r\n    function addToCartHawker(\r\n        uint256 _hawkerId,\r\n        uint256 _prodId,\r\n        uint256 _prodQty\r\n    ) public {\r\n        (hawkers[_hawkerId].itemCount)++;\r\n        hawkers[_hawkerId].cartItems[hawkers[_hawkerId].itemCount] = CartItem(\r\n            hawkers[_hawkerId].itemCount,\r\n            _prodId,\r\n            _prodQty\r\n        );\r\n    }\r\n\r\n    function removeProdCart(uint256 custId, uint256 cartId) public {\r\n        Customer storage cust = customers[custId];\r\n        (cust.itemCount)--;\r\n        delete cust.cartItems[cartId];\r\n    }\r\n\r\n    // function deleteProduct(uint256 productId) public {\r\n    //     restProdCount--;\r\n    //     delete restProducts[productId];\r\n    // }\r\n\r\n    //indicator - 1 for customer, 2 for hawker\r\n    function removeAllProdCart(uint256 _id, uint256 _indicator) public {\r\n        if (_indicator == 1) {\r\n            Customer storage cust = customers[_id];\r\n            uint256 _itemCount = cust.itemCount;\r\n            for (uint256 i = 1; i <= _itemCount; i++) {\r\n                delete cust.cartItems[i];\r\n            }\r\n            (cust.itemCount) = 0;\r\n        } else {\r\n            Hawker storage hawker = hawkers[_id];\r\n            uint256 _itemCount = hawker.itemCount;\r\n            for (uint256 i = 1; i <= _itemCount; i++) {\r\n                delete hawker.cartItems[i];\r\n            }\r\n            (hawker.itemCount) = 0;\r\n        }\r\n    }\r\n\r\n    //if indicator is 1 then cust, 2 then hawker\r\n    function getCartProduct(\r\n        uint256 id,\r\n        uint256 cartId,\r\n        uint256 indicator\r\n    ) public returns (uint256, uint256) {\r\n        if (indicator == 1) {\r\n            Customer storage cust = customers[id];\r\n            return (\r\n                cust.cartItems[cartId].productId,\r\n                cust.cartItems[cartId].productQty\r\n            );\r\n        } else {\r\n            Hawker storage hawker = hawkers[id];\r\n            return (\r\n                hawker.cartItems[cartId].productId,\r\n                hawker.cartItems[cartId].productQty\r\n            );\r\n        }\r\n    }\r\n\r\n    // function getOrderProduct2(uint256 orderId, uint256 cartId)\r\n    //     public\r\n    //     returns (uint256 productId, uint256 prodQty)\r\n    // {\r\n    //     Order storage ord = orders[orderId];\r\n    //     // uint256 prodId = ord.purchasedItemId[cartId].productId;\r\n    //     // RestProduct memory _product = restProducts[prodId];\r\n    //     // CartItem memory _cart = ord.purchasedItemId[cartId];\r\n    //     return (\r\n    //         ord.purchasedItemId[cartId].productId,\r\n    //         ord.purchasedItemId[cartId].productQty\r\n    //     );\r\n    // }\r\n\r\n    // function getOrderProduct(uint256 orderId, uint256 cartId)\r\n    //     public\r\n    //     returns (RestProduct memory, CartItem memory)\r\n    // {\r\n    //     Order storage ord = orders[orderId];\r\n    //     uint256 prodId = ord.purchasedItemId[cartId].productId;\r\n    //     RestProduct memory _product = restProducts[prodId];\r\n    //     CartItem memory _cart = ord.purchasedItemId[cartId];\r\n    //     return (_product, _cart);\r\n    // }\r\n\r\n    function getOrderProduct(uint256 orderId, uint256 cartId)\r\n        public\r\n        returns (CartItem memory)\r\n    {\r\n        Order storage ord = orders[orderId];\r\n        uint256 prodId = ord.purchasedItemId[cartId].productId;\r\n        CartItem memory _cart = ord.purchasedItemId[cartId];\r\n        return (_cart);\r\n    }\r\n\r\n    // function getOrderProductHawker(uint256 orderId, uint256 cartId)\r\n    //     public\r\n    //     returns (SuppProduct memory, CartItem memory)\r\n    // {\r\n    //     // Order storage ord = orders[orderId];\r\n    //     uint256 prodId = orders[orderId].purchasedItemId[cartId].productId;\r\n    //     SuppProduct memory _product = suppProducts[prodId];\r\n    //     CartItem memory _cart = orders[orderId].purchasedItemId[cartId];\r\n    //     return (_product, _cart);\r\n    // }\r\n\r\n    function getHawkerFeedback(uint256 hawkerId, uint256 feedbackCount)\r\n        public\r\n        returns (Feedback memory)\r\n    {\r\n        Hawker storage hawker = hawkers[hawkerId];\r\n        Feedback memory _feedback = hawker.feedbacks[feedbackCount];\r\n        return (_feedback);\r\n    }\r\n\r\n    // function getFdFeedback(uint256 fdId, uint256 feedbackCount)\r\n    //     public\r\n    //     returns (Feedback memory)\r\n    // {\r\n    //     FoodDelivery storage fd = foodDeliveries[fdId];\r\n    //     Feedback memory _feedback = fd.feedbacks[feedbackCount];\r\n    //     return (_feedback);\r\n    // }\r\n\r\n    function setRating(\r\n        uint256 _orderId,\r\n        uint256 _hawkerId,\r\n        uint256 _hawkerRate,\r\n        string memory _hawkerComment,\r\n        uint256 _foodDeliveryId,\r\n        uint256 _fdRate,\r\n        string memory _fdComment\r\n    ) public {\r\n        orders[_orderId].rated = true;\r\n\r\n        //set hawker feedback\r\n        (hawkers[_hawkerId].feedbackCount)++;\r\n        hawkers[_hawkerId].feedbacks[\r\n            hawkers[_hawkerId].feedbackCount\r\n        ] = Feedback(\r\n            hawkers[_hawkerId].feedbackCount,\r\n            hawkers[_hawkerId].owner,\r\n            msg.sender,\r\n            _hawkerRate,\r\n            _hawkerComment\r\n        );\r\n        uint256 total = _hawkerRate + hawkers[_hawkerId].avgRating;\r\n        uint256 avg = total / (hawkers[_hawkerId].feedbackCount);\r\n        hawkers[_hawkerId].avgRating = avg;\r\n\r\n        //set fd feedback\r\n        (foodDeliveries[_foodDeliveryId].feedbackCount)++;\r\n        foodDeliveries[_foodDeliveryId].feedbacks[\r\n            foodDeliveries[_foodDeliveryId].feedbackCount\r\n        ] = Feedback(\r\n            foodDeliveries[_foodDeliveryId].feedbackCount,\r\n            foodDeliveries[_foodDeliveryId].owner,\r\n            msg.sender,\r\n            _fdRate,\r\n            _fdComment\r\n        );\r\n    }\r\n\r\n    function cancelOrder(uint256 _orderId, address payable _customer)\r\n        public\r\n        payable\r\n    {\r\n        orders[_orderId].state = Status.OrderCancelled;\r\n        address(_customer).transfer(orders[_orderId].totalPrice);\r\n    }\r\n\r\n    // event HawkerProdPurchased(\r\n    //     uint256 orderId,\r\n    //     address indexed buyer,\r\n    //     address indexed seller,\r\n    //     uint256 totalCost,\r\n    //     uint256 indexed date\r\n    // );\r\n\r\n    // function purchaseProduct(\r\n    //     uint256 _custId,\r\n    //     address payable _seller,\r\n    //     uint256 _hawkerPayment,\r\n    //     uint256 _riderPayment,\r\n    //     uint256 _totalCost,\r\n    //     string memory _date,\r\n    //     string memory _time\r\n    // ) public payable {\r\n    //     Customer memory cust = customers[_custId];\r\n    //     // Increment order count\r\n    //     ordersCount++;\r\n    //     // Create the enum\r\n    //     state = Status.OrderPlaced;\r\n\r\n    //     // Create the order\r\n    //     orders[ordersCount] = Order(\r\n    //         ordersCount,\r\n    //         cust.owner,\r\n    //         _seller,\r\n    //         address(0),\r\n    //         _hawkerPayment,\r\n    //         _riderPayment,\r\n    //         _totalCost,\r\n    //         cust.itemCount,\r\n    //         _date,\r\n    //         _time,\r\n    //         state,\r\n    //         false\r\n    //     );\r\n\r\n    //     //add the items in cartItems(Customer structure) to purchasedItemId (Order structure)\r\n    //     for (uint256 i = 1; i <= cust.itemCount; i++) {\r\n    //         (uint256 item, uint256 qty) = getCartProduct(_custId, i, 1);\r\n    //         orders[ordersCount].purchasedItemId[i] = CartItem(i, item, qty);\r\n\r\n    //         restProducts[item].soldCount++;\r\n    //     }\r\n\r\n    //     //Require that there is enough Ether in the transaction\r\n    //     require(msg.value >= _totalCost);\r\n\r\n    //     //remove the CartItem in the Customer id\r\n    //     removeAllProdCart(_custId);\r\n\r\n    //     // //Trigger an event\r\n    //     // emit HawkerProdPurchased(\r\n    //     //     ordersCount,\r\n    //     //     cust.owner,\r\n    //     //     _seller,\r\n    //     //     _totalCost,\r\n    //     //     now\r\n    //     // );\r\n    // }\r\n\r\n    //indicator  1 - customer, 2 - hawker\r\n    function purchaseProduct(\r\n        uint256 _indicator,\r\n        uint256 _id,\r\n        address payable _seller,\r\n        uint256 _hawkerPayment,\r\n        uint256 _riderPayment,\r\n        uint256 _totalCost,\r\n        string memory _date,\r\n        string memory _time\r\n    ) public payable {\r\n        if (_indicator == 1) {\r\n            Customer memory cust = customers[_id];\r\n            // Increment order count\r\n            ordersCount++;\r\n            // Create the enum\r\n            state = Status.OrderPlaced;\r\n\r\n            // Create the order\r\n            orders[ordersCount] = Order(\r\n                ordersCount,\r\n                cust.owner,\r\n                _seller,\r\n                address(0),\r\n                _hawkerPayment,\r\n                _riderPayment,\r\n                _totalCost,\r\n                cust.itemCount,\r\n                _date,\r\n                _time,\r\n                state,\r\n                false\r\n            );\r\n\r\n            //add the items in cartItems(Customer structure) to purchasedItemId (Order structure)\r\n            for (uint256 i = 1; i <= cust.itemCount; i++) {\r\n                (uint256 item, uint256 qty) = getCartProduct(_id, i, 1);\r\n                orders[ordersCount].purchasedItemId[i] = CartItem(i, item, qty);\r\n\r\n                restProducts[item].soldCount++;\r\n            }\r\n\r\n            //Require that there is enough Ether in the transaction\r\n            require(msg.value >= _totalCost);\r\n\r\n            //remove the CartItem in the Customer id\r\n            removeAllProdCart(_id, 1);\r\n        } else {\r\n            Hawker memory hawker = hawkers[_id];\r\n            // Increment order count\r\n            ordersCount++;\r\n            // Create the enum\r\n            state = Status.OrderPlaced;\r\n\r\n            // Create the order\r\n            orders[ordersCount] = Order(\r\n                ordersCount,\r\n                hawker.owner,\r\n                _seller,\r\n                address(0),\r\n                _hawkerPayment,\r\n                _riderPayment,\r\n                _totalCost,\r\n                hawker.itemCount,\r\n                _date,\r\n                _time,\r\n                state,\r\n                false\r\n            );\r\n\r\n            //add the items in cartItems(Customer structure) to purchasedItemId (Order structure)\r\n            for (uint256 i = 1; i <= hawker.itemCount; i++) {\r\n                (uint256 item, uint256 qty) = getCartProduct(_id, i, 2);\r\n                orders[ordersCount].purchasedItemId[i] = CartItem(i, item, qty);\r\n\r\n                //restProducts[item].soldCount++;\r\n            }\r\n\r\n            //Require that there is enough Ether in the transaction\r\n            require(msg.value >= _totalCost);\r\n            removeAllProdCart(_id, 2);\r\n        }\r\n    }\r\n\r\n    //hawker confirms order transaction made by customer\r\n    function hawkerConfirmOrder(uint256 _orderId) public {\r\n        orders[_orderId].state = Status.OrderConfirm;\r\n        //Pay the hawker\r\n        address(msg.sender).transfer(orders[_orderId].hawkerPayment);\r\n    }\r\n\r\n    //food delivery accepts order delivery\r\n    function fdAcceptOrder(uint256 _orderId) public {\r\n        //set orderId state to DriverConfirm\r\n        orders[_orderId].state = Status.RiderConfirm;\r\n        orders[_orderId].rider = msg.sender;\r\n    }\r\n\r\n    //food delivery collected order\r\n    function fdCollectedOrder(uint256 _orderId) public {\r\n        //set orderId state to OrderCompleted\r\n        orders[_orderId].state = Status.OrderCollected;\r\n    }\r\n\r\n    //food delivery completes order delivery\r\n    function fdCompleteOrder(uint256 _orderId, uint256 _fdId) public payable {\r\n        //set orderId state to OrderCompleted\r\n        orders[_orderId].state = Status.OrderCompleted;\r\n        //Pay the rider after completion\r\n        address(msg.sender).transfer(orders[_orderId].riderPayment);\r\n        (foodDeliveries[_fdId].ordersAcceptedCount)++;\r\n    }\r\n}\r\n",
  "sourcePath": "C:/Users/Casuarina/Desktop/FYP_FoodIndustry/blockchain/src/contracts/Marketplace.sol",
  "compiler": {
    "name": "solc",
    "version": "0.5.16+commit.9c3226ce.Emscripten.clang"
  },
  "schemaVersion": "3.4.1",
  "updatedAt": "2021-08-02T13:03:52.708Z",
  "networkType": "ethereum",
  "devdoc": {
    "methods": {}
  },
  "userdoc": {
    "methods": {}
  }
}