{
  "contractName": "Marketplace",
  "abi": [
    {
      "inputs": [],
      "payable": false,
      "stateMutability": "nonpayable",
      "type": "constructor"
    },
    {
      "anonymous": false,
      "inputs": [
        {
          "indexed": false,
          "internalType": "address",
          "name": "receiver",
          "type": "address"
        },
        {
          "indexed": false,
          "internalType": "uint256",
          "name": "amount",
          "type": "uint256"
        }
      ],
      "name": "LogRefund",
      "type": "event"
    },
    {
      "anonymous": false,
      "inputs": [
        {
          "indexed": false,
          "internalType": "uint256",
          "name": "id",
          "type": "uint256"
        },
        {
          "indexed": false,
          "internalType": "string",
          "name": "name",
          "type": "string"
        },
        {
          "indexed": false,
          "internalType": "uint256",
          "name": "price",
          "type": "uint256"
        },
        {
          "indexed": false,
          "internalType": "address payable",
          "name": "owner",
          "type": "address"
        },
        {
          "indexed": false,
          "internalType": "bool",
          "name": "purchased",
          "type": "bool"
        },
        {
          "indexed": false,
          "internalType": "string",
          "name": "imageHash",
          "type": "string"
        }
      ],
      "name": "ProductCreated",
      "type": "event"
    },
    {
      "anonymous": false,
      "inputs": [
        {
          "indexed": false,
          "internalType": "uint256",
          "name": "id",
          "type": "uint256"
        },
        {
          "indexed": false,
          "internalType": "string",
          "name": "name",
          "type": "string"
        },
        {
          "indexed": false,
          "internalType": "uint256",
          "name": "price",
          "type": "uint256"
        },
        {
          "indexed": false,
          "internalType": "address payable",
          "name": "owner",
          "type": "address"
        },
        {
          "indexed": false,
          "internalType": "bool",
          "name": "purchased",
          "type": "bool"
        }
      ],
      "name": "ProductPurchased",
      "type": "event"
    },
    {
      "constant": true,
      "inputs": [
        {
          "internalType": "uint256",
          "name": "",
          "type": "uint256"
        }
      ],
      "name": "customers",
      "outputs": [
        {
          "internalType": "uint256",
          "name": "id",
          "type": "uint256"
        },
        {
          "internalType": "address",
          "name": "owner",
          "type": "address"
        },
        {
          "internalType": "string",
          "name": "name",
          "type": "string"
        },
        {
          "internalType": "string",
          "name": "addressLocation",
          "type": "string"
        },
        {
          "internalType": "string",
          "name": "phone",
          "type": "string"
        },
        {
          "internalType": "uint256",
          "name": "itemCount",
          "type": "uint256"
        }
      ],
      "payable": false,
      "stateMutability": "view",
      "type": "function"
    },
    {
      "constant": true,
      "inputs": [],
      "name": "customersCount",
      "outputs": [
        {
          "internalType": "uint256",
          "name": "",
          "type": "uint256"
        }
      ],
      "payable": false,
      "stateMutability": "view",
      "type": "function"
    },
    {
      "constant": true,
      "inputs": [
        {
          "internalType": "uint256",
          "name": "",
          "type": "uint256"
        }
      ],
      "name": "foodDeliveries",
      "outputs": [
        {
          "internalType": "uint256",
          "name": "id",
          "type": "uint256"
        },
        {
          "internalType": "address",
          "name": "owner",
          "type": "address"
        },
        {
          "internalType": "string",
          "name": "name",
          "type": "string"
        },
        {
          "internalType": "string",
          "name": "phone",
          "type": "string"
        },
        {
          "internalType": "int256",
          "name": "rating",
          "type": "int256"
        },
        {
          "internalType": "bool",
          "name": "available",
          "type": "bool"
        },
        {
          "internalType": "uint256",
          "name": "ordersAcceptedCount",
          "type": "uint256"
        },
        {
          "internalType": "uint256",
          "name": "feedbackCount",
          "type": "uint256"
        }
      ],
      "payable": false,
      "stateMutability": "view",
      "type": "function"
    },
    {
      "constant": true,
      "inputs": [],
      "name": "foodDeliveriesCount",
      "outputs": [
        {
          "internalType": "uint256",
          "name": "",
          "type": "uint256"
        }
      ],
      "payable": false,
      "stateMutability": "view",
      "type": "function"
    },
    {
      "constant": true,
      "inputs": [
        {
          "internalType": "uint256",
          "name": "",
          "type": "uint256"
        }
      ],
      "name": "hawkers",
      "outputs": [
        {
          "internalType": "uint256",
          "name": "id",
          "type": "uint256"
        },
        {
          "internalType": "address",
          "name": "owner",
          "type": "address"
        },
        {
          "internalType": "string",
          "name": "name",
          "type": "string"
        },
        {
          "internalType": "string",
          "name": "addressLocation",
          "type": "string"
        },
        {
          "internalType": "string",
          "name": "openingHours",
          "type": "string"
        },
        {
          "internalType": "string",
          "name": "phone",
          "type": "string"
        },
        {
          "internalType": "uint256",
          "name": "avgRating",
          "type": "uint256"
        },
        {
          "internalType": "bool",
          "name": "open",
          "type": "bool"
        },
        {
          "internalType": "uint256",
          "name": "feedbackCount",
          "type": "uint256"
        }
      ],
      "payable": false,
      "stateMutability": "view",
      "type": "function"
    },
    {
      "constant": true,
      "inputs": [],
      "name": "hawkersCount",
      "outputs": [
        {
          "internalType": "uint256",
          "name": "",
          "type": "uint256"
        }
      ],
      "payable": false,
      "stateMutability": "view",
      "type": "function"
    },
    {
      "constant": true,
      "inputs": [
        {
          "internalType": "uint256",
          "name": "",
          "type": "uint256"
        }
      ],
      "name": "orders",
      "outputs": [
        {
          "internalType": "uint256",
          "name": "id",
          "type": "uint256"
        },
        {
          "internalType": "address",
          "name": "owner",
          "type": "address"
        },
        {
          "internalType": "address",
          "name": "seller",
          "type": "address"
        },
        {
          "internalType": "address",
          "name": "driver",
          "type": "address"
        },
        {
          "internalType": "uint256",
          "name": "hawkerPayment",
          "type": "uint256"
        },
        {
          "internalType": "uint256",
          "name": "riderPayment",
          "type": "uint256"
        },
        {
          "internalType": "uint256",
          "name": "totalPrice",
          "type": "uint256"
        },
        {
          "internalType": "uint256",
          "name": "purchasedItemCount",
          "type": "uint256"
        },
        {
          "internalType": "string",
          "name": "date",
          "type": "string"
        },
        {
          "internalType": "string",
          "name": "time",
          "type": "string"
        },
        {
          "internalType": "enum Marketplace.Status",
          "name": "state",
          "type": "uint8"
        },
        {
          "internalType": "bool",
          "name": "rated",
          "type": "bool"
        }
      ],
      "payable": false,
      "stateMutability": "view",
      "type": "function"
    },
    {
      "constant": true,
      "inputs": [],
      "name": "ordersCount",
      "outputs": [
        {
          "internalType": "uint256",
          "name": "",
          "type": "uint256"
        }
      ],
      "payable": false,
      "stateMutability": "view",
      "type": "function"
    },
    {
      "constant": true,
      "inputs": [],
      "name": "restProdCount",
      "outputs": [
        {
          "internalType": "uint256",
          "name": "",
          "type": "uint256"
        }
      ],
      "payable": false,
      "stateMutability": "view",
      "type": "function"
    },
    {
      "constant": true,
      "inputs": [
        {
          "internalType": "uint256",
          "name": "",
          "type": "uint256"
        }
      ],
      "name": "restProducts",
      "outputs": [
        {
          "internalType": "uint256",
          "name": "id",
          "type": "uint256"
        },
        {
          "internalType": "string",
          "name": "name",
          "type": "string"
        },
        {
          "internalType": "uint256",
          "name": "price",
          "type": "uint256"
        },
        {
          "internalType": "address payable",
          "name": "owner",
          "type": "address"
        },
        {
          "internalType": "bool",
          "name": "published",
          "type": "bool"
        },
        {
          "internalType": "string",
          "name": "imageHash",
          "type": "string"
        }
      ],
      "payable": false,
      "stateMutability": "view",
      "type": "function"
    },
    {
      "constant": true,
      "inputs": [],
      "name": "state",
      "outputs": [
        {
          "internalType": "enum Marketplace.Status",
          "name": "",
          "type": "uint8"
        }
      ],
      "payable": false,
      "stateMutability": "view",
      "type": "function"
    },
    {
      "constant": true,
      "inputs": [],
      "name": "suppProdCount",
      "outputs": [
        {
          "internalType": "uint256",
          "name": "",
          "type": "uint256"
        }
      ],
      "payable": false,
      "stateMutability": "view",
      "type": "function"
    },
    {
      "constant": true,
      "inputs": [
        {
          "internalType": "uint256",
          "name": "",
          "type": "uint256"
        }
      ],
      "name": "suppProducts",
      "outputs": [
        {
          "internalType": "uint256",
          "name": "id",
          "type": "uint256"
        },
        {
          "internalType": "string",
          "name": "name",
          "type": "string"
        },
        {
          "internalType": "uint256",
          "name": "price",
          "type": "uint256"
        },
        {
          "internalType": "address payable",
          "name": "owner",
          "type": "address"
        },
        {
          "internalType": "bool",
          "name": "purchased",
          "type": "bool"
        }
      ],
      "payable": false,
      "stateMutability": "view",
      "type": "function"
    },
    {
      "constant": false,
      "inputs": [
        {
          "internalType": "address",
          "name": "_owner",
          "type": "address"
        },
        {
          "internalType": "string",
          "name": "_name",
          "type": "string"
        },
        {
          "internalType": "string",
          "name": "_phone",
          "type": "string"
        },
        {
          "internalType": "bool",
          "name": "_available",
          "type": "bool"
        }
      ],
      "name": "addFoodDelivery",
      "outputs": [],
      "payable": false,
      "stateMutability": "nonpayable",
      "type": "function"
    },
    {
      "constant": false,
      "inputs": [
        {
          "internalType": "address",
          "name": "_owner",
          "type": "address"
        },
        {
          "internalType": "string",
          "name": "_name",
          "type": "string"
        },
        {
          "internalType": "string",
          "name": "_addressLocation",
          "type": "string"
        },
        {
          "internalType": "string",
          "name": "_openingHours",
          "type": "string"
        },
        {
          "internalType": "string",
          "name": "_phone",
          "type": "string"
        },
        {
          "internalType": "bool",
          "name": "_open",
          "type": "bool"
        }
      ],
      "name": "addHawker",
      "outputs": [],
      "payable": false,
      "stateMutability": "nonpayable",
      "type": "function"
    },
    {
      "constant": false,
      "inputs": [
        {
          "internalType": "string",
          "name": "_phone",
          "type": "string"
        },
        {
          "internalType": "string",
          "name": "_OH",
          "type": "string"
        }
      ],
      "name": "editHawkerProfile",
      "outputs": [],
      "payable": false,
      "stateMutability": "nonpayable",
      "type": "function"
    },
    {
      "constant": false,
      "inputs": [],
      "name": "boolOpen",
      "outputs": [],
      "payable": false,
      "stateMutability": "nonpayable",
      "type": "function"
    },
    {
      "constant": false,
      "inputs": [],
      "name": "boolWork",
      "outputs": [],
      "payable": false,
      "stateMutability": "nonpayable",
      "type": "function"
    },
    {
      "constant": false,
      "inputs": [
        {
          "internalType": "string",
          "name": "_name",
          "type": "string"
        },
        {
          "internalType": "uint256",
          "name": "_price",
          "type": "uint256"
        }
      ],
      "name": "createSuppProduct",
      "outputs": [],
      "payable": false,
      "stateMutability": "nonpayable",
      "type": "function"
    },
    {
      "constant": false,
      "inputs": [
        {
          "internalType": "string",
          "name": "_name",
          "type": "string"
        },
        {
          "internalType": "uint256",
          "name": "_price",
          "type": "uint256"
        },
        {
          "internalType": "bool",
          "name": "_published",
          "type": "bool"
        },
        {
          "internalType": "string",
          "name": "_imageHash",
          "type": "string"
        }
      ],
      "name": "createRestProduct",
      "outputs": [],
      "payable": false,
      "stateMutability": "nonpayable",
      "type": "function"
    },
    {
      "constant": false,
      "inputs": [
        {
          "internalType": "address",
          "name": "_owner",
          "type": "address"
        },
        {
          "internalType": "string",
          "name": "_name",
          "type": "string"
        },
        {
          "internalType": "string",
          "name": "_addressLocation",
          "type": "string"
        },
        {
          "internalType": "string",
          "name": "_phone",
          "type": "string"
        }
      ],
      "name": "addCustomer",
      "outputs": [],
      "payable": false,
      "stateMutability": "nonpayable",
      "type": "function"
    },
    {
      "constant": false,
      "inputs": [
        {
          "internalType": "string",
          "name": "_phone",
          "type": "string"
        },
        {
          "internalType": "string",
          "name": "_address",
          "type": "string"
        }
      ],
      "name": "editCustProfile",
      "outputs": [],
      "payable": false,
      "stateMutability": "nonpayable",
      "type": "function"
    },
    {
      "constant": false,
      "inputs": [
        {
          "internalType": "uint256",
          "name": "_productId",
          "type": "uint256"
        },
        {
          "internalType": "string",
          "name": "_name",
          "type": "string"
        },
        {
          "internalType": "uint256",
          "name": "_price",
          "type": "uint256"
        },
        {
          "internalType": "string",
          "name": "_imageHash",
          "type": "string"
        },
        {
          "internalType": "bool",
          "name": "_published",
          "type": "bool"
        }
      ],
      "name": "editProduct",
      "outputs": [],
      "payable": false,
      "stateMutability": "nonpayable",
      "type": "function"
    },
    {
      "constant": false,
      "inputs": [
        {
          "internalType": "uint256",
          "name": "_id",
          "type": "uint256"
        }
      ],
      "name": "addToCart",
      "outputs": [],
      "payable": false,
      "stateMutability": "nonpayable",
      "type": "function"
    },
    {
      "constant": false,
      "inputs": [
        {
          "internalType": "uint256",
          "name": "custId",
          "type": "uint256"
        },
        {
          "internalType": "uint256",
          "name": "cartId",
          "type": "uint256"
        }
      ],
      "name": "removeProdCart",
      "outputs": [],
      "payable": false,
      "stateMutability": "nonpayable",
      "type": "function"
    },
    {
      "constant": false,
      "inputs": [
        {
          "internalType": "uint256",
          "name": "productId",
          "type": "uint256"
        }
      ],
      "name": "deleteProduct",
      "outputs": [],
      "payable": false,
      "stateMutability": "nonpayable",
      "type": "function"
    },
    {
      "constant": false,
      "inputs": [
        {
          "internalType": "uint256",
          "name": "custId",
          "type": "uint256"
        }
      ],
      "name": "removeAllProdCart",
      "outputs": [],
      "payable": false,
      "stateMutability": "nonpayable",
      "type": "function"
    },
    {
      "constant": false,
      "inputs": [
        {
          "internalType": "uint256",
          "name": "custId",
          "type": "uint256"
        },
        {
          "internalType": "uint256",
          "name": "cartId",
          "type": "uint256"
        }
      ],
      "name": "getCartProduct",
      "outputs": [
        {
          "internalType": "uint256",
          "name": "",
          "type": "uint256"
        }
      ],
      "payable": false,
      "stateMutability": "nonpayable",
      "type": "function"
    },
    {
      "constant": false,
      "inputs": [
        {
          "internalType": "uint256",
          "name": "orderId",
          "type": "uint256"
        },
        {
          "internalType": "uint256",
          "name": "cartId",
          "type": "uint256"
        }
      ],
      "name": "getOrderProduct",
      "outputs": [
        {
          "components": [
            {
              "internalType": "uint256",
              "name": "id",
              "type": "uint256"
            },
            {
              "internalType": "string",
              "name": "name",
              "type": "string"
            },
            {
              "internalType": "uint256",
              "name": "price",
              "type": "uint256"
            },
            {
              "internalType": "address payable",
              "name": "owner",
              "type": "address"
            },
            {
              "internalType": "bool",
              "name": "published",
              "type": "bool"
            },
            {
              "internalType": "string",
              "name": "imageHash",
              "type": "string"
            }
          ],
          "internalType": "struct Marketplace.RestProduct",
          "name": "",
          "type": "tuple"
        }
      ],
      "payable": false,
      "stateMutability": "nonpayable",
      "type": "function"
    },
    {
      "constant": false,
      "inputs": [
        {
          "internalType": "uint256",
          "name": "hawkerId",
          "type": "uint256"
        },
        {
          "internalType": "uint256",
          "name": "feedbackCount",
          "type": "uint256"
        }
      ],
      "name": "getHawkerFeedback",
      "outputs": [
        {
          "components": [
            {
              "internalType": "uint256",
              "name": "id",
              "type": "uint256"
            },
            {
              "internalType": "address",
              "name": "seller",
              "type": "address"
            },
            {
              "internalType": "address",
              "name": "customer",
              "type": "address"
            },
            {
              "internalType": "uint256",
              "name": "rate",
              "type": "uint256"
            },
            {
              "internalType": "string",
              "name": "comment",
              "type": "string"
            }
          ],
          "internalType": "struct Marketplace.Feedback",
          "name": "",
          "type": "tuple"
        }
      ],
      "payable": false,
      "stateMutability": "nonpayable",
      "type": "function"
    },
    {
      "constant": false,
      "inputs": [
        {
          "internalType": "uint256",
          "name": "fdId",
          "type": "uint256"
        },
        {
          "internalType": "uint256",
          "name": "feedbackCount",
          "type": "uint256"
        }
      ],
      "name": "getFdFeedback",
      "outputs": [
        {
          "components": [
            {
              "internalType": "uint256",
              "name": "id",
              "type": "uint256"
            },
            {
              "internalType": "address",
              "name": "seller",
              "type": "address"
            },
            {
              "internalType": "address",
              "name": "customer",
              "type": "address"
            },
            {
              "internalType": "uint256",
              "name": "rate",
              "type": "uint256"
            },
            {
              "internalType": "string",
              "name": "comment",
              "type": "string"
            }
          ],
          "internalType": "struct Marketplace.Feedback",
          "name": "",
          "type": "tuple"
        }
      ],
      "payable": false,
      "stateMutability": "nonpayable",
      "type": "function"
    },
    {
      "constant": false,
      "inputs": [
        {
          "internalType": "uint256",
          "name": "_orderId",
          "type": "uint256"
        },
        {
          "internalType": "address",
          "name": "_hawker",
          "type": "address"
        },
        {
          "internalType": "uint256",
          "name": "_hawkerRate",
          "type": "uint256"
        },
        {
          "internalType": "string",
          "name": "_hawkerComment",
          "type": "string"
        },
        {
          "internalType": "address",
          "name": "_foodDelivery",
          "type": "address"
        },
        {
          "internalType": "uint256",
          "name": "_fdRate",
          "type": "uint256"
        },
        {
          "internalType": "string",
          "name": "_fdComment",
          "type": "string"
        }
      ],
      "name": "setRating",
      "outputs": [],
      "payable": false,
      "stateMutability": "nonpayable",
      "type": "function"
    },
    {
      "constant": false,
      "inputs": [
        {
          "internalType": "uint256",
          "name": "_orderId",
          "type": "uint256"
        },
        {
          "internalType": "address payable",
          "name": "_customer",
          "type": "address"
        }
      ],
      "name": "cancelOrder",
      "outputs": [],
      "payable": true,
      "stateMutability": "payable",
      "type": "function"
    },
    {
      "constant": false,
      "inputs": [
        {
          "internalType": "uint256",
          "name": "_custId",
          "type": "uint256"
        },
        {
          "internalType": "address payable",
          "name": "_seller",
          "type": "address"
        },
        {
          "internalType": "uint256",
          "name": "_hawkerPayment",
          "type": "uint256"
        },
        {
          "internalType": "uint256",
          "name": "_riderPayment",
          "type": "uint256"
        },
        {
          "internalType": "uint256",
          "name": "_totalCost",
          "type": "uint256"
        },
        {
          "internalType": "string",
          "name": "_date",
          "type": "string"
        },
        {
          "internalType": "string",
          "name": "_time",
          "type": "string"
        }
      ],
      "name": "purchaseProduct",
      "outputs": [],
      "payable": true,
      "stateMutability": "payable",
      "type": "function"
    },
    {
      "constant": false,
      "inputs": [
        {
          "internalType": "uint256",
          "name": "_orderId",
          "type": "uint256"
        }
      ],
      "name": "hawkerConfirmOrder",
      "outputs": [],
      "payable": false,
      "stateMutability": "nonpayable",
      "type": "function"
    },
    {
      "constant": false,
      "inputs": [
        {
          "internalType": "uint256",
          "name": "_orderId",
          "type": "uint256"
        }
      ],
      "name": "fdAcceptOrder",
      "outputs": [],
      "payable": false,
      "stateMutability": "nonpayable",
      "type": "function"
    },
    {
      "constant": false,
      "inputs": [
        {
          "internalType": "uint256",
          "name": "_orderId",
          "type": "uint256"
        }
      ],
      "name": "fdCompleteOrder",
      "outputs": [],
      "payable": true,
      "stateMutability": "payable",
      "type": "function"
    }
  ],
  "bytecode": "0x6080604052600060045560006006553480156200001b57600080fd5b50620000e37373c005d4b234c63f416f6e1038c011d55eddbf1e6040518060400160405280601681526020017f53656c6572612052617361204e617369204c656d616b000000000000000000008152506040518060600160405280602f815260200162005868602f913960405180606001604052806035815260200162005900603591396040518060400160405280600881526020017f39383433343530390000000000000000000000000000000000000000000000008152506000620003b560201b60201c565b620001aa7387ecee1454a7b32253a9020f6ae1ff25e9ce35b56040518060400160405280602081526020017f5469616e205469616e204861696e616e65736520436869636b656e20526963658152506040518060800160405280604681526020016200589760469139604051806060016040528060238152602001620058dd602391396040518060400160405280600881526020017f39363931343835320000000000000000000000000000000000000000000000008152506000620003b560201b60201c565b6200027173c9342f12d49ca9e40d600ebf17266dccc88a06396040518060400160405280600981526020017f436173756172696e6100000000000000000000000000000000000000000000008152506040518060400160405280602081526020017f3530204e616e79616e67204176652c2053696e6761706f7265203633393739388152506040518060400160405280600881526020017f39383736353433320000000000000000000000000000000000000000000000008152506200054560201b60201c565b6200031c737c2ea58a210f8e7c80fdeb6788c1d5fc4a3e73ba6040518060400160405280600781526020017f5061747269636b0000000000000000000000000000000000000000000000000081525060405180606001604052806025815260200162005935602591396040518060400160405280600881526020017f39313233343536370000000000000000000000000000000000000000000000008152506200054560201b60201c565b620003af7366f8f66996aab36b041b1cada9f20864a0c426986040518060400160405280600781526020017f4c656f2054616e000000000000000000000000000000000000000000000000008152506040518060400160405280600881526020017f393031323334353600000000000000000000000000000000000000000000000081525060006200067360201b60201c565b62000875565b60036000815480929190600101919050555060405180610120016040528060035481526020018773ffffffffffffffffffffffffffffffffffffffff16815260200186815260200185815260200184815260200183815260200160008152602001821515815260200160008152506002600060035481526020019081526020016000206000820151816000015560208201518160010160006101000a81548173ffffffffffffffffffffffffffffffffffffffff021916908373ffffffffffffffffffffffffffffffffffffffff1602179055506040820151816002019080519060200190620004a7929190620007c6565b506060820151816003019080519060200190620004c6929190620007c6565b506080820151816004019080519060200190620004e5929190620007c6565b5060a082015181600501908051906020019062000504929190620007c6565b5060c0820151816006015560e08201518160070160006101000a81548160ff0219169083151502179055506101008201518160090155905050505050505050565b600c600081548092919060010191905055506040518060c00160405280600c5481526020018573ffffffffffffffffffffffffffffffffffffffff1681526020018481526020018381526020018281526020016000815250600b6000600c5481526020019081526020016000206000820151816000015560208201518160010160006101000a81548173ffffffffffffffffffffffffffffffffffffffff021916908373ffffffffffffffffffffffffffffffffffffffff160217905550604082015181600201908051906020019062000621929190620007c6565b50606082015181600301908051906020019062000640929190620007c6565b5060808201518160040190805190602001906200065f929190620007c6565b5060a0820151816006015590505050505050565b60016000815480929190600101919050555060405180610100016040528060015481526020018573ffffffffffffffffffffffffffffffffffffffff16815260200184815260200183815260200160058152602001821515815260200160008152602001600081525060008060015481526020019081526020016000206000820151816000015560208201518160010160006101000a81548173ffffffffffffffffffffffffffffffffffffffff021916908373ffffffffffffffffffffffffffffffffffffffff16021790555060408201518160020190805190602001906200075f929190620007c6565b5060608201518160030190805190602001906200077e929190620007c6565b506080820151816004015560a08201518160050160006101000a81548160ff02191690831515021790555060c0820151816007015560e0820151816009015590505050505050565b828054600181600116156101000203166002900490600052602060002090601f016020900481019282601f106200080957805160ff19168380011785556200083a565b828001600101855582156200083a579182015b82811115620008395782518255916020019190600101906200081c565b5b5090506200084991906200084d565b5090565b6200087291905b808211156200086e57600081600090555060010162000854565b5090565b90565b614fe380620008856000396000f3fe60806040526004361061021a5760003560e01c8063995d7d9311610123578063c19d93fb116100ab578063e16f14e21161006f578063e16f14e2146107ea578063e6f65b4c1461082b578063ed90c7b714610856578063f0eab4301461087f578063f89e7697146108a85761021a565b8063c19d93fb14610714578063c6705e9f1461073f578063cc3cb4321461077c578063db3a0abd146107a5578063dbeb584b146107ce5761021a565b8063abed579f116100f2578063abed579f14610620578063ad0c079414610662578063afc7c2361461067e578063b0fd5c46146106a7578063c0abda2a146106d25761021a565b8063995d7d931461055b5780639d0d6f8b14610584578063a85c38ef146105ad578063a9937b22146105f55761021a565b80634368d179116101a65780637078b09a116101755780637078b09a146104995780637323a7d3146104c2578063757a2703146104de5780638455776b146105095780638968bffd146105325761021a565b80634368d179146103f35780634937f2a714610430578063623eb0d214610447578063702742b0146104705761021a565b806315cfae39116101ed57806315cfae39146102e0578063278e381c1461031d57806335daa7311461035a5780633be94d47146103855780634244c3d4146103ca5761021a565b8063093c05fa1461021f5780630b90cd28146102635780630c21a8d21461028c5780631460953c146102b7575b600080fd5b34801561022b57600080fd5b5061024660048036036102419190810190614451565b6108bf565b60405161025a989796959493929190614ae7565b60405180910390f35b34801561026f57600080fd5b5061028a600480360361028591908101906142fe565b610a64565b005b34801561029857600080fd5b506102a1610b4a565b6040516102ae9190614a04565b60405180910390f35b3480156102c357600080fd5b506102de60048036036102d9919081019061416a565b610b50565b005b3480156102ec57600080fd5b50610307600480360361030291908101906146f9565b610c78565b60405161031491906149c0565b60405180910390f35b34801561032957600080fd5b50610344600480360361033f91908101906146f9565b610e2d565b60405161035191906149e2565b60405180910390f35b34801561036657600080fd5b5061036f611066565b60405161037c9190614a04565b60405180910390f35b34801561039157600080fd5b506103ac60048036036103a79190810190614451565b61106c565b6040516103c199989796959493929190614b73565b60405180910390f35b3480156103d657600080fd5b506103f160048036036103ec91908101906146f9565b611347565b005b3480156103ff57600080fd5b5061041a600480360361041591908101906146f9565b6113a0565b60405161042791906149c0565b60405180910390f35b34801561043c57600080fd5b50610445611556565b005b34801561045357600080fd5b5061046e6004803603610469919081019061436a565b611633565b005b34801561047c57600080fd5b5061049760048036036104929190810190614451565b61179a565b005b3480156104a557600080fd5b506104c060048036036104bb91908101906142fe565b6118ce565b005b6104dc60048036036104d7919081019061447a565b6119b4565b005b3480156104ea57600080fd5b506104f3611b12565b6040516105009190614a04565b60405180910390f35b34801561051557600080fd5b50610530600480360361052b9190810190614584565b611b18565b005b34801561053e57600080fd5b5061055960048036036105549190810190614652565b61201d565b005b34801561056757600080fd5b50610582600480360361057d9190810190614451565b612103565b005b34801561059057600080fd5b506105ab60048036036105a69190810190614451565b61284d565b005b3480156105b957600080fd5b506105d460048036036105cf9190810190614451565b612925565b6040516105ec9c9b9a99989796959493929190614a1f565b60405180910390f35b34801561060157600080fd5b5061060a612b2f565b6040516106179190614a04565b60405180910390f35b34801561062c57600080fd5b5061064760048036036106429190810190614451565b612b35565b60405161065996959493929190614d5b565b60405180910390f35b61067c600480360361067791908101906144b6565b612cce565b005b34801561068a57600080fd5b506106a560048036036106a091908101906140d7565b613282565b005b3480156106b357600080fd5b506106bc6133d1565b6040516106c99190614a04565b60405180910390f35b3480156106de57600080fd5b506106f960048036036106f49190810190614451565b6133d7565b60405161070b96959493929190614c1c565b60405180910390f35b34801561072057600080fd5b506107296135fb565b60405161073691906149a5565b60405180910390f35b34801561074b57600080fd5b50610766600480360361076191908101906146f9565b61360e565b6040516107739190614a04565b60405180910390f35b34801561078857600080fd5b506107a3600480360361079e91908101906143be565b613648565b005b3480156107b157600080fd5b506107cc60048036036107c79190810190614215565b6137d2565b005b6107e860048036036107e39190810190614451565b61395a565b005b3480156107f657600080fd5b50610811600480360361080c9190810190614451565b613a32565b604051610822959493929190614d01565b60405180910390f35b34801561083757600080fd5b50610840613b2d565b60405161084d9190614a04565b60405180910390f35b34801561086257600080fd5b5061087d60048036036108789190810190614451565b613b33565b005b34801561088b57600080fd5b506108a660048036036108a19190810190614451565b613bca565b005b3480156108b457600080fd5b506108bd613c3d565b005b60006020528060005260406000206000915090508060000154908060010160009054906101000a900473ffffffffffffffffffffffffffffffffffffffff1690806002018054600181600116156101000203166002900480601f0160208091040260200160405190810160405280929190818152602001828054600181600116156101000203166002900480156109975780601f1061096c57610100808354040283529160200191610997565b820191906000526020600020905b81548152906001019060200180831161097a57829003601f168201915b505050505090806003018054600181600116156101000203166002900480601f016020809104026020016040519081016040528092919081815260200182805460018160011615610100020316600290048015610a355780601f10610a0a57610100808354040283529160200191610a35565b820191906000526020600020905b815481529060010190602001808311610a1857829003601f168201915b5050505050908060040154908060050160009054906101000a900460ff16908060070154908060090154905088565b6000809050600090505b600c548111610b45573373ffffffffffffffffffffffffffffffffffffffff16600b600083815260200190815260200160002060010160009054906101000a900473ffffffffffffffffffffffffffffffffffffffff1673ffffffffffffffffffffffffffffffffffffffff161415610b385782600b60008381526020019081526020016000206004019080519060200190610b0b929190613d1d565b5081600b60008381526020019081526020016000206003019080519060200190610b36929190613d1d565b505b8080600101915050610a6e565b505050565b600c5481565b600c600081548092919060010191905055506040518060c00160405280600c5481526020018573ffffffffffffffffffffffffffffffffffffffff1681526020018481526020018381526020018281526020016000815250600b6000600c5481526020019081526020016000206000820151816000015560208201518160010160006101000a81548173ffffffffffffffffffffffffffffffffffffffff021916908373ffffffffffffffffffffffffffffffffffffffff1602179055506040820151816002019080519060200190610c2a929190613d9d565b506060820151816003019080519060200190610c47929190613d9d565b506080820151816004019080519060200190610c64929190613d9d565b5060a0820151816006015590505050505050565b610c80613e1d565b60008060008581526020019081526020016000209050610c9e613e1d565b8160080160008581526020019081526020016000206040518060a0016040529081600082015481526020016001820160009054906101000a900473ffffffffffffffffffffffffffffffffffffffff1673ffffffffffffffffffffffffffffffffffffffff1673ffffffffffffffffffffffffffffffffffffffff1681526020016002820160009054906101000a900473ffffffffffffffffffffffffffffffffffffffff1673ffffffffffffffffffffffffffffffffffffffff1673ffffffffffffffffffffffffffffffffffffffff16815260200160038201548152602001600482018054600181600116156101000203166002900480601f016020809104026020016040519081016040528092919081815260200182805460018160011615610100020316600290048015610e175780601f10610dec57610100808354040283529160200191610e17565b820191906000526020600020905b815481529060010190602001808311610dfa57829003601f168201915b5050505050815250509050809250505092915050565b610e35613e78565b60006009600085815260200190815260200160002090506000816007016000858152602001908152602001600020600101549050610e71613e78565b600760008381526020019081526020016000206040518060c001604052908160008201548152602001600182018054600181600116156101000203166002900480601f016020809104026020016040519081016040528092919081815260200182805460018160011615610100020316600290048015610f325780601f10610f0757610100808354040283529160200191610f32565b820191906000526020600020905b815481529060010190602001808311610f1557829003601f168201915b50505050508152602001600282015481526020016003820160009054906101000a900473ffffffffffffffffffffffffffffffffffffffff1673ffffffffffffffffffffffffffffffffffffffff1673ffffffffffffffffffffffffffffffffffffffff1681526020016003820160149054906101000a900460ff16151515158152602001600482018054600181600116156101000203166002900480601f01602080910402602001604051908101604052809291908181526020018280546001816001161561010002031660029004801561104f5780601f106110245761010080835404028352916020019161104f565b820191906000526020600020905b81548152906001019060200180831161103257829003601f168201915b505050505081525050905080935050505092915050565b600a5481565b60026020528060005260406000206000915090508060000154908060010160009054906101000a900473ffffffffffffffffffffffffffffffffffffffff1690806002018054600181600116156101000203166002900480601f0160208091040260200160405190810160405280929190818152602001828054600181600116156101000203166002900480156111445780601f1061111957610100808354040283529160200191611144565b820191906000526020600020905b81548152906001019060200180831161112757829003601f168201915b505050505090806003018054600181600116156101000203166002900480601f0160208091040260200160405190810160405280929190818152602001828054600181600116156101000203166002900480156111e25780601f106111b7576101008083540402835291602001916111e2565b820191906000526020600020905b8154815290600101906020018083116111c557829003601f168201915b505050505090806004018054600181600116156101000203166002900480601f0160208091040260200160405190810160405280929190818152602001828054600181600116156101000203166002900480156112805780601f1061125557610100808354040283529160200191611280565b820191906000526020600020905b81548152906001019060200180831161126357829003601f168201915b505050505090806005018054600181600116156101000203166002900480601f01602080910402602001604051908101604052809291908181526020018280546001816001161561010002031660029004801561131e5780601f106112f35761010080835404028352916020019161131e565b820191906000526020600020905b81548152906001019060200180831161130157829003601f168201915b5050505050908060060154908060070160009054906101000a900460ff16908060090154905089565b6000600b6000848152602001908152602001600020905080600601600081548092919060019003919050555080600501600083815260200190815260200160002060008082016000905560018201600090555050505050565b6113a8613e1d565b60006002600085815260200190815260200160002090506113c7613e1d565b8160080160008581526020019081526020016000206040518060a0016040529081600082015481526020016001820160009054906101000a900473ffffffffffffffffffffffffffffffffffffffff1673ffffffffffffffffffffffffffffffffffffffff1673ffffffffffffffffffffffffffffffffffffffff1681526020016002820160009054906101000a900473ffffffffffffffffffffffffffffffffffffffff1673ffffffffffffffffffffffffffffffffffffffff1673ffffffffffffffffffffffffffffffffffffffff16815260200160038201548152602001600482018054600181600116156101000203166002900480601f0160208091040260200160405190810160405280929190818152602001828054600181600116156101000203166002900480156115405780601f1061151557610100808354040283529160200191611540565b820191906000526020600020905b81548152906001019060200180831161152357829003601f168201915b5050505050815250509050809250505092915050565b6000809050600090505b6001548111611630573373ffffffffffffffffffffffffffffffffffffffff1660008083815260200190815260200160002060010160009054906101000a900473ffffffffffffffffffffffffffffffffffffffff1673ffffffffffffffffffffffffffffffffffffffff1614156116235760008082815260200190815260200160002060050160009054906101000a900460ff161560008083815260200190815260200160002060050160006101000a81548160ff0219169083151502179055505b8080600101915050611560565b50565b600082511161164157600080fd5b6000811161164e57600080fd5b6004600081548092919060010191905055506040518060a0016040528060045481526020018381526020018281526020013373ffffffffffffffffffffffffffffffffffffffff168152602001600015158152506005600060045481526020019081526020016000206000820151816000015560208201518160010190805190602001906116dd929190613d9d565b506040820151816002015560608201518160030160006101000a81548173ffffffffffffffffffffffffffffffffffffffff021916908373ffffffffffffffffffffffffffffffffffffffff16021790555060808201518160030160146101000a81548160ff0219169083151502179055509050507fd87ce4bfd22bad4a8ed8acd04d5670a4166b81f64fe53488db885e1987f33d8260045483833360008760405161178e96959493929190614c92565b60405180910390a15050565b6000809050600090505b600c5481116118ca573373ffffffffffffffffffffffffffffffffffffffff16600b600083815260200190815260200160002060010160009054906101000a900473ffffffffffffffffffffffffffffffffffffffff1673ffffffffffffffffffffffffffffffffffffffff1614156118bd57600b6000828152602001908152602001600020600601600081548092919060010191905055506040518060400160405280600b600084815260200190815260200160002060060154815260200183815250600b60008381526020019081526020016000206005016000600b600085815260200190815260200160002060060154815260200190815260200160002060008201518160000155602082015181600101559050505b80806001019150506117a4565b5050565b6000809050600090505b60035481116119af573373ffffffffffffffffffffffffffffffffffffffff166002600083815260200190815260200160002060010160009054906101000a900473ffffffffffffffffffffffffffffffffffffffff1673ffffffffffffffffffffffffffffffffffffffff1614156119a25782600260008381526020019081526020016000206005019080519060200190611975929190613d1d565b50816002600083815260200190815260200160002060040190805190602001906119a0929190613d1d565b505b80806001019150506118d8565b505050565b6000809050600090505b600a548111611b0d578260096000838152602001908152602001600020600001541415611b0057600460096000838152602001908152602001600020600b0160006101000a81548160ff02191690836004811115611a1857fe5b02179055507fb6c0eca8138e097d71e2dd31e19a1266487f0553f170b7260ffe68bcbe9ff8a76009600083815260200190815260200160002060010160009054906101000a900473ffffffffffffffffffffffffffffffffffffffff166009600084815260200190815260200160002060060154604051611a9a92919061497c565b60405180910390a18173ffffffffffffffffffffffffffffffffffffffff166108fc60096000848152602001908152602001600020600601549081150290604051600060405180830381858888f19350505050158015611afe573d6000803e3d6000fd5b505b80806001019150506119be565b505050565b60065481565b6000809050600090505b600a548111611b86578760096000838152602001908152602001600020600001541415611b7957600160096000838152602001908152602001600020600b0160016101000a81548160ff0219169083151502179055505b8080600101915050611b22565b6000809050600090505b6003548111611dfd578773ffffffffffffffffffffffffffffffffffffffff166002600083815260200190815260200160002060010160009054906101000a900473ffffffffffffffffffffffffffffffffffffffff1673ffffffffffffffffffffffffffffffffffffffff161415611df05760026000828152602001908152602001600020600901600081548092919060010191905055506040518060a00160405280600260008481526020019081526020016000206009015481526020018973ffffffffffffffffffffffffffffffffffffffff1681526020013373ffffffffffffffffffffffffffffffffffffffff16815260200188815260200187815250600260008381526020019081526020016000206008016000600260008581526020019081526020016000206009015481526020019081526020016000206000820151816000015560208201518160010160006101000a81548173ffffffffffffffffffffffffffffffffffffffff021916908373ffffffffffffffffffffffffffffffffffffffff16021790555060408201518160020160006101000a81548173ffffffffffffffffffffffffffffffffffffffff021916908373ffffffffffffffffffffffffffffffffffffffff160217905550606082015181600301556080820151816004019080519060200190611d8d929190613d9d565b509050506000600260008381526020019081526020016000206006015488019050600060026000848152602001908152602001600020600901548281611dcf57fe5b04905080600260008581526020019081526020016000206006018190555050505b8080600101915050611b90565b6000809050600090505b6001548111612011578573ffffffffffffffffffffffffffffffffffffffff1660008083815260200190815260200160002060010160009054906101000a900473ffffffffffffffffffffffffffffffffffffffff1673ffffffffffffffffffffffffffffffffffffffff16141561200457600080828152602001908152602001600020600901600081548092919060010191905055506040518060a001604052806000808481526020019081526020016000206009015481526020018773ffffffffffffffffffffffffffffffffffffffff1681526020013373ffffffffffffffffffffffffffffffffffffffff1681526020018681526020018581525060008083815260200190815260200160002060080160008060008581526020019081526020016000206009015481526020019081526020016000206000820151816000015560208201518160010160006101000a81548173ffffffffffffffffffffffffffffffffffffffff021916908373ffffffffffffffffffffffffffffffffffffffff16021790555060408201518160020160006101000a81548173ffffffffffffffffffffffffffffffffffffffff021916908373ffffffffffffffffffffffffffffffffffffffff160217905550606082015181600301556080820151816004019080519060200190611fff929190613d9d565b509050505b8080600101915050611e07565b50505050505050505050565b6000809050600090505b60065481116120fb5785600760008381526020019081526020016000206000015414156120ee5784600760008381526020019081526020016000206001019080519060200190612078929190613d1d565b50836007600083815260200190815260200160002060020181905550826007600083815260200190815260200160002060040190805190602001906120be929190613d1d565b50816007600083815260200190815260200160002060030160146101000a81548160ff0219169083151502179055505b8080600101915050612027565b505050505050565b6000809050600090505b600a5481116121cf5781600960008381526020019081526020016000206000015414156121c257600260096000838152602001908152602001600020600b0160006101000a81548160ff0219169083600481111561216757fe5b0217905550336009600083815260200190815260200160002060030160006101000a81548173ffffffffffffffffffffffffffffffffffffffff021916908373ffffffffffffffffffffffffffffffffffffffff1602179055505b808060010191505061210d565b6121d7613ec6565b6009600084815260200190815260200160002060405180610180016040529081600082015481526020016001820160009054906101000a900473ffffffffffffffffffffffffffffffffffffffff1673ffffffffffffffffffffffffffffffffffffffff1673ffffffffffffffffffffffffffffffffffffffff1681526020016002820160009054906101000a900473ffffffffffffffffffffffffffffffffffffffff1673ffffffffffffffffffffffffffffffffffffffff1673ffffffffffffffffffffffffffffffffffffffff1681526020016003820160009054906101000a900473ffffffffffffffffffffffffffffffffffffffff1673ffffffffffffffffffffffffffffffffffffffff1673ffffffffffffffffffffffffffffffffffffffff16815260200160048201548152602001600582015481526020016006820154815260200160088201548152602001600982018054600181600116156101000203166002900480601f0160208091040260200160405190810160405280929190818152602001828054600181600116156101000203166002900480156123c35780601f10612398576101008083540402835291602001916123c3565b820191906000526020600020905b8154815290600101906020018083116123a657829003601f168201915b50505050508152602001600a82018054600181600116156101000203166002900480601f0160208091040260200160405190810160405280929190818152602001828054600181600116156101000203166002900480156124655780601f1061243a57610100808354040283529160200191612465565b820191906000526020600020905b81548152906001019060200180831161244857829003601f168201915b50505050508152602001600b820160009054906101000a900460ff16600481111561248c57fe5b600481111561249757fe5b8152602001600b820160019054906101000a900460ff161515151581525050905060008160200151905060008260400151905060008360800151905060008460a00151905060008560c00151905060008660e0015190506060876101000151905060608861012001519050600089610140015190506000809050600090505b600154811161283e573373ffffffffffffffffffffffffffffffffffffffff1660008083815260200190815260200160002060010160009054906101000a900473ffffffffffffffffffffffffffffffffffffffff1673ffffffffffffffffffffffffffffffffffffffff16141561283157600080828152602001908152602001600020600701600081548092919060010191905055506040518061018001604052806000808481526020019081526020016000206007015481526020018b73ffffffffffffffffffffffffffffffffffffffff1681526020018a73ffffffffffffffffffffffffffffffffffffffff1681526020013373ffffffffffffffffffffffffffffffffffffffff16815260200189815260200188815260200187815260200186815260200185815260200184815260200183600481111561265857fe5b81526020016000151581525060008083815260200190815260200160002060060160008060008581526020019081526020016000206007015481526020019081526020016000206000820151816000015560208201518160010160006101000a81548173ffffffffffffffffffffffffffffffffffffffff021916908373ffffffffffffffffffffffffffffffffffffffff16021790555060408201518160020160006101000a81548173ffffffffffffffffffffffffffffffffffffffff021916908373ffffffffffffffffffffffffffffffffffffffff16021790555060608201518160030160006101000a81548173ffffffffffffffffffffffffffffffffffffffff021916908373ffffffffffffffffffffffffffffffffffffffff1602179055506080820151816004015560a0820151816005015560c0820151816006015560e082015181600801556101008201518160090190805190602001906127c3929190613d9d565b5061012082015181600a0190805190602001906127e1929190613d9d565b5061014082015181600b0160006101000a81548160ff0219169083600481111561280757fe5b021790555061016082015181600b0160016101000a81548160ff0219169083151502179055509050505b8080600101915050612516565b50505050505050505050505050565b6000809050600090505b600a54811161292157816009600083815260200190815260200160002060000154141561291457600160096000838152602001908152602001600020600b0160006101000a81548160ff021916908360048111156128b157fe5b02179055503373ffffffffffffffffffffffffffffffffffffffff166108fc60096000848152602001908152602001600020600401549081150290604051600060405180830381858888f19350505050158015612912573d6000803e3d6000fd5b505b8080600101915050612857565b5050565b60096020528060005260406000206000915090508060000154908060010160009054906101000a900473ffffffffffffffffffffffffffffffffffffffff16908060020160009054906101000a900473ffffffffffffffffffffffffffffffffffffffff16908060030160009054906101000a900473ffffffffffffffffffffffffffffffffffffffff1690806004015490806005015490806006015490806008015490806009018054600181600116156101000203166002900480601f016020809104026020016040519081016040528092919081815260200182805460018160011615610100020316600290048015612a615780601f10612a3657610100808354040283529160200191612a61565b820191906000526020600020905b815481529060010190602001808311612a4457829003601f168201915b50505050509080600a018054600181600116156101000203166002900480601f016020809104026020016040519081016040528092919081815260200182805460018160011615610100020316600290048015612aff5780601f10612ad457610100808354040283529160200191612aff565b820191906000526020600020905b815481529060010190602001808311612ae257829003601f168201915b50505050509080600b0160009054906101000a900460ff169080600b0160019054906101000a900460ff1690508c565b60045481565b6007602052806000526040600020600091509050806000015490806001018054600181600116156101000203166002900480601f016020809104026020016040519081016040528092919081815260200182805460018160011615610100020316600290048015612be75780601f10612bbc57610100808354040283529160200191612be7565b820191906000526020600020905b815481529060010190602001808311612bca57829003601f168201915b5050505050908060020154908060030160009054906101000a900473ffffffffffffffffffffffffffffffffffffffff16908060030160149054906101000a900460ff1690806004018054600181600116156101000203166002900480601f016020809104026020016040519081016040528092919081815260200182805460018160011615610100020316600290048015612cc45780601f10612c9957610100808354040283529160200191612cc4565b820191906000526020600020905b815481529060010190602001808311612ca757829003601f168201915b5050505050905086565b612cd6613f76565b600b60008981526020019081526020016000206040518060c0016040529081600082015481526020016001820160009054906101000a900473ffffffffffffffffffffffffffffffffffffffff1673ffffffffffffffffffffffffffffffffffffffff1673ffffffffffffffffffffffffffffffffffffffff168152602001600282018054600181600116156101000203166002900480601f016020809104026020016040519081016040528092919081815260200182805460018160011615610100020316600290048015612ded5780601f10612dc257610100808354040283529160200191612ded565b820191906000526020600020905b815481529060010190602001808311612dd057829003601f168201915b50505050508152602001600382018054600181600116156101000203166002900480601f016020809104026020016040519081016040528092919081815260200182805460018160011615610100020316600290048015612e8f5780601f10612e6457610100808354040283529160200191612e8f565b820191906000526020600020905b815481529060010190602001808311612e7257829003601f168201915b50505050508152602001600482018054600181600116156101000203166002900480601f016020809104026020016040519081016040528092919081815260200182805460018160011615610100020316600290048015612f315780601f10612f0657610100808354040283529160200191612f31565b820191906000526020600020905b815481529060010190602001808311612f1457829003601f168201915b505050505081526020016006820154815250509050600a600081548092919060010191905055506000600860006101000a81548160ff02191690836004811115612f7757fe5b0217905550604051806101800160405280600a548152602001826020015173ffffffffffffffffffffffffffffffffffffffff1681526020018873ffffffffffffffffffffffffffffffffffffffff168152602001600073ffffffffffffffffffffffffffffffffffffffff1681526020018781526020018681526020018581526020018260a001518152602001848152602001838152602001600860009054906101000a900460ff16600481111561302c57fe5b81526020016000151581525060096000600a5481526020019081526020016000206000820151816000015560208201518160010160006101000a81548173ffffffffffffffffffffffffffffffffffffffff021916908373ffffffffffffffffffffffffffffffffffffffff16021790555060408201518160020160006101000a81548173ffffffffffffffffffffffffffffffffffffffff021916908373ffffffffffffffffffffffffffffffffffffffff16021790555060608201518160030160006101000a81548173ffffffffffffffffffffffffffffffffffffffff021916908373ffffffffffffffffffffffffffffffffffffffff1602179055506080820151816004015560a0820151816005015560c0820151816006015560e08201518160080155610100820151816009019080519060200190613171929190613d9d565b5061012082015181600a01908051906020019061318f929190613d9d565b5061014082015181600b0160006101000a81548160ff021916908360048111156131b557fe5b021790555061016082015181600b0160016101000a81548160ff0219169083151502179055509050506000600190505b8160a0015181116132615760006131fc8a8361360e565b905060405180604001604052808381526020018281525060096000600a548152602001908152602001600020600701600084815260200190815260200160002060008201518160000155602082015181600101559050505080806001019150506131e5565b508334101561326f57600080fd5b61327888613bca565b5050505050505050565b60016000815480929190600101919050555060405180610100016040528060015481526020018573ffffffffffffffffffffffffffffffffffffffff16815260200184815260200183815260200160058152602001821515815260200160008152602001600081525060008060015481526020019081526020016000206000820151816000015560208201518160010160006101000a81548173ffffffffffffffffffffffffffffffffffffffff021916908373ffffffffffffffffffffffffffffffffffffffff160217905550604082015181600201908051906020019061336c929190613d9d565b506060820151816003019080519060200190613389929190613d9d565b506080820151816004015560a08201518160050160006101000a81548160ff02191690831515021790555060c0820151816007015560e0820151816009015590505050505050565b60015481565b600b6020528060005260406000206000915090508060000154908060010160009054906101000a900473ffffffffffffffffffffffffffffffffffffffff1690806002018054600181600116156101000203166002900480601f0160208091040260200160405190810160405280929190818152602001828054600181600116156101000203166002900480156134af5780601f10613484576101008083540402835291602001916134af565b820191906000526020600020905b81548152906001019060200180831161349257829003601f168201915b505050505090806003018054600181600116156101000203166002900480601f01602080910402602001604051908101604052809291908181526020018280546001816001161561010002031660029004801561354d5780601f106135225761010080835404028352916020019161354d565b820191906000526020600020905b81548152906001019060200180831161353057829003601f168201915b505050505090806004018054600181600116156101000203166002900480601f0160208091040260200160405190810160405280929190818152602001828054600181600116156101000203166002900480156135eb5780601f106135c0576101008083540402835291602001916135eb565b820191906000526020600020905b8154815290600101906020018083116135ce57829003601f168201915b5050505050908060060154905086565b600860009054906101000a900460ff1681565b600080600b600085815260200190815260200160002090508060050160008481526020019081526020016000206001015491505092915050565b600084511161365657600080fd5b6000831161366357600080fd5b6006600081548092919060010191905055506040518060c0016040528060065481526020018581526020018481526020013373ffffffffffffffffffffffffffffffffffffffff1681526020018315158152602001828152506007600060065481526020019081526020016000206000820151816000015560208201518160010190805190602001906136f7929190613d9d565b506040820151816002015560608201518160030160006101000a81548173ffffffffffffffffffffffffffffffffffffffff021916908373ffffffffffffffffffffffffffffffffffffffff16021790555060808201518160030160146101000a81548160ff02191690831515021790555060a0820151816004019080519060200190613785929190613d9d565b509050507fd87ce4bfd22bad4a8ed8acd04d5670a4166b81f64fe53488db885e1987f33d8260065485853386866040516137c496959493929190614c92565b60405180910390a150505050565b60036000815480929190600101919050555060405180610120016040528060035481526020018773ffffffffffffffffffffffffffffffffffffffff16815260200186815260200185815260200184815260200183815260200160008152602001821515815260200160008152506002600060035481526020019081526020016000206000820151816000015560208201518160010160006101000a81548173ffffffffffffffffffffffffffffffffffffffff021916908373ffffffffffffffffffffffffffffffffffffffff16021790555060408201518160020190805190602001906138c2929190613d9d565b5060608201518160030190805190602001906138df929190613d9d565b5060808201518160040190805190602001906138fc929190613d9d565b5060a0820151816005019080519060200190613919929190613d9d565b5060c0820151816006015560e08201518160070160006101000a81548160ff0219169083151502179055506101008201518160090155905050505050505050565b6000809050600090505b600a548111613a2e578160096000838152602001908152602001600020600001541415613a2157600360096000838152602001908152602001600020600b0160006101000a81548160ff021916908360048111156139be57fe5b02179055503373ffffffffffffffffffffffffffffffffffffffff166108fc60096000848152602001908152602001600020600501549081150290604051600060405180830381858888f19350505050158015613a1f573d6000803e3d6000fd5b505b8080600101915050613964565b5050565b6005602052806000526040600020600091509050806000015490806001018054600181600116156101000203166002900480601f016020809104026020016040519081016040528092919081815260200182805460018160011615610100020316600290048015613ae45780601f10613ab957610100808354040283529160200191613ae4565b820191906000526020600020905b815481529060010190602001808311613ac757829003601f168201915b5050505050908060020154908060030160009054906101000a900473ffffffffffffffffffffffffffffffffffffffff16908060030160149054906101000a900460ff16905085565b60035481565b6006600081548092919060019003919050555060076000828152602001908152602001600020600080820160009055600182016000613b729190613fc2565b60028201600090556003820160006101000a81549073ffffffffffffffffffffffffffffffffffffffff02191690556003820160146101000a81549060ff0219169055600482016000613bc59190613fc2565b505050565b6000600b600083815260200190815260200160002090506000816006015490506000600190505b818111613c2d57826005016000828152602001908152602001600020600080820160009055600182016000905550508080600101915050613bf1565b5060008260060181905550505050565b6000809050600090505b6003548111613d1a573373ffffffffffffffffffffffffffffffffffffffff166002600083815260200190815260200160002060010160009054906101000a900473ffffffffffffffffffffffffffffffffffffffff1673ffffffffffffffffffffffffffffffffffffffff161415613d0d576002600082815260200190815260200160002060070160009054906101000a900460ff16156002600083815260200190815260200160002060070160006101000a81548160ff0219169083151502179055505b8080600101915050613c47565b50565b828054600181600116156101000203166002900490600052602060002090601f016020900481019282601f10613d5e57805160ff1916838001178555613d8c565b82800160010185558215613d8c579182015b82811115613d8b578251825591602001919060010190613d70565b5b509050613d99919061400a565b5090565b828054600181600116156101000203166002900490600052602060002090601f016020900481019282601f10613dde57805160ff1916838001178555613e0c565b82800160010185558215613e0c579182015b82811115613e0b578251825591602001919060010190613df0565b5b509050613e19919061400a565b5090565b6040518060a0016040528060008152602001600073ffffffffffffffffffffffffffffffffffffffff168152602001600073ffffffffffffffffffffffffffffffffffffffff16815260200160008152602001606081525090565b6040518060c00160405280600081526020016060815260200160008152602001600073ffffffffffffffffffffffffffffffffffffffff168152602001600015158152602001606081525090565b60405180610180016040528060008152602001600073ffffffffffffffffffffffffffffffffffffffff168152602001600073ffffffffffffffffffffffffffffffffffffffff168152602001600073ffffffffffffffffffffffffffffffffffffffff16815260200160008152602001600081526020016000815260200160008152602001606081526020016060815260200160006004811115613f6757fe5b81526020016000151581525090565b6040518060c0016040528060008152602001600073ffffffffffffffffffffffffffffffffffffffff168152602001606081526020016060815260200160608152602001600081525090565b50805460018160011615610100020316600290046000825580601f10613fe85750614007565b601f016020900490600052602060002090810190614006919061400a565b5b50565b61402c91905b80821115614028576000816000905550600101614010565b5090565b90565b60008135905061403e81614f44565b92915050565b60008135905061405381614f5b565b92915050565b60008135905061406881614f72565b92915050565b600082601f83011261407f57600080fd5b813561409261408d82614df7565b614dca565b915080825260208301602083018583830111156140ae57600080fd5b6140b9838284614ee4565b50505092915050565b6000813590506140d181614f89565b92915050565b600080600080608085870312156140ed57600080fd5b60006140fb8782880161402f565b945050602085013567ffffffffffffffff81111561411857600080fd5b6141248782880161406e565b935050604085013567ffffffffffffffff81111561414157600080fd5b61414d8782880161406e565b925050606061415e87828801614059565b91505092959194509250565b6000806000806080858703121561418057600080fd5b600061418e8782880161402f565b945050602085013567ffffffffffffffff8111156141ab57600080fd5b6141b78782880161406e565b935050604085013567ffffffffffffffff8111156141d457600080fd5b6141e08782880161406e565b925050606085013567ffffffffffffffff8111156141fd57600080fd5b6142098782880161406e565b91505092959194509250565b60008060008060008060c0878903121561422e57600080fd5b600061423c89828a0161402f565b965050602087013567ffffffffffffffff81111561425957600080fd5b61426589828a0161406e565b955050604087013567ffffffffffffffff81111561428257600080fd5b61428e89828a0161406e565b945050606087013567ffffffffffffffff8111156142ab57600080fd5b6142b789828a0161406e565b935050608087013567ffffffffffffffff8111156142d457600080fd5b6142e089828a0161406e565b92505060a06142f189828a01614059565b9150509295509295509295565b6000806040838503121561431157600080fd5b600083013567ffffffffffffffff81111561432b57600080fd5b6143378582860161406e565b925050602083013567ffffffffffffffff81111561435457600080fd5b6143608582860161406e565b9150509250929050565b6000806040838503121561437d57600080fd5b600083013567ffffffffffffffff81111561439757600080fd5b6143a38582860161406e565b92505060206143b4858286016140c2565b9150509250929050565b600080600080608085870312156143d457600080fd5b600085013567ffffffffffffffff8111156143ee57600080fd5b6143fa8782880161406e565b945050602061440b878288016140c2565b935050604061441c87828801614059565b925050606085013567ffffffffffffffff81111561443957600080fd5b6144458782880161406e565b91505092959194509250565b60006020828403121561446357600080fd5b6000614471848285016140c2565b91505092915050565b6000806040838503121561448d57600080fd5b600061449b858286016140c2565b92505060206144ac85828601614044565b9150509250929050565b600080600080600080600060e0888a0312156144d157600080fd5b60006144df8a828b016140c2565b97505060206144f08a828b01614044565b96505060406145018a828b016140c2565b95505060606145128a828b016140c2565b94505060806145238a828b016140c2565b93505060a088013567ffffffffffffffff81111561454057600080fd5b61454c8a828b0161406e565b92505060c088013567ffffffffffffffff81111561456957600080fd5b6145758a828b0161406e565b91505092959891949750929550565b600080600080600080600060e0888a03121561459f57600080fd5b60006145ad8a828b016140c2565b97505060206145be8a828b0161402f565b96505060406145cf8a828b016140c2565b955050606088013567ffffffffffffffff8111156145ec57600080fd5b6145f88a828b0161406e565b94505060806146098a828b0161402f565b93505060a061461a8a828b016140c2565b92505060c088013567ffffffffffffffff81111561463757600080fd5b6146438a828b0161406e565b91505092959891949750929550565b600080600080600060a0868803121561466a57600080fd5b6000614678888289016140c2565b955050602086013567ffffffffffffffff81111561469557600080fd5b6146a18882890161406e565b94505060406146b2888289016140c2565b935050606086013567ffffffffffffffff8111156146cf57600080fd5b6146db8882890161406e565b92505060806146ec88828901614059565b9150509295509295909350565b6000806040838503121561470c57600080fd5b600061471a858286016140c2565b925050602061472b858286016140c2565b9150509250929050565b61473e81614e6d565b82525050565b61474d81614e6d565b82525050565b61475c81614e5b565b82525050565b61476b81614e5b565b82525050565b61477a81614e7f565b82525050565b61478981614e7f565b82525050565b61479881614ed2565b82525050565b6147a781614e9e565b82525050565b60006147b882614e2e565b6147c28185614e4a565b93506147d2818560208601614ef3565b6147db81614f26565b840191505092915050565b60006147f182614e23565b6147fb8185614e39565b935061480b818560208601614ef3565b61481481614f26565b840191505092915050565b600061482a82614e23565b6148348185614e4a565b9350614844818560208601614ef3565b61484d81614f26565b840191505092915050565b600060a083016000830151614870600086018261495e565b5060208301516148836020860182614753565b5060408301516148966040860182614753565b5060608301516148a9606086018261495e565b50608083015184820360808601526148c182826147e6565b9150508091505092915050565b600060c0830160008301516148e6600086018261495e565b50602083015184820360208601526148fe82826147e6565b9150506040830151614913604086018261495e565b5060608301516149266060860182614735565b5060808301516149396080860182614771565b5060a083015184820360a086015261495182826147e6565b9150508091505092915050565b61496781614ec8565b82525050565b61497681614ec8565b82525050565b60006040820190506149916000830185614762565b61499e602083018461496d565b9392505050565b60006020820190506149ba600083018461478f565b92915050565b600060208201905081810360008301526149da8184614858565b905092915050565b600060208201905081810360008301526149fc81846148ce565b905092915050565b6000602082019050614a19600083018461496d565b92915050565b600061018082019050614a35600083018f61496d565b614a42602083018e614762565b614a4f604083018d614762565b614a5c606083018c614762565b614a69608083018b61496d565b614a7660a083018a61496d565b614a8360c083018961496d565b614a9060e083018861496d565b818103610100830152614aa3818761481f565b9050818103610120830152614ab8818661481f565b9050614ac861014083018561478f565b614ad6610160830184614780565b9d9c50505050505050505050505050565b600061010082019050614afd600083018b61496d565b614b0a602083018a614762565b8181036040830152614b1c818961481f565b90508181036060830152614b30818861481f565b9050614b3f608083018761479e565b614b4c60a0830186614780565b614b5960c083018561496d565b614b6660e083018461496d565b9998505050505050505050565b600061012082019050614b89600083018c61496d565b614b96602083018b614762565b8181036040830152614ba8818a61481f565b90508181036060830152614bbc818961481f565b90508181036080830152614bd0818861481f565b905081810360a0830152614be4818761481f565b9050614bf360c083018661496d565b614c0060e0830185614780565b614c0e61010083018461496d565b9a9950505050505050505050565b600060c082019050614c31600083018961496d565b614c3e6020830188614762565b8181036040830152614c50818761481f565b90508181036060830152614c64818661481f565b90508181036080830152614c78818561481f565b9050614c8760a083018461496d565b979650505050505050565b600060c082019050614ca7600083018961496d565b8181036020830152614cb981886147ad565b9050614cc8604083018761496d565b614cd56060830186614744565b614ce26080830185614780565b81810360a0830152614cf481846147ad565b9050979650505050505050565b600060a082019050614d16600083018861496d565b8181036020830152614d28818761481f565b9050614d37604083018661496d565b614d446060830185614744565b614d516080830184614780565b9695505050505050565b600060c082019050614d70600083018961496d565b8181036020830152614d82818861481f565b9050614d91604083018761496d565b614d9e6060830186614744565b614dab6080830185614780565b81810360a0830152614dbd818461481f565b9050979650505050505050565b6000604051905081810181811067ffffffffffffffff82111715614ded57600080fd5b8060405250919050565b600067ffffffffffffffff821115614e0e57600080fd5b601f19601f8301169050602081019050919050565b600081519050919050565b600081519050919050565b600082825260208201905092915050565b600082825260208201905092915050565b6000614e6682614ea8565b9050919050565b6000614e7882614ea8565b9050919050565b60008115159050919050565b6000819050614e9982614f37565b919050565b6000819050919050565b600073ffffffffffffffffffffffffffffffffffffffff82169050919050565b6000819050919050565b6000614edd82614e8b565b9050919050565b82818337600083830152505050565b60005b83811015614f11578082015181840152602081019050614ef6565b83811115614f20576000848401525b50505050565b6000601f19601f8301169050919050565b60058110614f4157fe5b50565b614f4d81614e5b565b8114614f5857600080fd5b50565b614f6481614e6d565b8114614f6f57600080fd5b50565b614f7b81614e7f565b8114614f8657600080fd5b50565b614f9281614ec8565b8114614f9d57600080fd5b5056fea365627a7a723158202cea692bb692524f7336e95236f25180c1d3d1969c0745fd9d7f850c6d9fe09a6c6578706572696d656e74616cf564736f6c6343000510004032204164616d2052642c202330312d303220466f6f642043656e7472652c2053696e6761706f7265203238393837364d617877656c6c20466f6f642043656e747265202330312d31302f31312c2031204b61646179616e616c6c7572205374726565742c2053696e6761706f7265203036393138345475657364617920e280932053756e6461793a203130616d20e2809320373a3330706d4d6f6e646179202d2054687572736461793a2037616d2d35706d3b205361747572646179202d2053756e6461792037616d2d33706d353020416e67204d6f204b696f2041766520322c2053696e6761706f726520363339373938",
  "source": "// SPDX-License-Identifier: Blockchain\r\n\r\npragma solidity ^0.5.4;\r\n\r\npragma experimental ABIEncoderV2;\r\n\r\ncontract Marketplace {\r\n    //constructor\r\n    constructor() public {\r\n        addHawker(\r\n            0x73c005D4B234C63F416F6e1038C011D55edDBF1e,\r\n            \"Selera Rasa Nasi Lemak\",\r\n            \"2 Adam Rd, #01-02 Food Centre, Singapore 289876\",\r\n            \"Monday - Thursday: 7am-5pm; Saturday - Sunday 7am-3pm\",\r\n            \"98434509\",\r\n            false\r\n        );\r\n        addHawker(\r\n            0x87ECEE1454A7b32253A9020F6ae1FF25e9CE35B5,\r\n            \"Tian Tian Hainanese Chicken Rice\",\r\n            \"Maxwell Food Centre #01-10/11, 1 Kadayanallur Street, Singapore 069184\",\r\n            \"Tuesday  Sunday: 10am  7:30pm\",\r\n            \"96914852\",\r\n            false\r\n        );\r\n        addCustomer(\r\n            0xC9342f12d49ca9e40d600eBF17266DcCc88a0639,\r\n            \"Casuarina\",\r\n            \"50 Nanyang Ave, Singapore 639798\",\r\n            \"98765432\"\r\n        );\r\n        addCustomer(\r\n            0x7C2eA58a210F8e7c80fdeB6788C1D5Fc4a3E73ba,\r\n            \"Patrick\",\r\n            \"50 Ang Mo Kio Ave 2, Singapore 639798\",\r\n            \"91234567\"\r\n        );\r\n        addFoodDelivery(\r\n            0x66f8f66996aaB36b041b1cAdA9f20864a0C42698,\r\n            \"Leo Tan\",\r\n            \"90123456\",\r\n            false\r\n        );\r\n    }\r\n\r\n    event LogRefund(address receiver, uint256 amount);\r\n\r\n    //FOOD DELIVERY\r\n    struct FoodDelivery {\r\n        uint256 id;\r\n        address owner;\r\n        string name;\r\n        string phone;\r\n        int256 rating;\r\n        bool available;\r\n        mapping(uint256 => Order) ordersAccepted;\r\n        uint256 ordersAcceptedCount;\r\n        mapping(uint256 => Feedback) feedbacks;\r\n        uint256 feedbackCount;\r\n    }\r\n\r\n    // Read/write Food Delivery\r\n    mapping(uint256 => FoodDelivery) public foodDeliveries;\r\n    //Store Food Delivery Count\r\n    uint256 public foodDeliveriesCount;\r\n\r\n    //add new food delivery\r\n    function addFoodDelivery(\r\n        address _owner,\r\n        string memory _name,\r\n        string memory _phone,\r\n        bool _available\r\n    ) public {\r\n        foodDeliveriesCount++;\r\n        foodDeliveries[foodDeliveriesCount] = FoodDelivery(\r\n            foodDeliveriesCount,\r\n            _owner,\r\n            _name,\r\n            _phone,\r\n            5,\r\n            _available,\r\n            0,\r\n            0\r\n        );\r\n    }\r\n\r\n    // struct OrderHistory {\r\n    //     address\r\n    // }\r\n\r\n    //HAWKER\r\n    struct Hawker {\r\n        uint256 id;\r\n        address owner;\r\n        string name;\r\n        string addressLocation;\r\n        string openingHours;\r\n        string phone;\r\n        uint256 avgRating;\r\n        bool open;\r\n        mapping(uint256 => Feedback) feedbacks;\r\n        uint256 feedbackCount;\r\n    }\r\n\r\n    // Read/write Hawkers\r\n    mapping(uint256 => Hawker) public hawkers;\r\n    //Store Hawkers Count\r\n    uint256 public hawkersCount;\r\n\r\n    //FEEDBACK\r\n    struct Feedback {\r\n        uint256 id;\r\n        address seller;\r\n        address customer;\r\n        uint256 rate;\r\n        string comment;\r\n    }\r\n\r\n    function addHawker(\r\n        address _owner,\r\n        string memory _name,\r\n        string memory _addressLocation,\r\n        string memory _openingHours,\r\n        string memory _phone,\r\n        bool _open\r\n    ) public {\r\n        hawkersCount++;\r\n        hawkers[hawkersCount] = Hawker(\r\n            hawkersCount,\r\n            _owner,\r\n            _name,\r\n            _addressLocation,\r\n            _openingHours,\r\n            _phone,\r\n            0,\r\n            _open,\r\n            0\r\n        );\r\n    }\r\n\r\n    function editHawkerProfile(string memory _phone, string memory _OH) public {\r\n        uint256 i = 0;\r\n        for (i = 0; i <= hawkersCount; i++) {\r\n            if (hawkers[i].owner == msg.sender) {\r\n                hawkers[i].phone = _phone;\r\n                hawkers[i].openingHours = _OH;\r\n            }\r\n        }\r\n    }\r\n\r\n    //change shop status\r\n    function boolOpen() public {\r\n        uint256 i = 0;\r\n        for (i = 0; i <= hawkersCount; i++) {\r\n            if (hawkers[i].owner == msg.sender) {\r\n                hawkers[i].open = !(hawkers[i].open);\r\n            }\r\n        }\r\n    }\r\n\r\n    //change food delivery status\r\n    function boolWork() public {\r\n        uint256 i = 0;\r\n        for (i = 0; i <= foodDeliveriesCount; i++) {\r\n            if (foodDeliveries[i].owner == msg.sender) {\r\n                foodDeliveries[i].available = !(foodDeliveries[i].available);\r\n            }\r\n        }\r\n    }\r\n\r\n    //SUPPLIER\r\n    uint256 public suppProdCount = 0;\r\n    mapping(uint256 => SuppProduct) public suppProducts;\r\n    struct SuppProduct {\r\n        uint256 id;\r\n        string name;\r\n        uint256 price;\r\n        address payable owner; //when listing, the owner will be the seller. when buying, the owner will change from the seller to the buyer\r\n        bool purchased;\r\n    }\r\n\r\n    //Restaurants products\r\n    uint256 public restProdCount = 0;\r\n    mapping(uint256 => RestProduct) public restProducts;\r\n    struct RestProduct {\r\n        uint256 id;\r\n        string name;\r\n        uint256 price;\r\n        address payable owner;\r\n        bool published;\r\n        string imageHash;\r\n    }\r\n\r\n    struct RestProfile {\r\n        uint256 id;\r\n        string name;\r\n        string category;\r\n        string location;\r\n        string deliveryHours;\r\n        address payable owner;\r\n        string reviews;\r\n        uint256 rating;\r\n    }\r\n\r\n    event ProductCreated(\r\n        uint256 id,\r\n        string name,\r\n        uint256 price,\r\n        address payable owner,\r\n        bool purchased,\r\n        string imageHash\r\n    );\r\n\r\n    event ProductPurchased(\r\n        uint256 id,\r\n        string name,\r\n        uint256 price,\r\n        address payable owner,\r\n        bool purchased\r\n    );\r\n\r\n    //parameter _price is expressed in Ethereum cryptocurrency - Ether\r\n    //whenever we store Ether in the blockchain, we store it as Wei (smallest denomination of Ether )\r\n    //can check it on etherconverter.online\r\n    function createSuppProduct(string memory _name, uint256 _price) public {\r\n        // Require a valid name\r\n        require(bytes(_name).length > 0);\r\n        // Require a valid price\r\n        require(_price > 0);\r\n        // Increment product count\r\n        suppProdCount++;\r\n        // Create the product --- msg.sender is the one who accessed the function\r\n        suppProducts[suppProdCount] = SuppProduct(\r\n            suppProdCount,\r\n            _name,\r\n            _price,\r\n            msg.sender,\r\n            false\r\n        );\r\n        // Trigger an event\r\n        emit ProductCreated(\r\n            suppProdCount,\r\n            _name,\r\n            _price,\r\n            msg.sender,\r\n            false,\r\n            _name\r\n        );\r\n    }\r\n\r\n    function createRestProduct(\r\n        string memory _name,\r\n        uint256 _price,\r\n        bool _published,\r\n        string memory _imageHash\r\n    ) public {\r\n        // Require a valid name\r\n        require(bytes(_name).length > 0);\r\n        // Require a valid price\r\n        require(_price > 0);\r\n        // Increment product count\r\n        restProdCount++;\r\n        // Create the product --- msg.sender is the one who accessed the function\r\n        restProducts[restProdCount] = RestProduct(\r\n            restProdCount,\r\n            _name,\r\n            _price,\r\n            msg.sender,\r\n            _published,\r\n            _imageHash\r\n        );\r\n        // Trigger an event\r\n        emit ProductCreated(\r\n            restProdCount,\r\n            _name,\r\n            _price,\r\n            msg.sender,\r\n            _published,\r\n            _imageHash\r\n        );\r\n    }\r\n\r\n    //ORDERS\r\n    enum Status {\r\n        OrderPlaced,\r\n        OrderConfirm,\r\n        DriverConfirm,\r\n        OrderCompleted,\r\n        OrderCancelled\r\n    }\r\n    Status public state;\r\n\r\n    struct Order {\r\n        uint256 id;\r\n        address owner;\r\n        address seller;\r\n        address driver;\r\n        uint256 hawkerPayment;\r\n        uint256 riderPayment;\r\n        uint256 totalPrice;\r\n        mapping(uint256 => CartItem) purchasedItemId;\r\n        uint256 purchasedItemCount;\r\n        string date;\r\n        string time;\r\n        Status state;\r\n        bool rated;\r\n    }\r\n\r\n    mapping(uint256 => Order) public orders;\r\n    uint256 public ordersCount;\r\n\r\n    struct CartItem {\r\n        uint256 id;\r\n        uint256 productId;\r\n    }\r\n\r\n    //CUSTOMER\r\n    struct Customer {\r\n        uint256 id;\r\n        address owner;\r\n        string name;\r\n        string addressLocation;\r\n        string phone;\r\n        mapping(uint256 => CartItem) cartItems;\r\n        uint256 itemCount;\r\n    }\r\n\r\n    mapping(uint256 => Customer) public customers;\r\n    uint256 public customersCount;\r\n\r\n    function addCustomer(\r\n        address _owner,\r\n        string memory _name,\r\n        string memory _addressLocation,\r\n        string memory _phone\r\n    ) public {\r\n        customersCount++;\r\n        //CartItem[] memory cartItems;\r\n        customers[customersCount] = Customer(\r\n            customersCount,\r\n            _owner,\r\n            _name,\r\n            _addressLocation,\r\n            _phone,\r\n            0\r\n        );\r\n    }\r\n\r\n    function editCustProfile(string memory _phone, string memory _address)\r\n        public\r\n    {\r\n        uint256 i = 0;\r\n        for (i = 0; i <= customersCount; i++) {\r\n            if (customers[i].owner == msg.sender) {\r\n                customers[i].phone = _phone;\r\n                customers[i].addressLocation = _address;\r\n            }\r\n        }\r\n    }\r\n\r\n    function editProduct(\r\n        uint256 _productId,\r\n        string memory _name,\r\n        uint256 _price,\r\n        string memory _imageHash,\r\n        bool _published\r\n    ) public {\r\n        uint256 i = 0;\r\n        for (i = 0; i <= restProdCount; i++) {\r\n            if (restProducts[i].id == _productId) {\r\n                restProducts[i].name = _name;\r\n                restProducts[i].price = _price;\r\n                restProducts[i].imageHash = _imageHash;\r\n                restProducts[i].published = _published;\r\n            }\r\n        }\r\n    }\r\n\r\n    function addToCart(uint256 _id) public {\r\n        uint256 i = 0;\r\n        for (i = 0; i <= customersCount; i++) {\r\n            if (customers[i].owner == msg.sender) {\r\n                (customers[i].itemCount)++;\r\n                customers[i].cartItems[customers[i].itemCount] = CartItem(\r\n                    customers[i].itemCount,\r\n                    _id\r\n                );\r\n            }\r\n        }\r\n    }\r\n\r\n    function removeProdCart(uint256 custId, uint256 cartId) public {\r\n        Customer storage cust = customers[custId];\r\n        (cust.itemCount)--;\r\n        delete cust.cartItems[cartId];\r\n    }\r\n\r\n    function deleteProduct(uint256 productId) public {\r\n        //RestProduct storage product = restProducts[productId];\r\n        restProdCount--;\r\n        delete restProducts[productId];\r\n    }\r\n\r\n    function removeAllProdCart(uint256 custId) public {\r\n        Customer storage cust = customers[custId];\r\n        uint256 _itemCount = cust.itemCount;\r\n        for (uint256 i = 1; i <= _itemCount; i++) {\r\n            delete cust.cartItems[i];\r\n        }\r\n        (cust.itemCount) = 0;\r\n    }\r\n\r\n    function getCartProduct(uint256 custId, uint256 cartId)\r\n        public\r\n        returns (uint256)\r\n    {\r\n        Customer storage cust = customers[custId];\r\n        return (cust.cartItems[cartId].productId);\r\n    }\r\n\r\n    function getOrderProduct(uint256 orderId, uint256 cartId)\r\n        public\r\n        returns (RestProduct memory)\r\n    {\r\n        Order storage ord = orders[orderId];\r\n        uint256 prodId = ord.purchasedItemId[cartId].productId;\r\n        RestProduct memory _product = restProducts[prodId];\r\n        return (_product);\r\n    }\r\n\r\n    function getHawkerFeedback(uint256 hawkerId, uint256 feedbackCount)\r\n        public\r\n        returns (Feedback memory)\r\n    {\r\n        Hawker storage hawker = hawkers[hawkerId];\r\n        Feedback memory _feedback = hawker.feedbacks[feedbackCount];\r\n        return (_feedback);\r\n    }\r\n\r\n    function getFdFeedback(uint256 fdId, uint256 feedbackCount)\r\n        public\r\n        returns (Feedback memory)\r\n    {\r\n        FoodDelivery storage fd = foodDeliveries[fdId];\r\n        Feedback memory _feedback = fd.feedbacks[feedbackCount];\r\n        return (_feedback);\r\n    }\r\n\r\n    function setRating(\r\n        uint256 _orderId,\r\n        address _hawker,\r\n        uint256 _hawkerRate,\r\n        string memory _hawkerComment,\r\n        address _foodDelivery,\r\n        uint256 _fdRate,\r\n        string memory _fdComment\r\n    ) public {\r\n        //set order rated boolean to true\r\n        uint256 j = 0;\r\n        for (j = 0; j <= ordersCount; j++) {\r\n            if (orders[j].id == _orderId) {\r\n                orders[j].rated = true;\r\n            }\r\n        }\r\n\r\n        //set hawker feedback\r\n        uint256 i = 0;\r\n        for (i = 0; i <= hawkersCount; i++) {\r\n            if (hawkers[i].owner == _hawker) {\r\n                (hawkers[i].feedbackCount)++;\r\n                hawkers[i].feedbacks[hawkers[i].feedbackCount] = Feedback(\r\n                    hawkers[i].feedbackCount,\r\n                    _hawker,\r\n                    msg.sender,\r\n                    _hawkerRate,\r\n                    _hawkerComment\r\n                );\r\n                uint256 total = _hawkerRate + hawkers[i].avgRating;\r\n                uint256 avg = total / (hawkers[i].feedbackCount);\r\n                hawkers[i].avgRating = avg;\r\n            }\r\n        }\r\n\r\n        //set fd feedback\r\n        uint256 k = 0;\r\n        for (k = 0; k <= foodDeliveriesCount; k++) {\r\n            if (foodDeliveries[k].owner == _foodDelivery) {\r\n                (foodDeliveries[k].feedbackCount)++;\r\n                foodDeliveries[k].feedbacks[\r\n                    foodDeliveries[k].feedbackCount\r\n                ] = Feedback(\r\n                    foodDeliveries[k].feedbackCount,\r\n                    _foodDelivery,\r\n                    msg.sender,\r\n                    _fdRate,\r\n                    _fdComment\r\n                );\r\n            }\r\n        }\r\n    }\r\n\r\n    function cancelOrder(uint256 _orderId, address payable _customer)\r\n        public\r\n        payable\r\n    {\r\n        uint256 i = 0;\r\n        for (i = 0; i <= ordersCount; i++) {\r\n            if (orders[i].id == _orderId) {\r\n                orders[i].state = Status.OrderCancelled;\r\n                //address payable customer = address(orders[i].owner);\r\n                emit LogRefund(orders[i].owner, orders[i].totalPrice);\r\n                address(_customer).transfer(orders[i].totalPrice);\r\n                //msg.sender.transfer(orders[i].totalPrice);\r\n            }\r\n        }\r\n    }\r\n\r\n    function purchaseProduct(\r\n        uint256 _custId,\r\n        address payable _seller,\r\n        uint256 _hawkerPayment,\r\n        uint256 _riderPayment,\r\n        uint256 _totalCost,\r\n        string memory _date,\r\n        string memory _time\r\n    ) public payable {\r\n        Customer memory cust = customers[_custId];\r\n        // Increment order count\r\n        ordersCount++;\r\n        // Create the enum\r\n        state = Status.OrderPlaced;\r\n\r\n        // Create the order\r\n        orders[ordersCount] = Order(\r\n            ordersCount,\r\n            cust.owner,\r\n            _seller,\r\n            address(0),\r\n            _hawkerPayment,\r\n            _riderPayment,\r\n            _totalCost,\r\n            cust.itemCount,\r\n            _date,\r\n            _time,\r\n            state,\r\n            false\r\n        );\r\n\r\n        //add the items in cartItems(Customer structure) to purchasedItemId (Order structure)\r\n        for (uint256 i = 1; i <= cust.itemCount; i++) {\r\n            uint256 item = getCartProduct(_custId, i);\r\n            orders[ordersCount].purchasedItemId[i] = CartItem(i, item);\r\n        }\r\n\r\n        //Require that there is enough Ether in the transaction\r\n        require(msg.value >= _totalCost);\r\n\r\n        //remove the CartItem in the Customer id\r\n        removeAllProdCart(_custId);\r\n\r\n        // //Trigger an event\r\n        // emit ProductPurchased(\r\n        //     productCount,\r\n        //     _product.name,\r\n        //     _product.price,\r\n        //     msg.sender,\r\n        //     true\r\n        // );\r\n    }\r\n\r\n    //hawker confirms order transaction made by customer\r\n    function hawkerConfirmOrder(uint256 _orderId) public {\r\n        uint256 i = 0;\r\n        for (i = 0; i <= ordersCount; i++) {\r\n            if (orders[i].id == _orderId) {\r\n                orders[i].state = Status.OrderConfirm;\r\n                //Pay the hawker\r\n                address(msg.sender).transfer(orders[i].hawkerPayment);\r\n            }\r\n        }\r\n    }\r\n\r\n    //food delivery accepts order delivery\r\n    function fdAcceptOrder(uint256 _orderId) public {\r\n        //set orderId state to DriverConfirm\r\n        uint256 i = 0;\r\n        for (i = 0; i <= ordersCount; i++) {\r\n            if (orders[i].id == _orderId) {\r\n                orders[i].state = Status.DriverConfirm;\r\n                orders[i].driver = msg.sender;\r\n            }\r\n        }\r\n\r\n        Order memory _order = orders[_orderId];\r\n        address _owner = _order.owner;\r\n        address _seller = _order.seller;\r\n        uint256 _hawkerPayment = _order.hawkerPayment;\r\n        uint256 _riderPayment = _order.riderPayment;\r\n        uint256 _totalPrice = _order.totalPrice;\r\n        uint256 _purchasedItemCount = _order.purchasedItemCount;\r\n        string memory _date = _order.date;\r\n        string memory _time = _order.time;\r\n        Status _state = _order.state;\r\n\r\n        //add the order to the acceptedOrder mapping for the fd\r\n        uint256 k = 0;\r\n        for (k = 0; k <= foodDeliveriesCount; k++) {\r\n            if (foodDeliveries[k].owner == msg.sender) {\r\n                (foodDeliveries[k].ordersAcceptedCount)++;\r\n                foodDeliveries[k].ordersAccepted[\r\n                    foodDeliveries[k].ordersAcceptedCount\r\n                ] = Order(\r\n                    foodDeliveries[k].ordersAcceptedCount,\r\n                    _owner,\r\n                    _seller,\r\n                    msg.sender,\r\n                    _hawkerPayment,\r\n                    _riderPayment,\r\n                    _totalPrice,\r\n                    _purchasedItemCount,\r\n                    _date,\r\n                    _time,\r\n                    _state,\r\n                    false\r\n                );\r\n            }\r\n        }\r\n    }\r\n\r\n    //food delivery completes order delivery\r\n    function fdCompleteOrder(uint256 _orderId) public payable {\r\n        //set orderId state to OrderCompleted\r\n        uint256 i = 0;\r\n        for (i = 0; i <= ordersCount; i++) {\r\n            if (orders[i].id == _orderId) {\r\n                orders[i].state = Status.OrderCompleted;\r\n                //Pay the rider after completion\r\n                address(msg.sender).transfer(orders[i].riderPayment);\r\n            }\r\n        }\r\n    }\r\n\r\n    // function purchaseProduct(uint256 _id) public payable {\r\n    //     //Fetch the product\r\n    //     Product memory _product = products[_id];\r\n    //     //Fetch the owner\r\n    //     address payable _seller = _product.owner;\r\n    //     //Make sure the product has a valid id\r\n    //     //require(_product.id > 0 && _product.id <= productCount); ---> need to change\r\n    //     //Require that there is enough Ether in the transaction\r\n    //     require(msg.value >= _product.price);\r\n    //     //Require that the product has not been purchased already\r\n    //     require(!_product.purchased);\r\n    //     //Require that the buyer is not the seller\r\n    //     require(_seller != msg.sender);\r\n    //     //Transfer ownership to the buyer\r\n    //     _product.owner = msg.sender;\r\n    //     //Mark as purchased\r\n    //     _product.purchased = true;\r\n    //     //Update the product\r\n    //     products[_id] = _product;\r\n    //     //Pay the seller by sending them Ether\r\n    //     address(_seller).transfer(msg.value);\r\n\r\n    //     //Trigger an event\r\n    //     emit ProductPurchased(\r\n    //         productCount,\r\n    //         _product.name,\r\n    //         _product.price,\r\n    //         msg.sender,\r\n    //         true\r\n    //     );\r\n    // }\r\n}\r\n",
  "sourcePath": "C:/Users/Casuarina/Desktop/FYP_FoodIndustry/blockchain/src/contracts/Marketplace.sol",
  "compiler": {
    "name": "solc",
    "version": "0.5.16+commit.9c3226ce.Emscripten.clang"
  },
  "schemaVersion": "3.4.1",
  "updatedAt": "2021-07-21T13:12:00.186Z",
  "networkType": "ethereum",
  "devdoc": {
    "methods": {}
  },
  "userdoc": {
    "methods": {}
  }
}