{
  "contractName": "Reports",
  "abi": [
    {
      "inputs": [],
      "payable": false,
      "stateMutability": "nonpayable",
      "type": "constructor"
    },
    {
      "constant": true,
      "inputs": [],
      "name": "name",
      "outputs": [
        {
          "internalType": "string",
          "name": "",
          "type": "string"
        }
      ],
      "payable": false,
      "stateMutability": "view",
      "type": "function"
    },
    {
      "constant": true,
      "inputs": [
        {
          "internalType": "uint256",
          "name": "",
          "type": "uint256"
        }
      ],
      "name": "reports",
      "outputs": [
        {
          "internalType": "uint256",
          "name": "id",
          "type": "uint256"
        },
        {
          "internalType": "address",
          "name": "reporter",
          "type": "address"
        },
        {
          "internalType": "uint256",
          "name": "reportDate",
          "type": "uint256"
        },
        {
          "internalType": "uint256",
          "name": "orderId",
          "type": "uint256"
        },
        {
          "internalType": "string",
          "name": "title",
          "type": "string"
        },
        {
          "internalType": "string",
          "name": "remarks",
          "type": "string"
        },
        {
          "internalType": "uint256",
          "name": "approvalCount",
          "type": "uint256"
        },
        {
          "internalType": "uint256",
          "name": "rejectionCount",
          "type": "uint256"
        },
        {
          "internalType": "bool",
          "name": "complete",
          "type": "bool"
        },
        {
          "internalType": "uint256",
          "name": "penaltyFee",
          "type": "uint256"
        }
      ],
      "payable": false,
      "stateMutability": "view",
      "type": "function"
    },
    {
      "constant": true,
      "inputs": [],
      "name": "reportsCount",
      "outputs": [
        {
          "internalType": "uint256",
          "name": "",
          "type": "uint256"
        }
      ],
      "payable": false,
      "stateMutability": "view",
      "type": "function"
    },
    {
      "constant": false,
      "inputs": [
        {
          "internalType": "uint256",
          "name": "_orderId",
          "type": "uint256"
        },
        {
          "internalType": "string",
          "name": "_title",
          "type": "string"
        },
        {
          "internalType": "string[]",
          "name": "_imageHash",
          "type": "string[]"
        },
        {
          "internalType": "string[]",
          "name": "_missingItems",
          "type": "string[]"
        },
        {
          "internalType": "string",
          "name": "_remarks",
          "type": "string"
        }
      ],
      "name": "createReport",
      "outputs": [],
      "payable": false,
      "stateMutability": "nonpayable",
      "type": "function"
    }
  ],
  "bytecode": "0x608060405234801561001057600080fd5b506040518060400160405280601981526020017f5265706f72747320536f6c696469747920436f6e7472616374000000000000008152506000908051906020019061005c929190610062565b50610107565b828054600181600116156101000203166002900490600052602060002090601f016020900481019282601f106100a357805160ff19168380011785556100d1565b828001600101855582156100d1579182015b828111156100d05782518255916020019190600101906100b5565b5b5090506100de91906100e2565b5090565b61010491905b808211156101005760008160009055506001016100e8565b5090565b90565b610ba8806101166000396000f3fe608060405234801561001057600080fd5b506004361061004c5760003560e01c806306fdde03146100515780633e0c27f01461006f578063642684fb1461008d578063c942adf7146100a9575b600080fd5b6100596100e2565b6040516100669190610903565b60405180910390f35b610077610180565b6040516100849190610925565b60405180910390f35b6100a760048036036100a291908101906107c6565b610186565b005b6100c360048036036100be919081019061079d565b610342565b6040516100d99a99989796959493929190610940565b60405180910390f35b60008054600181600116156101000203166002900480601f0160208091040260200160405190810160405280929190818152602001828054600181600116156101000203166002900480156101785780601f1061014d57610100808354040283529160200191610178565b820191906000526020600020905b81548152906001019060200180831161015b57829003601f168201915b505050505081565b60025481565b60026000815480929190600101919050555060405180610180016040528060025481526020013373ffffffffffffffffffffffffffffffffffffffff168152602001428152602001868152602001858152602001848152602001838152602001828152602001600081526020016000815260200160001515815260200160008152506001600060025481526020019081526020016000206000820151816000015560208201518160010160006101000a81548173ffffffffffffffffffffffffffffffffffffffff021916908373ffffffffffffffffffffffffffffffffffffffff1602179055506040820151816002015560608201518160030155608082015181600401908051906020019061029e9291906104f3565b5060a08201518160050190805190602001906102bb929190610573565b5060c08201518160060190805190602001906102d8929190610573565b5060e08201518160070190805190602001906102f59291906104f3565b506101008201518160080155610120820151816009015561014082015181600a0160006101000a81548160ff02191690831515021790555061016082015181600b01559050505050505050565b60016020528060005260406000206000915090508060000154908060010160009054906101000a900473ffffffffffffffffffffffffffffffffffffffff1690806002015490806003015490806004018054600181600116156101000203166002900480601f0160208091040260200160405190810160405280929190818152602001828054600181600116156101000203166002900480156104265780601f106103fb57610100808354040283529160200191610426565b820191906000526020600020905b81548152906001019060200180831161040957829003601f168201915b505050505090806007018054600181600116156101000203166002900480601f0160208091040260200160405190810160405280929190818152602001828054600181600116156101000203166002900480156104c45780601f10610499576101008083540402835291602001916104c4565b820191906000526020600020905b8154815290600101906020018083116104a757829003601f168201915b50505050509080600801549080600901549080600a0160009054906101000a900460ff169080600b015490508a565b828054600181600116156101000203166002900490600052602060002090601f016020900481019282601f1061053457805160ff1916838001178555610562565b82800160010185558215610562579182015b82811115610561578251825591602001919060010190610546565b5b50905061056f91906105d3565b5090565b8280548282559060005260206000209081019282156105c2579160200282015b828111156105c15782518290805190602001906105b19291906104f3565b5091602001919060010190610593565b5b5090506105cf91906105f8565b5090565b6105f591905b808211156105f15760008160009055506001016105d9565b5090565b90565b61062191905b8082111561061d57600081816106149190610624565b506001016105fe565b5090565b90565b50805460018160011615610100020316600290046000825580601f1061064a5750610669565b601f01602090049060005260206000209081019061066891906105d3565b5b50565b600082601f83011261067d57600080fd5b813561069061068b82610a17565b6109ea565b9150818183526020840193506020810190508360005b838110156106d657813586016106bc88826106e0565b8452602084019350602083019250506001810190506106a6565b5050505092915050565b600082601f8301126106f157600080fd5b81356107046106ff82610a3f565b6109ea565b9150808252602083016020830185838301111561072057600080fd5b61072b838284610afb565b50505092915050565b600082601f83011261074557600080fd5b813561075861075382610a6b565b6109ea565b9150808252602083016020830185838301111561077457600080fd5b61077f838284610afb565b50505092915050565b60008135905061079781610b4e565b92915050565b6000602082840312156107af57600080fd5b60006107bd84828501610788565b91505092915050565b600080600080600060a086880312156107de57600080fd5b60006107ec88828901610788565b955050602086013567ffffffffffffffff81111561080957600080fd5b61081588828901610734565b945050604086013567ffffffffffffffff81111561083257600080fd5b61083e8882890161066c565b935050606086013567ffffffffffffffff81111561085b57600080fd5b6108678882890161066c565b925050608086013567ffffffffffffffff81111561088457600080fd5b61089088828901610734565b9150509295509295909350565b6108a681610ab3565b82525050565b6108b581610ac5565b82525050565b60006108c682610a97565b6108d08185610aa2565b93506108e0818560208601610b0a565b6108e981610b3d565b840191505092915050565b6108fd81610af1565b82525050565b6000602082019050818103600083015261091d81846108bb565b905092915050565b600060208201905061093a60008301846108f4565b92915050565b600061014082019050610956600083018d6108f4565b610963602083018c61089d565b610970604083018b6108f4565b61097d606083018a6108f4565b818103608083015261098f81896108bb565b905081810360a08301526109a381886108bb565b90506109b260c08301876108f4565b6109bf60e08301866108f4565b6109cd6101008301856108ac565b6109db6101208301846108f4565b9b9a5050505050505050505050565b6000604051905081810181811067ffffffffffffffff82111715610a0d57600080fd5b8060405250919050565b600067ffffffffffffffff821115610a2e57600080fd5b602082029050602081019050919050565b600067ffffffffffffffff821115610a5657600080fd5b601f19601f8301169050602081019050919050565b600067ffffffffffffffff821115610a8257600080fd5b601f19601f8301169050602081019050919050565b600081519050919050565b600082825260208201905092915050565b6000610abe82610ad1565b9050919050565b60008115159050919050565b600073ffffffffffffffffffffffffffffffffffffffff82169050919050565b6000819050919050565b82818337600083830152505050565b60005b83811015610b28578082015181840152602081019050610b0d565b83811115610b37576000848401525b50505050565b6000601f19601f8301169050919050565b610b5781610af1565b8114610b6257600080fd5b5056fea365627a7a723158206907fab1bf8f479d7586abcfa19842931efe004da7c0c6137722bf9413a91a136c6578706572696d656e74616cf564736f6c63430005100040",
  "source": "// SPDX-License-Identifier: Blockchain\r\npragma solidity ^0.5.16;\r\npragma experimental ABIEncoderV2;\r\n\r\ncontract Reports {\r\n    string public name;\r\n\r\n    constructor() public {\r\n        name = \"Reports Solidity Contract\";\r\n    }\r\n\r\n    struct Report {\r\n        uint256 id;\r\n        address reporter;\r\n        uint256 reportDate;\r\n        uint256 orderId;\r\n        string title;\r\n        string[] imageHash;\r\n        string[] missingItems;\r\n        string remarks;\r\n        uint256 approvalCount;\r\n        uint256 rejectionCount;\r\n        bool complete;\r\n        uint256 penaltyFee;\r\n    }\r\n\r\n    mapping(uint256 => Report) public reports;\r\n    uint256 public reportsCount;\r\n\r\n    function createReport(\r\n        uint256 _orderId,\r\n        string memory _title,\r\n        string[] memory _imageHash,\r\n        string[] memory _missingItems,\r\n        string memory _remarks\r\n    ) public {\r\n        reportsCount++;\r\n        reports[reportsCount] = Report(\r\n            reportsCount,\r\n            msg.sender,\r\n            now,\r\n            _orderId,\r\n            _title,\r\n            _imageHash,\r\n            _missingItems,\r\n            _remarks,\r\n            0,\r\n            0,\r\n            false,\r\n            0\r\n        );\r\n    }\r\n}\r\n",
  "sourcePath": "C:/Users/Casuarina/Desktop/FYP_FoodIndustry/blockchain/src/contracts/Reports.sol",
  "compiler": {
    "name": "solc",
    "version": "0.5.16+commit.9c3226ce.Emscripten.clang"
  },
  "schemaVersion": "3.4.1",
  "updatedAt": "2021-08-06T17:23:00.114Z",
  "networkType": "ethereum",
  "devdoc": {
    "methods": {}
  },
  "userdoc": {
    "methods": {}
  }
}