{
  "contractName": "Reports",
  "abi": [
    {
      "inputs": [],
      "payable": false,
      "stateMutability": "nonpayable",
      "type": "constructor"
    },
    {
      "constant": true,
      "inputs": [],
      "name": "name",
      "outputs": [
        {
          "internalType": "string",
          "name": "",
          "type": "string"
        }
      ],
      "payable": false,
      "stateMutability": "view",
      "type": "function"
    },
    {
      "constant": true,
      "inputs": [
        {
          "internalType": "uint256",
          "name": "",
          "type": "uint256"
        }
      ],
      "name": "reports",
      "outputs": [
        {
          "internalType": "uint256",
          "name": "id",
          "type": "uint256"
        },
        {
          "internalType": "address",
          "name": "owner",
          "type": "address"
        },
        {
          "internalType": "address",
          "name": "hawker",
          "type": "address"
        },
        {
          "internalType": "uint256",
          "name": "claimAmt",
          "type": "uint256"
        },
        {
          "internalType": "uint256",
          "name": "reportDate",
          "type": "uint256"
        },
        {
          "internalType": "uint256",
          "name": "deadlineDate",
          "type": "uint256"
        },
        {
          "internalType": "uint256",
          "name": "orderId",
          "type": "uint256"
        },
        {
          "internalType": "string",
          "name": "title",
          "type": "string"
        },
        {
          "internalType": "string",
          "name": "remarks",
          "type": "string"
        },
        {
          "internalType": "uint256",
          "name": "approvalCount",
          "type": "uint256"
        },
        {
          "internalType": "uint256",
          "name": "rejectionCount",
          "type": "uint256"
        },
        {
          "internalType": "bool",
          "name": "resolved",
          "type": "bool"
        }
      ],
      "payable": false,
      "stateMutability": "view",
      "type": "function"
    },
    {
      "constant": true,
      "inputs": [],
      "name": "reportsCount",
      "outputs": [
        {
          "internalType": "uint256",
          "name": "",
          "type": "uint256"
        }
      ],
      "payable": false,
      "stateMutability": "view",
      "type": "function"
    },
    {
      "constant": false,
      "inputs": [
        {
          "internalType": "address",
          "name": "_hawkerAddress",
          "type": "address"
        },
        {
          "internalType": "uint256",
          "name": "_claimAmt",
          "type": "uint256"
        },
        {
          "internalType": "uint256",
          "name": "_orderId",
          "type": "uint256"
        },
        {
          "internalType": "string",
          "name": "_title",
          "type": "string"
        },
        {
          "internalType": "string[]",
          "name": "_imageHash",
          "type": "string[]"
        },
        {
          "internalType": "string[]",
          "name": "_missingItems",
          "type": "string[]"
        },
        {
          "internalType": "string",
          "name": "_remarks",
          "type": "string"
        }
      ],
      "name": "createReport",
      "outputs": [],
      "payable": false,
      "stateMutability": "nonpayable",
      "type": "function"
    },
    {
      "constant": false,
      "inputs": [
        {
          "internalType": "uint256",
          "name": "_reportId",
          "type": "uint256"
        }
      ],
      "name": "getImageHash",
      "outputs": [
        {
          "internalType": "string[]",
          "name": "imageHash",
          "type": "string[]"
        }
      ],
      "payable": false,
      "stateMutability": "nonpayable",
      "type": "function"
    },
    {
      "constant": false,
      "inputs": [
        {
          "internalType": "uint256",
          "name": "_reportId",
          "type": "uint256"
        }
      ],
      "name": "getMissingItems",
      "outputs": [
        {
          "internalType": "string[]",
          "name": "missingItems",
          "type": "string[]"
        }
      ],
      "payable": false,
      "stateMutability": "nonpayable",
      "type": "function"
    },
    {
      "constant": false,
      "inputs": [
        {
          "internalType": "uint256",
          "name": "_reportId",
          "type": "uint256"
        }
      ],
      "name": "getVoters",
      "outputs": [
        {
          "internalType": "address[]",
          "name": "voters",
          "type": "address[]"
        }
      ],
      "payable": false,
      "stateMutability": "nonpayable",
      "type": "function"
    },
    {
      "constant": false,
      "inputs": [
        {
          "internalType": "uint256",
          "name": "_reportId",
          "type": "uint256"
        }
      ],
      "name": "addApprovalCount",
      "outputs": [],
      "payable": false,
      "stateMutability": "nonpayable",
      "type": "function"
    },
    {
      "constant": false,
      "inputs": [
        {
          "internalType": "uint256",
          "name": "_reportId",
          "type": "uint256"
        }
      ],
      "name": "addRejectionCount",
      "outputs": [],
      "payable": false,
      "stateMutability": "nonpayable",
      "type": "function"
    },
    {
      "constant": false,
      "inputs": [
        {
          "internalType": "uint256",
          "name": "reportId",
          "type": "uint256"
        },
        {
          "internalType": "address payable",
          "name": "_reporter",
          "type": "address"
        },
        {
          "internalType": "uint256",
          "name": "_claimAmt",
          "type": "uint256"
        }
      ],
      "name": "resolveReport",
      "outputs": [],
      "payable": true,
      "stateMutability": "payable",
      "type": "function"
    }
  ],
  "bytecode": "0x60806040523480156200001157600080fd5b506040518060400160405280601981526020017f5265706f72747320536f6c696469747920436f6e747261637400000000000000815250600090805190602001906200005f92919062000066565b5062000115565b828054600181600116156101000203166002900490600052602060002090601f016020900481019282601f10620000a957805160ff1916838001178555620000da565b82800160010185558215620000da579182015b82811115620000d9578251825591602001919060010190620000bc565b5b509050620000e99190620000ed565b5090565b6200011291905b808211156200010e576000816000905550600101620000f4565b5090565b90565b61169680620001256000396000f3fe6080604052600436106100915760003560e01c80636283446211610059578063628344621461015a57806386b646f2146101975780639f05ab0b146101d4578063c942adf7146101fd578063f91d27cf1461024557610091565b806306fdde03146100965780631413e7a6146100c15780631896f61e146100dd5780633e0c27f0146101065780634fdcea7b14610131575b600080fd5b3480156100a257600080fd5b506100ab610282565b6040516100b89190611310565b60405180910390f35b6100db60048036036100d691908101906110d0565b610320565b005b3480156100e957600080fd5b5061010460048036036100ff91908101906110a7565b61039a565b005b34801561011257600080fd5b5061011b61044a565b6040516101289190611332565b60405180910390f35b34801561013d57600080fd5b50610158600480360361015391908101906110a7565b610450565b005b34801561016657600080fd5b50610181600480360361017c91908101906110a7565b610500565b60405161018e91906112ee565b60405180910390f35b3480156101a357600080fd5b506101be60048036036101b991908101906110a7565b6105ff565b6040516101cb91906112cc565b60405180910390f35b3480156101e057600080fd5b506101fb60048036036101f69190810190610fa9565b6106a3565b005b34801561020957600080fd5b50610224600480360361021f91908101906110a7565b61092c565b60405161023c9c9b9a9998979695949392919061134d565b60405180910390f35b34801561025157600080fd5b5061026c600480360361026791908101906110a7565b610b09565b60405161027991906112ee565b60405180910390f35b60008054600181600116156101000203166002900480601f0160208091040260200160405190810160405280929190818152602001828054600181600116156101000203166002900480156103185780601f106102ed57610100808354040283529160200191610318565b820191906000526020600020905b8154815290600101906020018083116102fb57829003601f168201915b505050505081565b8173ffffffffffffffffffffffffffffffffffffffff166108fc829081150290604051600060405180830381858888f19350505050158015610366573d6000803e3d6000fd5b506001806000858152602001908152602001600020600e0160006101000a81548160ff021916908315150217905550505050565b6001806000838152602001908152602001600020600c01540160016000838152602001908152602001600020600c018190555060016000828152602001908152602001600020600d013390806001815401808255809150509060018203906000526020600020016000909192909190916101000a81548173ffffffffffffffffffffffffffffffffffffffff021916908373ffffffffffffffffffffffffffffffffffffffff1602179055505050565b60025481565b6001806000838152602001908152602001600020600b01540160016000838152602001908152602001600020600b018190555060016000828152602001908152602001600020600d013390806001815401808255809150509060018203906000526020600020016000909192909190916101000a81548173ffffffffffffffffffffffffffffffffffffffff021916908373ffffffffffffffffffffffffffffffffffffffff1602179055505050565b606060016000838152602001908152602001600020600801805480602002602001604051908101604052809291908181526020016000905b828210156105f4578382906000526020600020018054600181600116156101000203166002900480601f0160208091040260200160405190810160405280929190818152602001828054600181600116156101000203166002900480156105e05780601f106105b5576101008083540402835291602001916105e0565b820191906000526020600020905b8154815290600101906020018083116105c357829003601f168201915b505050505081526020019060010190610538565b505050509050919050565b606060016000838152602001908152602001600020600d0180548060200260200160405190810160405280929190818152602001828054801561069757602002820191906000526020600020905b8160009054906101000a900473ffffffffffffffffffffffffffffffffffffffff1673ffffffffffffffffffffffffffffffffffffffff168152602001906001019080831161064d575b50505050509050919050565b600260008154809291906001019190505550604051806101e0016040528060025481526020013373ffffffffffffffffffffffffffffffffffffffff1681526020018873ffffffffffffffffffffffffffffffffffffffff168152602001878152602001428152602001603c42018152602001868152602001858152602001848152602001838152602001828152602001600081526020016000815260200160006040519080825280602002602001820160405280156107725781602001602082028038833980820191505090505b508152602001600015158152506001600060025481526020019081526020016000206000820151816000015560208201518160010160006101000a81548173ffffffffffffffffffffffffffffffffffffffff021916908373ffffffffffffffffffffffffffffffffffffffff16021790555060408201518160020160006101000a81548173ffffffffffffffffffffffffffffffffffffffff021916908373ffffffffffffffffffffffffffffffffffffffff160217905550606082015181600301556080820151816004015560a0820151816005015560c0820151816006015560e0820151816007019080519060200190610870929190610c08565b5061010082015181600801908051906020019061088e929190610c88565b506101208201518160090190805190602001906108ac929190610c88565b5061014082015181600a0190805190602001906108ca929190610c08565b5061016082015181600b015561018082015181600c01556101a082015181600d0190805190602001906108fe929190610ce8565b506101c082015181600e0160006101000a81548160ff02191690831515021790555090505050505050505050565b60016020528060005260406000206000915090508060000154908060010160009054906101000a900473ffffffffffffffffffffffffffffffffffffffff16908060020160009054906101000a900473ffffffffffffffffffffffffffffffffffffffff1690806003015490806004015490806005015490806006015490806007018054600181600116156101000203166002900480601f016020809104026020016040519081016040528092919081815260200182805460018160011615610100020316600290048015610a425780601f10610a1757610100808354040283529160200191610a42565b820191906000526020600020905b815481529060010190602001808311610a2557829003601f168201915b50505050509080600a018054600181600116156101000203166002900480601f016020809104026020016040519081016040528092919081815260200182805460018160011615610100020316600290048015610ae05780601f10610ab557610100808354040283529160200191610ae0565b820191906000526020600020905b815481529060010190602001808311610ac357829003601f168201915b50505050509080600b01549080600c01549080600e0160009054906101000a900460ff1690508c565b606060016000838152602001908152602001600020600901805480602002602001604051908101604052809291908181526020016000905b82821015610bfd578382906000526020600020018054600181600116156101000203166002900480601f016020809104026020016040519081016040528092919081815260200182805460018160011615610100020316600290048015610be95780601f10610bbe57610100808354040283529160200191610be9565b820191906000526020600020905b815481529060010190602001808311610bcc57829003601f168201915b505050505081526020019060010190610b41565b505050509050919050565b828054600181600116156101000203166002900490600052602060002090601f016020900481019282601f10610c4957805160ff1916838001178555610c77565b82800160010185558215610c77579182015b82811115610c76578251825591602001919060010190610c5b565b5b509050610c849190610d72565b5090565b828054828255906000526020600020908101928215610cd7579160200282015b82811115610cd6578251829080519060200190610cc6929190610c08565b5091602001919060010190610ca8565b5b509050610ce49190610d97565b5090565b828054828255906000526020600020908101928215610d61579160200282015b82811115610d605782518260006101000a81548173ffffffffffffffffffffffffffffffffffffffff021916908373ffffffffffffffffffffffffffffffffffffffff16021790555091602001919060010190610d08565b5b509050610d6e9190610dc3565b5090565b610d9491905b80821115610d90576000816000905550600101610d78565b5090565b90565b610dc091905b80821115610dbc5760008181610db39190610e06565b50600101610d9d565b5090565b90565b610e0391905b80821115610dff57600081816101000a81549073ffffffffffffffffffffffffffffffffffffffff021916905550600101610dc9565b5090565b90565b50805460018160011615610100020316600290046000825580601f10610e2c5750610e4b565b601f016020900490600052602060002090810190610e4a9190610d72565b5b50565b600081359050610e5d8161160e565b92915050565b600081359050610e7281611625565b92915050565b600082601f830112610e8957600080fd5b8135610e9c610e9782611442565b611415565b9150818183526020840193506020810190508360005b83811015610ee25781358601610ec88882610eec565b845260208401935060208301925050600181019050610eb2565b5050505092915050565b600082601f830112610efd57600080fd5b8135610f10610f0b8261146a565b611415565b91508082526020830160208301858383011115610f2c57600080fd5b610f378382846115bb565b50505092915050565b600082601f830112610f5157600080fd5b8135610f64610f5f82611496565b611415565b91508082526020830160208301858383011115610f8057600080fd5b610f8b8382846115bb565b50505092915050565b600081359050610fa38161163c565b92915050565b600080600080600080600060e0888a031215610fc457600080fd5b6000610fd28a828b01610e4e565b9750506020610fe38a828b01610f94565b9650506040610ff48a828b01610f94565b955050606088013567ffffffffffffffff81111561101157600080fd5b61101d8a828b01610f40565b945050608088013567ffffffffffffffff81111561103a57600080fd5b6110468a828b01610e78565b93505060a088013567ffffffffffffffff81111561106357600080fd5b61106f8a828b01610e78565b92505060c088013567ffffffffffffffff81111561108c57600080fd5b6110988a828b01610f40565b91505092959891949750929550565b6000602082840312156110b957600080fd5b60006110c784828501610f94565b91505092915050565b6000806000606084860312156110e557600080fd5b60006110f386828701610f94565b935050602061110486828701610e63565b925050604061111586828701610f94565b9150509250925092565b600061112b838361114b565b60208301905092915050565b6000611143838361124b565b905092915050565b61115481611561565b82525050565b61116381611561565b82525050565b6000611174826114e2565b61117e818561151d565b9350611189836114c2565b8060005b838110156111ba5781516111a1888261111f565b97506111ac83611503565b92505060018101905061118d565b5085935050505092915050565b60006111d2826114ed565b6111dc818561152e565b9350836020820285016111ee856114d2565b8060005b8581101561122a578484038952815161120b8582611137565b945061121683611510565b925060208a019950506001810190506111f2565b50829750879550505050505092915050565b61124581611585565b82525050565b6000611256826114f8565b611260818561153f565b93506112708185602086016115ca565b611279816115fd565b840191505092915050565b600061128f826114f8565b6112998185611550565b93506112a98185602086016115ca565b6112b2816115fd565b840191505092915050565b6112c6816115b1565b82525050565b600060208201905081810360008301526112e68184611169565b905092915050565b6000602082019050818103600083015261130881846111c7565b905092915050565b6000602082019050818103600083015261132a8184611284565b905092915050565b600060208201905061134760008301846112bd565b92915050565b600061018082019050611363600083018f6112bd565b611370602083018e61115a565b61137d604083018d61115a565b61138a606083018c6112bd565b611397608083018b6112bd565b6113a460a083018a6112bd565b6113b160c08301896112bd565b81810360e08301526113c38188611284565b90508181036101008301526113d88187611284565b90506113e86101208301866112bd565b6113f66101408301856112bd565b61140461016083018461123c565b9d9c50505050505050505050505050565b6000604051905081810181811067ffffffffffffffff8211171561143857600080fd5b8060405250919050565b600067ffffffffffffffff82111561145957600080fd5b602082029050602081019050919050565b600067ffffffffffffffff82111561148157600080fd5b601f19601f8301169050602081019050919050565b600067ffffffffffffffff8211156114ad57600080fd5b601f19601f8301169050602081019050919050565b6000819050602082019050919050565b6000819050602082019050919050565b600081519050919050565b600081519050919050565b600081519050919050565b6000602082019050919050565b6000602082019050919050565b600082825260208201905092915050565b600082825260208201905092915050565b600082825260208201905092915050565b600082825260208201905092915050565b600061156c82611591565b9050919050565b600061157e82611591565b9050919050565b60008115159050919050565b600073ffffffffffffffffffffffffffffffffffffffff82169050919050565b6000819050919050565b82818337600083830152505050565b60005b838110156115e85780820151818401526020810190506115cd565b838111156115f7576000848401525b50505050565b6000601f19601f8301169050919050565b61161781611561565b811461162257600080fd5b50565b61162e81611573565b811461163957600080fd5b50565b611645816115b1565b811461165057600080fd5b5056fea365627a7a723158202e345a4232ac8f8c550a8aa7dcf70599ffd82886d4c3514f15f0cc8b0e95de3f6c6578706572696d656e74616cf564736f6c63430005100040",
  "source": "// SPDX-License-Identifier: Blockchain\r\npragma solidity ^0.5.16;\r\npragma experimental ABIEncoderV2;\r\n\r\ncontract Reports {\r\n    string public name;\r\n\r\n    constructor() public {\r\n        name = \"Reports Solidity Contract\";\r\n    }\r\n\r\n    struct Report {\r\n        uint256 id;\r\n        address owner;\r\n        address hawker;\r\n        uint256 claimAmt;\r\n        uint256 reportDate;\r\n        uint256 deadlineDate;\r\n        uint256 orderId;\r\n        string title;\r\n        string[] imageHash;\r\n        string[] missingItems;\r\n        string remarks;\r\n        uint256 approvalCount;\r\n        uint256 rejectionCount;\r\n        address[] voters;\r\n        bool resolved;\r\n    }\r\n\r\n    mapping(uint256 => Report) public reports;\r\n    uint256 public reportsCount;\r\n\r\n    function createReport(\r\n        address _hawkerAddress,\r\n        uint256 _claimAmt,\r\n        uint256 _orderId,\r\n        string memory _title,\r\n        string[] memory _imageHash,\r\n        string[] memory _missingItems,\r\n        string memory _remarks\r\n    ) public {\r\n        reportsCount++;\r\n        reports[reportsCount] = Report(\r\n            reportsCount,\r\n            msg.sender,\r\n            _hawkerAddress,\r\n            _claimAmt,\r\n            now,\r\n            now + 60,\r\n            // now + 3 * 1 days,\r\n            _orderId,\r\n            _title,\r\n            _imageHash,\r\n            _missingItems,\r\n            _remarks,\r\n            0,\r\n            0,\r\n            new address[](0),\r\n            false\r\n        );\r\n    }\r\n\r\n    function getImageHash(uint256 _reportId)\r\n        public\r\n        returns (string[] memory imageHash)\r\n    {\r\n        return reports[_reportId].imageHash;\r\n    }\r\n\r\n    function getMissingItems(uint256 _reportId)\r\n        public\r\n        returns (string[] memory missingItems)\r\n    {\r\n        return reports[_reportId].missingItems;\r\n    }\r\n\r\n    function getVoters(uint256 _reportId)\r\n        public\r\n        returns (address[] memory voters)\r\n    {\r\n        return reports[_reportId].voters;\r\n    }\r\n\r\n    function addApprovalCount(uint256 _reportId) public {\r\n        reports[_reportId].approvalCount = reports[_reportId].approvalCount + 1;\r\n        (reports[_reportId].voters).push(msg.sender);\r\n    }\r\n\r\n    function addRejectionCount(uint256 _reportId) public {\r\n        reports[_reportId].rejectionCount =\r\n            reports[_reportId].rejectionCount +\r\n            1;\r\n        (reports[_reportId].voters).push(msg.sender);\r\n    }\r\n\r\n    // function claimReturns(address payable _hawker, uint256 _claimAmt)\r\n    //     public\r\n    //     payable\r\n    // {\r\n    //     _hawker.transfer(_claimAmt);\r\n    // }\r\n\r\n    function resolveReport(\r\n        uint256 reportId,\r\n        address payable _reporter,\r\n        uint256 _claimAmt\r\n    ) public payable {\r\n        address(_reporter).transfer(_claimAmt);\r\n        reports[reportId].resolved = true;\r\n    }\r\n}\r\n",
  "sourcePath": "C:/Users/Casuarina/Desktop/FYP_FoodIndustry/blockchain/src/contracts/Reports.sol",
  "compiler": {
    "name": "solc",
    "version": "0.5.16+commit.9c3226ce.Emscripten.clang"
  },
  "schemaVersion": "3.4.1",
  "updatedAt": "2021-08-24T11:20:53.144Z",
  "networkType": "ethereum",
  "devdoc": {
    "methods": {}
  },
  "userdoc": {
    "methods": {}
  }
}