{
  "contractName": "Reports",
  "abi": [
    {
      "inputs": [],
      "payable": false,
      "stateMutability": "nonpayable",
      "type": "constructor"
    },
    {
      "constant": true,
      "inputs": [],
      "name": "name",
      "outputs": [
        {
          "internalType": "string",
          "name": "",
          "type": "string"
        }
      ],
      "payable": false,
      "stateMutability": "view",
      "type": "function"
    },
    {
      "constant": true,
      "inputs": [
        {
          "internalType": "uint256",
          "name": "",
          "type": "uint256"
        }
      ],
      "name": "reports",
      "outputs": [
        {
          "internalType": "uint256",
          "name": "id",
          "type": "uint256"
        },
        {
          "internalType": "address",
          "name": "reporter",
          "type": "address"
        },
        {
          "internalType": "uint256",
          "name": "reportDate",
          "type": "uint256"
        },
        {
          "internalType": "uint256",
          "name": "orderId",
          "type": "uint256"
        },
        {
          "internalType": "string",
          "name": "title",
          "type": "string"
        },
        {
          "internalType": "string",
          "name": "remarks",
          "type": "string"
        },
        {
          "internalType": "uint256",
          "name": "approvalCount",
          "type": "uint256"
        },
        {
          "internalType": "uint256",
          "name": "rejectionCount",
          "type": "uint256"
        },
        {
          "internalType": "bool",
          "name": "complete",
          "type": "bool"
        },
        {
          "internalType": "uint256",
          "name": "penaltyFee",
          "type": "uint256"
        }
      ],
      "payable": false,
      "stateMutability": "view",
      "type": "function"
    },
    {
      "constant": true,
      "inputs": [],
      "name": "reportsCount",
      "outputs": [
        {
          "internalType": "uint256",
          "name": "",
          "type": "uint256"
        }
      ],
      "payable": false,
      "stateMutability": "view",
      "type": "function"
    },
    {
      "constant": false,
      "inputs": [
        {
          "internalType": "uint256",
          "name": "_orderId",
          "type": "uint256"
        },
        {
          "internalType": "string",
          "name": "_title",
          "type": "string"
        },
        {
          "internalType": "string[]",
          "name": "_imageHash",
          "type": "string[]"
        },
        {
          "internalType": "string[]",
          "name": "_missingItems",
          "type": "string[]"
        },
        {
          "internalType": "string",
          "name": "_remarks",
          "type": "string"
        }
      ],
      "name": "createReport",
      "outputs": [],
      "payable": false,
      "stateMutability": "nonpayable",
      "type": "function"
    },
    {
      "constant": false,
      "inputs": [
        {
          "internalType": "uint256",
          "name": "_reportId",
          "type": "uint256"
        }
      ],
      "name": "getImageHash",
      "outputs": [
        {
          "internalType": "string[]",
          "name": "imageHash",
          "type": "string[]"
        }
      ],
      "payable": false,
      "stateMutability": "nonpayable",
      "type": "function"
    },
    {
      "constant": false,
      "inputs": [
        {
          "internalType": "uint256",
          "name": "_reportId",
          "type": "uint256"
        }
      ],
      "name": "getMissingItems",
      "outputs": [
        {
          "internalType": "string[]",
          "name": "missingItems",
          "type": "string[]"
        }
      ],
      "payable": false,
      "stateMutability": "nonpayable",
      "type": "function"
    },
    {
      "constant": false,
      "inputs": [
        {
          "internalType": "uint256",
          "name": "_reportId",
          "type": "uint256"
        }
      ],
      "name": "getVoters",
      "outputs": [
        {
          "internalType": "address[]",
          "name": "voters",
          "type": "address[]"
        }
      ],
      "payable": false,
      "stateMutability": "nonpayable",
      "type": "function"
    },
    {
      "constant": false,
      "inputs": [
        {
          "internalType": "uint256",
          "name": "_reportId",
          "type": "uint256"
        }
      ],
      "name": "addApprovalCount",
      "outputs": [],
      "payable": false,
      "stateMutability": "nonpayable",
      "type": "function"
    },
    {
      "constant": false,
      "inputs": [
        {
          "internalType": "uint256",
          "name": "_reportId",
          "type": "uint256"
        }
      ],
      "name": "addRejectionCount",
      "outputs": [],
      "payable": false,
      "stateMutability": "nonpayable",
      "type": "function"
    }
  ],
  "bytecode": "0x60806040523480156200001157600080fd5b506040518060400160405280601981526020017f5265706f72747320536f6c696469747920436f6e747261637400000000000000815250600090805190602001906200005f92919062000066565b5062000115565b828054600181600116156101000203166002900490600052602060002090601f016020900481019282601f10620000a957805160ff1916838001178555620000da565b82800160010185558215620000da579182015b82811115620000d9578251825591602001919060010190620000bc565b5b509050620000e99190620000ed565b5090565b6200011291905b808211156200010e576000816000905550600101620000f4565b5090565b90565b6113e880620001256000396000f3fe608060405234801561001057600080fd5b50600436106100935760003560e01c80636283446211610066578063628344621461010c578063642684fb1461013c57806386b646f214610158578063c942adf714610188578063f91d27cf146101c157610093565b806306fdde03146100985780631896f61e146100b65780633e0c27f0146100d25780634fdcea7b146100f0575b600080fd5b6100a06101f1565b6040516100ad91906110c0565b60405180910390f35b6100d060048036036100cb9190810190610dcf565b61028f565b005b6100da61033f565b6040516100e791906110e2565b60405180910390f35b61010a60048036036101059190810190610dcf565b610345565b005b61012660048036036101219190810190610dcf565b6103f5565b604051610133919061109e565b60405180910390f35b61015660048036036101519190810190610df8565b6104f4565b005b610172600480360361016d9190810190610dcf565b610704565b60405161017f919061107c565b60405180910390f35b6101a2600480360361019d9190810190610dcf565b6107a8565b6040516101b89a999897969594939291906110fd565b60405180910390f35b6101db60048036036101d69190810190610dcf565b610959565b6040516101e8919061109e565b60405180910390f35b60008054600181600116156101000203166002900480601f0160208091040260200160405190810160405280929190818152602001828054600181600116156101000203166002900480156102875780601f1061025c57610100808354040283529160200191610287565b820191906000526020600020905b81548152906001019060200180831161026a57829003601f168201915b505050505081565b60018060008381526020019081526020016000206009015401600160008381526020019081526020016000206009018190555060016000828152602001908152602001600020600a013390806001815401808255809150509060018203906000526020600020016000909192909190916101000a81548173ffffffffffffffffffffffffffffffffffffffff021916908373ffffffffffffffffffffffffffffffffffffffff1602179055505050565b60025481565b60018060008381526020019081526020016000206008015401600160008381526020019081526020016000206008018190555060016000828152602001908152602001600020600a013390806001815401808255809150509060018203906000526020600020016000909192909190916101000a81548173ffffffffffffffffffffffffffffffffffffffff021916908373ffffffffffffffffffffffffffffffffffffffff1602179055505050565b606060016000838152602001908152602001600020600501805480602002602001604051908101604052809291908181526020016000905b828210156104e9578382906000526020600020018054600181600116156101000203166002900480601f0160208091040260200160405190810160405280929190818152602001828054600181600116156101000203166002900480156104d55780601f106104aa576101008083540402835291602001916104d5565b820191906000526020600020905b8154815290600101906020018083116104b857829003601f168201915b50505050508152602001906001019061042d565b505050509050919050565b600260008154809291906001019190505550604051806101a0016040528060025481526020013373ffffffffffffffffffffffffffffffffffffffff168152602001428152602001868152602001858152602001848152602001838152602001828152602001600081526020016000815260200160006040519080825280602002602001820160405280156105985781602001602082028038833980820191505090505b50815260200160001515815260200160008152506001600060025481526020019081526020016000206000820151816000015560208201518160010160006101000a81548173ffffffffffffffffffffffffffffffffffffffff021916908373ffffffffffffffffffffffffffffffffffffffff16021790555060408201518160020155606082015181600301556080820151816004019080519060200190610642929190610a58565b5060a082015181600501908051906020019061065f929190610ad8565b5060c082015181600601908051906020019061067c929190610ad8565b5060e0820151816007019080519060200190610699929190610a58565b506101008201518160080155610120820151816009015561014082015181600a0190805190602001906106cd929190610b38565b5061016082015181600b0160006101000a81548160ff02191690831515021790555061018082015181600c01559050505050505050565b606060016000838152602001908152602001600020600a0180548060200260200160405190810160405280929190818152602001828054801561079c57602002820191906000526020600020905b8160009054906101000a900473ffffffffffffffffffffffffffffffffffffffff1673ffffffffffffffffffffffffffffffffffffffff1681526020019060010190808311610752575b50505050509050919050565b60016020528060005260406000206000915090508060000154908060010160009054906101000a900473ffffffffffffffffffffffffffffffffffffffff1690806002015490806003015490806004018054600181600116156101000203166002900480601f01602080910402602001604051908101604052809291908181526020018280546001816001161561010002031660029004801561088c5780601f106108615761010080835404028352916020019161088c565b820191906000526020600020905b81548152906001019060200180831161086f57829003601f168201915b505050505090806007018054600181600116156101000203166002900480601f01602080910402602001604051908101604052809291908181526020018280546001816001161561010002031660029004801561092a5780601f106108ff5761010080835404028352916020019161092a565b820191906000526020600020905b81548152906001019060200180831161090d57829003601f168201915b50505050509080600801549080600901549080600b0160009054906101000a900460ff169080600c015490508a565b606060016000838152602001908152602001600020600601805480602002602001604051908101604052809291908181526020016000905b82821015610a4d578382906000526020600020018054600181600116156101000203166002900480601f016020809104026020016040519081016040528092919081815260200182805460018160011615610100020316600290048015610a395780601f10610a0e57610100808354040283529160200191610a39565b820191906000526020600020905b815481529060010190602001808311610a1c57829003601f168201915b505050505081526020019060010190610991565b505050509050919050565b828054600181600116156101000203166002900490600052602060002090601f016020900481019282601f10610a9957805160ff1916838001178555610ac7565b82800160010185558215610ac7579182015b82811115610ac6578251825591602001919060010190610aab565b5b509050610ad49190610bc2565b5090565b828054828255906000526020600020908101928215610b27579160200282015b82811115610b26578251829080519060200190610b16929190610a58565b5091602001919060010190610af8565b5b509050610b349190610be7565b5090565b828054828255906000526020600020908101928215610bb1579160200282015b82811115610bb05782518260006101000a81548173ffffffffffffffffffffffffffffffffffffffff021916908373ffffffffffffffffffffffffffffffffffffffff16021790555091602001919060010190610b58565b5b509050610bbe9190610c13565b5090565b610be491905b80821115610be0576000816000905550600101610bc8565b5090565b90565b610c1091905b80821115610c0c5760008181610c039190610c56565b50600101610bed565b5090565b90565b610c5391905b80821115610c4f57600081816101000a81549073ffffffffffffffffffffffffffffffffffffffff021916905550600101610c19565b5090565b90565b50805460018160011615610100020316600290046000825580601f10610c7c5750610c9b565b601f016020900490600052602060002090810190610c9a9190610bc2565b5b50565b600082601f830112610caf57600080fd5b8135610cc2610cbd826111d4565b6111a7565b9150818183526020840193506020810190508360005b83811015610d085781358601610cee8882610d12565b845260208401935060208301925050600181019050610cd8565b5050505092915050565b600082601f830112610d2357600080fd5b8135610d36610d31826111fc565b6111a7565b91508082526020830160208301858383011115610d5257600080fd5b610d5d83828461133b565b50505092915050565b600082601f830112610d7757600080fd5b8135610d8a610d8582611228565b6111a7565b91508082526020830160208301858383011115610da657600080fd5b610db183828461133b565b50505092915050565b600081359050610dc98161138e565b92915050565b600060208284031215610de157600080fd5b6000610def84828501610dba565b91505092915050565b600080600080600060a08688031215610e1057600080fd5b6000610e1e88828901610dba565b955050602086013567ffffffffffffffff811115610e3b57600080fd5b610e4788828901610d66565b945050604086013567ffffffffffffffff811115610e6457600080fd5b610e7088828901610c9e565b935050606086013567ffffffffffffffff811115610e8d57600080fd5b610e9988828901610c9e565b925050608086013567ffffffffffffffff811115610eb657600080fd5b610ec288828901610d66565b9150509295509295909350565b6000610edb8383610efb565b60208301905092915050565b6000610ef38383610ffb565b905092915050565b610f04816112f3565b82525050565b610f13816112f3565b82525050565b6000610f2482611274565b610f2e81856112af565b9350610f3983611254565b8060005b83811015610f6a578151610f518882610ecf565b9750610f5c83611295565b925050600181019050610f3d565b5085935050505092915050565b6000610f828261127f565b610f8c81856112c0565b935083602082028501610f9e85611264565b8060005b85811015610fda5784840389528151610fbb8582610ee7565b9450610fc6836112a2565b925060208a01995050600181019050610fa2565b50829750879550505050505092915050565b610ff581611305565b82525050565b60006110068261128a565b61101081856112d1565b935061102081856020860161134a565b6110298161137d565b840191505092915050565b600061103f8261128a565b61104981856112e2565b935061105981856020860161134a565b6110628161137d565b840191505092915050565b61107681611331565b82525050565b600060208201905081810360008301526110968184610f19565b905092915050565b600060208201905081810360008301526110b88184610f77565b905092915050565b600060208201905081810360008301526110da8184611034565b905092915050565b60006020820190506110f7600083018461106d565b92915050565b600061014082019050611113600083018d61106d565b611120602083018c610f0a565b61112d604083018b61106d565b61113a606083018a61106d565b818103608083015261114c8189611034565b905081810360a08301526111608188611034565b905061116f60c083018761106d565b61117c60e083018661106d565b61118a610100830185610fec565b61119861012083018461106d565b9b9a5050505050505050505050565b6000604051905081810181811067ffffffffffffffff821117156111ca57600080fd5b8060405250919050565b600067ffffffffffffffff8211156111eb57600080fd5b602082029050602081019050919050565b600067ffffffffffffffff82111561121357600080fd5b601f19601f8301169050602081019050919050565b600067ffffffffffffffff82111561123f57600080fd5b601f19601f8301169050602081019050919050565b6000819050602082019050919050565b6000819050602082019050919050565b600081519050919050565b600081519050919050565b600081519050919050565b6000602082019050919050565b6000602082019050919050565b600082825260208201905092915050565b600082825260208201905092915050565b600082825260208201905092915050565b600082825260208201905092915050565b60006112fe82611311565b9050919050565b60008115159050919050565b600073ffffffffffffffffffffffffffffffffffffffff82169050919050565b6000819050919050565b82818337600083830152505050565b60005b8381101561136857808201518184015260208101905061134d565b83811115611377576000848401525b50505050565b6000601f19601f8301169050919050565b61139781611331565b81146113a257600080fd5b5056fea365627a7a72315820c49f18c5c3f7c9af09df9c41616c67d093620a8e8ed1b47b4628c604f0bd03c66c6578706572696d656e74616cf564736f6c63430005100040",
  "source": "// SPDX-License-Identifier: Blockchain\r\npragma solidity ^0.5.16;\r\npragma experimental ABIEncoderV2;\r\n\r\ncontract Reports {\r\n    string public name;\r\n\r\n    constructor() public {\r\n        name = \"Reports Solidity Contract\";\r\n    }\r\n\r\n    struct Report {\r\n        uint256 id;\r\n        address reporter;\r\n        uint256 reportDate;\r\n        uint256 orderId;\r\n        string title;\r\n        string[] imageHash;\r\n        string[] missingItems;\r\n        string remarks;\r\n        uint256 approvalCount;\r\n        uint256 rejectionCount;\r\n        address[] voters;\r\n        bool complete;\r\n        uint256 penaltyFee;\r\n    }\r\n\r\n    mapping(uint256 => Report) public reports;\r\n    uint256 public reportsCount;\r\n\r\n    function createReport(\r\n        uint256 _orderId,\r\n        string memory _title,\r\n        string[] memory _imageHash,\r\n        string[] memory _missingItems,\r\n        string memory _remarks\r\n    ) public {\r\n        reportsCount++;\r\n        reports[reportsCount] = Report(\r\n            reportsCount,\r\n            msg.sender,\r\n            now,\r\n            _orderId,\r\n            _title,\r\n            _imageHash,\r\n            _missingItems,\r\n            _remarks,\r\n            0,\r\n            0,\r\n            new address[](0),\r\n            false,\r\n            0\r\n        );\r\n    }\r\n\r\n    function getImageHash(uint256 _reportId)\r\n        public\r\n        returns (string[] memory imageHash)\r\n    {\r\n        return reports[_reportId].imageHash;\r\n    }\r\n\r\n    function getMissingItems(uint256 _reportId)\r\n        public\r\n        returns (string[] memory missingItems)\r\n    {\r\n        return reports[_reportId].missingItems;\r\n    }\r\n\r\n    function getVoters(uint256 _reportId)\r\n        public\r\n        returns (address[] memory voters)\r\n    {\r\n        return reports[_reportId].voters;\r\n    }\r\n\r\n    function addApprovalCount(uint256 _reportId) public {\r\n        reports[_reportId].approvalCount = reports[_reportId].approvalCount + 1;\r\n        (reports[_reportId].voters).push(msg.sender);\r\n    }\r\n\r\n    function addRejectionCount(uint256 _reportId) public {\r\n        reports[_reportId].rejectionCount =\r\n            reports[_reportId].rejectionCount +\r\n            1;\r\n        (reports[_reportId].voters).push(msg.sender);\r\n    }\r\n}\r\n",
  "sourcePath": "C:/Users/Casuarina/Desktop/FYP_FoodIndustry/blockchain/src/contracts/Reports.sol",
  "compiler": {
    "name": "solc",
    "version": "0.5.16+commit.9c3226ce.Emscripten.clang"
  },
  "schemaVersion": "3.4.1",
  "updatedAt": "2021-08-08T16:58:27.987Z",
  "networkType": "ethereum",
  "devdoc": {
    "methods": {}
  },
  "userdoc": {
    "methods": {}
  }
}