{
  "contractName": "Reports",
  "abi": [
    {
      "inputs": [],
      "payable": false,
      "stateMutability": "nonpayable",
      "type": "constructor"
    },
    {
      "constant": true,
      "inputs": [],
      "name": "name",
      "outputs": [
        {
          "internalType": "string",
          "name": "",
          "type": "string"
        }
      ],
      "payable": false,
      "stateMutability": "view",
      "type": "function"
    },
    {
      "constant": true,
      "inputs": [
        {
          "internalType": "uint256",
          "name": "",
          "type": "uint256"
        }
      ],
      "name": "reports",
      "outputs": [
        {
          "internalType": "uint256",
          "name": "id",
          "type": "uint256"
        },
        {
          "internalType": "address",
          "name": "reporter",
          "type": "address"
        },
        {
          "internalType": "uint256",
          "name": "reportDate",
          "type": "uint256"
        },
        {
          "internalType": "uint256",
          "name": "deadlineDate",
          "type": "uint256"
        },
        {
          "internalType": "uint256",
          "name": "orderId",
          "type": "uint256"
        },
        {
          "internalType": "string",
          "name": "title",
          "type": "string"
        },
        {
          "internalType": "string",
          "name": "remarks",
          "type": "string"
        },
        {
          "internalType": "uint256",
          "name": "approvalCount",
          "type": "uint256"
        },
        {
          "internalType": "uint256",
          "name": "rejectionCount",
          "type": "uint256"
        },
        {
          "internalType": "uint256",
          "name": "penaltyFee",
          "type": "uint256"
        }
      ],
      "payable": false,
      "stateMutability": "view",
      "type": "function"
    },
    {
      "constant": true,
      "inputs": [],
      "name": "reportsCount",
      "outputs": [
        {
          "internalType": "uint256",
          "name": "",
          "type": "uint256"
        }
      ],
      "payable": false,
      "stateMutability": "view",
      "type": "function"
    },
    {
      "constant": false,
      "inputs": [
        {
          "internalType": "uint256",
          "name": "_orderId",
          "type": "uint256"
        },
        {
          "internalType": "string",
          "name": "_title",
          "type": "string"
        },
        {
          "internalType": "string[]",
          "name": "_imageHash",
          "type": "string[]"
        },
        {
          "internalType": "string[]",
          "name": "_missingItems",
          "type": "string[]"
        },
        {
          "internalType": "string",
          "name": "_remarks",
          "type": "string"
        }
      ],
      "name": "createReport",
      "outputs": [],
      "payable": false,
      "stateMutability": "nonpayable",
      "type": "function"
    },
    {
      "constant": false,
      "inputs": [
        {
          "internalType": "uint256",
          "name": "_reportId",
          "type": "uint256"
        }
      ],
      "name": "getImageHash",
      "outputs": [
        {
          "internalType": "string[]",
          "name": "imageHash",
          "type": "string[]"
        }
      ],
      "payable": false,
      "stateMutability": "nonpayable",
      "type": "function"
    },
    {
      "constant": false,
      "inputs": [
        {
          "internalType": "uint256",
          "name": "_reportId",
          "type": "uint256"
        }
      ],
      "name": "getMissingItems",
      "outputs": [
        {
          "internalType": "string[]",
          "name": "missingItems",
          "type": "string[]"
        }
      ],
      "payable": false,
      "stateMutability": "nonpayable",
      "type": "function"
    },
    {
      "constant": false,
      "inputs": [
        {
          "internalType": "uint256",
          "name": "_reportId",
          "type": "uint256"
        }
      ],
      "name": "getVoters",
      "outputs": [
        {
          "internalType": "address[]",
          "name": "voters",
          "type": "address[]"
        }
      ],
      "payable": false,
      "stateMutability": "nonpayable",
      "type": "function"
    },
    {
      "constant": false,
      "inputs": [
        {
          "internalType": "uint256",
          "name": "_reportId",
          "type": "uint256"
        }
      ],
      "name": "addApprovalCount",
      "outputs": [],
      "payable": false,
      "stateMutability": "nonpayable",
      "type": "function"
    },
    {
      "constant": false,
      "inputs": [
        {
          "internalType": "uint256",
          "name": "_reportId",
          "type": "uint256"
        }
      ],
      "name": "addRejectionCount",
      "outputs": [],
      "payable": false,
      "stateMutability": "nonpayable",
      "type": "function"
    }
  ],
  "bytecode": "0x60806040523480156200001157600080fd5b506040518060400160405280601981526020017f5265706f72747320536f6c696469747920436f6e747261637400000000000000815250600090805190602001906200005f92919062000066565b5062000115565b828054600181600116156101000203166002900490600052602060002090601f016020900481019282601f10620000a957805160ff1916838001178555620000da565b82800160010185558215620000da579182015b82811115620000d9578251825591602001919060010190620000bc565b5b509050620000e99190620000ed565b5090565b6200011291905b808211156200010e576000816000905550600101620000f4565b5090565b90565b6113ac80620001256000396000f3fe608060405234801561001057600080fd5b50600436106100935760003560e01c80636283446211610066578063628344621461010c578063642684fb1461013c57806386b646f214610158578063c942adf714610188578063f91d27cf146101c157610093565b806306fdde03146100985780631896f61e146100b65780633e0c27f0146100d25780634fdcea7b146100f0575b600080fd5b6100a06101f1565b6040516100ad9190611090565b60405180910390f35b6100d060048036036100cb9190810190610dae565b61028f565b005b6100da61033f565b6040516100e791906110b2565b60405180910390f35b61010a60048036036101059190810190610dae565b610345565b005b61012660048036036101219190810190610dae565b6103f5565b604051610133919061106e565b60405180910390f35b61015660048036036101519190810190610dd7565b6104f4565b005b610172600480360361016d9190810190610dae565b6106f0565b60405161017f919061104c565b60405180910390f35b6101a2600480360361019d9190810190610dae565b610794565b6040516101b89a999897969594939291906110cd565b60405180910390f35b6101db60048036036101d69190810190610dae565b610938565b6040516101e8919061106e565b60405180910390f35b60008054600181600116156101000203166002900480601f0160208091040260200160405190810160405280929190818152602001828054600181600116156101000203166002900480156102875780601f1061025c57610100808354040283529160200191610287565b820191906000526020600020905b81548152906001019060200180831161026a57829003601f168201915b505050505081565b6001806000838152602001908152602001600020600a01540160016000838152602001908152602001600020600a018190555060016000828152602001908152602001600020600b013390806001815401808255809150509060018203906000526020600020016000909192909190916101000a81548173ffffffffffffffffffffffffffffffffffffffff021916908373ffffffffffffffffffffffffffffffffffffffff1602179055505050565b60025481565b60018060008381526020019081526020016000206009015401600160008381526020019081526020016000206009018190555060016000828152602001908152602001600020600b013390806001815401808255809150509060018203906000526020600020016000909192909190916101000a81548173ffffffffffffffffffffffffffffffffffffffff021916908373ffffffffffffffffffffffffffffffffffffffff1602179055505050565b606060016000838152602001908152602001600020600601805480602002602001604051908101604052809291908181526020016000905b828210156104e9578382906000526020600020018054600181600116156101000203166002900480601f0160208091040260200160405190810160405280929190818152602001828054600181600116156101000203166002900480156104d55780601f106104aa576101008083540402835291602001916104d5565b820191906000526020600020905b8154815290600101906020018083116104b857829003601f168201915b50505050508152602001906001019061042d565b505050509050919050565b600260008154809291906001019190505550604051806101a0016040528060025481526020013373ffffffffffffffffffffffffffffffffffffffff1681526020014281526020016203f48042018152602001868152602001858152602001848152602001838152602001828152602001600081526020016000815260200160006040519080825280602002602001820160405280156105a35781602001602082028038833980820191505090505b50815260200160008152506001600060025481526020019081526020016000206000820151816000015560208201518160010160006101000a81548173ffffffffffffffffffffffffffffffffffffffff021916908373ffffffffffffffffffffffffffffffffffffffff16021790555060408201518160020155606082015181600301556080820151816004015560a082015181600501908051906020019061064e929190610a37565b5060c082015181600601908051906020019061066b929190610ab7565b5060e0820151816007019080519060200190610688929190610ab7565b506101008201518160080190805190602001906106a6929190610a37565b50610120820151816009015561014082015181600a015561016082015181600b0190805190602001906106da929190610b17565b5061018082015181600c01559050505050505050565b606060016000838152602001908152602001600020600b0180548060200260200160405190810160405280929190818152602001828054801561078857602002820191906000526020600020905b8160009054906101000a900473ffffffffffffffffffffffffffffffffffffffff1673ffffffffffffffffffffffffffffffffffffffff168152602001906001019080831161073e575b50505050509050919050565b60016020528060005260406000206000915090508060000154908060010160009054906101000a900473ffffffffffffffffffffffffffffffffffffffff1690806002015490806003015490806004015490806005018054600181600116156101000203166002900480601f01602080910402602001604051908101604052809291908181526020018280546001816001161561010002031660029004801561087e5780601f106108535761010080835404028352916020019161087e565b820191906000526020600020905b81548152906001019060200180831161086157829003601f168201915b505050505090806008018054600181600116156101000203166002900480601f01602080910402602001604051908101604052809291908181526020018280546001816001161561010002031660029004801561091c5780601f106108f15761010080835404028352916020019161091c565b820191906000526020600020905b8154815290600101906020018083116108ff57829003601f168201915b50505050509080600901549080600a01549080600c015490508a565b606060016000838152602001908152602001600020600701805480602002602001604051908101604052809291908181526020016000905b82821015610a2c578382906000526020600020018054600181600116156101000203166002900480601f016020809104026020016040519081016040528092919081815260200182805460018160011615610100020316600290048015610a185780601f106109ed57610100808354040283529160200191610a18565b820191906000526020600020905b8154815290600101906020018083116109fb57829003601f168201915b505050505081526020019060010190610970565b505050509050919050565b828054600181600116156101000203166002900490600052602060002090601f016020900481019282601f10610a7857805160ff1916838001178555610aa6565b82800160010185558215610aa6579182015b82811115610aa5578251825591602001919060010190610a8a565b5b509050610ab39190610ba1565b5090565b828054828255906000526020600020908101928215610b06579160200282015b82811115610b05578251829080519060200190610af5929190610a37565b5091602001919060010190610ad7565b5b509050610b139190610bc6565b5090565b828054828255906000526020600020908101928215610b90579160200282015b82811115610b8f5782518260006101000a81548173ffffffffffffffffffffffffffffffffffffffff021916908373ffffffffffffffffffffffffffffffffffffffff16021790555091602001919060010190610b37565b5b509050610b9d9190610bf2565b5090565b610bc391905b80821115610bbf576000816000905550600101610ba7565b5090565b90565b610bef91905b80821115610beb5760008181610be29190610c35565b50600101610bcc565b5090565b90565b610c3291905b80821115610c2e57600081816101000a81549073ffffffffffffffffffffffffffffffffffffffff021916905550600101610bf8565b5090565b90565b50805460018160011615610100020316600290046000825580601f10610c5b5750610c7a565b601f016020900490600052602060002090810190610c799190610ba1565b5b50565b600082601f830112610c8e57600080fd5b8135610ca1610c9c826111a4565b611177565b9150818183526020840193506020810190508360005b83811015610ce75781358601610ccd8882610cf1565b845260208401935060208301925050600181019050610cb7565b5050505092915050565b600082601f830112610d0257600080fd5b8135610d15610d10826111cc565b611177565b91508082526020830160208301858383011115610d3157600080fd5b610d3c8382846112ff565b50505092915050565b600082601f830112610d5657600080fd5b8135610d69610d64826111f8565b611177565b91508082526020830160208301858383011115610d8557600080fd5b610d908382846112ff565b50505092915050565b600081359050610da881611352565b92915050565b600060208284031215610dc057600080fd5b6000610dce84828501610d99565b91505092915050565b600080600080600060a08688031215610def57600080fd5b6000610dfd88828901610d99565b955050602086013567ffffffffffffffff811115610e1a57600080fd5b610e2688828901610d45565b945050604086013567ffffffffffffffff811115610e4357600080fd5b610e4f88828901610c7d565b935050606086013567ffffffffffffffff811115610e6c57600080fd5b610e7888828901610c7d565b925050608086013567ffffffffffffffff811115610e9557600080fd5b610ea188828901610d45565b9150509295509295909350565b6000610eba8383610eda565b60208301905092915050565b6000610ed28383610fcb565b905092915050565b610ee3816112c3565b82525050565b610ef2816112c3565b82525050565b6000610f0382611244565b610f0d818561127f565b9350610f1883611224565b8060005b83811015610f49578151610f308882610eae565b9750610f3b83611265565b925050600181019050610f1c565b5085935050505092915050565b6000610f618261124f565b610f6b8185611290565b935083602082028501610f7d85611234565b8060005b85811015610fb95784840389528151610f9a8582610ec6565b9450610fa583611272565b925060208a01995050600181019050610f81565b50829750879550505050505092915050565b6000610fd68261125a565b610fe081856112a1565b9350610ff081856020860161130e565b610ff981611341565b840191505092915050565b600061100f8261125a565b61101981856112b2565b935061102981856020860161130e565b61103281611341565b840191505092915050565b611046816112f5565b82525050565b600060208201905081810360008301526110668184610ef8565b905092915050565b600060208201905081810360008301526110888184610f56565b905092915050565b600060208201905081810360008301526110aa8184611004565b905092915050565b60006020820190506110c7600083018461103d565b92915050565b6000610140820190506110e3600083018d61103d565b6110f0602083018c610ee9565b6110fd604083018b61103d565b61110a606083018a61103d565b611117608083018961103d565b81810360a08301526111298188611004565b905081810360c083015261113d8187611004565b905061114c60e083018661103d565b61115a61010083018561103d565b61116861012083018461103d565b9b9a5050505050505050505050565b6000604051905081810181811067ffffffffffffffff8211171561119a57600080fd5b8060405250919050565b600067ffffffffffffffff8211156111bb57600080fd5b602082029050602081019050919050565b600067ffffffffffffffff8211156111e357600080fd5b601f19601f8301169050602081019050919050565b600067ffffffffffffffff82111561120f57600080fd5b601f19601f8301169050602081019050919050565b6000819050602082019050919050565b6000819050602082019050919050565b600081519050919050565b600081519050919050565b600081519050919050565b6000602082019050919050565b6000602082019050919050565b600082825260208201905092915050565b600082825260208201905092915050565b600082825260208201905092915050565b600082825260208201905092915050565b60006112ce826112d5565b9050919050565b600073ffffffffffffffffffffffffffffffffffffffff82169050919050565b6000819050919050565b82818337600083830152505050565b60005b8381101561132c578082015181840152602081019050611311565b8381111561133b576000848401525b50505050565b6000601f19601f8301169050919050565b61135b816112f5565b811461136657600080fd5b5056fea365627a7a7231582092e94524603e4f594013101a9ca8bf0f6c20e623f559ea8b2f1ca077a4fbedfb6c6578706572696d656e74616cf564736f6c63430005100040",
  "source": "// SPDX-License-Identifier: Blockchain\r\npragma solidity ^0.5.16;\r\npragma experimental ABIEncoderV2;\r\n\r\ncontract Reports {\r\n    string public name;\r\n\r\n    constructor() public {\r\n        name = \"Reports Solidity Contract\";\r\n    }\r\n\r\n    struct Report {\r\n        uint256 id;\r\n        address reporter;\r\n        uint256 reportDate;\r\n        uint256 deadlineDate;\r\n        uint256 orderId;\r\n        string title;\r\n        string[] imageHash;\r\n        string[] missingItems;\r\n        string remarks;\r\n        uint256 approvalCount;\r\n        uint256 rejectionCount;\r\n        address[] voters;\r\n        uint256 penaltyFee;\r\n    }\r\n\r\n    mapping(uint256 => Report) public reports;\r\n    uint256 public reportsCount;\r\n\r\n    function createReport(\r\n        uint256 _orderId,\r\n        string memory _title,\r\n        string[] memory _imageHash,\r\n        string[] memory _missingItems,\r\n        string memory _remarks\r\n    ) public {\r\n        reportsCount++;\r\n        reports[reportsCount] = Report(\r\n            reportsCount,\r\n            msg.sender,\r\n            now,\r\n            now + 3 * 1 days,\r\n            _orderId,\r\n            _title,\r\n            _imageHash,\r\n            _missingItems,\r\n            _remarks,\r\n            0,\r\n            0,\r\n            new address[](0),\r\n            0\r\n        );\r\n    }\r\n\r\n    function getImageHash(uint256 _reportId)\r\n        public\r\n        returns (string[] memory imageHash)\r\n    {\r\n        return reports[_reportId].imageHash;\r\n    }\r\n\r\n    function getMissingItems(uint256 _reportId)\r\n        public\r\n        returns (string[] memory missingItems)\r\n    {\r\n        return reports[_reportId].missingItems;\r\n    }\r\n\r\n    function getVoters(uint256 _reportId)\r\n        public\r\n        returns (address[] memory voters)\r\n    {\r\n        return reports[_reportId].voters;\r\n    }\r\n\r\n    function addApprovalCount(uint256 _reportId) public {\r\n        reports[_reportId].approvalCount = reports[_reportId].approvalCount + 1;\r\n        (reports[_reportId].voters).push(msg.sender);\r\n    }\r\n\r\n    function addRejectionCount(uint256 _reportId) public {\r\n        reports[_reportId].rejectionCount =\r\n            reports[_reportId].rejectionCount +\r\n            1;\r\n        (reports[_reportId].voters).push(msg.sender);\r\n    }\r\n}\r\n",
  "sourcePath": "C:/Users/Casuarina/Desktop/FYP_FoodIndustry/blockchain/src/contracts/Reports.sol",
  "compiler": {
    "name": "solc",
    "version": "0.5.16+commit.9c3226ce.Emscripten.clang"
  },
  "schemaVersion": "3.4.1",
  "updatedAt": "2021-08-09T16:31:34.804Z",
  "networkType": "ethereum",
  "devdoc": {
    "methods": {}
  },
  "userdoc": {
    "methods": {}
  }
}