{
  "contractName": "Reports",
  "abi": [
    {
      "inputs": [],
      "payable": false,
      "stateMutability": "nonpayable",
      "type": "constructor"
    },
    {
      "constant": true,
      "inputs": [],
      "name": "name",
      "outputs": [
        {
          "internalType": "string",
          "name": "",
          "type": "string"
        }
      ],
      "payable": false,
      "stateMutability": "view",
      "type": "function"
    },
    {
      "constant": true,
      "inputs": [
        {
          "internalType": "uint256",
          "name": "",
          "type": "uint256"
        }
      ],
      "name": "reports",
      "outputs": [
        {
          "internalType": "uint256",
          "name": "id",
          "type": "uint256"
        },
        {
          "internalType": "address",
          "name": "reporter",
          "type": "address"
        },
        {
          "internalType": "uint256",
          "name": "reportDate",
          "type": "uint256"
        },
        {
          "internalType": "uint256",
          "name": "orderId",
          "type": "uint256"
        },
        {
          "internalType": "string",
          "name": "title",
          "type": "string"
        },
        {
          "internalType": "string",
          "name": "remarks",
          "type": "string"
        },
        {
          "internalType": "uint256",
          "name": "approvalCount",
          "type": "uint256"
        },
        {
          "internalType": "uint256",
          "name": "rejectionCount",
          "type": "uint256"
        },
        {
          "internalType": "bool",
          "name": "complete",
          "type": "bool"
        },
        {
          "internalType": "uint256",
          "name": "penaltyFee",
          "type": "uint256"
        }
      ],
      "payable": false,
      "stateMutability": "view",
      "type": "function"
    },
    {
      "constant": true,
      "inputs": [],
      "name": "reportsCount",
      "outputs": [
        {
          "internalType": "uint256",
          "name": "",
          "type": "uint256"
        }
      ],
      "payable": false,
      "stateMutability": "view",
      "type": "function"
    },
    {
      "constant": false,
      "inputs": [
        {
          "internalType": "uint256",
          "name": "_orderId",
          "type": "uint256"
        },
        {
          "internalType": "string",
          "name": "_title",
          "type": "string"
        },
        {
          "internalType": "string[]",
          "name": "_imageHash",
          "type": "string[]"
        },
        {
          "internalType": "string[]",
          "name": "_missingItems",
          "type": "string[]"
        },
        {
          "internalType": "string",
          "name": "_remarks",
          "type": "string"
        }
      ],
      "name": "createReport",
      "outputs": [],
      "payable": false,
      "stateMutability": "nonpayable",
      "type": "function"
    },
    {
      "constant": false,
      "inputs": [
        {
          "internalType": "uint256",
          "name": "_reportId",
          "type": "uint256"
        }
      ],
      "name": "getImageHash",
      "outputs": [
        {
          "internalType": "string[]",
          "name": "imageHash",
          "type": "string[]"
        }
      ],
      "payable": false,
      "stateMutability": "nonpayable",
      "type": "function"
    },
    {
      "constant": false,
      "inputs": [
        {
          "internalType": "uint256",
          "name": "_reportId",
          "type": "uint256"
        }
      ],
      "name": "getMissingItems",
      "outputs": [
        {
          "internalType": "string[]",
          "name": "missingItems",
          "type": "string[]"
        }
      ],
      "payable": false,
      "stateMutability": "nonpayable",
      "type": "function"
    }
  ],
  "bytecode": "0x608060405234801561001057600080fd5b506040518060400160405280601981526020017f5265706f72747320536f6c696469747920436f6e7472616374000000000000008152506000908051906020019061005c929190610062565b50610107565b828054600181600116156101000203166002900490600052602060002090601f016020900481019282601f106100a357805160ff19168380011785556100d1565b828001600101855582156100d1579182015b828111156100d05782518255916020019190600101906100b5565b5b5090506100de91906100e2565b5090565b61010491905b808211156101005760008160009055506001016100e8565b5090565b90565b610f4a806101166000396000f3fe608060405234801561001057600080fd5b50600436106100625760003560e01c806306fdde03146100675780633e0c27f01461008557806362834462146100a3578063642684fb146100d3578063c942adf7146100ef578063f91d27cf14610128575b600080fd5b61006f610158565b60405161007c9190610c5b565b60405180910390f35b61008d6101f6565b60405161009a9190610c7d565b60405180910390f35b6100bd60048036036100b89190810190610a11565b6101fc565b6040516100ca9190610c39565b60405180910390f35b6100ed60048036036100e89190810190610a3a565b6102fb565b005b61010960048036036101049190810190610a11565b6104b7565b60405161011f9a99989796959493929190610c98565b60405180910390f35b610142600480360361013d9190810190610a11565b610668565b60405161014f9190610c39565b60405180910390f35b60008054600181600116156101000203166002900480601f0160208091040260200160405190810160405280929190818152602001828054600181600116156101000203166002900480156101ee5780601f106101c3576101008083540402835291602001916101ee565b820191906000526020600020905b8154815290600101906020018083116101d157829003601f168201915b505050505081565b60025481565b606060016000838152602001908152602001600020600501805480602002602001604051908101604052809291908181526020016000905b828210156102f0578382906000526020600020018054600181600116156101000203166002900480601f0160208091040260200160405190810160405280929190818152602001828054600181600116156101000203166002900480156102dc5780601f106102b1576101008083540402835291602001916102dc565b820191906000526020600020905b8154815290600101906020018083116102bf57829003601f168201915b505050505081526020019060010190610234565b505050509050919050565b60026000815480929190600101919050555060405180610180016040528060025481526020013373ffffffffffffffffffffffffffffffffffffffff168152602001428152602001868152602001858152602001848152602001838152602001828152602001600081526020016000815260200160001515815260200160008152506001600060025481526020019081526020016000206000820151816000015560208201518160010160006101000a81548173ffffffffffffffffffffffffffffffffffffffff021916908373ffffffffffffffffffffffffffffffffffffffff16021790555060408201518160020155606082015181600301556080820151816004019080519060200190610413929190610767565b5060a08201518160050190805190602001906104309291906107e7565b5060c082015181600601908051906020019061044d9291906107e7565b5060e082015181600701908051906020019061046a929190610767565b506101008201518160080155610120820151816009015561014082015181600a0160006101000a81548160ff02191690831515021790555061016082015181600b01559050505050505050565b60016020528060005260406000206000915090508060000154908060010160009054906101000a900473ffffffffffffffffffffffffffffffffffffffff1690806002015490806003015490806004018054600181600116156101000203166002900480601f01602080910402602001604051908101604052809291908181526020018280546001816001161561010002031660029004801561059b5780601f106105705761010080835404028352916020019161059b565b820191906000526020600020905b81548152906001019060200180831161057e57829003601f168201915b505050505090806007018054600181600116156101000203166002900480601f0160208091040260200160405190810160405280929190818152602001828054600181600116156101000203166002900480156106395780601f1061060e57610100808354040283529160200191610639565b820191906000526020600020905b81548152906001019060200180831161061c57829003601f168201915b50505050509080600801549080600901549080600a0160009054906101000a900460ff169080600b015490508a565b606060016000838152602001908152602001600020600601805480602002602001604051908101604052809291908181526020016000905b8282101561075c578382906000526020600020018054600181600116156101000203166002900480601f0160208091040260200160405190810160405280929190818152602001828054600181600116156101000203166002900480156107485780601f1061071d57610100808354040283529160200191610748565b820191906000526020600020905b81548152906001019060200180831161072b57829003601f168201915b5050505050815260200190600101906106a0565b505050509050919050565b828054600181600116156101000203166002900490600052602060002090601f016020900481019282601f106107a857805160ff19168380011785556107d6565b828001600101855582156107d6579182015b828111156107d55782518255916020019190600101906107ba565b5b5090506107e39190610847565b5090565b828054828255906000526020600020908101928215610836579160200282015b82811115610835578251829080519060200190610825929190610767565b5091602001919060010190610807565b5b509050610843919061086c565b5090565b61086991905b8082111561086557600081600090555060010161084d565b5090565b90565b61089591905b8082111561089157600081816108889190610898565b50600101610872565b5090565b90565b50805460018160011615610100020316600290046000825580601f106108be57506108dd565b601f0160209004906000526020600020908101906108dc9190610847565b5b50565b600082601f8301126108f157600080fd5b81356109046108ff82610d6f565b610d42565b9150818183526020840193506020810190508360005b8381101561094a57813586016109308882610954565b84526020840193506020830192505060018101905061091a565b5050505092915050565b600082601f83011261096557600080fd5b813561097861097382610d97565b610d42565b9150808252602083016020830185838301111561099457600080fd5b61099f838284610e9d565b50505092915050565b600082601f8301126109b957600080fd5b81356109cc6109c782610dc3565b610d42565b915080825260208301602083018583830111156109e857600080fd5b6109f3838284610e9d565b50505092915050565b600081359050610a0b81610ef0565b92915050565b600060208284031215610a2357600080fd5b6000610a31848285016109fc565b91505092915050565b600080600080600060a08688031215610a5257600080fd5b6000610a60888289016109fc565b955050602086013567ffffffffffffffff811115610a7d57600080fd5b610a89888289016109a8565b945050604086013567ffffffffffffffff811115610aa657600080fd5b610ab2888289016108e0565b935050606086013567ffffffffffffffff811115610acf57600080fd5b610adb888289016108e0565b925050608086013567ffffffffffffffff811115610af857600080fd5b610b04888289016109a8565b9150509295509295909350565b6000610b1d8383610bb8565b905092915050565b610b2e81610e55565b82525050565b6000610b3f82610dff565b610b498185610e22565b935083602082028501610b5b85610def565b8060005b85811015610b975784840389528151610b788582610b11565b9450610b8383610e15565b925060208a01995050600181019050610b5f565b50829750879550505050505092915050565b610bb281610e67565b82525050565b6000610bc382610e0a565b610bcd8185610e33565b9350610bdd818560208601610eac565b610be681610edf565b840191505092915050565b6000610bfc82610e0a565b610c068185610e44565b9350610c16818560208601610eac565b610c1f81610edf565b840191505092915050565b610c3381610e93565b82525050565b60006020820190508181036000830152610c538184610b34565b905092915050565b60006020820190508181036000830152610c758184610bf1565b905092915050565b6000602082019050610c926000830184610c2a565b92915050565b600061014082019050610cae600083018d610c2a565b610cbb602083018c610b25565b610cc8604083018b610c2a565b610cd5606083018a610c2a565b8181036080830152610ce78189610bf1565b905081810360a0830152610cfb8188610bf1565b9050610d0a60c0830187610c2a565b610d1760e0830186610c2a565b610d25610100830185610ba9565b610d33610120830184610c2a565b9b9a5050505050505050505050565b6000604051905081810181811067ffffffffffffffff82111715610d6557600080fd5b8060405250919050565b600067ffffffffffffffff821115610d8657600080fd5b602082029050602081019050919050565b600067ffffffffffffffff821115610dae57600080fd5b601f19601f8301169050602081019050919050565b600067ffffffffffffffff821115610dda57600080fd5b601f19601f8301169050602081019050919050565b6000819050602082019050919050565b600081519050919050565b600081519050919050565b6000602082019050919050565b600082825260208201905092915050565b600082825260208201905092915050565b600082825260208201905092915050565b6000610e6082610e73565b9050919050565b60008115159050919050565b600073ffffffffffffffffffffffffffffffffffffffff82169050919050565b6000819050919050565b82818337600083830152505050565b60005b83811015610eca578082015181840152602081019050610eaf565b83811115610ed9576000848401525b50505050565b6000601f19601f8301169050919050565b610ef981610e93565b8114610f0457600080fd5b5056fea365627a7a72315820afd9490b9cbd45f14a838f7e9868f8cd9af0657243ad62973e1f5f0183d64e6b6c6578706572696d656e74616cf564736f6c63430005100040",
  "source": "// SPDX-License-Identifier: Blockchain\r\npragma solidity ^0.5.16;\r\npragma experimental ABIEncoderV2;\r\n\r\ncontract Reports {\r\n    string public name;\r\n\r\n    constructor() public {\r\n        name = \"Reports Solidity Contract\";\r\n    }\r\n\r\n    struct Report {\r\n        uint256 id;\r\n        address reporter;\r\n        uint256 reportDate;\r\n        uint256 orderId;\r\n        string title;\r\n        string[] imageHash;\r\n        string[] missingItems;\r\n        string remarks;\r\n        uint256 approvalCount;\r\n        uint256 rejectionCount;\r\n        bool complete;\r\n        uint256 penaltyFee;\r\n    }\r\n\r\n    mapping(uint256 => Report) public reports;\r\n    uint256 public reportsCount;\r\n\r\n    function createReport(\r\n        uint256 _orderId,\r\n        string memory _title,\r\n        string[] memory _imageHash,\r\n        string[] memory _missingItems,\r\n        string memory _remarks\r\n    ) public {\r\n        reportsCount++;\r\n        reports[reportsCount] = Report(\r\n            reportsCount,\r\n            msg.sender,\r\n            now,\r\n            _orderId,\r\n            _title,\r\n            _imageHash,\r\n            _missingItems,\r\n            _remarks,\r\n            0,\r\n            0,\r\n            false,\r\n            0\r\n        );\r\n    }\r\n\r\n    // function getImageHashMissingItems(uint256 _reportId)\r\n    //     public\r\n    //     returns (string[] memory imageHash, string[] memory missingItems)\r\n    // {\r\n    //     return (reports[_reportId].imageHash, reports[_reportId].missingItems);\r\n    // }\r\n\r\n    function getImageHash(uint256 _reportId)\r\n        public\r\n        returns (string[] memory imageHash)\r\n    {\r\n        return reports[_reportId].imageHash;\r\n    }\r\n\r\n    function getMissingItems(uint256 _reportId)\r\n        public\r\n        returns (string[] memory missingItems)\r\n    {\r\n        return reports[_reportId].missingItems;\r\n    }\r\n}\r\n",
  "sourcePath": "C:/Users/Casuarina/Desktop/FYP_FoodIndustry/blockchain/src/contracts/Reports.sol",
  "compiler": {
    "name": "solc",
    "version": "0.5.16+commit.9c3226ce.Emscripten.clang"
  },
  "schemaVersion": "3.4.1",
  "updatedAt": "2021-08-07T16:24:51.577Z",
  "networkType": "ethereum",
  "devdoc": {
    "methods": {}
  },
  "userdoc": {
    "methods": {}
  }
}